:100000000C9436300C9467300C9467300C94673045
:100010000C9467300C9467300C9467300C94673004
:100020000C9467300C9467300C9467300C946730F4
:100030000C9467300C9467300C9467300C946730E4
:100040000C9467300D941C260C9467300C94673028
:100050000C9467300C9467300D94461F0D94E07F2C
:100060000C9467300C94BF9C0C94899C0C94673062
:100070000C9467300C9467300C9467300C946730A4
:100080000C94C5560C9467300C9467300C94673010
:100090000C9467300C9467300C9467300C94673084
:1000A0000C9467300C9467300C9497560C9467301E
:1000B0000C9467300C9467300C9467300C94673064
:1000C0000C9467300C9467300C9467300C94673054
:1000D0000C9467300C9467300C9467300C94673044
:1000E0000C946730084AD73B3BCE016E84BCBFFD01
:1000F000C12F3D6C74319ABD56833DDA3D00C77FF8
:1001000011BED9E4BB4C3E916BAAAABE0000008090
:100110003F05A84CCDB2D44EB93836A9020C50B91F
:10012000918688083CA6AAAA2ABE000000803F0744
:10013000634236B79BD8A71A39685618AEBAAB5582
:100140008C1D3CB7CC5763BD6DEDFD753EF6177247
:1001500031BF000000803F08000000BE9224491219
:100160003EABAAAA2ABECDCCCC4C3E00000080BE3D
:10017000ABAAAAAA3E00000000BF000000803F001A
:1001800000000000084178D3BB4387D1133D190E0E
:100190003CC3BD4282AD2B3E68EC8276BED98FE176
:1001A000A93E4C80EFFFBE01C4FF7F3F000000006E
:1001B00000000D944B7A0D94447B0D944F7A0D946E
:1001C00049150D94F17A0D94D3140D94F1140D94F6
:1001D000C2020D94787A0D942C7A0D9461040D94DA
:1001E000DF7A0D940D7B0D94B30C0D94267B0D944A
:1001F00031150D948D130D94707A0D94437A0D94EE
:10020000A5050D94627A0D94BE7A0D94560D0D9449
:10021000F97A0D94827A0D948A130D9445140D94F5
:10022000587B0D94747A0D94FE150D94590A0D9413
:10023000330D0D9407130D943A7B0D9485060D94A0
:100240005C7A0D94527A0D94C4150D94C1160D94D8
:100250003B0D0D94678F0D94EE0C0D941F5C0D9467
:100260004C5C0D94C67A0D94CB7A0D94317A0D9432
:10027000587A0D94037B0D947E7A0D94667A0D94D2
:10028000A3000D947E5C0D944E7B0D94E97A0D9441
:100290006E080D94D4150D94D57A0D9460140D94B8
:1002A00089130D946B5D0D94477A0D9472970D949C
:1002B0006A7A0D94177B0D94307B4E414E494E491E
:1002C0005459494E46CDCCCC3D0AD7233C17B7D123
:1002D0003877CC2B329595E6241FB14F0A000020C9
:1002E000410000C84200401C4620BCBE4CCA1B0E48
:1002F0005AAEC59D7400407A10F35A00A0724E1891
:10030000090010A5D4E80000E87648170000E40BC7
:1003100054020000CA9A3B000000E1F5050000808D
:10032000969800000040420F000000A086010000E7
:1003300000102700000000E8030000000064000037
:100340000000000A00000000000100000000002C76
:1003500076D888DC674F0823DFC1DFAE59E1B1B73B
:1003600096E5E3E453C63AE651997696E8E6C28408
:1003700026EB898C9B62ED407C6FFCEFBC9C9F4020
:10038000F2BAA56FA5F490055A2AF75C936B6CF945
:10039000676DC11BFCE0E40D47FEF520E6B500D01B
:1003A000ED902E0300943577050080841E08000030
:1003B000204E0A000000C80C333333330F986E12FE
:1003C000831141EF8D2114893BE65516CFFEE6DB04
:1003D00018D1844B381BF77C1D901DA4BBE424204E
:1003E0003284725E228100C9F124ECA1E53D2736FA
:1003F0003726033C3D380E2E303E1224221E131A9F
:100400001C180A074309070844000170012C0190D9
:10041000012701B0012201C0011D01F001180110E6
:1004200002130130020E016002090190020401C0B2
:1004300002FF000003FA004003F5008003F000D043
:1004400003EB002004E6007004E100E004DC00405F
:1004500005D700C005D2004006CD00D006C80080F8
:1004600007C3003008BE00F008B900C009B400B0EE
:100470000AAF00B00BAA00D00CA500000EA00050DF
:100480000F9B00C01096005012910000148C00C009
:10049000158700B0178200B0197D00D01B780000CE
:1004A0001E730040206E0090226900F0246400401A
:1004B000275F0090295A00E02B5500102E50002095
:1004C000304B0010324600E033410090353C0010C4
:1004D00037370070383200A0392D00B03A2800A01C
:1004E0003B2300603C1E00103D1900903D1400109D
:1004F0003E0F00703E0A00C03E0500003F00004075
:100500003FFBFF803FF6FFC03FF1FF24F404D920FA
:100510001BC40C5C0E9804C4095F0265077101F4EA
:1005200005F900FB04B30048048700C103690058C3
:1005300003550003034500BE023A00840231005314
:10054000022A002902250004022000E4011C00C840
:10055000011900AF01170098011400840113007104
:100560000110006101100051010E0043010D003621
:10057000010B002B010B0020010B00150109000CE1
:1005800001090003010800FB000800F3000800EB6C
:10059000000700E4000600DE000600D8000600D2D6
:1005A000000600CC000500C7000500C2000500BD24
:1005B000000400B9000400B5000400B1000400AD5F
:1005C000000400A9000400A5000300A20003009F8E
:1005D0000004009B000300980003009500020093B4
:1005E000000300900003008D0002008B00030088D0
:1005F0000002008600020084000300810002007FE8
:100600000002007D0002007B0002007900020077FA
:100610000001007600020074000200720001007107
:100620000002006F0002006D0001006C0002006A11
:10063000000100690002006700010066000100651A
:10064000000100640002006200010061000100601E
:100650000001005F0002005D0001005C0001005B22
:100660000001005A00010059000100580001005724
:100670000001005600010055000100540001005324
:100680000000005300010052000100510001005021
:100690000001004F0001004E0000004E0001004D1F
:1006A0000001004C0001004B0000004B0001004A1B
:1006B0000001004900010048000000480001004717
:1006C0000001004600000046000100450000004512
:1006D000000100440001004300000043000100420B
:1006E0000000004200010041000000410001004004
:1006F0000001003F0000003F0001003E0000003EFE
:100700000001003D0000003D0001003C0000003CF5
:100710000000003C0001003B0000003B0001003AEB
:100720000000003A000100390000003900010038E3
:1007300000000038000000380001003700000037DA
:1007400000010036000000360000003600010035D0
:1007500000000035000000350001003400000034C6
:1007600000000034000100330000003300000033BB
:1007700000010032000000320000003200010031B0
:1007800000000031000000310001003000000030A6
:10079000000000300001002F0000002F0000002F9B
:1007A0000000002F0001002E0000002E0000002E8F
:1007B0000001002D0000002D0000002D0000002D84
:1007C0000001002C0000002C0000002C0000002C78
:1007D0000001002B0000002B0000002B0000002B6C
:1007E0000001002A0000002A0000002A0000002A60
:1007F0000001002900000029000000290000002954
:100800000000002900010028000000280000002846
:100810000000002800000028000100270000002739
:10082000000000270000002700000027000100262C
:100830000000002600000026000000260000002620
:100840000001002500000025000000250000002513
:100850000000002500000025000100240000002405
:1008600000000024000000240000002400010023F8
:1008700000000023000000230000002300000023EC
:1008800000000023000000230001002200000022DD
:1008900000000022000000220000002200000022D0
:1008A00000010021000000210000002100000021C3
:1008B00000000021000000210000002100010020B4
:1008C00000000020000000200000002000000020A8
:1008D0000000002000000020000000200001001F98
:1008E0000000001F0000001F0000001F0000001F8C
:1008F0000000001F0000001F0001001E0000001E7D
:100900000000001E0000001E00000024F4D430503F
:10091000C38E20C2A24017828B7011127A910D8172
:100920006CD90AA861E108C7586607615143061EE1
:100930004B5D05C145A7041A411104093D98037197
:100940003931034036DB0265339102D430540280E2
:100950002E1D02632CEE01752AC501B028A00110DE
:100960002781018F2564012B244B01E0223401AC47
:10097000211F018D200D01801FFC00841EED0097BA
:100980001DDF00B81CD200E61BC600201BBC0064A3
:100990001AB200B219A8000A19A0006A189900D169
:1009A00017910040178B00B516840031167E00B3F6
:1009B0001579003A157300C7146F0058146A00EED9
:1009C0001366008813630025135E00C7125B006C7A
:1009D00012570015125400C111510070114F00211F
:1009E000114B00D61049008D1047004610440002FC
:1009F000104200C00F4000800F3E00420F3C000636
:100A00000F3B00CB0E3800930E37005C0E350027ED
:100A10000E3400F30D3200C10D3100900D30006036
:100A20000D2E00320D2D00050D2C00D90C2B00AE23
:100A30000C2900850C29005C0C2700350C27000EC2
:100A40000C2600E80B2400C40B2400A00B23007D1F
:100A50000B23005A0B2100390B2100180B2000F842
:100A60000A1F00D90A1E00BB0A1E009D0A1D008035
:100A70000A1D00630A1C00470A1B002C0A1B0011F8
:100A80000A1A00F7091A00DD091900C4091900AB98
:100A9000091900920917007B091800630917004C17
:100AA00009160036091600200916000A091500F576
:100AB000081500E0081400CC081400B8081400A4BD
:100AC000081400900813007D0812006B08130058EA
:100AD0000812004608120034081100230811001201
:100AE00008110001081100F0071000E0071000D005
:100AF000071000C0071000B0070F00A107100091F9
:100B0000070E0083070F0074070F0065070E0057DC
:100B1000070E0049070E003B070D002E070E0020B0
:100B2000070D0013070D0006070D00F9060C00ED78
:100B3000060D00E0060C00D4060C00C8060C00BC34
:100B4000060C00B0060C00A4060B0099060C008DE4
:100B5000060B0082060B0077060B006C060B00618B
:100B6000060A0057060B004C060A0042060A003827
:100B7000060A002E060A0024060A001A060A0010B9
:100B800006090007060A00FD050900F4050900EB47
:100B9000050900E2050900D9050900D0050900C7CB
:100BA000050900BE050900B5050800AD050800A54A
:100BB0000509009C050800940508008C05080084C0
:100BC0000508007C050800740508006C0507006531
:100BD0000508005D050700560508004E050700479B
:100BE0000507004005080038050700310507002A01
:100BF000050700230507001C050600160507000F62
:100C00000507000805060002050700FB040600F5BD
:100C1000040700EE040600E8040600E2040700DB17
:100C2000040600D5040600CF040600C9040600C36C
:100C3000040600BD040600B7040600B1040500ACBC
:100C4000040600A6040600A00405009B0406009507
:100C5000040500900406008A040500850405008050
:100C60000406007A04050075040500700405006B95
:100C700004050066040500610405005C04050057D6
:100C8000040500520405004D040500480405004316
:100C90000405003E0404003A040500350405003054
:100CA0000404002C04050027040400230405001E8E
:100CB0000404001A04040016040500110404000DC5
:100CC000040400090405000404040000040400FCFA
:100CD000030400F8030400F4030400F0030400EC30
:100CE000030400E8030400E4030400E0030400DC60
:100CF000030400D8030400D4030400D0030400CC90
:100D0000030400C8030300C5030300726F74617419
:100D1000696F6E206D61747269783A0A0024F40478
:100D2000D9201BC40C5C0E9804C4095F02650771CE
:100D300001F405F900FB04B30048048700C103690E
:100D4000005803550003034500BE023A00840231F7
:100D50000053022A002902250004022000E4011C9D
:100D600000C8011900AF0117009801140084011395
:100D700000710110006101100051010E0043010DCE
:100D80000036010B002B010B0020010B001501099F
:100D9000000C01090003010800FB000800F3000833
:100DA00000EB000700E4000600DE000600D80006A5
:100DB00000D2000600CC000500C7000500C20005F7
:100DC00000BD000400B9000400B5000400B1000437
:100DD00000AD000400A9000400A5000300A2000368
:100DE000009F0004009B0003009800030095000290
:100DF0000093000300900003008D0002008B0003AD
:100E000000880002008600020084000300810002C6
:100E1000007F0002007D0002007B000200790002DA
:100E200000770001007600020074000200720001E9
:100E300000710002006F0002006D0001006C0002F2
:100E4000006A0001006900020067000100660001FD
:100E50000065000100640002006200010061000101
:100E600000600001005F0002005D0001005C000105
:100E7000005B0001005A0001005900010058000108
:100E80000057000100560001005500010054000108
:100E90000053000000530001005200010051000106
:100EA00000500001004F0001004E0000004E000104
:100EB000004D0001004C0001004B0000004B000100
:100EC000004A0001004900010048000000480001FC
:100ED00000470001004600000046000100450000F8
:100EE00000450001004400010043000000430001F0
:100EF00000420000004200010041000000410001EA
:100F000000400001003F0000003F0001003E0000E3
:100F1000003E0001003D0000003D0001003C0000DB
:100F2000003C0000003C0001003B0000003B0001D1
:100F3000003A0000003A00010039000000390001C9
:100F400000380000003800000038000100370000C1
:100F500000370001003600000036000000360001B6
:100F600000350000003500000035000100340000AD
:100F700000340000003400010033000000330000A2
:100F80000033000100320000003200000032000196
:100F9000003100000031000000310001003000008D
:100FA0000030000000300001002F0000002F000082
:100FB000002F0000002F0001002E0000002E000076
:100FC000002E0001002D0000002D0000002D00006B
:100FD000002D0001002C0000002C0000002C00005F
:100FE000002C0001002B0000002B0000002B000053
:100FF000002B0001002A0000002A0000002A000047
:10100000002A00010029000000290000002900003A
:10101000002900000029000100280000002800002D
:101020000028000000280000002800010027000020
:101030000027000000270000002700000027000113
:101040000026000000260000002600000026000008
:1010500000260001002500000025000000250000FA
:1010600000250000002500000025000100240000EC
:1010700000240000002400000024000000240001DF
:1010800000230000002300000023000000230000D4
:1010900000230000002300000023000100220000C4
:1010A00000220000002200000022000000220000B8
:1010B00000220001002100000021000000210000AA
:1010C000002100000021000000210000002100019B
:1010D0000020000000200000002000000020000090
:1010E000002000000020000000200000002000017F
:1010F000001F0000001F0000001F0000001F000074
:10110000001F0000001F0000001F0001001E000063
:10111000001E0000001E0000001E00000024F4D489
:101120003050C38E20C2A24017828B7011127A9168
:101130000D816CD90AA861E108C75866076151435F
:10114000061E4B5D05C145A7041A411104093D98CF
:1011500003713931034036DB0265339102D43054D8
:1011600002802E1D02632CEE01752AC501B028A055
:1011700001102781018F2564012B244B01E02234CB
:1011800001AC211F018D200D01801FFC00841EED8C
:1011900000971DDF00B81CD200E61BC600201BBC58
:1011A00000641AB200B219A8000A19A0006A1899BE
:1011B00000D117910040178B00B516840031167EC0
:1011C00000B31579003A157300C7146F0058146AFC
:1011D00000EE1366008813630025135E00C7125BE0
:1011E000006C12570015125400C111510070114FBC
:1011F0000021114B00D61049008D104700461044C5
:101200000002104200C00F4000800F3E00420F3C21
:1012100000060F3B00CB0E3800930E37005C0E35F6
:1012200000270E3400F30D3200C10D3100900D3057
:1012300000600D2E00320D2D00050D2C00D90C2B59
:1012400000AE0C2900850C29005C0C2700350C270A
:10125000000E0C2600E80B2400C40B2400A00B2376
:10126000007D0B23005A0B2100390B2100180B20A5
:1012700000F80A1F00D90A1E00BB0A1E009D0A1DA5
:1012800000800A1D00630A1C00470A1B002C0A1B71
:1012900000110A1A00F7091A00DD091900C409191A
:1012A00000AB091900920917007B091800630917A0
:1012B000004C09160036091600200916000A091507
:1012C00000F5081500E0081400CC081400B8081454
:1012D00000A4081400900813007D0812006B081386
:1012E00000580812004608120034081100230811A3
:1012F000001208110001081100F0071000E00710AB
:1013000000D0071000C0071000B0070F00A10710A1
:101310000091070E0083070F0074070F0065070E8A
:101320000057070E0049070E003B070D002E070E61
:101330000020070D0013070D0006070D00F9060C2D
:1013400000ED060D00E0060C00D4060C00C8060CEB
:1013500000BC060C00B0060C00A4060B0099060C9D
:10136000008D060B0082060B0077060B006C060B47
:101370000061060A0057060B004C060A0042060AE6
:101380000038060A002E060A0024060A001A060A79
:10139000001006090007060A00FD050900F405090A
:1013A00000EB050900E2050900D9050900D005098F
:1013B00000C7050900BE050900B5050800AD050810
:1013C00000A50509009C050800940508008C050887
:1013D00000840508007C050800740508006C0507FA
:1013E00000650508005D050700560508004E050765
:1013F00000470507004005080038050700310507CC
:10140000002A050700230507001C0506001605072E
:10141000000F0507000805060002050700FB04068B
:1014200000F5040700EE040600E8040600E20407E5
:1014300000DB040600D5040600CF040600C904063C
:1014400000C3040600BD040600B7040600B104058D
:1014500000AC040600A6040600A00405009B0406D8
:101460000095040500900406008A04050085040523
:1014700000800406007A0405007504050070040568
:10148000006B04050066040500610405005C0405AA
:101490000057040500520405004D040500480405EA
:1014A00000430405003E0404003A04050035040529
:1014B00000300404002C0405002704040023040564
:1014C000001E0404001A040400160405001104049C
:1014D000000D0404000904050004040400000404D1
:1014E00000FC030400F8030400F4030400F0030408
:1014F00000EC030400E8030400E4030400E0030438
:1015000000DC030400D8030400D4030400D0030467
:1015100000CC030400C8030300C503030024F40443
:10152000D9201BC40C5C0E9804C4095F02650771C6
:1015300001F405F900FB04B30048048700C1036906
:10154000005803550003034500BE023A00840231EF
:101550000053022A002902250004022000E4011C95
:1015600000C8011900AF011700980114008401138D
:1015700000710110006101100051010E0043010DC6
:101580000036010B002B010B0020010B0015010997
:10159000000C01090003010800FB000800F300082B
:1015A00000EB000700E4000600DE000600D800069D
:1015B00000D2000600CC000500C7000500C20005EF
:1015C00000BD000400B9000400B5000400B100042F
:1015D00000AD000400A9000400A5000300A2000360
:1015E000009F0004009B0003009800030095000288
:1015F0000093000300900003008D0002008B0003A5
:1016000000880002008600020084000300810002BE
:10161000007F0002007D0002007B000200790002D2
:1016200000770001007600020074000200720001E1
:1016300000710002006F0002006D0001006C0002EA
:10164000006A0001006900020067000100660001F5
:1016500000650001006400020062000100610001F9
:1016600000600001005F0002005D0001005C0001FD
:10167000005B0001005A0001005900010058000100
:101680000057000100560001005500010054000100
:1016900000530000005300010052000100510001FE
:1016A00000500001004F0001004E0000004E0001FC
:1016B000004D0001004C0001004B0000004B0001F8
:1016C000004A0001004900010048000000480001F4
:1016D00000470001004600000046000100450000F0
:1016E00000450001004400010043000000430001E8
:1016F00000420000004200010041000000410001E2
:1017000000400001003F0000003F0001003E0000DB
:10171000003E0001003D0000003D0001003C0000D3
:10172000003C0000003C0001003B0000003B0001C9
:10173000003A0000003A00010039000000390001C1
:1017400000380000003800000038000100370000B9
:1017500000370001003600000036000000360001AE
:1017600000350000003500000035000100340000A5
:10177000003400000034000100330000003300009A
:10178000003300010032000000320000003200018E
:101790000031000000310000003100010030000085
:1017A0000030000000300001002F0000002F00007A
:1017B000002F0000002F0001002E0000002E00006E
:1017C000002E0001002D0000002D0000002D000063
:1017D000002D0001002C0000002C0000002C000057
:1017E000002C0001002B0000002B0000002B00004B
:1017F000002B0001002A0000002A0000002A00003F
:10180000002A000100290000002900000029000032
:101810000029000000290001002800000028000025
:101820000028000000280000002800010027000018
:10183000002700000027000000270000002700010B
:101840000026000000260000002600000026000000
:1018500000260001002500000025000000250000F2
:1018600000250000002500000025000100240000E4
:1018700000240000002400000024000000240001D7
:1018800000230000002300000023000000230000CC
:1018900000230000002300000023000100220000BC
:1018A00000220000002200000022000000220000B0
:1018B00000220001002100000021000000210000A2
:1018C0000021000000210000002100000021000193
:1018D0000020000000200000002000000020000088
:1018E0000020000000200000002000000020000177
:1018F000001F0000001F0000001F0000001F00006C
:10190000001F0000001F0000001F0001001E00005B
:10191000001E0000001E0000001E00000024F4D481
:101920003050C38E20C2A24017828B7011127A9160
:101930000D816CD90AA861E108C758660761514357
:10194000061E4B5D05C145A7041A411104093D98C7
:1019500003713931034036DB0265339102D43054D0
:1019600002802E1D02632CEE01752AC501B028A04D
:1019700001102781018F2564012B244B01E02234C3
:1019800001AC211F018D200D01801FFC00841EED84
:1019900000971DDF00B81CD200E61BC600201BBC50
:1019A00000641AB200B219A8000A19A0006A1899B6
:1019B00000D117910040178B00B516840031167EB8
:1019C00000B31579003A157300C7146F0058146AF4
:1019D00000EE1366008813630025135E00C7125BD8
:1019E000006C12570015125400C111510070114FB4
:1019F0000021114B00D61049008D104700461044BD
:101A00000002104200C00F4000800F3E00420F3C19
:101A100000060F3B00CB0E3800930E37005C0E35EE
:101A200000270E3400F30D3200C10D3100900D304F
:101A300000600D2E00320D2D00050D2C00D90C2B51
:101A400000AE0C2900850C29005C0C2700350C2702
:101A5000000E0C2600E80B2400C40B2400A00B236E
:101A6000007D0B23005A0B2100390B2100180B209D
:101A700000F80A1F00D90A1E00BB0A1E009D0A1D9D
:101A800000800A1D00630A1C00470A1B002C0A1B69
:101A900000110A1A00F7091A00DD091900C4091912
:101AA00000AB091900920917007B09180063091798
:101AB000004C09160036091600200916000A0915FF
:101AC00000F5081500E0081400CC081400B808144C
:101AD00000A4081400900813007D0812006B08137E
:101AE000005808120046081200340811002308119B
:101AF000001208110001081100F0071000E00710A3
:101B000000D0071000C0071000B0070F00A1071099
:101B10000091070E0083070F0074070F0065070E82
:101B20000057070E0049070E003B070D002E070E59
:101B30000020070D0013070D0006070D00F9060C25
:101B400000ED060D00E0060C00D4060C00C8060CE3
:101B500000BC060C00B0060C00A4060B0099060C95
:101B6000008D060B0082060B0077060B006C060B3F
:101B70000061060A0057060B004C060A0042060ADE
:101B80000038060A002E060A0024060A001A060A71
:101B9000001006090007060A00FD050900F4050902
:101BA00000EB050900E2050900D9050900D0050987
:101BB00000C7050900BE050900B5050800AD050808
:101BC00000A50509009C050800940508008C05087F
:101BD00000840508007C050800740508006C0507F2
:101BE00000650508005D050700560508004E05075D
:101BF00000470507004005080038050700310507C4
:101C0000002A050700230507001C05060016050726
:101C1000000F0507000805060002050700FB040683
:101C200000F5040700EE040600E8040600E20407DD
:101C300000DB040600D5040600CF040600C9040634
:101C400000C3040600BD040600B7040600B1040585
:101C500000AC040600A6040600A00405009B0406D0
:101C60000095040500900406008A0405008504051B
:101C700000800406007A0405007504050070040560
:101C8000006B04050066040500610405005C0405A2
:101C90000057040500520405004D040500480405E2
:101CA00000430405003E0404003A04050035040521
:101CB00000300404002C040500270404002304055C
:101CC000001E0404001A0404001604050011040494
:101CD000000D0404000904050004040400000404C9
:101CE00000FC030400F8030400F4030400F0030400
:101CF00000EC030400E8030400E4030400E0030430
:101D000000DC030400D8030400D4030400D003045F
:101D100000CC030400C8030300C503030070012CBA
:101D20000190012701B0012201C0011D01F001183D
:101D3000011002130130020E016002090190020439
:101D400001C002FF000003FA004003F5008003F029
:101D500000D003EB002004E6007004E100E004DCA6
:101D6000004005D700C005D2004006CD00D006C80F
:101D7000008007C3003008BE00F008B900C009B4F5
:101D800000B00AAF00B00BAA00D00CA500000EA056
:101D900000500F9B00C01096005012910000148C50
:101DA00000C0158700B0178200B0197D00D01B78E5
:101DB00000001E730040206E0090226900F0246431
:101DC0000040275F0090295A00E02B5500102E504C
:101DD0000020304B0010324600E033410090353C8B
:101DE000001037370070383200A0392D00B03A2883
:101DF00000A03B2300603C1E00103D1900903D14E4
:101E000000103E0F00703E0A00C03E0500003F007B
:101E100000403FFBFF803FF6FFC03FF1FF5A5F6D80
:101E20006F76655F636F6D700A003F2853292061EC
:101E30006E6420285729206D6179206E6F742062AE
:101E40006520636F6D62696E65642E0A00473334E6
:101E5000004732384F0A4D343820503130004D3869
:101E60003400473239503452393939540047323905
:101E7000503454004732380A473236435049300014
:101E80004732380A47323643504931004732394ADF
:101E900030004732395033543000473239503242E3
:101EA0005430004732380A4D31393049300A4D310B
:101EB000303949300A47323950310A4D31303453C4
:101EC000300A4D3134305330004732380A4D313901
:101ED0003049310A4D31303949310A4732395031B0
:101EE0000A4D31303453300A4D31343053300047CD
:101EF00032394E5031004732395031430047323980
:101F000049004732395430004732395431004732A2
:101F100039532D3100473239493939390A47323975
:101F20005032425430004732394E50310047323936
:101F30005033543000473239503452393939540013
:101F40004732395034523939395400473239440014
:101F500047323941004732395700417869732000D0
:101F6000206D696E3A00206D61783A0041636365C7
:101F70006C65726174696F6E206C696D69746564FB
:101F80002E0A00534C4F57000600000701000500C1
:101F9000070100070600000007000500434F4D4DF4
:101FA000554E49434154494F4E0044525952554EA3
:101FB000004552524F525300494E464F0045434848
:101FC0004F004572726F722077726974696E672074
:101FD000746F20454550524F4D210A0053544F50C5
:101FE0005045442E20005072696E746572207374DF
:101FF0006F707065642064756520746F20657272FF
:102000006F72732E2046697820746865206572723D
:102010006F7220616E6420757365204D39393920E7
:10202000746F20726573746172742E202854656D0C
:10203000706572617475726520697320726573656D
:10204000742E205365742069742061667465722053
:1020500072657374617274696E67290A004E6F202D
:10206000436865636B73756D2077697468206C696C
:102070006E65206E756D6265722C204C61737420E4
:102080004C696E653A20004E6F20436865636B7340
:10209000756D2077697468206C696E65206E756D4A
:1020A0006265722C204C617374204C696E653A2015
:1020B00000636865636B73756D206D69736D617422
:1020C00063682C204C617374204C696E653A200063
:1020D0004C696E65204E756D626572206973206E65
:1020E0006F74204C617374204C696E65204E756D61
:1020F0006265722B312C204C617374204C696E65C3
:102100003A20004D3131300053657269616C2073A3
:102110007461747573206D69736D617463680A000E
:1021200053442072656164206572726F720A0021E7
:1021300021204B494C4C20636175736564206279A2
:10214000204B494C4C20627574746F6E2F70696E11
:102150000A002121204B494C4C2063617573656452
:1021600020627920746F6F206D75636820696E61DD
:1021700063746976652074696D65202D20637572BE
:1021800072656E7420636F6D6D616E643A20004DF0
:102190006564696120496E73657274656400627577
:1021A00073793A2070617573656420666F72206977
:1021B0006E7075740A00627573793A207061757378
:1021C000656420666F7220757365720A00627573AC
:1021D000793A2070726F63657373696E670A005095
:1021E0006C65617365205265736574005052494E89
:1021F0005445522048414C5445440025533A20252B
:102200005300706F7765726F6666004B494C4C45A2
:10221000442E20005072696E7465722068616C747F
:1022200065642E206B696C6C28292063616C6C6579
:1022300064210A0053544F505045442E20005072E0
:10224000696E7465722073746F7070656420647554
:102250006520746F206572726F72732E20466978E4
:1022600020746865206572726F7220616E642075DB
:102270007365204D39393920746F2072657374612C
:1022800072742E202854656D706572617475726564
:102290002069732072657365742E205365742069FC
:1022A00074206166746572207265737461727469FA
:1022B0006E67290A006563686F3A004572726F7233
:1022C0003A00204A0020204D34323120490020209D
:1022D00047323920493939390A00616374697665B2
:1022E0000A00696E00002053797374656D207631A1
:1022F0002E303120002020207C0A004E414E00204C
:10230000202E20202000207C004C43443A0A004329
:1023100053563A0A0020666F7220003A0A0A000AF1
:1023200042656420546F706F6772617068792052E3
:1023300065706F72740050726F62696E67204661DB
:10234000696C65640A0050726F62696E672046614D
:10235000696C656400205A3A200020593A200042F6
:10236000656420583A20004732384C3000446F6E84
:10237000652E0A003F496E76616C69642073746F44
:102380007261676520736C6F742E0A3F5573652008
:102390003020746F20003F454550524F4D207374DC
:1023A0006F72616765206E6F7420617661696C6120
:1023B000626C652E0A00446F6E652E0A003F496EFE
:1023C00076616C69642073746F7261676520736CE9
:1023D0006F742E0A3F557365203020746F20003FC4
:1023E000454550524F4D2073746F72616765206E82
:1023F0006F7420617661696C61626C652E0A0047BA
:1024000032392050322066696E69736865642E0A1D
:10241000005859206F757473696465207072696E15
:102420007461626C65207261646975732E0A003F85
:102430004572726F7220696E20427573696E6573A2
:10244000732043617264206D6561737572656D659B
:102450006E742E0A004D616E75616C6C792070721D
:102460006F62696E6720756E726561636861626C28
:102470006520706F696E74732E0A00292E0A0A0097
:1024800050726F62696E672061726F756E6420288A
:10249000004D65736820696E76616C69646174656E
:1024A000642E2050726F62696E67206D6573682EAE
:1024B0000A004D657368207A65726F65642E0A00A4
:1024C00044656661756C742073746F726167652012
:1024D000736C6F7420302073656C65637465642E53
:1024E0000A004C6F6164696E6720746573745F7075
:1024F00061747465726E2076616C7565732E0A0A5C
:1025000000496E76616C696420746573745F7061F4
:10251000747465726E2076616C75652E20282D317D
:1025200020746F2032290A0A0020696E76616C6976
:1025300064617465642E0A0A004C6F636174696F8C
:102540006E7300456E74697265204D657368005343
:1025500074616E6461726420446576696174696F48
:102560006E3A20004D65616E204D657368204865A8
:10257000696768743A200023206F662073616D706C
:102580006C65733A20000A4D657368206F6E6C7934
:10259000207061727469616C6C7920706F70756CF9
:1025A000617465642E0A0A0050726F62696E67205A
:1025B000506F696E740025532025692F2569002E00
:1025C0000A002F0050726F62696E67206D65736834
:1025D00020706F696E74200020616E642074616BDE
:1025E000652061206D6561737572656D656E742E11
:1025F0000A006D6D20746869636B2E0A0042757362
:10260000696E6573732043617264206973200052A0
:10261000656D6F76652026204D6561737572652046
:102620004265640052656D6F7665207368696D0060
:10263000506C616365207368696D20756E646572A6
:10264000206E6F7A7A6C65000A4D657368206F6E34
:102650006C79207061727469616C6C7920706F7034
:10266000756C617465642E0A004D65736820506F47
:10267000696E74204D656173757265642061743A8A
:1026800020004D65617375726500506C6163652053
:102690005368696D2026204D656173757265004D24
:1026A0006F76696E6720746F206E657874004D6573
:1026B00073682045646974696E672053746F707025
:1026C000656400446F6E652045646974696E6720B7
:1026D0004D6573680A00446F6E65204564697469CE
:1026E0006E67204D6573680046696E652054756E8F
:1026F000696E67204D6573680028582C5929206F32
:10270000757473696465207072696E7461626C655A
:10271000207261646975732E0A004F666673657472
:10272000206F7574206F6620626F756E64732E2043
:10273000283020746F2031306D6D290A0A00496EEF
:1027400076616C6964206D617020747970652E0A01
:102750000A003F28462961646520686569676874D6
:1027600020666F7220426564204C6576656C20435C
:102770006F7272656374696F6E206E6F7420706C17
:1027800061757369626C652E0A0A003F43616E27AA
:102790007420616374697661746520616E6420647D
:1027A000656163746976617465206174207468651D
:1027B0002073616D652074696D652E0A0A00426F91
:1027C0007468205820262059206C6F636174696FEB
:1027D0006E73206D75737420626520737065636914
:1027E000666965642E0A0A003F496E76616C696409
:1027F00020677269642073697A6520284A292073EA
:1028000070656369666965642028322D39292E0A4E
:102810000A003F285029686173652076616C7565F0
:1028200020696E76616C69642028302D36292E0A65
:102830000A003F2856296572626F7365206C6576C1
:10284000656C20696D706C61757369626C652028B8
:10285000302D34292E0A0A003F28522965706574EC
:102860006974696F6E20636F756E7420696E76612E
:102870006C69642028312B292E0A0A00446F696E86
:10288000672047323900971F921F8D1F881F5D0AEE
:102890000062656420706C616E65206E6F726D61A0
:1028A0006C203D205B00436F756C64206E6F74205C
:1028B000636F6D706C657465204C53462100436FE7
:1028C000727265637465645F5A3D00255320256903
:1028D0002F2569000A0A002F0054696C74696E671D
:1028E000206D65736820706F696E7420003F4572BB
:1028F000726F722070726F62696E6720706F696E9E
:10290000742E2041626F7274696E67206F706572F9
:102910006174696F6E2E0A00436F7272656374652D
:10292000645F5A3D00255320332F330054696C7483
:10293000696E67206D6573682028332F33290A007C
:10294000436F727265637465645F5A3D002553205E
:10295000322F330054696C74696E67206D6573683B
:102960002028322F33290A00436F72726563746521
:10297000645F5A3D0054696C74696E6720506F69DA
:102980006E7400255320312F330054696C74696EC6
:1029900067206D6573682028312F33290A00646F22
:1029A0006E650A00496E73756666696369656E7463
:1029B00020646174610A000000204100006642004A
:1029C00000D2420080184300004843008077430053
:1029D00080934300002041000066420000D2420084
:1029E00080184300004843008077430080934345AC
:1029F00078747261706F6C6174696E67206D657355
:102A0000682E2E2E0021212053544F502063616CDC
:102A10006C65642062656361757365206F66204232
:102A20004C546F756368206572726F72202D20722E
:102A30006573746172742077697468204D3939390F
:102A40000A0021212053544F502063616C6C65644F
:102A50002062656361757365206F6620424C546F18
:102A6000756368206572726F72202D2072657374B1
:102A70006172742077697468204D3939390A002FE2
:102A80002F616374696F6E3A00656E640053656E02
:102A900064204D31303820746F20726573756D6518
:102AA0000A00496E736572742066696C616D656EAB
:102AB0007420616E642073656E64204D3130380A75
:102AC0000052656865617420446F6E6500526568E8
:102AD000656174696E672E2E2E005265686561749B
:102AE000004865617465722054696D656F75740086
:102AF00053656E64204D31303820746F20686561F5
:102B000074206E6F7A7A6C650A004E6F7A7A6C6503
:102B1000205061726B65640070617573656400506C
:102B20006175736500726573756D656400526573D8
:102B3000756D696E67004732362043616E63656C60
:102B40006564004732362048656174696E67204EBF
:102B50006F7A7A6C65004732362048656174696E19
:102B600067204265640057616974696E6720666F0B
:102B700072206865617475702E0A00466978656414
:102B8000204C656E677468205072696D6500446FF3
:102B90006E65205072696D696E67004D616E75617A
:102BA0006C207072696D696E672E2E2E004C656107
:102BB00076696E6720473236003F537065636966F9
:102BC00069656420582C5920636F6F7264696E6167
:102BD0007465206F7574206F6620626F756E647304
:102BE0002E0A003F28522965706561742076616C59
:102BF0007565206E6F7420706C61757369626C65A9
:102C00003B206D757374206265206174206C656172
:102C1000737420312E0A003F5370656369666965DD
:102C200064206E6F7A7A6C652074656D7065726170
:102C300074757265206E6F7420706C617573696253
:102C40006C652E0A003F5370656369666965642090
:102C500066696C616D656E742073697A65206E6F4C
:102C60007420706C61757369626C652E0A003F5345
:102C70007065636966696564207072696D65206C52
:102C8000656E677468206E6F7420706C617573690F
:102C9000626C652E0A003F537065636966696564FE
:102CA000206E6F7A7A6C652073697A65206E6F7416
:102CB00020706C61757369626C652E0A003F526505
:102CC0007472616374696F6E204D756C7469706C99
:102CD000696572206D757374206265207370656319
:102CE00069666965642E0A003F53706563696669A9
:102CF00065642052657472616374696F6E204D75EE
:102D00006C7469706C696572206E6F7420706C6190
:102D1000757369626C652E0A003F5370656369665E
:102D2000696564206C61796572206865696768749B
:102D3000206E6F7420706C61757369626C652E0A09
:102D40000043292E0A003F53706563696669656414
:102D5000206265642074656D70657261747572655A
:102D6000206E6F7420706C61757369626C652028C9
:102D700034302D00473236207374617274696E6787
:102D80002E2E2E0A004F46460A00466164652048F2
:102D900065696768742000426564204C6576656CDF
:102DA000696E6720004661696C656420746F2065F8
:102DB0006E61626C6520426564204C6576656C6965
:102DC0006E670A00496E76616C6964206D65736890
:102DD0002E0A0076616C69640A53746F72616765CC
:102DE00020736C6F743A2000696E004D6573682023
:102DF000697320003F557365203020746F20003FB9
:102E0000496E76616C69642073746F7261676520C6
:102E1000736C6F742E0A003F454550524F4D20731E
:102E2000746F72616765206E6F7420617661696C82
:102E300061626C652E0A004163637572616379207B
:102E400044656372656173696E67210044656372EE
:102E5000656173696E672041636375726163792090
:102E600044657465637465642E0A004732385A00FD
:102E700041636375726163793A2000206F662000B8
:102E800044696420004733342061626F7274656462
:102E90002E0A00416363757261637920416368693A
:102EA000657665640054617267657420616363755B
:102EB000726163792061636869657665642E0A00D2
:102EC0004469666673205A312D5A323D2573000AD3
:102ED000444946464552454E4345205A312D5A32C3
:102EE0003D0050726F62696E67204661696C65646F
:102EF0000050726F62696E67206661696C65640A72
:102F00000047333420497465726174696F6E3A20EA
:102F10002569000A47333420497465726174696F0A
:102F20006E3A20003F2841296D706C6966696361C3
:102F300074696F6E206F7574206F6620626F756E96
:102F400064732028302E352D322E30292E0A003F72
:102F500028542961726765742061636375726163C7
:102F600079206F7574206F6620626F756E647320B0
:102F700028302E30312D312E30292E0A003F28499D
:102F8000297465726174696F6E206F7574206F6645
:102F900020626F756E64732028312D3330292E0A1C
:102FA000003F285929206F7574206F6620626F7565
:102FB0006E64732E0A003F285829206F7574206FA5
:102FC0006620626F756E64732E0A003F28532920B5
:102FD00050726F62652D706F736974696F6E2069CE
:102FE0006E64657820696E76616C69642E0A003FB4
:102FF0002853292069732072657175697265642E82
:103000000A004D3432322053004465766961746998
:103010006F6E0025533A2025730046696E69736808
:103020006564210A003A207A3A2000206F66200069
:10303000476F696E6720746F3A20580043570A0043
:10304000206469723A0020616E676C653A005374BF
:10305000617274207261646975733A004D3438206E
:10306000506F696E740025533A2025642F25640043
:10307000506F736974696F6E696E6720746865203C
:1030800070726F62652E2E2E0A003F4C65677320AA
:103090006F66206D6F76656D656E7420696D706CFE
:1030A00061757369626C652028302D3135292E0ACF
:1030B000003F2028582C5929206F7574206F6620F6
:1030C000626F756E64732E0A0050726F6265206FB6
:1030D0007574206F6620626F756E6473003F536174
:1030E0006D706C652073697A65206E6F7420706CEA
:1030F00061757369626C652028342D3530292E0A7C
:10310000004D3438205A2D50726F62652052657020
:103110006561746162696C69747920546573740ABD
:10312000003F2856296572626F7365206C6576656D
:103130006C20696D706C61757369626C65202830F4
:103140002D34292E0A005374616E64617264204428
:103150006576696174696F6E3A20002052616E670E
:10316000653A2000204D61783A2000204D696E3A82
:103170002000205369676D613A20004D65616E3A09
:1031800020005741524E494E4721204C6F77205A1C
:10319000204A65726B206D6179206C6561642074D2
:1031A0006F20756E77616E746564207061757365EC
:1031B000732E0A004F4646004F4E0020204D617886
:1031C0003A2000200020204D696E3A2000536F669F
:1031D0007420656E6473746F70733A200020496EBA
:1031E00076616C696420657874727564657220001C
:1031F00047322F47332062616420706172616D65D0
:10320000746572730A00536C6565702E2E2E005A19
:103210002050726F62652050617374204265640AA9
:10322000005A2050726F62652050617374204265AD
:103230006400205A3A200020593A20004265642058
:10324000583A20004D65736820706F696E74206F66
:103250007574206F662072616E67650A004D3020BC
:1032600053746F70004D312053746F7000436C695C
:10327000636B20746F20526573756D652E2E2E0062
:103280004E6F204D6F76652E00456E642066696C2A
:1032900065206C6973740A00426567696E2066690F
:1032A0006C65206C6973740A004E6F206D656469EB
:1032B000610A00526573756D696E6720534400287A
:1032C0006E6F2066696C65290043757272656E7455
:1032D0002066696C653A20002E0A0044656C6574AE
:1032E000696F6E206661696C65642C2046696C6547
:1032F0003A200046696C652064656C657465643AC3
:10330000002569730025696D2025697300256968AA
:103310002025696D20256973002569642025696869
:103320002025696D20256973002569792025696448
:10333000202569682025696D202569730050726910
:103340006E742074696D653A2000436F6F6C696E0E
:10335000672E2E2E0048656174696E672E2E2E0032
:1033600045202553006F6B006F666600BD1FB81FB8
:10337000B11FAA1F9C1F44454255473A004D3131A9
:103380003320530042656420436F6F6C696E672E73
:103390002E2E004265642048656174696E672E2E8A
:1033A0002E00417274696C6C657279205369646592
:1033B00077696E646572205831204F46462E002F83
:1033C0002F004D31343520533C696E6465783E20C2
:1033D0006F7574206F662072616E67652028302DCE
:1033E00031290A00205200416363656C6572617483
:1033F000696F6E3A2050004D3230362058004652E8
:103400003A0020466C6F773A20003A20002053653E
:1034100072766F2000206F7574206F662072616E67
:1034200067650A00536572766F200020643A0020B9
:10343000693A0020703A00496E76616C69642065D3
:10344000787472756465720A0020643A0020693AE3
:103450000020703A004D65736820706F696E7420AB
:103460006F7574206F662072616E67650A004D3457
:10347000323120696E636F7272656374207061729D
:10348000616D657465722075736167650A004F66CA
:103490006673657473204170706C69656400457271
:1034A000723A20546F6F206661722100546F6F2052
:1034B0006661722066726F6D207265666572656EF8
:1034C000636520706F696E740A00454550524F4D18
:1034D000204F4B0A002E0A002028302D31302900C1
:1034E0002076616C7565206F7574206F662072613F
:1034F0006E676500416476616E6365204B3D004DEB
:103500003834005072696E7420446F6E6500446FE9
:103510006E65207072696E74696E672066696C658D
:103520000A004D3737004D333100446966663A2052
:1035300020200046726F6D5374703A0053746570AA
:103540007065723A00556E4C6576656C3A004C6554
:1035500076656C65643A005261773A20202020003D
:103560000A4C6F676963616C3A00436F756E742033
:10357000453A004361703A007D002C7A3A002C797C
:103580003A007D2C6D61783A7B783A002C7A3A00CB
:103590002C793A007D7D2C776F726B3A7B6D696E6A
:1035A0003A7B783A002C7A3A002C793A007D2C6DDF
:1035B00061783A7B783A002C7A3A002C793A0061AB
:1035C0007265613A7B66756C6C3A7B6D696E3A7BAD
:1035D000783A004D4541545041434B00434F4F4CC6
:1035E00045525F54454D5045524154555245004354
:1035F00048414D4245525F54454D50455241545506
:10360000524500424142595354455050494E47009B
:1036100041524353004D4F54494F4E5F4D4F444527
:103620005300544845524D414C5F50524F5445430E
:1036300054494F4E004C4F4E475F46494C454E4112
:103640004D45004155544F5245504F52545F5344DD
:103650005F5354415455530053445F5752495445A6
:103660000052455045415400534443415244005098
:10367000524F4D50545F535550504F525400454D8A
:10368000455247454E43595F5041525345520043BE
:103690004153455F4C494748545F4252494748545B
:1036A0004E45535300544F47474C455F4C4947489C
:1036B000545300534F4654574152455F504F57455E
:1036C00052004255494C445F50455243454E5400C8
:1036D0004C4556454C494E475F44415441005A5F62
:1036E00050524F42450052554E4F5554004155548B
:1036F0004F4C4556454C005052494E545F4A4F423C
:103700000050524F4752455353004155544F524574
:10371000504F52545F54454D50004155544F5245FF
:10372000504F52545F504F5300564F4C554D4554D7
:1037300052494300454550524F4D0042494E415277
:10374000595F46494C455F5452414E5346455200DD
:1037500053455249414C5F584F4E5F584F464600C3
:103760004649524D574152455F4E414D453A4D6194
:10377000726C696E20322E302E382E31202D20446E
:103780004947412D5465636820415357583120768D
:10379000312E3020284D61792031362032303231BF
:1037A0002031323A35343A31312920534F55524382
:1037B000455F434F44455F55524C3A67697468759D
:1037C000622E636F6D2F4D61726C696E4669726D0A
:1037D000776172652F4D61726C696E2050524F5443
:1037E0004F434F4C5F56455253494F4E3A312E305E
:1037F000204D414348494E455F545950453A417226
:1038000074696C6C657279205369646577696E645C
:1038100065722058312045585452554445525F43F3
:103820004F554E543A3120555549443A63656465C5
:10383000326132662D343161322D343734382D39CE
:103840006231322D6335356336326633363766661C
:103850000A0050726F6265204F6666736574205A65
:103860000050726F6265204F6666736574205A005F
:10387000290A0020746F20003F5A206F7574206F52
:10388000662072616E6765202800290A0020746F27
:1038900020003F59206F7574206F662072616E673B
:1038A0006520282D00290A0020746F20003F582031
:1038B0006F7574206F662072616E676520282D0019
:1038C00050726F6265204F666673657420580043BE
:1038D000616E6E6F74206F70656E207375626469BF
:1038E00072200023646566696E6520444546415533
:1038F0004C545F00626564004B6420004B692000FB
:103900004B702000504944204175746F74756E658A
:103910002066696E6973686564212050757420742F
:103920006865206C617374204B702C204B6920619A
:103930006E64204B6420636F6E7374616E747320C9
:1039400066726F6D2062656C6F7720696E746F2090
:10395000436F6E66696775726174696F6E2E680A6F
:1039600000504944204175746F74756E652066611E
:10397000696C6564212074696D656F75740A005007
:103980004944204175746F74756E65206661696C79
:103990006564212054656D7065726174757265206F
:1039A000746F6F20686967680A00204B643A2000D2
:1039B000204B693A2000204B703A200020436C6174
:1039C0007373696320504944200A00204E6F206FB2
:1039D00076657273686F6F740A002054753A200020
:1039E000204B753A2000206D61783A2000206D69E7
:1039F0006E3A200020643A200020626961733A2008
:103A000000504944204175746F74756E652073745D
:103A10006172740A00504944204175746F74756E68
:103A200065206661696C6564212054656D706572FE
:103A3000617475726520746F6F20686967680A0029
:103A4000504944204175746F74756E650050494447
:103A5000204175746F74756E65206661696C65646C
:103A60002120426164206865617465722069640A7E
:103A7000004572723A207574663820666F6E742045
:103A80006E6F7420696E697469616C697A65642E01
:103A9000004572723A207574663820666F6E742025
:103AA0006E6F7420696E697469616C697A65642EE1
:103AB000004572723A207574663820666F6E742005
:103AC0006E6F7420696E697469616C697A65642EC1
:103AD0000042656400456E636C6F7375726500002B
:103AE0000C0F00FE07022503BB017FFE08FE08FE47
:103AF00005080806000040F0C88888987810050876
:103B000008060000C0F88888888888F8050505063A
:103B100000012030F830200508080600002070F869
:103B200020202020E00509090600FF2070A8A8B881
:103B300088887020070505070001D86C366CD80509
:103B400009090600FFF8A88888888888A8F8050A67
:103B50000A0600FE205050505088A8A88870030321
:103B60000306000340A040FFFFFFFFFFFFFFFFFF32
:103B7000FFFFFFFFFFFFFFFFFFFFFFFFFF00000052
:103B80000605FF0107070602008080808080008014
:103B9000030303060105A0A0A005060606000050C9
:103BA000F85050F8500509090600FF2070A8A070D1
:103BB00028A87020050707060000C8C810204098F4
:103BC0009805070706000040A0A040A890680103E0
:103BD000030602058080800309090601FF2040409A
:103BE0008080804040200309090601FF804040207A
:103BF000202040408005070706000020A8702070A4
:103C0000A8200505050600012020F8202002030356
:103C10000601FFC04080050101060003F802020210
:103C2000060100C0C005070706000008101020406C
:103C30004080050707060000708898A8C8887003B0
:103C4000070706010040C040404040E00507070666
:103C50000000708808102040F8050707060000F8EB
:103C600008103008887005070706000010305090D3
:103C7000F81010050707060000F880F008088870A3
:103C8000050707060000304080F0888870050707A8
:103C9000060000F808101020202005070706000085
:103CA000708888708888700507070600007088880B
:103CB00078081060020505060100C0C000C0C002FF
:103CC00006060601FFC0C000C040800305050601CE
:103CD000012040804020050303060002F800F8039D
:103CE0000505060101804020408005070706000009
:103CF000708810202000200507070600007088B893
:103D0000A8B88070050707060000708888F88888C2
:103D100088050707060000F04848704848F0050786
:103D200007060000708880808088700507070600FD
:103D300000F04848484848F0050707060000F880AA
:103D400080F08080F8050707060000F88080F0808A
:103D500080800507070600007088808098887005BD
:103D60000707060000888888F88888880307070600
:103D70000100E04040404040E005070706000038F1
:103D80001010101090600507070600008890A0C072
:103D9000A09088050707060000808080808080F85A
:103DA00005070706000088D8A888888888050707BF
:103DB0000600008888C8A8988888050707060000BC
:103DC00070888888888870050707060000F0888852
:103DD000F080808005070706000070888888A8901A
:103DE00068050707060000F08888F0A0908805079E
:103DF00007060000708880700888700507070600B5
:103E000000F82020202020200507070600008888D1
:103E10008888888870050707060000888888885089
:103E2000502005070706000088888888A8A8500544
:103E30000707060000888850205088880507070675
:103E4000000088885020202020050707060000F881
:103E50000810204080F80309090601FFE0808080F7
:103E600080808080E0050707060000804040201029
:103E700010080309090601FFE0202020202020204F
:103E8000E00503030600052050880501010600FE39
:103E9000F803030306010580402005050506000020
:103EA00070087888780507070600008080F0888809
:103EB00088F00505050600007080808870050707FA
:103EC000060000080878888888780505050600003F
:103ED0007088F08070050707060000304840E04019
:103EE00040400507070600FE70888888780870053E
:103EF00007070600008080F0888888880307070687
:103F000001004000C0404040E00409090601FE10E5
:103F10000030101010109060050707060000808028
:103F20008890E09088030707060100C040404040A9
:103F300040E0050505060000D0A8A8A8A8050505CD
:103F4000060000B0C888888805050506000070884E
:103F50008888700507070600FEF0888888F0808052
:103F60000507070600FE7888888878080805050593
:103F7000060000B0C8808080050505060000788036
:103F80007008F00507070600002020F82020201800
:103F9000050505060000888888986805050506005F
:103FA0000088888850200505050600008888A8A894
:103FB00050050505060000885020508805070706B3
:103FC00000FE88888850204080050505060000F81E
:103FD000102040F80309090601FF204040408040BE
:103FE0004040200109090602FF8080808080808097
:103FF00080800309090601FF804040402040404086
:104000008005030306000248A890FF554E4C4F411F
:10401000442046494C414D454E54004C4F414420AC
:1040200046494C414D454E540046494C414D454E44
:1040300054204348414E47450041425300504C41B3
:10404000002568753A25303268750025303268756C
:104050003A2530326875002568756420253032684D
:10406000753A25303268750020202020202020005D
:1040700020202020001FE0201020102010102010F1
:10408000202010201030300840048003001FE03F43
:10409000F03FF03FF01FE01FE03FF03FF03FF00F38
:1040A000C0078003003FFFF038007030FC3020FC78
:1040B000102078102030102C00D02E31D02F7BD043
:1040C0002F7BD02E31D02C00D02030102078102023
:1040D000FC1030FC303800703FFFF03FFFF038003C
:1040E000703186302387102787902F87D02F03D0F9
:1040F0002030102078102078102030102F03D02F7F
:1041000087D02787902387103186303800703FFF93
:10411000F01FFFF81FFFF8041040020820020820DB
:104120000410400820801041001041000820800445
:1041300010400000001FFFF81FFFF8417274696C07
:104140006C657279205369646577696E6465722065
:1041500058312052656164792E005072696E74691D
:104160006E672E2E2E006E6F7469666963617469C6
:104170006F6E200063616E63656C005072696E74CF
:104180002041626F72746564004469736D69737372
:104190000055492041626F72746564004D323520CC
:1041A000500A4D3234005072696E7420506175733C
:1041B000656400526573756D6500554920506175E1
:1041C00073650050617573696E672E2E2E007265DF
:1041D00073756D65004D323400454550524F4D208A
:1041E00056657273696F6E204572726F7200454535
:1041F00050524F4D20496E646578204572726F723F
:1042000000454550524F4D20435243204572726F36
:1042100072003F0049676E6F726500526573657486
:1042200000496E697469616C697A65204545505230
:104230004F4D0050726F6265205A204F666673655D
:1042400074004C6F6164206D6D00556E6C6F61641D
:10425000206D6D0046696C2E204469612E0045205A
:10426000696E206D6D5E3300416476616E6365201A
:104270004B0020082046616374002008204D6178BF
:10428000002008204D696E004F6666004F6E0041A9
:1042900075746F74656D70005654726176204D6947
:1042A0006E00566D696E00566D6178204500566D42
:1042B0006178205A00566D6178205900566D6178FA
:1042C000205800416D6178204500416D6178205A89
:1042D00000416D6178205900416D6178205800419E
:1042E0002D54726176656C00412D52657472616364
:1042F0007400416363656C0056652D4A65726B00FE
:10430000565A2D4A65726B0056592D4A65726B00DC
:1043100056582D4A65726B0050726F6265205A20A4
:104320004F66667365740050726F62652059204F46
:1043300066667365740050726F62652058204F6620
:104340006673657400452073746570732F6D6D001E
:104350005A2053746570732F6D6D00592053746526
:1043600070732F6D6D00582053746570732F6D6DD1
:1043700000416476616E6365642053657474696E90
:104380006773003F0043616E63656C00496E69743A
:10439000004D34323800496E697469616C697A6520
:1043A00020454550524F4D0046696C616D656E74F5
:1043B0000054656D70657261747572650053746543
:1043C00070732F6D6D0050726F6265204F6666735B
:1043D000657473004A65726B00416363656C657256
:1043E0006174696F6E0056656C6F63697479005310
:1043F000657420486F6D65204F6666736574730041
:10440000436F6E66696775726174696F6E005357AA
:104410002D4D6F64650053746F77004465706C6F49
:10442000790053656C662D5465737400526573652D
:104430007400426564004E6F7A7A6C650046616E66
:1044400020537065656400436F6E666967757261BD
:1044500074696F6E00526573746F7265204465668F
:1044600061756C7473004C6F61642053657474697A
:104470006E67730053746F72652053657474696E50
:1044800067730050726568656174202420436F6E05
:104490006600424C546F7563680050726F6265200D
:1044A0005A204F666673657400416476616E636579
:1044B000642053657474696E6773004D61696E00A2
:1044C000556E6C6F61642046696C616D656E740039
:1044D0004D373032004C6F61642046696C616D6508
:1044E0006E74004D373031004368616E6765204659
:1044F000696C616D656E74004D363030204230005D
:104500004D61696E00436F6E74696E75650050751C
:10451000726765206D6F726500524553554D452099
:104520004F5054494F4E533A005052494E54205028
:1045300041555345440020204E6F7A7A6C653A20ED
:10454000005061726B696E672E2E2E00000057615D
:10455000697420666F720066696C616D656E7420A7
:104560006368616E676500746F20737461727400B4
:104570005761697420666F720066696C616D656E63
:104580007420756E6C6F616400004E6F7A7A6C6592
:104590002068656174696E6700506C6561736520A1
:1045A000776169742E2E2E0000507265737320623D
:1045B0007574746F6E00746F2068656174206E6F1F
:1045C0007A7A6C650000496E736572742066696C56
:1045D000616D656E7400616E642070726573732026
:1045E000627574746F6E00746F20636F6E74696EA1
:1045F0007565005761697420666F720066696C6149
:104600006D656E74206C6F61640000507265737329
:1046100020427574746F6E00746F20726573756DCF
:1046200065207072696E7400005761697420666F4E
:1046300072207072696E7400746F20726573756D8C
:10464000652E2E2E00005761697420666F72006619
:10465000696C616D656E7420707572676500003FEE
:10466000004261636B0053746F70004D3231005033
:1046700072696E742066726F6D204D6564696100A9
:1046800052656C65617365204D65646961004D32EA
:1046900032004368616E67652046696C616D656EC6
:1046A0007400436F6E66696775726174696F6E003E
:1046B00054656D7065726174757265004D6F7469D3
:1046C0006F6E00526573756D65205072696E74006F
:1046D000417474616368204D656469610054756E4E
:1046E000650053746F70205072696E74005061756C
:1046F0007365205072696E7400496E666F20536353
:104700007265656E003F0053746172742050726967
:104710006E740043616E63656C005072696E740064
:1047200043616E6E6F7420656E746572207375627E
:104730006469723A2000022E2E000152656672658D
:104740007368004D61696E004D6F74696F6E00444F
:10475000697361626C652053746570706572730073
:104760004D3834004D34382050726F6265205465E6
:104770007374004732384F0A4D34382050313000BE
:10478000556E696669656420426564204C6576658E
:104790006C696E67004175746F205A2D416C6967B2
:1047A0006E00473334004175746F20486F6D6500AB
:1047B0004D61696E00507265686561742024204502
:1047C0006E640050726568656174202420426564DF
:1047D0000054656D706572617475726500436F6F2A
:1047E0006C646F776E005072656865617420240098
:1047F00046616E20537065656400426564004E6FCB
:104800007A7A6C65004D61696E0050726F62652046
:104810005A204F666673657400416476616E636505
:10482000204B00466C6F770046616E2053706565C3
:104830006400426564004E6F7A7A6C65005370655F
:104840006564004D61696E005A2056616C756500A3
:104850004732380A4D313930205325690A4D3130FD
:1048600039205325690A47323920503100426564A6
:104870002054656D7000486F74656E642054656DDA
:1048800070002E2569004732395036432D004865A7
:104890006967687420416D6F756E740041646A7554
:1048A0007374204D657368204865696768740046B5
:1048B000696E652054756E6520436C6F7365737403
:1048C000004732395034540046696E652054756E85
:1048D0006520416C6C0047323950345239393954B3
:1048E000004732380A473236435048256942256925
:1048F0000056616C696461746520437573746F6DF3
:10490000204D657368004732380A473236435049B4
:10491000310056616C6964617465204D657368206F
:10492000282429004732380A47323643504930009C
:104930004732394A2569004C6576656C204D6573B0
:1049400068005369646520506F696E747300477224
:104950006964204D657368204C6576656C696E6787
:1049600000332D506F696E74204C6576656C696EEE
:1049700067004732394A3000473239503352432EAC
:104980002569004D616E75616C2046696C6C2D69FE
:104990006E00473239503242543000536D617274A8
:1049A0002046696C6C2D696E0047323950335430A3
:1049B0000046696C6C2D696E20416D6F756E7400D8
:1049C0004D65736820696E76616C696461746564B5
:1049D0002E0A003D403940496E666F205363726570
:1049E000656E00496E76616C696461746520436C24
:1049F0006F73657374004732394900496E76616C94
:104A0000696461746520416C6C00436F6E74696EFB
:104A1000756520426564204D6573680047323950E2
:104A200031430046696C6C2D696E204D65736800DA
:104A30004275696C6420436F6C64204D6573680037
:104A40004732394E5031004275696C6420437573AA
:104A5000746F6D204D657368004732380A4D3139E7
:104A60003049310A4D31303949310A4732395031F4
:104A70000A4D31303453300A4D3134305330004216
:104A800075696C64204D65736820282429004732BD
:104A9000380A4D31393049300A4D31303949300A00
:104AA00047323950310A4D31303453300A4D3134A8
:104AB00030533000473239256325690A4D3131378B
:104AC00020004D657368202569204C6F6164656422
:104AD000004D657368202569205361766564005335
:104AE00061766520426564204D657368004C6F6196
:104AF0006420426564204D657368004D656D6F727A
:104B00007920536C6F74004E6F2053746F7261671D
:104B10006500473239503458257359257352256939
:104B200000202D2D2D2D2D005A3A00593A00486FA6
:104B30006D696E672058595A00473238004F6666D3
:104B4000205072696E746572204261636B757000EB
:104B5000473239532D31004F757470757420666F6C
:104B60007220435356004732395431004F757470E8
:104B7000757420666F7220486F7374004732395421
:104B800030004D657368204C6576656C696E670012
:104B900045646974204D6573680056616C69646191
:104BA0007465204D657368004D616E75616C6C793C
:104BB000204275696C64204D65736800473239493D
:104BC0003939390A47323950324254300042756916
:104BD0006C64204D65736800372E20536176652024
:104BE000426564204D65736800362E2046696E6507
:104BF0002054756E6520416C6C0047323950345238
:104C00003939395400352E2056616C6964617465F8
:104C1000204D65736800342E2046696E65205475FA
:104C20006E6520416C6C0047323950345239393945
:104C30005400332E2056616C6964617465204D65A3
:104C4000736800322E20536D6172742046696C6C5B
:104C50002D696E004732395033543000312E2042D6
:104C600075696C6420436F6C64204D657368004700
:104C700032394E503100556E69666965642042656F
:104C800064204C6576656C696E67004661646520DA
:104C9000486569676874004F757470757420554273
:104CA0004C20496E666F00473239570055424C2000
:104CB000546F6F6C73004F7574707574204D65730D
:104CC00068204D6170004D6573682053746F726188
:104CD0006765004D657368204564697400537465A9
:104CE000702D42792D537465702055424C004163FC
:104CF0007469766174652055424C00473239410031
:104D0000446561637469766174652055424C00475F
:104D1000323944004D6F74696F6E00486F6D696E73
:104D200067204661696C6564006F70656E0054525F
:104D300049474745524544003A20007A5F70726FF8
:104D40006265007A5F6D696E00795F6D696E0078EB
:104D50005F6D696E005265706F7274696E67206571
:104D60006E6473746F70207374617475730A0020BD
:104D7000746F6F206C6F6E672065787472757369DD
:104D80006F6E2070726576656E7465640A00486F98
:104D90006D65202573257325732046697273740031
:104DA0000000000000000000000000005761726E6B
:104DB000696E673A20486F6D696E672042756D7045
:104DC0002044697669736F72203C20310A00020228
:104DD0000400809843008098430000C8430000A06E
:104DE000400000A0400000004000809843008098F0
:104DF000430000C843000000000000000000000065
:104E00000053657474696E67732053746F726564C0
:104E1000003F556E61626C6520746F20736176652A
:104E2000206D65736820646174612E0A003F556EC1
:104E300061626C6520746F206C6F6164206D6573B6
:104E40006820646174612E0A00556E696669656444
:104E500020426564204C6576656C696E67003B2076
:104E6000003A0A0020204D36303320002055004CF7
:104E70000046696C616D656E74206C6F61642F759E
:104E80006E6C6F6164206C656E677468733A0020A5
:104E9000204D393030204B004C696E6561722041E5
:104EA0006476616E63653A0020204D3835312058B4
:104EB000005A2D50726F6265204F666673657400EC
:104EC00020440020490020204D3330342050002061
:104ED000440020490020204D3330312050005049FB
:104EE000442073657474696E67733A00204600202D
:104EF000420020480020204D3134352053004D61C0
:104F000074657269616C2068656174757020706188
:104F100072616D65746572733A00206D65736865C2
:104F2000732E0A0A00454550524F4D2063616E2092
:104F3000686F6C642000416374697665204D657309
:104F40006820536C6F743A200020204D343230209A
:104F5000530020204D323036205800486F6D6520B8
:104F60006F66667365743A00205800205300202055
:104F70004D323035204200416476616E6365643A9B
:104F800020423C6D696E5F7365676D656E745F741A
:104F9000696D655F75733E20533C6D696E5F666534
:104FA0006564726174653E20543C6D696E5F747215
:104FB0006176656C5F66656564726174653E2058F4
:104FC0003C6D61785F785F6A65726B3E20593C6D1D
:104FD00061785F795F6A65726B3E205A3C6D6178DB
:104FE0005F7A5F6A65726B3E20453C6D61785F65F4
:104FF0005F6A65726B3E0020540020520020204DF5
:10500000323034205000416363656C6572617469AD
:105010006F6E2028756E6974732F7332293A205091
:105020003C7072696E745F616363656C3E20523CD4
:10503000726574726163745F616363656C3E205472
:105040003C74726176656C5F616363656C3E0020E1
:10505000204D3230312058004D6178696D756D20DA
:10506000416363656C65726174696F6E2028756E4B
:105070006974732F7332293A0020204D3230332067
:1050800058004D6178696D756D2066656564726163
:105090007465732028756E6974732F73293A0053F1
:1050A000746570732070657220756E69743A0020A3
:1050B000440020204D323030205300204469736179
:1050C000626C65640A0046696C616D656E7420737C
:1050D000657474696E67733A0020204D313439204D
:1050E00043203B20556E69747320696E2043656CC4
:1050F000736975730A0020286D6D290020204732DE
:1051000031202020203B20556E69747320696E2069
:105110006D6D003F4D65736820746F6F2062696725
:1051200020666F7220454550524F4D2E0A000000F8
:105130004843000048430000A04100002042F43DE5
:10514000A042F43DA04296E3C7430080DE43D0076F
:105150000000D0070000640000001027000024F4C5
:10516000D43050C38E20C2A24017828B7011127AA5
:10517000910D816CD90AA861E108C7586607615191
:1051800043061E4B5D05C145A7041A411104093DA4
:105190009803713931034036DB0265339102D43014
:1051A0005402802E1D02632CEE01752AC501B02821
:1051B000A001102781018F2564012B244B01E022DF
:1051C0003401AC211F018D200D01801FFC00841EC5
:1051D000ED00971DDF00B81CD200E61BC600201BA7
:1051E000BC00641AB200B219A8000A19A0006A181B
:1051F0009900D117910040178B00B5168400311625
:105200007E00B31579003A157300C7146F00581467
:105210006A00EE1366008813630025135E00C71250
:105220005B006C12570015125400C111510070112F
:105230004F0021114B00D61049008D104700461039
:10524000440002104200C00F4000800F3E00420F99
:105250003C00060F3B00CB0E3800930E37005C0E6F
:105260003500270E3400F30D3200C10D3100900DD2
:105270003000600D2E00320D2D00050D2C00D90CD4
:105280002B00AE0C2900850C29005C0C2700350C86
:1052900027000E0C2600E80B2400C40B2400A00BF2
:1052A00023007D0B23005A0B2100390B2100180B22
:1052B0002000F80A1F00D90A1E00BB0A1E009D0A22
:1052C0001D00800A1D00630A1C00470A1B002C0AEF
:1052D0001B00110A1A00F7091A00DD091900C40998
:1052E0001900AB091900920917007B09180063091E
:1052F00017004C09160036091600200916000A0985
:105300001500F5081500E0081400CC081400B808D2
:105310001400A4081400900813007D0812006B0804
:105320001300580812004608120034081100230820
:1053300011001208110001081100F0071000E00729
:105340001000D0071000C0071000B0070F00A10721
:10535000100091070E0083070F0074070F00650708
:105360000E0057070E0049070E003B070D002E07E1
:105370000E0020070D0013070D0006070D00F906AB
:105380000C00ED060D00E0060C00D4060C00C8066B
:105390000C00BC060C00B0060C00A4060B0099061D
:1053A0000C008D060B0082060B0077060B006C06C6
:1053B0000B0061060A0057060B004C060A00420665
:1053C0000A0038060A002E060A0024060A001A06F9
:1053D0000A001006090007060A00FD050900F40589
:1053E0000900EB050900E2050900D9050900D0050F
:1053F0000900C7050900BE050900B5050800AD058F
:105400000800A50509009C050800940508008C0506
:105410000800840508007C050800740508006C0578
:105420000700650508005D050700560508004E05E4
:10543000070047050700400508003805070031054B
:1054400007002A050700230507001C0506001605AE
:1054500007000F0507000805060002050700FB040A
:105460000600F5040700EE040600E8040600E20466
:105470000700DB040600D5040600CF040600C904BB
:105480000600C3040600BD040600B7040600B1040C
:105490000500AC040600A6040600A00405009B0459
:1054A000060095040500900406008A0405008504A2
:1054B0000500800406007A040500750405007004E8
:1054C00005006B04050066040500610405005C042A
:1054D000050057040500520405004D04050048046A
:1054E0000500430405003E0404003A0405003504A9
:1054F0000500300404002C040500270404002304E4
:1055000005001E0404001A0404001604050011041A
:1055100004000D0404000904050004040400000450
:105520000400FC030400F8030400F4030400F00387
:105530000400EC030400E8030400E4030400E003B7
:105540000400DC030400D8030400D4030400D003E7
:105550000400CC030400C8030300C503030024F4C3
:1055600004D9201BC40C5C0E9804C4095F026507B3
:105570007101F405F900FB04B30048048700C1037E
:1055800069005803550003034500BE023A00840237
:10559000310053022A002902250004022000E40100
:1055A0001C00C8011900AF01170098011400840104
:1055B0001300710110006101100051010E00430140
:1055C0000D0036010B002B010B0020010B00150113
:1055D00009000C01090003010800FB000800F300AA
:1055E0000800EB000700E4000600DE000600D8001B
:1055F0000600D2000600CC000500C7000500C2006E
:105600000500BD000400B9000400B5000400B100AD
:105610000400AD000400A9000400A5000300A200DE
:1056200003009F0004009B00030098000300950006
:10563000020093000300900003008D0002008B0025
:10564000030088000200860002008400030081003D
:1056500002007F0002007D0002007B000200790052
:105660000200770001007600020074000200720060
:105670000100710002006F0002006D0001006C006B
:1056800002006A0001006900020067000100660074
:105690000100650001006400020062000100610079
:1056A0000100600001005F0002005D0001005C007D
:1056B00001005B0001005A00010059000100580080
:1056C0000100570001005600010055000100540080
:1056D000010053000000530001005200010051007E
:1056E0000100500001004F0001004E0000004E007C
:1056F00001004D0001004C0001004B0000004B0078
:1057000001004A0001004900010048000000480073
:10571000010047000100460000004600010045006E
:105720000000450001004400010043000000430068
:105730000100420000004200010041000000410061
:105740000100400001003F0000003F0001003E005A
:1057500000003E0001003D0000003D0001003C0053
:1057600000003C0000003C0001003B0000003B004A
:1057700001003A0000003A00010039000000390041
:105780000100380000003800000038000100370038
:10579000000037000100360000003600000036002F
:1057A0000100350000003500000035000100340024
:1057B000000034000000340001003300000033001A
:1057C000000033000100320000003200000032000F
:1057D0000100310000003100000031000100300004
:1057E000000030000000300001002F0000002F00FA
:1057F00000002F0000002F0001002E0000002E00EE
:1058000000002E0001002D0000002D0000002D00E2
:1058100000002D0001002C0000002C0000002C00D6
:1058200000002C0001002B0000002B0000002B00CA
:1058300000002B0001002A0000002A0000002A00BE
:1058400000002A00010029000000290000002900B2
:1058500000002900000029000100280000002800A5
:105860000000280000002800000028000100270098
:10587000000027000000270000002700000027008C
:10588000010026000000260000002600000026007F
:105890000000260001002500000025000000250072
:1058A0000000250000002500000025000100240064
:1058B0000000240000002400000024000000240058
:1058C000010023000000230000002300000023004B
:1058D000000023000000230000002300010022003C
:1058E0000000220000002200000022000000220030
:1058F0000000220001002100000021000000210022
:105900000000210000002100000021000000210013
:105910000100200000002000000020000000200006
:1059200000002000000020000000200000002000F7
:1059300001001F0000001F0000001F0000001F00EA
:1059400000001F0000001F0000001F0001001E00DB
:1059500000001E0000001E0000001E000000C231FA
:1059600000001C260000F4190000D80F0000EB080E
:105970000000C00400007502000040010000204348
:105980006F756E7420583A0000426564004531001E
:10599000626564002C2073797374656D2073746F75
:1059A0007070656421204865617465725F49443A8E
:1059B000200048656174696E67204661696C6564A2
:1059C0000048656174696E67206661696C65640092
:1059D0004D3131322053687574646F776E004572B3
:1059E000723A204D415854454D50004D4158544550
:1059F0004D50207472696767657265640045727204
:105A00003A204D494E54454D50004D494E54454D58
:105A10005020747269676765726564005448455226
:105A20004D414C2052554E415741590054686572C2
:105A30006D616C2052756E6177617900202F0020B6
:105A400042403A0020403A0020573A0020573A009E
:105A50002053004D313036205000496E76616C691C
:105A6000642065787472756465720A007C3C3E5EE1
:105A70002B3D3F2F5B5D3B2C2A225C0043616E6E09
:105A80006F74206F70656E20737562646972200098
:105A900053442063617264206F6B0A006F70656EFF
:105AA000526F6F74206661696C65640A00766F6C72
:105AB000756D652E696E6974206661696C65640A2E
:105AC000004E6F20534420636172640A000A4D3215
:105AD00034004D3233202573002E0A006F70656E3E
