:100000000C94960E0C94C70E0C94C70E0C94C70E4D
:100010000C94C70E0C94C70E0C94C70E0C94C70E0C
:100020000C94C70E0C94C70E0C94C70E0C94C70EFC
:100030000C94C70E0C94C70E0C94C70E0C94C70EEC
:100040000C94C70E0C9463420C94C70E0C94C70E0C
:100050000C94C70E0C94C70E0C94932F0C94685AF2
:100060000C94C70E0C94382F0C942E2F0C94C70EA2
:100070000C94C70E0C94C70E0C94C70E0C94C70EAC
:100080000C941B290C94C70E0C94C70E0C94C70E2D
:100090000C94C70E0C94C70E0C94C70E0C94C70E8C
:1000A0000C94C70E0C94C70E0C94ED280C94C70E3C
:1000B0000C94C70E0C94C70E0C94C70E0C94BF285A
:1000C0000C94C70E0C94C70E0C94C70E0C94C70E5C
:1000D0000C94C70E0C94C70E0C94C70E0C94C70E4C
:1000E0000C94C70E6558685857585B5861589F580C
:1000F0006C58705876587A587E58845888588C585E
:100100009F58925896589A58825987598C5996599F
:10011000A059195AAA59B259BA59C459CE59D859DD
:10012000E759F159195AFB59055A0F5A084AD73B52
:100130003BCE016E84BCBFFDC12F3D6C74319ABDB6
:1001400056833DDA3D00C77F11BED9E4BB4C3E91DA
:100150006BAAAABE000000803F05A84CCDB2D44EC9
:10016000B93836A9020C50B9918688083CA6AAAACB
:100170002ABE000000803F000C940F5A0C94765861
:100180000C94B2590C9496590C94C4590C945B5825
:100190000C94BA590C9470580C94A0590C94D859DA
:1001A0000C94FB590C9457580C9487590C94925802
:1001B0000C948C590C946C580C9468580C94CE592F
:1001C0000C9484580C94F1590C9465580C949658DE
:1001D0000C943BA00C9488580C949A580C947A5820
:1001E0000C9482590C94AA590C94195A0C94615885
:1001F0000C94055A0C947E580C94E7590C948C5826
:100200000C949F584E414E494E495459494E46CD43
:10021000CCCC3D0AD7233C17B7D13877CC2B3295BD
:1002200095E6241FB14F0A000020410000C842009B
:10023000401C4620BCBE4CCA1B0E5AAEC59D742045
:10024000573A00434F4D4D554E49434154494F4E47
:100250000044525952554E004552524F5253004994
:100260004E464F004543484F006F6B002028302D0D
:10027000313029002076616C7565206F7574206FB0
:10028000662072616E676500416476616E63652009
:100290004B3D003F5A206F7574206F662072616E6F
:1002A00067652028003F59206F7574206F662072A3
:1002B000616E676520282D0020746F20003F582054
:1002C0006F7574206F662072616E676520282D003F
:1002D00050726F6265204F666673657420580045E2
:1002E0004550524F4D204F4B0A00546F6F206661AE
:1002F000722066726F6D207265666572656E6365E9
:1003000020706F696E740A004D34323120696E635B
:100310006F727265637420706172616D657465726D
:100320002075736167650A006469730043290A00D8
:1003300061626C656420286D696E2074656D702043
:1003400000436F6C64206578747275646573206116
:1003500072652000496E76616C69642065787472FC
:10036000756465720A0020643A0020693A002070C2
:100370003A0050726F6265204F6666736574205A4A
:100380000050726F6265204F66667365745A3A203A
:1003900000206F7574206F662072616E67650A00B9
:1003A00020536572766F200020466C6F773A2000EC
:1003B00046523A0020590020204D61783A20002012
:1003C000204D696E3A2000536F667420656E647329
:1003D000746F70733A20005741524E494E472120A6
:1003E0004C6F77205A204A65726B206D6179206CC2
:1003F00065616420746F20756E77616E746564202A
:100400007061757365732E0A0020540020520041FC
:100410006363656C65726174696F6E3A2050002F7A
:100420002F20004348414D4245525F54454D5045B1
:10043000524154555245004D4F54494F4E5F4D4F18
:1004400044455300544845524D414C5F50524F541F
:10045000454354494F4E004155544F5245504F5219
:10046000545F53445F5354415455530050524F4DC1
:1004700050545F535550504F525400454D455247CC
:10048000454E43595F5041525345520043415345F5
:100490005F4C494748545F4252494748544E455380
:1004A0005300544F47474C455F4C4947485453000D
:1004B000534F4654574152455F504F5745520042A3
:1004C00055494C445F50455243454E54004C4556A7
:1004D000454C494E475F44415441005A5F50524F8A
:1004E0004245004155544F4C4556454C00505249E9
:1004F0004E545F4A4F420050524F475245535300AB
:100500004155544F5245504F52545F54454D500041
:10051000564F4C554D455452494300454550524F56
:100520004D0042494E4152595F46494C455F545235
:10053000414E534645520053455249414C5F584F36
:100540004E5F584F4646004649524D574152455F0F
:100550004E414D453A4D61726C696E20322E302EFF
:10056000352E34444947412D546563682041535723
:1005700058312076312E3020534F555243455F433A
:100580004F44455F55524C3A68747470733A2F2F3C
:100590006769746875622E636F6D2F4D61726C6947
:1005A0006E4669726D776172652F4D61726C696E0E
:1005B0002050524F544F434F4C5F56455253494F72
:1005C0004E3A312E30204D414348494E455F5459F3
:1005D00050453A417274696C6C6572792053696454
:1005E0006577696E646572205831204558545255BC
:1005F0004445525F434F554E543A31205555494476
:100600003A63656465326132662D343161322D346E
:100610003734382D396231322D63353563363266E1
:1006200033363766660A004D3131332053004D3181
:1006300031322053687574646F776E006F666600A0
:1006400044454255473A0050726F7465637465645F
:100650002050696E0A00496E76616C6964205069A9
:100660006E204D6F64650A00256979202569642034
:100670002569682025696D20256973005072696EAF
:10068000742074696D653A20004D65736820706F41
:10069000696E742063616E6E6F742062652072658E
:1006A000736F6C7665640A005A2050726F62652021
:1006B00050617374204265640A00486F6D6520586C
:1006C000592066697273740A00000000000000007F
:1006D000000000000000009643000096430000C8A0
:1006E0004364025F0258025102430200007042005C
:1006F00000704200002041FFFFFF4572726F7220C0
:1007000077726974696E6720746F20454550524F47
:100710004D210A00627573793A20706175736564C2
:1007200020666F7220696E7075740A006275737945
:100730003A2070617573656420666F722075736509
:10074000720A00627573793A2070726F6365737311
:10075000696E670A002121204B494C4C206361756A
:1007600073656420627920746F6F206D75636820F3
:10077000696E6163746976652074696D65202D20EA
:1007800063757272656E7420636F6D6D616E643A2D
:1007900020004E6F20436865636B73756D20776929
:1007A0007468206C696E65206E756D6265722C20B0
:1007B0004C617374204C696E653A20006368656310
:1007C0006B73756D206D69736D617463682C204C5B
:1007D000617374204C696E653A20004C696E652027
:1007E0004E756D626572206973206E6F74204C6166
:1007F0007374204C696E65204E756D6265722B3185
:100800002C204C617374204C696E653A20004D3188
:100810003130005072696E7465722068616C746565
:10082000642E206B696C6C28292063616C6C656494
:10083000210A006563686F3A004572726F723A0070
:10084000363726033C3D380E2E303E1224221E1A27
:100850001C1808440A0743080907000120436F7564
:100860006E7420583A004265640045310062656448
:10087000002C2073797374656D2073746F707065CC
:100880006421204865617465725F49443A200048DC
:10089000656174696E67204661696C6564004865CE
:1008A0006174696E67206661696C656400202D2043
:1008B000496E76616C6964206578747275646572DE
:1008C000206E756D62657220210A00544845524DB4
:1008D000414C2052554E4157415900546865726D44
:1008E000616C2052756E61776179004572723A20B1
:1008F0004D415854454D50004D415854454D5020A0
:10090000747269676765726564004572723A204D5A
:10091000494E54454D50004D494E54454D5020745C
:10092000726967676572656400202F000070012C92
:100930000190012701B0012201C0011D01F0011841
:10094000011002130130020E01600209019002043D
:1009500001C002FF000003FA004003F5008003F02D
:1009600000D003EB002004E6007004E100E004DCAA
:10097000004005D700C005D2004006CD00D006C813
:10098000008007C3003008BE00F008B900C009B4F9
:1009900000B00AAF00B00BAA00D00CA500000EA05A
:1009A00000500F9B00C01096005012910000148C54
:1009B00000C0158700B0178200B0197D00D01B78E9
:1009C00000001E730040206E0090226900F0246435
:1009D0000040275F0090295A00E02B5500102E5050
:1009E0000020304B0010324600E033410090353C8F
:1009F000001037370070383200A0392D00B03A2887
:100A000000A03B2300603C1E00103D1900903D14E7
:100A100000103E0F00703E0A00C03E0500003F007F
:100A200000403FFBFF803FF6FFC03FF1FF50726F79
:100A300062696E67206D65736820706F696E7420DF
:100A400000202844525952554E290047323920413E
:100A500075746F20426564204C6576656C696E67BD
:100A6000003F20284C2C522C462C4229206F7574B4
:100A7000206F6620626F756E64732E0A003F2856E1
:100A8000296572626F7365206C6576656C20696D8F
:100A9000706C61757369626C652028302D34292E65
:100AA0000A00426164205A2076616C75650A004E26
:100AB0006F2062696C696E65617220677269640A91
:100AC000005374616E646172642044657669617478
:100AD000696F6E3A20002052616E67653A20004DC2
:100AE00065616E3A200046696E6973686564210A23
:100AF000002072616E67653A2000207369676D613E
:100B00003A2000206D65616E3A20003A207A3A2042
:100B100000206F662000476F696E6720746F3A206F
:100B2000580043570A00206469723A0020616E67DA
:100B30006C653A00537461727420726164697573F4
:100B40003A00506F736974696F6E696E67207468DC
:100B5000652070726F62652E2E2E0A003F4E756DF5
:100B6000626572206F66206C65677320696E206D08
:100B70006F76656D656E74206E6F7420706C617534
:100B80007369626C652028302D3135292E0A003FAB
:100B90002028582C5929206F7574206F6620626FA9
:100BA000756E64732E0A003F53616D706C6520731F
:100BB000697A65206E6F7420706C61757369626C00
:100BC000652028342D3530292E0A004D3438205A1E
:100BD0002D50726F62652052657065617461626943
:100BE0006C69747920546573740A0024F4D430500D
:100BF000C38E20C2A24017828B7011127A910D8190
:100C00006CD90AA861E108C7586607615143061EFE
:100C10004B5D05C145A7041A411104093D980371B4
:100C20003931034036DB0265339102D430540280FF
:100C30002E1D02632CEE01752AC501B028A00110FB
:100C40002781018F2564012B244B01E0223401AC64
:100C5000211F018D200D01801FFC00841EED0097D7
:100C60001DDF00B81CD200E61BC600201BBC0064C0
:100C70001AB200B219A8000A19A0006A189900D186
:100C800017910040178B00B516840031167E00B313
:100C90001579003A157300C7146F0058146A00EEF6
:100CA0001366008813630025135E00C7125B006C97
:100CB00012570015125400C111510070114F00213C
:100CC000114B00D61049008D104700461044000219
:100CD000104200C00F4000800F3E00420F3C000653
:100CE0000F3B00CB0E3800930E37005C0E3500270B
:100CF0000E3400F30D3200C10D3100900D30006054
:100D00000D2E00320D2D00050D2C00D90C2B00AE40
:100D10000C2900850C29005C0C2700350C27000EDF
:100D20000C2600E80B2400C40B2400A00B23007D3C
:100D30000B23005A0B2100390B2100180B2000F85F
:100D40000A1F00D90A1E00BB0A1E009D0A1D008052
:100D50000A1D00630A1C00470A1B002C0A1B001115
:100D60000A1A00F7091A00DD091900C4091900ABB5
:100D7000091900920917007B091800630917004C34
:100D800009160036091600200916000A091500F593
:100D9000081500E0081400CC081400B8081400A4DA
:100DA000081400900813007D0812006B0813005807
:100DB000081200460812003408110023081100121E
:100DC00008110001081100F0071000E0071000D022
:100DD000071000C0071000B0070F00A10710009116
:100DE000070E0083070F0074070F0065070E0057FA
:100DF000070E0049070E003B070D002E070E0020CE
:100E0000070D0013070D0006070D00F9060C00ED95
:100E1000060D00E0060C00D4060C00C8060C00BC51
:100E2000060C00B0060C00A4060B0099060C008D01
:100E3000060B0082060B0077060B006C060B0061A8
:100E4000060A0057060B004C060A0042060A003844
:100E5000060A002E060A0024060A001A060A0010D6
:100E600006090007060A00FD050900F4050900EB64
:100E7000050900E2050900D9050900D0050900C7E8
:100E8000050900BE050900B5050800AD050800A567
:100E90000509009C050800940508008C05080084DD
:100EA0000508007C050800740508006C050700654E
:100EB0000508005D050700560508004E05070047B8
:100EC0000507004005080038050700310507002A1E
:100ED000050700230507001C050600160507000F7F
:100EE0000507000805060002050700FB040600F5DB
:100EF000040700EE040600E8040600E2040700DB35
:100F0000040600D5040600CF040600C9040600C389
:100F1000040600BD040600B7040600B1040500ACD9
:100F2000040600A6040600A00405009B0406009524
:100F3000040500900406008A04050085040500806D
:100F40000406007A04050075040500700405006BB2
:100F500004050066040500610405005C04050057F3
:100F6000040500520405004D040500480405004333
:100F70000405003E0404003A040500350405003071
:100F80000404002C04050027040400230405001EAB
:100F90000404001A04040016040500110404000DE2
:100FA000040400090405000404040000040400FC17
:100FB000030400F8030400F4030400F0030400EC4D
:100FC000030400E8030400E4030400E0030400DC7D
:100FD000030400D8030400D4030400D0030400CCAD
:100FE000030400C8030300C503030024F404D9204C
:100FF0001BC40C5C0E9804C4095F0265077101F400
:1010000005F900FB04B30048048700C103690058D8
:1010100003550003034500BE023A00840231005329
:10102000022A002902250004022000E4011C00C855
:10103000011900AF01170098011400840113007119
:101040000110006101100051010E0043010D003636
:10105000010B002B010B0020010B00150109000CF6
:1010600001090003010800FB000800F3000800EB81
:10107000000700E4000600DE000600D8000600D2EB
:10108000000600CC000500C7000500C2000500BD39
:10109000000400B9000400B5000400B1000400AD74
:1010A000000400A9000400A5000300A20003009FA3
:1010B0000004009B000300980003009500020093C9
:1010C000000300900003008D0002008B00030088E5
:1010D0000002008600020084000300810002007FFD
:1010E0000002007D0002007B000200790002007710
:1010F000000100760002007400020072000100711D
:101100000002006F0002006D0001006C0002006A26
:10111000000100690002006700010066000100652F
:101120000001006400020062000100610001006033
:101130000001005F0002005D0001005C0001005B37
:101140000001005A00010059000100580001005739
:101150000001005600010055000100540001005339
:101160000000005300010052000100510001005036
:101170000001004F0001004E0000004E0001004D34
:101180000001004C0001004B0000004B0001004A30
:10119000000100490001004800000048000100472C
:1011A0000001004600000046000100450000004527
:1011B0000001004400010043000000430001004220
:1011C0000000004200010041000000410001004019
:1011D0000001003F0000003F0001003E0000003E13
:1011E0000001003D0000003D0001003C0000003C0B
:1011F0000000003C0001003B0000003B0001003A01
:101200000000003A000100390000003900010038F8
:1012100000000038000000380001003700000037EF
:1012200000010036000000360000003600010035E5
:1012300000000035000000350001003400000034DB
:1012400000000034000100330000003300000033D0
:1012500000010032000000320000003200010031C5
:1012600000000031000000310001003000000030BB
:10127000000000300001002F0000002F0000002FB0
:101280000000002F0001002E0000002E0000002EA4
:101290000001002D0000002D0000002D0000002D99
:1012A0000001002C0000002C0000002C0000002C8D
:1012B0000001002B0000002B0000002B0000002B81
:1012C0000001002A0000002A0000002A0000002A75
:1012D0000001002900000029000000290000002969
:1012E000000000290001002800000028000000285C
:1012F000000000280000002800010027000000274F
:101300000000002700000027000000270001002641
:101310000000002600000026000000260000002635
:101320000001002500000025000000250000002528
:10133000000000250000002500010024000000241A
:10134000000000240000002400000024000100230D
:101350000000002300000023000000230000002301
:1013600000000023000000230001002200000022F2
:1013700000000022000000220000002200000022E5
:1013800000010021000000210000002100000021D8
:1013900000000021000000210000002100010020C9
:1013A00000000020000000200000002000000020BD
:1013B0000000002000000020000000200001001FAD
:1013C0000000001F0000001F0000001F0000001FA1
:1013D0000000001F0000001F0001001E0000001E92
:1013E0000000001E0000001E000000C23100001CB2
:1013F000260000F4190000D80F0000EB080000C020
:10140000040000750200004001000042696C696E32
:10141000656172204C6576656C696E6720477269FC
:10142000643A0A0053544F505045442E20005072E5
:10143000696E7465722073746F7070656420647572
:101440006520746F206572726F72732E2046697802
:1014500020746865206572726F7220616E642075F9
:101460007365204D39393920746F2072657374614A
:1014700072742E202854656D706572617475726582
:101480002069732072657365742E2053657420691A
:101490007420616674657220726573746172746918
:1014A0006E67290A0021212053544F502063616C3C
:1014B0006C65642062656361757365206F662042A8
:1014C0004C546F756368206572726F72202D2072A4
:1014D0006573746172742077697468204D39393985
:1014E0000A004F46460A0046616465204865696700
:1014F00068742000426564204C6576656C696E678F
:1015000020004661696C656420746F20656E6162BD
:101510006C6520426564204C6576656C696E670A6F
:1015200000496E76616C6964206D6573682E0A00EF
:101530002042403A0020403A002020506C616E6EFC
:10154000657242756666657242797465733A200009
:101550002046726565204D656D6F72793A200043B3
:101560006F6D70696C65643A204A756C2032342066
:10157000323032300A00204C61737420557064613F
:101580007465643A20323032302D30372D313720B7
:101590007C20417574686F723A2028444947412D78
:1015A000546563682C2041535758312076312E30D2
:1015B000290A00322E302E352E340A004D61726C0D
:1015C000696E0020536F667477617265205265738F
:1015D00065740A00205761746368646F6720526500
:1015E0007365740A002042726F776E206F757420E5
:1015F00052657365740A002045787465726E616C7B
:101600002052657365740A00506F77657255700AD1
:1016100000656E6473746F7073206869743A20009B
:1016200000002100240027002A002D003000330094
:1016300001010000040107010A0100002200250049
:1016400028002B002E0031003400020100000501AB
:1016500008010B01000020002300260029002C00B7
:101660002F003200000100000301060109010505F9
:101670000505070508080808020202020A0A080808
:101680000404040401010101010101010303030336
:1016900003030303040707070C0C0C0C0C0C0C0CC5
:1016A0000202020206060606060606060B0B0B0BD6
:1016B0000B0B0B0B010210202008081020401020FB
:1016C0004080020102010804020101020408102006
:1016D0004080804020100804020180040201804004
:1016E000201008040201080402010102040810206D
:1016F0004080010204081020408000000A0B02090B
:101700000C0D0E080703040100000000000000009B
:1017100000000000000000000000000000000000C9
:101720000000000000001211100000000000000086
:1017300000000000000000000000000000000000A9
:1017400020746F6F206C6F6E67206578747275738C
:10175000696F6E2070726576656E7465640A00202C
:10176000636F6C6420657874727573696F6E207036
:10177000726576656E7465640A005761726E696E93
:10178000673A20486F6D696E672042756D7020441E
:10179000697669736F72203C20310A0002020400EE
:1017A00000A0400000A04000000040206D61783A99
:1017B0002000206D696E3A200023646566696E65BD
:1017C0002044454641554C545F004B6420004B6912
:1017D00020004B702000504944204175746F74758F
:1017E0006E652066696E6973686564212050757442
:1017F00020746865206C617374204B702C204B69D9
:1018000020616E64204B6420636F6E7374616E742C
:10181000732066726F6D2062656C6F7720696E74DD
:101820006F20436F6E66696775726174696F6E2EA3
:10183000680A00504944204175746F74756E6520C4
:101840006661696C6564212074696D656F75740AE1
:10185000000A20436C617373696320504944200A75
:1018600000204B643A2000204B693A2000204B7046
:101870003A20000A204E6F206F76657273686F6F92
:10188000740A002054753A2000204B753A2000203D
:10189000643A200020626961733A20005049442074
:1018A0004175746F74756E652073746172740A008B
:1018B000504944204175746F74756E652066616986
:1018C0006C6564212054656D706572617475726514
:1018D00020746F6F20686967680A0050494420418E
:1018E00075746F74756E65206661696C656421201E
:1018F000426164206578747275646572206E756DDE
:101900006265720A0053657474696E67732053745C
:101910006F726564202800204D393220580020491C
:101920006E76616C69642065787472756465722086
:10193000004361703A0047322F47332062616420D0
:10194000706172616D65746572730A0052657365CA
:101950006E643A20002062797465733B2063726381
:1019600020004E6F20454550524F4D2E0A004545F0
:1019700050524F4D206461746173697A65206572BD
:10198000726F722E0A002073746F72656420736523
:101990007474696E677320726574726965766564C4
:1019A000202800202863616C63756C61746564296C
:1019B000210A0020213D2000454550524F4D204333
:1019C0005243206D69736D61746368202D20287304
:1019D000746F7265642920002053697A653A20008B
:1019E000496E6465783A2000204D61726C696E3DE5
:1019F000563736290A00454550524F4D20766572BC
:101A000073696F6E206D69736D617463682028451A
:101A10004550524F4D3D0048617264636F64656488
:101A20002044656661756C742053657474696E67D3
:101A300073204C6F616465640A003B20000000481D
:101A400043000048430000A04100002042F43DA0B4
:101A500042F43DA04296E3C7430080DE43D0070036
:101A600000D0070000640000001027000020204D77
:101A7000393030204B004C696E65617220416476CC
:101A8000616E63653A0020204D3835312058005A88
:101A90002D50726F6265204F66667365740020205A
:101AA0004D33303420500020204D33303120500051
:101AB0005049442073657474696E67733A00204A14
:101AC000002020473239205720490020204D343251
:101AD000302053004175746F20426564204C657658
:101AE000656C696E673A0020204D32303620580010
:101AF000486F6D65206F66667365743A0020204DEF
:101B0000323035204200416476616E6365643A206C
:101B1000423C6D696E5F7365676D656E745F746975
:101B20006D655F75733E20533C6D696E5F666565DC
:101B300064726174653E20543C6D696E5F747261BD
:101B400076656C5F66656564726174653E20583CBD
:101B50006D61785F785F6A65726B3E20593C6D619C
:101B6000785F795F6A65726B3E205A3C6D61785F81
:101B70007A5F6A65726B3E20453C6D61785F655F98
:101B80006A65726B3E0020204D3230342050004197
:101B90006363656C65726174696F6E2028756E6928
:101BA00074732F7332293A20503C7072696E745FDF
:101BB000616363656C3E20523C726574726163744C
:101BC0005F616363656C3E20543C74726176656C42
:101BD0005F616363656C3E0020204D3230312058D8
:101BE000004D6178696D756D20416363656C657248
:101BF0006174696F6E2028756E6974732F73322952
:101C00003A0020450020204D3230332058004D61ED
:101C100078696D756D2066656564726174657320A1
:101C200028756E6974732F73293A00537465707345
:101C30002070657220756E69743A0020204D323034
:101C4000302044300A0020204D3230302044002023
:101C500044697361626C65640A0046696C616D6514
:101C60006E742073657474696E67733A0020286D12
:101C70006D29002020473231202020203B20556E46
:101C800069747320696E206D6D00486F6D696E67B1
:101C9000204661696C6564006F70656E005452493E
:101CA000474745524544007A5F6D696E00795F6D24
:101CB000696E00785F6D696E005265706F7274694D
:101CC0006E6720656E6473746F70207374617475D1
:101CD000730A00486F6D65202573257325732046B0
:101CE0006972737400220A00556E6B6E6F776E20F6
:101CF000636F6D6D616E643A20220020453A0020CA
:101D00005A3A0020593A00205A3A200020593A20E5
:101D10000042656420583A200050726F62696E6715
:101D2000204661696C65640A00003BA011241FBE57
:101D3000CFEFD1E2DEBFCDBF00E00CBF13E0A0E0EB
:101D4000B2E0E0ECFAE501E00BBF02C007900D92B3
:101D5000AE30B107D9F72EE0AEE0B3E001C01D927E
:101D6000A237B207E1F71EE0C6E9DEE000E006C0F8
:101D700021970109802FFE010E940FAAC539D107C2
:101D800080E00807A9F70E94929C0C945EAD0C9429
:101D900000002F923F924F925F926F927F928F92AC
:101DA0009F92AF92BF92CF92DF92EF92FF920F93EA
:101DB0001F93CF93DF93CDB7DEB7E3970FB6F894B9
:101DC000DEBF0FBECDBF2091F40328ABFF24F394F8
:101DD000F092F4038091F3038D3409F42CC384351D
:101DE00011F40C940B1E873411F00C94261E2091D4
:101DF000F1033091F2032C31310509F48AC094F4D7
:101E00002430310534F422303105B4F537FF28C0D1
:101E10000EC324303105F1F12531310511F40C9454
:101E2000281E05C32A32310509F4DAC14CF42D31DC
:101E3000310509F47EC02E31310509F48EC0F7C298
:101E40002B35310509F449C12C35310509F44AC156
:101E50002A35310509F0EBC21092F0030C94281ECC
:101E60008091EF03813011F00C94281E0E94A08312
:101E70000E94E2720C94281E8091EF03813011F0D1
:101E80000C94281E2230310509F080E00E94518414
:101E90000C94281E80E50E942950882379F08091B7
:101EA000ED039091EE03009749F04AE050E060E0C6
:101EB00070E00E9405A46B017C0103C0C12CD12CF1
:101EC000760183E50E942950882361F00E94A94F82
:101ED00020E030E04AE754E40E94EBA50E948BAB7F
:101EE0006B017C010E94906B0E945C5AC60ED71E4B
:101EF000E81EF91E0E945C5ADC01CB018C199D0979
:101F0000AE09BF09B7FD02C00C94281E0E94472BE2
:101F1000F1CF8091800D8770873011F00C943B1EBB
:101F200060E08FE40E94515081110C94281E0C94A3
:101F30003B1E0E94159A81110C94281E80918C0DD5
:101F4000882311F40C94482060E08FE40E945150E3
:101F500081110C94281E0C9448202091600E309121
:101F6000610E4091620E5091630E6091910D7091DF
:101F7000920D8091930D9091940D0E9418AAAB013F
:101F8000BC0188E50E94A37B69837A838B839C8351
:101F90002091640E3091650E4091660E5091670E4F
:101FA0006091950D7091960D8091970D9091980D7F
:101FB0000E9418AAAB01BC0189E50E94A37B6D8336
:101FC0007E838F839887BE016B5F7F4FCE01019622
:101FD0000E94C04D882311F40C94281E80E00E94BA
:101FE00010550E94BC7561E085E40E94515021E0CB
:101FF000482FBE016B5F7F4FCE0101960E946D9A04
:102000006B017C019B01AC010E940AAD81115FC094
:1020100089809A80AB80BC8020E030E0A901C501B6
:10202000B4010E9485A587FF05C027E137EB41E594
:1020300058EB04C027E137EB41E558E3C501B40193
:102040000E9418AAAB01BC0181E19DE10E940F2B07
:102050008D809E80AF80B88420E030E0A901C5016A
:10206000B4010E9485A587FF05C027E137EB41E554
:1020700058EB04C027E137EB41E558E3C501B40153
:102080000E9418AAAB01BC018CE09DE10E940F2BBD
:1020900020E030E0A901C701B6010E9485A587FFB5
:1020A00005C067E177EB81E598EB04C067E177EB6A
:1020B00081E598E3A70196010E9418AAAB01BC0133
:1020C00087E09DE10E940F2B8AE00E9449290E942F
:1020D000A3750E94D5940C94281E8FE08093F00382
:1020E0000C94281E99E6292E92E0392E2FECE22E30
:1020F00023E0F22EA1E9BDE0BF8FAE8F31EAC32EFF
:102100003DE0D32E00E010E0F10181911F010E941B
:102110002950882309F44AC00E94A94F2B013C0191
:10212000133049F0D6012D913D914D915C910E9463
:1021300017AA2B013C01EE8DFF8D20813181428158
:102140005381C301B2010E9417AA4B015C012DEB20
:1021500037E346E855EB0E9478AC87FD0AC02DEBCB
:1021600037E346E855E3C501B4010E9485A518167A
:10217000ECF4133051F440929D0D50929E0D6092FC
:102180009F0D7092A00D01E011C0A5019401D7012F
:102190006D917D918D919C910E9418AAF7016083A9
:1021A000718382839383812F0E94E4701F5FF4E028
:1021B000EF0EF11C2E8D3F8D2C5F3F4F3F8F2E8FEA
:1021C00034E0C30ED11C143009F09ECF002321F05F
:1021D0008DE99DE00E94444D0E94D5940C94281EE8
:1021E0008091EF03813011F00C94281E89E40E9445
:1021F0002950E82E882321F00E94A54F082F01C006
:1022000000E08AE40E942950F82E882321F00E94E1
:10221000A54F182F01C010E0EE2011F0053020F47A
:10222000FF2041F0153030F089E896E00E945029F7
:102230000C94281E80E1E1E9FDE0ADEDB3E00190F2
:102240000D928A95E1F7EE2019F1602F000F770BC0
:10225000880B990B0E948CA52091BF033091C0037D
:102260004091C1035091C2030E94EBA52091C70386
:102270003091C8034091C9035091CA030E9418AA23
:102280006093DD037093DE038093DF039093E0039C
:10229000FF2019F1612F110F770B880B990B0E940A
:1022A0008CA52091C3033091C4034091C503509184
:1022B000C6030E94EBA52091CB033091CC03409143
:1022C000CD035091CE030E9418AA6093E10370934E
:1022D000E2038093E3039093E40360E080E50E94CF
:1022E00051508823C1F1EE20D1F02091600E309141
:1022F000610E4091620E5091630E6091DD0370910A
:10230000DE038091DF039091E0030E9417AA60939F
:10231000DD037093DE038093DF039093E003FF20DF
:10232000D1F02091640E3091650E4091660E50916F
:10233000670E6091E1037091E2038091E303909155
:10234000E4030E9417AA6093E1037093E203809371
:10235000E3039093E40340E050E0BA0186E40E9476
:10236000A37B6B017C0120E030E0A9010E9478ACE6
:1023700018165CF420E030E040E752E4C701B601F3
:102380000E9412AB6B017C0103C0C12CD12C7601E1
:102390008090610290906202A0906302B09064020B
:1023A00020E030E0A901C701B6010E9485A588237D
:1023B00041F0C0926102D0926202E0926302F09218
:1023C0006402009121021091220284E690E0909331
:1023D000220280932102C0905702D0905802E090D0
:1023E0005902F0905A0280E090E0A0E8BFE38093A9
:1023F000570290935802A0935902B0935A020E9438
:10240000E2728092610290926202A0926302B092A4
:1024100064021093220200932102C0925702D092CC
:102420005802E0925902F0925A020C94281E0E941F
:10243000079A0C94281E0091F1031091F2030639BB
:10244000110509F464C50CF095C00936110509F4AD
:1024500067C20CF055C00D34110509F437C214F5EC
:102460000A32110509F400C274F40231110509F4AD
:102470009CC30F31110509F450C10131110511F050
:102480000C94081E36C10B34110509F406C20CF079
:1024900008C20033110511F00C94081E0E94333954
:1024A0000C94281E0435110509F47FC3DCF40235B1
:1024B000110509F46AC30CF070C30135110511F060
:1024C0000C94081E0E9416300E948E7B0E94A06B06
:1024D0001092180768EE73E080E090E00E94F52605
:1024E0000C94281E0C35110509F4B3C308361105E8
:1024F00009F4F0C10535110511F00C94081E84C3D0
:102500000137110509F4B8C29CF40D36110509F420
:1025100003C23CF40B36110509F43AC20CF414C2A0
:10252000A0C20F36110509F451C20CF43CC29DC281
:102530000637110509F49FC46CF40337110509F43B
:1025400031C40CF428C40537110511F40C94281E6D
:102550000C94081E0837110509F4CAC40CF4C5C44C
:102560000937110509F4CCC40C38110509F4AEC2C1
:102570000C94081E0F3241E0140711F40C948C1CCB
:102580000CF050C00E3C110509F4D4C5FCF4093C14
:10259000110509F443C574F40E3B110509F4B8C2E2
:1025A000083C110509F4F0C40B39110511F00C9425
:1025B000081EC3C20C3C110509F475C50CF0A7C573
:1025C0000B3C110509F450C50C94081E023E110580
:1025D00009F410C774F40C3D110509F48EC60D3DC5
:1025E000110509F4B1C6033D110511F00C94081E44
:1025F000BEC5023281E0180709F4DEC734F40831A1
:10260000114009F442C70C94081E0D32B1E01B07BB
:1026100011F40C94551B0E32114011F40C94481C0B
:102620000C94081E0C3AF1E01F0711F40C940D1DD8
:1026300064F5023931E0130711F40C949C1C84F406
:10264000003951E0150711F40C948F1C14F00C9410
:10265000921C0033114011F40C94D51B0C94081EED
:10266000043AA1E01A0711F40C94A11C053AB1E058
:102670001B0711F40C94A41C0A39114011F00C949E
:10268000081E0E9435270C94281E073FF1E01F0703
:1026900011F40C94711D94F4053F31E0130711F40B
:1026A0000C946B1D14F00C946E1D043F114011F03E
:1026B0000C94081E0E941C760C94281E033583E09F
:1026C000180711F40C948A1D3CF4083F114011F4D2
:1026D0000C94791D0C94081E0438B3E01B0711F408
:1026E0000C94941D073E134011F40C94FC1D0C94A3
:1026F000081E8091BB0384FF02C00C944B20809184
:10270000BD0387FF02C00C944B208091BE038370F1
:1027100011F00C944B200C9468200E941B7B7B01D1
:102720008C0120E831E541E050E00E948CA9C9010C
:102730006DE671E00E94FBA94B015C01C801B70185
:1027400020E13EE040E050E00E948CA9CA01B901BE
:1027500028E130E040E050E00E948CA9762E672E00
:10276000C62ED72E8CE3282E312C412C512CC8019B
:10277000B701A20191010E948CA9F62EE72ECA0191
:10278000B901A20191010E948CA9CB018E010F5FBA
:102790001F4F8114910499F0EF92FF927F936F93F2
:1027A0006F927F92BF92AF929F928F9288E696E04F
:1027B0009F938F931F930F930E9456A513C0A1144C
:1027C000B104B1F0EF92FF927F936F936F927F927B
:1027D000BF92AF928CE696E09F938F931F930F93D7
:1027E0000E9456A50FB6F894DEBF0FBECDBF30C015
:1027F000CD2879F0EF92FF927F936F936F927F9243
:1028000080E796E09F938F931F930F930E9456A5A6
:10281000E9CF892B69F0EF92FF927F936F9384E762
:1028200096E09F938F931F930F930E9456A5DACF44
:10283000EF92FF9288E796E09F938F931F930F93F9
:102840000E9456A50F900F900F900F900F900F9031
:102850000E947629B8018CE796E00E945F298AE001
:102860000E9449290C94281E6DE070E080E50E94CA
:1028700036508C0197FF02C00C94281EE82E60E0B1
:1028800089E40E94515081110C947220802F0E9483
:102890006D9C8111CCC50C9472200E946A7B0C94B3
:1028A000281E8091BA03813011F00C94281E82E01A
:1028B0008093BA030E945C5A6093B6037093B70387
:1028C0008093B8039093B9030C94281E0E948E7BCA
:1028D0000C94281E8091670C83FF02C00C94281E64
:1028E0000E94558987FF02C00C94281E83E50E9430
:1028F0002950882369F00E94A94F0E9484ABCB0124
:102900000E94B25A0E94CB2F811102C00E948E7B7E
:102910000E94A94C0C94281E0E947E890C94281EAB
:102920000E945589182F87FD0AC089E692E00E940F
:102930005029812F0E94F85A8AE00E944929E8A96B
:10294000E093F4030C94842460E080E50E944550F9
:1029500081110C94281E81E40E94E04F882321F00D
:1029600060911807062F02C00FEF10E083E50E9468
:102970002950882349F00E94714F8B016F3F7105E8
:1029800019F010F00FEF10E0009318070C94281EB8
:1029900060E080E50E94455081110C94281E109241
:1029A00018070C94281E8EE40E942950882311F4E5
:1029B0000C94281E0E94714F6093B2037093B3036E
:1029C0008093B4039093B5030C94281E83E50E9472
:1029D000E04F882331F060E083E50E94455080930A
:1029E000670C0E94762980E496E00E94502980912D
:1029F000670C882369F101EEE02E06E0F02E00E07E
:102A000010E020E08091670C90E0A0E0B0E0002EA4
:102A100004C0B695A795979587950A94D2F780FF3D
:102A20000EC0DD24D394D20E222319F08CE20E9432
:102A30004929F701859194910E9450292D2D0F5F0E
:102A40001F4FF2E0EF0EF11C05301105D9F604C05E
:102A50008CE396E00E9450298AE00E9449290C9458
:102A6000281E109220020C94281E41E060E070E0C5
:102A70008EE296E00E947A2983E50E9429508823FD
:102A800081F00E94814F282F30E02D33310524F44E
:102A900080931F020C94281E8CE380931F020C94D9
:102AA000281E0E947629C0901F02D12CE12CF12C07
:102AB00087E296E00E9450294AE0C701B6010E94D1
:102AC000F7298AE00E9449290C94281E8091670CFE
:102AD00083FF02C00C94281E83E50E94295088239E
:102AE00071F00E94A94F0E9484AB6C3871050CF400
:102AF0008B011093A4030093A3030E94DE2F0E9476
:102B0000CB2F81110C94281E0E948E7B0C94281EC2
:102B10008091670C83FF02C00C94281E83E50E94FD
:102B200029508EA381110C94AF2082E50E94295078
:102B300081110C94AF200C94281E83E50E9429502B
:102B4000882311F40C94281E0E94814F182F90E0C6
:102B5000CD970CF01CE3109395030E945C5A6B0117
:102B60007C01212F30E0A8EEB3E00E94E0A9C60E60
:102B7000D71EE81EF91EC0929103D0929203E092F4
:102B80009303F09294030C94281E8091F0038F7DA0
:102B900080618093F0030C94281E8091F0038F7E57
:102BA00080628093F0030C94281E83E50E942950D4
:102BB0008823A1F00E94A94F20E030E04AE754E4C6
:102BC0000E94EBA50E948BAB60931B0270931C02CA
:102BD00080931D0290931E020C94281E8091BB03CB
:102BE00084FF02C00C941C228091BD0387FF02C0A9
:102BF0000C941C228091BE03837011F00C941C2253
:102C00000E94A06B0C94281E83E50E94E04F88234D
:102C100011F40C94281E0E945C5A609397037093E1
:102C200098038093990390939A030E94A94F20E000
:102C300030E04AE754E40E94EBA50E948BAB60931E
:102C40008D0370938E0380938F03909390030C9465
:102C5000281E0E94558987FF02C00C94281E90915F
:102C6000BB0394FD04C09091BD0397FF0AC0B9E671
:102C7000CB2EB2E0DB2E18E6E12E1CE0F12E10E0A8
:102C800009C09091BE03937091F7682F81E00E9474
:102C90004B8BDEC7F60181916F010E94295088237A
:102CA00009F46FC0133009F063C00E94A94F4B01B3
:102CB0005C0120E030E040EA51E40E9485A587FFF6
:102CC0004EC0A50194016091880C7091890C80918F
:102CD0008A0C90918B0C0E9412AB2B013C019B0142
:102CE000AC016091140770911507809116079091BF
:102CF00017070E94EBA56093140770931507809344
:102D0000160790931707A30192016091980C709198
:102D1000990C80919A0C90919B0C0E94EBA560936A
:102D2000980C7093990C80939A0C90939B0C6091E3
:102D300000077091010780910207909103070E949C
:102D40008AA5A30192010E94EBA50E948BAB609320
:102D50000007709301078093020790930307809206
:102D6000880C9092890CA0928A0CB0928B0C09C0AE
:102D70000E94A94FD70154966D937D938D939C9398
:102D800057971F5FB4E0EB0EF11C143009F082CFAF
:102D90000E94204D5DC70E94DF9886E49EE00E945D
:102DA000CB3856C787E495E00E94502960E087E35E
:102DB00095E00E94868360E082E295E00E9486832F
:102DC00061E08BE195E00E94868361E080E195E01F
:102DD0000E94868361E080E095E00E94868360E047
:102DE00087EF94E00E94868361E08DEE94E00E947C
:102DF000868361E083EE94E00E94868361E08BED40
:102E000094E00E94868361E08DEC94E00E948683CA
:102E100060E08FEB94E00E94868360E080EB94E0BA
:102E20000E94868360E082EA94E00E94868360E0EC
:102E30008CE894E00E94868360E08BE794E00E9437
:102E4000868360E08CE694E00E94868360E087E5FC
:102E500094E00E94868361E084E494E00E9486838B
:102E600060E087E394E00E94868360E083E294E080
:102E70000E948683EDC600918B0310918C0394E031
:102E8000F12C40E0915021F1F8018081282F2B7F17
:102E9000213421F421812133D9F407C08035C1F4D4
:102EA000818180538A3048F013C0813421F0853409
:102EB00021F441E002C0FF24F39498012E5F3F4FBC
:102EC00089012F5F3F4FF80180818032C9F3DACF4B
:102ED00041110E947629FF2021F08FE194E00E94A9
:102EE0005029C8010E94262BB3C60E946995B0C61E
:102EF00081E08093DC038093DB030E94BE95A8C62B
:102F00001092DC031092DB030E94BE95A1C682E4FE
:102F10000E94E04F882351F08091ED039091EE03E1
:102F2000892B31F00E94814F182F03C010E001C09F
:102F30001FEF85E50E94E04F882351F08091ED035B
:102F40009091EE03892B31F00E94814F082F03C02E
:102F500000E001C00FEF82E50E94E04F882349F0B6
:102F60008091ED039091EE03892B29F00E94814F0F
:102F700003C080E001C08FEF89830A831B83CE01E9
:102F800001960E94665064C60E945589182F87FDDD
:102F90005FC684E40E94E04F8823E9F10E94A94FB4
:102FA0006B017C0101E020E030E0A9010E9485A5D1
:102FB000811101C000E000938A0320E030E0A90104
:102FC000C701B6010E9485A5882329F124E01202D9
:102FD000F0011124EA57FC4FC082D182E282F382D1
:102FE00020E030E0A9016091860370918703809111
:102FF0008803909189030E9485A581110CC080E00F
:1030000090E0A0EEBFE38093860390938703A093A4
:103010008803B09389030E94E86B1AC60E94558901
:1030200087FD16C6F9E6EF2EF2E0FF2E08E61CE05B
:10303000A8E7CA2EACE0DA2ED7018D917D010E945F
:10304000E04F882359F00E94A94F0E948BABF801F2
:1030500060837183828393830E94D94C0C5F1F4FDE
:10306000C016D10649F7F4C50E94558987FDF0C501
:10307000E9E6EE2EE2E0FE2E08E61CE0D7018D9197
:103080007D010E94E04F882339F00E94A94FF8018A
:1030900064A375A386A397A30C5F1F4FFCE00837BA
:1030A0001F0761F7D5C58091BC0387FF02C00C9450
:1030B0004E228091BD038E7011F00C944E224091EF
:1030C0009C0C50919D0C60919E0C70919F0C8FE018
:1030D00094E00E940F2B4091A00C5091A10C6091A4
:1030E000A20C7091A30C8CE094E00E940F2B4091F5
:1030F000A40C5091A50C6091A60C7091A70C89E0CE
:1031000094E00E940F2B8AE00E944929A1C580917A
:10311000BB03827111F00C9494228091BD038C78D2
:1031200011F00C9494228091BE03837011F00C94E2
:1031300094228EC57AE7E72E73E0F72E10E088E53B
:10314000810F0E94E04F882359F00E94A94FD701B8
:103150006D937D938D939C931397812F0E94E470C0
:103160001F5FB4E0EB0EF11C133049F735C84090F7
:10317000A10D5090A20D6090A30D7090A40D209110
:103180000302309104024091050250910602C301EE
:10319000B2010E9418AA6E8F7F8F88A399A3809096
:1031A000A50D9090A60DA090A70DB090A80D209110
:1031B0000702309108024091090250910A02C501AC
:1031C000B4010E9418AA6AA37BA38CA39DA3C090FC
:1031D000A90DD090AA0DE090AB0DF090AC0D209110
:1031E0000B0230910C0240910D0250910E02C7016A
:1031F000B6010E9418AA6EA37FA388A799A7209161
:103200000F02309110024091110250911202C3013D
:10321000B2010E9418AA2B013C01209113023091A7
:1032200014024091150250911602C501B4010E948A
:1032300018AA4B015C0120911702309118024091AD
:10324000190250911A02C701B6010E9418AA6B0117
:103250007C010E94762987EC93E00E94502983E547
:103260000E94E04F882321F00E94954F8093020234
:1032700080910202882319F08EE492E002C083E478
:1032800095E00E9450298FEB93E00E9450294E8DCB
:103290005F8D68A179A18EED9BE10E940F2B4AA161
:1032A0005BA16CA17DA184EB93E00E940F2B4EA14A
:1032B0005FA168A579A58EE793E00E940F2B86EDAC
:1032C00099E10E94502987EB93E00E945029B301B5
:1032D000A2018EED9BE10E940F2BB501A40184EBAE
:1032E00093E00E940F2BB701A6018EE793E00E94A6
:1032F0000F2B8AE00E944929ABC483E50E94295024
:10330000882331F00E94A54F9093220280932102DE
:103310008091BB039091BC03A091BD03B091BE030B
:10332000892B8A2B8B2B09F093C460912102709119
:10333000220280EB93E00E948D2A85E20E944929B7
:103340008AE00E94492984C40E945589F82E87FD8D
:103350007FC483E50E9429500F2D0F2C000C110B08
:10336000882369F10E94A54FF801EE0FFF1FE0507E
:10337000FE4F91838083000F111F000F111FF80172
:10338000E95AFD4F7F01BC01990F880B990B0E94F0
:103390008CA52AE037ED43E25CE30E94EBA5F8013F
:1033A000EA58FC4F20813181428153810E94EBA574
:1033B000D7016D937D938D939C93139749C40E947D
:1033C000762985E40E94492980E38F0D0E944929CE
:1033D000000F111FF801E050FE4F6081718188EAF3
:1033E00093E00E948D2A85E20E9449298AE00E948A
:1033F00049292EC480E50E94E04F882309F428C49F
:1034000060E070E080E50E943650F82E6FEF7FEFAD
:1034100083E50E9436508C010196039708F018C48A
:10342000F7FC16C48F2D0E946D9C882339F00E94F2
:10343000722987E496E00E9450290AC40E94906B8A
:1034400060E08F2D0E941D590F3FBFEF1B0731F029
:103450000130110571F000E010E00DC08F2D0E94C9
:10346000C55831E020E0892B09F030E0032F122FFE
:1034700002C001E010E08F2D0E94C558801791070F
:1034800009F4E6C30E94472BF6CF80E50E94E04F87
:10349000882309F4DDC30E94A54F8C01892B09F014
:1034A0007FC083E50E94E04F882389F00E94A54FEA
:1034B0008F3FEFEF9E0729F48AE19EE00E94552797
:1034C000C7C3BC018AE19EE00E94D127C1C30E940C
:1034D000762960E070E080EA93E00E948D2A809176
:1034E0001C0E28E532E06901C81AD10887FDD39483
:1034F000CC0CDD1CCC0CDD1C0D2C000CEE08FF08E8
:1035000080911B0E28E830E04901881A910887FD58
:103510009394880C991C880C991C092C000CAA08FF
:10352000BB0880911A0E8F3FC1F090E0FC01EE0FB6
:10353000FF1F8E0F9F1FFC01E355F24F2181328147
:1035400083E0220F331F8A95E1F794E036952795A3
:103550009A95E1F72E5F3F4F02C020E030E02F5FE9
:103560003F4FC901330FAA0BBB0B9C01AD012819BA
:1035700039094A095B09A4EBB0E00E94CDA9A70173
:103580009601281939094A095B090E94AEA9B901B7
:103590008CE898E00E948D2A8AE00E94492958C34D
:1035A0000E947229B80181EA93E00E948D2A81E984
:1035B00093E00E9450294CC38AE50E942950811152
:1035C00006C083E50E942950882309F450C00E9458
:1035D000A94F20E030E040E050EC0E9485A587FF35
:1035E00002C00C9420230E94A94F20E030E040E06C
:1035F00050E40E9478AC181614F40C9419230E941D
:10360000A94F6B017C0180915D0E8695869580FFA8
:1036100022C02091840C3091850C4091860C5091F1
:10362000870CC701B6010E94EBA50E9484AB2091D4
:10363000F5033091F603260F371F3093F6032093DE
:10364000F5032091740330917503620F731F70931B
:1036500075036093740380E50E94E04F882311F4A2
:103660000C9427230E94954F81110C94272380915D
:10367000BD0387FF02C00C944E238091BE0383706C
:1036800011F00C944E230E9476294091680E5091BF
:10369000690E60916A0E70916B0E82E793E00E9452
:1036A0000F2B8AE00E944929D3C260E085E40E9482
:1036B0004550811173C080E50E94E04F882351F08E
:1036C0000E94A94F609335077093360780933707A0
:1036D0009093380789E40E94E04F882381F00E948C
:1036E000A94F2CEA35EC47E25EE30E94EBA560931C
:1036F000390770933A0780933B0790933C0784E423
:103700000E94E04F882381F00E94A94F2CEA35ECFB
:1037100047E25EE30E9412AB60933D0770933E0761
:1037200080933F07909340070E9476294091350788
:103730005091360760913707709138078EE693E015
:103740000E940F2B2CEA35EC47E25EE360913907CB
:1037500070913A0780913B0790913C070E9412AB11
:10376000AB01BC018AE693E00E940F2B2CEA35ECFA
:1037700047E25EE360913D0770913E0780913F070D
:10378000909140070E94EBA5AB01BC0186E693E057
:103790000E940F2B8AE00E9449295AC20E94722976
:1037A00084E593E00E94502953C280E50E94E04FD7
:1037B000882351F00E94A94F6093A6037093A7033A
:1037C0008093A8039093A90389E40E94E04F882383
:1037D00081F00E94A94F2CEA35EC47E25EE30E949B
:1037E000EBA56093AA037093AB038093AC03909313
:1037F000AD0384E40E94E04F882381F00E94A94F2A
:103800002CEA35EC47E25EE30E9412AB6093AE0314
:103810007093AF038093B0039093B1030E94762915
:103820004091A6035091A7036091A8037091A9034A
:103830008EE693E00E940F2B2CEA35EC47E25EE324
:103840006091AA037091AB038091AC039091AD039A
:103850000E9412ABAB01BC018AE693E00E940F2BE1
:103860002CEA35EC47E25EE36091AE037091AF0362
:103870008091B0039091B1030E94EBA5AB01BC0114
:1038800086E693E00E940F2B8AE00E944929E0C15E
:1038900083E50E94E04F182F882371F00E94A94F02
:1038A0000E9484AB70935C0260935B0221E0672B03
:1038B00009F020E02093290780E50E94E04F88234B
:1038C00059F020915B0230915C02232B11F00E9491
:1038D000954F80932907BCC11111BAC10E94762966
:1038E00081E493E00E94502980912907882319F0F0
:1038F0008AE99CE102C088E293E00E94502960912D
:103900005B0270915C0280E393E00E948D2A8CE25E
:1039100093E00E9450299CC10E94BA7B99C10E94E9
:10392000906B96C180915E0E81110C94EC1081E039
:103930000E949D4B0C94EC100E94B74D0E94D594B0
:1039400087C10E94735684C16FEF7FEF89E40E94A4
:103950003650182F6FEF7FEF8AE40E943650082F01
:103960008AE50E94E04FF82E811105C081E50E9492
:10397000E04FD82E01C0D12C17FD06C007FD04C0B2
:10398000F11009C0D11007C00E94722988E093E0AD
:103990000E9450295DC1153010F4053038F00E94A6
:1039A000722989E896E00E94502952C1E12E110F38
:1039B000FF08002E000C110B0E94A94FDD2099F08A
:1039C00025E02E9DF0012F9DF00D1124E00FF11F39
:1039D000EE0FFF1FEE0FFF1FE05FFC4F20813181D4
:1039E0004281538103C020E030E0A901A5E0AE9DF3
:1039F000F001AF9DF00D11240E0F1F1F000F111FBE
:103A0000000F111F005F1C4F0E9418AAD8016D9370
:103A10007D938D939C9313971BC10E94159A8111DE
:103A200017C109EC16E0E1E9FDE0FF8FEE8F9E0182
:103A30002F5F3F4F190197EFC92E96E0D92E7901DC
:103A4000F8016591759185919491AE8DBF8D8D90A2
:103A50009D90AD90BD90BF8FAE8FA50194010E9447
:103A600017AA2B013C01F701608371838283938342
:103A700020E030E040EA51EC0E9478AC87FD0AC0BB
:103A800020E030E040EA51E4C301B2010E9485A584
:103A900018162CF4F601849118160CF406C6D701FA
:103AA0008D909D90AD90BD907D0120E030E040EA8A
:103AB00051ECC501B4010E9478AC87FD01C620E03D
:103AC00030E040EA51E4C501B4010E9485A5181612
:103AD0000CF0FDC5F5C50E944193BAC00E94A28BAF
:103AE000B7C061E083E50E9451508F250E94DB95AD
:103AF000AFC081E080930F030E94058D10920F03E9
:103B0000882309F4A5C00E9476298FED92E00E94D7
:103B100050299EC08091BD0387FDFEC58091BE03E4
:103B2000837009F0F9C5C8C6A0904107B09042075C
:103B3000C0904307D09044078BE40E94295088230B
:103B400039F10E94A94F7B018C0120E030E0A901EE
:103B50000E9478AC87FD0AC020E030E040E251E4EA
:103B6000B701C8010E9485A51816A4F48FE30E942E
:103B700049298BE40E94492984E792E00E94502958
:103B80008CE692E00E94502988EC9BE00E9450292C
:103B9000750186019701A801B501C6010E9485A59E
:103BA000882361F00E94906BC701D8018093410780
:103BB00090934207A0934307B09344078091BB03BF
:103BC0009091BC03A091BD03B091BE03892B8A2BB9
:103BD0008B2BF1F50E9476294091410750914207C5
:103BE000609143077091440788E892E00E940F2B90
:103BF0008AE00E9449292CC081E08093EF0360E0B5
:103C000083E50E945150811123C00E94BC8120C0D5
:103C10000E94079A1DC00091F1031091F203002346
:103C2000B9F00E94762984E50E944929B8017727D6
:103C3000072E000C880B990B0E94712A80E20E94CB
:103C4000492984E593E00E94502902C00E94079A06
:103C5000E0910E03F0E0EA5AF14F8081882339F0B9
:103C600089E692E00E9450298AE00E944929F8A939
:103C7000F093F40349C60E94906B20918C0D2EA7FF
:103C800080E00E9410550E94BC7581E08093DC03A7
:103C90000E94BE9588E50E94E04F182F89E50E949A
:103CA000E04F082F8AE50E94E04F1013E8C1181773
:103CB00011F0012FE4C101E011E031E03EA380E109
:103CC000E1E9FDE0ADEDB3E001900D928A95E1F7F9
:103CD00082E50E942950882369F00E94A94F6B0158
:103CE0007C0120E030E0A9010E9485A5882309F429
:103CF0003FC006C0C12CD12C40EAE42E40E4F42E93
:103D0000111103C0002309F40AC180915D0E82FDE8
:103D100009C06091990D70919A0D80919B0D9091C1
:103D20009C0D03C060E070E0CB01A70196010E94EA
:103D300018AA6093E5037093E6038093E7039093DA
:103D4000E8032091990D30919A0D40919B0D50916F
:103D50009C0D0E9478AC18165CF419821A821B82A2
:103D60001C82BE016F5F7F4F85EE93E00E94FD7560
:103D7000112309F4CFC0002309F4C9C01092910D9A
:103D80001092920D1092930D1092940D1092950D29
:103D90001092960D1092970D1092980D0E94D39448
:103DA000E7EFF6E044914FA7E5EDF6E0C590D5903A
:103DB000E590F490E9EDF6E085909590A590B490AB
:103DC000A5019401C701B6010E9478AC18162CF425
:103DD000A7019601C501B40104C0A5019401C70162
:103DE000B6010E9412AB2B013C01EFEEF6E085918B
:103DF0009591A591B4918E8F9F8FA8A3B9A3EBEE57
:103E0000F6E025913591459154912AA33BA34CA30B
:103E10005DA3BC01CD010E9478AC181634F42AA031
:103E20003BA03CA13AA71DA105C02E8C3F8C48A108
:103E30004AA719A1A3019201C301B2010E94EBA5F7
:103E400020E030E040E85FE30E9418AA0E94C6AC80
:103E500091014AA5512F0E94EBA56A8F7B8F8C8F11
:103E60009D8FE8EFF6E0149120E030E040EC5FE356
:103E7000C501B4010E94EBA54B015C01612F110F3C
:103E8000770B880B990B0E948CA59B01AC01C50197
:103E9000B4010E94EBA569837A838B839C8320E025
:103EA00030E040EC5FE3C701B6010E94EBA56B0177
:103EB0007C015FA5652F550F770B880B990B0E942E
:103EC0008CA59B01AC01C701B6010E94EBA56E8BCE
:103ED0007F8B888F998FAE01465E5F4FBE016F5F0B
:103EE0007F4FCE0146960E94DB750E94CD951092C1
:103EF000910D1092920D1092930D1092940D1092BC
:103F0000950D1092960D1092970D1092980D80E0DD
:103F10000E940471002319F081E00E9404718EA1B7
:103F2000882309F49EC080E00E94805280915D0E3B
:103F30008370833029F00E9476298AEB96E0A5C031
:103F40000E94D3944090990D50909A0D60909B0DD3
:103F500070909C0D2091600E3091610E4091620E28
:103F60005091630E60E070E086E193E40E9417AA2E
:103F70006B017C016093DD037093DE038093DF03AC
:103F80009093E0032091640E3091650E4091660E8F
:103F90005091670E60E070E086E193E40E9417AAFA
:103FA0004B015C016093E1037093E2038093E303B0
:103FB0009093E4032091680E3091690E40916A0E4F
:103FC00050916B0EC301B2010E9417AA6093E503E2
:103FD0007093E6038093E7039093E80327E137EBC0
:103FE00041ED58EBC501B4010E9478AC87FD49C092
:103FF00023E030E046E953E4C501B4010E9485A501
:1040000018160CF43EC027E137EB41ED58EBC70121
:10401000B6010E9478AC87FD34C023E030E046E969
:1040200053E4C701B6010E9485A5181654F11E8AF3
:104030001F8A188E198E88E0EDEDF3E0DE011196EF
:1040400001900D928A95E1F7AE014A5E5F4FBE0185
:104050006B5F7F4FCE0101960E94DB7582E00E946C
:1040600004710E94D3948091DB038093DC038EA5BE
:104070000E9410550E94A3750E94D594E9CD8EA38D
:104080001ECE0E94762988EA96E00E945029E9CF48
:104090000E94A03DDDCD88E50E94E04F81115F9830
:1040A00089E50E94E04F81118A988AE50E94E04FDD
:1040B000882331F080910801817080930601479830
:1040C00085E40E94E04F882309F4C2CD1298C0CD48
:1040D0005F988A98809108018170809306014798C3
:1040E0001298B6CD8DE40E9429508823D9F00E9401
:1040F000814F813069F038F0823079F462E0802FAE
:104100000E941D59A5CD60E0802F0E941D59A0CDB1
:1041100061E0802F0E941D599BCD86E596E00E94AC
:10412000502996CD83E50E942950882309F490CD2B
:104130000E94814FF82EB9E0EB1203C0809318075C
:1041400087CD61E0802F0E941D596F2D802F0E9426
:10415000EE586F2D70E0802F0E94595979CD0E9442
:10416000A94F0E9484AB6C3871050CF062C170934A
:10417000A4036093A3030E94DE2F0E94CB2F811122
:104180000E946A7B80919F039091A003A091A1035C
:10419000B091A20340E050E060E87FEB4A8F5B8F74
:1041A0006C8F7D8F21E0209320028E8B9F8BA88FB8
:1041B000B98F8FE7809396031E8E1F8E18A219A2C7
:1041C0001AA61BA61CA61DA610E01FA62CE329AB51
:1041D0003CE13AAB46E44BAB51E05EA7812C912C1D
:1041E00054016091A3037091A403072E000C880B67
:1041F000990B0E948CA56B017C012A8D3B8D4C8D07
:104200005D8D0E9485A58823F9F020919F03309150
:10421000A0034091A1035091A203CA8EDB8EEC8EC5
:10422000FD8E8EA1811109C0C701B6010E9485A52E
:10423000182F111F1127111F07C0C701B6010E94B7
:1042400085A587FD05CD10E00E945C5A6B017C01BD
:10425000DC01CB012AA53BA54CA55DA5821B930BD8
:10426000A40BB50BB7FD33C0D701C60188519C4FD5
:10427000AF4FBF4F8AA79BA7ACA7BDA780E00E9406
:10428000F85A8FE392E00E94502981149104A1040E
:10429000B104B9F0D501C401805F984DAF4FBF4F55
:1042A000BC01CD016C197D098E099F0928EE33E010
:1042B00040E050E00E948CA9CA01B9010E94712A15
:1042C00003C08FE30E9449298AE00E9449290E9485
:1042D000472B0E945C5A60939703709398038093D6
:1042E000990390939A0380919F039091A003A091CA
:1042F000A103B091A20389839A83AB83BC8311117C
:104300000AC0AE01465E5F4FBE016F5F7F4FCE01B8
:1043100046960E94295129803A809B819AA30C815C
:104320009101492F502F6A8D7B8D8C8D9D8D0E9420
:1043300017AA2B013C0120E030E0A9010E9478ACD3
:1043400087FF04C077FA709477F870948114910411
:10435000A104B104B1F420E030E040E85FE3C30120
:10436000B2010E9485A587FF18C0AEA5460157017E
:10437000AA2399F0B0E18B0EB7E29B1EA11CB11CE1
:104380000CC020E030E040E450E4C301B2010E94E0
:1043900078AC181614F446015701112389F12E8DBB
:1043A0003F8D48A159A1211531054105510541F025
:1043B000D701C601821B930BA40BB50BB7FD20C020
:1043C00091014AA1502F6FA579A98AA99BA90E94A2
:1043D00017AA20E030E040EC5FE30E9485A587FD4E
:1043E00037CCD701C601805A9541AF4FBF4F8E8F52
:1043F0009F8FA8A3B9A32FA639AA9AA19AAB0BABFA
:1044000080912002882309F423CC81149104A10413
:10441000B10411F41EA6E5CEA0E1CA1AA7E2DA0A99
:10442000E108F108C818D908EA08FB08F7FCF2CF40
:104430000FCC6CE870E09BCE0E94906B88E50E94E8
:10444000E04F882331F05F9A80915D0E8E7F8093DC
:104450005D0E89E50E94E04F882331F08A9A8091B1
:104460005D0E8D7F80935D0E8AE50E94E04F88236C
:1044700061F0809108018095817080930601479AD0
:1044800080915D0E8B7F80935D0E85E40E94E04FEE
:10449000882309F4DDCB0E941927DACB83E50E943B
:1044A0002950882391F00E94A94F60939C0C70932F
:1044B0009D0C80939E0C90939F0C6093A40C709322
:1044C000A50C8093A60C9093A70C80E50E94295020
:1044D000882351F00E94A94F60939C0C70939D0C0F
:1044E00080939E0C90939F0C82E50E942950882314
:1044F00051F00E94A94F6093A00C7093A10C80937F
:10450000A20C9093A30C84E50E942950882309F4FF
:104510009FCB0E94A94F6093A40C7093A50C80932D
:10452000A60C9093A70C94CB82E40E94E04F8823C2
:10453000C1F08091ED039091EE03009739F04AE0CD
:1045400050E060E070E00E9405A403C060E070E00D
:10455000CB016093780C7093790C80937A0C9093D4
:104560007B0C83E50E94E04F882351F00E94A94F05
:104570006093A80C7093A90C8093AA0C9093AB0C39
:1045800084E50E94E04F882351F00E94A94F609378
:10459000AC0C7093AD0C8093AE0C9093AF0C88E58F
:1045A0000E94E04F882351F00E94A94F60930807B2
:1045B0007093090780930A0790930B0789E50E947F
:1045C000E04F882351F00E94A94F60930C0770932D
:1045D0000D0780930E0790930F078AE50E94E04F26
:1045E0008823B1F00E94A94F6093100770931107C0
:1045F00080931207909313072DEC3CEC4CEC5DE399
:104600000E9485A5181624F087ED93E00E9450299A
:1046100085E40E94E04F882309F41ACB0E94A94F39
:1046200060931407709315078093160790931707EC
:104630000FCBC12CD12CE12C10E4F12E0C94031BD8
:10464000C12CD12CE12CB0ECFB2E0C94031BA70148
:1046500096016091680E7091690E80916A0E90913A
:104660006B0E0E9418AA6093680E7093690E809377
:104670006A0E90936B0E0E9476294091680E5091BD
:10468000690E60916A0E70916B0E81E893E00E9452
:104690000F2B8AE00E9449290C94371B82E50E9467
:1046A000E04F81110C94431BD3CAB7FAB094B7F80A
:1046B000B094D7018D929D92AD92BC921397EFC9A1
:1046C0000E9472298AEE92E00E945029C1CA0C5FB2
:1046D0001F4FBFEFCB1ADB0AE5EDF6E0E017F1075D
:1046E00009F0AEC98AE7E82E83E0F82E10E0F10168
:1046F00081919191A191B1911F01F70181939193C2
:10470000A193B1937F01812F0E94E4701F5F13304A
:1047100071F70E94D5949CCAF091600EFE8F809034
:10472000610E7090620E6090630E5090640E409027
:10473000650E3090660E2090670EC090680ED09087
:10474000690EE0906A0EF0906B0E88E50E94295089
:10475000882361F10E94A94F5B018C0120E030E0C9
:1047600046E953EC0E9478AC87FD0AC020E030E0B7
:1047700046E953E4B501C8010E9485A5181694F4D2
:104780006CE271E08DEB92E00E948D2A6CE271E0A8
:1047900088EB92E00E948D2A80EB95E10E945029DF
:1047A00010E005C0AE8E8B2C702E612E11E089E5D5
:1047B0000E942950882381F10E94A94F962EA72E8E
:1047C000B82E092F20E030E046E953EC0E9478AC87
:1047D00087FD0CC020E030E046E953E4692D7A2DD6
:1047E0008B2D902F0E9485A5181694F46CE271E031
:1047F00085EA92E00E948D2A6CE271E088EB92E0FB
:104800000E948D2A80EB95E10E94502910E004C09F
:10481000592C4A2C3B2C202E8AE50E9429508823B3
:1048200039F10E94A94F6B017C0120E030E040EAA1
:1048300051EC0E9478AC87FD0AC020E030E040EAED
:1048400051E4C701B6010E9485A518168CF46CEEE0
:104850007FEF83E992E00E948D2A64E170E088EBAB
:1048600092E00E948D2A80EB95E10E945029F0C9C8
:10487000112309F4EDC98E8D982DA72DB62D8093A7
:10488000600E9093610EA093620EB093630E852D1F
:10489000942DA32DB22D8093640E9093650EA0935A
:1048A000660EB093670EC092680ED092690EE092C9
:1048B0006A0EF0926B0ECCC94091600E5091610E61
:1048C0006091620E7091630E80ED92E00E940F2B5A
:1048D0004091640E5091650E6091660E7091670E66
:1048E00084EB93E00E940F2B4091680E5091690E6B
:1048F00060916A0E70916B0E8EE793E00E940F2B11
:104900008AE00E944929A4C9E3960FB6F894DEBF55
:104910000FBECDBFDF91CF911F910F91FF90EF9010
:10492000DF90CF90BF90AF909F908F907F906F90CF
:104930005F904F903F902F900895CF92DF92EF922B
:10494000FF920F931F93CF93DF936C018B017A013A
:10495000EC01C650DC4F888187FF04C0FB01118247
:10496000108224C02CE02C9DC0012D9D900D11249F
:104970002881AC01420F511D27FD5A952091190E37
:1049800030E04217530794F42881AC01420F511DC7
:1049900027FD5A959A01FA01EE0FFF1F2E0F3F1FB8
:1049A000F901E355F24F208127FD19C088818F5FFF
:1049B00088832CE02C9DC0012D9D900D1124288111
:1049C000AC01420F511D27FD5A952091190E30E080
:1049D00042175307BCF428812C3044F113C02881BE
:1049E000820F911D27FD9A95FC01EE0FFF1F8E0F80
:1049F0009F1FFC01E355F24F808160E08F770E949A
:104A0000EE58D4CFF80180819181049680349C497E
:104A100018F480E49CE904C0F80180819181049637
:104A2000F701918380838FEF888345C0F80140812F
:104A300051812881BC01620F711D27FD7A959B0170
:104A4000FB01EE0FFF1F2E0F3F1FF901E355F24F41
:104A500021813281240F351FF70131832083288182
:104A6000AC01420F511D27FD5A959A01FA01EE0F34
:104A7000FF1F2E0F3F1FF901E355F24F208127FF43
:104A80001AC02881820F911D27FD9A95FC01EE0F17
:104A9000FF1F8E0F9F1FFC01E355F24F808161E0E5
:104AA0008F77DF91CF911F910F91FF90EF90DF9063
:104AB000CF900C94EE58DF91CF911F910F91FF9002
:104AC000EF90DF90CF9008952F923F924F925F9298
:104AD0006F927F928F929F92AF92BF92CF92DF920E
:104AE000EF92FF920F931F93CF93DF93CDB7DEB773
:104AF0002E970FB6F894DEBF0FBECDBFF82EE62E70
:104B0000042FA22E282F30E03C872B87462F50E021
:104B10005A87498715E0129FC001139F900D1124F9
:104B20009E878D87FA01E80FF91FEE0FFF1FEE0F2A
:104B3000FF1FE05FFC4F60817181828193819B0147
:104B4000AC010E940AAD882309F436C1F00E6E2D27
:104B50006A0D1F9D40011124E985FA85E80DF91DB4
:104B6000EE0FFF1FEE0FFF1FE05FFC4FB080C18014
:104B7000D280E380F00E1F9DA0011124E985FA8503
:104B8000E40FF51FEE0FFF1FEE0FFF1FE05FFC4F5E
:104B9000F080018112817380E62FF0E0AD85BE8543
:104BA000AE0FBF1FAA0FBB1FAA0FBB1FA05FBC4F3A
:104BB0006C9011965C90119712964C9012971396E8
:104BC0003C906A0D70E0AD85BE85A60FB71FAA0F99
:104BD000BB1FAA0FBB1FA05FBC4FBE87AD872C9029
:104BE0001196AC9011971296BC91B983AD85BE8594
:104BF0001396BC91BA83E80DF91DEE0FFF1FEE0F5F
:104C0000FF1FE05FFC4F9080818022812B833381E6
:104C10003C83FA01E60FF71FEE0FFF1FEE0FFF1F99
:104C2000E05FFC4F40814D8351815E8382818F83A1
:104C3000938198872F2D302F412F572D6F2D702F57
:104C4000812F972D0E940AAD882321F0F12C00E0DE
:104C500010E0712C2B2D3C2D4D2D5E2D6B2D7C2DC0
:104C60008D2D9E2D0E940AAD882319F0BF2C68015E
:104C7000E72C222D3A2D49815A81622D7A2D898186
:104C80009A810E940AAD882321F0212CA12C19823F
:104C90001A82262D352D442D532D662D752D842DEC
:104CA000932D0E940AAD882321F0622C5A2C498052
:104CB0003A802D813E814F8158856D817E818F8123
:104CC00098850E940AAD882321F01D821E821F82D2
:104CD0001886292D382D4B815C81692D782D8B818B
:104CE0009C810E940AAD882331F09D808E80AF8127
:104CF000AB83B885BC8385E02B853C85829FF00122
:104D0000839FF00D112449855A85E40FF51FEE0F9E
:104D1000FF1FEE0FFF1FE05FFC4FFA87E9872B2D87
:104D20003C2D4D2D5E2D6B2D7C2D8D2D9E2D0E94AD
:104D300018AA2F2D302F412F572D0E9417AA6B0133
:104D40007C01262D352D442D532D662D752D842D5A
:104D5000932D0E9418AA222D3A2D49815A810E9432
:104D600017AA9B01AC01C701B6010E9418AA6B01EA
:104D70007C01292D382D4B815C81692D782D8B810B
:104D80009C810E9418AA2D813E814F8158850E94E6
:104D900017AA9B01AC01C701B6010E9418AA20E026
:104DA00030E040E450E40E9412ABA985BA856D93CF
:104DB0007D938D939C9313972E960FB6F894DEBF38
:104DC0000FBECDBFDF91CF911F910F91FF90EF905C
:104DD000DF90CF90BF90AF909F908F907F906F901B
:104DE0005F904F903F902F900895CF92DF92EF9277
:104DF000FF926B017C0183E3C816D104E104F10446
:104E000070F082E3C81AD108E108F10862E370E0AB
:104E100080E090E00E94225A0E947934ECCFC701D2
:104E2000B6010E94225AFF90EF90DF90CF900C9431
:104E30007934129A08955F9A80915D0E8E7F8093E7
:104E40005D0E8A9A80915D0E8D7F80935D0E8091BC
:104E500008018095817080930601479A80915D0ECC
:104E60008B7F80935D0E0C9419270E94596E909150
:104E7000210E9093200E90931F0E90931E0E94E699
:104E800090931D0E28EE33E03093660C2093650C52
:104E900081110E94666E81E0809372040E94906B83
:104EA0008EEF0E9443940C94D394DC01EC91F0E0DB
:104EB000CF01880F991FE80FF91FE355F24F80814A
:104EC0008F77808308958F929F92AF92BF92CF92F7
:104ED000DF92EF92FF920F93CF93DF931F92CDB7A4
:104EE000DEB75C016B017A014901F5018081918196
:104EF0000E9466A98983002311F0F6018083BE0118
:104F00006F5F7F4FC4010E94C798F5018081918136
:104F1000019691838083FFEFCF1ADF0A81E0E81AC0
:104F2000F10819F780E00F90DF91CF910F91FF907A
:104F3000EF90DF90CF90BF90AF909F908F900895AB
:104F4000009781F41092900082E08093910010927B
:104F5000950010929400C19A8091710082608093B4
:104F6000710008958130910569F41092A00082E0EB
:104F70008093A1001092A5001092A40089BB809399
:104F800072000895029761F41092200182E08093EC
:104F9000210110922501109224018ABB8093730095
:104FA00008957F928F929F92AF92BF92CF92DF929D
:104FB000EF92FF920F931F93CF93DF93FC019081A9
:104FC000943208F0CEC06B017F01892F90E0FC0184
:104FD000EE0FFF1F8E0F9F1FFC01E355F24F8081E4
:104FE00061E08F770E941D59F70111821282808142
:104FF0006CE00E94EFA9FCE08F9FB001112440E01B
:1050000050E09B01240F351FF901EE0FFF1F2E0FFB
:105010003F1FF901E355F24F908197FD08C04F5FA4
:105020005F4F4C30510569F790E00E94A027F701CF
:105030007080C72DD0E08E01000F111FF801EC0F1A
:10504000FD1FE355F24F80818068808377FC89C023
:10505000F0E2CF16F2E0DF060CF041C0F7018281EA
:1050600028E532E0281B310987FD3395220F331FD5
:10507000220F331F032E000C440B550B818168E86F
:1050800070E04B01881A910887FD9394880C991C55
:10509000880C991C092C000CAA08BB08D7FC0BC073
:1050A000B601653B710514F064EB70E0072E000C4F
:1050B000880B990B03C060E070E0CB012819390917
:1050C0004A095B090E947CA924EB30E040E050E0F3
:1050D0000E94AEA9820E931EA41EB51E01C04601F9
:1050E000F3E2F71558F1F701218188E890E0821B7F
:1050F000910927FD9395880F991F880F991F88168E
:10510000990684F0F701228188E592E0821B9109DB
:1051100027FD9395880F991F880F991F8816990668
:105120000CF4C40102972FB7F894C00FD11FC355D8
:10513000D24F880F991F9A8389832FBF62E370E053
:1051400080E090E0DF91CF911F910F91FF90EF9061
:10515000DF90CF90BF90AF909F908F907F900C94F6
:10516000F526DF91CF911F910F91FF90EF90DF9087
:10517000CF90BF90AF909F908F907F9008951F9297
:105180000F920FB60F9211240BB60F922F933F93ED
:105190004F935F936F937F938F939F93AF93BF933F
:1051A000EF93FF9348E251E064E271E082E090E027
:1051B0000E949D24FF91EF91BF91AF919F918F919C
:1051C0007F916F915F914F913F912F910F900BBE07
:1051D0000F900FBE0F901F9018951F920F920FB651
:1051E0000F9211240BB60F922F933F934F935F931F
:1051F0006F937F938F939F93AF93BF93EF93FF939F
:1052000048EA50E064EA70E081E090E00E949D246A
:10521000FF91EF91BF91AF919F918F917F916F918E
:105220005F914F913F912F910F900BBE0F900FBE4A
:105230000F901F9018951F920F920FB60F92112486
:105240000BB60F922F933F934F935F936F937F9380
:105250008F939F93AF93BF93EF93FF9348E950E0F1
:1052600064E970E080E090E00E949D24FF91EF915E
:10527000BF91AF919F918F917F916F915F914F916E
:105280003F912F910F900BBE0F900FBE0F901F906C
:1052900018959091C00095FFFCCF8093C6000895AB
:1052A000CF93DF93FC018491EF012196882321F0B5
:1052B0000E944929FE01F7CFDF91CF9108950F9306
:1052C0001F93CF93DF938B010E945029E8018991AE
:1052D000882319F00E944929FACFDF91CF911F91BD
:1052E0000F91089589E398E00C94502983E398E0A6
:1052F0000C945029C42F0E9416300E94722983E119
:1053000098E00E94502989EE93E030E6019729F059
:10531000232F2A950000E9F7F9CFF89489EE93E05E
:1053200038EE019729F0232F2A950000E9F7F9CFED
:105330000E941630CC2319F00E941B2702C00E9445
:105340001927A895FECF7F928F929F92AF92BF921E
:10535000CF92DF92EF92FF920F931F93CF93DF9341
:105360001F92CDB7DEB77C0159018B016B01C40ED2
:10537000D51E0C151D0559F1F70180809180F801AB
:1053800071908F017982C4010E9466A9781691F00C
:10539000672DC4010E946EA9C4010E9466A999816B
:1053A000891741F00E9476298AEF96E00E945029E1
:1053B00081E00EC0BE016F5F7F4FC5010E94C7989C
:1053C000F70180819181019691838083D2CF80E023
:1053D0000F90DF91CF911F910F91FF90EF90DF9091
:1053E000CF90BF90AF909F908F907F9008958F92B5
:1053F0009F92AF92BF92EF92FF920F931F93CF9322
:10540000DF93CDB7DEB7A0970FB6F894DEBF0FBE1F
:10541000CDBF611571058105910591F100E0842EE4
:10542000912CA12CB12C102FEE24E394F12CEC0E36
:10543000FD1EE00EF11C07FDFA94A50194010E94E7
:105440008CA9F7016083B901CA010F5F611571056D
:105450008105910541F71F3F31F1E1E0F0E0EC0FEC
:10546000FD1FE10FF11D17FDFA9580818A3010F0C4
:1054700097E301C090E3890F0E9449291150EBCFB7
:1054800080E3A0960FB6F894DEBF0FBECDBFDF91CC
:10549000CF911F910F91FF90EF90BF90AF909F9091
:1054A0008F900C944929A0960FB6F894DEBF0FBEDA
:1054B000CDBFDF91CF911F910F91FF90EF90BF90E3
:1054C000AF909F908F900895CF93DF93EB010E9450
:1054D0005029BE0180E090E04AE0DF91CF910C942A
:1054E000F729CF92DF92EF92FF926B017C0197FF39
:1054F0000BC08DE20E944929F094E094D094C094AE
:10550000C11CD11CE11CF11C4AE0C701B601FF908F
:10551000EF90DF90CF900C94F729CF93DF93EB01BE
:105520000E945029BE01DD0F880B990BDF91CF91AE
:105530000C94712A8F929F92AF92BF92CF92DF927A
:10554000EF92FF92CF936B017C01B42E20E030E00C
:10555000A9010E9485A587FF07C08DE20E94492905
:10556000F7FAF094F7F8F094C0E060E070E080E0C3
:105570009FE3CB1541F02DEC3CEC4CEC5DE30E943D
:10558000EBA5CF5FF6CF9B01AC01C701B6010E942E
:1055900018AA6B017C010E948BAB4B015C014AE0B5
:1055A0000E94F729CC2389F1C501B4010E948AA584
:1055B0009B01AC01C701B6010E9417AA6B017C01D7
:1055C0008EE20E94492920E030E040E251E4C70128
:1055D000B6010E94EBA54B015C010E9484AB6B01FC
:1055E000770FEE08FF08C701B6010E94712AC701B4
:1055F000B6010E948CA59B01AC01C501B4010E94BB
:1056000017AA6B017C01C150F1F6CF91FF90EF908A
:10561000DF90CF90BF90AF909F908F900895CF92E2
:10562000DF92EF92FF926A017B010E94502942E0D3
:10563000C701B601FF90EF90DF90CF900C949A2AAB
:105640008DE00E9449298AE00C944929CF93DF9389
:10565000EC018991882319F00E944929FACFDF9142
:10566000CF910C94202B8091E90C9091EA0C981723
:1056700059F0E92FF0E0E751F34F82819F5F9F7768
:105680009093EA0C90E008958FEF9FEF08952F928A
:105690003F924F925F926F927F928F929F92AF92C2
:1056A000BF92CF92DF92EF92FF920F931F93CF930F
:1056B000DF93CDB7DEB728970FB6F894DEBF0FBEE5
:1056C000CDBF0E945C5A6B017C0180911F02882330
:1056D00059F18091F403882339F14091FD035091F1
:1056E000FE036091FF037091000497018601041B83
:1056F000150B260B370B37FD2AC0833079F03CF4AD
:10570000813094F00E94762983E497E00BC08430C6
:1057100059F40E94762984E197E004C00E9476291A
:105720008CE297E00E94502920911F0230E0A8EE01
:10573000B3E00E94E0A9C60ED71EE81EF91EC09273
:10574000FD03D092FE03E092FF03F09200048091EB
:10575000E506843008F053C180E6F82E01E0809120
:10576000E506843008F04BC18091E90C9091EA0C79
:10577000891B8F7709F443C10E94332BAC0197FD3D
:10578000EECF8A3019F08D3009F00FC110920A0463
:1057900080916B0D90916C0DFC01E55FFB4F1082C9
:1057A000892B49F010926C0D10926B0D2BE034E0B8
:1057B0003F832E8303C00E947934D1CFEE81FF81D5
:1057C0008191803219F4FF83EE83F8CF8E3409F093
:1057D00082C04E815F814115510509F47CC06EE0A5
:1057E00078E0CA010E943CA56C01892B49F06EE467
:1057F00070E08E819F8104960E942AAD009711F47B
:105800008E819F814AE050E060E070E001960E9446
:10581000D7A26093060470930704809308049093C2
:1058200009048090B2039090B303A090B403B090A9
:10583000B5035FEF851A950AA50AB50A68157905BB
:105840008A059B0531F0CD2821F460E08BED97E0CF
:105850002BC06AE270E08E819F810E9453AD9C0153
:10586000009729F1982F8E81981B10E0992341F021
:105870009150EE81FF81E90FF11D80811827F6CF4D
:105880004AE050E060E070E0C90101960E94D7A2B2
:10589000812E912CA12CB12C681579058A059B05C8
:1058A00051F060E08CEB97E00E94E681A8C060E0D8
:1058B00082E997E0F9CF8091060490910704A091C6
:1058C0000804B09109048093B2039093B303A093AA
:1058D000B403B093B5038091EF038130C1F067E466
:1058E00070E08E819F810E942AAD009781F04AE08E
:1058F00050E060E070E001960E94D7A2643071052C
:105900008105910520F48EE294E10E94502960EF18
:1059100072E08E819F810E9435AD892B11F4109227
:10592000200265EF72E08E819F810E9435AD892B48
:1059300031F441E060E070E08EE296E097C06AEFFB
:1059400072E08E819F810E9435AD892B11F40E94F7
:10595000352780910B048B3309F401CF1091E506B4
:105960001A83143008F0FBCE10910504C12ED12CFF
:10597000FC9CC001FD9C900D11246BE074E08B59E0
:105980009A4F0E943EADF601EA5AF14F00831F5F25
:105990001983143018F41093050402C01092050402
:1059A0001A811F5F1093E506DACE90910A049130B8
:1059B00009F4D5CE943020F0945090930A040DC091
:1059C0004C3531F49C5F90930A04943031F4C7CE87
:1059D0004B3319F400930A04C2CE20916B0D309121
:1059E0006C0DC901019690936C0D80936B0DF901BC
:1059F000E55FFB4F40838F35910564F7B0CE0E9481
:105A00005C5A6B017C0140918D0350918E03609133
:105A10008F0370919003411551056105710541F1A6
:105A20008091970390919803A0919903B0919A0364
:105A3000840F951FA61FB71FA7019601281B390BBE
:105A40004A0B5B0B57FD14C00E9472296091820DB6
:105A50007091830D85E597E00E945F298AE00E949E
:105A6000492940E060E070E080E090E00E947A29FF
:105A700040911B0250911C0260911D0270911E0208
:105A8000411551056105710509F449C09091200E39
:105A90008091210E981759F00E945C5A60939703E9
:105AA000709398038093990390939A0338C08091E0
:105AB000970390919803A0919903B0919A03840F52
:105AC000951FA61FB71F97018601081B190B2A0BEC
:105AD0003B0B37FD22C080916F04811120C081E013
