:100000000C940E310C943F310C943F310C943F31E1
:100010000C943F310C943F310C943F310C943F31A0
:100020000C943F310C943F310C943F310C943F3190
:100030000C943F310C943F310C943F310C943F3180
:100040000C943F310D94B5270C943F310C943F3103
:100050000C943F310C943F310D94DF200D943A8283
:100060000C943F310C9430A40C94FAA30C943F31BF
:100070000C943F310C943F310C943F310C943F3140
:100080000C94C15D0C943F310C943F310C943F3182
:100090000C943F310C943F310C943F310C943F3120
:1000A0000C943F310C943F310C94935D0C943F3190
:1000B0000C943F310C943F310C943F310C943F3100
:1000C0000C943F310C943F310C943F310C943F31F0
:1000D0000C943F310C943F310C943F310C943F31E0
:1000E0000C943F31084AD73B3BCE016E84BCBFFD28
:1000F000C12F3D6C74319ABD56833DDA3D00C77FF8
:1001000011BED9E4BB4C3E916BAAAABE0000008090
:100110003F05A84CCDB2D44EB93836A9020C50B91F
:10012000918688083CA6AAAA2ABE000000803F0744
:10013000634236B79BD8A71A39685618AEBAAB5582
:100140008C1D3CB7CC5763BD6DEDFD753EF6177247
:1001500031BF000000803F08000000BE9224491219
:100160003EABAAAA2ABECDCCCC4C3E00000080BE3D
:10017000ABAAAAAA3E00000000BF000000803F001A
:1001800000000000084178D3BB4387D1133D190E0E
:100190003CC3BD4282AD2B3E68EC8276BED98FE176
:1001A000A93E4C80EFFFBE01C4FF7F3F000000006E
:1001B00000000D9422150D948E170D94020A0D94D3
:1001C000470E0D94BB160D94B67C0D94C07C0D9417
:1001D0008A7D0D94437D0D94C70E0D948B7C0D94F8
:1001E00037020D94257D0D94E95E0D9456040D940F
:1001F0009D7C0D94B27D0D94867C0D942F7D0D9485
:10020000677D0D94A9910D94C47C0D94BC7C0D94D4
:10021000397D0D94D0990D9425150D94AC7C0D94D9
:10022000820E0D948B180D949D160D94B75E0D944F
:10023000947D0D949F140D945D7D0D9413170D9472
:10024000CE7C0D94A57C0D94207D0D940F160D94FD
:1002500039070D94FB160D949E170D9462000D94B2
:10026000EA0E0D94187D0D942A160D949E7D0D9422
:10027000B27C0D94717D0D948A5E0D94537D0D9426
:10028000CA7C0D9421150D94A87D0D94D65F0D9414
:10029000A97C0D94C8170D94D87C0D94A17C0D9465
:1002A000D27C0D944B7D0D9419080D9465010D942D
:1002B000DC7C0D94807D0D94F5050D94CF0E0D948E
:1002C000ED0B4E414E494E495459494E46CDCCCC8A
:1002D0003D0AD7233C17B7D13877CC2B329595E61A
:1002E000241FB14F0A000020410000C84200401CFA
:1002F0004620BCBE4CCA1B0E5AAEC59D7400407A47
:1003000010F35A00A0724E18090010A5D4E800009E
:10031000E87648170000E40B54020000CA9A3B003C
:100320000000E1F505000080969800000040420FB3
:10033000000000A08601000000102700000000E877
:1003400003000000006400000000000A000000003C
:10035000000100000000002C76D888DC674F0823DD
:10036000DFC1DFAE59E1B1B796E5E3E453C63AE643
:1003700051997696E8E6C28426EB898C9B62ED4023
:100380007C6FFCEFBC9C9F40F2BAA56FA5F4900572
:100390005A2AF75C936B6CF9676DC11BFCE0E40DA6
:1003A00047FEF520E6B500D0ED902E03009435779A
:1003B000050080841E080000204E0A000000C80CC2
:1003C000333333330F986E12831141EF8D2114892B
:1003D0003BE65516CFFEE6DB18D1844B381BF77C85
:1003E0001D901DA4BBE424203284725E228100C9CA
:1003F000F124ECA1E53D27363726033C3D380E2E8F
:10040000303E1224221E131A1C180A07430907083B
:1004100044000170012C0190012701B0012201C0AC
:10042000011D01F00118011002130130020E0160DC
:1004300002090190020401C002FF000003FA00401B
:1004400003F5008003F000D003EB002004E6007009
:1004500004E100E004DC004005D700C005D2004004
:1004600006CD00D006C8008007C3003008BE00F0EB
:1004700008B900C009B400B00AAF00B00BAA00D0A0
:100480000CA500000EA000500F9B00C0109600505D
:1004900012910000148C00C0158700B0178200B0C4
:1004A000197D00D01B7800001E730040206E009064
:1004B000226900F024640040275F0090295A00E080
:1004C0002B5500102E500020304B0010324600E01B
:1004D00033410090353C001037370070383200A0AF
:1004E000392D00B03A2800A03B2300603C1E0010CC
:1004F0003D1900903D1400103E0F00703E0A00C0F0
:100500003E0500003F0000403FFBFF803FF6FFC07C
:100510003FF1FF24F404D9201BC40C5C0E9804C4E2
:10052000095F0265077101F405F900FB04B3004897
:10053000048700C10369005803550003034500BE4A
:10054000023A008402310053022A002902250004E5
:10055000022000E4011C00C8011900AF0117009837
:100560000114008401130071011000610110005199
:10057000010E0043010D0036010B002B010B002082
:10058000010B00150109000C01090003010800FB23
:10059000000800F3000800EB000700E4000600DE9E
:1005A000000600D8000600D2000600CC000500C7F7
:1005B000000500C2000500BD000400B9000400B53C
:1005C000000400B1000400AD000400A9000400A56F
:1005D000000300A20003009F0004009B000300989A
:1005E0000003009500020093000300900003008DBB
:1005F0000002008B000300880002008600020084D5
:10060000000300810002007F0002007D0002007BE9
:1006100000020079000200770001007600020074F9
:1006200000020072000100710002006F0002006D04
:100630000001006C0002006A00010069000200670E
:100640000001006600010065000100640002006214
:1006500000010061000100600001005F0002005D18
:100660000001005C0001005B0001005A000100591C
:10067000000100580001005700010056000100551C
:10068000000100540001005300000053000100521B
:1006900000010051000100500001004F0001004E18
:1006A0000000004E0001004D0001004C0001004B15
:1006B0000000004B0001004A000100490001004811
:1006C000000000480001004700010046000000460D
:1006D0000001004500000045000100440001004306
:1006E0000000004300010042000000420001004100
:1006F00000000041000100400001003F0000003FF9
:100700000001003E0000003E0001003D0000003DF1
:100710000001003C0000003C0000003C0001003BE8
:100720000000003B0001003A0000003A00010039DF
:1007300000000039000100380000003800000038D7
:1007400000010037000000370001003600000036CD
:1007500000000036000100350000003500000035C3
:1007600000010034000000340000003400010033B8
:1007700000000033000000330001003200000032AE
:1007800000000032000100310000003100000031A3
:100790000001003000000030000000300001002F98
:1007A0000000002F0000002F0000002F0001002E8D
:1007B0000000002E0000002E0001002D0000002D82
:1007C0000000002D0000002D0001002C0000002C76
:1007D0000000002C0000002C0001002B0000002B6A
:1007E0000000002B0000002B0001002A0000002A5E
:1007F0000000002A0000002A000100290000002952
:100800000000002900000029000000290001002844
:100810000000002800000028000000280000002838
:10082000000100270000002700000027000000272B
:10083000000000270001002600000026000000261E
:100840000000002600000026000100250000002511
:100850000000002500000025000000250000002504
:1008600000010024000000240000002400000024F7
:1008700000000024000100230000002300000023EA
:1008800000000023000000230000002300000023DC
:1008900000010022000000220000002200000022CF
:1008A00000000022000000220001002100000021C1
:1008B00000000021000000210000002100000021B4
:1008C00000000021000100200000002000000020A6
:1008D0000000002000000020000000200000002098
:1008E000000000200001001F0000001F0000001F8A
:1008F0000000001F0000001F0000001F0000001F7C
:100900000001001E0000001E0000001E0000001E6E
:1009100000000024F4D43050C38E20C2A2401782BD
:100920008B7011127A910D816CD90AA861E108C708
:10093000586607615143061E4B5D05C145A7041A61
:10094000411104093D9803713931034036DB0265DA
:10095000339102D4305402802E1D02632CEE0175B7
:100960002AC501B028A001102781018F2564012B21
:10097000244B01E0223401AC211F018D200D0180A8
:100980001FFC00841EED00971DDF00B81CD200E69E
:100990001BC600201BBC00641AB200B219A8000AD2
:1009A00019A0006A189900D117910040178B00B563
:1009B00016840031167E00B31579003A157300C70E
:1009C000146F0058146A00EE136600881363002544
:1009D000135E00C7125B006C12570015125400C161
:1009E00011510070114F0021114B00D61049008D9C
:1009F0001047004610440002104200C00F40008023
:100A00000F3E00420F3C00060F3B00CB0E38009318
:100A10000E37005C0E3500270E3400F30D3200C196
:100A20000D3100900D3000600D2E00320D2D0005AF
:100A30000D2C00D90C2B00AE0C2900850C29005C74
:100A40000C2700350C27000E0C2600E80B2400C4F0
:100A50000B2400A00B23007D0B23005A0B2100392F
:100A60000B2100180B2000F80A1F00D90A1E00BB3A
:100A70000A1E009D0A1D00800A1D00630A1C004713
:100A80000A1B002C0A1B00110A1A00F7091A00DDC4
:100A9000091900C4091900AB091900920917007B54
:100AA000091800630917004C0916003609160020C2
:100AB0000916000A091500F5081500E0081400CC15
:100AC000081400B8081400A4081400900813007D4E
:100AD0000812006B08130058081200460812003470
:100AE000081100230811001208110001081100F07C
:100AF000071000E0071000D0071000C0071000B07A
:100B0000070F00A107100091070E0083070F007464
:100B1000070F0065070E0057070E0049070E003B40
:100B2000070D002E070E0020070D0013070D00060D
:100B3000070D00F9060C00ED060D00E0060C00D4D0
:100B4000060C00C8060C00BC060C00B0060C00A485
:100B5000060B0099060C008D060B0082060B007731
:100B6000060B006C060B0061060A0057060B004CD2
:100B7000060A0042060A0038060A002E060A002469
:100B8000060A001A060A001006090007060A00FDF8
:100B9000050900F4050900EB050900E2050900D983
:100BA000050900D0050900C7050900BE050900B503
:100BB000050800AD050800A50509009C050800947E
:100BC0000508008C050800840508007C05080074F1
:100BD0000508006C050700650508005D050700565F
:100BE0000508004E050700470507004005080038C6
:100BF000050700310507002A050700230507001C2B
:100C0000050600160507000F050700080506000287
:100C1000050700FB040600F5040700EE040600E8E3
:100C2000040600E2040700DB040600D5040600CF3A
:100C3000040600C9040600C3040600BD040600B78C
:100C4000040600B1040500AC040600A6040600A0DA
:100C50000405009B04060095040500900406008A24
:100C600004050085040500800406007A040500756B
:100C7000040500700405006B0405006604050061AE
:100C80000405005C04050057040500520405004DEE
:100C900004050048040500430405003E0404003A2E
:100CA00004050035040500300404002C0405002769
:100CB000040400230405001E0404001A04040016A2
:100CC000040500110404000D0404000904050004D7
:100CD00004040000040400FC030400F8030400F40E
:100CE000030400F0030400EC030400E8030400E440
:100CF000030400E0030400DC030400D8030400D470
:100D0000030400D0030400CC030400C8030300C59F
:100D1000030300726F746174696F6E206D61747289
:100D200069783A0A0024F404D9201BC40C5C0E989C
:100D300004C4095F0265077101F405F900FB04B3FF
:100D40000048048700C103690058035500030345A8
:100D500000BE023A008402310053022A0029022513
:100D60000004022000E4011C00C8011900AF0117B3
:100D7000009801140084011300710110006101103A
:100D80000051010E0043010D0036010B002B010B39
:100D90000020010B00150109000C010900030108E6
:100DA00000FB000800F3000800EB000700E4000669
:100DB00000DE000600D8000600D2000600CC0005C8
:100DC00000C7000500C2000500BD000400B9000412
:100DD00000B5000400B1000400AD000400A9000447
:100DE00000A5000300A20003009F0004009B000375
:100DF0000098000300950002009300030090000398
:100E0000008D0002008B00030088000200860002B3
:100E10000084000300810002007F0002007D0002C8
:100E2000007B0002007900020077000100760002DA
:100E3000007400020072000100710002006F0002E5
:100E4000006D0001006C0002006A000100690002F0
:100E500000670001006600010065000100640002F7
:100E6000006200010061000100600001005F0002FB
:100E7000005D0001005C0001005B0001005A000100
:100E80000059000100580001005700010056000100
:100E90000055000100540001005300000053000100
:100EA000005200010051000100500001004F0001FC
:100EB000004E0000004E0001004D0001004C0001FA
:100EC000004B0000004B0001004A000100490001F6
:100ED00000480000004800010047000100460000F3
:100EE00000460001004500000045000100440001EB
:100EF00000430000004300010042000000420001E6
:100F0000004100000041000100400001003F0000DE
:100F1000003F0001003E0000003E0001003D0000D7
:100F2000003D0001003C0000003C0000003C0001CE
:100F3000003B0000003B0001003A0000003A0001C5
:100F400000390000003900010038000000380000BE
:100F500000380001003700000037000100360000B3
:100F600000360000003600010035000000350000AA
:100F7000003500010034000000340000003400019E
:100F80000033000000330000003300010032000095
:100F9000003200000032000100310000003100008A
:100FA000003100010030000000300000003000017E
:100FB000002F0000002F0000002F0000002F000174
:100FC000002E0000002E0000002E0001002D000069
:100FD000002D0000002D0000002D0001002C00005D
:100FE000002C0000002C0000002C0001002B000051
:100FF000002B0000002B0000002B0001002A000045
:10100000002A0000002A0000002A00010029000038
:10101000002900000029000000290000002900012B
:101020000028000000280000002800000028000020
:101030000028000100270000002700000027000012
:101040000027000000270001002600000026000005
:1010500000260000002600000026000100250000F8
:1010600000250000002500000025000000250000EC
:1010700000250001002400000024000000240000DE
:1010800000240000002400010023000000230000D1
:1010900000230000002300000023000000230000C4
:1010A00000230001002200000022000000220000B6
:1010B00000220000002200000022000100210000A8
:1010C000002100000021000000210000002100009C
:1010D000002100000021000100200000002000008D
:1010E0000020000000200000002000000020000080
:1010F0000020000000200001001F0000001F000071
:10110000001F0000001F0000001F0000001F000063
:10111000001F0001001E0000001E0000001E000055
:10112000001E00000024F4D43050C38E20C2A24020
:1011300017828B7011127A910D816CD90AA861E126
:1011400008C7586607615143061E4B5D05C145A798
:10115000041A411104093D9803713931034036DB0B
:101160000265339102D4305402802E1D02632CEEAE
:1011700001752AC501B028A001102781018F2564BF
:10118000012B244B01E0223401AC211F018D200DE5
:1011900001801FFC00841EED00971DDF00B81CD2EB
:1011A00000E61BC600201BBC00641AB200B219A8DE
:1011B000000A19A0006A189900D117910040178BF6
:1011C00000B516840031167E00B31579003A157308
:1011D00000C7146F0058146A00EE1366008813638A
:1011E0000025135E00C7125B006C125700151254E5
:1011F00000C111510070114F0021114B00D6104950
:10120000008D1047004610440002104200C00F40FD
:1012100000800F3E00420F3C00060F3B00CB0E3813
:1012200000930E37005C0E3500270E3400F30D32AC
:1012300000C10D3100900D3000600D2E00320D2DDB
:1012400000050D2C00D90C2B00AE0C2900850C29B3
:10125000005C0C2700350C27000E0C2600E80B2440
:1012600000C40B2400A00B23007D0B23005A0B218C
:1012700000390B2100180B2000F80A1F00D90A1EA4
:1012800000BB0A1E009D0A1D00800A1D00630A1C87
:1012900000470A1B002C0A1B00110A1A00F7091A42
:1012A00000DD091900C4091900AB091900920917DA
:1012B000007B091800630917004C0916003609164F
:1012C00000200916000A091500F5081500E00814A9
:1012D00000CC081400B8081400A4081400900813E7
:1012E000007D0812006B081300580812004608120F
:1012F0000034081100230811001208110001081120
:1013000000F0071000E0071000D0071000C0071021
:1013100000B0070F00A107100091070E0083070F10
:101320000074070F0065070E0057070E0049070EEF
:10133000003B070D002E070E0020070D0013070DC0
:101340000006070D00F9060C00ED060D00E0060C86
:1013500000D4060C00C8060C00BC060C00B0060C3D
:1013600000A4060B0099060C008D060B0082060BEC
:101370000077060B006C060B0061060A0057060B8F
:10138000004C060A0042060A0038060A002E060A29
:101390000024060A001A060A001006090007060AB9
:1013A00000FD050900F4050900EB050900E2050947
:1013B00000D9050900D0050900C7050900BE0509C7
:1013C00000B5050800AD050800A50509009C050845
:1013D00000940508008C050800840508007C0508B9
:1013E00000740508006C050700650508005D050729
:1013F00000560508004E0507004705070040050890
:101400000038050700310507002A050700230507F6
:10141000001C050600160507000F05070008050655
:101420000002050700FB040600F5040700EE0406B1
:1014300000E8040600E2040700DB040600D5040609
:1014400000CF040600C9040600C3040600BD04065C
:1014500000B7040600B1040500AC040600A60406AB
:1014600000A00405009B04060095040500900406F6
:10147000008A04050085040500800406007A04053E
:101480000075040500700405006B04050066040582
:1014900000610405005C04050057040500520405C2
:1014A000004D04050048040500430405003E040403
:1014B000003A04050035040500300404002C04053E
:1014C0000027040400230405001E0404001A040479
:1014D0000016040500110404000D040400090405AD
:1014E000000404040000040400FC030400F80304E6
:1014F00000F4030400F0030400EC030400E8030418
:1015000000E4030400E0030400DC030400D8030447
:1015100000D4030400D0030400CC030400C8030378
:1015200000C503030024F404D9201BC40C5C0E98EE
:1015300004C4095F0265077101F405F900FB04B3F7
:101540000048048700C103690058035500030345A0
:1015500000BE023A008402310053022A002902250B
:101560000004022000E4011C00C8011900AF0117AB
:101570000098011400840113007101100061011032
:101580000051010E0043010D0036010B002B010B31
:101590000020010B00150109000C010900030108DE
:1015A00000FB000800F3000800EB000700E4000661
:1015B00000DE000600D8000600D2000600CC0005C0
:1015C00000C7000500C2000500BD000400B900040A
:1015D00000B5000400B1000400AD000400A900043F
:1015E00000A5000300A20003009F0004009B00036D
:1015F0000098000300950002009300030090000390
:10160000008D0002008B00030088000200860002AB
:101610000084000300810002007F0002007D0002C0
:10162000007B0002007900020077000100760002D2
:10163000007400020072000100710002006F0002DD
:10164000006D0001006C0002006A000100690002E8
:1016500000670001006600010065000100640002EF
:10166000006200010061000100600001005F0002F3
:10167000005D0001005C0001005B0001005A0001F8
:1016800000590001005800010057000100560001F8
:1016900000550001005400010053000000530001F8
:1016A000005200010051000100500001004F0001F4
:1016B000004E0000004E0001004D0001004C0001F2
:1016C000004B0000004B0001004A000100490001EE
:1016D00000480000004800010047000100460000EB
:1016E00000460001004500000045000100440001E3
:1016F00000430000004300010042000000420001DE
:10170000004100000041000100400001003F0000D6
:10171000003F0001003E0000003E0001003D0000CF
:10172000003D0001003C0000003C0000003C0001C6
:10173000003B0000003B0001003A0000003A0001BD
:1017400000390000003900010038000000380000B6
:1017500000380001003700000037000100360000AB
:1017600000360000003600010035000000350000A2
:101770000035000100340000003400000034000196
:10178000003300000033000000330001003200008D
:101790000032000000320001003100000031000082
:1017A0000031000100300000003000000030000176
:1017B000002F0000002F0000002F0000002F00016C
:1017C000002E0000002E0000002E0001002D000061
:1017D000002D0000002D0000002D0001002C000055
:1017E000002C0000002C0000002C0001002B000049
:1017F000002B0000002B0000002B0001002A00003D
:10180000002A0000002A0000002A00010029000030
:101810000029000000290000002900000029000123
:101820000028000000280000002800000028000018
:10183000002800010027000000270000002700000A
:1018400000270000002700010026000000260000FD
:1018500000260000002600000026000100250000F0
:1018600000250000002500000025000000250000E4
:1018700000250001002400000024000000240000D6
:1018800000240000002400010023000000230000C9
:1018900000230000002300000023000000230000BC
:1018A00000230001002200000022000000220000AE
:1018B00000220000002200000022000100210000A0
:1018C0000021000000210000002100000021000094
:1018D0000021000000210001002000000020000085
:1018E0000020000000200000002000000020000078
:1018F0000020000000200001001F0000001F000069
:10190000001F0000001F0000001F0000001F00005B
:10191000001F0001001E0000001E0000001E00004D
:10192000001E00000024F4D43050C38E20C2A24018
:1019300017828B7011127A910D816CD90AA861E11E
:1019400008C7586607615143061E4B5D05C145A790
:10195000041A411104093D9803713931034036DB03
:101960000265339102D4305402802E1D02632CEEA6
:1019700001752AC501B028A001102781018F2564B7
:10198000012B244B01E0223401AC211F018D200DDD
:1019900001801FFC00841EED00971DDF00B81CD2E3
:1019A00000E61BC600201BBC00641AB200B219A8D6
:1019B000000A19A0006A189900D117910040178BEE
:1019C00000B516840031167E00B31579003A157300
:1019D00000C7146F0058146A00EE13660088136382
:1019E0000025135E00C7125B006C125700151254DD
:1019F00000C111510070114F0021114B00D6104948
:101A0000008D1047004610440002104200C00F40F5
:101A100000800F3E00420F3C00060F3B00CB0E380B
:101A200000930E37005C0E3500270E3400F30D32A4
:101A300000C10D3100900D3000600D2E00320D2DD3
:101A400000050D2C00D90C2B00AE0C2900850C29AB
:101A5000005C0C2700350C27000E0C2600E80B2438
:101A600000C40B2400A00B23007D0B23005A0B2184
:101A700000390B2100180B2000F80A1F00D90A1E9C
:101A800000BB0A1E009D0A1D00800A1D00630A1C7F
:101A900000470A1B002C0A1B00110A1A00F7091A3A
:101AA00000DD091900C4091900AB091900920917D2
:101AB000007B091800630917004C09160036091647
:101AC00000200916000A091500F5081500E00814A1
:101AD00000CC081400B8081400A4081400900813DF
:101AE000007D0812006B0813005808120046081207
:101AF0000034081100230811001208110001081118
:101B000000F0071000E0071000D0071000C0071019
:101B100000B0070F00A107100091070E0083070F08
:101B20000074070F0065070E0057070E0049070EE7
:101B3000003B070D002E070E0020070D0013070DB8
:101B40000006070D00F9060C00ED060D00E0060C7E
:101B500000D4060C00C8060C00BC060C00B0060C35
:101B600000A4060B0099060C008D060B0082060BE4
:101B70000077060B006C060B0061060A0057060B87
:101B8000004C060A0042060A0038060A002E060A21
:101B90000024060A001A060A001006090007060AB1
:101BA00000FD050900F4050900EB050900E205093F
:101BB00000D9050900D0050900C7050900BE0509BF
:101BC00000B5050800AD050800A50509009C05083D
:101BD00000940508008C050800840508007C0508B1
:101BE00000740508006C050700650508005D050721
:101BF00000560508004E0507004705070040050888
:101C00000038050700310507002A050700230507EE
:101C1000001C050600160507000F0507000805064D
:101C20000002050700FB040600F5040700EE0406A9
:101C300000E8040600E2040700DB040600D5040601
:101C400000CF040600C9040600C3040600BD040654
:101C500000B7040600B1040500AC040600A60406A3
:101C600000A00405009B04060095040500900406EE
:101C7000008A04050085040500800406007A040536
:101C80000075040500700405006B0405006604057A
:101C900000610405005C04050057040500520405BA
:101CA000004D04050048040500430405003E0404FB
:101CB000003A04050035040500300404002C040536
:101CC0000027040400230405001E0404001A040471
:101CD0000016040500110404000D040400090405A5
:101CE000000404040000040400FC030400F80304DE
:101CF00000F4030400F0030400EC030400E8030410
:101D000000E4030400E0030400DC030400D803043F
:101D100000D4030400D0030400CC030400C8030370
:101D200000C503030070012C0190012701B00122BE
:101D300001C0011D01F00118011002130130020E53
:101D4000016002090190020401C002FF000003FAD1
:101D5000004003F5008003F000D003EB002004E610
:101D6000007004E100E004DC004005D700C005D2AB
:101D7000004006CD00D006C8008007C3003008BE72
:101D800000F008B900C009B400B00AAF00B00BAA57
:101D900000D00CA500000EA000500F9B00C01096B4
:101DA000005012910000148C00C0158700B01782FB
:101DB00000B0197D00D01B7800001E730040206E1B
:101DC0000090226900F024640040275F0090295AA7
:101DD00000E02B5500102E500020304B00103246F2
:101DE00000E033410090353C001037370070383246
:101DF00000A0392D00B03A2800A03B2300603C1E13
:101E000000103D1900903D1400103E0F00703E0A76
:101E100000C03E0500003F0000403FFBFF803FF652
:101E2000FFC03FF1FF5A5F6D6F76655F636F6D7046
:101E30000A003F28532920616E6420285729206D0D
:101E40006179206E6F7420626520636F6D62696EC8
:101E500065642E0A00473334004732384F0A4D3448
:101E60003820503130004D38340047323950345228
:101E70003939395400473239503454004732380A1E
:101E800047323643504930004732380A47323643EA
:101E9000504931004732394A3000473239503354C3
:101EA00030004732395032425430004732380A4D00
:101EB00031393049300A4D31303949300A473239E9
:101EC00050310A4D31303453300A4D3134305330B3
:101ED000004732380A4D31393049310A4D313039F5
:101EE00049310A47323950310A4D31303453300AC2
:101EF0004D3134305330004732394E503100473283
:101F000039503143004732394900473239543000A3
:101F1000473239543100473239532D310047323975
:101F2000493939390A473239503242543000473240
:101F3000394E50310047323950335430004732392E
:101F400050345239393954004732395034523939C2
:101F50003954004732394400473239410047323959
:101F60005700417869732000206D696E3A00206D3A
:101F700061783A00416363656C65726174696F6E84
:101F8000206C696D697465642E0A00534C4F5700CC
:101F90000600000701000500070100070600000019
:101FA00007000500434F4D4D554E49434154494F9D
:101FB0004E0044525952554E004552524F52530012
:101FC000494E464F004543484F004572726F72209C
:101FD00077726974696E6720746F20454550524F5F
:101FE0004D210A0053544F505045442E200050724A
:101FF000696E7465722073746F70706564206475A7
:102000006520746F206572726F72732E2046697836
:1020100020746865206572726F7220616E6420752D
:102020007365204D39393920746F2072657374617E
:1020300072742E202854656D7065726174757265B6
:102040002069732072657365742E2053657420694E
:10205000742061667465722072657374617274694C
:102060006E67290A004E6F20436865636B73756D58
:102070002077697468206C696E65206E756D626585
:10208000722C204C617374204C696E653A20004EAE
:102090006F20436865636B73756D20776974682082
:1020A0006C696E65206E756D6265722C204C617373
:1020B00074204C696E653A2000636865636B7375C4
:1020C0006D206D69736D617463682C204C6173744D
:1020D000204C696E653A20004C696E65204E756D26
:1020E000626572206973206E6F74204C6173742076
:1020F0004C696E65204E756D6265722B312C204CDB
:10210000617374204C696E653A20004D31313000A6
:1021100053657269616C20737461747573206D69A5
:10212000736D617463680A005344207265616420B2
:102130006572726F720A002121204B494C4C20635A
:102140006175736564206279204B494C4C2062753F
:1021500074746F6E2F70696E0A002121204B494CF8
:102160004C2063617573656420627920746F6F2001
:102170006D75636820696E61637469766520746942
:102180006D65202D2063757272656E7420636F6DAE
:102190006D616E643A20004D6564696120496E731B
:1021A000657274656400627573793A207061757345
:1021B000656420666F7220696E7075740A006275BE
:1021C00073793A2070617573656420666F7220754B
:1021D0007365720A00627573793A2070726F636575
:1021E0007373696E670A00506C6561736520526590
:1021F000736574005052494E5445522048414C5426
:1022000045440025533A20255300706F7765726F5F
:102210006666004B494C4C45442E20005072696E56
:102220007465722068616C7465642E206B696C6CD7
:1022300028292063616C6C6564210A0053544F5057
:102240005045442E20005072696E7465722073747C
:102250006F707065642064756520746F206572729C
:102260006F72732E204669782074686520657272DB
:102270006F7220616E6420757365204D3939392085
:10228000746F20726573746172742E202854656DAA
:10229000706572617475726520697320726573650B
:1022A000742E2053657420697420616674657220F1
:1022B00072657374617274696E67290A0065636878
:1022C0006F3A004572726F723A00204A0020204D2A
:1022D00034323120490020204732392049393939F8
:1022E0000A006163746976650A00696E0000205314
:1022F000797374656D2076312E30312000202020D6
:102300007C0A004E414E0020202E20202000207C00
:10231000004C43443A0A004353563A0A0020666F81
:102320007220003A0A0A000A42656420546F706FF6
:10233000677261706879205265706F7274005072B4
:102340006F62696E67204661696C65640A0050724D
:102350006F62696E67204661696C656400205A3A55
:10236000200020593A200042656420583A20004756
:1023700032384C3000446F6E652E0A003F496E764D
:10238000616C69642073746F7261676520736C6F30
:10239000742E0A3F557365203020746F20003F452E
:1023A0004550524F4D2073746F72616765206E6F98
:1023B0007420617661696C61626C652E0A00446FFD
:1023C0006E652E0A003F496E76616C6964207374F5
:1023D0006F7261676520736C6F742E0A3F55736569
:1023E000203020746F20003F454550524F4D2073E0
:1023F000746F72616765206E6F7420617661696CBD
:1024000061626C652E0A00473239205032206669BD
:102410006E69736865642E0A005859206F7574736D
:10242000696465207072696E7461626C65207261A6
:10243000646975732E0A003F4572726F7220696E6F
:1024400020427573696E6573732043617264206DF9
:102450006561737572656D656E742E0A004D616EEF
:1024600075616C6C792070726F62696E6720756E31
:10247000726561636861626C6520706F696E747308
:102480002E0A00292E0A0A0050726F62696E6720B8
:1024900061726F756E642028004D65736820696EE7
:1024A00076616C6964617465642E2050726F626934
:1024B0006E67206D6573682E0A004D657368207A1B
:1024C00065726F65642E0A0044656661756C7420E0
:1024D00073746F7261676520736C6F742030207342
:1024E000656C65637465642E0A004C6F6164696E87
:1024F0006720746573745F7061747465726E2076A2
:10250000616C7565732E0A0A00496E76616C6964A8
:1025100020746573745F7061747465726E20766187
:102520006C75652E20282D3120746F2032290A0AFF
:102530000020696E76616C6964617465642E0A0AB4
:10254000004C6F636174696F6E7300456E746972DD
:1025500065204D657368005374616E646172642018
:10256000446576696174696F6E3A20004D65616EED
:10257000204D657368204865696768743A200023B8
:10258000206F662073616D706C65733A20000A4D90
:10259000657368206F6E6C79207061727469616C0C
:1025A0006C7920706F70756C617465642E0A0A0016
:1025B00050726F62696E6720506F696E74002553A8
:1025C0002025692F2569002E0A002F0050726F62A6
:1025D000696E67206D65736820706F696E74200086
:1025E00020616E642074616B652061206D6561738C
:1025F0007572656D656E742E0A006D6D2074686964
:10260000636B2E0A00427573696E657373204361B4
:102610007264206973200052656D6F7665202620F4
:102620004D656173757265204265640052656D6F1A
:102630007665207368696D00506C6163652073680E
:10264000696D20756E646572206E6F7A7A6C6500B4
:102650000A4D657368206F6E6C79207061727469C1
:10266000616C6C7920706F70756C617465642E0A92
:10267000004D65736820506F696E74204D656173FD
:10268000757265642061743A20004D6561737572DE
:102690006500506C616365205368696D2026204D8C
:1026A000656173757265004D6F76696E6720746F32
:1026B000206E657874004D6573682045646974699F
:1026C0006E672053746F7070656400446F6E652090
:1026D00045646974696E67204D6573680A00446FCC
:1026E0006E652045646974696E67204D6573680086
:1026F00046696E652054756E696E67204D65736816
:102700000028582C5929206F7574736964652070EE
:1027100072696E7461626C65207261646975732E92
:102720000A004F6666736574206F7574206F6620AB
:10273000626F756E64732E20283020746F203130E4
:102740006D6D290A0A00496E76616C6964206D61BD
:102750007020747970652E0A0A003F28462961644A
:10276000652068656967687420666F7220426564D9
:10277000204C6576656C20436F7272656374696F77
:102780006E206E6F7420706C61757369626C652E5B
:102790000A0A003F43616E277420616374697661A1
:1027A000746520616E642064656163746976617428
:1027B00065206174207468652073616D652074699B
:1027C0006D652E0A0A00426F746820582026205931
:1027D000206C6F636174696F6E73206D7573742004
:1027E0006265207370656369666965642E0A0A0014
:1027F0003F496E76616C6964206772696420736911
:102800007A6520284A292073706563696669656462
:102810002028322D39292E0A0A003F2850296861C4
:1028200073652076616C756520696E76616C69648C
:102830002028302D36292E0A0A003F285629657295
:10284000626F7365206C6576656C20696D706C6174
:10285000757369626C652028302D34292E0A0A00B0
:102860003F285229657065746974696F6E20636FC3
:10287000756E7420696E76616C69642028312B292D
:102880002E0A0A00446F696E6720473239009F1F85
:102890009A1F951F901F5D0A0062656420706C612D
:1028A0006E65206E6F726D616C203D205B00436F22
:1028B000756C64206E6F7420636F6D706C657465E9
:1028C000204C53462100436F727265637465645FE8
:1028D0005A3D0025532025692F2569000A0A002F3B
:1028E0000054696C74696E67206D65736820706F41
:1028F000696E7420003F4572726F722070726F6251
:10290000696E6720706F696E742E2041626F7274F9
:10291000696E67206F7065726174696F6E2E0A0050
:10292000436F727265637465645F5A3D002553207E
:10293000332F330054696C74696E67206D6573685A
:102940002028332F33290A00436F72726563746540
:10295000645F5A3D00255320322F330054696C7454
:10296000696E67206D6573682028322F33290A004D
:10297000436F727265637465645F5A3D0054696C9D
:1029800074696E6720506F696E7400255320312F73
:10299000330054696C74696E67206D657368202814
:1029A000312F33290A00646F6E650A00496E737512
:1029B0006666696369656E7420646174610A00000B
:1029C000002041000066420000D24200801843000F
:1029D000004843008077430080934300002041007B
:1029E0000066420000D242008018430000484300C5
:1029F000807743008093434578747261706F6C6197
:102A000074696E67206D6573682E2E2E002121205B
:102A100053544F502063616C6C6564206265636140
:102A2000757365206F6620424C546F75636820652E
:102A300072726F72202D20726573746172742077C8
:102A4000697468204D3939390A0021212053544FC7
:102A5000502063616C6C65642062656361757365A9
:102A6000206F6620424C546F756368206572726FE8
:102A700072202D2072657374617274207769746896
:102A8000204D3939390A002F2F616374696F6E3A0E
:102A900000656E640053656E64204D3130382074DB
:102AA0006F20726573756D650A00496E7365727487
:102AB0002066696C616D656E7420616E642073655B
:102AC0006E64204D3130380A0052656865617420AB
:102AD000446F6E6500526568656174696E672E2E7D
:102AE0002E005265686561740048656174657220E6
:102AF00054696D656F75740053656E64204D313097
:102B00003820746F2068656174206E6F7A7A6C6506
:102B10000A004E6F7A7A6C65205061726B656400B2
:102B200070617573656400506175736500726573DB
:102B3000756D656400526573756D696E6700473227
:102B4000362043616E63656C656400473236204809
:102B5000656174696E67204E6F7A7A6C65004732E2
:102B6000362048656174696E67204265640057616C
:102B70006974696E6720666F72206865617475702C
:102B80002E0A004669786564204C656E677468207B
:102B90005072696D6500446F6E65205072696D6991
:102BA0006E67004D616E75616C207072696D696E43
:102BB000672E2E2E004C656176696E67204732368F
:102BC000003F53706563696669656420582C59201D
:102BD000636F6F7264696E617465206F7574206FC6
:102BE0006620626F756E64732E0A003F2852296555
:102BF000706561742076616C7565206E6F742070ED
:102C00006C61757369626C653B206D7573742062CD
:102C100065206174206C6561737420312E0A003F59
:102C2000537065636966696564206E6F7A7A6C6556
:102C30002074656D7065726174757265206E6F7455
:102C400020706C61757369626C652E0A003F537069
:102C5000656369666965642066696C616D656E743B
:102C60002073697A65206E6F7420706C617573696A
:102C7000626C652E0A003F5370656369666965641E
:102C8000207072696D65206C656E677468206E6F68
:102C90007420706C61757369626C652E0A003F5315
:102CA0007065636966696564206E6F7A7A6C652009
:102CB00073697A65206E6F7420706C6175736962D8
:102CC0006C652E0A003F52657472616374696F6EA1
:102CD000204D756C7469706C696572206D757374C4
:102CE000206265207370656369666965642E0A00F9
:102CF0003F537065636966696564205265747261EB
:102D00006374696F6E204D756C7469706C6965725F
:102D1000206E6F7420706C61757369626C652E0A29
:102D2000003F537065636966696564206C6179650D
:102D30007220686569676874206E6F7420706C61BA
:102D4000757369626C652E0A0043292E0A003F5391
:102D50007065636966696564206265642074656D89
:102D60007065726174757265206E6F7420706C612D
:102D7000757369626C65202834302D004732362027
:102D80007374617274696E672E2E2E0A004F464668
:102D90000A004661646520486569676874200042DE
:102DA0006564204C6576656C696E672000466169D4
:102DB0006C656420746F20656E61626C652042658D
:102DC00064204C6576656C696E670A00496E7661B1
:102DD0006C6964206D6573682E0A0076616C6964A5
:102DE0000A53746F7261676520736C6F743A2000C8
:102DF000696E004D65736820697320003F557365E7
:102E0000203020746F20003F496E76616C69642029
:102E100073746F7261676520736C6F742E0A003F64
:102E2000454550524F4D2073746F72616765206E37
:102E30006F7420617661696C61626C652E0A004175
:102E40006363757261637920446563726561736958
:102E50006E67210044656372656173696E67204126
:102E60006363757261637920446574656374656436
:102E70002E0A004732385A004163637572616379E4
:102E80003A2000206F6620004469642000473334F4
:102E90002061626F727465642E0A0041636375720B
:102EA0006163792041636869657665640054617285
:102EB000676574206163637572616379206163681B
:102EC00069657665642E0A004469666673205A3126
:102ED0002D5A323D2573000A444946464552454E17
:102EE0004345205A312D5A323D0050726F62696E4F
:102EF00067204661696C65640050726F62696E6735
:102F0000206661696C65640A004733342049746542
:102F1000726174696F6E3A202569000A4733342064
:102F2000497465726174696F6E3A20003F284129C7
:102F30006D706C696669636174696F6E206F75741A
:102F4000206F6620626F756E64732028302E352DD9
:102F5000322E30292E0A003F285429617267657489
:102F6000206163637572616379206F7574206F6689
:102F700020626F756E64732028302E30312D312E13
:102F800030292E0A003F2849297465726174696FDF
:102F90006E206F7574206F6620626F756E6473208B
:102FA00028312D3330292E0A003F285929206F75EA
:102FB00074206F6620626F756E64732E0A003F285E
:102FC0005829206F7574206F6620626F756E647368
:102FD0002E0A003F2853292050726F62652D706FB2
:102FE000736974696F6E20696E64657820696E76A6
:102FF000616C69642E0A003F28532920697320728E
:10300000657175697265642E0A004D343232205341
:1030100000446576696174696F6E0025533A202516
:10302000730046696E6973686564210A003A207A04
:103030003A2000206F662000476F696E6720746F2A
:103040003A20580043570A00206469723A00206110
:103050006E676C653A0053746172742072616469C2
:1030600075733A004D343820506F696E74002553E3
:103070003A2025642F256400506F736974696F6E60
:10308000696E67207468652070726F62652E2E2EDF
:103090000A003F4C656773206F66206D6F76656D23
:1030A000656E7420696D706C61757369626C652002
:1030B00028302D3135292E0A003F2028582C592937
:1030C000206F7574206F6620626F756E64732E0AB0
:1030D0000050726F6265206F7574206F6620626F9A
:1030E000756E6473003F53616D706C652073697A0F
:1030F00065206E6F7420706C61757369626C6520F9
:1031000028342D3530292E0A004D3438205A2D50C0
:10311000726F6265205265706561746162696C6985
:10312000747920546573740A003F285629657262C9
:103130006F7365206C6576656C20696D706C617568
:103140007369626C652028302D34292E0A0053746F
:10315000616E6461726420446576696174696F6E42
:103160003A20002052616E67653A2000204D617858
:103170003A2000204D696E3A2000205369676D6146
:103180003A20004D65616E3A20005741524E494E3B
:103190004721204C6F77205A204A65726B206D6161
:1031A00079206C65616420746F20756E77616E7430
:1031B0006564207061757365732E0A004F46460082
:1031C0004F4E0020204D61783A2000200020204DF5
:1031D000696E3A2000536F667420656E6473746F75
:1031E00070733A200020496E76616C6964206578BE
:1031F000747275646572200047322F473320626114
:103200006420706172616D65746572730A00536C3D
:103210006565702E2E2E005A2050726F6265205008
:10322000617374204265640A005A2050726F6265AF
:1032300020506173742042656400205A3A200020B7
:10324000593A200042656420583A20004D65736861
:1032500020706F696E74206F7574206F66207261C4
:103260006E67650A004D302053746F70004D312039
:1032700053746F7000436C69636B20746F205265E8
:1032800073756D652E2E2E004E6F204D6F76652E58
:1032900000456E642066696C65206C6973740A0071
:1032A000426567696E2066696C65206C6973740A93
:1032B000004E6F206D656469610A00526573756D1B
:1032C000696E6720534400286E6F2066696C65291B
:1032D0000043757272656E742066696C653A2000F1
:1032E0002E0A0044656C6574696F6E206661696CB6
:1032F00065642C2046696C653A200046696C65203F
:1033000064656C657465643A002569730025696DB0
:1033100020256973002569682025696D202569735A
:1033200000256964202569682025696D2025697359
:103330000025697920256964202569682025696D43
:1033400020256973005072696E742074696D653A46
:1033500020006F6B006F666600C51FC01FB91FB2EB
:103360001FA41F44454255473A004D313133205385
:1033700000417274696C6C65727920536964657779
:10338000696E646572205831204F46462E002F2FFB
:10339000004D31343520533C696E6465783E206FB2
:1033A0007574206F662072616E67652028302D313C
:1033B000290A00205200416363656C65726174697B
:1033C0006F6E3A2050004D32303620580046523A47
:1033D0000020466C6F773A20003A20002053657237
:1033E000766F2000206F7574206F662072616E67A3
:1033F000650A00536572766F200050726F62652017
:103400004F6666736574205A0050726F6265204F74
:103410006666736574205A0020643A0020693A0099
:1034200020703A00496E76616C6964206578747228
:10343000756465720A0020643A0020693A002070C1
:103440003A004D65736820706F696E74206F7574F3
:10345000206F662072616E67650A004D343231203C
:10346000696E636F727265637420706172616D65FD
:103470007465722075736167650A004F66667365CF
:103480007473204170706C696564004572723A20F3
:10349000546F6F206661722100546F6F20666172F5
:1034A0002066726F6D207265666572656E63652059
:1034B000706F696E740A00454550524F4D204F4B56
:1034C0000A002E0A002028302D3130290020766194
:1034D0006C7565206F7574206F662072616E67650C
:1034E00000416476616E6365204B3D004469666609
:1034F0003A2020200046726F6D5374703A00537466
:1035000065707065723A00556E4C6576656C3A0070
:103510004C6576656C65643A005261773A202020EC
:1035200020000A4C6F676963616C3A00436F756EE7
:103530007420453A004361703A007D002C7A3A00CD
:103540002C793A007D2C6D61783A7B783A002C7AA0
:103550003A002C793A007D7D2C776F726B3A7B6D47
:10356000696E3A7B783A002C7A3A002C793A007DE1
:103570002C6D61783A7B783A002C7A3A002C793AB3
:1035800000617265613A7B66756C6C3A7B6D696E41
:103590003A7B783A004D4541545041434B00434FEC
:1035A0004F4C45525F54454D50455241545552453C
:1035B000004348414D4245525F54454D50455241AC
:1035C0005455524500424142595354455050494E7A
:1035D000470041524353004D4F54494F4E5F4D4FAA
:1035E00044455300544845524D414C5F50524F544E
:1035F000454354494F4E004C4F4E475F46494C455A
:103600004E414D45004155544F5245504F52545F25
:1036100053445F5354415455530053445F575249E8
:10362000544500524550454154005344434152448F
:103630000050524F4D50545F535550504F5254000C
:10364000484F53545F414354494F4E5F434F4D4D94
:10365000414E445300454D455247454E43595F50F6
:10366000415253455200434153455F4C49474854EA
:103670005F4252494748544E45535300544F4747C1
:103680004C455F4C494748545300534F46545741AB
:1036900052455F504F574552004255494C445F5088
:1036A000455243454E54004C4556454C494E475FA4
:1036B00044415441005A5F50524F42450052554ECA
:1036C0004F5554004155544F4C4556454C005052AF
:1036D000494E545F4A4F420050524F475245535350
:1036E000004155544F5245504F52545F54454D5030
:1036F000004155544F5245504F52545F504F530064
:10370000564F4C554D455452494300454550524F34
:103710004D0042494E4152595F46494C455F545213
:10372000414E534645520053455249414C5F584F14
:103730004E5F584F4646004649524D574152455FED
:103740004E414D453A4D61726C696E20322E302EDD
:10375000382E32202D20444947412D54656368207E
:1037600041535758312076312E3020284D61792031
:10377000333120323032312031373A33373A30303A
:103780002920534F555243455F434F44455F55529F
:103790004C3A6769746875622E636F6D2F4D617264
:1037A0006C696E4669726D776172652F4D61726CDE
:1037B000696E2050524F544F434F4C5F5645525301
:1037C000494F4E3A312E30204D414348494E455FD6
:1037D000545950453A417274696C6C657279205342
:1037E00069646577696E6465722058312045585464
:1037F00052554445525F434F554E543A312055552A
:1038000049443A63656465326132662D3431613210
:103810002D343734382D396231322D6335356336E6
:10382000326633363766660A00290A0020746F2034
:10383000003F5A206F7574206F662072616E676555
:10384000202800290A0020746F20003F59206F753E
:1038500074206F662072616E676520282D00290A2A
:103860000020746F20003F58206F7574206F662011
:1038700072616E676520282D0050726F6265204F5F
:1038800066667365742058004D3834005072696E56
:103890007420446F6E6500446F6E65207072696EAF
:1038A00074696E672066696C650A004D3737004D94
:1038B00033310043616E6E6F74206F70656E2073DC
:1038C00075626469722000436F6F6C696E672E2E9B
:1038D0002E0048656174696E672E2E2E00452025E6
:1038E000530042656420436F6F6C696E672E2E2E05
:1038F000004265642048656174696E672E2E2E0053
:1039000023646566696E652044454641554C545FA5
:1039100000626564004B6420004B6920004B7020FE
:1039200000504944204175746F74756E6520666956
:103930006E69736865642120507574207468652011
:103940006C617374204B702C204B6920616E642075
:103950004B6420636F6E7374616E74732066726F54
:103960006D2062656C6F7720696E746F20436F6E97
:1039700066696775726174696F6E2E680A005049D6
:1039800044204175746F74756E65206661696C655D
:1039900064212074696D656F75740A005049442074
:1039A0004175746F74756E65206661696C6564211C
:1039B0002054656D706572617475726520746F6FE7
:1039C00020686967680A00204B643A2000204B6930
:1039D0003A2000204B703A200020436C61737369D9
:1039E0006320504944200A00204E6F206F76657294
:1039F00073686F6F740A002054753A2000204B756D
:103A00003A2000206D61783A2000206D696E3A20DE
:103A10000020643A200020626961733A2000504916
:103A200044204175746F74756E652073746172748F
:103A30000A00504944204175746F74756E652066A4
:103A400061696C6564212054656D7065726174757F
:103A5000726520746F6F20686967680A0050494476
:103A6000204175746F74756E65005049442041752E
:103A7000746F74756E65206661696C65642120429F
:103A80006164206865617465722069640A0045722A
:103A9000723A207574663820666F6E74206E6F748B
:103AA00020696E697469616C697A65642E0045727B
:103AB000723A207574663820666F6E74206E6F746B
:103AC00020696E697469616C697A65642E0045725B
:103AD000723A207574663820666F6E74206E6F744B
:103AE00020696E697469616C697A65642E0042654B
:103AF0006400456E636C6F73757265002568753A76
:103B000025303268750025303268753A25303268C4
:103B10007500256875642025303268753A25303285
:103B20006875002020202020202000202020200058
:103B30001FE0201020102010102010202010201036
:103B400030300840048003001FE03FF03FF03FF0BA
:103B50001FE01FE03FF03FF03FF00FC00780030081
:103B60003FFFF038007030FC3020FC10207810202F
:103B700030102C00D02E31D02F7BD02F7BD02E3187
:103B8000D02C00D020301020781020FC1030FC30D9
:103B90003800703FFFF03FFFF0380070318630236F
:103BA00087102787902F87D02F03D02030102078C0
:103BB000102078102030102F03D02F87D027879027
:103BC0002387103186303800703FFFF01FFFF81F49
:103BD000FFF80410400208200208200410400820CA
:103BE00080104100104100082080041040000000B7
:103BF0001FFFF81FFFF8000C0F00FE07022503BB94
:103C0000017FFE08FE08FE05080806000040F0C817
:103C10008888987810050808060000C0F888888809
:103C20008888F80505050600012030F830200508D1
:103C3000080600002070F820202020E00509090671
:103C400000FF2070A8A8B888887020070505070025
:103C500001D86C366CD80509090600FFF8A88888D9
:103C6000888888A8F8050A0A0600FE20505050509F
:103C700088A8A8887003030306000340A040FFFF44
:103C8000FFFFFFFFFFFFFFFFFFFFFFFFFFFFFFFF44
:103C9000FFFFFFFF0000000605FF01070706020007
:103CA00080808080800080030303060105A0A0A01F
:103CB00005060606000050F85050F85005090906A0
:103CC00000FF2070A8A07028A87020050707060034
:103CD00000C8C8102040989805070706000040A0BB
:103CE000A040A890680103030602058080800309B4
:103CF000090601FF204040808080404020030909E0
:103D00000601FF8040402020204040800507070634
:103D1000000020A8702070A82005050506000120DD
:103D200020F820200203030601FFC04080050101A6
:103D3000060003F8020202060100C0C005070706DC
:103D400000000810102040408005070706000070A2
:103D50008898A8C8887003070706010040C0404043
:103D60004040E0050707060000708808102040F872
:103D7000050707060000F8081030088870050707D7
:103D800006000010305090F81010050707060000DC
:103D9000F880F008088870050707060000304080AA
:103DA000F0888870050707060000F808101020202A
:103DB000200507070600007088887088887005074E
:103DC0000706000070888878081060020505060163
:103DD00000C0C000C0C00206060601FFC0C000C08F
:103DE00040800305050601012040804020050303B3
:103DF000060002F800F80305050601018040204096
:103E000080050707060000708810202000200507A5
:103E1000070600007088B8A8B8807005070706007C
:103E200000708888F8888888050707060000F04831
:103E300048704848F00507070600007088808080B9
:103E40008870050707060000F04848484848F00514
:103E50000707060000F88080F08080F80507070655
:103E60000000F88080F08080800507070600007061
:103E7000888080988870050707060000888888F881
:103E8000888888030707060100E04040404040E082
:103E9000050707060000381010101090600507078E
:103EA0000600008890A0C0A09088050707060000C3
:103EB000808080808080F805070706000088D8A8E9
:103EC000888888880507070600008888C8A8988819
:103ED00088050707060000708888888888700507AD
:103EE00007060000F08888F080808005070706003C
:103EF0000070888888A89068050707060000F08889
:103F000088F0A09088050707060000708880700878
:103F10008870050707060000F820202020202005D3
:103F200007070600008888888888887005070706C4
:103F30000000888888885050200507070600008800
:103F4000888888A8A85005070706000088885020A0
:103F50005088880507070600008888502020202008
:103F6000050707060000F80810204080F80309093B
:103F70000601FFE080808080808080E005070706E2
:103F80000000804040201010080309090601FFE0EE
:103F900020202020202020E00503030600052050DB
:103FA000880501010600FEF80303030601058040B1
:103FB00020050505060000700878887805070706C3
:103FC00000008080F0888888F005050506000070F4
:103FD00080808870050707060000080878888888B0
:103FE000780505050600007088F080700507070653
:103FF0000000304840E04040400507070600FE70E2
:104000008888887808700507070600008080F08897
:104010008888880307070601004000C0404040E050
:104020000409090601FE1000301010101090600500
:10403000070706000080808890E090880307070645
:104040000100C04040404040E0050505060000D0AA
:10405000A8A8A8A8050505060000B0C88888880596
:10406000050506000070888888700507070600FEB1
:10407000F0888888F080800507070600FE78888829
:1040800088780808050505060000B0C8808080050E
:10409000050506000078807008F005070706000097
:1040A0002020F820202018050505060000888888B3
:1040B00098680505050600008888885020050505D4
:1040C0000600008888A8A85005050506000088504D
:1040D0002050880507070600FE8888885020408009
:1040E000050505060000F8102040F803090906013F
:1040F000FF2040404080404040200109090602FF67
:104100008080808080808080800309090601FF8094
:10411000404040204040408005030306000248A87C
:1041200090FF554E4C4F41442046494C414D454E21
:1041300054004C4F41442046494C414D454E54009B
:1041400046494C414D454E54204348414E47450059
:1041500041425300504C4100417274696C6C65726D
:1041600079205369646577696E64657220583120DF
:1041700052656164792E005072696E74696E672EA3
:104180002E2E006E6F74696669636174696F6E20AC
:104190000063616E63656C005072696E74204162E9
:1041A0006F72746564004469736D69737300554977
:1041B0002041626F72746564004D323520500A4DA3
:1041C0003234005072696E742050617573656400FA
:1041D000526573756D6500554920506175736500B2
:1041E00050617573696E672E2E2E00726573756D42
:1041F00065004D323400454550524F4D2056657292
:1042000073696F6E204572726F7200454550524F50
:104210004D20496E646578204572726F7200454585
:1042200050524F4D20435243204572726F72003FEF
:104230000049676E6F726500526573657400496E60
:10424000697469616C697A6520454550524F4D002B
:1042500050726F6265205A204F6666736574004C19
:104260006F6164206D6D00556E6C6F6164206D6DC3
:104270000046696C2E204469612E004520696E203D
:104280006D6D5E3300416476616E6365204B002086
:10429000082046616374002008204D6178002008E2
:1042A000204D696E004F6666004F6E004175746F59
:1042B00074656D70005654726176204D696E0056BB
:1042C0006D696E00566D6178204500566D617820ED
:1042D0005A00566D6178205900566D61782058005B
:1042E000416D6178204500416D6178205A00416D33
:1042F0006178205900416D6178205800412D547239
:104300006176656C00412D52657472616374004181
:104310006363656C0056652D4A65726B00565A2DB5
:104320004A65726B0056592D4A65726B0056582DBE
:104330004A65726B0050726F6265205A204F666644
:104340007365740050726F62652059204F66667302
:1043500065740050726F62652058204F6666736501
:104360007400452073746570732F6D6D005A20536F
:10437000746570732F6D6D00592053746570732FC1
:104380006D6D00582053746570732F6D6D0041641E
:1043900076616E6365642053657474696E6773003B
:1043A0003F0043616E63656C00496E6974004D3473
:1043B000323800496E697469616C697A65204545D7
:1043C00050524F4D0046696C616D656E74005465C6
:1043D0006D70657261747572650053746570732FCA
:1043E0006D6D0050726F6265204F66667365747301
:1043F000004A65726B00416363656C657261746944
:104400006F6E0056656C6F63697479005365742034
:10441000486F6D65204F66667365747300436F6EF9
:1044200066696775726174696F6E0053746F7700A7
:104430004465706C6F790053572D4D6F6465005360
:10444000656C662D54657374005265736574004223
:104450006564004E6F7A7A6C650046616E20537019
:1044600065656400436F6E66696775726174696F34
:104470006E00526573746F72652044656661756C79
:104480007473004C6F61642053657474696E677354
:104490000053746F72652053657474696E6773009E
:1044A00050726568656174202420436F6E66004217
:1044B0004C546F7563680050726F6265205A204FCC
:1044C000666673657400416476616E63656420534B
:1044D000657474696E6773004D61696E00556E6C2A
:1044E0006F61642046696C616D656E74004D373094
:1044F00032004C6F61642046696C616D656E7400BA
:104500004D373031004368616E67652046696C61E4
:104510006D656E74004D363030204230004D61695B
:104520006E00436F6E74696E7565005075726765D5
:10453000206D6F726500524553554D45204F5054C4
:10454000494F4E533A005052494E54205041555312
:1045500045440020204E6F7A7A6C653A2000506105
:10456000726B696E672E2E2E0000005761697420F1
:10457000666F720066696C616D656E742063686158
:104580006E676500746F207374617274005761699F
:104590007420666F720066696C616D656E7420755B
:1045A0006E6C6F616400004E6F7A7A6C652068658E
:1045B0006174696E6700506C65617365207761692D
:1045C000742E2E2E00005072657373206275747401
:1045D0006F6E00746F2068656174206E6F7A7A6CFC
:1045E000650000496E736572742066696C616D6563
:1045F0006E7400616E6420707265737320627574EE
:10460000746F6E00746F20636F6E74696E756500F1
:104610005761697420666F720066696C616D656EC2
:1046200074206C6F61640000507265737320427572
:1046300074746F6E00746F20726573756D65207091
:1046400072696E7400005761697420666F72207021
:1046500072696E7400746F20726573756D652E2EAD
:104660002E00005761697420666F720066696C6184
:104670006D656E7420707572676500003F00426161
:10468000636B0053746F7000417474616368204DF4
:1046900065646961004D3231005072696E74206644
:1046A000726F6D204D656469610052656C65617360
:1046B00065204D65646961004D323200436F6E665E
:1046C000696775726174696F6E0054656D706572AB
:1046D0006174757265004D6F74696F6E0052657319
:1046E000756D65205072696E74004368616E676510
:1046F0002046696C616D656E740054756E6500537B
:10470000746F70205072696E74005061757365200B
:104710005072696E7400496E666F205363726565EE
:104720006E003F005374617274205072696E7400A1
:1047300043616E63656C005072696E740043616E14
:104740006E6F7420656E7465722073756264697231
:104750003A2000022E2E00015265667265736800D1
:104760004D61696E004D6F74696F6E0044697361CD
:10477000626C65205374657070657273004D3834D7
:10478000004D34382050726F626520546573740098
:104790004732384F0A4D34382050313000556E6959
:1047A0006669656420426564204C6576656C696E57
:1047B00067004175746F205A2D416C69676E004720
:1047C0003334004175746F20486F6D65004D616929
:1047D0006E0050726568656174202420456E640027
:1047E00050726568656174202420426564005465D8
:1047F0006D706572617475726500436F6F6C646F84
:10480000776E005072656865617420240046616EA1
:1048100020537065656400426564004E6F7A7A6C5F
:1048200065004D61696E0050726F6265205A204FBD
:10483000666673657400416476616E6365204B0043
:10484000466C6F770046616E205370656564004268
:104850006564004E6F7A7A6C65005370656564001C
:104860004D61696E005A2056616C7565004732389B
:104870000A4D313930205325690A4D3130392053E2
:1048800025690A4732392050310042656420546559
:104890006D7000486F74656E642054656D70002EF5
:1048A0002569004732395036432D004865696768ED
:1048B0007420416D6F756E740041646A7573742065
:1048C0004D657368204865696768740046696E6560
:1048D0002054756E6520436C6F73657374004732A6
:1048E000395034540046696E652054756E65204118
:1048F0006C6C0047323950345239393954004732E0
:10490000380A4732364350482569422569005661C6
:104910006C696461746520437573746F6D204D65B7
:104920007368004732380A473236435049310056DF
:10493000616C6964617465204D6573682028242961
:10494000004732380A47323643504930004732393F
:104950004A2569004C6576656C204D657368005387
:1049600069646520506F696E7473004772696420D2
:104970004D657368204C6576656C696E6700332DF4
:10498000506F696E74204C6576656C696E67004780
:1049900032394A3000473239503352432E256900AC
:1049A0004D616E75616C2046696C6C2D696E0047B7
:1049B0003239503242543000536D6172742046696E
:1049C0006C6C2D696E0047323950335430004669A3
:1049D0006C6C2D696E20416D6F756E74004D657342
:1049E0006820696E76616C6964617465642E0A0082
:1049F00054415041496E666F2053637265656E0085
:104A0000496E76616C696461746520436C6F73658F
:104A10007374004732394900496E76616C6964618C
:104A2000746520416C6C00436F6E74696E7565200F
:104A3000426564204D657368004732395031430048
:104A400046696C6C2D696E204D657368004275690E
:104A50006C6420436F6C64204D6573680047323985
:104A60004E5031004275696C6420437573746F6DEC
:104A7000204D657368004732380A4D31393049316D
:104A80000A4D31303949310A47323950310A4D31F6
:104A9000303453300A4D3134305330004275696C34
:104AA00064204D65736820282429004732380A4D58
:104AB00031393049300A4D31303949300A473239BD
:104AC00050310A4D31303453300A4D313430533087
:104AD00000473239256325690A4D31313720004DB1
:104AE000657368202569204C6F61646564004D65BD
:104AF000736820256920536176656400536176658B
:104B000020426564204D657368004C6F61642042EB
:104B10006564204D657368004D656D6F7279205333
:104B20006C6F74004E6F2053746F7261676500473D
:104B30003239503458257359257352256900202D78
:104B40002D2D2D2D005A3A00593A00486F6D696E8F
:104B5000672058595A00473238004F666620507215
:104B6000696E746572204261636B757000473239FB
:104B7000532D31004F757470757420666F72204329
:104B80005356004732395431004F75747075742094
:104B9000666F7220486F7374004732395430004D8D
:104BA000657368204C6576656C696E67004564695D
:104BB00074204D6573680056616C6964617465208A
:104BC0004D657368004D616E75616C6C792042753E
:104BD000696C64204D657368004732394939393949
:104BE0000A4732395032425430004275696C6420B1
:104BF0004D65736800372E205361766520426564E9
:104C0000204D65736800362E2046696E6520547508
:104C10006E6520416C6C0047323950345239393955
:104C20005400352E2056616C6964617465204D65B1
:104C3000736800342E2046696E652054756E6520B9
:104C4000416C6C0047323950345239393954003391
:104C50002E2056616C6964617465204D657368002F
:104C6000322E20536D6172742046696C6C2D696E12
:104C7000004732395033543000312E204275696C70
:104C80006420436F6C64204D657368004732394E71
:104C9000503100556E696669656420426564204C38
:104CA0006576656C696E6700466164652048656974
:104CB000676874004F75747075742055424C2049B4
:104CC0006E666F00473239570055424C20546F6F63
:104CD0006C73004F7574707574204D657368204D4A
:104CE0006170004D6573682053746F726167650071
:104CF0004D657368204564697400537465702D4276
:104D0000792D537465702055424C00416374697667
:104D10006174652055424C00473239410044656159
:104D2000637469766174652055424C00473239449A
:104D3000004D6F74696F6E00486F6D696E67204635
:104D400061696C6564006F70656E00545249474735
:104D500045524544003A20007A5F70726F626500E8
:104D60007A5F6D696E00795F6D696E00785F6D695D
:104D70006E005265706F7274696E6720656E647341
:104D8000746F70207374617475730A0020746F6F90
:104D9000206C6F6E6720657874727573696F6E2012
:104DA00070726576656E7465640A00486F6D652083
:104DB0002573257325732046697273740000000003
:104DC0000000000000000000005761726E696E670D
:104DD0003A20486F6D696E672042756D7020446996
:104DE0007669736F72203C20310A00020204008051
:104DF0009843008098430000C8430000A040000092
:104E0000A0400000004000809843008098430000CC
:104E1000C8430000000000000000000000005365CF
:104E20007474696E67732053746F72656400290A25
:104E3000002062797465733B2063726320005365C0
:104E40007474696E67732053746F726564202800F0
:104E50004D65736820736176656420696E20736C9C
:104E60006F7420003F556E61626C6520746F207313
:104E7000617665206D65736820646174612E0A0037
:104E800020736C6F743D00206D65736865735F659A
:104E90006E643D004532454E443D00206D657368AB
:104EA00020736C6F747320617661696C61626C65EC
:104EB0002E0A003F496E76616C696420736C6F74D2
:104EC0002E0A004D657368206C6F6164656420660E
:104ED000726F6D20736C6F7420003F556E61626C51
:104EE0006520746F206C6F6164206D657368206449
:104EF0006174612E0A0048617264636F64656420A6
:104F000044656661756C742053657474696E67736B
:104F1000204C6F616465640A00556E69666965645A
:104F200020426564204C6576656C696E67003B20A5
:104F3000003A0A0020204D36303320002055004C26
:104F40000046696C616D656E74206C6F61642F75CD
:104F50006E6C6F6164206C656E677468733A0020D4
:104F6000204D393030204B004C696E656172204114
:104F70006476616E63653A0020204D3835312058E3
:104F8000005A2D50726F6265204F6666736574001B
:104F900020440020490020204D3330342050002090
:104FA000440020490020204D33303120500050492A
:104FB000442073657474696E67733A00204600205C
:104FC000420020480020204D3134352053004D61EF
:104FD00074657269616C20686561747570207061B8
:104FE00072616D65746572733A00206D65736865F2
:104FF000732E0A0A00454550524F4D2063616E20C2
:10500000686F6C642000416374697665204D657338
:105010006820536C6F743A200020204D34323020C9
:10502000530020204D323036205800486F6D6520E7
:105030006F66667365743A00205800205300202084
:105040004D323035204200416476616E6365643ACA
:1050500020423C6D696E5F7365676D656E745F7449
:10506000696D655F75733E20533C6D696E5F666563
:105070006564726174653E20543C6D696E5F747244
:105080006176656C5F66656564726174653E205823
:105090003C6D61785F785F6A65726B3E20593C6D4C
:1050A00061785F795F6A65726B3E205A3C6D61780A
:1050B0005F7A5F6A65726B3E20453C6D61785F6523
:1050C0005F6A65726B3E0020540020520020204D24
:1050D000323034205000416363656C6572617469DD
:1050E0006F6E2028756E6974732F7332293A2050C1
:1050F0003C7072696E745F616363656C3E20523C04
:10510000726574726163745F616363656C3E2054A1
:105110003C74726176656C5F616363656C3E002010
:10512000204D3230312058004D6178696D756D2009
:10513000416363656C65726174696F6E2028756E7A
:105140006974732F7332293A0020204D3230332096
:1051500058004D6178696D756D2066656564726192
:105160007465732028756E6974732F73293A005320
:10517000746570732070657220756E69743A0020D2
:10518000440020204D3230302053002044697361A8
:10519000626C65640A0046696C616D656E742073AB
:1051A000657474696E67733A0020204D313439207C
:1051B00043203B20556E69747320696E2043656CF3
:1051C000736975730A0020286D6D2900202047320D
:1051D00031202020203B20556E69747320696E2099
:1051E0006D6D003F4D65736820746F6F2062696755
:1051F00020666F7220454550524F4D2E0A0045459E
:1052000050524F4D206461746173697A65206572F4
:10521000726F722E0A0055424C2072657365740AD3
:1052200000206C6F616465642066726F6D2073741A
:105230006F726167652E0A004D6573682000290A48
:10524000002062797465733B2063726320002073D1
:10525000746F7265642073657474696E677320720D
:105260006574726965766564202800202863616C26
:1052700063756C6174656429210A0020213D20005A
:10528000454550524F4D20435243206D69736D6127
:10529000746368202D202873746F72656429200060
:1052A0002053697A653A2000496E6465783A200097
:1052B00000004843000048430000A0410000204295
:1052C000F43DA042F43DA04296E3C7430080DE4394
:1052D000D0070000D0070000640000001027000085
:1052E000204D61726C696E3D563833290A00454580
:1052F00050524F4D2076657273696F6E206D6973E1
:105300006D617463682028454550524F4D3D00241F
:10531000F4D43050C38E20C2A24017828B70111279
:105320007A910D816CD90AA861E108C758660761B6
:105330005143061E4B5D05C145A7041A41110409DE
:105340003D9803713931034036DB0265339102D455
:10535000305402802E1D02632CEE01752AC501B067
:1053600028A001102781018F2564012B244B01E027
:10537000223401AC211F018D200D01801FFC00840F
:105380001EED00971DDF00B81CD200E61BC60020F2
:105390001BBC00641AB200B219A8000A19A0006A66
:1053A000189900D117910040178B00B51684003171
:1053B000167E00B31579003A157300C7146F0058B4
:1053C000146A00EE1366008813630025135E00C79D
:1053D000125B006C12570015125400C1115100707D
:1053E000114F0021114B00D61049008D1047004687
:1053F00010440002104200C00F4000800F3E0042E7
:105400000F3C00060F3B00CB0E3800930E37005CBC
:105410000E3500270E3400F30D3200C10D3100901F
:105420000D3000600D2E00320D2D00050D2C00D921
:105430000C2B00AE0C2900850C29005C0C270035D4
:105440000C27000E0C2600E80B2400C40B2400A03F
:105450000B23007D0B23005A0B2100390B21001870
:105460000B2000F80A1F00D90A1E00BB0A1E009D6F
:105470000A1D00800A1D00630A1C00470A1B002C3D
:105480000A1B00110A1A00F7091A00DD091900C4E5
:10549000091900AB091900920917007B091800636C
:1054A0000917004C09160036091600200916000AD3
:1054B000091500F5081500E0081400CC081400B820
:1054C000081400A4081400900813007D0812006B53
:1054D000081300580812004608120034081100236F
:1054E0000811001208110001081100F0071000E077
:1054F000071000D0071000C0071000B0070F00A170
:1055000007100091070E0083070F0074070F006556
:10551000070E0057070E0049070E003B070D002E2F
:10552000070E0020070D0013070D0006070D00F9F8
:10553000060C00ED060D00E0060C00D4060C00C8B9
:10554000060C00BC060C00B0060C00A4060B00996B
:10555000060C008D060B0082060B0077060B006C14
:10556000060B0061060A0057060B004C060A0042B3
:10557000060A0038060A002E060A0024060A001A47
:10558000060A001006090007060A00FD050900F4D6
:10559000050900EB050900E2050900D9050900D05D
:1055A000050900C7050900BE050900B5050800ADDD
:1055B000050800A50509009C050800940508008C55
:1055C000050800840508007C050800740508006CC7
:1055D000050700650508005D050700560508004E33
:1055E000050700470507004005080038050700319A
:1055F0000507002A050700230507001C05060016FD
:105600000507000F0507000805060002050700FB57
:10561000040600F5040700EE040600E8040600E2B4
:10562000040700DB040600D5040600CF040600C909
:10563000040600C3040600BD040600B7040600B15A
:10564000040500AC040600A6040600A00405009BA7
:1056500004060095040500900406008A04050085F0
:10566000040500800406007A040500750405007036
:105670000405006B04050066040500610405005C78
:1056800004050057040500520405004D04050048B8
:10569000040500430405003E0404003A04050035F7
:1056A000040500300404002C040500270404002332
:1056B0000405001E0404001A040400160405001169
:1056C0000404000D0404000904050004040400009F
:1056D000040400FC030400F8030400F4030400F0D5
:1056E000030400EC030400E8030400E4030400E006
:1056F000030400DC030400D8030400D4030400D036
:10570000030400CC030400C8030300C50303002402
:10571000F404D9201BC40C5C0E9804C4095F026514
:10572000077101F405F900FB04B30048048700C1C8
:105730000369005803550003034500BE023A008484
:1057400002310053022A002902250004022000E44D
:10575000011C00C8011900AF011700980114008452
:10576000011300710110006101100051010E00438E
:10577000010D0036010B002B010B0020010B001561
:105780000109000C01090003010800FB000800F3F7
:10579000000800EB000700E4000600DE000600D869
:1057A000000600D2000600CC000500C7000500C2BC
:1057B000000500BD000400B9000400B5000400B1FC
:1057C000000400AD000400A9000400A5000300A22D
:1057D0000003009F0004009B000300980003009555
:1057E00000020093000300900003008D0002008B74
:1057F000000300880002008600020084000300818C
:105800000002007F0002007D0002007B00020079A0
:1058100000020077000100760002007400020072AE
:10582000000100710002006F0002006D0001006CB9
:105830000002006A000100690002006700010066C2
:1058400000010065000100640002006200010061C7
:10585000000100600001005F0002005D0001005CCB
:105860000001005B0001005A0001005900010058CE
:1058700000010057000100560001005500010054CE
:1058800000010053000000530001005200010051CC
:10589000000100500001004F0001004E0000004ECA
:1058A0000001004D0001004C0001004B0000004BC6
:1058B0000001004A000100490001004800000048C2
:1058C00000010047000100460000004600010045BD
:1058D00000000045000100440001004300000043B7
:1058E00000010042000000420001004100000041B0
:1058F000000100400001003F0000003F0001003EA9
:105900000000003E0001003D0000003D0001003CA1
:105910000000003C0000003C0001003B0000003B98
:105920000001003A0000003A00010039000000398F
:105930000001003800000038000000380001003786
:10594000000000370001003600000036000000367D
:105950000001003500000035000000350001003472
:105960000000003400000034000100330000003368
:10597000000000330001003200000032000000325D
:105980000001003100000031000000310001003052
:1059900000000030000000300001002F0000002F48
:1059A0000000002F0000002F0001002E0000002E3C
:1059B0000000002E0001002D0000002D0000002D31
:1059C0000000002D0001002C0000002C0000002C25
:1059D0000000002C0001002B0000002B0000002B19
:1059E0000000002B0001002A0000002A0000002A0D
:1059F0000000002A00010029000000290000002901
:105A000000000029000000290001002800000028F3
:105A100000000028000000280000002800010027E6
:105A200000000027000000270000002700000027DA
:105A300000010026000000260000002600000026CD
:105A400000000026000100250000002500000025C0
:105A500000000025000000250000002500010024B2
:105A600000000024000000240000002400000024A6
:105A70000001002300000023000000230000002399
:105A8000000000230000002300000023000100228A
:105A9000000000220000002200000022000000227E
:105AA0000000002200010021000000210000002170
:105AB0000000002100000021000000210000002162
:105AC0000001002000000020000000200000002055
:105AD0000000002000000020000000200000002046
