:100000000C94F9300C942A310C942A310C942A3136
:100010000C942A310C942A310C942A310C942A31F4
:100020000C942A310C942A310C942A310C942A31E4
:100030000C942A310C942A310C942A310C942A31D4
:100040000C942A310D9439240C942A310C942A31C1
:100050000C942A310C942A310D94631D0D94637F06
:100060000C942A310C94E29B0C94AC9B0C942A3196
:100070000C942A310C942A310C942A310C942A3194
:100080000C9463550C942A310C942A310C942A3127
:100090000C942A310C942A310C942A310C942A3174
:1000A0000C942A310C942A310C9435550C942A3135
:1000B0000C942A310C942A310C942A310C942A3154
:1000C0000C942A310C942A310C942A310C942A3144
:1000D0000C942A310C942A310C942A310C942A3134
:1000E0000C942A31084AD73B3BCE016E84BCBFFD3D
:1000F000C12F3D6C74319ABD56833DDA3D00C77FF8
:1001000011BED9E4BB4C3E916BAAAABE0000008090
:100110003F05A84CCDB2D44EB93836A9020C50B91F
:10012000918688083CA6AAAA2ABE000000803F0744
:10013000634236B79BD8A71A39685618AEBAAB5582
:100140008C1D3CB7CC5763BD6DEDFD753EF6177247
:1001500031BF000000803F08000000BE9224491219
:100160003EABAAAA2ABECDCCCC4C3E00000080BE3D
:10017000ABAAAAAA3E00000000BF000000803F001A
:1001800000000000084178D3BB4387D1133D190E0E
:100190003CC3BD4282AD2B3E68EC8276BED98FE176
:1001A000A93E4C80EFFFBE01C4FF7F3F000000006E
:1001B00000000D94EB790D94DB0B0D9453130D940B
:1001C000B9110D94957A0D94BE020D94F8790D94A1
:1001D000C6130D94F47A0D94C27A0D94EE790D94B1
:1001E000067A0D94C8790D94E3790D94027A0D94F2
:1001F00041120D94147A0D9403030D94B37A0D9467
:10020000BF110D94EA7A0D94107A0D94CC7A0D9466
:10021000155D0D9442120D945A7A0D940C7A0D943A
:100220007B7A0D94830B0D94FE790D940B030D9442
:10023000E4130D94A28F0D94CD790D942A000D94A2
:10024000A97A0D94BD5D0D94B7140D94C3970D94C8
:100250001A7A0D94717A0D94F4790D9438130D94E3
:10026000F1140D94E7790D94B4150D948D7A0D94D5
:10027000D67A0D94E75C0D94C7140D94E07A0D9432
:1002800026030D9483020D94470B0D94145D0D9479
:10029000857A0D9424140D94677A0D943C140D9472
:1002A000627A0D949F7A0D941E7A0D94F50A0D943E
:1002B000650B0D94DF790D944E124E414E494E4917
:1002C0005459494E46CDCCCC3D0AD7233C17B7D123
:1002D0003877CC2B329595E6241FB14F0A000020C9
:1002E000410000C84200401C4620BCBE4CCA1B0E48
:1002F0005AAEC59D7400407A10F35A00A0724E1891
:10030000090010A5D4E80000E87648170000E40BC7
:1003100054020000CA9A3B000000E1F5050000808D
:10032000969800000040420F000000A086010000E7
:1003300000102700000000E8030000000064000037
:100340000000000A00000000000100000000002C76
:1003500076D888DC674F0823DFC1DFAE59E1B1B73B
:1003600096E5E3E453C63AE651997696E8E6C28408
:1003700026EB898C9B62ED407C6FFCEFBC9C9F4020
:10038000F2BAA56FA5F490055A2AF75C936B6CF945
:10039000676DC11BFCE0E40D47FEF520E6B500D01B
:1003A000ED902E0300943577050080841E08000030
:1003B000204E0A000000C80C333333330F986E12FE
:1003C000831141EF8D2114893BE65516CFFEE6DB04
:1003D00018D1844B381BF77C1D901DA4BBE424204E
:1003E0003284725E228100C9F124ECA1E53D27F13F
:1003F00003363726033C3D380E2E303E1224221E93
:10040000131A1C180A074309070844000170012C3D
:100410000190012701B0012201C0011D01F0011866
:10042000011002130130020E016002090190020462
:1004300001C002FF000003FA004003F5008003F052
:1004400000D003EB002004E6007004E100E004DCCF
:10045000004005D700C005D2004006CD00D006C838
:10046000008007C3003008BE00F008B900C009B41E
:1004700000B00AAF00B00BAA00D00CA500000EA07F
:1004800000500F9B00C01096005012910000148C79
:1004900000C0158700B0178200B0197D00D01B780E
:1004A00000001E730040206E0090226900F024645A
:1004B0000040275F0090295A00E02B5500102E5075
:1004C0000020304B0010324600E033410090353CB4
:1004D000001037370070383200A0392D00B03A28AC
:1004E00000A03B2300603C1E00103D1900903D140D
:1004F00000103E0F00703E0A00C03E0500003F00A5
:1005000000403FFBFF803FF6FFC03FF1FF24F404B3
:10051000D9201BC40C5C0E9804C4095F02650771E6
:1005200001F405F900FB04B30048048700C1036926
:10053000005803550003034500BE023A008402310F
:100540000053022A002902250004022000E4011CB5
:1005500000C8011900AF01170098011400840113AD
:1005600000710110006101100051010E0043010DE6
:100570000036010B002B010B0020010B00150109B7
:10058000000C01090003010800FB000800F300084B
:1005900000EB000700E4000600DE000600D80006BD
:1005A00000D2000600CC000500C7000500C200050F
:1005B00000BD000400B9000400B5000400B100044F
:1005C00000AD000400A9000400A5000300A2000380
:1005D000009F0004009B00030098000300950002A8
:1005E0000093000300900003008D0002008B0003C5
:1005F00000880002008600020084000300810002DF
:10060000007F0002007D0002007B000200790002F2
:100610000077000100760002007400020072000101
:1006200000710002006F0002006D0001006C00020A
:10063000006A000100690002006700010066000115
:100640000065000100640002006200010061000119
:1006500000600001005F0002005D0001005C00011D
:10066000005B0001005A0001005900010058000120
:100670000057000100560001005500010054000120
:10068000005300000053000100520001005100011E
:1006900000500001004F0001004E0000004E00011C
:1006A000004D0001004C0001004B0000004B000118
:1006B000004A000100490001004800000048000114
:1006C0000047000100460000004600010045000010
:1006D0000045000100440001004300000043000108
:1006E0000042000000420001004100000041000102
:1006F00000400001003F0000003F0001003E0000FC
:10070000003E0001003D0000003D0001003C0000F3
:10071000003C0000003C0001003B0000003B0001E9
:10072000003A0000003A00010039000000390001E1
:1007300000380000003800000038000100370000D9
:1007400000370001003600000036000000360001CE
:1007500000350000003500000035000100340000C5
:1007600000340000003400010033000000330000BA
:1007700000330001003200000032000000320001AE
:1007800000310000003100000031000100300000A5
:100790000030000000300001002F0000002F00009A
:1007A000002F0000002F0001002E0000002E00008E
:1007B000002E0001002D0000002D0000002D000083
:1007C000002D0001002C0000002C0000002C000077
:1007D000002C0001002B0000002B0000002B00006B
:1007E000002B0001002A0000002A0000002A00005F
:1007F000002A000100290000002900000029000053
:100800000029000000290001002800000028000045
:100810000028000000280000002800010027000038
:10082000002700000027000000270000002700012B
:100830000026000000260000002600000026000020
:100840000026000100250000002500000025000012
:100850000025000000250000002500010024000004
:1008600000240000002400000024000000240001F7
:1008700000230000002300000023000000230000EC
:1008800000230000002300000023000100220000DC
:1008900000220000002200000022000000220000D0
:1008A00000220001002100000021000000210000C2
:1008B00000210000002100000021000000210001B3
:1008C00000200000002000000020000000200000A8
:1008D0000020000000200000002000000020000197
:1008E000001F0000001F0000001F0000001F00008C
:1008F000001F0000001F0000001F0001001E00007C
:10090000001E0000001E0000001E00000024F4D4A1
:100910003050C38E20C2A24017828B7011127A9180
:100920000D816CD90AA861E108C758660761514377
:10093000061E4B5D05C145A7041A411104093D98E7
:1009400003713931034036DB0265339102D43054F0
:1009500002802E1D02632CEE01752AC501B028A06D
:1009600001102781018F2564012B244B01E02234E3
:1009700001AC211F018D200D01801FFC00841EEDA4
:1009800000971DDF00B81CD200E61BC600201BBC70
:1009900000641AB200B219A8000A19A0006A1899D6
:1009A00000D117910040178B00B516840031167ED8
:1009B00000B31579003A157300C7146F0058146A14
:1009C00000EE1366008813630025135E00C7125BF8
:1009D000006C12570015125400C111510070114FD4
:1009E0000021114B00D61049008D104700461044DD
:1009F0000002104200C00F4000800F3E00420F3C3A
:100A000000060F3B00CB0E3800930E37005C0E350E
:100A100000270E3400F30D3200C10D3100900D306F
:100A200000600D2E00320D2D00050D2C00D90C2B71
:100A300000AE0C2900850C29005C0C2700350C2722
:100A4000000E0C2600E80B2400C40B2400A00B238E
:100A5000007D0B23005A0B2100390B2100180B20BD
:100A600000F80A1F00D90A1E00BB0A1E009D0A1DBD
:100A700000800A1D00630A1C00470A1B002C0A1B89
:100A800000110A1A00F7091A00DD091900C4091932
:100A900000AB091900920917007B091800630917B8
:100AA000004C09160036091600200916000A09151F
:100AB00000F5081500E0081400CC081400B808146C
:100AC00000A4081400900813007D0812006B08139E
:100AD00000580812004608120034081100230811BB
:100AE000001208110001081100F0071000E00710C3
:100AF00000D0071000C0071000B0070F00A10710BA
:100B00000091070E0083070F0074070F0065070EA2
:100B10000057070E0049070E003B070D002E070E79
:100B20000020070D0013070D0006070D00F9060C45
:100B300000ED060D00E0060C00D4060C00C8060C03
:100B400000BC060C00B0060C00A4060B0099060CB5
:100B5000008D060B0082060B0077060B006C060B5F
:100B60000061060A0057060B004C060A0042060AFE
:100B70000038060A002E060A0024060A001A060A91
:100B8000001006090007060A00FD050900F4050922
:100B900000EB050900E2050900D9050900D00509A7
:100BA00000C7050900BE050900B5050800AD050828
:100BB00000A50509009C050800940508008C05089F
:100BC00000840508007C050800740508006C050712
:100BD00000650508005D050700560508004E05077D
:100BE00000470507004005080038050700310507E4
:100BF000002A050700230507001C05060016050747
:100C0000000F0507000805060002050700FB0406A3
:100C100000F5040700EE040600E8040600E20407FD
:100C200000DB040600D5040600CF040600C9040654
:100C300000C3040600BD040600B7040600B10405A5
:100C400000AC040600A6040600A00405009B0406F0
:100C50000095040500900406008A0405008504053B
:100C600000800406007A0405007504050070040580
:100C7000006B04050066040500610405005C0405C2
:100C80000057040500520405004D04050048040502
:100C900000430405003E0404003A04050035040541
:100CA00000300404002C040500270404002304057C
:100CB000001E0404001A04040016040500110404B4
:100CC000000D0404000904050004040400000404E9
:100CD00000FC030400F8030400F4030400F0030420
:100CE00000EC030400E8030400E4030400E0030450
:100CF00000DC030400D8030400D4030400D0030480
:100D000000CC030400C8030300C5030300726F7422
:100D10006174696F6E206D61747269783A0A00249B
:100D2000F404D9201BC40C5C0E9804C4095F02654E
:100D3000077101F405F900FB04B30048048700C102
:100D40000369005803550003034500BE023A0084BE
:100D500002310053022A002902250004022000E487
:100D6000011C00C8011900AF01170098011400848C
:100D7000011300710110006101100051010E0043C8
:100D8000010D0036010B002B010B0020010B00159B
:100D90000109000C01090003010800FB000800F331
:100DA000000800EB000700E4000600DE000600D8A3
:100DB000000600D2000600CC000500C7000500C2F6
:100DC000000500BD000400B9000400B5000400B136
:100DD000000400AD000400A9000400A5000300A267
:100DE0000003009F0004009B00030098000300958F
:100DF00000020093000300900003008D0002008BAE
:100E000000030088000200860002008400030081C5
:100E10000002007F0002007D0002007B00020079DA
:100E200000020077000100760002007400020072E8
:100E3000000100710002006F0002006D0001006CF3
:100E40000002006A000100690002006700010066FC
:100E50000001006500010064000200620001006101
:100E6000000100600001005F0002005D0001005C05
:100E70000001005B0001005A000100590001005808
:100E80000001005700010056000100550001005408
:100E90000001005300000053000100520001005106
:100EA000000100500001004F0001004E0000004E04
:100EB0000001004D0001004C0001004B0000004B00
:100EC0000001004A000100490001004800000048FC
:100ED00000010047000100460000004600010045F7
:100EE00000000045000100440001004300000043F1
:100EF00000010042000000420001004100000041EA
:100F0000000100400001003F0000003F0001003EE2
:100F10000000003E0001003D0000003D0001003CDB
:100F20000000003C0000003C0001003B0000003BD2
:100F30000001003A0000003A0001003900000039C9
:100F400000010038000000380000003800010037C0
:100F500000000037000100360000003600000036B7
:100F600000010035000000350000003500010034AC
:100F700000000034000000340001003300000033A2
:100F80000000003300010032000000320000003297
:100F9000000100310000003100000031000100308C
:100FA00000000030000000300001002F0000002F82
:100FB0000000002F0000002F0001002E0000002E76
:100FC0000000002E0001002D0000002D0000002D6B
:100FD0000000002D0001002C0000002C0000002C5F
:100FE0000000002C0001002B0000002B0000002B53
:100FF0000000002B0001002A0000002A0000002A47
:101000000000002A0001002900000029000000293A
:10101000000000290000002900010028000000282D
:101020000000002800000028000000280001002720
:101030000000002700000027000000270000002714
:101040000001002600000026000000260000002607
:1010500000000026000100250000002500000025FA
:1010600000000025000000250000002500010024EC
:1010700000000024000000240000002400000024E0
:1010800000010023000000230000002300000023D3
:1010900000000023000000230000002300010022C4
:1010A00000000022000000220000002200000022B8
:1010B00000000022000100210000002100000021AA
:1010C000000000210000002100000021000000219C
:1010D000000100200000002000000020000000208F
:1010E0000000002000000020000000200000002080
:1010F0000001001F0000001F0000001F0000001F73
:101100000000001F0000001F0000001F0001001E63
:101110000000001E0000001E0000001E0000002451
:10112000F4D43050C38E20C2A24017828B701112AB
:101130007A910D816CD90AA861E108C758660761E8
:101140005143061E4B5D05C145A7041A4111040910
:101150003D9803713931034036DB0265339102D487
:10116000305402802E1D02632CEE01752AC501B099
:1011700028A001102781018F2564012B244B01E059
:10118000223401AC211F018D200D01801FFC008441
:101190001EED00971DDF00B81CD200E61BC6002024
:1011A0001BBC00641AB200B219A8000A19A0006A98
:1011B000189900D117910040178B00B516840031A3
:1011C000167E00B31579003A157300C7146F0058E6
:1011D000146A00EE1366008813630025135E00C7CF
:1011E000125B006C12570015125400C111510070AF
:1011F000114F0021114B00D61049008D10470046B9
:1012000010440002104200C00F4000800F3E004218
:101210000F3C00060F3B00CB0E3800930E37005CEE
:101220000E3500270E3400F30D3200C10D31009051
:101230000D3000600D2E00320D2D00050D2C00D953
:101240000C2B00AE0C2900850C29005C0C27003506
:101250000C27000E0C2600E80B2400C40B2400A071
:101260000B23007D0B23005A0B2100390B210018A2
:101270000B2000F80A1F00D90A1E00BB0A1E009DA1
:101280000A1D00800A1D00630A1C00470A1B002C6F
:101290000A1B00110A1A00F7091A00DD091900C417
:1012A000091900AB091900920917007B091800639E
:1012B0000917004C09160036091600200916000A05
:1012C000091500F5081500E0081400CC081400B852
:1012D000081400A4081400900813007D0812006B85
:1012E00008130058081200460812003408110023A1
:1012F0000811001208110001081100F0071000E0A9
:10130000071000D0071000C0071000B0070F00A1A1
:1013100007100091070E0083070F0074070F006588
:10132000070E0057070E0049070E003B070D002E61
:10133000070E0020070D0013070D0006070D00F92A
:10134000060C00ED060D00E0060C00D4060C00C8EB
:10135000060C00BC060C00B0060C00A4060B00999D
:10136000060C008D060B0082060B0077060B006C46
:10137000060B0061060A0057060B004C060A0042E5
:10138000060A0038060A002E060A0024060A001A79
:10139000060A001006090007060A00FD050900F408
:1013A000050900EB050900E2050900D9050900D08F
:1013B000050900C7050900BE050900B5050800AD0F
:1013C000050800A50509009C050800940508008C87
:1013D000050800840508007C050800740508006CF9
:1013E000050700650508005D050700560508004E65
:1013F00005070047050700400508003805070031CC
:101400000507002A050700230507001C050600162E
:101410000507000F0507000805060002050700FB89
:10142000040600F5040700EE040600E8040600E2E6
:10143000040700DB040600D5040600CF040600C93B
:10144000040600C3040600BD040600B7040600B18C
:10145000040500AC040600A6040600A00405009BD9
:1014600004060095040500900406008A0405008522
:10147000040500800406007A040500750405007068
:101480000405006B04050066040500610405005CAA
:1014900004050057040500520405004D04050048EA
:1014A000040500430405003E0404003A0405003529
:1014B000040500300404002C040500270404002364
:1014C0000405001E0404001A04040016040500119B
:1014D0000404000D040400090405000404040000D1
:1014E000040400FC030400F8030400F4030400F007
:1014F000030400EC030400E8030400E4030400E038
:10150000030400DC030400D8030400D4030400D067
:10151000030400CC030400C8030300C50303002434
:10152000F404D9201BC40C5C0E9804C4095F026546
:10153000077101F405F900FB04B30048048700C1FA
:101540000369005803550003034500BE023A0084B6
:1015500002310053022A002902250004022000E47F
:10156000011C00C8011900AF011700980114008484
:10157000011300710110006101100051010E0043C0
:10158000010D0036010B002B010B0020010B001593
:101590000109000C01090003010800FB000800F329
:1015A000000800EB000700E4000600DE000600D89B
:1015B000000600D2000600CC000500C7000500C2EE
:1015C000000500BD000400B9000400B5000400B12E
:1015D000000400AD000400A9000400A5000300A25F
:1015E0000003009F0004009B000300980003009587
:1015F00000020093000300900003008D0002008BA6
:1016000000030088000200860002008400030081BD
:101610000002007F0002007D0002007B00020079D2
:1016200000020077000100760002007400020072E0
:10163000000100710002006F0002006D0001006CEB
:101640000002006A000100690002006700010066F4
:1016500000010065000100640002006200010061F9
:10166000000100600001005F0002005D0001005CFD
:101670000001005B0001005A000100590001005800
:101680000001005700010056000100550001005400
:1016900000010053000000530001005200010051FE
:1016A000000100500001004F0001004E0000004EFC
:1016B0000001004D0001004C0001004B0000004BF8
:1016C0000001004A000100490001004800000048F4
:1016D00000010047000100460000004600010045EF
:1016E00000000045000100440001004300000043E9
:1016F00000010042000000420001004100000041E2
:10170000000100400001003F0000003F0001003EDA
:101710000000003E0001003D0000003D0001003CD3
:101720000000003C0000003C0001003B0000003BCA
:101730000001003A0000003A0001003900000039C1
:1017400000010038000000380000003800010037B8
:1017500000000037000100360000003600000036AF
:1017600000010035000000350000003500010034A4
:10177000000000340000003400010033000000339A
:10178000000000330001003200000032000000328F
:101790000001003100000031000000310001003084
:1017A00000000030000000300001002F0000002F7A
:1017B0000000002F0000002F0001002E0000002E6E
:1017C0000000002E0001002D0000002D0000002D63
:1017D0000000002D0001002C0000002C0000002C57
:1017E0000000002C0001002B0000002B0000002B4B
:1017F0000000002B0001002A0000002A0000002A3F
:101800000000002A00010029000000290000002932
:101810000000002900000029000100280000002825
:101820000000002800000028000000280001002718
:10183000000000270000002700000027000000270C
:1018400000010026000000260000002600000026FF
:1018500000000026000100250000002500000025F2
:1018600000000025000000250000002500010024E4
:1018700000000024000000240000002400000024D8
:1018800000010023000000230000002300000023CB
:1018900000000023000000230000002300010022BC
:1018A00000000022000000220000002200000022B0
:1018B00000000022000100210000002100000021A2
:1018C0000000002100000021000000210000002194
:1018D0000001002000000020000000200000002087
:1018E0000000002000000020000000200000002078
:1018F0000001001F0000001F0000001F0000001F6B
:101900000000001F0000001F0000001F0001001E5B
:101910000000001E0000001E0000001E0000002449
:10192000F4D43050C38E20C2A24017828B701112A3
:101930007A910D816CD90AA861E108C758660761E0
:101940005143061E4B5D05C145A7041A4111040908
:101950003D9803713931034036DB0265339102D47F
:10196000305402802E1D02632CEE01752AC501B091
:1019700028A001102781018F2564012B244B01E051
:10198000223401AC211F018D200D01801FFC008439
:101990001EED00971DDF00B81CD200E61BC600201C
:1019A0001BBC00641AB200B219A8000A19A0006A90
:1019B000189900D117910040178B00B5168400319B
:1019C000167E00B31579003A157300C7146F0058DE
:1019D000146A00EE1366008813630025135E00C7C7
:1019E000125B006C12570015125400C111510070A7
:1019F000114F0021114B00D61049008D10470046B1
:101A000010440002104200C00F4000800F3E004210
:101A10000F3C00060F3B00CB0E3800930E37005CE6
:101A20000E3500270E3400F30D3200C10D31009049
:101A30000D3000600D2E00320D2D00050D2C00D94B
:101A40000C2B00AE0C2900850C29005C0C270035FE
:101A50000C27000E0C2600E80B2400C40B2400A069
:101A60000B23007D0B23005A0B2100390B2100189A
:101A70000B2000F80A1F00D90A1E00BB0A1E009D99
:101A80000A1D00800A1D00630A1C00470A1B002C67
:101A90000A1B00110A1A00F7091A00DD091900C40F
:101AA000091900AB091900920917007B0918006396
:101AB0000917004C09160036091600200916000AFD
:101AC000091500F5081500E0081400CC081400B84A
:101AD000081400A4081400900813007D0812006B7D
:101AE0000813005808120046081200340811002399
:101AF0000811001208110001081100F0071000E0A1
:101B0000071000D0071000C0071000B0070F00A199
:101B100007100091070E0083070F0074070F006580
:101B2000070E0057070E0049070E003B070D002E59
:101B3000070E0020070D0013070D0006070D00F922
:101B4000060C00ED060D00E0060C00D4060C00C8E3
:101B5000060C00BC060C00B0060C00A4060B009995
:101B6000060C008D060B0082060B0077060B006C3E
:101B7000060B0061060A0057060B004C060A0042DD
:101B8000060A0038060A002E060A0024060A001A71
:101B9000060A001006090007060A00FD050900F400
:101BA000050900EB050900E2050900D9050900D087
:101BB000050900C7050900BE050900B5050800AD07
:101BC000050800A50509009C050800940508008C7F
:101BD000050800840508007C050800740508006CF1
:101BE000050700650508005D050700560508004E5D
:101BF00005070047050700400508003805070031C4
:101C00000507002A050700230507001C0506001626
:101C10000507000F0507000805060002050700FB81
:101C2000040600F5040700EE040600E8040600E2DE
:101C3000040700DB040600D5040600CF040600C933
:101C4000040600C3040600BD040600B7040600B184
:101C5000040500AC040600A6040600A00405009BD1
:101C600004060095040500900406008A040500851A
:101C7000040500800406007A040500750405007060
:101C80000405006B04050066040500610405005CA2
:101C900004050057040500520405004D04050048E2
:101CA000040500430405003E0404003A0405003521
:101CB000040500300404002C04050027040400235C
:101CC0000405001E0404001A040400160405001193
:101CD0000404000D040400090405000404040000C9
:101CE000040400FC030400F8030400F4030400F0FF
:101CF000030400EC030400E8030400E4030400E030
:101D0000030400DC030400D8030400D4030400D05F
:101D1000030400CC030400C8030300C503030070E0
:101D2000012C0190012701B0012201C0011D01F029
:101D30000118011002130130020E01600209019026
:101D4000020401C002FF000003FA004003F5008016
:101D500003F000D003EB002004E6007004E100E093
:101D600004DC004005D700C005D2004006CD00D0FD
:101D700006C8008007C3003008BE00F008B900C0E4
:101D800009B400B00AAF00B00BAA00D00CA5000047
:101D90000EA000500F9B00C0109600501291000042
:101DA000148C00C0158700B0178200B0197D00D0D8
:101DB0001B7800001E730040206E0090226900F026
:101DC00024640040275F0090295A00E02B55001042
:101DD0002E500020304B0010324600E0334100907E
:101DE000353C001037370070383200A0392D00B074
:101DF0003A2800A03B2300603C1E00103D190090D3
:101E00003D1400103E0F00703E0A00C03E05000069
:101E10003F0000403FFBFF803FF6FFC03FF1FF5A0D
:101E20005F6D6F76655F636F6D700A003F285329A1
:101E300020616E6420285729206D6179206E6F74AF
:101E400020626520636F6D62696E65642E0A0047CB
:101E50003334004732384F0A4D3438205031300087
:101E60004D383400473239503452540047323950DB
:101E70003454004732380A4732364350493000471D
:101E800032380A47323643504931004732394A30F6
:101E900000473239503354300047323950324254BF
:101EA00030004732380A4D31393049300A4D31302F
:101EB0003949300A47323950310A4D3130345330C4
:101EC0000A4D3134305330004732380A4D31393001
:101ED00049310A4D31303949310A47323950310AD6
:101EE0004D31303453300A4D3134305330004732A5
:101EF000394E503100473239503143004732394969
:101F000000473239543000473239543100473239B2
:101F1000532D3100473239493939390A473239505E
:101F200032425430004732394E5031004732395036
:101F3000335430004732395034525400473239500C
:101F40003452540047323944004732394100473255
:101F5000395700417869732000206D696E3A00207E
:101F60006D61783A00416363656C65726174696F95
:101F70006E206C696D697465642E0A00534C4F576E
:101F80000006000007010005000701000706000029
:101F90000007000500434F4D4D554E4943415449FC
:101FA0004F4E0044525952554E004552524F5253D3
:101FB00000494E464F004543484F004572726F72CC
:101FC0002077726974696E6720746F20454550529E
:101FD0004F4D210A0053544F505045442E2000507D
:101FE00072696E7465722073746F707065642064BA
:101FF000756520746F206572726F72732E2046694A
:102000007820746865206572726F7220616E64203A
:10201000757365204D39393920746F20726573747A
:102020006172742E202854656D70657261747572CA
:10203000652069732072657365742E205365742062
:10204000697420616674657220726573746172745C
:10205000696E67290A004E6F20436865636B73756C
:102060006D2077697468206C696E65206E756D628D
:1020700065722C204C617374204C696E653A2000A7
:102080004E6F20436865636B73756D207769746864
:10209000206C696E65206E756D6265722C204C61D6
:1020A0007374204C696E653A2000636865636B73D6
:1020B000756D206D69736D617463682C204C61735C
:1020C00074204C696E653A20004C696E65204E752F
:1020D0006D626572206973206E6F74204C61737439
:1020E000204C696E65204E756D6265722B312C2017
:1020F0004C617374204C696E653A20004D3131306B
:102100000053657269616C20737461747573206D1E
:1021100069736D617463680A005344207265616479
:10212000206572726F720A002121204B494C4C20AD
:10213000636175736564206279204B494C4C206261
:102140007574746F6E2F70696E0A002121204B49DF
:102150004C4C2063617573656420627920746F6FE5
:10216000206D75636820696E61637469766520749B
:10217000696D65202D2063757272656E7420636FC2
:102180006D6D616E643A20004D6564696120496E31
:1021900073657274656400627573793A2070617555
:1021A00073656420666F7220696E7075740A0062D0
:1021B0007573793A2070617573656420666F72205B
:1021C000757365720A00627573793A2070726F6375
:1021D000657373696E670A00506C656173652052A0
:1021E00065736574005052494E5445522048414C25
:1021F0005445440025533A20255300706F7765728B
:102200006F6666004B494C4C45442E200050726965
:102210006E7465722068616C7465642E206B696CE5
:102220006C28292063616C6C6564210A0053544F4B
:10223000505045442E20005072696E7465722073B0
:10224000746F707065642064756520746F206572AA
:10225000726F72732E2046697820746865206572EB
:10226000726F7220616E6420757365204D39393943
:1022700020746F20726573746172742E2028546507
:102280006D70657261747572652069732072657313
:1022900065742E20536574206974206166746572BC
:1022A0002072657374617274696E67290A006563D0
:1022B000686F3A004572726F723A00204A0020201F
:1022C0004D343231204900202047323920493939F4
:1022D000390A006163746976650A00696E0000203E
:1022E00053797374656D2076312E303120002020B3
:1022F000207C0A004E414E0020202E20202000206D
:102300007C004C43443A0A004353563A0A00206684
:102310006F7220003A0A0A000A42656420546F7006
:102320006F677261706879205265706F72740050C7
:10233000726F62696E67204661696C65640A00505D
:10234000726F62696E67204661696C656400205A2D
:102350003A200020593A200042656420583A200073
:102360004732384C3000446F6E652E0A003F496E8C
:1023700076616C69642073746F7261676520736C39
:102380006F742E0A3F557365203020746F20003F14
:10239000454550524F4D2073746F72616765206ED2
:1023A0006F7420617661696C61626C652E0A00440D
:1023B0006F6E652E0A003F496E76616C696420730A
:1023C000746F7261676520736C6F742E0A3F55736A
:1023D00065203020746F20003F454550524F4D20FE
:1023E00073746F72616765206E6F742061766169C6
:1023F0006C61626C652E0A004732392050322066CB
:10240000696E69736865642E0A005859206F757487
:1024100073696465207072696E7461626C652072A4
:1024200061646975732E0A003F4572726F7220698C
:102430006E20427573696E65737320436172642008
:102440006D6561737572656D656E742E0A004D6100
:102450006E75616C6C792070726F62696E67207541
:102460006E726561636861626C6520706F696E741D
:10247000732E0A00292E0A0A0050726F62696E6775
:102480002061726F756E642028004D657368206945
:102490006E76616C6964617465642E2050726F623F
:1024A000696E67206D6573682E0A004D657368203C
:1024B0007A65726F65642E0A0044656661756C7496
:1024C0002073746F7261676520736C6F74203020A5
:1024D00073656C65637465642E0A004C6F61646992
:1024E0006E6720746573745F7061747465726E20BA
:1024F00076616C7565732E0A0A00496E76616C69A7
:102500006420746573745F7061747465726E207694
:10251000616C75652E20282D3120746F2032290AB8
:102520000A0020696E76616C6964617465642E0AC4
:102530000A004C6F636174696F6E7300456E746955
:102540007265204D657368005374616E64617264D6
:1025500020446576696174696F6E3A20004D65614B
:102560006E204D657368204865696768743A20007D
:1025700023206F662073616D706C65733A20000ACA
:102580004D657368206F6E6C79207061727469613B
:102590006C6C7920706F70756C617465642E0A0ABA
:1025A0000050726F62696E6720506F696E7400250B
:1025B000532025692F2569002E0A002F0050726FC5
:1025C00062696E67206D65736820706F696E742034
:1025D0000020616E642074616B652061206D65610F
:1025E000737572656D656E742E0A006D6D2074686A
:1025F00069636B2E0A00427573696E6573732043BD
:10260000617264206973200052656D6F76652026C3
:10261000204D656173757265204265640052656D79
:102620006F7665207368696D00506C616365207317
:1026300068696D20756E646572206E6F7A7A6C655C
:10264000000A4D657368206F6E6C7920706172743A
:1026500069616C6C7920706F70756C617465642E43
:102660000A004D65736820506F696E74204D656176
:1026700073757265642061743A20004D65617375ED
:10268000726500506C616365205368696D20262077
:102690004D656173757265004D6F76696E67207464
:1026A0006F206E657874004D6573682045646974A9
:1026B000696E672053746F7070656400446F6E6557
:1026C0002045646974696E67204D6573680A00442B
:1026D0006F6E652045646974696E67204D65736827
:1026E0000046696E652054756E696E67204D65738E
:1026F000680028582C5929206F7574736964652007
:102700007072696E7461626C652072616469757360
:102710002E0A004F6666736574206F7574206F66AD
:1027200020626F756E64732E20283020746F203104
:10273000306D6D290A0A00496E76616C6964206DFE
:10274000617020747970652E0A0A003F284629615D
:1027500064652068656967687420666F72204265E9
:1027600064204C6576656C20436F72726563746992
:102770006F6E206E6F7420706C61757369626C652A
:102780002E0A0A003F43616E2774206163746976E4
:1027900061746520616E642064656163746976614B
:1027A0007465206174207468652073616D652074A0
:1027B000696D652E0A0A00426F7468205820262031
:1027C00059206C6F636174696F6E73206D757374DB
:1027D000206265207370656369666965642E0A0A04
:1027E000003F496E76616C6964206772696420738A
:1027F000697A6520284A292073706563696669656E
:10280000642028322D39292E0A0A003F28502968D1
:102810006173652076616C756520696E76616C699F
:10282000642028302D36292E0A0A003F28562965B3
:1028300072626F7365206C6576656C20696D706C73
:1028400061757369626C652028302D34292E0A0A5F
:10285000003F285229657065746974696F6E206342
:102860006F756E7420696E76616C69642028312BF7
:10287000292E0A0A00446F696E672047323900909A
:102880001F8B1F861F811F5D0A0062656420706CAC
:10289000616E65206E6F726D616C203D205B004340
:1028A0006F756C64206E6F7420636F6D706C6574EF
:1028B00065204C53462100436F72726563746564F2
:1028C0005F5A3D0025532025692F2569000A0A001B
:1028D0002F0054696C74696E67206D657368207091
:1028E0006F696E7420003F4572726F722070726F54
:1028F00062696E6720706F696E742E2041626F721C
:1029000074696E67206F7065726174696F6E2E0AEC
:1029100000436F727265637465645F5A3D002553AE
:1029200020332F330054696C74696E67206D6573B2
:10293000682028332F33290A00436F72726563744D
:1029400065645F5A3D00255320322F330054696C73
:1029500074696E67206D6573682028322F33290AE9
:1029600000436F727265637465645F5A3D00546919
:102970006C74696E6720506F696E74002553203146
:102980002F330054696C74696E67206D657368201D
:1029900028312F33290A00646F6E650A00496E736F
:1029A000756666696369656E7420646174610A00A6
:1029B00000002041000066420000D242008018431F
:1029C000000048430080774300809343000020418B
:1029D000000066420000D2420080184300004843D5
:1029E00000807743008093434578747261706F6C08
:1029F0006174696E67206D6573682E2E2E0021212B
:102A00002053544F502063616C6C65642062656391
:102A100061757365206F6620424C546F7563682042
:102A20006572726F72202D207265737461727420EA
:102A300077697468204D3939390A002121205354AF
:102A40004F502063616C6C656420626563617573CF
:102A500065206F6620424C546F7563682065727202
:102A60006F72202D2072657374617274207769749F
:102A700068204D3939390A002F2F616374696F6EF0
:102A80003A00656E640053656E64204D3130382025
:102A9000746F20726573756D650A00496E73657297
:102AA000742066696C616D656E7420616E6420735C
:102AB000656E64204D3130380A0052656865617476
:102AC00020446F6E6500526568656174696E672E9B
:102AD0002E2E0052656865617400486561746572E8
:102AE0002054696D656F75740053656E64204D31B7
:102AF000303820746F2068656174206E6F7A7A6C4C
:102B0000650A004E6F7A7A6C65205061726B65645D
:102B1000007061757365640050617573650072655E
:102B200073756D656400526573756D696E670047F6
:102B300032362043616E63656C656400473236202F
:102B400048656174696E67204E6F7A7A6C650047DC
:102B500032362048656174696E67204265640057AB
:102B6000616974696E6720666F722068656174754B
:102B7000702E0A004669786564204C656E6774683B
:102B8000205072696D6500446F6E65205072696DEA
:102B9000696E67004D616E75616C207072696D6958
:102BA0006E672E2E2E004C656176696E6720473267
:102BB00036003F53706563696669656420582C5917
:102BC00020636F6F7264696E617465206F75742025
:102BD0006F6620626F756E64732E0A003F2852295B
:102BE00065706561742076616C7565206E6F742008
:102BF000706C61757369626C653B206D75737420D0
:102C00006265206174206C6561737420312E0A0046
:102C10003F537065636966696564206E6F7A7A6C8C
:102C2000652074656D7065726174757265206E6F74
:102C30007420706C61757369626C652E0A003F5375
:102C400070656369666965642066696C616D656E4F
:102C5000742073697A65206E6F7420706C6175736F
:102C600069626C652E0A003F537065636966696529
:102C700064207072696D65206C656E677468206E83
:102C80006F7420706C61757369626C652E0A003F09
:102C9000537065636966696564206E6F7A7A6C65E6
:102CA0002073697A65206E6F7420706C617573692A
:102CB000626C652E0A003F52657472616374696FBD
:102CC0006E204D756C7469706C696572206D7573DA
:102CD00074206265207370656369666965642E0A95
:102CE000003F53706563696669656420526574725C
:102CF000616374696F6E204D756C7469706C696581
:102D000072206E6F7420706C61757369626C652ED1
:102D10000A003F537065636966696564206C617978
:102D2000657220686569676874206E6F7420706CC6
:102D300061757369626C652E0A0043292E0A003F93
:102D400053706563696669656420626564207465B3
:102D50006D7065726174757265206E6F7420706C31
:102D600061757369626C65202834302D00473236F6
:102D7000207374617274696E672E2E2E0A004F469E
:102D8000460A0046616465204865696768742000EA
:102D9000426564204C6576656C696E67200046610B
:102DA000696C656420746F20656E61626C65204299
:102DB0006564204C6576656C696E670A00496E76BD
:102DC000616C6964206D6573682E0A0076616C69B8
:102DD000640A53746F7261676520736C6F743A2074
:102DE00000696E004D65736820697320003F55735C
:102DF00065203020746F20003F496E76616C6964F5
:102E00002073746F7261676520736C6F742E0A0093
:102E10003F454550524F4D2073746F726167652076
:102E20006E6F7420617661696C61626C652E0A0058
:102E30004163637572616379204465637265617390
:102E4000696E67210044656372656173696E67200E
:102E50004163637572616379204465746563746569
:102E6000642E0A004732385A004163637572616309
:102E7000793A2000206F66200044696420004733BF
:102E8000342061626F727465642E0A004163637559
:102E90007261637920416368696576656400546195
:102EA0007267657420616363757261637920616321
:102EB0006869657665642E0A00313A323D257300F3
:102EC0000A5A322D5A313D0050726F62696E672086
:102ED0004661696C65640050726F62696E67206656
:102EE00061696C65640A0047333420497465726116
:102EF00074696F6E3A202569000A4733342049749B
:102F000065726174696F6E3A20003F2841296D70C7
:102F10006C696669636174696F6E206F7574206F88
:102F20006620626F756E64732028302E352D322E28
:102F300030292E0A003F2854296172676574206188
:102F400063637572616379206F7574206F662062A8
:102F50006F756E64732028302E30312D312E30295C
:102F60002E0A003F2849297465726174696F6E20CA
:102F70006F7574206F6620626F756E6473202831E0
:102F80002D3330292E0A003F285929206F757420CF
:102F90006F6620626F756E64732E0A003F28582991
:102FA000206F7574206F6620626F756E64732E0AD1
:102FB000003F2853292050726F62652D706F73692E
:102FC00074696F6E20696E64657820696E76616CD5
:102FD00069642E0A003F28532920697320726571A5
:102FE00075697265642E0A004D34323220530044F4
:102FF0006576696174696F6E0025533A2025730008
:1030000046696E6973686564210A003A207A3A203D
:1030100000206F662000476F696E6720746F3A204A
:10302000580043570A00206469723A0020616E67B5
:103030006C653A00537461727420726164697573CF
:103040003A004D343820506F696E740025533A2091
:1030500025642F256400506F736974696F6E696E03
:1030600067207468652070726F62652E2E2E0A00CC
:103070003F4C656773206F66206D6F76656D656E7A
:103080007420696D706C61757369626C652028309D
:103090002D3135292E0A003F2028582C5929206F20
:1030A0007574206F6620626F756E64732E0A00500F
:1030B000726F6265206F7574206F6620626F756E27
:1030C0006473003F53616D706C652073697A65208D
:1030D0006E6F7420706C61757369626C6520283442
:1030E0002D3530292E0A004D3438205A2D50726F5C
:1030F0006265205265706561746162696C6974799A
:1031000020546573740A003F2856296572626F73F4
:1031100065206C6576656C20696D706C617573698E
:10312000626C652028302D34292E0A005374616E9C
:103130006461726420446576696174696F6E3A20D7
:10314000002052616E67653A2000204D61783A2078
:1031500000204D696E3A2000205369676D613A2066
:10316000004D65616E3A20005741524E494E47214D
:10317000204C6F77205A204A65726B206D61792050
:103180006C65616420746F20756E77616E74656420
:10319000207061757365732E0A004F4646004F4ECE
:1031A0000020204D61783A2000200020204D696EDB
:1031B0003A2000536F667420656E6473746F707389
:1031C0003A200020496E76616C69642065787472DB
:1031D00075646572200047322F4733206261642096
:1031E000706172616D65746572730A00536C656518
:1031F000702E2E2E005A2050726F6265205061731F
:1032000074204265640A005A2050726F6265205033
:103210006173742042656400205A3A200020593AB4
:10322000200042656420583A20004D657368207084
:103230006F696E74206F7574206F662072616E679F
:10324000650A004D302053746F70004D3120537467
:103250006F7000436C69636B20746F2052657375E7
:103260006D652E2E2E004E6F204D6F76652E00451B
:103270006E642066696C65206C6973740A0042652F
:1032800067696E2066696C65206C6973740A004E0C
:103290006F206D656469610A00526573756D696EB2
:1032A0006720534400286E6F2066696C65290043CF
:1032B000757272656E742066696C653A20002E0A1C
:1032C0000044656C6574696F6E206661696C656445
:1032D0002C2046696C653A200046696C652064655F
:1032E0006C657465643A002569730025696D202555
:1032F0006973002569682025696D2025697300259B
:103300006964202569682025696D20256973002579
:10331000697920256964202569682025696D202543
:103320006973005072696E742074696D653A20008B
:103330006F6B006F666600B61FB11FAA1FA31F95B3
:103340001F44454255473A004D3131332053004127
:103350007274696C6C657279205369646577696E03
:10336000646572205831204F46462E002F2F004DA5
:1033700031343520533C696E6465783E206F757436
:10338000206F662072616E67652028302D31290A12
:1033900000205200416363656C65726174696F6EF1
:1033A0003A2050004D32303620580046523A002024
:1033B000466C6F773A20003A200020536572766F92
:1033C0002000206F7574206F662072616E67650A39
:1033D00000536572766F200050726F6265204F66F1
:1033E00066736574205A0050726F6265204F66667E
:1033F000736574205A0020643A0020693A002070F6
:103400003A00496E76616C696420657874727564FF
:1034100065720A0020643A0020693A0020703A0080
:103420004D65736820706F696E74206F7574206FBE
:10343000662072616E67650A004D34323120696E14
:10344000636F727265637420706172616D6574651B
:10345000722075736167650A004F666673657473E1
:10346000204170706C696564004572723A20546F37
:103470006F206661722100546F6F20666172206652
:10348000726F6D207265666572656E636520706F20
:10349000696E740A00454550524F4D204F4B0A004B
:1034A0002E0A002028302D313029002076616C75DD
:1034B00065206F7574206F662072616E67650041CC
:1034C0006476616E6365204B3D004D383400507268
:1034D000696E7420446F6E6500446F6E6520707273
:1034E000696E74696E672066696C650A004D3737CE
:1034F000004D333100446966663A20202000467250
:103500006F6D5374703A00537465707065723A0051
:10351000556E4C6576656C3A004C6576656C6564F5
:103520003A005261773A20202020000A4C6F6769E8
:1035300063616C3A00436F756E7420453A004361D5
:10354000703A007D002C7A3A002C793A007D2C6D7F
:1035500061783A7B783A002C7A3A002C793A007DEF
:103560007D2C776F726B3A7B6D696E3A7B783A008F
:103570002C7A3A002C793A007D2C6D61783A7B7870
:103580003A002C7A3A002C793A00617265613A7BF4
:1035900066756C6C3A7B6D696E3A7B783A004D4586
:1035A00041545041434B00434F4F4C45525F5445AB
:1035B0004D5045524154555245004348414D4245B6
:1035C000525F54454D504552415455524500424179
:1035D00042595354455050494E47004152435300BD
:1035E0004D4F54494F4E5F4D4F444553005448454D
:1035F000524D414C5F50524F54454354494F4E0039
:103600004C4F4E475F46494C454E414D4500415554
:10361000544F5245504F52545F53445F535441549A
:1036200055530053445F5752495445005245504545
:103630004154005344434152440050524F4D505462
:103640005F535550504F525400484F53545F4143BD
:1036500054494F4E5F434F4D4D414E445300454DED
:10366000455247454E43595F5041525345520043DE
:103670004153455F4C494748545F4252494748547B
:103680004E45535300544F47474C455F4C494748BC
:10369000545300534F4654574152455F504F57457E
:1036A00052004255494C445F50455243454E5400E8
:1036B0004C4556454C494E475F44415441005A5F82
:1036C00050524F42450052554E4F555400415554AB
:1036D0004F4C4556454C005052494E545F4A4F425C
:1036E0000050524F4752455353004155544F524595
:1036F000504F52545F54454D50004155544F524520
:10370000504F52545F504F5300564F4C554D4554F7
:1037100052494300454550524F4D0042494E415297
:10372000595F46494C455F5452414E5346455200FD
:1037300053455249414C5F584F4E5F584F464600E3
:103740004649524D574152455F4E414D453A4D61B4
:10375000726C696E20322E302E392E31202D20448D
:103760004947412D546563682041535758312076AD
:10377000312E3020284A756C2020352032303231ED
:103780002031323A35303A33392920534F5552439C
:10379000455F434F44455F55524C3A6769746875BD
:1037A000622E636F6D2F4D61726C696E4669726D2A
:1037B000776172652F4D61726C696E2050524F5463
:1037C0004F434F4C5F56455253494F4E3A312E307E
:1037D000204D414348494E455F545950453A417246
:1037E00074696C6C657279205369646577696E647D
:1037F00065722058312045585452554445525F4314
:103800004F554E543A3120555549443A63656465E5
:10381000326132662D343161322D343734382D39EE
:103820006231322D6335356336326633363766663C
:103830000A00290A0020746F20003F5A206F757417
:10384000206F662072616E6765202800290A0020BB
:10385000746F20003F59206F7574206F662072616D
:103860006E676520282D00290A0020746F20003F14
:1038700058206F7574206F662072616E676520280E
:103880002D0050726F6265204F6666736574205814
:103890000043616E6E6F74206F70656E2073756289
:1038A0006469722000436F6F6C696E672E2E2E0064
:1038B00048656174696E672E2E2E004520255300E1
:1038C00042656420436F6F6C696E672E2E2E004236
:1038D00065642048656174696E672E2E2E0023642E
:1038E0006566696E652044454641554C545F0062EB
:1038F0006564004B6420004B6920004B7020005031
:103900004944204175746F74756E652066696E69EF
:1039100073686564212050757420746865206C613B
:103920007374204B702C204B6920616E64204B64B3
:1039300020636F6E7374616E74732066726F6D2096
:1039400062656C6F7720696E746F20436F6E666975
:103950006775726174696F6E2E680A005049442061
:103960004175746F74756E65206661696C6564215C
:103970002074696D656F75740A0050494420417563
:10398000746F74756E65206661696C65642120547E
:10399000656D706572617475726520746F6F2068F3
:1039A0006967680A00204B643A2000204B693A207E
:1039B00000204B703A200020436C617373696320D0
:1039C000504944200A00204E6F206F76657273685C
:1039D0006F6F740A002054753A2000204B753A200E
:1039E00000206D61783A2000206D696E3A20002039
:1039F000643A200020626961733A200050494420F3
:103A00004175746F74756E652073746172740A0009
:103A1000504944204175746F74756E652066616904
:103A20006C6564212054656D706572617475726592
:103A300020746F6F20686967680A0050494420410C
:103A400075746F74756E6500504944204175746FCC
:103A500074756E65206661696C65642120426164DD
:103A6000206865617465722069640A004572723A63
:103A7000207574663820666F6E74206E6F742069CE
:103A80006E697469616C697A65642E004572723A78
:103A9000207574663820666F6E74206E6F742069AE
:103AA0006E697469616C697A65642E004572723A58
:103AB000207574663820666F6E74206E6F7420698E
:103AC0006E697469616C697A65642E00000C0F0080
:103AD000FE07022503BB017FFE08FE08FE0508085D
:103AE00006000040F0C8888898781005080806008D
:103AF00000C0F88888888888F80505050600012038
:103B000030F830200508080600002070F82020203A
:103B100020E00509090600FF2070A8A8B888887071
:103B200020070505070001D86C366CD80509090681
:103B300000FFF8A88888888888A8F8050A0A06007F
:103B4000FE205050505088A8A88870030303060038
:103B50000340A040FFFFFFFFFFFFFFFFFFFFFFFF4E
:103B6000FFFFFFFFFFFFFFFFFFFF0000000605FF55
:103B70000107070602008080808080008003030325
:103B8000060105A0A0A005060606000050F850504A
:103B9000F8500509090600FF2070A8A07028A87039
:103BA00020050707060000C8C810204098980507A0
:103BB0000706000040A0A040A89068010303060289
:103BC000058080800309090601FF20404080808035
:103BD0004040200309090601FF804040202020408A
:103BE000408005070706000020A8702070A8200567
:103BF00005050600012020F820200203030601FF2E
:103C0000C04080050101060003F80202020601001F
:103C1000C0C00507070600000810102040408005BE
:103C20000707060000708898A8C888700307070671
:103C3000010040C040404040E0050707060000701A
:103C40008808102040F8050707060000F808103023
:103C500008887005070706000010305090F8101013
:103C6000050707060000F880F008088870050707B8
:103C7000060000304080F0888870050707060000C5
:103C8000F80810102020200507070600007088881B
:103C9000708888700507070600007088887808100B
:103CA00060020505060100C0C000C0C0020606068D
:103CB00001FFC0C000C0408003050506010120408F
:103CC000804020050303060002F800F803050506FE
:103CD0000101804020408005070706000070881021
:103CE000202000200507070600007088B8A8B880CB
:103CF00070050707060000708888F888888805071F
:103D000007060000F04848704848F005070706001D
:103D10000070888080808870050707060000F048E2
:103D200048484848F0050707060000F88080F08002
:103D300080F8050707060000F88080F08080800585
:103D400007070600007088808098887005070706BE
:103D50000000888888F8888888030707060100E043
:103D60004040404040E005070706000038101010B2
:103D70001090600507070600008890A0C0A09088FA
:103D8000050707060000808080808080F80507070F
:103D900006000088D8A888888888050707060000DC
:103DA0008888C8A898888805070706000070888852
:103DB00088888870050707060000F08888F08080F2
:103DC0008005070706000070888888A890680507A6
:103DD00007060000F08888F0A09088050707060015
:103DE0000070888070088870050707060000F820BA
:103DF0002020202020050707060000888888888862
:103E000088700507070600008888888850502005BC
:103E1000070706000088888888A8A85005070706B5
:103E20000000888850205088880507070600008811
:103E3000885020202020050707060000F8081020E1
:103E40004080F80309090601FFE0808080808080BF
:103E500080E005070706000080404020101008039E
:103E600009090601FFE020202020202020E0050392
:103E7000030600052050880501010600FEF8030333
:103E8000030601058040200505050600007008783E
:103E900088780507070600008080F0888888F0058C
:103EA0000505060000708080887005070706000081
:103EB000080878888888780505050600007088F06D
:103EC0008070050707060000304840E0404040058C
:103ED00007070600FE7088888878087005070706BF
:103EE00000008080F088888888030707060100406A
:103EF00000C0404040E00409090601FE10003010F7
:103F0000101010906005070706000080808890E080
:103F10009088030707060100C04040404040E0058C
:103F20000505060000D0A8A8A8A8050505060000FC
:103F3000B0C88888880505050600007088888870E4
:103F40000507070600FEF0888888F08080050707CF
:103F50000600FE78888888780808050505060000B0
:103F6000B0C880808005050506000078807008F0E4
:103F70000507070600002020F82020201805050569
:103F8000060000888888986805050506000088886E
:103F90008850200505050600008888A8A85005055A
:103FA0000506000088502050880507070600FE8897
:103FB000888850204080050505060000F810204044
:103FC000F80309090601FF2040404080404040209E
:103FD0000109090602FF8080808080808080800344
:103FE00009090601FF804040402040404080050311
:103FF0000306000248A890FF554E4C4F414420460E
:10400000494C414D454E54004C4F41442046494C8B
:10401000414D454E540046494C414D454E54204378
:1040200048414E47450041425300504C41004265D3
:104030006400456E636C6F73757265002568753A30
:1040400025303268750025303268753A253032687F
:104050007500256875642025303268753A25303240
:104060006875002020202020202000202020200013
:104070001FE02010201020101020102020102010F1
:1040800030300840048003001FE03FF03FF03FF075
:104090001FE01FE03FF03FF03FF00FC0078003003C
:1040A0003FFFF038007030FC3020FC1020781020EA
:1040B00030102C00D02E31D02F7BD02F7BD02E3142
:1040C000D02C00D020301020781020FC1030FC3094
:1040D0003800703FFFF03FFFF0380070318630232A
:1040E00087102787902F87D02F03D020301020787B
:1040F000102078102030102F03D02F87D0278790E2
:104100002387103186303800703FFFF01FFFF81F03
:10411000FFF8041040020820020820041040082084
:104120008010410010410008208004104000000071
:104130001FFFF81FFFF8417274696C6C657279207B
:104140005369646577696E646572205831205265E1
:104150006164792E005072696E74696E672E2E2E1E
:10416000006E6F74696669636174696F6E200063C5
:10417000616E63656C005072696E742041626F728B
:10418000746564004469736D697373005549204117
:10419000626F72746564004D323520500A4D3234BE
:1041A000005072696E7420506175736564005265C9
:1041B00073756D65005549205061757365005061D8
:1041C0007573696E672E2E2E00726573756D6500AE
:1041D0004D323400454550524F4D2056657273693B
:1041E0006F6E204572726F7200454550524F4D20E0
:1041F000496E646578204572726F72004545505271
:104200004F4D20435243204572726F72003F004968
:10421000676E6F726500526573657400496E6974EC
:1042200069616C697A6520454550524F4D00507266
:104230006F6265205A204F6666736574004C6F612B
:1042400064206D6D00556E6C6F6164206D6D00466D
:10425000696C2E204469612E004520696E206D6DC9
:104260005E3300416476616E6365204B0020082058
:1042700046616374002008204D6178002008204DBD
:10428000696E004F6666004F6E004175746F74650D
:104290006D70005654726176204D696E00566D69DE
:1042A0006E00566D6178204500566D6178205A0089
:1042B000566D6178205900566D6178205800416D27
:1042C0006178204500416D6178205A00416D617828
:1042D000205900416D6178205800412D547261765B
:1042E000656C00412D5265747261637400416363B3
:1042F000656C0056652D4A65726B00565A2D4A65ED
:10430000726B0056592D4A65726B0056582D4A65DE
:10431000726B0050726F6265205A204F666673653B
:10432000740050726F62652059204F666673657421
:104330000050726F62652058204F66667365740086
:10434000452073746570732F6D6D005A205374652A
:1043500070732F6D6D00592053746570732F6D6DE0
:1043600000582053746570732F6D6D004164766141
:104370006E6365642053657474696E6773003F00F3
:1043800043616E63656C00496E6974004D34323868
:1043900000496E697469616C697A652045455052BF
:1043A0004F4D0046696C616D656E740054656D70AB
:1043B000657261747572650053746570732F6D6DED
:1043C0000050726F6265204F666673657473004AB1
:1043D00065726B00416363656C65726174696F6ED1
:1043E0000056656C6F636974790053657420486F7B
:1043F0006D65204F66667365747300436F6E666902
:104400006775726174696F6E0053746F77004465ED
:10441000706C6F790053572D4D6F64650053656C58
:10442000662D54657374005265736574004265644B
:10443000004E6F7A7A6C650046616E205370656538
:104440006400436F6E66696775726174696F6E00B0
:10445000526573746F72652044656661756C747320
:10446000004C6F61642053657474696E6773005308
:10447000746F72652053657474696E67730050724F
:104480006568656174202420436F6E6600424C5459
:104490006F7563680050726F6265205A204F6666C0
:1044A00073657400416476616E636564205365745E
:1044B00074696E6773004D61696E00556E6C6F6153
:1044C000642046696C616D656E74004D3730320052
:1044D0004C6F61642046696C616D656E74004D3788
:1044E0003031004368616E67652046696C616D65B7
:1044F0006E74004D363030204230004D61696E00E0
:10450000436F6E74696E7565005075726765206DD6
:104510006F726500524553554D45204F5054494FD9
:104520004E533A005052494E542050415553454441
:104530000020204E6F7A7A6C653A20005061726BD1
:10454000696E672E2E2E0000005761697420666F19
:10455000720066696C616D656E74206368616E6778
:104560006500746F20737461727400576169742000
:10457000666F720066696C616D656E7420756E6C35
:104580006F616400004E6F7A7A6C652068656174B3
:10459000696E6700506C6561736520776169742E80
:1045A0002E2E0000507265737320627574746F6EE6
:1045B00000746F2068656174206E6F7A7A6C650094
:1045C00000496E736572742066696C616D656E7406
:1045D00000616E6420707265737320627574746F0D
:1045E0006E00746F20636F6E74696E75650057613D
:1045F000697420666F720066696C616D656E742007
:104600006C6F61640000507265737320427574743E
:104610006F6E00746F20726573756D6520707269BE
:104620006E7400005761697420666F722070726941
:104630006E7400746F20726573756D652E2E2E007A
:10464000005761697420666F720066696C616D6500
:104650006E7420707572676500003F004261636B85
:104660000053746F7000417474616368204D656419
:104670006961004D3231005072696E742066726F4C
:104680006D204D656469610052656C6561736520DC
:104690004D65646961004D323200436F6E66696733
:1046A00075726174696F6E0054656D7065726174C6
:1046B000757265004D6F74696F6E00526573756D2C
:1046C00065205072696E74004368616E67652046AC
:1046D000696C616D656E740054756E650053746F1E
:1046E00070205072696E740050617573652050724D
:1046F000696E7400496E666F2053637265656E0063
:104700003F005374617274205072696E740043618B
:104710006E63656C005072696E740043616E6E6FFB
:104720007420656E746572207375626469723A20D4
:1047300000022E2E000152656672657368004D619D
:10474000696E004D6F74696F6E0044697361626CCD
:1047500065205374657070657273004D3834004D78
:1047600034382050726F626520546573740047328C
:10477000384F0A4D34382050313000556E69666923
:10478000656420426564204C6576656C696E6700DF
:104790004175746F205A2D416C69676E0047333440
:1047A000004175746F20486F6D65004D61696E0042
:1047B00050726568656174202420456E64005072F3
:1047C00065686561742024204265640054656D70DD
:1047D0006572617475726500436F6F6C646F776E9C
:1047E000005072656865617420240046616E205334
:1047F0007065656400426564004E6F7A7A6C65008E
:104800004D61696E0050726F6265205A204F666676
:1048100073657400416476616E6365204B00466C7D
:104820006F770046616E2053706565640042656471
:10483000004E6F7A7A6C65005370656564004D6157
:10484000696E005A2056616C7565004732380A4D12
:10485000313930205325690A4D31303920532569CB
:104860000A473239205031004265642054656D702A
:1048700000486F74656E642054656D70002E256964
:10488000004732395036432D004865696768742007
:10489000416D6F756E740041646A757374204D6567
:1048A0007368204865696768740046696E652054BE
:1048B000756E6520436C6F736573740047323950B1
:1048C00034540046696E652054756E6520416C6CE9
:1048D0000047323950345254004732380A47323692
:1048E00043504825694225690056616C69646174CA
:1048F0006520437573746F6D204D65736800473292
:10490000380A473236435049310056616C69646158
:104910007465204D65736820282429004732380AC1
:1049200047323643504930004732394A2569004CF6
:104930006576656C204D6573680053696465205029
:104940006F696E74730047726964204D65736820E7
:104950004C6576656C696E6700332D506F696E74B7
:10496000204C6576656C696E67004732394A3000C5
:10497000473239503352432E2569004D616E7561BF
:104980006C2046696C6C2D696E004732395032429A
:10499000543000536D6172742046696C6C2D696EE1
:1049A00000473239503354300046696C6C2D696EC3
:1049B00020416D6F756E74004D65736820696E7669
:1049C000616C6964617465642E0A002A402640495E
:1049D0006E666F2053637265656E00496E76616C1A
:1049E000696461746520436C6F736573740047324A
:1049F000394900496E76616C696461746520416C67
:104A00006C00436F6E74696E756520426564204D5D
:104A1000657368004732395031430046696C6C2D2C
:104A2000696E204D657368004275696C6420436F40
:104A30006C64204D657368004732394E5031004236
:104A400075696C6420437573746F6D204D65736870
:104A5000004732380A4D31393049310A4D31303949
:104A600049310A47323950310A4D31303453300A16
:104A70004D3134305330004275696C64204D65739C
:104A80006820282429004732380A4D31393049300E
:104A90000A4D31303949300A47323950310A4D31E7
:104AA000303453300A4D31343053300047323925D9
:104AB0006325690A4D31313720004D657368202523
:104AC00069204C6F61646564004D657368202569D9
:104AD00020536176656400536176652042656420E9
:104AE0004D657368004C6F616420426564204D65BC
:104AF0007368004D656D6F727920536C6F74004E52
:104B00006F2053746F7261676500473239503458B3
:104B1000257359257352256900202D2D2D2D2D002B
:104B20005A3A00593A00486F6D696E672058595AD1
:104B300000473238004F6666205072696E746572A5
:104B4000204261636B757000473239532D31004F3D
:104B5000757470757420666F722043535600473227
:104B6000395431004F757470757420666F72204827
:104B70006F7374004732395430004D657368204CB0
:104B80006576656C696E670045646974204D657370
:104B9000680056616C6964617465204D65736800D6
:104BA0004D616E75616C6C79204275696C64204D45
:104BB00065736800473239493939390A4732395003
:104BC00032425430004275696C64204D6573680050
:104BD000372E205361766520426564204D657368E9
:104BE00000362E2046696E652054756E6520416C36
:104BF0006C004732395034525400352E2056616CC7
:104C00006964617465204D65736800342E204669BF
:104C10006E652054756E6520416C6C0047323950CA
:104C200034525400332E2056616C696461746520DF
:104C30004D65736800322E20536D61727420466991
:104C40006C6C2D696E004732395033543000312E70
:104C5000204275696C6420436F6C64204D657368F5
:104C6000004732394E503100556E696669656420DF
:104C7000426564204C6576656C696E6700466164C8
:104C80006520486569676874004F75747075742095
:104C900055424C20496E666F0047323957005542E5
:104CA0004C20546F6F6C73004F7574707574204D89
:104CB000657368204D6170004D6573682053746F93
:104CC00072616765004D65736820456469740053BF
:104CD0007465702D42792D537465702055424C00D7
:104CE00041637469766174652055424C00473239DE
:104CF0004100446561637469766174652055424C76
:104D00000047323944004D6F74696F6E00486F6D13
:104D1000696E67204661696C6564006F70656E003E
:104D2000545249474745524544003A20007A5F7043
:104D3000726F6265007A5F6D696E00795F6D696E92
:104D400000785F6D696E005265706F7274696E678E
:104D500020656E6473746F70207374617475730A68
:104D60000020746F6F206C6F6E67206578747275A9
:104D700073696F6E2070726576656E7465640A0083
:104D8000486F6D65202573257325732046697273FE
:104D900074000000000000000000000000005761E7
:104DA000726E696E673A20486F6D696E6720427552
:104DB0006D702044697669736F72203C20310A005F
:104DC00002020400809843008098430000C843001A
:104DD00000A0400000A04000000040008098430078
:104DE0008098430000C8430000000000000000005D
:104DF00000000053657474696E67732053746F729A
:104E0000656400290A002062797465733B2063722F
:104E100063200053657474696E67732053746F72F6
:104E200065642028004D6573682073617665642091
:104E3000696E20736C6F7420003F556E61626C6503
:104E400020746F2073617665206D657368206461DE
:104E500074612E0A0020736C6F743D00206D6573C1
:104E60006865735F656E643D004532454E443D00A4
:104E7000206D65736820736C6F747320617661694F
:104E80006C61626C652E0A003F496E76616C6964E4
:104E900020736C6F742E0A004D657368206C6F610F
:104EA0006465642066726F6D20736C6F7420003FC0
:104EB000556E61626C6520746F206C6F6164206D4B
:104EC00065736820646174612E0A004861726463CE
:104ED0006F6465642044656661756C742053657405
:104EE00074696E6773204C6F616465640A00556E67
:104EF000696669656420426564204C6576656C6905
:104F00006E67003B20003A0A0020204D36303320E7
:104F1000002055004C0046696C616D656E74206C14
:104F20006F61642F756E6C6F6164206C656E677461
:104F300068733A0020204D393030204B004C696EA8
:104F400065617220416476616E63653A0020204D90
:104F50003835312058005A2D50726F6265204F66E7
:104F6000667365740020440020490020204D3330D2
:104F70003420500020440020490020204D3330319F
:104F80002050005049442073657474696E67733A09
:104F90000020460020420020480020204D313435BA
:104FA0002053004D6174657269616C20686561749D
:104FB000757020706172616D65746572733A00205E
:104FC0006D65736865732E0A0A00454550524F4D52
:104FD0002063616E20686F6C6420004163746976A1
:104FE00065204D65736820536C6F743A2000202053
:104FF0004D34323020530020204D323036205800BE
:10500000486F6D65206F66667365743A00205800BE
:1050100020530020204D323035204200416476611B
:105020006E6365643A20423C6D696E5F7365676DBF
:10503000656E745F74696D655F75733E20533C6D7A
:10504000696E5F66656564726174653E20543C6D8F
:10505000696E5F74726176656C5F666565647261C6
:1050600074653E20583C6D61785F785F6A65726B4D
:105070003E20593C6D61785F795F6A65726B3E20B6
:105080005A3C6D61785F7A5F6A65726B3E20453C81
:105090006D61785F655F6A65726B3E002054002029
:1050A000520020204D323034205000416363656C43
:1050B00065726174696F6E2028756E6974732F73E1
:1050C00032293A20503C7072696E745F6163636587
:1050D0006C3E20523C726574726163745F616363FD
:1050E000656C3E20543C74726176656C5F616363ED
:1050F000656C3E0020204D3230312058004D6178E3
:10510000696D756D20416363656C65726174696F6B
:105110006E2028756E6974732F7332293A0020202F
:105120004D3230332058004D6178696D756D2066C1
:1051300065656472617465732028756E6974732F78
:1051400073293A0053746570732070657220756E10
:1051500069743A0020440020204D32303020530042
:105160002044697361626C65640A0046696C616D14
:10517000656E742073657474696E67733A002020DD
:105180004D3134392043203B20556E6974732069BA
:105190006E2043656C736975730A0020286D6D2954
:1051A000002020473231202020203B20556E69749A
:1051B0007320696E206D6D003F4D65736820746FBC
:1051C0006F2062696720666F7220454550524F4DCF
:1051D0002E0A00454550524F4D2064617461736939
:1051E0007A65206572726F722E0A0055424C2072E9
:1051F000657365740A00206C6F6164656420667273
:105200006F6D2073746F726167652E0A004D657350
:10521000682000290A002062797465733B2063725C
:105220006320002073746F72656420736574746901
:105230006E677320726574726965766564202800F4
:10524000202863616C63756C6174656429210A00B0
:1052500020213D2000454550524F4D2043524320D0
:105260006D69736D61746368202D202873746F728B
:1052700065642920002053697A653A2000496E64EC
:1052800065783A200000004843000048430000A031
:105290004100002042F43DA042F43DA04296E3C705
:1052A000430080DE43D0070000D007000064000008
:1052B0000010270000204D61726C696E3D56383336
:1052C000290A00454550524F4D2076657273696F2B
:1052D0006E206D69736D6174636820284545505276
:1052E0004F4D3D0024F4D43050C38E20C2A240174D
:1052F000828B7011127A910D816CD90AA861E10834
:10530000C7586607615143061E4B5D05C145A7049A
:105310001A411104093D9803713931034036DB020B
:1053200065339102D4305402802E1D02632CEE01AD
:10533000752AC501B028A001102781018F256401BD
:105340002B244B01E0223401AC211F018D200D01E3
:10535000801FFC00841EED00971DDF00B81CD200EA
:10536000E61BC600201BBC00641AB200B219A800DC
:105370000A19A0006A189900D117910040178B00F4
:10538000B516840031167E00B31579003A15730006
:10539000C7146F0058146A00EE1366008813630088
:1053A00025135E00C7125B006C12570015125400E3
:1053B000C111510070114F0021114B00D61049004E
:1053C0008D1047004610440002104200C00F4000FC
:1053D000800F3E00420F3C00060F3B00CB0E380012
:1053E000930E37005C0E3500270E3400F30D3200AB
:1053F000C10D3100900D3000600D2E00320D2D00DA
:10540000050D2C00D90C2B00AE0C2900850C2900B1
:105410005C0C2700350C27000E0C2600E80B24003E
:10542000C40B2400A00B23007D0B23005A0B21008A
:10543000390B2100180B2000F80A1F00D90A1E00A2
:10544000BB0A1E009D0A1D00800A1D00630A1C0085
:10545000470A1B002C0A1B00110A1A00F7091A0040
:10546000DD091900C4091900AB09190092091700D8
:105470007B091800630917004C091600360916004D
:10548000200916000A091500F5081500E0081400A7
:10549000CC081400B8081400A408140090081300E5
:1054A0007D0812006B08130058081200460812000D
:1054B000340811002308110012081100010811001E
:1054C000F0071000E0071000D0071000C007100020
:1054D000B0070F00A107100091070E0083070F000F
:1054E00074070F0065070E0057070E0049070E00EE
:1054F0003B070D002E070E0020070D0013070D00BF
:1055000006070D00F9060C00ED060D00E0060C0084
:10551000D4060C00C8060C00BC060C00B0060C003B
:10552000A4060B0099060C008D060B0082060B00EA
:1055300077060B006C060B0061060A0057060B008D
:105540004C060A0042060A0038060A002E060A0027
:1055500024060A001A060A001006090007060A00B7
:10556000FD050900F4050900EB050900E205090045
:10557000D9050900D0050900C7050900BE050900C5
:10558000B5050800AD050800A50509009C05080043
:10559000940508008C050800840508007C050800B7
:1055A000740508006C050700650508005D05070027
:1055B000560508004E05070047050700400508008E
:1055C00038050700310507002A05070023050700F5
:1055D0001C050600160507000F0507000805060054
:1055E00002050700FB040600F5040700EE040600B0
:1055F000E8040600E2040700DB040600D504060008
:10560000CF040600C9040600C3040600BD0406005A
:10561000B7040600B1040500AC040600A6040600A9
:10562000A00405009B0406009504050090040600F4
:105630008A04050085040500800406007A0405003C
:1056400075040500700405006B0405006604050080
:10565000610405005C0405005704050052040500C0
:105660004D04050048040500430405003E04040001
:105670003A04050035040500300404002C0405003C
:1056800027040400230405001E0404001A04040077
:1056900016040500110404000D04040009040500AB
:1056A0000404040000040400FC030400F8030400E4
:1056B000F4030400F0030400EC030400E803040016
:1056C000E4030400E0030400DC030400D803040046
:1056D000D4030400D0030400CC030400C803030077
:1056E000C503030024F404D9201BC40C5C0E9804E9
:1056F000C4095F0265077101F405F900FB04B300FA
:1057000048048700C103690058035500030345009E
:10571000BE023A008402310053022A002902250009
:1057200004022000E4011C00C8011900AF011700A9
:105730009801140084011300710110006101100030
:1057400051010E0043010D0036010B002B010B002F
:1057500020010B00150109000C01090003010800DC
:10576000FB000800F3000800EB000700E40006005F
:10577000DE000600D8000600D2000600CC000500BE
:10578000C7000500C2000500BD000400B900040008
:10579000B5000400B1000400AD000400A90004003D
:1057A000A5000300A20003009F0004009B0003006B
:1057B000980003009500020093000300900003008E
:1057C0008D0002008B0003008800020086000200AA
:1057D00084000300810002007F0002007D000200BF
:1057E0007B000200790002007700010076000200D1
:1057F0007400020072000100710002006F000200DC
:105800006D0001006C0002006A00010069000200E6
:1058100067000100660001006500010064000200ED
:105820006200010061000100600001005F000200F1
:105830005D0001005C0001005B0001005A000100F6
:1058400059000100580001005700010056000100F6
:1058500055000100540001005300000053000100F6
:105860005200010051000100500001004F000100F2
:105870004E0000004E0001004D0001004C000100F0
:105880004B0000004B0001004A00010049000100EC
:1058900048000000480001004700010046000000E9
:1058A00046000100450000004500010044000100E1
:1058B00043000000430001004200000042000100DC
:1058C0004100000041000100400001003F000000D5
:1058D0003F0001003E0000003E0001003D000000CE
:1058E0003D0001003C0000003C0000003C000100C5
:1058F0003B0000003B0001003A0000003A000100BC
:1059000039000000390001003800000038000000B4
:1059100038000100370000003700010036000000A9
:1059200036000000360001003500000035000000A0
:105930003500010034000000340000003400010094
:10594000330000003300000033000100320000008B
:105950003200000032000100310000003100000080
:105960003100010030000000300000003000010074
:105970002F0000002F0000002F0000002F0001006A
:105980002E0000002E0000002E0001002D0000005F
:105990002D0000002D0000002D0001002C00000053
:1059A0002C0000002C0000002C0001002B00000047
:1059B0002B0000002B0000002B0001002A0000003B
:1059C0002A0000002A0000002A000100290000002F
:1059D0002900000029000000290000002900010022
:1059E0002800000028000000280000002800000017
:1059F0002800010027000000270000002700000009
:105A000027000000270001002600000026000000FB
:105A100026000000260000002600010025000000EE
:105A200025000000250000002500000025000000E2
:105A300025000100240000002400000024000000D4
:105A400024000000240001002300000023000000C7
:105A500023000000230000002300000023000000BA
:105A600023000100220000002200000022000000AC
:105A7000220000002200000022000100210000009E
:105A80002100000021000000210000002100000092
:105A90002100000021000100200000002000000083
:105AA0002000000020000000200000002000000076
:105AB00020000000200001001F0000001F00000067
:105AC0001F0000001F0000001F0000001F0000005A
:105AD0001F0001001E0000001E0000001E0000004C
