:100000000C9427150C9458150C9458150C945815ED
:100010000C9458150C9458150C9458150C945815AC
:100020000C9458150C9458150C9458150C9458159C
:100030000C9458150C9458150C9458150C9458158C
:100040000C9458150C94ADAA0C9458150C94581592
:100050000C9458150C9458150C94BE9E0C94E848BA
:100060000C9458150C94D5340C94A0340C94581559
:100070000C9458150C9458150C9458150C9458154C
:100080000C946E2E0C9458150C9458150C9458150D
:100090000C9458150C9458150C9458150C9458152C
:1000A0000C9458150C9458150C94402E0C9458151B
:1000B0000C9458150C9458150C9458150C9458150C
:1000C0000C9458150C9458150C9458150C945815FC
:1000D0000C9458150C9458150C9458150C945815EC
:1000E0000C9458150B351D352F35403548357B356B
:1000F0004C357B35503554357B3558355C3560355E
:1001000069357B3574358B478E477D4781478547F9
:10011000C547924796479C47A047A447AA47AE4782
:10012000B247C547B847BC47C047024807480C48D4
:100130001648204899482A4832483A4844484E4888
:1001400058486748714899487B4885488F48AC8E25
:10015000B38E668F6B8FBA90BF90CF90084AD73B13
:100160003BCE016E84BCBFFDC12F3D6C74319ABD86
:1001700056833DDA3D00C77F11BED9E4BB4C3E91AA
:100180006BAAAABE000000803F05A84CCDB2D44E99
:10019000B93836A9020C50B9918688083CA6AAAA9B
:1001A0002ABE000000803F07634236B79BD8A71ADB
:1001B00039685618AEBAAB558C1D3CB7CC5763BDE9
:1001C0006DEDFD753EF6177231BF000000803F08EF
:1001D000000000BE922449123EABAAAA2ABECDCC92
:1001E000CC4C3E00000080BEABAAAAAA3E00000094
:1001F00000BF000000803F0000000000084178D3ED
:10020000BB4387D1133D190E3CC3BD4282AD2B3E8B
:1002100068EC8276BED98FE1A93E4C80EFFFBE012B
:10022000C4FF7F3F0000000000000C9469350C946F
:10023000AA470C9432480C9474350C9454350C94A1
:10024000BF900C9420480C9496470C945C350C9409
:10025000B38E0C949C470C940C480C9485480C94D9
:1002600092470C94B2470C9407480C94CF900C948E
:1002700067480C9481470C94A0470C9460350C940B
:10028000AC8E0C948B470C948E470C94C0470C9406
:100290002F350C944E480C9458480C9450350C94BF
:1002A000668F0C9416480C941D350C94AE470C9434
:1002B00085470C9440350C946B8F0C9448350C9406
:1002C00095EA0C94C5470C9499480C94B8470C9443
:1002D0000B350C94BA900C948F480C9471480C9484
:1002E0007B480C947D470C94BC470C9402480C94BA
:1002F0004C350C9444480C942A480C947B350C944F
:100300003A480C94A4470C9458354E414E494E49F6
:100310005459494E46CDCCCC3D0AD7233C17B7D1D2
:100320003877CC2B329595E6241FB14F0A00002078
:10033000410000C84200401C4620BCBE4CCA1B0EF7
:100340005AAEC59D7400407A10F35A00A0724E1840
:10035000090010A5D4E80000E87648170000E40B77
:1003600054020000CA9A3B000000E1F5050000803D
:10037000969800000040420F000000A08601000097
:1003800000102700000000E80300000000640000E7
:100390000000000A00000000000100000000002C26
:1003A00076D888DC674F0823DFC1DFAE59E1B1B7EB
:1003B00096E5E3E453C63AE651997696E8E6C284B8
:1003C00026EB898C9B62ED407C6FFCEFBC9C9F40D0
:1003D000F2BAA56FA5F490055A2AF75C936B6CF9F5
:1003E000676DC11BFCE0E40D47FEF520E6B500D0CB
:1003F000ED902E0300943577050080841E080000E0
:10040000204E0A000000C80C333333330F986E12AD
:10041000831141EF8D2114893BE65516CFFEE6DBB3
:1004200018D1844B381BF77C1D901DA4BBE42420FD
:100430003284725E228100C9F124ECA1E53D27439C
:100440004F4D4D554E49434154494F4E004452592A
:1004500052554E004552524F5253004543484F00AB
:1004600047322F47332062616420706172616D658D
:10047000746572730A00536C6565702E2E2E005AD7
:100480002050726F62652050617374204265640A67
:10049000005A2050726F626520506173742042656B
:1004A0006400205A3A200020593A20004265642016
:1004B000583A20004D65736820706F696E74206F24
:1004C0007574206F662072616E67650A004D30207A
:1004D00053746F70004D312053746F7000436F6E12
:1004E00074696E7565004E6F204D6F76652E002520
:1004F000697920256964202569682025696D202592
:100500006973005072696E742074696D653A2000D9
:1005100044454255473A004D31313320530042653E
:100520006420436F6F6C696E672E2E2E00426564E7
:100530002048656174696E672E2E2E0041727469C1
:100540006C6C657279205369646577696E64657255
:10055000205831204F46462E002F2F200041636344
:10056000656C65726174696F6E3A20500057415234
:100570004E494E4721204C6F77205A204A65726BB6
:10058000206D6179206C65616420746F20756E77D1
:10059000616E746564207061757365732E0A004620
:1005A000523A0020466C6F773A20002053657276ED
:1005B0006F200050726F6265204F6666736574200D
:1005C0005A0020643A0020693A0020703A006469B9
:1005D000730043290A0061626C656420286D696EAE
:1005E0002074656D702000436F6C642065787472B0
:1005F000756465732061726520004D343231206965
:100600006E636F727265637420706172616D657480
:1006100065722075736167650A004F66667365745D
:1006200073204170706C69656400546F6F2066615F
:10063000722066726F6D207265666572656E6365A5
:1006400020706F696E740A00454550524F4D204F1F
:100650004B0A002028302D313029002076616C753E
:1006600065206F7574206F662072616E676500414A
:100670006476616E6365204B3D005B04050754049E
:100680004D043F044D3231004D323320257300209C
:10069000410020430050726F74656374656420509C
:1006A000696E0A00726F746174696F6E206D617497
:1006B0007269783A0A005A5F6D6F76655F636F6D95
:1006C000700A00206D61783A00206D696E3A004131
:1006D0007869732000416363656C65726174696F4A
:1006E0006E206C696D697465642E0A00534C4F5717
:1006F00000554E4B4E4F574E2053544154450047E2
:10070000434F44455F494E464F004C43445F504180
:100710005553455F524553554D450046494C414D53
:10072000454E545F52554E4F55545F434F4E5449BA
:100730004E55450046494C414D454E545F52554E2D
:100740004F5554004D38373620526573706F6E64C4
:10075000696E672050524F4D50545F004D32340047
:100760004572726F722077726974696E6720746F58
:1007700020454550524F4D210A004E6F2043686579
:10078000636B73756D2077697468206C696E652082
:100790006E756D6265722C204C617374204C696EAD
:1007A000653A2000636865636B73756D206D6973CE
:1007B0006D617463682C204C617374204C696E65A4
:1007C0003A20004C696E65204E756D626572206935
:1007D00073206E6F74204C617374204C696E6520B9
:1007E0004E756D6265722B312C204C617374204CF8
:1007F000696E653A20004D313130002121204B498E
:100800004C4C2063617573656420627920746F6F4E
:10081000206D75636820696E616374697665207404
:10082000696D65202D2063757272656E7420636F2B
:100830006D6D616E643A2000627573793A20706163
:100840007573656420666F7220696E7075740A0036
:10085000627573793A2070617573656420666F7292
:1008600020757365720A00627573793A2070726F31
:1008700063657373696E670A00706F7765726F6680
:1008800066005072696E7465722068616C7465648C
:100890002E206B696C6C28292063616C6C65642167
:1008A0000A0020746F6F206C6F6E67206578747219
:1008B0007573696F6E2070726576656E7465640A13
:1008C0000020636F6C6420657874727573696F6E55
:1008D0002070726576656E7465640A00496E766193
:1008E0006C69642065787472756465720A002020F2
:1008F000506C616E6E65724275666665724279749F
:1009000065733A20002046726565204D656D6F72F3
:10091000793A2000436F6D70696C65643A204665D2
:100920006220203420323032310A00204C6173744E
:1009300020557064617465643A20323032312D3054
:10094000312D3135207C20417574686F723A202832
:10095000444947412D546563682C20415357583111
:100960002076312E30290A00322E302E372E320AD0
:10097000004D61726C696E0020536F66747761720E
:10098000652052657365740A00205761746368645A
:100990006F672052657365740A002042726F776E2C
:1009A000206F75742052657365740A002045787451
:1009B00065726E616C2052657365740A00506F77C2
:1009C000657255700A0020503A00656E6473746F4A
:1009D0007073206869743A200070012C019001271F
:1009E00001B0012201C0011D01F001180110021324
:1009F0000130020E016002090190020401C002FFF1
:100A0000000003FA004003F5008003F000D003EB80
:100A1000002004E6007004E100E004DC004005D79B
:100A200000C005D2004006CD00D006C8008007C334
:100A3000003008BE00F008B900C009B400B00AAF29
:100A400000B00BAA00D00CA500000EA000500F9B18
:100A500000C01096005012910000148C00C0158741
:100A600000B0178200B0197D00D01B7800001E7303
:100A70000040206E0090226900F024640040275F4F
:100A80000090295A00E02B5500102E500020304BCA
:100A90000010324600E033410090353C00103737FB
:100AA0000070383200A0392D00B03A2800A03B2356
:100AB00000603C1E00103D1900903D1400103E0FD8
:100AC00000703E0A00C03E0500003F0000403FFBB2
:100AD000FF803FF6FFC03FF1FF00000A0B02090C48
:100AE0000D0E0807030401000000000000000000D4
:100AF00000000000000000000000000000000000F6
:100B000000000000001211100000000000000000B2
:100B10000000000000000000000000000000005382
:100B2000544F505045442E20005072696E746572C7
:100B30002073746F707065642064756520746F2015
:100B40006572726F72732E20466978207468652012
:100B50006572726F7220616E6420757365204D3905
:100B6000393920746F20726573746172742E202875
:100B700054656D7065726174757265206973207259
:100B8000657365742E2053657420697420616674E2
:100B900065722072657374617274696E67290A00E8
:100BA00021212053544F502063616C6C6564206296
:100BB000656361757365206F6620424C546F756381
:100BC00068206572726F72202D2072657374617275
:100BD000742077697468204D3939390A002F2F61E4
:100BE0006374696F6E3A006E6F74696669636174ED
:100BF000696F6E2000626567696E00627574746F5C
:100C00006E00656E640070726F6D70745F00736863
:100C10006F770050757267654D6F72650050617532
:100C20007365640053656E64204D31303820746FF5
:100C300020726573756D650A005265686561742080
:100C4000446F6E6500526568656174696E672E2E2B
:100C50002E00526568656174004865617465722094
:100C600054696D656F75740053656E64204D313045
:100C70003820746F2068656174206E6F7A7A6C65B5
:100C80000A004E6F7A7A6C65205061726B65640061
:100C9000486F74656E6420746F6F20636F6C640AB4
:100CA00000706175736564005061757365004C6F09
:100CB00061642046696C616D656E74205400496EF4
:100CC000736572742066696C616D656E7420616E07
:100CD000642073656E64204D3130380A007265738C
:100CE000756D6564004469736D6973730052657353
:100CF000756D696E670057616974696E6720666F0C
:100D000072206865617475702E0A004C65617669A1
:100D10006E6720473236003F5370656369666965C8
:100D20006420582C5920636F6F7264696E6174651A
:100D3000206F7574206F6620626F756E64732E0A63
:100D4000003F28522965706561742076616C756575
:100D5000206E6F7420706C61757369626C653B20E6
:100D60006D757374206265206174206C65617374A5
:100D700020312E0A003F2852296570656174206D6C
:100D80007573742062652073706563696669656454
:100D9000207768656E206E6F74207573696E6720AA
:100DA000616E204C43442E0A003F537065636966B0
:100DB000696564206E6F7A7A6C652074656D706504
:100DC000726174757265206E6F7420706C617573DA
:100DD00069626C652E0A003F5370656369666965D8
:100DE000642066696C616D656E742073697A652034
:100DF0006E6F7420706C61757369626C652E0A0089
:100E00003F537065636966696564207072696D65DA
:100E1000206C656E677468206E6F7420706C6175ED
:100E20007369626C652E0A003F5072696D65206CB3
:100E3000656E677468206D757374206265207370C9
:100E400065636966696564207768656E206E6F7496
:100E5000207573696E6720616E204C43442E0A0032
:100E60003F537065636966696564206E6F7A7A6C5A
:100E7000652073697A65206E6F7420706C6175737C
:100E800069626C652E0A003F526574726163746911
:100E90006F6E204D756C7469706C696572206D752C
:100EA0007374206265207370656369666965642E7A
:100EB0000A003F5370656369666965642052657412
:100EC00072616374696F6E204D756C7469706C69C2
:100ED0006572206E6F7420706C61757369626C65E9
:100EE0002E0A003F537065636966696564206C6112
:100EF00079657220686569676874206E6F74207008
:100F00006C61757369626C652E0A0043292E0A00B4
:100F10003F53706563696669656420626564207427
:100F2000656D7065726174757265206E6F74207086
:100F30006C61757369626C65202834302D0047320E
:100F400036207374617274696E672E2E2E0A004803
:100F50006F6D652025732573257320466972737440
:100F6000005761726E696E673A20486F6D696E67EF
:100F70002042756D702044697669736F72203C2041
:100F8000310A000000484200004842000080400250
:100F900002040000A0400000A04000000040FFFF4D
:100FA000FF0900000A010008000A01000A09000008
:100FB000000A000800B00FAB0FA60FA10F000080C1
:100FC0003FABAA0A42ABAA88420000CC42ABAA07B8
:100FD000435655294300004B43ABAA6C43AB2A87C9
:100FE00043000098435D0A0062656420706C616E86
:100FF00065206E6F726D616C203D205B00436F75E4
:101000006C64206E6F7420636F6D706C6574652006
:101010004C5346210054696C74696E67206D65738A
:101020006820706F696E7420003F4572726F722085
:1010300070726F62696E6720706F696E742E2041E6
:10104000626F7274696E67206F7065726174696F28
:101050006E2E0A0054696C74696E67206D65736842
:101060002028332F33290A0054696C74696E672075
:101070006D6573682028322F33290A00436F72721E
:1010800065637465645F5A3D0054696C74696E678A
:10109000206D6573682028312F33290A00646F6E34
:1010A000650A00496E73756666696369656E7420CA
:1010B000646174610A004578747261706F6C617468
:1010C000696E67206D6573682E2E2E003F5A206F63
:1010D0007574206F662072616E67652028003F5925
:1010E000206F7574206F662072616E676520282DF1
:1010F000003F58206F7574206F662072616E6765BF
:1011000020282D0050726F6265204F6666736574EB
:101110002058006F6B00526573656E643A2000239F
:10112000646566696E652044454641554C545F00D0
:101130004B6420004B6920004B7020005049442034
:101140004175746F74756E652066696E6973686544
:1011500064212050757420746865206C617374205C
:101160004B702C204B6920616E64204B6420636FB0
:101170006E7374616E74732066726F6D2062656C3D
:101180006F7720696E746F20436F6E666967757242
:101190006174696F6E2E680A00504944204175746D
:1011A0006F74756E65206661696C65642120746971
:1011B0006D656F75740A000A20436C61737369630F
:1011C00020504944200A00204B643A2000204B69FB
:1011D0003A2000204B703A20000A204E6F206F7694
:1011E000657273686F6F740A002054753A2000208E
:1011F0004B753A2000206D61783A2000206D696EB1
:101200003A200020643A200020626961733A20008D
:10121000504944204175746F74756E652073746114
:1012200072740A00504944204175746F74756E657C
:10123000206661696C6564212054656D706572611A
:101240007475726520746F6F20686967680A005052
:101250004944204175746F74756E6500504944208F
:101260004175746F74756E65206661696C65642183
:1012700020426164206578747275646572206E75B1
:101280006D6265720A0050726F62696E6720466116
:10129000696C65640A0050726F62696E672046610E
:1012A000696C65640047323800446F6E652E0A0031
:1012B0003F496E76616C69642073746F7261676513
:1012C00020736C6F742E0A3F557365203020746F45
:1012D00020003F5034206973206F6E6C7920617656
:1012E00061696C61626C65207768656E20616E2053
:1012F0004C43442069732070726573656E742E0AC6
:10130000003F5032206973206F6E6C7920617661E6
:10131000696C61626C65207768656E20616E204C37
:1013200043442069732070726573656E742E0A00E1
:1013300050726F62696E672061726F756E642028EB
:10134000004D65736820696E76616C6964617465CF
:10135000642E2050726F62696E67206D6573682E0F
:101360000A004D657368207A65726F65642E0A0005
:1013700044656661756C742073746F726167652073
:10138000736C6F7420302073656C65637465642EB4
:101390000A004C6F6164696E6720746573745F70D6
:1013A00061747465726E2076616C7565732E0A0ABD
:1013B00000496E76616C696420746573745F706156
:1013C000747465726E2076616C75652E20282D31DF
:1013D00020746F2032290A0A004C6F636174696FB0
:1013E0006E7320696E76616C6964617465642E0A3F
:1013F0000A00456E74697265204D65736820696ED8
:1014000076616C6964617465642E0A0A00537461C4
:101410006E6461726420446576696174696F6E3AC6
:10142000200046696E6973686564210A003A207A73
:101430003A2000206F662000476F696E6720746F46
:101440003A20580043570A00206469723A0020612C
:101450006E676C653A0053746172742072616469DE
:1014600075733A00506F736974696F6E696E6720A7
:101470007468652070726F62652E2E2E0A003F4CD4
:10148000656773206F66206D6F76656D656E74207D
:10149000696D706C61757369626C652028302D31DF
:1014A00035292E0A003F2028582C5929206F7574A1
:1014B000206F6620626F756E64732E0A0050726F23
:1014C0006265206F7574206F6620626F756E64733D
:1014D000003F53616D706C652073697A65206E6F93
:1014E0007420706C61757369626C652028342D35C9
:1014F00030292E0A004D3438205A2D50726F626503
:10150000205265706561746162696C6974792054F8
:101510006573740A003F2856296572626F736520EF
:101520006C6576656C20696D706C61757369626C51
:10153000652028302D34292E0A002052616E6765FF
:101540003A2000205369676D613A20004D65616E55
:101550003A2000204D393220580020204D61783A41
:10156000200020204D696E3A2000536F667420657C
:101570006E6473746F70733A200020496E76616CEC
:1015800069642065787472756465722000202D206E
:10159000496E76616C6964206578747275646572F1
:1015A000206E756D62657220210A00544845524DC7
:1015B000414C2052554E4157415900546865726D57
:1015C000616C2052756E61776179004572723A20C4
:1015D0004D415854454D50004D415854454D5020B3
:1015E000747269676765726564004572723A204D6E
:1015F000494E54454D50004D494E54454D50207470
:10160000726967676572656400202F002042403A66
:101610000020403A0020573A004D3130362050002B
:1016200000809843008098430000C84300000000F9
:10163000000000000000000053657474696E677359
:101640002053746F7265640053657474696E6773B8
:101650002053746F72656420280024F4D43050C382
:101660008E20C2A24017828B7011127A910D816C6C
:10167000D90AA861E108C7586607615143061E4BA5
:101680005D05C145A7041A411104093D980371394C
:1016900031034036DB0265339102D4305402802E90
:1016A0001D02632CEE01752AC501B028A001102788
:1016B00081018F2564012B244B01E0223401AC21F0
:1016C0001F018D200D01801FFC00841EED00971D61
:1016D000DF00B81CD200E61BC600201BBC00641A49
:1016E000B200B219A8000A19A0006A189900D1170F
:1016F000910040178B00B516840031167E00B3159B
:1017000079003A157300C7146F0058146A00EE137D
:1017100066008813630025135E00C7125B006C121D
:10172000570015125400C111510070114F002111C2
:101730004B00D61049008D1047004610440002109F
:101740004200C00F4000800F3E00420F3C00060FD9
:101750003B00CB0E3800930E37005C0E3500270E91
:101760003400F30D3200C10D3100900D3000600DDA
:101770002E00320D2D00050D2C00D90C2B00AE0CC7
:101780002900850C29005C0C2700350C27000E0C65
:101790002600E80B2400C40B2400A00B23007D0BC3
:1017A00023005A0B2100390B2100180B2000F80AE6
:1017B0001F00D90A1E00BB0A1E009D0A1D00800AD8
:1017C0001D00630A1C00470A1B002C0A1B00110A9B
:1017D0001A00F7091A00DD091900C4091900AB093C
:1017E0001900920917007B091800630917004C09BA
:1017F000160036091600200916000A091500F5081A
:101800001500E0081400CC081400B8081400A4085F
:101810001400900813007D0812006B08130058088C
:1018200012004608120034081100230811001208A3
:10183000110001081100F0071000E0071000D007A8
:101840001000C0071000B0070F00A107100091079B
:101850000E0083070F0074070F0065070E0057077F
:101860000E0049070E003B070D002E070E00200753
:101870000D0013070D0006070D00F9060C00ED061C
:101880000D00E0060C00D4060C00C8060C00BC06D7
:101890000C00B0060C00A4060B0099060C008D0687
:1018A0000B0082060B0077060B006C060B0061062E
:1018B0000A0057060B004C060A0042060A003806CA
:1018C0000A002E060A0024060A001A060A0010065C
:1018D000090007060A00FD050900F4050900EB05EB
:1018E0000900E2050900D9050900D0050900C7056E
:1018F0000900BE050900B5050800AD050800A505ED
:1019000009009C050800940508008C050800840562
:1019100008007C050800740508006C0507006505D3
:1019200008005D050700560508004E05070047053D
:1019300007004005080038050700310507002A05A3
:101940000700230507001C050600160507000F0504
:1019500007000805060002050700FB040600F50461
:101960000700EE040600E8040600E2040700DB04BA
:101970000600D5040600CF040600C9040600C3040F
:101980000600BD040600B7040600B1040500AC045F
:101990000600A6040600A00405009B0406009504AA
:1019A0000500900406008A040500850405008004F3
:1019B00006007A04050075040500700405006B0438
:1019C000050066040500610405005C040500570479
:1019D0000500520405004D040500480405004304B9
:1019E00005003E0404003A040500350405003004F7
:1019F00004002C04050027040400230405001E0431
:101A000004001A04040016040500110404000D0467
:101A10000400090405000404040000040400FC039D
:101A20000400F8030400F4030400F0030400EC03D2
:101A30000400E8030400E4030400E0030400DC0302
:101A40000400D8030400D4030400D0030400CC0332
:101A50000400C8030300C503030024F404D9201BB9
:101A6000C40C5C0E9804C4095F0265077101F4059B
:101A7000F900FB04B30048048700C1036900580360
:101A8000550003034500BE023A00840231005302B0
:101A90002A002902250004022000E4011C00C801DC
:101AA0001900AF011700980114008401130071019F
:101AB00010006101100051010E0043010D003601BC
:101AC0000B002B010B0020010B00150109000C017C
:101AD000090003010800FB000800F3000800EB0008
:101AE0000700E4000600DE000600D8000600D20071
:101AF0000600CC000500C7000500C2000500BD00BF
:101B00000400B9000400B5000400B1000400AD00F9
:101B10000400A9000400A5000300A20003009F0028
:101B200004009B000300980003009500020093004E
:101B30000300900003008D0002008B00030088006A
:101B400002008600020084000300810002007F0082
:101B500002007D0002007B00020079000200770095
:101B600001007600020074000200720001007100A2
:101B700002006F0002006D0001006C0002006A00AC
:101B800001006900020067000100660001006500B5
:101B900001006400020062000100610001006000B9
:101BA00001005F0002005D0001005C0001005B00BD
:101BB00001005A00010059000100580001005700BF
:101BC00001005600010055000100540001005300BF
:101BD00000005300010052000100510001005000BC
:101BE00001004F0001004E0000004E0001004D00BA
:101BF00001004C0001004B0000004B0001004A00B6
:101C000001004900010048000000480001004700B1
:101C100001004600000046000100450000004500AC
:101C200001004400010043000000430001004200A5
:101C3000000042000100410000004100010040009E
:101C400001003F0000003F0001003E0000003E0098
:101C500001003D0000003D0001003C0000003C0090
:101C600000003C0001003B0000003B0001003A0086
:101C700000003A000100390000003900010038007E
:101C80000000380000003800010037000000370075
:101C9000010036000000360000003600010035006B
:101CA0000000350000003500010034000000340061
:101CB0000000340001003300000033000000330056
:101CC000010032000000320000003200010031004B
:101CD0000000310000003100010030000000300041
:101CE0000000300001002F0000002F0000002F0036
:101CF00000002F0001002E0000002E0000002E002A
:101D000001002D0000002D0000002D0000002D001E
:101D100001002C0000002C0000002C0000002C0012
:101D200001002B0000002B0000002B0000002B0006
:101D300001002A0000002A0000002A0000002A00FA
:101D400001002900000029000000290000002900EE
:101D500000002900010028000000280000002800E1
:101D600000002800000028000100270000002700D4
:101D700000002700000027000000270001002600C7
:101D800000002600000026000000260000002600BB
:101D900001002500000025000000250000002500AE
:101DA00000002500000025000100240000002400A0
:101DB0000000240000002400000024000100230093
:101DC0000000230000002300000023000000230087
:101DD0000000230000002300010022000000220078
:101DE000000022000000220000002200000022006B
:101DF000010021000000210000002100000021005E
:101E0000000021000000210000002100010020004E
:101E10000000200000002000000020000000200042
:101E200000002000000020000000200001001F0032
:101E300000001F0000001F0000001F0000001F0026
:101E400000001F0000001F0001001E0000001E0017
:101E500000001E0000001E000000C23100001C2611
:101E60000000F4190000D80F0000EB080000C004C7
:101E7000000075020000400100006563686F3A00D1
:101E80004572726F723A00204A0020204D34323180
:101E9000204900202047323920493939390A006168
:101EA00063746976650A002053797374656D2076D2
:101EB000312E303120002020207C0A004E414E007F
:101EC00020202E20202000207C004C43443A0A0091
:101ED0004353563A0A0020666F7220003A0A0A00FD
:101EE0000A42656420546F706F6772617068792070
:101EF0005265706F7274002052004D6573682073D4
:101F00006176656420696E20736C6F7420003F55A4
:101F10006E61626C6520746F2073617665206D65FB
:101F2000736820646174612E0A0020736C6F743DC5
:101F300000206D65736865735F656E643D004532B2
:101F4000454E443D00206D65736820736C6F74735B
:101F500020617661696C61626C652E0A003F496E92
:101F600076616C696420736C6F742E0A004D657322
:101F700068206C6F616465642066726F6D20736C9D
:101F80006F7420003F556E61626C6520746F206C29
:101F90006F6164206D65736820646174612E0A004E
:101FA00048617264636F6465642044656661756C42
:101FB000742053657474696E6773204C6F61646537
:101FC000640A00556E696669656420426564204C48
:101FD0006576656C696E67003B200020204D3630C9
:101FE00033200020550046696C616D656E74206C6D
:101FF0006F61642F756E6C6F6164206C656E6774C1
:1020000068733A0020204D393030204B004C696E07
:1020100065617220416476616E63653A0020204DEF
:102020003835312058005A2D50726F6265204F6646
:10203000667365740020204D33303420500020201A
:102040004D33303120500050494420736574746919
:102050006E67733A00206D65736865732E0A0A0017
:10206000454550524F4D2063616E20686F6C64206F
:1020700000416374697665204D65736820536C6F09
:10208000743A200020204D34323020530020204D5F
:10209000323036205800486F6D65206F6666736574
:1020A000743A0020204D3230352042004164766180
:1020B0006E6365643A20423C6D696E5F7365676D5F
:1020C000656E745F74696D655F75733E20533C6D1A
:1020D000696E5F66656564726174653E20543C6D2F
:1020E000696E5F74726176656C5F66656564726166
:1020F00074653E20583C6D61785F785F6A65726BED
:102100003E20593C6D61785F795F6A65726B3E2055
:102110005A3C6D61785F7A5F6A65726B3E20453C20
:102120006D61785F655F6A65726B3E0020204D329D
:102130003034205000416363656C65726174696F6F
:102140006E2028756E6974732F7332293A20503CC3
:102150007072696E745F616363656C3E20523C729D
:102160006574726163745F616363656C3E20543CA7
:1021700074726176656C5F616363656C3E002020FC
:102180004D3230312058004D6178696D756D2041B8
:102190006363656C65726174696F6E2028756E6922
:1021A00074732F7332293A002045002059002020F3
:1021B0004D3230332058004D6178696D756D206661
:1021C00065656472617465732028756E6974732F18
:1021D00073293A0053746570732070657220756EB0
:1021E00069743A0020440020204D323030205300E2
:1021F0002044697361626C65640A0046696C616DB4
:10220000656E742073657474696E67733A00202874
:102210006D6D29002020473231202020203B2055A1
:102220006E69747320696E206D6D00000048430074
:102230000048430000A04100002042F43DA042F4C9
:102240003DA04296E3C7430080DE43D0070000D0A4
:102250000700006400000010270000206279746508
:10226000733B2063726320004E6F20454550524FF0
:102270004D2E0A00454550524F4D206461746173E4
:10228000697A65206572726F722E0A004545505258
:102290004F4D2056657273696F6E204572726F7272
:1022A00000454550524F4D20496E64657820457277
:1022B000726F7200454550524F4D204352432045A6
:1022C00072726F72003F4D65736820746F6F206289
:1022D000696720666F7220454550524F4D2E0A00A7
:1022E00055424C2072657365740A00206C6F6164FE
:1022F00065642066726F6D2073746F726167652EFE
:102300000A004D65736820003F43616E27742065A5
:102310006E61626C65200020696E697469616C6928
:102320007A65642E0A0A002073746F7265642073E4
:10233000657474696E677320726574726965766519
:1023400064202800202863616C63756C6174656487
:1023500029210A0020213D2000454550524F4D20A3
:10236000435243206D69736D61746368202D20288A
:1023700073746F7265642920002053697A653A206E
:1023800000496E6465783A200044494749504F54EB
:1023900053204C6F616465640A0044494749504FBB
:1023A0005453204C6F6164696E670A00204D61725E
:1023B0006C696E3D563832290A00454550524F4DE2
:1023C0002076657273696F6E206D69736D617463D9
:1023D000682028454550524F4D3D00486F6D696E4D
:1023E00067204661696C6564006F70656E005452C9
:1023F00049474745524544007A5F70726F626500F5
:102400007A5F6D696E00795F6D696E00785F6D69E6
:102410006E005265706F7274696E6720656E6473CA
:10242000746F70207374617475730A004D65616E0A
:10243000204D657368204865696768743A200023F9
:10244000206F662073616D706C65733A20000A50CE
:10245000726F62696E67206D65736820706F696E58
:10246000742000496E76616C6964206D617020741F
:102470007970652E0A0A003F284629616465206844
:10248000656967687420666F7220426564204C65D8
:1024900076656C20436F7272656374696F6E206E2F
:1024A0006F7420706C61757369626C652E0A0A0026
:1024B0003F43616E2774206163746976617465209F
:1024C000616E64206465616374697661746520611E
:1024D00074207468652073616D652074696D652E64
:1024E0000A0A00426F7468205820262059206C6F19
:1024F000636174696F6E73206D75737420626520FB
:102500007370656369666965642E0A0A003F496EE7
:1025100076616C696420677269642073697A6520EA
:10252000284A2920737065636966696564202832CA
:102530002D39292E0A0A003F285029686173652029
:1025400076616C756520696E76616C6964202830EF
:102550002D36292E0A0A003F2856296572626F73AC
:1025600065206C6576656C20696D706C617573694A
:10257000626C652028302D34292E0A0A003F28522B
:1025800029657065746974696F6E20636F756E7408
:1025900020696E76616C69642028312B292E0A0A25
:1025A0000020436F756E7420583A00453100626513
:1025B00064002C2073797374656D2073746F707070
:1025C000656421204865617465725F49443A200062
:1025D00048656174696E67204661696C656400488E
:1025E000656174696E67206661696C6564004D3170
:1025F00031322053687574646F776E0000446966E9
:10260000663A2020200046726F6D5374703A005372
:102610007465707065723A00556E4C6576656C3AFB
:10262000004C6576656C65643A005261773A20200B
:102630002020000A4C6F676963616C3A00436F7534
:102640006E7420453A004361703A007D007D7D2C18
:10265000776F726B3A7B6D696E3A7B783A007D2CAE
:102660006D61783A7B783A002C7A3A002C793A00FE
:10267000617265613A7B66756C6C3A7B6D696E3A26
:102680007B783A004348414D4245525F54454D5096
:1026900045524154555245004241425953544550C8
:1026A00050494E470041524353004D4F54494F4EFD
:1026B0005F4D4F44455300544845524D414C5F5087
:1026C000524F54454354494F4E004C4F4E475F467E
:1026D000494C454E414D45004155544F5245504F90
:1026E00052545F53445F5354415455530053444331
:1026F0004152440050524F4D50545F535550504F2B
:10270000525400454D455247454E43595F50415242
:1027100053455200434153455F4C494748545F423B
:1027200052494748544E45535300544F47474C4530
:102730005F4C494748545300534F46545741524504
:102740005F504F574552004255494C445F504552E7
:1027500043454E54004C4556454C494E475F444115
:102760005441005A5F50524F4245004155544F4C1E
:102770004556454C005052494E545F4A4F42005016
:10278000524F4752455353004155544F5245504FB5
:1027900052545F54454D5000564F4C554D45545280
:1027A000494300454550524F4D0042494E41525910
:1027B0005F46494C455F5452414E53464552005383
:1027C000455249414C5F584F4E5F584F4646004670
:1027D00049524D574152455F4E414D453A4D617208
:1027E0006C696E20322E302E372E32202D20444937
:1027F00047412D5465636820415357583120763145
:102800002E3020284665622020342032303231209C
:1028100031313A33363A31372920534F55524345F7
:102820005F434F44455F55524C3A68747470733A35
:102830002F2F6769746875622E636F6D2F4D6172FB
:102840006C696E4669726D776172652F4D61726C4D
:10285000696E2050524F544F434F4C5F5645525370
:10286000494F4E3A312E30204D414348494E455F45
:10287000545950453A417274696C6C6572792053B1
:1028800069646577696E64657220583120455854D3
:1028900052554445525F434F554E543A3120555599
:1028A00049443A63656465326132662D3431613280
:1028B0002D343734382D396231322D633535633656
:1028C000326633363766660A00220A00556E6B6E32
:1028D0006F776E20636F6D6D616E643A2022002009
:1028E0005A3A0020593A0000002200250028002B07
:1028F000002E003100340002010000050108010B28
:102900000100002100240027002A002D00300033A0
:102910000001010000040107010A01050505050782
:102920000508080808020202020A0A08080404044A
:102930000401010101010101010303030303030376
:1029400003040707070C0C0C0C0C0C0C0C02020205
:102950000206060606060606060B0B0B0B0B0B0BF8
:102960000B01021020200808102040102040800297
:1029700001020108040201010204081020408080C5
:102980004020100804020180040201804020100849
:102990000402010804020101020408102040800121
:1029A000020408102040803F454550524F4D20738F
:1029B000746F72616765206E6F7420617661696CF7
:1029C00061626C652E0A004F46460A0046616465E6
:1029D000204865696768742000426564204C65760C
:1029E000656C696E6720004661696C656420746F70
:1029F00020656E61626C6520426564204C65766579
:102A00006C696E670A00496E76616C6964206D6559
:102A100073682E0A0076616C69640A53746F726180
:102A2000676520736C6F743A20004D657368206988
:102A30007320003F496E76616C69642073746F7215
:102A400061676520736C6F742E0A000095EA11248B
:102A50001FBECFEFD1E2DEBFCDBF00E00CBF12E062
:102A6000A0E0B2E0E6E6F7EF01E00BBF02C007909E
:102A70000D92AA3DB107D9F724E1AAEDB2E001C059
:102A80001D92A439B207E1F715E1C7E2D5E100E0F4
:102A900006C021970109802FFE010E9418F7C63257
:102AA000D10780E00807A9F70E9476E60C94B1FBF5
:102AB0000C9400002F923F924F925F926F927F9200
:102AC0008F929F92AF92BF92CF92DF92EF92FF923E
:102AD0000F931F93CF93DF93CDB7DEB7E5970FB674
:102AE000F894DEBF0FBECDBF8CAB2091E7022AABBE
:102AF000FF24F394F092E7028091C8108D3409F41A
:102B000011C3843511F40C94C026873411F00C9451
:102B1000D2268091C6109091C7108B31910509F48F
:102B20001BC1B4F48430910534F482309105DCF596
:102B300097FF2DC0F3C28531910511F40C94D42672
:102B40008A31910509F404C1049709F0E7C2C6C0AF
:102B50008A32910509F430C254F48D31910509F49B
:102B60002BC10CF419C14E9709F42AC1D7C28B3579
:102B7000910509F49EC18C35910509F49FC18A35F0
:102B8000910509F0CBC21092E6020C94D4268091F4
:102B9000B009813011F00C94D4260E9449920E9411
:102BA00015630C94D4262091B009213011F00C94B7
:102BB000D42611E0029709F010E00E944992198290
:102BC0001A821B821C821D821E821F82188682E549
:102BD0000E943D87882309F44BC00E94B8866B0190
:102BE0007C0120E030E0A9010E943FF0882309F435
:102BF00055C08091B3139091B413A091B513B091C7
:102C0000B6138EA39FA3A8A7B9A78091B7139091DD
:102C1000B813A091B913B091BA138EA79FA7A8AB10
:102C2000B9AB8090C60F9090C70FA090C80FB0901E
:102C3000C90F4090CA0F5090CB0F6090CC0F70908E
:102C4000CD0FA50194016EA17FA188A599A50E9431
:102C50003FF081110C94EA26A30192016EA57FA595
:102C600088A999A90E943FF08823C1F00C94EA2614
:102C700089E40E943D87882331F00E94B8866983E9
:102C80007A838B839C838AE40E943D87882331F07A
:102C90000E94B8866D837E838F83988720E030E022
:102CA000A90169817A818B819C810E943FF0811109
:102CB0000C949E2720E030E0A9016D817E818F81F8
:102CC00098850E943FF081110C949E270E94CBB8FA
:102CD00080E694E00E9452B60C94D42680E50E94CF
:102CE0003D87882329F00E9455956B017C0103C024
:102CF000C12CD12C760183E50E943D87882361F0A9
:102D00000E94B88620E030E04AE754E40E94A5F033
:102D10000E9494F86B017C010E943DA886E794E034
:102D20000E94434F0E94DC48C60ED71EE81EF91EC3
:102D30000E94DC48DC01CB018C199D09AE09BF095A
:102D4000B7FD02C00C94D42680E00E946B30F0CF17
:102D50000E9473540C94D42687E00E94C3628111B0
:102D60000C94D4268CE0E4E6F2E0DE0111960190AA
:102D70000D928A95E1F780E50E943D87882321F036
:102D80000E94A486862F01C080E0BE016F5F7F4F46
:102D90000E9417CC0C94D4268091A11087708730A4
:102DA00011F00C94B12760E08FE40E945E54811111
:102DB0000C94D4260C94B1270E945F8B0C94D426DB
:102DC0002091061330910713409108135091091375
:102DD0006091B3137091B4138091B5139091B613B1
:102DE0000E9421F7AB01BC0188E50E94017869834C
:102DF0007A838B839C8320910A1330910B1340912B
:102E00000C1350910D136091B7137091B81380910A
:102E1000B9139091BA130E9421F7AB01BC0189E567
:102E20000E9401786D837E838F839887BE016B5FDC
:102E30007F4FCE0101960E94E687882311F40C94FF
:102E4000D42680E00E9463B40E9477C761E085E4E5
:102E50000E945E5401E021E041E0682FCE0101961E
:102E60000E949B886B017C019B01AC010E946EFA61
:102E7000811119C049815A816B817C818CEA94E06F
:102E80000E949AB84D815E816F81788587EA94E0CF
:102E90000E949AB8B701A60182EA94E00E949AB80B
:102EA0008AE00E94DC2E0E945EC70E94BCC90C947E
:102EB000D4268FE08093E6020C94D426ECE72E2EE5
:102EC000E2E03E2EF5E9EF2EF0E1FF2E23EB33E1B9
:102ED0003FA32EA3A7EACA2EA3E1DA2E00E010E05A
:102EE000D1018D911D010E943D87882309F44BC0BB
:102EF0000E94B8862B013C01133049F0F601208175
:102F00003181428153810E9420F72B013C01AEA107
:102F1000BFA12D913D914D915C91C301B2010E94E1
:102F200020F74B015C012DEB37E346E855EB0E949F
:102F300081F987FD0AC02DEB37E346E855E3C5016B
:102F4000B4010E943FF01816F4F4133051F440928B
:102F5000BF135092C0136092C1137092C21301E06C
:102F600012C0A5019401F701608171818281938172
:102F70000E9421F7D7016D937D938D939C931397B6
:102F8000812F0E944B611F5FB4E0EB0EF11CEEA19C
:102F9000FFA13496FFA3EEA3F4E0CF0ED11C1430B2
:102FA00009F09ECF002321F08FEB93E10E944EA801
:102FB0000E94BCC90C94D4268091B009813011F0D4
:102FC0000C94D42689E40E943D87082F882321F0A1
:102FD0000E94B486E82E01C0E12C8AE40E943D875D
:102FE000182F882321F00E94B486F82E01C0F12CFE
:102FF000002319F029E02E1528F0112349F039E0BB
:103000003F1530F484EB94E00E9452B60C94D42621
:1030100080E1E3EBF3E1A6ECBFE001900D928A952D
:10302000E1F7002359F08E2D0E94FD8A6093C60FB0
:103030007093C70F8093C80F9093C90F112359F055
:103040008F2D0E94FD8A6093CA0F7093CB0F8093DF
:10305000CC0F9093CD0F60E080E50E945E548823F2
:10306000C1F10023D1F02091061330910713409154
:103070000813509109136091C60F7091C70F80918A
:10308000C80F9091C90F0E9420F76093C60F7093EC
:10309000C70F8093C80F9093C90F1123D1F02091CF
:1030A0000A1330910B1340910C1350910D13609142
:1030B000CA0F7091CB0F8091CC0F9091CD0F0E94D1
:1030C00020F76093CA0F7093CB0F8093CC0F90932F
:1030D000CD0F40E050E0BA0186E40E9401786B0118
:1030E0007C0120E030E0A9010E9481F918164CF41F
:1030F00020E030E040E752E4C701B6010E941BF82F
:1031000003C060E070E0CB0169837A838B839C838A
:10311000CE0101960E9494C80C94D4260E9485E4A6
:103120000C94D4260091C6101091C7100B391105CC
:1031300009F40BC40CF0C5C00A36110509F413C319
:103140000CF06CC00D34110509F4AEC25CF502310F
:10315000110509F4E0C474F417FF02C00C94BD26F5
:10316000023011050CF490C10131110509F4D6C1EA
:103170000C94BD260033110509F48EC234F40F31CE
:10318000110509F4DFC10C94BD260B34110509F4B7
:1031900087C20C34110511F00C94BD260E94EDCBB2
:1031A0000C94D4260435110509F4B5C414F5023580
:1031B000110509F4A0C40CF0A6C40135110511F0E5
:1031C0000C94BD260E9410A00E9402CC0E94FDA972
:1031D0001092220480E00E94599968EE73E080E02A
:1031E00090E00E94B6B58CE395E00E94434F0C94AA
:1031F000D4260C35110509F4EAC434F4053511055B
:1032000009F4C0C40C94BD260836110509F450C257
:103210000936110509F493C20C94BD260337110534
:1032200009F479C50CF50E36110509F4D0C244F441
:103230000C36110511F40C94D4260CF4BBC258C200
:103240000037110511F40C94D4260CF4D3C20137C5
:10325000110509F41AC30237110511F00C94BD26AB
:103260000E94D8E10C94D4260837110509F4AAC5A8
:1032700064F40637110509F464C50CF09FC50537E1
:10328000110509F44CC50C94BD260D37110509F440
:1032900084C36CF40937110511F00C94BD2610920B
:1032A000AC091092AB090E94C6CA0C94D4260C3803
:1032B000110509F414C30639110509F48BC50C94E2
:1032C000BD26013981E0180711F40C9407230CF096
:1032D0005AC00C3D110509F4D4C634F50B3C110558
:1032E00009F447C674F4083C110509F4B0C5093C5B
:1032F000110509F417C60E3B110511F00C94BD26FB
:103300000FC30D3C110509F48CC60CF456C60E3CD7
:10331000110509F499C6033D110511F00C94BD2661
:103320000E942B940C94D4260D32A1E01A0711F4BC
:103330000C94CD2184F40831E1E01E0709F41EC786
:103340000232F1E01F0709F4B0C70D3D110511F07D
:103350000C94BD26BDC60F3221E0120711F40C9467
:10336000042314F40C94C022003381E0180711F4F4
:103370000C944D220039114011F00C94BD260E948E
:103380003DA80C94D426073FA1E01A0711F40C9431
:103390000824DCF5053AE1E01E0711F40C940F2334
:1033A000BCF40A3921E0120711F40C94D426043A33
:1033B00031E0130711F40C940C230239114011F081
:1033C0000C94BD260E94D3870E94BCC90C94D426BD
:1033D000043F91E0190711F40C9402243CF40C3AD8
:1033E000114011F40C94A5230C94BD26053FE1E097
:1033F0001E0711F40C940524063F114011F00C94A3
:10340000BD260E94E7BA0C94D4260E3B22E0120798
:1034100011F40C949225DCF4083582E0180711F4BD
:103420000C9421243CF4083F114011F40C94102416
:103430000C94BD260B35B2E01B0711F40C94242428
:103440000D3B124011F40C949D240C94BD260C36B7
:10345000F3E01F0711F40C94D4264CF40335134009
:1034600011F00C94BD260E94607E0C94D426043882
:1034700083E0180711F40C944926073E134011F419
:103480000C94B1260C94BD2680E50E943D878823CC
:1034900029F00E9455956B017C0103C0C12CD12CF1
:1034A000760183E50E943D87882361F00E94B886FB
:1034B00020E030E04AE754E40E94A5F00E9494F82E
:1034C0006B017C010E943DA88091C4109091C510B1
:1034D000892B41F00E94CFB88091C4109091C51003
:1034E0000E9445308091C6109091C710892B19F029
:1034F00065ED74E002C06DEC74E040E082E00E9493
:10350000F54B8DED94E00E94254C0E94DD4B40E090
:10351000C701B6010E9462340C94D4268091C91070
:1035200084FF02C00C948D298091CB1087FF02C0CC
:103530000C948D298091CC10837011F00C948D29FE
:103540000C94AA290E947ACB7B018C0120E831E5FA
:1035500041E050E00E9495F6C9016DE671E00E94DD
:1035600004F74B015C01C801B70120E13EE040E0F7
:1035700050E00E9495F6CA01B90128E130E040E030
:1035800050E00E9495F6762E672EC62ED72E7CE34D
:10359000272E312C412C512CC801B701A2019101D9
:1035A0000E9495F6F62EE72ECA01B901A2019101FB
:1035B0000E9495F6CB018E010F5F1F4F811491047D
:1035C00099F0EF92FF927F936F936F927F92BF92E9
:1035D000AF929F928F928FEE94E09F938F931F9361
:1035E0000F930E9410F013C0A114B104B1F0EF9238
:1035F000FF927F936F936F927F92BF92AF9283EF10
:1036000094E09F938F931F930F930E9410F00FB637
:10361000F894DEBF0FBECDBF30C0CD2879F0EF9259
:10362000FF927F936F936F927F9287EF94E09F93C7
:103630008F931F930F930E9410F0E9CF892B69F0AD
:10364000EF92FF927F936F938BEF94E09F938F9312
:103650001F930F930E9410F0DACFEF92FF928FEF3B
:1036600094E09F938F931F930F930E9410F00F90FD
:103670000F900F900F900F900F90C8010E94764FFF
:103680000E94CFB8B80183E095E00E94B8B88AE004
:103690000E94DC2E0C94D4260E9465950C94D426AE
:1036A0000E94C9CB0C94D4260E9402CC0C94D42640
:1036B0008091580983FF02C00C94D4260E94FA928C
:1036C00087FF02C00C94D42683E50E943D8788239F
:1036D00059F00E94B8860E948DF8CB010E9449994A
:1036E00061E080E00E94F69E0E94D2A60C94D4264F
:1036F0008091580983FF02C00C94D4260E94FA924C
:10370000082F87FF02C00C94D42683E50E943D87D2
:10371000F82E81110C94B82982E50E943D87811111
:103720000C94B82910E00E94D2A6112311F40C9435
:10373000D4266F2D802F0E94769B0C94D4260E9455
:10374000FA92182F87FD0AC083E191E10E9452B6D8
:10375000812F0E946F998AE00E94DC2E9AA9909393
:10376000E7020C94692B60E080E50E9493E48111EC
:103770000C94D42681E40E94EF86882321F0609186
:103780002204062F02C00FEF10E083E50E943D8760
:10379000882349F00E94A4868B016F3F710519F0C0
:1037A00010F00FEF10E00093220480E00E9459997E
:1037B0000C94D42660E080E50E9493E481110C947F
:1037C000D426109222040E9459990C94D4268EE497
:1037D0000E943D87882311F40C94D4260E94A4866D
:1037E0006093CF107093D0108093D1109093D2102B
:1037F0000C94D42683E50E94EF86882331F060E0A4
:1038000083E50E9493E4809358090E94CFB880E139
:1038100095E00E9452B680915809882369F16AE7C1
:10382000E62E66E0F62E00E010E020E080915809D8
:1038300090E0A0E0B0E0002E04C0B695A795979563
:1038400087950A94D2F780FF0EC0DD24D394D20E60
:10385000222319F08CE20E94DC2EF70185919491CD
:103860000E9452B62D2D0F5F1F4FA2E0EA0EF11CF1
:1038700005301105D9F604C08EE798E00E9452B6D3
:103880008AE00E94DC2E0C94D42683E50E943D87BA
:10389000882381F00E944749282F30E02D333105DD
:1038A00024F4809300020C94D4268CE380930002CD
:1038B0000C94D4260E94CFB8C0900002D12CE12CE9
:1038C000F12C87E195E00E9452B64AE0C701B601AB
:1038D0000E942F2F8AE00E94DC2E0C94D426809127
:1038E000580983FF02C00C94D42683E50E943D87CB
:1038F000882311F40C94D4260E94B8860E948DF877
:103900006C3871050CF48B011093F7100093F610CE
:103910000E94D89F61E080E00E94F69E0C94D4261D
:103920008091580983FF02C00C94D42683E50E943D
:103930003D87182F81110C94C62982E50E943D878E
:1039400081110C94C6290C94D42683E50E943D87EE
:10395000882311F40C94D4260E944749182F90E034
:10396000CD970CF01CE31093DE020E94DC486B0143
:103970007C01212F30E0A8EEB3E00E94E9F6C60EEC
:10398000D71EE81EF91EC092DA02D092DB02E09246
:10399000DC02F092DD020C94D4268CE40E94EF86C7
:1039A000882381F00E94B8866B017C0120E030E022
:1039B000A9010E9481F987FF0AC0F7FAF094F7F88D
:1039C000F09405C0C12CD12CE12C50E4F52EF7FA6F
:1039D000F094F7F8F094CAA2DBA2ECA2FDA28CE06E
:1039E000E0E7F2E0DE01119601900D928A95E1F791
:1039F00088E50E943D878823A1F040E050E0BA01AD
:103A000088E50E9401782091A7133091A813409176
:103A1000A9135091AA130E9420F769837A838B839C
:103A20009C8389E50E943D878823A1F040E050E017
:103A3000BA0189E50E9401782091A7133091A8135B
:103A40004091A9135091AA130E9420F76D837E83A1
:103A50008F8398878AE50E943D87882351F040E054
:103A600050E0BA018AE50E94017869877A878B87DE
:103A70009C871E8A1F8A188E198E8091DF02811101
:103A80000C94D42620E0AE014A5E5F4FBE016F5F0A
:103A90007F4FCE0182960E943C4C882311F40C94F7
:103AA000D42660E080E00E94CD4C8AA19BA1ACA10D
:103AB000BDA1B0588E8B9F8BA88FB98F1A8E1B8E8D
:103AC0001C8E1D8E1E8E1F8E18A219A28091DF02E1
:103AD000882311F40C94D42600E010E020E0AE011D
:103AE0004A5E5F4FBE01665E7F4FCE014E960E94DA
:103AF000364E0C94D4268091E6028F7D80618093AF
:103B0000E6020C94D4268091E6028F7E8062809338
:103B1000E6020C94D42683E50E943D878823F1F0C9
:103B20000E94DC486093EA107093EB108093EC10D5
:103B30009093ED100E94B88620E030E04AE754E40C
:103B40000E94A5F00E9494F8609301027093020213
:103B500080930302909304020C94D4268091C910A0
:103B600084FF02C00C94FB298091CB1087FF02C018
:103B70000C94FB298091CC10837011F00C94FB29DC
:103B80000C942D2A83E50E94EF86882311F40C946F
:103B9000D4260E94DC486093EA107093EB10809367
:103BA000EC109093ED100E94B88620E030E04AE7D8
:103BB00054E40E94A5F00E9494F86093E002709390
:103BC000E1028093E2029093E3020C94D4260E94D7
:103BD000FA9287FF02C00C94D4269091C91094FDEC
:103BE00004C09091CB1097FF0AC03CE7C32E32E08F
:103BF000D32E49E5E42E49E0F42E10E00AC090915E
:103C0000CC10937091F7682F81E00E941A950C9464
:103C1000D426F60181916F010E943D87882309F423
:103C20006FC0133009F063C00E94B8864B015C017D
:103C300020E030E040EA51E40E943FF087FF4EC0B0
:103C4000A50194016091790970917A0980917B09AD
:103C500090917C090E941BF82B013C019B01AC0157
:103C600060911E0470911F048091200490912104A2
:103C70000E94A5F060931E0470931F04809320049B
:103C800090932104A30192016091890970918A099E
:103C900080918B0990918C090E94A5F0609389090D
:103CA00070938A0980938B0990938C0960910A0420
:103CB00070910B0480910C0490910D040E9444F0CB
:103CC000A30192010E94A5F00E9494F860930A0457
:103CD00070930B0480930C0490930D0480927909E7
:103CE00090927A09A0927B09B0927C0909C00E9447
:103CF000B886D70154966D937D938D939C93579777
:103D00001F5FB4E0EB0EF11C143009F082CF0E946B
:103D100058A70C94D4260E942FE00C94D4268091AE
:103D2000C4109091C510009711F40C94D426FC0196
:103D30002081222311F40C94D4260E94764F0C94F7
:103D4000D4260091C4101091C51094E0F12C40E0ED
:103D5000915031F1D8018C91282F2B7F213429F4F7
:103D600011962C912133E1F408C08035C9F4F80193
:103D7000818180538A3048F013C0813421F085342A
:103D800021F441E002C0FF24F39498012E5F3F4FDD
:103D900089012F5F3F4FD8018C918032C9F3D8CF72
:103DA00041110E94CFB8FF2021F089E595E00E94E3
:103DB00052B6C8010E9445300C94D4260E9469CAAC
:103DC0000C94D426F092AC09F092AB090E94C6CABA
:103DD0000C94D42682E40E94EF86882351F08091CF
:103DE000E4029091E502892B31F00E944749182F97
:103DF00003C010E001C01FEF85E50E94EF86882315
:103E000051F08091E4029091E502892B31F00E94FB
:103E10004749082F03C000E001C00FEF82E50E9470
:103E2000EF86882349F08091E4029091E502892B86
:103E300029F00E94474903C080E001C08FEF8983C9
:103E40000A831B83CE0101960E94734AADC70E946C
:103E5000FA92182F87FDA8C700911C1384E40E94D2
:103E60003D87882311F40C94302A0E94B8866B0198
:103E70007C0120E030E0A9010E943FF0882309F492
:103E80004BC0B4E01B02F0011124E85EFC4EC0827E
:103E9000D182E282F38220E030E0A901C701B601BD
:103EA0000E9481F91816D4F420E030E040E05FE38E
:103EB000C701B6010E94A5F09B01AC010E94A5F0CC
:103EC0002BED3FE049E450E40E94A5F06093050229
:103ED00070930602809307029093080220E030E07E
:103EE000A901609118137091191380911A13909180
:103EF0001B130E943FF081110CC080E090E0A0EE07
:103F0000BFE38093181390931913A0931A13B093DF
:103F10001B1301E00C94302A80E080931C130E9454
:103F2000C75E42C70E94FA9287FD3EC79CE7E92E12
:103F300092E0F92E09E519E029E6C22E29E0D22EF9
:103F4000F70181917F010E94EF86882361F00E9432
:103F5000B8860E9494F8D8016D937D938D939C93BD
:103F600013970E9411A70C5F1F4FC016D10641F78F
:103F70001BC70E94FA9287FD17C70CE7E02E02E0EC
:103F8000F02E09E519E089E6C82E89E0D82EF70160
:103F900081917F010E94EF86882349F00E94B886B4
:103FA000D80194966D937D938D939C9397970C5F16
:103FB0001F4FC016D10659F7F7C68091CA1087FF68
:103FC00002C00C94362A8091CB108E7011F00C94A4
:103FD000362A40918D0950918E0960918F09709118
:103FE00090098DE595E00E949AB840919109509111
:103FF0009209609193097091940987EF9EE10E9464
:104000009AB84091950950919609609197097091DD
:1040100098098BEB9CE00E949AB88AE00E94DC2E03
:10402000C3C68091C910827111F00C947C2A8091D2
:10403000CB108C7811F00C947C2A8091CC1083707A
:1040400011F00C947C2AB0C611EBE12E19E0F12E90
:1040500010E088E5810F0E94EF86882351F00E94CE
:10406000B886F7016083718382839383812F0E94D6
:104070004B611F5FF4E0EF0EF11C133051F70C940D
:10408000D81783E50E943D87882331F00E94B486CB
:1040900090932202809321028091C9109091CA10BE
:1040A000A091CB10B091CC10892B8A2B8B2B09F0CF
:1040B0007BC660912102709122028FE995E00E94F7
:1040C000ABB885E20E94DC2E8AE00E94DC2E6CC632
:1040D0000E94FA92F82E87FD67C683E50E943D870D
:1040E0000F2D0F2C000C110B882369F10E94B48650
:1040F000F801EE0FFF1FE95DFD4F91838083000FF4
:10410000111F000F111F9801275F3D4F7901BC015E
:10411000990F880B990B0E9446F02AE037ED43E295
:104120005CE30E94A5F0F801EE55FF4E208131813D
:10413000428153810E94A5F0D7016D937D938D93A9
:104140009C93139731C60E94CFB885E40E94DC2E61
:1041500080E38F0D0E94DC2E000F111FF801E95D36
:10416000FD4F6081718183EA95E00E94ABB885E2E2
:104170000E94DC2E8AE00E94DC2E16C680E50E949A
:10418000EF86882309F410C60E94B4868C01892B1F
:1041900009F07FC083E50E94EF86882389F00E94A2
:1041A000B4868F3FBFEF9B0729F48DE394E10E9413
:1041B000932CFAC5BC018DE394E10E94532DF4C504
:1041C0000E94CFB860E070E08BEA95E00E94ABB847
:1041D00080913F1428E532E06901C81AD10887FDB3
:1041E000D394CC0CDD1CCC0CDD1C0D2C000CEE088B
:1041F000FF0880913E1428E830E04901881A9108B0
:1042000087FD9394880C991C880C991C092C000C30
:10421000AA08BB0880913D148F3FC1F090E0FC01DB
:10422000EE0FFF1F8E0F9F1FFC01EC50FC4E2181F3
:10423000328143E0220F331F4A95E1F754E036956F
:1042400027955A95E1F72E5F3F4F02C020E030E0FE
:104250002F5F3F4FC901330FAA0BBB0B9C01AD0170
:10426000281939094A095B09A4EBB0E00E94D6F687
:10427000A7019601281939094A095B090E94B7F676
:10428000B9018DEC95E20E94ABB88AE00E94DC2E69
:104290008BC50E94CBB8B8018CEA95E00E94ABB800
:1042A0008EEB94E00E9452B67FC58AE50E943D875E
:1042B000811106C083E50E943D87882309F44FC021
:1042C0000E94B88620E030E040E050EC0E943FF0D1
:1042D00087FF02C00C94FA2A0E94B88620E030E0E2
:1042E00040E050E40E9481F9181614F40C94F32A6B
:1042F0000E94B8866B017C0184E00E94B06281114B
:1043000022C020917509309176094091770950912A
:104310007809C701B6010E94A5F00E948DF820918E
:10432000E8023091E902260F371F3093E90220930B
:10433000E8022091E6103091E710620F731F70932E
:10434000E7106093E61080E50E94EF86882311F461
:104350000C94012B0E944E5481110C94012B8091DE
:10436000CB1087FF02C00C94282B8091CC10837057
:1043700011F00C94282B0E94CFB840910E1350914D
:104380000F13609110137091111383EB95E00E944D
:104390009AB88AE00E94DC2E07C560E085E40E949E
:1043A00093E4811173C080E50E94EF86882351F069
:1043B0000E94B8866093D4137093D5138093D6135C
:1043C0009093D71389E40E94EF86882381F00E949E
:1043D000B8862CEA35EC47E25EE30E94A5F06093D4
:1043E000D8137093D9138093DA139093DB1384E47A
:1043F0000E94EF86882381F00E94B8862CEA35EC73
:1044000047E25EE30E941BF86093DC137093DD13B8
:104410008093DE139093DF130E94CFB84091D413A2
:104420005091D5136091D6137091D7138AEC95E013
:104430000E949AB82CEA35EC47E25EE36091D8130B
:104440007091D9138091DA139091DB130E941BF8BD
:10445000AB01BC0186EC95E00E949AB82CEA35ECE1
:1044600047E25EE36091DC137091DD138091DE130F
:104470009091DF130E94A5F0AB01BC0182EC95E0A6
:104480000E949AB88AE00E94DC2E8EC40E94CBB8AB
:104490008CED98E00E9452B687C480E50E94EF86BA
:1044A000882351F00E94B8866093F9107093FA1037
:1044B0008093FB109093FC1089E40E94EF86882380
:1044C00081F00E94B8862CEA35EC47E25EE30E9458
:1044D000A5F06093FD107093FE108093FF109093F1
:1044E000001184E40E94EF86882381F00E94B88640
:1044F0002CEA35EC47E25EE30E941BF86093011161
:104500007093021180930311909304110E94CFB80D
:104510004091F9105091FA106091FB107091FC10CD
:104520008AEC95E00E949AB82CEA35EC47E25EE30B
:104530006091FD107091FE108091FF10909100111C
:104540000E941BF8AB01BC0186EC95E00E949AB872
:104550002CEA35EC47E25EE36091011170910211A3
:1045600080910311909104110E94A5F0AB01BC0150
:1045700082EC95E00E949AB88AE00E94DC2E14C476
:1045800083E50E94EF86182F882371F00E94B88679
:104590000E948DF870930E0260930D0221E0672B4C
:1045A00009F020E02093330480E50E94EF86882301
:1045B00059F020910D0230910E02232B11F00E9430
:1045C0004E5480933304F0C31111EEC30E94CFB850
:1045D00087EE95E00E9452B680913304882319F04B
:1045E0008BEE93E202C08EEC95E00E9452B6609191
:1045F0000D0270910E0286ED95E00E94ABB882ED3F
:1046000095E00E9452B6D0C30E941878CDC30E9494
:10461000DC870E94BCC9C8C30E94DEE4C5C36FEF3B
:104620007FEF89E40E944A87B82E6FEF7FEF8AE41C
:104630000E944A87182F83E40E94EF86E82E8EE4BA
:104640000E94EF86C82E8AE50E94EF86F82E81111F
:1046500005C081E50E94EF86D82E01C0D12CEE2046
:1046600081F020E030E040E063EB73E181E00E9404
:1046700020D329833A834B835C836D837E83032F0E
:1046800002C0012F2B2D8E2D90E0B7FC05C0109598
:10469000111F1127111F01C010E0810F911D0197FB
:1046A00031F4F1100BC0D11009C0C11007C00E9435
:1046B000CBB88AEF95E00E9452B676C32A3010F448
:1046C0000A3038F00E94CBB884EB94E00E9452B6D6
:1046D0006BC3E22E220FFF08002E000C110BC1103D
:1046E0001DC00E94B886DD2099F02AE02E9DF001C1
:1046F0002F9DF00D1124E00FF11FEE0FFF1FEE0FA5
:10470000FF1FE659FE4E208131814281538103C053
:1047100020E030E0A9010E9421F704C060E070E0D1
:1047200080EC9FE72AE02E9DF0012F9DF00D1124D3
:10473000E00FF11FEE0FFF1FEE0FFF1FE659FE4EB9
:1047400060837183828393832FC387E00E94C36257
:1047500081112AC30CE216E1E3EBF3E1FFA3EEA320
:104760009E012F5F3F4F19017EE9C72E7FE0D72EB4
:104770007901C8010E941299AEA1BFA18D909D90B0
:10478000AD90BD90BFA3AEA3A50194010E9420F7F8
:104790002B013C01F701608371838283938320E0C6
:1047A00030E040EA51EC0E9481F987FD0AC020E028
:1047B00030E040EA51E4C301B2010E943FF0181614
:1047C0002CF4F601849118160CF449C7D7018D908A
:1047D0009D90AD90BD907D0120E030E040EA51EC2D
:1047E000C501B4010E9481F987FD44C720E030E093
:1047F00040EA51E4C501B4010E943FF018160CF0E4
:1048000040C738C70E94C8A1CFC20E944CBDCCC2CD
:1048100061E083E50E945E548F250E945ABDC4C2A8
:1048200081E0809369110E944DC010926911882324
:1048300009F4BAC20E94CFB888E496E00E9452B64A
:10484000B3C20E942393B0C20E94FA92082F87FD40
:10485000ABC285E50E94EF868823B1F1E02E002EE1
:10486000000CFF080E94B8864B015C0120E030E09C
:10487000A9010E9481F987FF04C0B7FAB094B7F884
:10488000B094C70153E0880F991F5A95E1F79C0136
:1048900022503D4E7901D9018D929D92AD92BC92EC
:1048A000139720E030E048E453E4C501B4010E94CE
:1048B00081F918164CF480E090E0A8E4B3E4F70125
:1048C00080839183A283B3838CE40E94EF86882344
:1048D00009F46AC2002E000C110B0E94B8866B010D
:1048E0007C0120E030E0A9010E9481F987FF04C02B
:1048F000F7FAF094F7F8F09420E030E048E453E45D
:10490000C701B6010E9481F9980143E0220F331FCD
:104910004A95E1F7F901E250FD4E18162CF0C482D9
:10492000D582E682F78240C280E090E0A8E4B3E45A
:1049300084839583A683B78337C20E94FA9287FD4A
:1049400033C28AE50E943D87882381F040E050E031
:10495000BA018AE50E9401786B017C0120E030E019
:10496000A9010E9481F91816B4F506C0C12CD12CFA
:1049700030EAE32E31E4F32E80E090E0A0EAB0E4E8
:104980008E8B9F8BA88FB98F2091BB133091BC1356
:104990004091BD135091BE13C701B6010E9421F78B
:1049A0004B015C0120E030E048EC53E40E943FF012
:1049B00087FD06C0812C912C28ECA22E23E4B22E78
:1049C00089829A82AB82BC82BE016A5E7F4FCE0131
:1049D00001960E9475C880E090E0A8E4B2E48AA342
:1049E0009BA3ACA3BDA31E8E1F8E18A219A28CE49C
:1049F0000E94EF86882329F00E94B8864B015C0153
:104A000008C08090021390900313A0900413B090FC
:104A1000051320E030E0A901C501B4010E9481F92D
:104A200087FF04C0B7FAB094B7F8B0948A8E9B8E13
:104A3000AC8EBD8E6091D1137091D213643071052C
:104A400054F1072E000C880B990B0E9446F09B0135
:104A5000AC016091CD137091CE138091CF139091E2
:104A6000D0130E9420F74B015C0120E030E0A90147
:104A70000E9481F987FF04C0B7FAB094B7F8B094E8
:104A800011E020E030E040E450E4C501B4010E94B0
:104A900081F918160CF010E080E00E94ED4988239F
:104AA00059F0212FAE014E5D5F4FBE01665E7F4F14
:104AB000CE014E960E94814D20E030E0A901C70151
:104AC000B6010E9481F918160CF06EC180E090E0EA
:104AD000A0EAB0E48E8B9F8BA88FB98FA7019601B7
:104AE0006091BB137091BC138091BD139091BE1364
:104AF0000E9420F76B017C0120E030E0A9010E94B8
:104B000081F918161CF0C12CD12C7601C982DA82E9
:104B1000EB82FC82BE016A5E7F4FCE0101960E944D
:104B200075C842C10E94FA92182F87FD3DC18AE5DF
:104B30000E943D87882381F040E050E0BA018AE579
:104B40000E9401784B015C0120E030E0A9010E9445
:104B500081F91816B4F506C0812C912C90EAA92E83
:104B600091E4B92E80E090E0A0EAB0E489839A83D2
:104B7000AB83BC832091BB133091BC134091BD1318
:104B80005091BE13C501B4010E9421F76B017C0155
:104B900020E030E048EC53E40E943FF087FD06C07F
:104BA000C12CD12C88ECE82E83E4F82ECE8ADF8A43
:104BB000E88EF98EBE016F5F7F4FCE0146960E9450
:104BC00075C885E50E94EF86882329F00E94B88683
:104BD0006B017C010AC028E01202F0011124E250AE
:104BE000FD4EC080D180E280F38020E030E0A9015A
:104BF000C701B6010E9481F987FF04C0F7FAF0945B
:104C0000F7F8F094F7FAF094F7F8F094C982DA82A2
:104C1000EB82FC8280E00E94ED49882321F0CE01E6
:104C200001960E945B4920E030E0A901C501B40172
:104C30000E9481F918160CF0B7C080E090E0A0EA5D
:104C4000B0E489839A83AB83BC83A501940160910E
:104C5000BB137091BC138091BD139091BE130E9441
:104C600020F76B017C0120E030E0A9010E9481F96E
:104C700018161CF0C12CD12C7601CE8ADF8AE88E62
:104C8000F98EBE016F5F7F4FCE0146960E9475C8B8
:104C90008BC0A0903404B0903504C0903604D090FE
:104CA00037048BE40E943D87882339F10E94B8863F
:104CB0007B018C0120E030E0A9010E9481F987FD91
:104CC0000AC020E030E040E251E4B701C8010E9490
:104CD0003FF01816A4F48FE30E94DC2E8BE40E94B0
:104CE000DC2E8BE596E00E9452B683E596E00E94AA
:104CF00052B682EF94E10E9452B675018601970187
:104D0000A801B501C6010E943FF0882361F00E940E
:104D10003DA8C701D8018093340490933504A09333
:104D20003604B09337048091C9109091CA10A091B5
:104D3000CB10B091CC10892B8A2B8B2BA9F50E941C
:104D4000CFB840913404509135046091360470918D
:104D500037048FE696E00E949AB88AE00E94DC2E23
:104D600023C081E08093B00960E083E50E945E5437
:104D700081111AC00E94097E17C00E9485E414C0E8
:104D80001091C6100E94DC486093EA107093EB10FB
:104D90008093EC109093ED10112331F0812F0E943D
:104DA000324902C00E9485E43CA931110FC0E09154
:104DB000BF0FF0E0E758FB4E8081882339F083E194
:104DC00091E10E9452B68AE00E94DC2E8AA980936B
:104DD000E7027FC420E030E0A901C701B6010E94CC
:104DE0003FF0881F8827881F181709F4A2C080E0A9
:104DF00090E0A0E8BFEB8AA79BA7ACA7BDA72EA118
:104E00003FA148A559A5C501B4010E9420F720E0A3
:104E100030E040E05FE30E94A5F06EA37FA388A787
:104E200099A72EA53FA548A959A9C301B2010E947F
:104E300020F720E030E040E05FE30E94A5F02B0186
:104E40003C012EA13FA148A559A5CA01B9010E9464
:104E5000A5F04B015C01A3019201C301B2010E94C4
:104E6000A5F09B01AC01C501B4010E9421F70E948D
:104E70001FFA4B015C019B01AC01C701B6010E9406
:104E800020F76EA77FA788AB99ABA5019401C70156
:104E9000B6010E9421F79B01AC016EA57FA588A9F0
:104EA00099A90E94A5F06B017C0120E030E0A901E6
:104EB0000E9481F987FD07C0C701B6010E941FFA51
:104EC0006B017C0103C0C12CD12C7601C301B2015E
:104ED0009058A50194010E941BF82AA53BA54CA55A
:104EE0005DA50E94A5F0A70196010E94A5F02EA144
:104EF0003FA148A559A50E9421F769837A838B8336
:104F00009C83A50194016EA17FA188A599A50E940B
:104F10001BF82AA53BA54CA55DA50E94A5F0A701FD
:104F200096010E94A5F0A30192010E9421F70C9422
:104F30004A1680E090E0A0E8BFE35DCF412FBE01BC
:104F40006F5F7F4F86EC9FE00E9416810E94DC48D5
:104F50006093EA107093EB108093EC109093ED1037
:104F600023CF0E943DA810923A02909117139BAB59
:104F700080E00E9463B40E94DC486093EA10709362
:104F8000EB108093EC109093ED100E9477C781E0B6
:104F90008093AC090E94C6CA8AE50E94EF86F82E6B
:104FA0008823A1F081E00E94B062082F82E00E9475
:104FB000B06211E0811101C010E0011112C088E55A
:104FC0000E94EF86082F81110CC002C010E0F7CFBD
:104FD0001111A1C189E50E94EF86182F80139BC192
:104FE00004C0112309F494C1012FF01293C111E000
:104FF00001E091E09EA782E50E943D87882319F099
:105000000E94B88604C060E070E080EA90E46E8F91
:105010007F8F88A399A320E030E0A9010E943FF090
:10502000882361F0011106C0111104C0AEA5AA23A6
:1050300009F460C1CE014E960E941746002309F480
:10504000D3C0112309F4CDC01092B3131092B4133E
:105050001092B5131092B6131092B7131092B813A2
:105060001092B9131092BA130E94BAC9EEE9FFE088
:10507000B491BDAB80E296E10E9412996B017C0174
:1050800084E296E10E9412994B015C019B01AC0104
:10509000C701B6010E9481F918162CF4A7019601E8
:1050A000C501B40104C0A5019401C701B6010E9465
:1050B0001BF82B013C01E7E8FFE085919591A59154
:1050C000B4918EA39FA3A8A7B9A7E3E8FFE08591B9
:1050D0009591A591B4918AA79BA7ACA7BDA79C0168
:1050E000AD016EA17FA188A599A50E9481F918162E
:1050F00034F42AA43BA40CA59DA59EA305C02EA014
:105100003FA008A5A9A5AEA3A3019201C301B201C6
:105110000E94A5F020E030E040E85FE30E9421F724
:105120000E941FFA9101402F5EA10E94A5F06A8F94
:105130007B8F8C8F9D8FEFE9FFE0049120E030E0C2
:1051400040EC5FE3C501B4010E94A5F04B015C0196
:10515000602F000F770B880B990B0E9446F09B0184
:10516000AC01C501B4010E94A5F069837A838B83E9
:105170009C8320E030E040EC5FE3C701B6010E9471
:10518000A5F06B017C01BDA96B2FBB0F770B880BC2
:10519000990B0E9446F09B01AC01C701B6010E9429
:1051A000A5F06E8B7F8B888F998FAE01465E5F4F27
:1051B000BE016F5F7F4FCE0146960E9453C80E948A
:1051C000D5CA1092B3131092B4131092B513109263
:1051D000B6131092B7131092B8131092B91310921D
:1051E000BA1380E00E946B61112319F081E00E94E4
:1051F0006B61EEA5EE2309F47DC080E00E944B5068
:1052000083E00E94C362811175C00E94BAC9C09038
:10521000BB13D090BC13E090BD13F090BE1320914F
:10522000061330910713409108135091091360E061
:1052300070E088E193E40E9420F76093C60F7093BA
:10524000C70F8093C80F9093C90F20910A13309114
:105250000B1340910C1350910D1360E070E088E146
:1052600093E40E9420F76093CA0F7093CB0F809352
:10527000CC0F9093CD0F20910E1330910F134091CE
:10528000101350911113C701B6010E9420F76093CB
:10529000CE0F7093CF0F8093D00F9093D10F86ECE9
:1052A0009FE00E943EB48823D9F01E8A1F8A188E80
:1052B000198E88E0E6ECFFE0DE01119601900D9278
:1052C0008A95E1F7AE014A5E5F4FBE016B5F7F4F8B
:1052D000CE0101960E9453C882E00E946B610AC011
:1052E00081E994E00E94434F0E94CFB88FE794E099
:1052F0000E9452B60E94BAC98091AB098093AC0952
:105300008BA90E9463B40E945EC70E94BCC94CCDA9
:1053100001E060CE102FFEA66ECE88E50E94EF86DB
:1053200081115F9889E50E94EF8681118A988AE54C
:105330000E94EF86882331F080910801817080936C
:105340000601479885E40E94EF86882309F42CCD56
:1053500012982ACD86EE94E00E94434F5F988A9877
:1053600080910801817080930601479812981CCDA6
:105370000E94B8860E948DF8CB010E94499961E095
:1053800081E00E94F69E11E00C94931B0E94B88667
:105390000E948DF86C3871055CF57093F71060937E
:1053A000F6100E94D89F60E081E00E94F69E609116
:1053B000F6107091F710072E000C880B990B0E94C5
:1053C00046F02091F2103091F3104091F41050917A
:1053D000F5100E9481F918161CF48DE295E002C0C8
:1053E0008EE195E00E94434F812F0E94E199DCCC31
:1053F0006CE870E0D2CF0E943DA888E50E94EF865D
:10540000882331F05F9A8091AE098E7F8093AE0938
:1054100089E50E94EF86882331F08A9A8091AE094F
:105420008D7F8093AE098AE50E94EF86882361F024
:10543000809108018095817080930601479A809140
:10544000AE098B7F8093AE0985E40E94EF868823A6
:1054500009F4AACC0E94492CA7CC0E94FDA9A4CC97
:10546000602F83E50E945E540C948D1F83E50E949B
:105470003D87882391F00E94B88660938D097093D0
:105480008E0980938F09909390096093950970938A
:105490009609809397099093980980E50E943D872B
:1054A000882351F00E94B88660938D0970938E090D
:1054B00080938F099093900982E50E943D8788230D
:1054C00051F00E94B886609391097093920980937D
:1054D00093099093940984E50E943D87882309F4F9
:1054E00063CC0E94B8866093950970939609809367
:1054F00097099093980958CC82E40E94EF868823FC
:1055000051F00E9455956093690970936A098093E0
:105510006B0990936C0983E50E94EF86882351F014
:105520000E94B8866093990970939A0980939B09A9
:1055300090939C0984E50E94EF86882351F00E9495
:10554000B88660939D0970939E0980939F099093FC
:10555000A00988E50E94EF86882351F00E94B88652
:1055600060931204709313048093140490931504B1
:1055700089E50E94EF86882351F00E94B8866093E7
:1055800016047093170480931804909319048AE505
:105590000E94EF868823B1F00E94B88660931A04B7
:1055A00070931B0480931C0490931D042DEC3CEC21
:1055B0004CEC5DE30E943FF0181624F08DE695E078
:1055C0000E9452B685E40E94EF86882309F4ECCB52
:1055D0000E94B88660931E0470931F048093200479
:1055E00090932104E1CBC12CD12CE12C00E4F02ECE
:1055F0000C947C21C12CD12CE12C10ECF12E0C94BC
:105600007C21A701960160910E1370910F13809178
:105610001013909111130E9421F760930E13709351
:105620000F1380931013909311130E94CFB84091E1
:105630000E1350910F13609110137091111383EB9F
:1056400095E00E949AB88AE00E94DC2E0C94AF216B
:1056500082E50E94EF8681110C94BB21A5CBB7FA9D
:10566000B094B7F8B094D7018D929D92AD92BC9250
:105670001397ACC80E94CBB88AE296E00E9452B65B
:1056800093CB0C5F1F4FBFEFCB1ADB0AE6E1083369
:105690001E0709F06EC861EBE62E69E0F62E10E0F9
:1056A000F10181919191A191B1911F01F701819334
:1056B0009193A193B1937F01812F0E944B611F5F52
:1056C000133071F70E94BCC98AE196E00E94434FF3
:1056D0006BCBE5960FB6F894DEBF0FBECDBFDF9162
:1056E000CF911F910F91FF90EF90DF90CF90BF90DF
:1056F000AF909F908F907F906F905F904F903F9072
:105700002F900895CF92DF92EF92FF920F931F9305
:10571000CF93DF936C018B017A01EC01C55FDC4F05
:10572000888187FF04C0FB011182108224C02CE015
:105730002C9DC0012D9D900D11242881AC01420F9C
:10574000511D27FD5A9520913C1430E04217530714
:1057500094F42881AC01420F511D27FD5A959A01FE
:10576000FA01EE0FFF1F2E0F3F1FF901EC50FC4E08
:10577000208127FD19C088818F5F88832CE02C9DB4
:10578000C0012D9D900D11242881AC01420F511DA7
:1057900027FD5A9520913C1430E042175307BCF482
:1057A00028812C3044F113C02881820F911D27FDE0
:1057B0009A95FC01EE0FFF1F8E0F9F1FFC01EC500E
:1057C000FC4E808160E08F770E945C47D4CFF80167
:1057D00080819181049680349C4918F480E49CE98E
:1057E00004C0F801808191810496F7019183808340
:1057F0008FEF888345C0F801408151812881BC0129
:10580000620F711D27FD7A959B01FB01EE0FFF1FB3
:105810002E0F3F1FF901EC50FC4E21813281240FE5
:10582000351FF701318320832881AC01420F511DC0
:1058300027FD5A959A01FA01EE0FFF1F2E0F3F1F09
:10584000F901EC50FC4E208127FF1AC02881820FFD
:10585000911D27FD9A95FC01EE0FFF1F8E0F9F1FD4
:10586000FC01EC50FC4E808161E08F77DF91CF919D
:105870001F910F91FF90EF90DF90CF900C945C47B9
:10588000DF91CF911F910F91FF90EF90DF90CF901C
:105890000895129A08955F9A8091AE098E7F809341
:1058A000AE098A9A8091AE098D7F8093AE0980916E
:1058B00008018095817080930601479A8091AE0916
:1058C0008B7F8093AE090C94492CC42F0E9410A0AA
:1058D0000E94CBB882E898E00E9452B661E089E766
:1058E00098E00E94C54B89EE93E030E6019729F0DD
:1058F000232F2A950000E9F7F9CFF89489EE93E079
:1059000038EE019729F0232F2A950000E9F7F9CF07
:105910000E9410A0CC2319F00E944B2C02C00E94C0
:10592000492CA895FECFDC01EC91F0E0CF01880F67
:10593000991FE80FF91FEC50FC4E80818F77808310
:1059400008958F929F92AF92BF92CF92DF92EF9283
:10595000FF920F93CF93DF931F92CDB7DEB75C0119
:105960006B017A014901F501808191810E946FF6F6
:105970008983002311F0F6018083BE016F5F7F4FA2
:10598000C4010E9408E4F501808191810196918310
:105990008083FFEFCF1ADF0A81E0E81AF10819F7D8
:1059A00080E00F90DF91CF910F91FF90EF90DF900B
:1059B000CF90BF90AF909F908F9008957F928F92DD
:1059C0009F92AF92BF92CF92DF92EF92FF920F938E
:1059D0001F93CF93DF931F92CDB7DEB77C015901A0
:1059E0008B016B01C40ED51E0C151D0559F1F70175
:1059F00080809180F80171908F017982C4010E94AA
:105A00006FF6781691F0672DC4010E9477F6C401F5
:105A10000E946FF69981891741F00E94CFB880E605
:105A200097E00E9452B681E00EC0BE016F5F7F4FCB
:105A3000C5010E9408E4F70180819181019691835C
:105A40008083D2CF80E00F90DF91CF911F910F9193
:105A5000FF90EF90DF90CF90BF90AF909F908F908E
:105A60007F900895009781F41092900082E08093D7
:105A700091001092950010929400C19A809171004B
:105A80008260809371000895019761F41092A000E4
:105A900082E08093A1001092A5001092A40089BB1F
:105AA0008093720008957F928F929F92AF92BF92DF
:105AB000CF92DF92EF92FF920F931F93CF93DF93DA
:105AC000FC019081983108F0CDC06B017F01892FD6
:105AD00090E0FC01EE0FFF1F8E0F9F1FFC01EC50AA
