:100000000C9487140C94B8140C94B8140C94B81471
:100010000C94B8140C94B8140C94B8140C94B81430
:100020000C94B8140C94B8140C94B8140C94B81420
:100030000C94B8140C94B8140C94B8140C94B81410
:100040000C94B8140C9406940C94B8140C94B81432
:100050000C94B8140C94B8140C9404820C94EB6EA9
:100060000C94B8140C948E320C9484320C94B81402
:100070000C94B8140C94B8140C94B8140C94B814D0
:100080000C94DE2C0C94B8140C94B8140C94B81482
:100090000C94B8140C94B8140C94B8140C94B814B0
:1000A0000C94B8140C94B8140C94B02C0C94B81490
:1000B0000C94B8140C94B8140C94B8140C94B81490
:1000C0000C94B8140C94B8140C94B8140C94B81480
:1000D0000C94B8140C94B8140C94B8140C94B81470
:1000E0000C94B814C432D632E832F93201333433C6
:1000F0000533343309330D333433113315331933A6
:10010000223334332D33DA3EE13E943F993FE840C9
:10011000ED40FD40906C936C826C866C8C6CCA6C6C
:10012000976C9B6CA16CA56CA96CAF6CB36CB76C35
:10013000CA6CBD6CC16CC56C056E0A6E0F6E196E13
:10014000236E9C6E2D6E356E3D6E476E516E5B6EEE
:100150006A6E746E9C6E7E6E886E926E084AD73B95
:100160003BCE016E84BCBFFDC12F3D6C74319ABD86
:1001700056833DDA3D00C77F11BED9E4BB4C3E91AA
:100180006BAAAABE000000803F05A84CCDB2D44E99
:10019000B93836A9020C50B9918688083CA6AAAA9B
:1001A0002ABE000000803F07634236B79BD8A71ADB
:1001B00039685618AEBAAB558C1D3CB7CC5763BDE9
:1001C0006DEDFD753EF6177231BF000000803F08EF
:1001D000000000BE922449123EABAAAA2ABECDCC92
:1001E000CC4C3E00000080BEABAAAAAA3E00000094
:1001F00000BF000000803F0000000000084178D3ED
:10020000BB4387D1133D190E3CC3BD4282AD2B3E8B
:1002100068EC8276BED98FE1A93E4C80EFFFBE012B
:10022000C4FF7F3F0000000000000C94CA6C0C94D7
:10023000236E0C94E8400C9422330C94FD400C94F3
:100240009C6E0C94826C0C94AF6C0C94E8320C9401
:10025000B36C0C94A56C0C94C56C0C9409330C9481
:1002600005330C9401330C94866C0C94943F0C94DD
:10027000B76C0C94A96C0C94356E0C94056E0C94B0
:10028000936C0C94516E0C94DFE40C949B6C0C9466
:10029000976C0C94746E0C9411330C94BD6C0C948C
:1002A000ED400C94C16C0C948C6C0C9434330C9415
:1002B000E13E0C946A6E0C942D6E0C94886E0C9436
:1002C000476E0C945B6E0C94A16C0C94F9320C94F8
:1002D000C4320C94926E0C947E6E0C940F6E0C943F
:1002E000D6320C9415330C940D330C94196E0C9477
:1002F000DA3E0C940A6E0C9419330C94993F0C94CA
:10030000906C0C943D6E0C942D334E414E494E49E9
:100310005459494E46CDCCCC3D0AD7233C17B7D1D2
:100320003877CC2B329595E6241FB14F0A00002078
:10033000410000C84200401C4620BCBE4CCA1B0EF7
:100340005AAEC59D74434F4D4D554E494341544996
:100350004F4E0044525952554E004552524F52533F
:10036000004543484F0047322F47332062616420E5
:10037000706172616D65746572730A00536C6565B6
:10038000702E2E2E005A2050726F626520506173BD
:1003900074204265640A005A2050726F62652050D2
:1003A0006173742042656400205A3A200020593A53
:1003B000200042656420583A20004D657368207023
:1003C0006F696E74206F7574206F662072616E673E
:1003D000650A004D302053746F70004D3120537406
:1003E0006F7000436F6E74696E7565004E6F204DBF
:1003F0006F76652E00256979202569642025696856
:100400002025696D20256973005072696E7420740F
:10041000696D653A2000496E76616C6964205069A7
:100420006E204D6F64650A0044454255473A004DC1
:1004300031313320530042656420436F6F6C696E25
:10044000672E2E2E004265642048656174696E67D0
:100450002E2E2E00417274696C6C6572792053697E
:10046000646577696E646572205831204F46462E68
:10047000002F2F2000416363656C65726174696FA2
:100480006E3A2050005741524E494E4721204C6F42
:1004900077205A204A65726B206D6179206C656106
:1004A0006420746F20756E77616E7465642070616E
:1004B000757365732E0A0020204D61783A20002064
:1004C000204D696E3A2000536F667420656E647328
:1004D000746F70733A200046523A0020466C6F7772
:1004E0003A200050726F7465637465642050696EC1
:1004F0000A0020536572766F200050726F6265208B
:100500004F6666736574205A0020643A0020693A89
:100510000020703A006469730043290A0061626C2C
:10052000656420286D696E2074656D702000436FCE
:100530006C642065787472756465732061726520DF
:10054000004D34323120696E636F727265637420BE
:10055000706172616D657465722075736167650A9B
:10056000004F666673657473204170706C696564D2
:1005700000546F6F206661722066726F6D20726525
:10058000666572656E636520706F696E740A0045FA
:100590004550524F4D204F4B0A002028302D31300E
:1005A00029002076616C7565206F7574206F662058
:1005B00072616E676500416476616E6365204B3DD4
:1005C0000061033D065A03530345034D3231004D8C
:1005D000323320257300204100204300726F746184
:1005E00074696F6E206D61747269783A0A005A5F9F
:1005F0006D6F76655F636F6D700A00206D61783A8C
:1006000000206D696E3A0041786973200041636390
:10061000656C65726174696F6E206C696D69746573
:10062000642E0A00534C4F5700554E4B4E4F574EB9
:100630002053544154450047434F44455F494E467B
:100640004F004C43445F50415553455F524553550D
:100650004D450046494C414D454E545F52554E4F15
:1006600055545F434F4E54494E55450046494C4101
:100670004D454E545F52554E4F5554004D38373608
:1006800020526573706F6E64696E672050524F4DD3
:1006900050545F004D3234004572726F7220777291
:1006A0006974696E6720746F20454550524F4D2123
:1006B0000A004E6F20436865636B73756D20776920
:1006C0007468206C696E65206E756D6265722C2091
:1006D0004C617374204C696E653A200063686563F1
:1006E0006B73756D206D69736D617463682C204C3C
:1006F000617374204C696E653A20004C696E652008
:100700004E756D626572206973206E6F74204C6146
:100710007374204C696E65204E756D6265722B3165
:100720002C204C617374204C696E653A20004D3169
:100730003130002121204B494C4C20636175736599
:100740006420627920746F6F206D75636820696E14
:100750006163746976652074696D65202D20637509
:100760007272656E7420636F6D6D616E643A200005
:10077000627573793A2070617573656420666F7273
:1007800020696E7075740A00627573793A20706121
:100790007573656420666F7220757365720A0062F6
:1007A0007573793A2070726F63657373696E670A47
:1007B00000706F7765726F6666005072696E74655F
:1007C000722068616C7465642E206B696C6C2829DA
:1007D0002063616C6C6564210A00363726033C3D5A
:1007E000380E2E303E1224221E1A1C180A07430807
:1007F00009070844000150726F62696E6720466104
:10080000696C65640A0050726F62696E67204661A8
:10081000696C65640047323800446F6E652E0A00CB
:100820003F496E76616C69642073746F72616765AD
:1008300020736C6F742E0A3F557365203020746FDF
:1008400020003F5034206973206F6E6C79206176F0
:1008500061696C61626C65207768656E20616E20ED
:100860004C43442069732070726573656E742E0A60
:10087000003F5032206973206F6E6C792061766181
:10088000696C61626C65207768656E20616E204CD2
:1008900043442069732070726573656E742E0A007C
:1008A00050726F62696E672061726F756E64202886
:1008B000004D65736820696E76616C69646174656A
:1008C000642E2050726F62696E67206D6573682EAA
:1008D0000A004D657368207A65726F65642E0A00A0
:1008E00044656661756C742073746F72616765200E
:1008F000736C6F7420302073656C65637465642E4F
:100900000A004C6F6164696E6720746573745F7070
:1009100061747465726E2076616C7565732E0A0A57
:1009200000496E76616C696420746573745F7061F0
:10093000747465726E2076616C75652E20282D3179
:1009400020746F2032290A0A004C6F636174696F4A
:100950006E7320696E76616C6964617465642E0AD9
:100960000A00456E74697265204D65736820696E72
:1009700076616C6964617465642E0A0A0020746F84
:100980006F206C6F6E6720657874727573696F6E17
:100990002070726576656E7465640A0020636F6C02
:1009A0006420657874727573696F6E2070726576F5
:1009B000656E7465640A0057616974696E672066C4
:1009C0006F72206865617475702E0A004C656176DF
:1009D000696E6720473236003F5370656369666908
:1009E000656420582C5920636F6F7264696E61745E
:1009F00065206F7574206F6620626F756E64732E4C
:100A00000A003F28522965706561742076616C7513
:100A100065206E6F7420706C61757369626C653BE4
:100A2000206D757374206265206174206C6561733C
:100A30007420312E0A003F285229657065617420A8
:100A40006D7573742062652073706563696669658E
:100A500064207768656E206E6F74207573696E67A9
:100A600020616E204C43442E0A003F537065636939
:100A700066696564206E6F7A7A6C652074656D7046
:100A800065726174757265206E6F7420706C61752B
:100A90007369626C652E0A003F537065636966690D
:100AA00065642066696C616D656E742073697A6532
:100AB000206E6F7420706C61757369626C652E0AAC
:100AC000003F537065636966696564207072696D83
:100AD00065206C656E677468206E6F7420706C6141
:100AE000757369626C652E0A003F5072696D6520EE
:100AF0006C656E677468206D757374206265207311
:100B00007065636966696564207768656E206E6FDD
:100B100074207573696E6720616E204C43442E0A01
:100B2000003F537065636966696564206E6F7A7A09
:100B30006C652073697A65206E6F7420706C6175C6
:100B40007369626C652E0A003F526574726163744A
:100B5000696F6E204D756C7469706C696572206D7B
:100B60007573742062652073706563696669656476
:100B70002E0A003F5370656369666965642052659B
:100B80007472616374696F6E204D756C7469706CFA
:100B9000696572206E6F7420706C61757369626C28
:100BA000652E0A003F537065636966696564206C51
:100BB0006179657220686569676874206E6F74205A
:100BC000706C61757369626C652E0A0043292E0A88
:100BD000003F5370656369666965642062656420DF
:100BE00074656D7065726174757265206E6F7420C6
:100BF000706C61757369626C65202834302D004714
:100C00003236207374617274696E672E2E2E0A005C
:100C1000486F6D65202573257325732046697273AF
:100C200074005761726E696E673A20486F6D696E25
:100C3000672042756D702044697669736F72203C3D
:100C400020310A0000004842000048420000804075
:100C50000202040000A0400000A04000000040FF8D
:100C6000FFFF70012C0190012701B0012201C0019A
:100C70001D01F00118011002130130020E01600283
:100C8000090190020401C002FF000003FA004003C2
:100C9000F5008003F000D003EB002004E6007004B0
:100CA000E100E004DC004005D700C005D2004006AA
:100CB000CD00D006C8008007C3003008BE00F00891
:100CC000B900C009B400B00AAF00B00BAA00D00C44
:100CD000A500000EA000500F9B00C01096005012FF
:100CE000910000148C00C0158700B0178200B01965
:100CF0007D00D01B7800001E730040206E00902203
:100D00006900F024640040275F0090295A00E02B1E
:100D10005500102E500020304B0010324600E033BA
:100D2000410090353C001037370070383200A03950
:100D30002D00B03A2800A03B2300603C1E00103D6F
:100D40001900903D1400103E0F00703E0A00C03E96
:100D50000500003F0000403FFBFF803FF6FFC03F23
:100D6000F1FF00002100240027002A002D003000A0
:100D7000330001010000040107010A010000220004
:100D8000250028002B002E00310034000201000055
:100D9000050108010B0100002000230026002900A6
:100DA0002C002F00320000010000030106010901A0
:100DB00005050505070508080808020202020A0AD7
:100DC00008080404040401010101010101010303F5
:100DD000030303030303040707070C0C0C0C0C0CA0
:100DE0000C0C0202020206060606060606060B0B9D
:100DF0000B0B0B0B0B0B01021020200808102040DE
:100E000010204080020102010804020101020408CE
:100E1000102040808040201008040201800402015C
:100E200080402010080402010804020101020408A5
:100E300010204080010204081020408000000A0BAE
:100E400002090C0D0E080703040100000000000059
:100E50000000000000000000000000000000000092
:100E6000000000000000000012111000000000004F
:100E70000000000000000000000000000000000072
:100E800000002020506C616E6E657242756666656A
:100E90007242797465733A20002046726565204D70
:100EA000656D6F72793A2000436F6D70696C65648F
:100EB0003A2053657020323120323032300A00201F
:100EC0004C61737420557064617465643A203230EB
:100ED00032302D30382D3237207C20417574686FC8
:100EE000723A2028444947412D546563682C2041BB
:100EF000535758312076312E30290A00322E302EA9
:100F0000362E310A004D61726C696E0020536F6697
:100F100074776172652052657365740A00205761A9
:100F2000746368646F672052657365740A002042B9
:100F3000726F776E206F75742052657365740A0046
:100F40002045787465726E616C2052657365740A11
:100F500000506F77657255700A00656E6473746F28
:100F60007073206869743A20003F5A206F757420AE
:100F70006F662072616E67652028003F59206F758B
:100F800074206F662072616E676520282D003F58BF
:100F9000206F7574206F662072616E676520282D42
:100FA0000050726F6265204F66667365742058004A
:100FB0006F6B00526573656E643A2000236465664A
:100FC000696E652044454641554C545F004B642092
:100FD000004B6920004B702000504944204175743B
:100FE0006F74756E652066696E697368656421202B
:100FF00050757420746865206C617374204B702C7C
:10100000204B6920616E64204B6420636F6E7374A3
:10101000616E74732066726F6D2062656C6F7720ED
:10102000696E746F20436F6E66696775726174696B
:101030006F6E2E680A00504944204175746F7475B4
:101040006E65206661696C6564212074696D656FE9
:1010500075740A000A20436C6173736963205049F8
:1010600044200A00204B643A2000204B693A2000BB
:10107000204B703A20000A204E6F206F7665727305
:10108000686F6F740A002054753A2000204B753A3F
:101090002000206D61783A2000206D696E3A2000B2
:1010A00020643A200020626961733A20005049446C
:1010B000204175746F74756E652073746172740A63
:1010C00000504944204175746F74756E65206661E7
:1010D000696C6564212054656D7065726174757208
:1010E0006520746F6F20686967680A005049442062
:1010F0004175746F74756E65005049442041757474
:101100006F74756E65206661696C6564212042614B
:1011100064206578747275646572206E756D6265A1
:10112000720A00496E76616C696420657874727524
:101130006465720A00202D20496E76616C69642016
:101140006578747275646572206E756D6265722063
:10115000210A00544845524D414C2052554E4157AA
:10116000415900546865726D616C2052756E6177EB
:101170006179004572723A204D415854454D5000F6
:101180004D415854454D50207472696767657265CA
:1011900064004572723A204D494E54454D50004D01
:1011A000494E54454D502074726967676572656495
:1011B00000202F002042403A0020403A0020573AB9
:1011C000004D313036205000000096430000964319
:1011D0000000C84300000000000000000000000004
:1011E00053657474696E67732053746F726564001D
:1011F00053657474696E67732053746F72656420ED
:1012000028005374616E646172642044657669617C
:1012100074696F6E3A2000486F74656E6420746F55
:101220006F20636F6C640A002052616E67653A201C
:1012300000205369676D613A20004D65616E3A2068
:1012400000204D39322058004C6F61642046696C93
:10125000616D656E74205400496E7365727420660A
:10126000696C616D656E7420616E642073656E6477
:10127000204D3130380A00726573756D6564005217
:101280006573756D696E67005265686561742044A9
:101290006F6E6500526568656174696E672E2E2EEB
:1012A0000052656865617400486561746572205418
:1012B000696D656F75740053656E64204D3130380B
:1012C00020746F2068656174206E6F7A7A6C650A8D
:1012D000004E6F7A7A6C65205061726B65640070A5
:1012E0006175736564004469736D6973730050615F
:1012F0007573650020496E76616C69642065787449
:101300007275646572200024F4D43050C38E20C2FC
:10131000A24017828B7011127A910D816CD90AA8A4
:1013200061E108C7586607615143061E4B5D05C160
:1013300045A7041A411104093D980371393103404E
:1013400036DB0265339102D4305402802E1D0263D5
:101350002CEE01752AC501B028A001102781018F4C
:101360002564012B244B01E0223401AC211F018DA7
:10137000200D01801FFC00841EED00971DDF00B8CA
:101380001CD200E61BC600201BBC00641AB200B2CF
:1013900019A8000A19A0006A189900D117910040F5
:1013A000178B00B516840031167E00B31579003A0C
:1013B000157300C7146F0058146A00EE1366008896
:1013C00013630025135E00C7125B006C12570015F3
:1013D000125400C111510070114F0021114B00D661
:1013E0001049008D1047004610440002104200C012
:1013F0000F4000800F3E00420F3C00060F3B00CB29
:101400000E3800930E37005C0E3500270E3400F3C3
:101410000D3200C10D3100900D3000600D2E0032F4
:101420000D2D00050D2C00D90C2B00AE0C290085CC
:101430000C29005C0C2700350C27000E0C2600E858
:101440000B2400C40B2400A00B23007D0B23005AA7
:101450000B2100390B2100180B2000F80A1F00D9BE
:101460000A1E00BB0A1E009D0A1D00800A1D0063A3
:101470000A1C00470A1B002C0A1B00110A1A00F75D
:10148000091A00DD091900C4091900AB09190092F5
:101490000917007B091800630917004C091600366C
:1014A000091600200916000A091500F5081500E0C4
:1014B000081400CC081400B8081400A40814009004
:1014C0000813007D0812006B08130058081200462C
:1014D000081200340811002308110012081100013D
:1014E000081100F0071000E0071000D0071000C03E
:1014F000071000B0070F00A107100091070E00832E
:10150000070F0074070F0065070E0057070E00490C
:10151000070E003B070D002E070E0020070D0013DD
:10152000070D0006070D00F9060C00ED060D00E0A2
:10153000060C00D4060C00C8060C00BC060C00B05B
:10154000060C00A4060B0099060C008D060B008209
:10155000060B0077060B006C060B0061060A0057AD
:10156000060B004C060A0042060A0038060A002E46
:10157000060A0024060A001A060A001006090007D7
:10158000060A00FD050900F4050900EB050900E263
:10159000050900D9050900D0050900C7050900BEE5
:1015A000050900B5050800AD050800A50509009C62
:1015B000050800940508008C050800840508007CD7
:1015C000050800740508006C050700650508005D46
:1015D000050700560508004E0507004705070040AF
:1015E00005080038050700310507002A0507002314
:1015F0000507001C050600160507000F0507000873
:1016000005060002050700FB040600F5040700EECE
:10161000040600E8040600E2040700DB040600D527
:10162000040600CF040600C9040600C3040600BD7A
:10163000040600B7040600B1040500AC040600A6C9
:10164000040600A00405009B040600950405009014
:101650000406008A04050085040500800406007A5B
:1016600004050075040500700405006B04050066A0
:10167000040500610405005C0405005704050052E0
:101680000405004D04050048040500430405003E20
:101690000404003A04050035040500300404002C5D
:1016A00004050027040400230405001E0404001A96
:1016B00004040016040500110404000D04040009CC
:1016C0000405000404040000040400FC030400F802
:1016D000030400F4030400F0030400EC030400E836
:1016E000030400E4030400E0030400DC030400D866
:1016F000030400D4030400D0030400CC030400C896
:10170000030300C503030024F404D9201BC40C5CAC
:101710000E9804C4095F0265077101F405F900FB26
:1017200004B30048048700C103690058035500034F
:10173000034500BE023A008402310053022A002908
:1017400002250004022000E4011C00C8011900AFBA
:101750000117009801140084011300710110006149
:1017600001100051010E0043010D0036010B002B4A
:10177000010B0020010B00150109000C01090003F9
:10178000010800FB000800F3000800EB000700E47C
:10179000000600DE000600D8000600D2000600CCDD
:1017A000000500C7000500C2000500BD000400B927
:1017B000000400B5000400B1000400AD000400A95D
:1017C000000400A5000300A20003009F0004009B8A
:1017D00000030098000300950002009300030090AE
:1017E0000003008D0002008B0003008800020086C9
:1017F00000020084000300810002007F0002007DDF
:101800000002007B000200790002007700010076F0
:101810000002007400020072000100710002006FFB
:101820000002006D0001006C0002006A0001006906
:10183000000200670001006600010065000100640D
:101840000002006200010061000100600001005F11
:101850000002005D0001005C0001005B0001005A15
:101860000001005900010058000100570001005616
:101870000001005500010054000100530000005316
:101880000001005200010051000100500001004F12
:101890000001004E0000004E0001004D0001004C10
:1018A0000001004B0000004B0001004A000100490C
:1018B0000001004800000048000100470001004608
:1018C0000000004600010045000000450001004402
:1018D00000010043000000430001004200000042FC
:1018E0000001004100000041000100400001003FF4
:1018F0000000003F0001003E0000003E0001003DEE
:101900000000003D0001003C0000003C0000003CE5
:101910000001003B0000003B0001003A0000003ADB
:1019200000010039000000390001003800000038D3
:1019300000000038000100370000003700010036C9
:1019400000000036000000360001003500000035C0
:1019500000000035000100340000003400000034B5
:1019600000010033000000330000003300010032AA
:1019700000000032000000320001003100000031A0
:101980000000003100010030000000300000003095
:101990000001002F0000002F0000002F0000002F8A
:1019A0000001002E0000002E0000002E0001002D7E
:1019B0000000002D0000002D0000002D0001002C73
:1019C0000000002C0000002C0000002C0001002B67
:1019D0000000002B0000002B0000002B0001002A5B
:1019E0000000002A0000002A0000002A000100294F
:1019F0000000002900000029000000290000002943
:101A00000001002800000028000000280000002835
:101A10000000002800010027000000270000002728
:101A2000000000270000002700010026000000261B
:101A3000000000260000002600000026000100250E
:101A40000000002500000025000000250000002502
:101A500000000025000100240000002400000024F4
:101A600000000024000000240001002300000023E7
:101A700000000023000000230000002300000023DA
:101A800000000023000100220000002200000022CC
:101A900000000022000000220000002200010021BE
:101AA00000000021000000210000002100000021B2
:101AB00000000021000000210001002000000020A3
:101AC0000000002000000020000000200000002096
:101AD00000000020000000200001001F0000001F87
:101AE0000000001F0000001F0000001F0000001F7A
:101AF0000000001F0001001E0000001E0000001E6C
:101B00000000001E000000C23100001C260000F48E
:101B1000190000D80F0000EB080000C00400007599
:101B200002000040010000646F6E650A00496E7398
:101B3000756666696369656E7420646174610A0024
:101B40004578747261706F6C6174696E67206D6541
:101B500073682E2E2E0053544F505045442E2000B3
:101B60005072696E7465722073746F707065642052
:101B700064756520746F206572726F72732E2046D3
:101B8000697820746865206572726F7220616E6476
:101B900020757365204D39393920746F2072657353
:101BA000746172742E202854656D7065726174754D
:101BB00072652069732072657365742E2053657495
:101BC0002069742061667465722072657374617235
:101BD00074696E67290A0021212053544F502063F5
:101BE000616C6C65642062656361757365206F6606
:101BF00020424C546F756368206572726F72202D9D
:101C000020726573746172742077697468204D392D
:101C100039390A002F2F616374696F6E3A006E6F55
:101C200074696669636174696F6E200062656769D3
:101C30006E00627574746F6E00656E640070726F12
:101C40006D70745F0073686F770050757267654DD3
:101C50006F726500506175736564000000803FC756
:101C6000710842C7718642AAAAC842C771054339A2
:101C70008E2643AAAA47431CC76843C7F184430082
:101C80008095430900000A010008000A01000A09C2
:101C90000000000A000800921C8D1C881C831C5D3B
:101CA0000A0062656420706C616E65206E6F726DF3
:101CB000616C203D205B00436F756C64206E6F7417
:101CC00020636F6D706C657465204C534621005421
:101CD000696C74696E67206D65736820706F696EDA
:101CE0007420003F4572726F722070726F62696E6D
:101CF0006720706F696E742E2041626F7274696E16
:101D000067206F7065726174696F6E2E0A00546986
:101D10006C74696E67206D6573682028332F3329D2
:101D20000A0054696C74696E67206D6573682028B9
:101D3000322F33290A00436F727265637465645FE2
:101D40005A3D0054696C74696E67206D6573682034
:101D500028312F33290A002052004D657368207303
:101D60006176656420696E20736C6F7420003F5546
:101D70006E61626C6520746F2073617665206D659D
:101D8000736820646174612E0A0020736C6F743D67
:101D900000206D65736865735F656E643D00453254
:101DA000454E443D00206D65736820736C6F7473FD
:101DB00020617661696C61626C652E0A003F496E34
:101DC00076616C696420736C6F742E0A004D6573C4
:101DD00068206C6F616465642066726F6D20736C3F
:101DE0006F7420003F556E61626C6520746F206CCB
:101DF0006F6164206D65736820646174612E0A00F0
:101E000048617264636F6465642044656661756CE3
:101E1000742053657474696E6773204C6F616465D8
:101E2000640A00556E696669656420426564204CE9
:101E30006576656C696E67003B200020204D36306A
:101E400033200020550046696C616D656E74206C0E
:101E50006F61642F756E6C6F6164206C656E677462
:101E600068733A0020204D393030204B004C696EA9
:101E700065617220416476616E63653A0020204D91
:101E80003835312058005A2D50726F6265204F66E8
:101E9000667365740020204D3330342050002020BC
:101EA0004D333031205000504944207365747469BB
:101EB0006E67733A00206D65736865732E0A0A00B9
:101EC000454550524F4D2063616E20686F6C642011
:101ED00000416374697665204D65736820536C6FAB
:101EE000743A200020204D34323020530020204D01
:101EF000323036205800486F6D65206F6666736516
:101F0000743A0020204D3230352042004164766121
:101F10006E6365643A20423C6D696E5F7365676D00
:101F2000656E745F74696D655F75733E20533C6DBB
:101F3000696E5F66656564726174653E20543C6DD0
:101F4000696E5F74726176656C5F66656564726107
:101F500074653E20583C6D61785F785F6A65726B8E
:101F60003E20593C6D61785F795F6A65726B3E20F7
:101F70005A3C6D61785F7A5F6A65726B3E20453CC2
:101F80006D61785F655F6A65726B3E0020204D323F
:101F90003034205000416363656C65726174696F11
:101FA0006E2028756E6974732F7332293A20503C65
:101FB0007072696E745F616363656C3E20523C723F
:101FC0006574726163745F616363656C3E20543C49
:101FD00074726176656C5F616363656C3E0020209E
:101FE0004D3230312058004D6178696D756D20415A
:101FF0006363656C65726174696F6E2028756E69C4
:1020000074732F7332293A00204500205900202094
:102010004D3230332058004D6178696D756D206602
:1020200065656472617465732028756E6974732FB9
:1020300073293A0053746570732070657220756E51
:1020400069743A0020440020204D32303020530083
:102050002044697361626C65640A0046696C616D55
:10206000656E742073657474696E67733A00202816
:102070006D6D29002020473231202020203B205543
:102080006E69747320696E206D6D00000048430016
:102090000048430000A04100002042F43DA042F46B
:1020A0003DA04296E3C7430080DE43D0070000D046
:1020B00007000064000000102700002062797465AA
:1020C000733B2063726320004E6F20454550524F92
:1020D0004D2E0A00454550524F4D20646174617386
:1020E000697A65206572726F722E0A0045455052FA
:1020F0004F4D2056657273696F6E204572726F7214
:1021000000454550524F4D20496E64657820457218
:10211000726F7200454550524F4D20435243204547
:1021200072726F72003F4D65736820746F6F20622A
:10213000696720666F7220454550524F4D2E0A0048
:1021400055424C2072657365740A00206C6F61649F
:1021500065642066726F6D2073746F726167652E9F
:102160000A004D65736820003F43616E2774206547
:102170006E61626C65200020696E697469616C69CA
:102180007A65642E0A0A002073746F726564207386
:10219000657474696E6773207265747269657665BB
:1021A00064202800202863616C63756C6174656429
:1021B00029210A0020213D2000454550524F4D2045
:1021C000435243206D69736D61746368202D20282C
:1021D00073746F7265642920002053697A653A2010
:1021E00000496E6465783A2000204D61726C696E1A
:1021F0003D563831290A00454550524F4D207665ED
:102200007273696F6E206D69736D617463682028E5
:10221000454550524F4D3D004D65616E204D6573F3
:1022200068204865696768743A200023206F66203B
:1022300073616D706C65733A20000A50726F626949
:102240006E67206D65736820706F696E7420004939
:102250006E76616C6964206D617020747970652E92
:102260000A0A003F28462961646520686569676835
:102270007420666F7220426564204C6576656C2020
:10228000436F7272656374696F6E206E6F74207035
:102290006C61757369626C652E0A0A003F43616E5A
:1022A000277420616374697661746520616E6420AF
:1022B0006465616374697661746520617420746813
:1022C000652073616D652074696D652E0A0A004290
:1022D0006F7468205820262059206C6F63617469E0
:1022E0006F6E73206D757374206265207370656303
:1022F00069666965642E0A0A003F496E76616C69F9
:102300006420677269642073697A6520284A2920ED
:102310007370656369666965642028322D39292EDA
:102320000A0A003F285029686173652076616C7540
:102330006520696E76616C69642028302D36292EFF
:102340000A0A003F2856296572626F7365206C6522
:1023500076656C20696D706C61757369626C65205F
:1023600028302D34292E0A0A003F2852296570652D
:10237000746974696F6E20636F756E7420696E7610
:10238000616C69642028312B292E0A0A00486F6D80
:10239000696E67204661696C6564006F70656E00E8
:1023A000545249474745524544007A5F6D696E0073
:1023B000795F6D696E00785F6D696E005265706F50
:1023C0007274696E6720656E6473746F70207374C5
:1023D000617475730A003F454550524F4D20737428
:1023E0006F72616765206E6F7420617661696C61E0
:1023F000626C652E0A004F46460A004661646520FD
:102400004865696768742000426564204C6576659C
:102410006C696E6720004661696C656420746F208A
:10242000656E61626C6520426564204C6576656C02
:10243000696E670A00496E76616C6964206D657328
:10244000682E0A0076616C69640A53746F72616762
:102450006520736C6F743A20004D65736820697352
:1024600020003F496E76616C69642073746F7261FD
:10247000676520736C6F742E0A0046696E69736815
:102480006564210A003A207A3A2000206F66200015
:10249000476F696E6720746F3A20580043570A00EF
:1024A000206469723A0020616E676C653A0053746B
:1024B000617274207261646975733A00506F736958
:1024C00074696F6E696E67207468652070726F62E0
:1024D000652E2E2E0A003F4C656773206F66206DB7
:1024E0006F76656D656E7420696D706C617573696A
:1024F000626C652028302D3135292E0A003F2028B6
:10250000582C5929206F7574206F6620626F756E84
:1025100064732E0A0050726F6265206F7574206FAD
:102520006620626F756E6473003F53616D706C65F9
:102530002073697A65206E6F7420706C61757369A1
:10254000626C652028342D3530292E0A004D343830
:10255000205A2D50726F62652052657065617461FA
:1025600062696C69747920546573740A003F285657
:10257000296572626F7365206C6576656C20696D84
:10258000706C61757369626C652028302D34292E5A
:102590000A006563686F3A004572726F723A0020F4
:1025A0004A0020204D343231204900202047323962
:1025B000204939390A006163746976650A0020533D
:1025C000797374656D2076312E3031200020202003
:1025D0007C0A004E414E0020202E20202000207C2E
:1025E000004C43443A0A004353563A0A0020666FAF
:1025F0007220003A0A0A000A42656420546F706F24
:10260000677261706879205265706F727400204340
:102610006F756E7420583A00453100626564002C75
:102620002073797374656D2073746F7070656421A5
:10263000204865617465725F49443A2000486561CD
:1026400074696E67204661696C65640048656174F1
:10265000696E67206661696C6564004D31313220B6
:1026600053687574646F776E0000220A00556E6BB4
:102670006E6F776E20636F6D6D616E643A2022001D
:1026800020453A00205A3A0020593A004361703AF6
:10269000007D007D7D2C776F726B3A7B6D696E3AA1
:1026A0007B783A007D2C6D61783A7B783A002C7A01
:1026B0003A002C793A00617265613A7B66756C6C00
:1026C0003A7B6D696E3A7B783A004348414D42450A
:1026D000525F54454D504552415455524500424178
:1026E00042595354455050494E47004152435300BC
:1026F0004D4F54494F4E5F4D4F444553005448454C
:10270000524D414C5F50524F54454354494F4E0037
:102710004C4F4E475F46494C454E414D4500415553
:10272000544F5245504F52545F53445F5354415499
:102730005553005344434152440050524F4D50545E
:102740005F535550504F525400454D455247454EEA
:1027500043595F50415253455200434153455F4CEA
:10276000494748545F4252494748544E45535300E5
:10277000544F47474C455F4C494748545300534FCB
:102780004654574152455F504F57455200425549B4
:102790004C445F50455243454E54004C4556454CC1
:1027A000494E475F44415441005A5F50524F4245A1
:1027B000004155544F4C4556454C005052494E54DB
:1027C0005F4A4F420050524F4752455353004155C4
:1027D000544F5245504F52545F54454D5000564F40
:1027E0004C554D455452494300454550524F4D00BC
:1027F00042494E4152595F46494C455F5452414E01
:10280000534645520053455249414C5F584F4E5F25
:10281000584F4646004649524D574152455F4E413A
:102820004D453A4D61726C696E20322E302E362E37
:1028300031444947412D546563682041535758310D
:102840002076312E302028536570203231203230EE
:1028500032302031313A33303A31302920534F551C
:102860005243455F434F44455F55524C3A68747438
:1028700070733A2F2F6769746875622E636F6D2FBE
:102880004D61726C696E4669726D776172652F4D2C
:1028900061726C696E2050524F544F434F4C5F56DB
:1028A000455253494F4E3A312E30204D414348490D
:1028B0004E455F545950453A417274696C6C65726B
:1028C00079205369646577696E6465722058312098
:1028D00045585452554445525F434F554E543A3132
:1028E00020555549443A63656465326132662D343A
:1028F0003161322D343734382D396231322D633520
:10290000356336326633363766660A00DFE41124F3
:102910001FBECFEFD1E2DEBFCDBF00E00CBF12E0A3
:10292000A0E0B2E0E4EFF6EE01E00BBF02C00790DA
:102930000D92AE3CB107D9F72FE0AEECB2E001C08A
:102940001D92AA3EB207E1F714E1C7E8D4E100E026
:1029500006C021970109802FFE010E94DFEEC638D4
:10296000D10780E00807A9F70E94D5E00C9478F31E
:102970000C9400002F923F924F925F926F927F9241
:102980008F929F92AF92BF92CF92DF92EF92FF927F
:102990000F931F93CF93DF93CDB7DEB7E1970FB6B9
:1029A000F894DEBF0FBECDBF88AB2091DA022EA710
:1029B00081E08093DA0280910D0C8D3409F411C30B
:1029C000843511F40C94D224873411F00C94E4244F
:1029D00080910B0C90910C0C8B31910509F41BC16B
:1029E000B4F48430910534F482309105DCF597FF1E
:1029F0002DC0F3C28531910511F40C94E6248A317F
:102A0000910509F404C1049709F0E7C2C6C08A32EF
:102A1000910509F430C254F48D31910509F42BC1AC
:102A20000CF419C14E9709F42AC1D7C28B35910510
:102A300009F49EC18C35910509F49FC18A35910531
:102A400009F0CBC21092D9020C94E6248091FD09C2
:102A5000813011F00C94E6240E94698E0E94B563C7
:102A60000C94E6242091FD09213011F00C94E62409
:102A700011E0029709F010E00E94698E19821A8213
:102A80001B821C821D821E821F82188682E50E9484
:102A9000FE35882309F44BC00E947E356B017C0112
:102AA00020E030E0A9010E9455EA882309F455C0CE
:102AB0008091270F9091280FA091290FB0912A0F94
:102AC0008AA39BA3ACA3BDA380912B0F90912C0F45
:102AD000A0912D0FB0912E0F8AA79BA7ACA7BDA7E1
:102AE0008090930B9090940BA090950BB090960BC8
:102AF0004090970B5090980B6090990B70909A0BA8
:102B0000A50194016AA17BA18CA19DA10E9455EA17
:102B100081110C94FC24A30192016AA57BA58CA5CC
:102B20009DA50E9455EA8823C1F00C94FC2489E4F9
:102B30000E94FE35882331F00E947E3569837A83B6
:102B40008B839C838AE40E94FE35882331F00E94A7
:102B50007E356D837E838F83988720E030E0A901E6
:102B600069817A818B819C810E9455EA81110C9444
:102B7000B02520E030E0A9016D817E818F819885AC
:102B80000E9455EA81110C94B0250E94F3D786E685
:102B900093E00E947CD50C94E62480E50E94FE35EB
:102BA000882329F00E9477936B017C0103C0C12C1C
:102BB000D12C760183E50E94FE35882361F00E94C6
:102BC0007E3520E030E04AE754E40E94BBEA0E94F0
:102BD0005BF06B017C010E941A8C8CE793E00E94F1
:102BE000989F0E94DF6EC60ED71EE81EF91E0E9437
:102BF000DF6EDC01CB018C199D09AE09BF09B7FD61
:102C000002C00C94E62480E00E944F2EF0CF0E9478
:102C10000D550C94E62487E00E94636381110C94A7
:102C2000E6248CE0E3E6F2E0DE01119601900D92DD
:102C30008A95E1F780E50E94FE35882321F00E9405
:102C40006A35862F01C080E0BE016F5F7F4F0E9412
:102C5000DCCA0C94E6248091F0098770873011F06B
:102C60000C94C32560E08FE40E94F85481110C9409
:102C7000E6240C94C3250E948D3B0C94E6242091FD
:102C80006F0E3091700E4091710E5091720E6091E6
:102C9000270F7091280F8091290F90912A0F0E9481
:102CA000E8EEAB01BC0188E50E94356F69837A8349
:102CB0008B839C832091730E3091740E4091750E1E
:102CC0005091760E60912B0F70912C0F80912D0FEB
:102CD00090912E0F0E94E8EEAB01BC0189E50E94A5
:102CE000356F6D837E838F839887BE016B5F7F4FC7
:102CF000CE0101960E94A636882311F40C94E62496
:102D000080E00E948DD30E945CC661E085E40E9451
:102D1000F85401E021E041E0682FCE0101960E94C5
:102D200065396B017C019B01AC010E9435F2811178
:102D300019C049815A816B817C8182EB93E00E94AA
:102D4000C2D74D815E816F8178858DEA93E00E94C4
:102D5000C2D7B701A60188EA93E00E94C2D78AE0F1
:102D60000E940C2D0E9443C60E94A1C80C94E62428
:102D70008FE08093D9020C94E6249FE6292E92E0FE
:102D8000392E24EEE22E29E0F22E27E23FE03BA38B
:102D90002AA33BE1C32E3FE0D32E00E010E0D10197
:102DA0008D911D010E94FE35882309F44BC00E94BD
:102DB0007E352B013C01133049F0F6012081318131
:102DC000428153810E94E7EE2B013C01AAA1BBA1E5
:102DD0002D913D914D915C91C301B2010E94E7EEAE
:102DE0004B015C012DEB37E346E855EB0E9448F1BF
:102DF00087FD0AC02DEB37E346E855E3C501B40172
:102E00000E9455EA1816F4F4133051F44092330F2F
:102E10005092340F6092350F7092360F01E012C05D
:102E2000A5019401F70160817181828193810E94E3
:102E3000E8EED7016D937D938D939C931397812F2B
:102E40000E94E5611F5FB4E0EB0EF11CEAA1FBA15B
:102E50003496FBA3EAA3F4E0CF0ED11C143009F0A2
:102E60009ECF002321F083E39FE00E942B8C0E94E1
:102E7000A1C80C94E6248091FD09813011F00C94D6
:102E8000E62489E40E94FE35082F882321F00E9461
:102E90007A35E82E01C0E12C8AE40E94FE35182F15
:102EA000882321F00E947A35F82E01C0F12C0023EE
:102EB00019F029E02E1528F0112349F039E03F15CB
:102EC00030F48AEB93E00E947CD50C94E62480E1F8
:102ED000E7E2FFE0A3E9BBE001900D928A95E1F7FC
:102EE000002359F08E2D0E945F376093930B7093EF
:102EF000940B8093950B9093960B112359F08F2D83
:102F00000E945F376093970B7093980B8093990B97
:102F100090939A0B60E080E50E94F8548823C1F1F9
:102F20000023D1F020916F0E3091700E4091710E00
:102F30005091720E6091930B7091940B8091950B50
:102F40009091960B0E94E7EE6093930B7093940B15
:102F50008093950B9093960B1123D1F02091730ED3
:102F60003091740E4091750E5091760E6091970BD2
:102F70007091980B8091990B90919A0B0E94E7EEBB
:102F80006093970B7093980B8093990B90939A0B87
:102F900040E050E0BA0186E40E94356F6B017C018D
:102FA00020E030E0A9010E9448F118164CF420E01E
:102FB00030E040E752E4C701B6010E94E2EF03C0EF
:102FC00060E070E0CB0169837A838B839C83CE01C0
:102FD00001960E9479C70C94E6240E9404DF0C94A9
:102FE000E62400910B0C10910C0C0B39110509F41F
:102FF000E9C30CF0A1C00936110509F4DDC20CF0DB
:1030000054C00C34110509F48CC25CF50231110571
:1030100009F427C474F417FF02C00C94CF240230C3
:1030200011050CF459C10131110509F49FC10C942B
:10303000CF240A32110509F457C234F40F311105B7
:1030400009F4A8C10C94CF240033110509F465C21A
:103050000B34110511F00C94CF240E948ECA0C94ED
:10306000E6240335110509F4F4C37CF40135110598
:1030700009F4D0C30CF0E5C30D34110511F00C9424
:10308000CF240E94C7CA0C94E6240535110509F423
:103090001FC40CF4E6C30C35110509F43EC4083610
:1030A000110509F442C20C94CF240237110509F42A
:1030B000D5C4F4F40D36110509F457C244F40B36A7
:1030C000110509F4B4C20CF48BC20C94E6240F363B
:1030D000110509F4CCC20CF4B7C20037110511F484
:1030E0000C94E6240137110509F40CC30C94CF2489
:1030F0000737110509F402C57CF40537110509F4F9
:10310000B4C40CF0C1C40337110511F00C94CF24E2
:103110000E942CDF0C94E6240937110509F4F9C448
:103120000CF4EFC40C38110509F416C30639110567
:1031300009F4F6C40C94CF24003981E0180711F487
:103140000C94B9220CF059C00C3D110509F4FFC6CE
:103150001CF50B3C110509F4AEC574F4083C1105CF
:1031600009F41BC5093C110509F482C50E3B110584
:1031700011F00C94CF2411C30D3C110509F4F1C5D5
:103180000CF4BBC50E3C110509F4FEC5033D110549
:1031900009F417C60C94CF240232A1E01A0711F4E7
:1031A0000C9407217CF4023E110509F44DC7083147
:1031B000E1E01E0709F494C70D3D110511F00C94D0
:1031C000CF24ECC60E32F1E01F0711F40C947222EA
:1031D0003CF40D32114011F40C947F210C94CF2457
:1031E0000F3281E0180711F40C94B622003311401D
:1031F00011F40C94FF210C94CF24063FA1E01A0790
:1032000011F40C94BE23A4F5043AE1E01E0711F476
:103210000C94C62284F4023921E0120711F40C94B4
:10322000C12214F40C94BC220A39114011F40C94FC
:10323000E6240C94CF240C3A91E0190711F40C9475
:103240005F233CF4053A114011F40C94C9220C940C
:10325000CF24043FE1E01E0711F40C94BB23053F8B
:10326000114011F00C94CF240E94A5B00C94E624D8
:103270000B3522E0120711F40C94E22384F4083F8A
:1032800081E0180711F40C94CA2314F40C94C123A0
:103290000835124011F40C94DB230C94CF240C3627
:1032A000B3E01B0711F40C94E6244CF403351340EF
:1032B00011F00C94CF240E94A1750C94E6240438DC
:1032C00023E0120711F40C945B24073E134011F421
:1032D0000C94C3240C94CF2480E50E94FE358823EF
:1032E00029F00E9477936B017C0103C0C12CD12C83
:1032F000760183E50E94FE35882361F00E947E35C9
:1033000020E030E04AE754E40E94BBEA0E945BF010
:103310006B017C010E941A8C8091090C90910A0C1F
:10332000892B41F00E94F7D78091090C90910A0CEB
:103330000E94292E80910B0C90910C0C892B19F076
:103340006BED73E002C063ED73E040E082E00E9449
:10335000419F83EE93E00E94719F0E94299F40E06D
:10336000C701B6010E9446320C94E62480910E0CEF
:1033700084FF02C00C949F278091100C87FF02C02D
:103380000C949F278091110C837011F00C949F274F
:103390000C94BC270E943FCA7B018C0120E831E5D8
:1033A00041E050E00E945CEEC9016DE671E00E94D0
:1033B000CBEE4B015C01C801B70120E13EE040E0EB
:1033C00050E00E945CEECA01B90128E130E040E023
:1033D00050E00E945CEE762E672EC62ED72E8CE330
:1033E000282E312C412C512CC801B701A20191018A
:1033F0000E945CEEF62EE72ECA01B901A2019101EE
:103400000E945CEECB018E010F5F1F4F811491046F
:1034100099F0EF92FF927F936F936F927F92BF929A
:10342000AF929F928F9285EF93E09F938F931F931C
:103430000F930E9426EA13C0A114B104B1F0EF92D9
:10344000FF927F936F936F927F92BF92AF9289EFBB
:1034500093E09F938F931F930F930E9426EA0FB6DA
:10346000F894DEBF0FBECDBF30C0CD2879F0EF920B
:10347000FF927F936F936F927F928DEF93E09F9374
:103480008F931F930F930E9426EAE9CF892B69F04F
:10349000EF92FF927F936F9381E094E09F938F93DD
:1034A0001F930F930E9426EADACFEF92FF9285E0F6
:1034B00094E09F938F931F930F930E9426EA0F909F
:1034C0000F900F900F900F900F90C8010E94CB9F0C
:1034D0000E94F7D7B80189E094E00E94E0D78AE023
:1034E0000E940C2D0C94E6246DE070E080E50E94B3
:1034F0000B368C0197FF02C00C94E624E82E60E0A6
:1035000089E40E94F85481110C94CA27802F0E94EC
:10351000DD2A8111B6C50C94CA270E94A5CD0C9452
:10352000E6240E94B2CA0C94E62480913B0983FFF2
:1035300002C00C94E6240E941A8F87FF02C00C94EC
:10354000E62483E50E94FE35882359F00E947E35EB
:103550000E9454F0CB010E94937C61E080E00E94C5
:103560003C820E94AF8A0C94E62480913B0983FF41
:1035700002C00C94E6240E941A8F082F87FF02C015
:103580000C94E62483E50E94FE35F82E81110C94FC
:10359000012882E50E94FE3581110C94012810E07B
:1035A0000E94AF8A112311F40C94E6246F2D802F12
:1035B0000E94BD7E0C94E6240E941A8F182F87FD6E
:1035C0000AC080EB9FE00E947CD5812F0E94B97CCD
:1035D0008AE00E940C2D8EA58093DA020C94B32908
:1035E00060E080E50E9499CD81110C94E62481E48D
:1035F0000E94B535882321F060910504062F02C092
:103600000FEF10E083E50E94FE35882349F00E9409
:103610006A358B016F3F710519F010F00FEF10E064
:103620000093050480E00E94A37C0C94E62460E0F3
:1036300080E50E9499CD81110C94E6241092050436
:103640000E94A37C0C94E6248EE40E94FE3588231D
:1036500011F40C94E6240E946A356093140C709364
:10366000150C8093160C9093170C0C94E62483E5AC
:103670000E94B535882331F060E083E50E9499CD42
:1036800080933B090E94F7D788E294E00E947CD5A2
:1036900080913B09882369F101ECE02E05E0F02ED2
:1036A00000E010E020E080913B0990E0A0E0B0E075
:1036B000002E04C0B695A795979587950A94D2F7E2
:1036C00080FF0EC0DD24D394D20E222319F08CE2A9
:1036D0000E940C2DF701859194910E947CD52D2D8F
:1036E0000F5F1F4F92E0E90EF11C05301105D9F66E
:1036F00004C086EB97E00E947CD58AE00E940C2DE6
:103700000C94E62483E50E94FE35882381F00E9414
:10371000489D282F30E02D33310524F4809300029A
:103720000C94E6248CE3809300020C94E6240E941F
:10373000F7D7C0900002D12CE12CF12C8FE294E05D
:103740000E947CD54AE0C701B6010E94132D8AE091
:103750000E940C2D0C94E62480913B0983FF02C04B
:103760000C94E62483E50E94FE35882311F40C9422
:10377000E6240E947E350E9454F06C3871050CF4EA
:103780008B0110933A0C0093390C0E94418361E045
:1037900080E00E943C820C94E62480913B0983FFE8
:1037A00002C00C94E62483E50E94FE35182F811197
:1037B0000C940F2882E50E94FE3581110C940F288D
:1037C0000C94E62483E50E94FE35882311F40C94C2
:1037D000E6240E94489D182F90E0CD970CF01CE342
:1037E0001093D2020E94DF6E6B017C01212F30E02A
:1037F000A8EEB3E00E94B0EEC60ED71EE81EF91E7A
:10380000C092CE02D092CF02E092D002F092D102CA
:103810000C94E6240E9479830E94C7CA0E94DA8D24
:103820001092050480E00E94A37C68EE73E080E0C3
:1038300090E00E94E0D484E594E00E94989F0C946C
:10384000E6248091D9028F7D80618093D9020C9407
:10385000E6248091D9028F7E80628093D9020C94F5
:10386000E62483E50E94FE358823F1F00E94DF6E96
:1038700060932D0C70932E0C80932F0C9093300C32
:103880000E947E3520E030E04AE754E40E94BBEA23
:103890000E945BF060930102709302028093030226
:1038A000909304020C94E62480910E0C84FF02C0D5
:1038B0000C9444288091100C87FF02C00C9444287B
:1038C0008091110C837011F00C9444280C9476288C
:1038D00083E50E94B535882311F40C94E6240E94F8
:1038E000DF6E60932D0C70932E0C80932F0C9093B1
:1038F000300C0E947E3520E030E04AE754E40E941C
:10390000BBEA0E945BF06093D3027093D402809371
:10391000D5029093D6020C94E6240E941A8F87FF5A
:1039200002C00C94E62490910E0C94FD04C090917A
:10393000100C97FF0AC0BFE6CB2EB2E0DB2E1CE3D3
:10394000E12E19E0F12E10E00AC09091110C937055
:1039500091F7682F81E00E943C930C94E624D601F5
:103960008D916D010E94FE35882309F46DC01330DE
:1039700009F063C00E947E354B015C0120E030E01D
:1039800040EA51E40E9455EA87FF4EC0A501940128
:1039900060915C0970915D0980915E0990915F0969
:1039A0000E94E2EF2B013C019B01AC0160910104FC
:1039B0007091020480910304909104040E94BBEA78
:1039C00060930104709302048093030490930404B1
:1039D000A301920160916C0970916D0980916E094B
:1039E00090916F090E94BBEA60936C0970936D0916
:1039F00080936E0990936F096091ED037091EE03CF
:103A00008091EF039091F0030E945AEAA301920182
:103A10000E94BBEA0E945BF06093ED037093EE039B
:103A20008093EF039093F00380925C0990925D097C
:103A3000A0925E09B0925F0907C00E947E35F7012F
:103A4000648B758B868B978B1F5FF4E0EF0EF11CF8
:103A5000143009F084CF0E94358BB8C70E949FDED6
:103A60008BEC9FE00E94A1DDB1C78091090C909181
:103A70000A0C009709F4AAC7DC012C91222309F44F
:103A8000A5C70E94CB9FA2C70091090C10910A0CF8
:103A900094E0F12C40E0915021F1F8018081282F31
:103AA0002B7F213421F421812133D9F407C08035C3
:103AB000C1F4818180538A3048F013C0813421F0F1
:103AC000853421F441E002C0FF24F39498012E5F75
:103AD0003F4F89012F5F3F4FF80180818032C9F34A
:103AE000DACF41110E94F7D7FF2021F081E794E05F
:103AF0000E947CD5C8010E94292E68C70E9436C941
:103B000065C781E08093F9098093F8090E948BC909
:103B10005DC71092F9091092F8090E948BC956C727
:103B200082E40E94B535882351F08091D7029091AC
:103B3000D802892B31F00E94489D182F03C010E055
:103B400001C01FEF85E50E94B535882351F08091B3
:103B5000D7029091D802892B31F00E94489D082FFE
:103B600003C000E001C00FEF82E50E94B535882355
:103B700049F08091D7029091D802892B29F00E94B8
:103B8000489D03C080E001C08FEF89830A831B83B7
:103B9000CE0101960E94BF9D19C70E941A8F182F4F
:103BA00087FD14C70091850E84E40E94FE358823AA
:103BB00011F40C9479280E947E356B017C0120E081
:103BC00030E0A9010E9455EA882309F44BC024E0A3
:103BD0001202F0011124EF57F14FC082D182E2822C
:103BE000F38220E030E0A901C701B6010E9448F14C
:103BF0001816D4F420E030E040E05FE3C701B601DE
:103C00000E94BBEA9B01AC010E94BBEA2BED3FE0A6
:103C100049E450E40E94BBEA6093050270930602F7
:103C2000809307029093080220E030E0A9016091A0
:103C3000810E7091820E8091830E9091840E0E946D
:103C400055EA81110CC080E090E0A0EEBFE38093C4
:103C5000810E9093820EA093830EB093840E01E0A8
:103C60000C94792880E08093850E0E94615FAEC637
:103C70000E941A8F87FDAAC6AFE6EA2EA2E0FA2EAE
:103C80000CE319E0D7018D917D010E94B5358823A1
:103C900059F00E947E350E945BF0F80160837183C9
:103CA000828393830E94EE8A0C5F1F4FF9E00C34ED
:103CB0001F0741F78BC60E941A8F87FD87C6EFE664
:103CC000EE2EE2E0FE2E0CE319E0FCE4CF2EF9E04C
:103CD000DF2ED7018D917D010E94B535882339F003
:103CE0000E947E35F80164A375A386A397A30C5F99
:103CF0001F4FC016D10669F769C680910F0C87FF68
:103D000002C00C947F288091100C8E7011F00C94DE
:103D10007F284091700950917109609172097091EA
:103D2000730985E794E00E94C2D7409174095091CD
:103D30007509609176097091770987E59DE10E9488
:103D4000C2D7409178095091790960917A097091B0
:103D50007B0985E592E10E94C2D78AE00E940C2D82
:103D600035C680910E0C827111F00C94C52880919B
:103D7000100C8C7811F00C94C5288091110C837074
:103D800011F00C94C52822C67EEFE72E79E0F72EBD
:103D900010E088E5810F0E94B535882359F00E9414
:103DA0007E35D7016D937D938D939C931397812FCF
:103DB0000E94E5611F5FB4E0EB0EF11C133049F780
:103DC00056C840901B0F50901C0F60901D0F7090B4
:103DD0001E0F2091350230913602409137025091EA
:103DE0003802C301B2010E94E8EE6AA37BA38CA350
:103DF0009DA380901F0F9090200FA090210FB09056
:103E0000220F2091390230913A0240913B025091A9
:103E10003C02C501B4010E94E8EE6EA37FA388A70F
:103E200099A7C090230FD090240FE090250FF09019
:103E3000260F20913D0230913E0240913F02509169
:103E40004002C701B6010E94E8EE6AA77BA78CA7D3
:103E50009DA720914102309142024091430250912E
:103E60004402C301B2010E94E8EE2B013C01209103
:103E70004502309146024091470250914802C501E7
:103E8000B4010E94E8EE4B015C012091490230919F
:103E90004A0240914B0250914C02C701B6010E9468
:103EA000E8EE6B017C010E94F7D787EC94E00E945A
:103EB0007CD583E50E94B535882321F00E94E85423
:103EC00080935D0280915D02882319F080E593E084
:103ED00002C081E198E20E947CD58FEB94E00E94C1
:103EE0007CD54AA15BA16CA17DA184EE9FE10E94DB
:103EF000C2D74EA15FA168A579A58BE090E20E9490
:103F0000C2D74AA55BA56CA57DA586E095E00E9479
:103F1000C2D78CED95E20E947CD587EB94E00E949D
:103F20007CD5B301A20184EE9FE10E94C2D7B50106
:103F3000A4018BE090E20E94C2D7B701A60186E0FF
:103F400095E00E94C2D78AE00E940C2D3FC583E510
:103F50000E94FE35882331F00E947A359093140236
:103F60008093130280910E0C90910F0CA091100C75
:103F7000B091110C892B8A2B8B2B09F027C56091EE
:103F800013027091140287ED94E00E94D3D785E26A
:103F90000E940C2D8AE00E940C2D18C50E941A8FD9
:103FA000F82E87FD13C583E50E94FE350F2D0F2CDB
:103FB000000C110B882369F10E947A35F801EE0F8D
:103FC000FF1FE75EFD4F91838083000F111F000FDD
:103FD000111FF801E75FFD4F7F01BC01990F880BAE
:103FE000990B0E945CEA2AE037ED43E25CE30E9411
:103FF000BBEAF801EF50F64F2081318142815381B5
:104000000E94BBEAD7016D937D938D939C93139788
:10401000DDC40E94F7D785E40E940C2D80E38F0D4C
:104020000E940C2D000F111FF801E75EFD4F60810B
:1040300071818BED94E00E94D3D785E20E940C2D14
:104040008AE00E940C2DC2C480E50E94B535882309
:1040500009F4BCC460E070E080E50E940B36F82EE5
:104060006FEF7FEF83E50E940B368C01019603977B
:1040700008F0ACC4F7FCAAC48F2D0E94DD2A882367
:1040800039F00E94F3D783EE94E00E947CD59EC461
:104090000E941A8C60E08F2D0E94A06D0F3FBFEF31
:1040A0001B0731F00130110571F000E010E00DC088
:1040B0008F2D0E94486D31E020E0892B09F030E01F
:1040C000032F122F02C001E010E08F2D0E94486DD7
:1040D0008017910709F47AC480E00E944F2EF5CF33
:1040E00080E50E94B535882309F470C40E947A35B2
:1040F0008C01892B09F07FC083E50E94B5358823A8
:1041000089F00E947A358F3FEFEF9E0729F48FE9FF
:104110009FE00E94022B5AC4BC018FE99FE00E94DD
:10412000C22B54C40E94F7D760E070E082EF94E0A5
:104130000E94D3D78091A10F28E532E06901C81A07
:10414000D10887FDD394CC0CDD1CCC0CDD1C0D2CD0
:10415000000CEE08FF088091A00F28E830E049012C
:10416000881A910887FD9394880C991C880C991CD7
:10417000092C000CAA08BB0880919F0F8F3FC1F04B
:1041800090E0FC01EE0FFF1F8E0F9F1FFC01EA5A0B
:10419000F04F2181328183E0220F331F8A95E1F7AE
:1041A00094E0369527959A95E1F72E5F3F4F02C030
:1041B00020E030E02F5F3F4FC901330FAA0BBB0B4C
:1041C0009C01AD01281939094A095B09A4EBB0E04B
:1041D0000E949DEEA7019601281939094A095B0939
:1041E0000E947EEEB9018AE396E20E94D3D78AE06C
:1041F0000E940C2DEBC30E94F3D7B80183EF94E02B
:104200000E94D3D784EC93E00E947CD5DFC38AE57B
:104210000E94FE35811106C083E50E94FE35882389
:1042200009F44FC00E947E3520E030E040E050ECC1
:104230000E9455EA87FF02C00C9443290E947E35F4
:1042400020E030E040E050E40E9448F1181614F4F9
:104250000C943C290E947E356B017C0184E00E9415
:104260005063811122C02091580930915909409121
:104270005A0950915B09C701B6010E94BBEA0E942E
:1042800054F02091DB023091DC02260F371F30936F
:10429000DC022093DB022091290C30912A0C620F62
:1042A000731F70932A0C6093290C80E50E94B5352A
:1042B000882311F40C944A290E94E85481110C942B
:1042C0004A298091100C87FF02C00C9471298091BB
:1042D000110C837011F00C9471290E94F7D7409152
:1042E000770E5091780E6091790E70917A0E8AEF68
:1042F00094E00E94C2D78AE00E940C2D67C360E060
:1043000085E40E9499CD811173C080E50E94B53586
:10431000882351F00E947E356093480F7093490FB7
:1043200080934A0F90934B0F89E40E94B535882300
:1043300081F00E947E352CEA35EC47E25EE30E9474
:10434000BBEA60934C0F70934D0F80934E0F909388
:104350004F0F84E40E94B535882381F00E947E359A
:104360002CEA35EC47E25EE30E94E2EF6093500FE7
:104370007093510F8093520F9093530F0E94F7D771
:104380004091480F5091490F60914A0F70914B0F27
:1043900081E195E00E94C2D72CEA35EC47E25EE36A
:1043A00060914C0F70914D0F80914E0F90914F0F77
:1043B0000E94E2EFAB01BC018DE095E00E94C2D704
:1043C0002CEA35EC47E25EE36091500F7091510F9B
:1043D0008091520F9091530F0E94BBEAAB01BC0138
:1043E00089E095E00E94C2D78AE00E940C2DEEC2BF
:1043F0000E94F3D783E291E10E947CD5E7C280E579
:104400000E94B535882351F00E947E3560933C0CA4
:1044100070933D0C80933E0C90933F0C89E40E9476
:10442000B535882381F00E947E352CEA35EC47E2D1
:104430005EE30E94BBEA6093400C7093410C809352
:10444000420C9093430C84E40E94B535882381F09C
:104450000E947E352CEA35EC47E25EE30E94E2EFF3
:104460006093440C7093450C8093460C9093470CDA
:104470000E94F7D740913C0C50913D0C60913E0C4E
:1044800070913F0C81E195E00E94C2D72CEA35EC97
:1044900047E25EE36091400C7091410C8091420CC8
:1044A0009091430C0E94E2EFAB01BC018DE095E0DE
:1044B0000E94C2D72CEA35EC47E25EE36091440CDF
:1044C0007091450C8091460C9091470C0E94BBEA7C
:1044D000AB01BC0189E095E00E94C2D78AE00E944E
:1044E0000C2D74C283E50E94B535182F882371F016
:1044F0000E947E350E9454F070930E0260930D026C
:1045000021E0672B09F020E02093160480E50E944B
:10451000B535882359F020910D0230910E02232BDE
:1045200011F00E94E8548093160450C211114EC23B
:104530000E94F7D78EE295E00E947CD58091160408
:10454000882319F08DE993E202C085E195E00E948D
:104550007CD560910D0270910E028DE195E00E9474
:10456000D3D789E195E00E947CD530C20E944C6F80
:104570002DC20E941A8C2AC20E949C360E94A1C899
:1045800025C20E9493360E94A1C820C20E9491D1E8
:104590001DC26FEF7FEF89E40E940B36B82E6FEFDC
:1045A0007FEF8AE40E940B36182F83E40E94B53512
:1045B000E82E8EE40E94B535C82E8AE50E94B535F6
:1045C000F82E811105C081E50E94B535D82E01C0B5
:1045D000D12CEE2081F020E030E040E067E27FE087
:1045E00081E00E9436BE29833A834B835C836D83CE
:1045F0007E83032F02C0012F2B2D8E2D90E0B7FC60
:1046000005C01095111F1127111F01C010E0810F67
:10461000911D019731F4F1100BC0D11009C0C110E8
:1046200007C00E94F3D781E495E00E947CD5CEC1FB
:104630002A3010F40A3038F00E94F3D78AEB93E066
:104640000E947CD5C3C1E22E220FFF08002E000C71
:10465000110BC1101DC00E947E35DD2099F02AE0AB
:104660002E9DF0012F9DF00D1124E00FF11FEE0F94
:10467000FF1FEE0FFF1FED52F34F2081318142816A
:10468000538103C020E030E0A9010E94E8EE04C09D
:1046900060E070E080EC9FE72AE02E9DF0012F9D06
:1046A000F00D1124E00FF11FEE0FFF1FEE0FFF1FA3
:1046B000ED52F34F608371838283938387C187E0D8
:1046C0000E946363811182C104ED11E127E23FE0A2
:1046D0003BA32AA3CE0101961C014FE5C42E4CE05A
:1046E000D42E7C01C8010E9493CDAAA1BBA18D90BC
:1046F0009D90AD90BD90BBA3AAA3A50194010E947B
:10470000E7EE2B013C01F701608371838283938381
:1047100020E030E040EA51EC0E9448F187FD0AC0F9
:1047200020E030E040EA51E4C301B2010E9455EAC2
:1047300018162CF4F601849118160CF4D9C5D7017B
:104740008D909D90AD90BD907D0120E030E040EADD
:1047500051ECC501B4010E9448F187FDD4C520E0A9
:1047600030E040EA51E4C501B4010E9455EA181650
:104770000CF0D0C5C8C50E94318528C10E9440AE4A
:1047800025C161E083E50E94F85491E089270E94E9
:10479000B3B01CC181E08093D20C0E94A6B31092EA
:1047A000D20C882309F412C10E94F7D78FE895E054
:1047B0000E947CD50BC10E941A8F87FD07C10E9401
:1047C000438F04C10E941A8F082F87FDFFC085E523
:1047D0000E94B5358823B1F1E02E002E000CFF08B1
:1047E0000E947E354B015C0120E030E0A9010E946F
:1047F00048F187FF04C0B7FAB094B7F8B094C70186
:1048000023E0880F991F2A95E1F79C012959314F20
:104810007901D9018D929D92AD92BC92139720E0BF
:1048200030E048E453E4C501B4010E9448F1181691
:104830004CF480E090E0A8E4B3E4F7018083918336
:10484000A283B3838CE40E94B535882309F4BEC0EB
:10485000002E000C110B0E947E356B017C0120E0C4
:1048600030E0A9010E9448F187FF04C0F7FAF094F4
:10487000F7F8F09420E030E048E453E4C701B601D3
:104880000E9448F1980193E0220F331F9A95E1F7B7
:10489000F901E959F14F18162CF0C482D582E6824D
:1048A000F78294C080E090E0A8E4B3E48483958329
:1048B000A683B7838BC0A0901704B0901804C09053
:1048C0001904D0901A048BE40E94FE35882339F134
:1048D0000E947E357B018C0120E030E0A9010E941E
:1048E00048F187FD0AC020E030E040E251E4B70122
:1048F000C8010E9455EA1816A4F48FE30E940C2DFB
:104900008BE40E940C2D82EA95E00E947CD58AE916
:1049100095E00E947CD58AE495E20E947CD57501E1
:1049200086019701A801B501C6010E9455EA8823B6
:1049300061F00E941A8CC701D801809317049093EC
:104940001804A0931904B0931A0480910E0C90914E
:104950000F0CA091100CB091110C892B8A2B8B2B72
:10496000A9F50E94F7D7409117045091180460915F
:10497000190470911A0486EB95E00E94C2D78AE070
:104980000E940C2D23C081E08093FD0960E083E547
:104990000E94F85481111AC00E944A7517C00E94E3
:1049A00004DF14C010910B0C0E94DF6E60932D0C7D
:1049B00070932E0C80932F0C9093300C112331F0B8
:1049C000812F0E947E7C02C00E9404DFF8A9F111B1
:1049D0000FC0E0918C0BF0E0E552F04F808188230E
:1049E00039F080EB9FE00E947CD58AE00E940C2D7C
:1049F0002EA52093DA02B7C420E030E0A901C70158
:104A0000B6010E9455EA881F8827881F181709F4E5
:104A1000A2C080E090E0A0E8BFEB8EA39FA3A8A770
:104A2000B9A72AA13BA14CA15DA1C501B4010E9477
:104A3000E7EE20E030E040E05FE30E94BBEA6AA3DB
:104A40007BA38CA39DA32AA53BA54CA55DA5C30173
:104A5000B2010E94E7EE20E030E040E05FE30E9418
:104A6000BBEA2B013C012AA13BA14CA15DA1CA01DB
:104A7000B9010E94BBEA4B015C01A3019201C30191
:104A8000B2010E94BBEA9B01AC01C501B4010E94C6
:104A9000E8EE0E94E6F14B015C019B01AC01C7010D
:104AA000B6010E94E7EE6AA77BA78CA79DA7A50188
:104AB0009401C701B6010E94E8EE9B01AC016AA512
:104AC0007BA58CA59DA50E94BBEA6B017C0120E023
:104AD00030E0A9010E9448F187FD07C0C701B60177
:104AE0000E94E6F16B017C0103C0C12CD12C760140
:104AF000C301B2019058A50194010E94E2EF2EA1DA
:104B00003FA148A559A50E94BBEAA70196010E94B2
:104B1000BBEA2AA13BA14CA15DA10E94E8EE6983FA
:104B20007A838B839C83A50194016AA17BA18CA1CC
:104B30009DA10E94E2EF2EA13FA148A559A50E9488
:104B4000BBEAA70196010E94BBEAA30192010E9461
:104B5000E8EE0C94A91580E090E0A0E8BFE35DCFFB
:104B6000412FBE016F5F7F4F83E99BE00E945C781D
:104B70000E94DF6E60932D0C70932E0C80932F0C8F
:104B80009093300C23CF0E941A8C9091800E9FA797
:104B900080E00E948DD30E94DF6E60932D0C709395
:104BA0002E0C80932F0C9093300C0E945CC681E0F9
:104BB0008093F9090E948BC98AE50E94B535E82ED9
:104BC0008823A1F081E00E945063182F82E00E94A8
:104BD000506301E0811101C000E0111113C088E5AC
:104BE0000E94B535F82E81110DC002C000E0F7CF4C
:104BF0000111A2C189E50E94B535182FF02E80134E
:104C00009CC104C0002309F495C1F02EE01294C1A8
:104C100011E0FF24F39491E09AA782E50E94FE350B
:104C2000882319F00E947E3504C060E070E080EABD
:104C300090E46E8F7F8F88A399A320E030E0A901D4
:104C40000E9455EA882361F0F11006C0111104C0DA
:104C5000AAA5AA2309F460C1CE014E960E94E05194
:104C6000FF2009F4D3C0112309F4CDC01092270FFF
:104C70001092280F1092290F10922A0F10922B0FCA
:104C800010922C0F10922D0F10922E0F0E949FC881
:104C9000EFE5FCE0B491B9AB88EC91E10E9493CDD3
:104CA0006B017C018CEC91E10E9493CD4B015C0186
:104CB0009B01AC01C701B6010E9448F118162CF403
:104CC000A7019601C501B40104C0A5019401C70163
:104CD000B6010E94E2EF2B013C01E8E4FCE0859183
:104CE0009591A591B4918AA39BA3ACA3BDA3E4E441
:104CF000FCE085919591A591B4918EA39FA3A8A75F
:104D0000B9A79C01AD016AA17BA18CA19DA10E94C4
:104D100048F1181634F42EA03FA008A599A59AA32F
:104D200005C02AA03BA00CA1ADA1AAA3A30192019A
:104D3000C301B2010E94BBEA20E030E040E85FE33B
:104D40000E94E8EE0E94E6F19101402F5AA10E94D4
:104D5000BBEA6A8F7B8F8C8F9D8FE0E6FCE004912D
:104D600020E030E040EC5FE3C501B4010E94BBEA03
:104D70004B015C01602F000F770B880B990B0E9491
:104D80005CEA9B01AC01C501B4010E94BBEA6983E6
:104D90007A838B839C8320E030E040EC5FE3C701A3
:104DA000B6010E94BBEA6B017C01B9A96B2FBB0F56
:104DB000770B880B990B0E945CEA9B01AC01C70141
:104DC000B6010E94BBEA6E8B7F8B888F998FAE01F4
:104DD000465E5F4FBE016F5F7F4FCE0146960E94D9
:104DE00038C70E949AC91092270F1092280F10926C
:104DF000290F10922A0F10922B0F10922C0F109245
:104E00002D0F10922E0F80E00E940562112319F0E1
:104E100081E00E940562EAA5EE2309F47DC080E0EE
:104E20000E94A0A083E00E946363811175C00E946C
:104E30009FC8C0902F0FD090300FE090310FF090AE
:104E4000320F20916F0E3091700E4091710E509183
:104E5000720E60E070E086E193E40E94E7EE6093FA
:104E6000930B7093940B8093950B9093960B2091DA
:104E7000730E3091740E4091750E5091760E60E075
:104E800070E086E193E40E94E7EE6093970B7093E5
:104E9000980B8093990B90939A0B2091770E3091F9
:104EA000780E4091790E50917A0EC701B6010E949A
:104EB000E7EE60939B0B70939C0B80939D0B9093FC
:104EC0009E0B83E99BE00E945E398823D9F01E8AFD
:104ED0001F8A188E198E88E0E3E9FBE0DE01119647
:104EE00001900D928A95E1F7AE014A5E5F4FBE01D7
:104EF0006B5F7F4FCE0101960E9438C782E00E940F
:104F000005620AC087E993E00E94989F0E94F7D744
:104F100085E893E00E947CD50E949FC88091F809A3
:104F20008093F9098FA50E948DD30E9443C60E94E9
:104F3000A1C84CCD01E05ECE102FEAA66ECE88E56A
:104F40000E94B53581115F9889E50E94B5358111C0
:104F50008A988AE50E94B535882331F0809108014E
:104F6000817080930601479885E40E94B5358823B7
:104F700009F42CCD12982ACD8CEE93E00E94989FD4
:104F80005F988A9880910801817080930601479804
:104F900012981CCD8DE40E94FE358823A9F00E9452
:104FA000489D813039F020F0823049F462E003C03E
:104FB00060E001C061E0802F0E94A06D05C086E125
:104FC00094E00E947CD502CD83E50E94FE358823C3
:104FD00009F4FCCC0E94489DF82E39E0E31203C08E
:104FE00080930504F3CC61E0802F0E94A06D6F2DAB
:104FF000802F0E94716D6F2D70E0802F0E94DC6DFC
:10500000E5CC0E947E350E9454F0CB010E94937C37
:1050100061E081E00E943C8211E00C94D01A0E9471
:105020007E350E9454F06C3871055CF570933A0C33
:105030006093390C0E94418360E081E00E943C82D1
:105040006091390C70913A0C072E000C880B990B6B
:105050000E945CEA2091350C3091360C4091370C5F
:105060005091380C0E9448F118161CF485E494E025
:1050700002C086E394E00E94989F812F0E942B7DBE
:10508000A5CC6CE870E0D2CF0E941A8C88E50E9413
:10509000B535882331F05F9A8091FB098E7F80932C
:1050A000FB0989E50E94B535882331F08A9A809101
:1050B000FB098D7F8093FB098AE50E94B535882323
:1050C00061F0809108018095817080930601479A74
:1050D0008091FB098B7F8093FB0985E40E94B535A5
:1050E000882309F473CC0E94932A70CC0E94DA8D35
:1050F0006DCC602F83E50E94F8540C94331E83E539
:105100000E94FE35882391F00E947E3560937009DD
:105110007093710980937209909373096093780971
:105120007093790980937A0990937B0980E50E94B6
:10513000FE35882351F00E947E356093700970938C
:105140007109809372099093730982E50E94FE357C
:10515000882351F00E947E3560937409709375091D
:10516000809376099093770984E50E94FE35882321
:1051700009F42CCC0E947E356093780970937909EC
:1051800080937A0990937B0921CC82E40E94B53503
:10519000882351F00E94779360934C0970934D09D6
:1051A00080934E0990934F0983E50E94B53588237B
:1051B00051F00E947E3560937C0970937D09809345
:1051C0007E0990937F0984E50E94B535882351F0CC
:1051D0000E947E35609380097093810980938209D3
:1051E0009093830988E50E94B535882351F00E9489
:1051F0007E356093F5037093F6038093F7039093E5
:10520000F80389E50E94B535882351F00E947E3568
:105210006093F9037093FA038093FB039093FC036C
:105220008AE50E94B5358823B1F00E947E356093EF
:10523000FD037093FE038093FF03909300042DEC15
:105240003CEC4CEC5DE30E9455EA181624F085E82E
:1052500094E00E947CD585E40E94B535882309F44A
:10526000B5CB0E947E356093010470930204809355
:10527000030490930404AACBC12CD12CE12C10E49C
:10528000F12E0C942E21C12CD12CE12CB0ECFB2E54
:105290000C942E21A70196016091770E7091780EE3
:1052A0008091790E90917A0E0E94E8EE6093770ECD
:1052B0007093780E8093790E90937A0E0E94F7D7B0
:1052C0004091770E5091780E6091790E70917A0E20
:1052D0008AEF94E00E94C2D78AE00E940C2D0C94C1
:1052E000612182E50E94B53581110C946D216ECB50
:1052F000B7FAB094B7F8B094D7018D929D92AD9261
:10530000BC9213971CCA0E94F3D781E795E00E94D4
:105310007CD55CCB0C5F1F4FBFEFCB1ADB0AE0EEF6
:10532000F1E1E017F10709F0DDC93EEFE32E39E0C6
:10533000F32E10E0F10181919191A191B1911F01A2
:10534000F70181939193A193B1937F01812F0E94E3
:10535000E5611F5F133071F70E94A1C881E695E0F7
:105360000E94989F33CBE1960FB6F894DEBF0FBE34
:10537000CDBFDF91CF911F910F91FF90EF90DF9004
:10538000CF90BF90AF909F908F907F906F905F90E5
:105390004F903F902F900895CF92DF92EF92FF921F
:1053A0000F931F93CF93DF936C018B017A01EC0174
:1053B000C451DD4F888187FF04C0FB011182108238
:1053C00024C02CE02C9DC0012D9D900D112428811E
:1053D000AC01420F511D27FD5A9520919E0F30E0E0
:1053E0004217530794F42881AC01420F511D27FD49
:1053F0005A959A01FA01EE0FFF1F2E0F3F1FF90178
:10540000EA5AF04F208127FD19C088818F5F888379
:105410002CE02C9DC0012D9D900D11242881AC0104
:10542000420F511D27FD5A9520919E0F30E04217E3
:105430005307BCF428812C3044F113C02881820F1B
:10544000911D27FD9A95FC01EE0FFF1F8E0F9F1FE8
:10545000FC01EA5AF04F808160E08F770E94716D05
:10546000D4CFF80180819181049680349C4918F44E
:1054700080E49CE904C0F801808191810496F701E1
:10548000918380838FEF888345C0F80140815181EB
:105490002881BC01620F711D27FD7A959B01FB01DC
:1054A000EE0FFF1F2E0F3F1FF901EA5AF04F218127
:1054B0003281240F351FF701318320832881AC010D
:1054C000420F511D27FD5A959A01FA01EE0FFF1F59
:1054D0002E0F3F1FF901EA5AF04F208127FF1AC013
:1054E0002881820F911D27FD9A95FC01EE0FFF1F69
:1054F0008E0F9F1FFC01EA5AF04F808161E08F7789
:10550000DF91CF911F910F91FF90EF90DF90CF909F
:105510000C94716DDF91CF911F910F91FF90EF90DF
:10552000DF90CF900895129A08955F9A8091FB09B9
:105530008E7F8093FB098A9A8091FB098D7F8093EF
:10554000FB09809108018095817080930601479A3C
:105550008091FB098B7F8093FB090C94932AC42FC5
:105560000E9479830E94F3D78AEB97E00E947CD552
:1055700061E081EB97E00E94119F89EE93E030E6B5
:10558000019729F0232F2A950000E9F7F9CFF89425
:1055900089EE93E038EE019729F0232F2A95000039
:1055A000E9F7F9CF0E947983CC2319F00E94952A5C
:1055B00002C00E94932AA895FECFFF920F931F93DB
:1055C000CF93DF931F92CDB7DEB7F82E0AED17E029
:1055D00041E050E0B801CE0101960E94C8E98981FE
:1055E0008F1102C081E007C00F5F1F4F87E0063FA9
:1055F000180771F780E00F90DF91CF911F910F9105
:10560000FF900895DC01EC91F0E0CF01880F991F25
:10561000E80FF91FEA5AF04F80818F778083089551
:105620008F929F92AF92BF92CF92DF92EF92FF92B2
:105630000F93CF93DF931F92CDB7DEB75C016B0161
:105640007A014901F501808191810E9436EE8983BA
:10565000002311F0F6018083BE016F5F7F4FC4010C
:105660000E9487DEF501808191810196918380837C
:10567000FFEFCF1ADF0A81E0E81AF10819F780E09E
:105680000F90DF91CF910F91FF90EF90DF90CF902F
:10569000BF90AF909F908F9008957F928F929F922E
:1056A000AF92BF92CF92DF92EF92FF920F931F9330
:1056B000CF93DF931F92CDB7DEB77C0159018B01E9
:1056C0006B01C40ED51E0C151D0559F1F701808024
:1056D0009180F80171908F017982C4010E9436EEA9
:1056E000781691F0672DC4010E943EEEC4010E941D
:1056F00036EE9981891741F00E94F7D788E996E044
:105700000E947CD581E00EC0BE016F5F7F4FC50156
:105710000E9487DEF70180819181019691838083C9
:10572000D2CF80E00F90DF91CF911F910F91FF902A
:10573000EF90DF90CF90BF90AF909F908F907F9031
:105740000895009781F41092900082E08093910078
:105750001092950010929400C19A8091710082601D
:10576000809371000895019761F41092A00082E087
:105770008093A1001092A5001092A40089BB809391
:10578000720008957F928F929F92AF92BF92CF92B4
:10579000DF92EF92FF920F931F93CF93DF93FC0161
:1057A0009081983108F0CEC06B017F01892F90E085
:1057B000FC01EE0FFF1F8E0F9F1FFC01EA5AF04FF6
:1057C000808161E08F770E94A06DF70111821282C3
:1057D00080816CE00E94BFEEFCE08F9FB00111243D
:1057E00040E050E09B01240F351FF901EE0FFF1F31
:1057F0002E0F3F1FF901EA5AF04F908197FD08C024
:105800004F5F5F4F4C30510569F790E00E94A12B2C
:10581000F7017080C72DD0E08E01000F111FF80135
:10582000EC0FFD1FEA5AF04F80818068808377FC7F
:1058300089C0F0E2CF16F2E0DF060CF041C0F701BC
:10584000828128E532E0281B310987FD3395220F3C
:10585000331F220F331F032E000C440B550B818185
:1058600068E870E04B01881A910887FD9394880CD2
:10587000991C880C991C092C000CAA08BB08D7FCA1
:105880000BC0B601653B710514F064EB70E0072EA8
:10589000000C880B990B03C060E070E0CB01281965
:1058A00039094A095B090E944CEE24EB30E040E0E4
:1058B00050E00E947EEE820E931EA41EB51E01C013
:1058C0004601F7E1F71558F1F701218188E890E0EA
:1058D000821B910927FD9395880F991F880F991FA7
:1058E0008816990684F0F701228188E592E0821BF0
:1058F000910927FD9395880F991F880F991F881686
:1059000099060CF4C40102972FB7F894C00FD11F69
:10591000CA5AD04F880F991F9A8389832FBF62E399
:1059200070E080E090E0DF91CF911F910F91FF90A8
:10593000EF90DF90CF90BF90AF909F908F907F902F
:105940000C94E0D4DF91CF911F910F91FF90EF90D5
:10595000DF90CF90BF90AF909F908F907F900895F1
:105960001F920F920FB60F9211240BB60F922F9326
:105970003F934F935F936F937F938F939F93AF93D7
:10598000BF93EF93FF9348EA50E064EA70E081E050
:1059900090E00E94CC29FF91EF91BF91AF919F9130
:1059A0008F917F916F915F914F913F912F910F90C8
:1059B0000BBE0F900FBE0F901F9018951F920F9265
:1059C0000FB60F9211240BB60F922F933F934F9364
:1059D0005F936F937F938F939F93AF93BF93EF9357
:1059E000FF9348E950E064E970E080E090E00E94B5
:1059F000CC29FF91EF91BF91AF919F918F917F91B2
:105A00006F915F914F913F912F910F900BBE0F902F
:105A10000FBE0F901F9018959091C00095FFFCCF7E
:105A20008093C60008958F929F92AF92BF92EF929B
:105A3000FF920F931F93CF93DF93CDB7DEB7A0975D
:105A40000FB6F894DEBF0FBECDBF6115710581059D
:105A5000910591F100E0842E912CA12CB12C102FF6
:105A6000EE24E394F12CEC0EFD1EE00EF11C07FD7C
:105A7000FA94A50194010E945CEEF7016083B901DC
:105A8000CA010F5F611571058105910541F71F3F3F
:105A900031F1E1E0F0E0EC0FFD1FE10FF11D17FD2A
:105AA000FA9580818A3010F097E301C090E3890F66
:105AB0000E940C2D1150EBCF80E3A0960FB6F89406
:105AC000DEBF0FBECDBFDF91CF911F910F91FF9031
:105AD000EF90BF90AF909F908F900C940C2DA0965C
