:100000000C94F8110C9429120C9429120C942912B6
:100010000C9429120C9429120C9429120C94291274
:100020000C9429120C9429120C9429120C94291264
:100030000C9429120C9429120C9429120C94291254
:100040000C9429120C943D470C9429120C942912FB
:100050000C9429120C9429120C9453770C94169E2C
:100060000C9429120C9442300C940D300C942912EB
:100070000C9429120C9429120C9429120C94291214
:100080000C9429120C9429120C9429120C94291204
:100090000C9429120C9429120C9429120C942912F4
:1000A0000C9429120C9429120C9429120C942912E4
:1000B0000C9429120C9429120C9429120C942912D4
:1000C0000C9429120C9429120C9429120C942912C4
:1000D0000C9429120C9429120C9429120C942912B4
:1000E0000C94291278308A309C30AD30B530E8302D
:1000F000B930E830BD30C130E830C530C930CD301E
:10010000D630E830E13028992B991A991E99229916
:1001100062992F99339939993D99419947994B990A
:100120004F996299559959995D99349D399D3E9D94
:10013000489D529DCB9D5C9D649D6C9D769D809D50
:100140008A9D999DA39DCB9DAD9DB79DC19D084A5C
:10015000D73B3BCE016E84BCBFFDC12F3D6C7431DB
:100160009ABD56833DDA3D00C77F11BED9E4BB4C32
:100170003E916BAAAABE000000803F05A84CCDB2FC
:10018000D44EB93836A9020C50B9918688083CA6DD
:10019000AAAA2ABE000000803F000C94C19D0C94C6
:1001A0004B990C94999D0C9441990C944F990C94F3
:1001B000769D0C941A990C94399D0C945C9D0C942A
:1001C00022990C943D990C94B9300C94AD9D0C94EB
:1001D000CB9D0C94489D0C948A300C9433990C94CC
:1001E0009C300C94649D0C94A39D0C94E8300C946A
:1001F0002B990C9478300C94C1300C94C5300C942D
:10020000D6300C945D990C9455990C948A9D0C945D
:10021000AD300C94B79D0C94C9300C941E990C947D
:100220003E9D0C9462990C9428990C9439990C94E5
:10023000E1300C94CD300C94809D0C94529D0C9424
:1002400047990C943CB70C94BD300C942F990C94A6
:100250006C9D0C94349D0C9459990C94B5304E417E
:100260004E494E495459494E46CDCCCC3D0AD72330
:100270003C17B7D13877CC2B329595E6241FB14F78
:100280000A000020410000C84200401C4620BCBEBD
:100290004CCA1B0E5AAEC59D7400407A10F35A002A
:1002A000A0724E18090010A5D4E80000E87648179F
:1002B0000000E40B54020000CA9A3B000000E1F584
:1002C00005000080969800000040420F000000A04A
:1002D0008601000000102700000000E80300000075
:1002E000006400000000000A00000000000100009F
:1002F0000000002C76D888DC674F0823DFC1DFAE12
:1003000059E1B1B796E5E3E453C63AE651997696DA
:10031000E8E6C28426EB898C9B62ED407C6FFCEFA3
:10032000BC9C9F40F2BAA56FA5F490055A2AF75CD1
:10033000936B6CF9676DC11BFCE0E40D47FEF52083
:10034000E6B500D0ED902E0300943577050080844B
:100350001E080000204E0A000000C80C333333335F
:100360000F986E12831141EF8D2114893BE65516CB
:10037000CFFEE6DB18D1844B381BF77C1D901DA403
:10038000BBE424203284725E228100C9F124ECA1F6
:10039000E53D27434F4D4D554E49434154494F4E3E
:1003A0000044525952554E004552524F5253004547
:1003B00043484F0047322F47332062616420706109
:1003C00072616D65746572730A00536C6565702E99
:1003D0002E2E005A2050726F626520506173742077
:1003E0004265640A005A2050726F62652050617342
:1003F0007420426564004D65736820706F696E7487
:10040000206F7574206F662072616E67650A004DFB
:10041000302053746F70004D312053746F7000435F
:100420006F6E74696E7565004E6F204D6F76652E28
:100430000025697920256964202569682025696D72
:1004400020256973005072696E742074696D653A75
:10045000200044454255473A004D31313320530086
:1004600042656420436F6F6C696E672E2E2E0042CA
:1004700065642048656174696E672E2E2E00417296
:1004800074696C6C657279205369646577696E6410
:100490006572205831204F46462E002F2F200041F4
:1004A0006363656C65726174696F6E3A20500057C2
:1004B00041524E494E4721204C6F77205A204A65C1
:1004C000726B206D6179206C65616420746F20759A
:1004D0006E77616E746564207061757365732E0A42
:1004E0000046523A0020466C6F773A20004D424C4D
:1004F0002041646A757374205A0020643A002069B0
:100500003A0020703A006469730043290A0061626E
:100510006C656420286D696E2074656D70200043E1
:100520006F6C6420657874727564657320617265A0
:1005300020004D34323120696E636F7272656374CE
:1005400020706172616D6574657220757361676595
:100550000A004F666673657473204170706C69653C
:100560006400546F6F206661722066726F6D207236
:1005700065666572656E636520706F696E740A00EA
:10058000454550524F4D204F4B0A002028302D3109
:100590003029002076616C7565206F7574206F6658
:1005A0002072616E676500416476616E6365204B01
:1005B0003D00AF03D005A803A1039303554E4B4E56
:1005C0004F574E2053544154450047434F44455FD5
:1005D000494E464F004C43445F50415553455F528E
:1005E0004553554D450046494C414D454E545F528B
:1005F000554E4F55545F434F4E54494E5545004656
:10060000494C414D454E545F52554E4F5554004D47
:1006100038373620526573706F6E64696E6720508C
:10062000524F4D50545F004D3234004572726F721C
:100630002077726974696E6720746F204545505247
:100640004F4D210A0053544F505045442E20005026
:1006500072696E7465722073746F70706564206463
:10066000756520746F206572726F72732E204669F3
:100670007820746865206572726F7220616E6420E4
:10068000757365204D39393920746F207265737424
:100690006172742E202854656D7065726174757274
:1006A000652069732072657365742E20536574200C
:1006B0006974206166746572207265737461727406
:1006C000696E67290A004E6F20436865636B737516
:1006D0006D2077697468206C696E65206E756D6237
:1006E00065722C204C617374204C696E653A200051
:1006F000636865636B73756D206D69736D61746399
:10070000682C204C617374204C696E653A20004C53
:10071000696E65204E756D626572206973206E6F1B
:1007200074204C617374204C696E65204E756D6247
:1007300065722B312C204C617374204C696E653AC4
:1007400020004D313130002121204B494C4C206399
:10075000617573656420627920746F6F206D7563B5
:100760006820696E6163746976652074696D6520BF
:100770002D2063757272656E7420636F6D6D616E8E
:10078000643A2000627573793A207061757365640C
:1007900020666F7220696E7075740A0062757379D5
:1007A0003A2070617573656420666F722075736599
:1007B000720A00627573793A2070726F63657373A1
:1007C000696E670A00706F7765726F6666005072B7
:1007D000696E7465722068616C7465642E206B6943
:1007E0006C6C28292063616C6C6564210A00656368
:1007F000686F3A004572726F723A000A4D65617314
:100800007572656420706F696E74733A0A0035788A
:1008100035206D6573682E205A206F666673657487
:100820003A20002F2F616374696F6E3A006E6F7407
:10083000696669636174696F6E2000626567696EDD
:1008400000627574746F6E00656E640070726F6D17
:1008500070745F0073686F77000080984300809821
:10086000430000C84300000000000000000000003A
:100870000053657474696E67732053746F72656496
:100880000053657474696E67732053746F72656486
:10089000202800486F6D696E67204661696C656449
:1008A000006F70656E0054524947474552454400F9
:1008B0007A5F6D696E00795F6D696E00785F6D6952
:1008C0006E005265706F7274696E6720656E647336
:1008D000746F70207374617475730A00486F6D656E
:1008E0002025732573257320466972737400576140
:1008F000726E696E673A20486F6D696E6720427547
:100900006D702044697669736F72203C20310A0053
:1009100000004842000048420000804002020400FB
:1009200000A0400000A04000000040FFFFFF24F4B2
:10093000D43050C38E20C2A24017828B7011127A1D
:10094000910D816CD90AA861E108C7586607615109
:1009500043061E4B5D05C145A7041A411104093D1C
:100960009803713931034036DB0265339102D4308C
:100970005402802E1D02632CEE01752AC501B02899
:10098000A001102781018F2564012B244B01E02257
:100990003401AC211F018D200D01801FFC00841E3D
:1009A000ED00971DDF00B81CD200E61BC600201B1F
:1009B000BC00641AB200B219A8000A19A0006A1893
:1009C0009900D117910040178B00B516840031169D
:1009D0007E00B31579003A157300C7146F005814E0
:1009E0006A00EE1366008813630025135E00C712C9
:1009F0005B006C12570015125400C11151007011A8
:100A00004F0021114B00D61049008D1047004610B1
:100A1000440002104200C00F4000800F3E00420F11
:100A20003C00060F3B00CB0E3800930E37005C0EE7
:100A30003500270E3400F30D3200C10D3100900D4A
:100A40003000600D2E00320D2D00050D2C00D90C4C
:100A50002B00AE0C2900850C29005C0C2700350CFE
:100A600027000E0C2600E80B2400C40B2400A00B6A
:100A700023007D0B23005A0B2100390B2100180B9A
:100A80002000F80A1F00D90A1E00BB0A1E009D0A9A
:100A90001D00800A1D00630A1C00470A1B002C0A67
:100AA0001B00110A1A00F7091A00DD091900C40910
:100AB0001900AB091900920917007B091800630996
:100AC00017004C09160036091600200916000A09FD
:100AD0001500F5081500E0081400CC081400B8084B
:100AE0001400A4081400900813007D0812006B087D
:100AF0001300580812004608120034081100230899
:100B000011001208110001081100F0071000E007A1
:100B10001000D0071000C0071000B0070F00A10799
:100B2000100091070E0083070F0074070F00650780
:100B30000E0057070E0049070E003B070D002E0759
:100B40000E0020070D0013070D0006070D00F90623
:100B50000C00ED060D00E0060C00D4060C00C806E3
:100B60000C00BC060C00B0060C00A4060B00990695
:100B70000C008D060B0082060B0077060B006C063E
:100B80000B0061060A0057060B004C060A004206DD
:100B90000A0038060A002E060A0024060A001A0671
:100BA0000A001006090007060A00FD050900F40501
:100BB0000900EB050900E2050900D9050900D00587
:100BC0000900C7050900BE050900B5050800AD0507
:100BD0000800A50509009C050800940508008C057F
:100BE0000800840508007C050800740508006C05F1
:100BF0000700650508005D050700560508004E055D
:100C000007004705070040050800380507003105C3
:100C100007002A050700230507001C050600160526
:100C200007000F0507000805060002050700FB0482
:100C30000600F5040700EE040600E8040600E204DE
:100C40000700DB040600D5040600CF040600C90433
:100C50000600C3040600BD040600B7040600B10484
:100C60000500AC040600A6040600A00405009B04D1
:100C7000060095040500900406008A04050085041A
:100C80000500800406007A04050075040500700460
:100C900005006B04050066040500610405005C04A2
:100CA000050057040500520405004D0405004804E2
:100CB0000500430405003E0404003A040500350421
:100CC0000500300404002C0405002704040023045C
:100CD00005001E0404001A04040016040500110493
:100CE00004000D04040009040500040404000004C9
:100CF0000400FC030400F8030400F4030400F00300
:100D00000400EC030400E8030400E4030400E0032F
:100D10000400DC030400D8030400D4030400D0035F
:100D20000400CC030400C8030300C503030024F43B
:100D300004D9201BC40C5C0E9804C4095F0265072B
:100D40007101F405F900FB04B30048048700C103F6
:100D500069005803550003034500BE023A008402AF
:100D6000310053022A002902250004022000E40178
:100D70001C00C8011900AF0117009801140084017C
:100D80001300710110006101100051010E004301B8
:100D90000D0036010B002B010B0020010B0015018B
:100DA00009000C01090003010800FB000800F30022
:100DB0000800EB000700E4000600DE000600D80093
:100DC0000600D2000600CC000500C7000500C200E6
:100DD0000500BD000400B9000400B5000400B10026
:100DE0000400AD000400A9000400A5000300A20057
:100DF00003009F0004009B0003009800030095007F
:100E0000020093000300900003008D0002008B009D
:100E100003008800020086000200840003008100B5
:100E200002007F0002007D0002007B0002007900CA
:100E300002007700010076000200740002007200D8
:100E40000100710002006F0002006D0001006C00E3
:100E500002006A00010069000200670001006600EC
:100E600001006500010064000200620001006100F1
:100E70000100600001005F0002005D0001005C00F5
:100E800001005B0001005A000100590001005800F8
:100E900001005700010056000100550001005400F8
:100EA00001005300000053000100520001005100F6
:100EB0000100500001004F0001004E0000004E00F4
:100EC00001004D0001004C0001004B0000004B00F0
:100ED00001004A00010049000100480000004800EC
:100EE00001004700010046000000460001004500E7
:100EF00000004500010044000100430000004300E1
:100F000001004200000042000100410000004100D9
:100F10000100400001003F0000003F0001003E00D2
:100F200000003E0001003D0000003D0001003C00CB
:100F300000003C0000003C0001003B0000003B00C2
:100F400001003A0000003A000100390000003900B9
:100F500001003800000038000000380001003700B0
:100F600000003700010036000000360000003600A7
:100F7000010035000000350000003500010034009C
:100F80000000340000003400010033000000330092
:100F90000000330001003200000032000000320087
:100FA000010031000000310000003100010030007C
:100FB000000030000000300001002F0000002F0072
:100FC00000002F0000002F0001002E0000002E0066
:100FD00000002E0001002D0000002D0000002D005B
:100FE00000002D0001002C0000002C0000002C004F
:100FF00000002C0001002B0000002B0000002B0043
:1010000000002B0001002A0000002A0000002A0036
:1010100000002A000100290000002900000029002A
:10102000000029000000290001002800000028001D
:101030000000280000002800000028000100270010
:101040000000270000002700000027000000270004
:1010500001002600000026000000260000002600F7
:1010600000002600010025000000250000002500EA
:1010700000002500000025000000250001002400DC
:1010800000002400000024000000240000002400D0
:1010900001002300000023000000230000002300C3
:1010A00000002300000023000000230001002200B4
:1010B00000002200000022000000220000002200A8
:1010C000000022000100210000002100000021009A
:1010D000000021000000210000002100000021008C
:1010E000010020000000200000002000000020007F
:1010F0000000200000002000000020000000200070
:1011000001001F0000001F0000001F0000001F0062
:1011100000001F0000001F0000001F0001001E0053
:1011200000001E0000001E0000001E000000C23172
:1011300000001C260000F4190000D80F0000EB0886
:101140000000C004000075020000400100002043C0
:101150006F756E7420583A00453100626564002C4A
:101160002073797374656D2073746F70706564217A
:10117000204865617465725F49443A20000020741C
:101180006F6F206C6F6E6720657874727573696F0E
:101190006E2070726576656E7465640A0020636FF8
:1011A0006C6420657874727573696F6E20707265F7
:1011B00076656E7465640A00206F66200046696E6D
:1011C0006973686564210A003A207A3A2000476F03
:1011D000696E6720746F3A20580043570A002064F4
:1011E00069723A0020616E676C653A0053746172EF
:1011F00074207261646975733A00506F7369746921
:101200006F6E696E67207468652070726F62652EFC
:101210002E2E0A003F4C656773206F66206D6F7637
:10122000656D656E7420696D706C61757369626C53
:10123000652028302D3135292E0A003F2028582CD2
:101240005929206F7574206F6620626F756E647304
:101250002E0A0050726F6265206F7574206F6620D1
:10126000626F756E6473003F53616D706C652073BF
:10127000697A65206E6F7420706C61757369626C39
:10128000652028342D3530292E0A004D3438205A57
:101290002D50726F6265205265706561746162697C
:1012A0006C69747920546573740A003F2856296567
:1012B00072626F7365206C6576656C20696D706C09
:1012C00061757369626C652028302D34292E0A00FF
:1012D0005374616E646172642044657669617469F7
:1012E0006F6E3A20002052616E67653A20002053ED
:1012F00069676D613A20004D65616E3A2000204DAE
:10130000393220580020204D61783A200020204DAD
:10131000696E3A2000536F667420656E6473746F53
:1013200070733A200020496E76616C69642065789C
:10133000747275646572200057616974696E672004
:10134000666F72206865617475702E0A004C656165
:1013500076696E6720473236003F53706563696671
:1013600069656420582C5920636F6F7264696E61DF
:101370007465206F7574206F6620626F756E64737C
:101380002E0A003F28522965706561742076616CD1
:101390007565206E6F7420706C61757369626C6521
:1013A0003B206D757374206265206174206C6561EB
:1013B000737420312E0A003F2852296570656174CC
:1013C000206D75737420626520737065636966694A
:1013D0006564207768656E206E6F74207573696E22
:1013E0006720616E204C43442E0A003F53706563B2
:1013F0006966696564206E6F7A7A6C652074656DC4
:101400007065726174757265206E6F7420706C61A6
:10141000757369626C652E0A003F53706563696677
:101420006965642066696C616D656E742073697AA4
:1014300065206E6F7420706C61757369626C652EC7
:101440000A003F537065636966696564207072695C
:101450006D65206C656E677468206E6F7420706CAB
:1014600061757369626C652E0A003F5072696D6523
:10147000206C656E677468206D75737420626520DA
:10148000737065636966696564207768656E206E50
:101490006F74207573696E6720616E204C43442E13
:1014A0000A003F537065636966696564206E6F7AF0
:1014B0007A6C652073697A65206E6F7420706C6138
:1014C000757369626C652E0A003F526574726163C0
:1014D00074696F6E204D756C7469706C69657220EB
:1014E0006D757374206265207370656369666965E4
:1014F000642E0A003F537065636966696564205213
:10150000657472616374696F6E204D756C74697077
:101510006C696572206E6F7420706C61757369629E
:101520006C652E0A003F53706563696669656420C7
:101530006C6179657220686569676874206E6F7484
:1015400020706C61757369626C652E0A0043292EE8
:101550000A003F537065636966696564206265646B
:101560002074656D7065726174757265206E6F743C
:1015700020706C61757369626C65202834302D00B1
:10158000473236207374617274696E672E2E2E0A8C
:101590000048656174696E67204661696C65640026
:1015A00048656174696E67206661696C6564004DA9
:1015B0003131322053687574646F776E00202D20AE
:1015C000496E76616C6964206578747275646572C1
:1015D000206E756D62657220210A00544845524D97
:1015E000414C2052554E4157415900546865726D27
:1015F000616C2052756E61776179004572723A2094
:101600004D415854454D50004D415854454D502082
:10161000747269676765726564004572723A204D3D
:10162000494E54454D50004D494E54454D5020743F
:10163000726967676572656400202F002042403A36
:101640000020403A0050757267654D6F726500501A
:1016500061757365640053656E64204D31303820C8
:10166000746F20726573756D650A005265686561F7
:101670007420446F6E6500526568656174696E67B9
:101680002E2E2E0052656865617400486561746590
:10169000722054696D656F75740053656E64204DDA
:1016A00031303820746F2068656174206E6F7A7AEB
:1016B0006C650A004E6F7A7A6C65205061726B65BA
:1016C0006400486F74656E6420746F6F20636F6C84
:1016D000640A00706175736564005061757365001C
:1016E0004C6F61642046696C616D656E74205400B6
:1016F000496E736572742066696C616D656E7420E5
:10170000616E642073656E64204D3130380A00725A
:101710006573756D6564004469736D697373005218
:101720006573756D696E6700496E76616C696420DA
:1017300065787472756465720A0020573A004D31FD
:1017400030362050002020506C616E6E65724275FC
:101750006666657242797465733A20002046726548
:1017600065204D656D6F72793A2000436F6D706929
:101770006C65643A20466562202034203230323174
:101780000A00204C61737420557064617465643A7A
:1017900020323032312D30312D3135207C204175D1
:1017A00074686F723A2028444947412D5465636834
:1017B0002C2041535758312076312E30290A0032DF
:1017C0002E302E372E320A004D61726C696E002069
:1017D000536F6674776172652052657365740A0091
:1017E000205761746368646F672052657365740A7B
:1017F000002042726F776E206F757420526573659A
:10180000740A002045787465726E616C20526573AD
:1018100065740A00506F77657255700A00656E64D2
:1018200073746F7073206869743A200070012C0122
:1018300090012701B0012201C0011D01F001180132
:101840001002130130020E0160020901900204012E
:10185000C002FF000003FA004003F5008003F0001F
:10186000D003EB002004E6007004E100E004DC009B
:101870004005D700C005D2004006CD00D006C80004
:101880008007C3003008BE00F008B900C009B400EA
:10189000B00AAF00B00BAA00D00CA500000EA0004B
:1018A000500F9B00C01096005012910000148C0045
:1018B000C0158700B0178200B0197D00D01B7800DA
:1018C000001E730040206E0090226900F024640026
:1018D00040275F0090295A00E02B5500102E500041
:1018E00020304B0010324600E033410090353C0080
:1018F0001037370070383200A0392D00B03A280078
:10190000A03B2300603C1E00103D1900903D1400D8
:10191000103E0F00703E0A00C03E0500003F000070
:10192000403FFBFF803FF6FFC03FF1FF3F5A206F73
:101930007574206F662072616E67652028003F59BC
:10194000206F7574206F662072616E676520282D88
:101950000020746F20003F58206F7574206F662040
:1019600072616E676520282D0050726F6265204F8E
:1019700066667365742058006F6B00526573656E00
:10198000643A200023646566696E652044454641DB
:10199000554C545F004B6420004B6920004B702075
:1019A00000504944204175746F74756E65206669F6
:1019B0006E697368656421205075742074686520B1
:1019C0006C617374204B702C204B6920616E642015
:1019D0004B6420636F6E7374616E74732066726FF4
:1019E0006D2062656C6F7720696E746F20436F6E37
:1019F00066696775726174696F6E2E680A00504976
:101A000044204175746F74756E65206661696C65FC
:101A100064212074696D656F75740A000A20436C37
:101A2000617373696320504944200A00204B643A73
:101A30002000204B693A2000204B703A20000A20F9
:101A40004E6F206F76657273686F6F740A00205452
:101A5000753A2000204B753A2000206D61783A20BD
:101A600000206D696E3A200020643A2000206269EF
:101A700061733A2000504944204175746F74756E4B
:101A8000652073746172740A005049442041757472
:101A90006F74756E65206661696C6564212054659C
:101AA0006D706572617475726520746F6F206869FE
:101AB00067680A00504944204175746F74756E65FB
:101AC00000504944204175746F74756E65206661DD
:101AD000696C656421204261642065787472756464
:101AE0006572206E756D6265720A00206279746598
:101AF000733B2063726320004E6F20454550524F68
:101B00004D2E0A00454550524F4D2064617461735B
:101B1000697A65206572726F722E0A0045455052CF
:101B20004F4D2056657273696F6E204572726F72E9
:101B300000454550524F4D20496E646578204572EE
:101B4000726F7200454550524F4D2043524320451D
:101B500072726F72002073746F72656420736574A3
:101B600074696E6773207265747269657665642046
:101B70002800202863616C63756C61746564292199
:101B80000A0020213D2000454550524F4D20435230
:101B900043206D69736D61746368202D2028737410
:101BA0006F7265642920002053697A653A200049E4
:101BB0006E6465783A200044494749504F54532099
:101BC0004C6F616465640A0044494749504F54535F
:101BD000204C6F6164696E670A00204D61726C6908
:101BE0006E3D563832290A00454550524F4D2076F9
:101BF000657273696F6E206D69736D6174636820BF
:101C000028454550524F4D3D00205A3A200020595A
:101C10003A200042656420583A200050726F626991
:101C20006E67204661696C65640A0050726F626974
:101C30006E67204661696C65640000002100240025
:101C400027002A002D0030003300010100000401AC
:101C500007010A0100002200250028002B002E00A9
:101C60003100340002010000050108010B010505E7
:101C70000505070508080808020202020A0A080802
:101C80000404040401010101010101010303030330
:101C900003030303040707070C0C0C0C0C0C0C0CBF
:101CA0000202020206060606060606060B0B0B0BD0
:101CB0000B0B0B0B010210202008081020401020F5
:101CC0004080020102010804020101020408102000
:101CD00040808040201008040201800402018040FE
:101CE0002010080402010804020101020408102067
:101CF0004080010204081020408000000A0B020905
:101D00000C0D0E0807030401000000000000000095
:101D100000000000000000000000000000000000C3
:101D20000000000000001211100000000000000080
:101D300000000000000000000000000000000000A3
:101D4000446966663A2020200046726F6D537470B5
:101D50003A00537465707065723A00556E4C657642
:101D6000656C3A004C6576656C65643A0052617743
:101D70003A20202020000A4C6F676963616C3A00AA
:101D8000436F756E7420453A004361703A007D00E0
:101D90007D7D2C776F726B3A7B6D696E3A7B783AFA
:101DA000007D2C6D61783A7B783A002C7A3A002CD1
:101DB000793A00617265613A7B66756C6C3A7B6D4D
:101DC000696E3A7B783A004348414D4245525F5430
:101DD000454D504552415455524500424142595398
:101DE00054455050494E470041524353004D4F54C3
:101DF000494F4E5F4D4F44455300544845524D4165
:101E00004C5F50524F54454354494F4E004C4F4E37
:101E1000475F46494C454E414D45004155544F5250
:101E200045504F52545F53445F53544154555300EF
:101E30005344434152440050524F4D50545F535508
:101E400050504F525400454D455247454E43595FFF
:101E500050415253455200434153455F4C49474816
:101E6000545F4252494748544E45535300544F47DC
:101E7000474C455F4C494748545300534F465457CD
:101E80004152455F504F574552004255494C445FBF
:101E900050455243454E54004C4556454C494E47DB
:101EA0005F44415441005A5F50524F4245004155F2
:101EB000544F4C4556454C005052494E545F4A4F82
:101EC000420050524F4752455353004155544F52D0
:101ED00045504F52545F54454D5000564F4C554D50
:101EE000455452494300454550524F4D0042494EDA
:101EF0004152595F46494C455F5452414E53464505
:101F0000520053455249414C5F584F4E5F584F461F
:101F100046004649524D574152455F4E414D453A64
:101F20004D61726C696E20322E302E372E32202D8C
:101F300020444947412D5465636820415357583127
:101F40002076312E30202846656220203420323021
:101F500032312031313A34363A31342920534F5519
:101F60005243455F434F44455F55524C3A68747441
:101F700070733A2F2F6769746875622E636F6D2FC7
:101F80004D61726C696E4669726D776172652F4D35
:101F900061726C696E2050524F544F434F4C5F56E4
:101FA000455253494F4E3A312E30204D4143484916
:101FB0004E455F545950453A417274696C6C657274
:101FC00079205369646577696E64657220583120A1
:101FD00045585452554445525F434F554E543A313B
:101FE00020555549443A63656465326132662D3443
:101FF0003161322D343734382D396231322D633529
:10200000356336326633363766660A00205200483A
:10201000617264636F6465642044656661756C74A5
:102020002053657474696E6773204C6F61646564D6
:102030000A003B200020204D363033200020550080
:1020400046696C616D656E74206C6F61642F756E8E
:102050006C6F6164206C656E677468733A00202051
:102060004D393030204B004C696E656172204164FF
:1020700076616E63653A0020204D38353120580076
:102080005A2D50726F6265204F666673657400202A
:10209000204D33303420500020204D33303120503B
:1020A000005049442073657474696E67733A002068
:1020B00020473239205334205A00204A002020473C
:1020C000323920533320490020204D343230205300
:1020D000004D65736820426564204C6576656C69C7
:1020E0006E673A0020204D323036205800486F6D20
:1020F00065206F66667365743A0020204D32303576
:10210000204200416476616E6365643A20423C6D12
:10211000696E5F7365676D656E745F74696D655F29
:1021200075733E20533C6D696E5F666565647261D0
:1021300074653E20543C6D696E5F74726176656CA7
:102140005F66656564726174653E20583C6D6178B8
:102150005F785F6A65726B3E20593C6D61785F798C
:102160005F6A65726B3E205A3C6D61785F7A5F6A88
:1021700065726B3E20453C6D61785F655F6A657294
:102180006B3E0020204D32303420500041636365A7
:102190006C65726174696F6E2028756E6974732F37
:1021A0007332293A20503C7072696E745F616363C8
:1021B000656C3E20523C726574726163745F61634A
:1021C00063656C3E20543C74726176656C5F61633C
:1021D00063656C3E0020204D3230312058004D6147
:1021E00078696D756D20416363656C6572617469B2
:1021F0006F6E2028756E6974732F7332293A002030
:10220000450020590020204D3230332058004D61C8
:1022100078696D756D20666565647261746573209B
:1022200028756E6974732F73293A0053746570733F
:102230002070657220756E69743A00204400202079
:102240004D3230302053002044697361626C656404
:102250000A0046696C616D656E74207365747469FB
:102260006E67733A0020286D6D29002020473231B7
:10227000202020203B20556E69747320696E206DEC
:102280006D0000004843000048430000A0410000EA
:102290002042F43DA042F43DA04296E3C7430080B3
:1022A000DE43D0070000D0070000640000001027C4
:1022B00000004F46460A004661646520486569672C
:1022C000687420004661696C656420746F20656ED7
:1022D00061626C6520426564204C6576656C696E50
:1022E000670A004D65736820426564204C65766519
:1022F0006C20646174613A0A00496E76616C6964AD
:10230000206D6573682E0A00206E6F7420656E74F0
:10231000657265642E0A00473238004D424C2047F2
:10232000323920706F696E7420004A206F757420F6
:102330006F662072616E67652028302D0049206F1E
:102340007574206F662072616E67652028302D00DD
:102350004D6573682070726F62696E6720646F6E7E
:10236000652E0A005374617274206D657368207065
:10237000726F62696E67207769746820224732390C
:10238000205331222066697273742E0A0047323856
:102390000A47323920533200686173206E6F20641F
:1023A0006174612E0A004D65736820426564204C9B
:1023B0006576656C696E67200053206F7574206FB9
:1023C000662072616E67652028302D35292E0A003F
:1023D000220A00556E6B6E6F776E20636F6D6D61B4
:1023E0006E643A202200205A3A0020593A003CB745
:1023F00011241FBECFEFD1E2DEBFCDBF00E00CBF86
:1024000012E0A0E0B2E0ECE7FEE801E00BBF02C0A2
:1024100007900D92AE3CB107D9F722E1AEECB2E0E5
:1024200001C01D92A13EB207E1F711E1C8EFD1E171
:1024300000E006C021970109802FFE010E94EAC337
:10244000C73FD10780E00807A9F70E946DB30C943D
:102450003CC70C9400002F923F924F925F926F9274
:102460007F928F929F92AF92BF92CF92DF92EF9224
:10247000FF920F931F93CF93DF93CDB7DEB7E5970E
:102480000FB6F894DEBF0FBECDBF8CAB2091DB0240
:102490002AAB81E08093DB029091D7109D3409F440
:1024A0001DC3943511F40C94F822973411F00C9458
:1024B0000A238091D5109091D6108B31910509F4A3
:1024C0001BC1B4F48430910534F482309105DCF5FD
:1024D00097FF2DC0FFC28531910511F40C940C2398
:1024E0008A31910509F404C1049709F0F3C2C6C00A
:1024F0008A32910509F431C254F48D31910509F401
:102500002BC10CF419C14E9709F42AC1E3C28B35D3
:10251000910509F49FC18C35910509F4A0C18A3554
:10252000910509F0D7C21092DA020C940C23809125
:10253000660A813011F00C940C230E9435610E94D0
:10254000CD3F0C940C232091660A213011F00C949D
:102550000C2311E0029709F010E00E943561198206
:102560001A821B821C821D821E821F82188682E5AF
:102570000E94F07F882309F44BC00E946B7F6B019F
:102580007C0120E030E0A9010E940FBD882309F4FE
:1025900055C08091271290912812A0912912B091D4
:1025A0002A128EA39FA3A8A7B9A780912B1290915E
:1025B0002C12A0912D12B0912E128EA79FA7A8AB1E
:1025C000B9AB8090691190906A11A0906B11B09096
:1025D0006C1140906D1150906E1160906F11709061
:1025E0007011A50194016EA17FA188A599A50E94F3
:1025F0000FBD81110C942223A30192016EA57FA52A
:1026000088A999A90E940FBD8823C1F00C942223A8
:1026100089E40E94F07F882331F00E946B7F6983F8
:102620007A838B839C838AE40E94F07F882331F035
:102630000E946B7F6D837E838F83988720E030E0DC
:10264000A90169817A818B819C810E940FBD8111D2
:102650000C94D62320E030E0A9016D817E818F812A
:1026600098850E940FBD81110C94D6230E945F298A
:1026700084EB93E00E94B6280C940C2380E50E9422
:10268000F07F882329F00E9446646B017C0103C01F
:10269000C12CD12C760183E50E94F07F882361F064
:1026A0000E946B7F20E030E04AE754E40E9475BD51
:1026B0000E9472C56B017C010E9409378AEC93E08D
:1026C0000E943C290E940A9EC60ED71EE81EF91ED3
:1026D0000E940A9EDC01CB018C199D09AE09BF093D
:1026E000B7FD02C00C940C2380E00E94E02BF0CFD9
:1026F0000E94C2690C940C2387E00E94DA3E81118B
:102700000C940C238CE0E2E6F2E0DE0111960190DD
:102710000D928A95E1F780E50E94F07F882321F0F1
:102720000E94337F862F01C080E0BE016F5F7F4F24
:102730000E94FC880C940C23809191038770873051
:1027400011F00C94E92360E08FE40E94FD7F811179
:102750000C940C230C94E9230E94B9AB0C940C2329
:1027600020917C1130917D1140917E1150917F110B
:1027700060912712709128128091291290912A124B
:102780000E94FFC3AB01BC0188E50E94A889698350
:102790007A838B839C8320918011309181114091A9
:1027A00082115091831160912B1270912C128091A3
:1027B0002D1290912E120E94FFC3AB01BC0189E53E
:1027C0000E94A8896D837E838F839887BE016B5F8B
:1027D0007F4FCE0101960E9470AA882311F40C94B9
:1027E0000C2380E00E94A1270E94A54261E085E4BD
:1027F0000E94FD7F21E0482FBE016B5F7F4FCE011D
:1028000001960E94649A6B017C019B01AC010E94BD
:10281000F1C6811119C049815A816B817C8183E1A4
:102820009CE10E949B2B4D815E816F8178858EE0BB
:102830009CE10E949B2BB701A60189E09CE10E94CC
:102840009B2B8AE00E9466280E948C420E940545CC
:102850000C940C238FE08093DA020C940C231BEA77
:10286000212E12E0312E05E8E02E03E0F02E27E2C3
:1028700032E13FA32EA38BE1C82E82E1D82E00E0E7
:1028800010E0D1018D911D010E94F07F882309F491
:102890004BC00E946B7F2B013C01133049F0F601C5
:1028A00020813181428153810E94FEC32B013C0172
:1028B000AEA1BFA12D913D914D915C91C301B2019B
:1028C0000E94FEC34B015C012DEB37E346E855EB5C
:1028D0000E945FC687FD0AC02DEB37E346E855E34B
:1028E000C501B4010E940FBD1816F4F4133051F461
:1028F0004092331250923412609235127092361216
:1029000001E012C0A5019401F7016081718182810B
:1029100093810E94FFC3D7016D937D938D939C9308
:102920001397812F0E94A73E1F5FB4E0EB0EF11CAE
:10293000EEA1FFA13496FFA3EEA3F4E0CF0ED11CCD
:10294000143009F09ECF002321F083E392E10E942E
:102950001A370E9405450C940C238091660A813039
:1029600011F00C940C2389E40E94F07FF82E882348
:1029700021F00E94677F182F01C010E08AE40E94B6
:10298000F07F082F882319F00E94677F01C080E044
:10299000FF2011F0153020F4002341F0853030F095
:1029A00086EF93E00E94B6280C940C2390E1E7E2B6
:1029B000F2E1A9E6B1E101900D929A95E1F7FF20CD
:1029C00091F024E01202F0011124E953FD4E408100
:1029D0005181628173814093691150936A116093B0
:1029E0006B1170936C11002391F034E08302F001BD
:1029F0001124ED54FD4E80819181A281B381809399
:102A00006D1190936E11A0936F11B093701160E0EF
:102A100080E50E94FD7F8823C1F1FF20D1F0209145
:102A20007C1130917D1140917E1150917F11609108
:102A3000691170916A1180916B1190916C110E94D3
:102A4000FEC36093691170936A1180936B11909328
:102A50006C110023D1F020918011309181114091AF
:102A600082115091831160916D1170916E1180915E
:102A70006F11909170110E94FEC360936D1170935D
:102A80006E1180936F119093701140E050E0BA0185
:102A900086E40E94A8896B017C0120E030E0A90156
:102AA0000E945FC618164CF420E030E040E752E484
:102AB000C701B6010E94F9C403C060E070E0CB0119
:102AC00069837A838B839C83CE0101960E94C442E2
:102AD0000C940C230E9403B10C940C230091D5108C
:102AE0001091D6100B39110509F40CC40CF0C5C0B7
:102AF0000A36110509F414C30CF06CC00D3411052D
:102B000009F4AFC25CF50231110509F4E1C474F4B3
:102B100017FF02C00C94F522023011050CF491C18C
:102B20000131110509F4D7C10C94F52200331105C8
:102B300009F48FC234F40F31110509F4E0C10C948B
:102B4000F5220B34110509F488C20C34110511F07B
:102B50000C94F5220E943E460C940C23043511057A
:102B600009F4B6C414F50235110509F4A1C40CF03A
:102B7000A7C40135110511F00C94F5220E94C3770A
:102B80000E94E7880E94C9381092390480E00E94B0
:102B900026B768EE73E080E090E00E94E9278EE7B8
:102BA00094E00E943C290C940C230C35110509F487
:102BB000EBC434F40535110509F4C1C40C94F522B5
:102BC0000836110509F451C20936110509F494C2F9
:102BD0000C94F5220337110509F479C50CF50E366E
:102BE000110509F4D1C244F40C36110511F40C940A
:102BF0000C230CF4BCC259C20037110511F40C941B
:102C00000C230CF4D4C20137110509F41BC302379D
:102C1000110511F00C94F5220E9419A40C940C23B8
:102C20000837110509F4A4C564F40637110509F441
:102C300060C50CF09AC50537110509F44BC50C9415
:102C4000F5220D37110509F485C36CF40937110518
:102C500011F00C94F5221092630A1092620A0E94FD
:102C6000BC450C940C230C38110509F415C3063926
:102C7000110509F484C50C94F522023991E0190775
:102C800011F40C94121F0CF05CC00C3D110509F4FA
:102C9000A3C634F50B3C110509F419C674F4083CBD
:102CA000110509F4A9C5093C110509F4ECC50E3B51
:102CB000110511F00C94F52210C30D3C110509F417
:102CC0005BC60CF425C60E3C110509F468C6033D2D
:102CD000110511F00C94F5220E941C630C940C2336
:102CE0000E32B1E01B0711F40C94C81E84F40232BA
:102CF000F1E01F0709F4EDC60D3221E0120709F4D7
:102D000054C70D3D110511F00C94F5228CC600330B
:102D100031E0130709F4C9C714F40C940C1F0039EF
:102D200091E0190711F40C940F1F0139114011F0B3
:102D30000C94F52281E00E942C360E9405450C94EB
:102D40000C23083FB1E01B0711F40C944C200CF04D
:102D50003FC00C3AF1E01F0711F40C94EA1F9CF4F9
:102D6000043A31E0130711F40C94171F053A81E07F
:102D7000180711F40C941A1F0A39114011F00C9421
:102D8000F5220C940C23053FA1E01A0711F40C94D2
:102D900046204CF4043F114011F00C94F5220E949F
:102DA000BA310C940C23063FF1E01F0711F40C9488
:102DB0004920073F114011F00C94F52261E083E5B2
:102DC0000E94FD7F91E089270E9450A70C940C235C
:102DD0000E3B32E0130711F40C94CA21ACF40B350E
:102DE00092E0190711F40C945C200D3BA2E01A0745
:102DF00011F40C94D5200835124011F00C94F522F2
:102E00000E940F620C940C230C36E3E01E0711F4B1
:102E10000C940C234CF40335134011F00C94F52260
:102E20000E9412900C940C23043833E0130711F421
:102E30000C948122073E134011F40C94E9220C9467
:102E4000F52280E50E94F07F882329F00E944664E5
:102E50006B017C0103C0C12CD12C760183E50E945B
:102E6000F07F882361F00E946B7F20E030E04AE72A
:102E700054E40E9475BD0E9472C56B017C010E94E2
:102E800009378091D3109091D410892B41F00E9482
:102E900063298091D3109091D4100E94B22B80911D
:102EA000D5109091D610892B19F067E174E002C01B
:102EB0006FE074E040E082E00E94F5288FE194E04A
:102EC0000E9425290E94DD2840E0C701B6010E942A
:102ED000CF2F0C940C238091D81084FF02C00C9447
:102EE000C2258091DA1087FF02C00C94C225809120
:102EF000DB10837011F00C94C2250C94DF250E9426
:102F0000CB457B018C0120E831E541E050E00E9497
:102F100065C3C9016DE671E00E94D6C34B015C0137
:102F2000C801B70120E13EE040E050E00E9465C3E7
:102F3000CA01B90128E130E040E050E00E9465C3D9
:102F4000762E672EC62ED72EBCE32B2E312C412C8D
:102F5000512CC801B701A20191010E9465C3F62E50
:102F6000E72ECA01B901A20191010E9465C3CB01FC
:102F70008E010F5F1F4F8114910499F0EF92FF9221
:102F80007F936F936F927F92BF92AF929F928F9237
:102F900081E394E09F938F931F930F930E94E0BC73
:102FA00013C0A114B104B1F0EF92FF927F936F931D
:102FB0006F927F92BF92AF9285E394E09F938F933D
:102FC0001F930F930E94E0BC0FB6F894DEBF0FBEB4
:102FD000CDBF30C0CD2879F0EF92FF927F936F93F1
:102FE0006F927F9289E394E09F938F931F930F9347
:102FF0000E94E0BCE9CF892B69F0EF92FF927F93AA
:103000006F938DE394E09F938F931F930F930E9490
:10301000E0BCDACFEF92FF9281E494E09F938F932C
:103020001F930F930E94E0BC0F900F900F900F9092
:103030000F900F90C8010E94BF2B0E946329B80116
:1030400085E494E00E944C298AE00E9466280C9452
:103050000C230E9459640C940C230E941A460C9471
:103060000C230E94E7880C940C238091710983FF44
:1030700002C00C940C230E94E66187FF02C00C94EE
:103080000C2383E50E94F07F882359F00E946B7F18
:103090000E946BC5CB010E949A8561E080E00E948E
:1030A00057B30E9411B10C940C238091710983FFD6
:1030B00002C00C940C230E94E661082F87FF02C017
:1030C0000C940C2383E50E94F07FF82E81110C9460
:1030D000ED2582E50E94F07F81110C94ED2510E032
:1030E0000E9411B1112311F40C940C236F2D802F29
:1030F0000E943F870C940C230E94E661182F87FDE5
:103100000AC088E799E10E94B628812F0E94417584
:103110008AE00E9466289AA99093DB020C94782793
:1031200060E080E50E94ADAB81110C940C2381E43A
:103130000E94A27F882321F060913904062F02C0EB
:103140000FEF10E083E50E94F07F882349F00E9492
:10315000337F8B016F3F710519F010F00FEF10E016
:103160000093390480E00E9426B70C940C2360E0A1
:1031700080E50E94ADAB81110C940C2310923904B0
:103180000E9426B70C940C238EE40E94F07F8823C3
:1031900011F40C940C230E94337F609360117093A0
:1031A000611180936211909363110C940C2383E559
:1031B0000E94A27F882331F060E083E50E94ADABDE
:1031C000809371090E94632982E594E00E94B628E9
:1031D00080917109882369F1A2EBEA2EA5E0FA2E0D
:1031E00000E010E020E08091710990E0A0E0B0E004
:1031F000002E04C0B695A795979587950A94D2F7A7
:1032000080FF0EC0DD24D394D20E222319F08CE26D
:103210000E946628F701859194910E94B6282D2D71
:103220000F5F1F4FA2E0EA0EF11C05301105D9F621
:1032300004C08AEC97E00E94B6288AE00E946628C3
:103240000C940C2383E50E94F07F882381F00E9478
:10325000437F282F30E02D33310524F48093000282
:103260000C940C238CE3809300020C940C230E949A
:103270006329C0900002D12CE12CF12C89E594E067
:103280000E94B6284AE0C701B6010E94E9298AE0F7
:103290000E9466280C940C238091710983FF02C060
:1032A0000C940C2383E50E94F07F882311F40C9486
:1032B0000C230E946B7F0E946BC56C3871050CF467
:1032C0008B011093510A0093500A0E948B7761E0A2
:1032D00080E00E9457B30C940C238091710983FF06
:1032E00002C00C940C2383E50E94F07F182F8111FB
:1032F0000C94FB2582E50E94F07F81110C94FB2544
:103300000C940C2383E50E94F07F882311F40C9425
:103310000C230E94437F182F90E0CD970CF01CE304
:103320001093D2020E940A9E6B017C01212F30E093
:10333000A8EEB3E00E94B9C3C60ED71EE81EF91E60
:10334000C092CE02D092CF02E092D002F092D1028F
:103350000C940C238CE40E94A27F882381F00E94AD
:103360006B7F6B017C0120E030E0A9010E945FC609
:1033700087FF0AC0F7FAF094F7F8F09405C0C12C63
:10338000D12CE12CF0E4FF2EF7FAF094F7F8F0944A
:10339000CAA2DBA2ECA2FDA28CE0EEE6F2E0DE0126
:1033A000119601900D928A95E1F788E50E94F07FD1
:1033B0008823A1F040E050E0BA0188E50E94A88986
:1033C00020911B1230911C1240911D1250911E121F
:1033D0000E94FEC369837A838B839C8389E50E9464
:1033E000F07F8823A1F040E050E0BA0189E50E9417
:1033F000A88920911B1230911C1240911D125091EE
:103400001E120E94FEC36D837E838F8398878AE598
:103410000E94F07F882351F040E050E0BA018AE535
:103420000E94A88969877A878B879C871E8A1F8A52
:10343000188E198E8091D30281110C940C2320E0F8
:10344000AE014A5E5F4FBE016F5F7F4FCE01829635
:103450000E942A81882311F40C940C2360E080E000
:103460000E94BB818AA19BA1ACA1BDA1B0588E8B4B
:103470009F8BA88FB98F1A8E1B8E1C8E1D8E1E8E51
:103480001F8E18A219A28091D302882311F40C94E4
:103490000C2300E010E020E0AE014A5E5F4FBE0169
:1034A000665E7F4FCE014E960E9478840C940C236A
:1034B0008091DA028F7D80618093DA020C940C2374
:1034C0008091DA028F7E80628093DA020C940C2362
:1034D00083E50E94F07F8823F1F00E940A9E6093AA
:1034E000440A7093450A8093460A9093470A0E94C3
:1034F0006B7F20E030E04AE754E40E9475BD0E94F3
:1035000072C560930102709302028093030290934C
:1035100004020C940C238091D81084FF02C00C94F8
:1035200030268091DA1087FF02C00C9430268091FB
:10353000DB10837011F00C9430260C94622683E526
:103540000E94A27F882311F40C940C230E940A9EEF
:103550006093440A7093450A8093460A9093470A01
:103560000E946B7F20E030E04AE754E40E9475BD82
:103570000E9472C56093D4027093D5028093D602E4
:103580009093D7020C940C230E94E66187FF02C03F
:103590000C940C239091D81094FD04C09091DA10F3
:1035A00097FF0AC07BEAC72E72E0D72EE2E7EE2E25
:1035B000E9E0FE2E10E00AC09091DB10937091F7C5
:1035C000682F81E00E940B640C940C23F60181911A
:1035D0006F010E94F07F882309F46FC0133009F057
:1035E00063C00E946B7F4B015C0120E030E040EA49
:1035F00051E40E940FBD87FF4EC0A5019401609168
:1036000092097091930980919409909195090E9473
:10361000F9C42B013C019B01AC0160913504709110
:10362000360480913704909138040E9475BD6093F0
:103630003504709336048093370490933804A301C3
:1036400092016091A2097091A3098091A4099091BF
:10365000A5090E9475BD6093A2097093A309809388
:10366000A4099093A509609121047091220480918E
:103670002304909124040E9414BDA30192010E948E
:1036800075BD0E9472C560932104709322048093DB
:103690002304909324048092920990929309A0921B
:1036A0009409B092950909C00E946B7FD701549686
:1036B0006D937D938D939C9357971F5FB4E0EB0EB2
:1036C000F11C143009F082CF0E94E536A5C70E9494
:1036D00070A2A2C78091D3109091D410009709F4E2
:1036E0009BC7FC012081222309F496C70E94BF2BAF
:1036F00093C70091D3101091D41094E0F12C40E0C6
:10370000915031F1D8018C91282F2B7F213429F44D
:1037100011962C912133E1F408C08035C9F4F801E9
:10372000818180538A3048F013C0813421F0853480
:1037300021F441E002C0FF24F39498012E5F3F4F33
:1037400089012F5F3F4FD8018C918032C9F3D8CFC8
:1037500041110E946329FF2021F08BE994E00E942F
:10376000B628C8010E94B22B57C70E949A4554C779
:103770008093630A8093620A0E94BC454DC782E42D
:103780000E94A27F882351F08091D8029091D902A3
:10379000892B31F00E94437F182F03C010E001C035
:1037A0001FEF85E50E94A27F882351F08091D80207
:1037B0009091D902892B31F00E94437F082F03C0DA
:1037C00000E001C00FEF82E50E94A27F882349F04C
:1037D0008091D8029091D902892B29F00E94437FD1
:1037E00003C080E001C08FEF89830A831B83CE0171
:1037F00001960E94608210C70E94E661182F87FD23
:103800000BC700910A1284E40E94F07F882311F410
:103810000C9465260E946B7F6B017C0120E030E0F8
:10382000A9010E940FBD882341F1B4E01B02F00101
:103830001124EA5FFD4EC082D182E282F38220E051
:1038400030E0A90160910612709107128091081270
:10385000909109120E940FBD81110CC080E090E090
:10386000A0EEBFE38093061290930712A093081274
:10387000B093091201E00C94652680E080930A124F
:103880000E946739C9C60E94E66187FDC5C66BEA1A
:10389000E62E62E0F62E02E719E0F70181917F0142
:1038A0000E94A27F882361F00E946B7F0E9472C5F4
:1038B000D8016D937D938D939C9313970E949E36B0
:1038C0000C5F1F4FB9E002381B0739F7A5C60E94ED
:1038D000E66187FDA1C65BEAE52E52E0F52E02E720
:1038E00019E0F70181917F010E94A27F882349F0AE
:1038F0000E946B7FD80194966D937D938D939C93DA
:1039000097970C5F1F4FB9E002381B0751F784C629
:103910008091D91087FF02C00C946B268091DA1039
:103920008E7011F00C946B264091A6095091A70956
:103930006091A8097091A9098FE994E00E949B2BDE
:103940004091AA095091AB096091AC097091AD0901
:103950008CE090E20E949B2B4091AE095091AF0900
:103960006091B0097091B1098DEE96E10E949B2B98
:103970008AE00E94662850C68091D810827111F0AA
:103980000C94B1268091DA108C7811F00C94B12649
:103990008091DB10837011F00C94B1263DC647E690
:1039A000E42E4AE0F42E10E088E5810F0E94A27F09
:1039B000882351F00E946B7FF701608371838283BB
:1039C0009383812F0E94A73E1F5FF4E0EF0EF11C4E
:1039D000133051F70C94A91483E50E94F07F8823DB
:1039E00031F00E94677F90932E0280932D02809188
:1039F000D8109091D910A091DA10B091DB10892BDA
:103A00008A2B8B2B09F008C660912D0270912E0233
:103A100081EE94E00E947F2A85E20E9466288AE077
:103A20000E946628F9C50E94E661F82E87FDF4C55C
:103A300083E50E94F07F0F2D0F2C000C110B8823C3
:103A400069F10E94677FF801EE0FFF1FEB5FFD4FEA
:103A500091838083000F111F000F111F9801215CBB
:103A60003D4F7901BC01990F880B990B0E9416BD3F
:103A70002AE037ED43E25CE30E9475BDF801EC59A2
:103A8000FC4F20813181428153810E9475BDD70155
:103A90006D937D938D939C931397BEC50E9463296C
:103AA00085E40E94662880E38F0D0E946628F80155
:103AB000EE0FFF1FEB5FFD4F6081718185EE94E09B
:103AC0000E947F2A85E20E9466288AE00E9466287A
:103AD000A3C58AE50E94F07F811106C083E50E949C
:103AE000F07F882309F443C00E946B7F20E030E020
:103AF00040E050EC0E940FBD87FF02C00C942F27BE
:103B00000E946B7F20E030E040E050E40E945FC6FE
:103B1000181614F40C9428270E946B7F6B017C010B
:103B200084E00E94C73E811122C020918E0930910D
:103B30008F094091900950919109C701B6010E94E7
:103B400075BD0E946BC52091DC023091DD02260F0D
:103B5000371F3093DD022093DC022091FB09309166
:103B6000FC09620F731F7093FC096093FB0980913D
:103B7000DA1087FF02C00C9436278091DB10837027
:103B800011F00C9436270E94632940919E115091A8
:103B90009F116091A0117091A1118DEE94E00E948F
:103BA0009B2B8AE00E94662837C560E085E40E946E
:103BB000ADAB811173C080E50E94A27F882351F0D4
:103BC0000E946B7F609348127093491280934A124F
:103BD00090934B1289E40E94A27F882381F00E9477
:103BE0006B7F2CEA35EC47E25EE30E9475BD609383
:103BF0004C1270934D1280934E1290934F1284E4A6
:103C00000E94A27F882381F00E946B7F2CEA35EC12
:103C100047E25EE30E94F9C4609350127093511220
:103C200080935212909353120E946329409148123C
:103C30005091491260914A1270914B1282E095E0C6
:103C40000E949B2B2CEA35EC47E25EE360914C121C
:103C500070914D1280914E1290914F120E94F9C4B2
:103C6000AB01BC018EEF94E00E949B2B2CEA35EC5B
:103C700047E25EE3609150127091511280915212AE
:103C8000909153120E9475BDAB01BC018AEF94E084
:103C90000E949B2B8AE00E946628BEC40E945F2976
:103CA00088E297E10E94B628B7C480E50E94A27F0F
:103CB000882351F00E946B7F6093530A7093540ADB
:103CC0008093550A9093560A89E40E94A27F882324
:103CD00081F00E946B7F2CEA35EC47E25EE30E94A4
:103CE00075BD6093570A7093580A8093590A909350
:103CF0005A0A84E40E94A27F882381F00E946B7F8D
:103D00002CEA35EC47E25EE30E94F9C460935B0A5B
:103D100070935C0A80935D0A90935E0A0E94632907
:103D20004091530A5091540A6091550A7091560A75
:103D300082E095E00E949B2B2CEA35EC47E25EE3A3
:103D40006091570A7091580A8091590A90915A0AC5
:103D50000E94F9C4AB01BC018EEF94E00E949B2B42
:103D60002CEA35EC47E25EE360915B0A70915C0AF5
:103D700080915D0A90915E0A0E9475BDAB01BC0105
:103D80008AEF94E00E949B2B8AE00E94662844C43C
:103D900083E50E94A27F182F882371F00E946B7F19
:103DA0000E946BC5709344026093430221E0672B2D
:103DB00009F020E020934A0480E50E94A27F882336
:103DC00059F02091430230914402232B11F00E94BC
:103DD000577F80934A0420C411111EC40E94632996
:103DE0008FE195E00E94B62880914A04882319F05B
:103DF00083EA98E002C086E095E00E94B6286091D0
:103E00004302709144028EE095E00E947F2A8AE08E
:103E100095E00E94B62800C40E94BF89FDC30E949D
:103E20000937FAC30E9456640E940545F5C30E94F3
:103E3000C1ADF2C388E50E94A27FD82E89E40E941A
:103E4000A27FC82E882321F00E94677FA82E28C059
:103E5000DD2011F10E946B7F20911B1230911C120A
:103E600040911D1250911E120E94FEC320E030E0CE
:103E700040E251E40E94FEC320E030E84EE052E40C
:103E80000E94FFC32DE633EF45E65CE30E9475BD5B
:103E90000E946BC5653018F0AA24AA9401C0A62E12
:103EA00089E50E94A27FF82E8AE40E94A27F182F43
:103EB000882321F00E94677FB82E28C0FF2011F1CF
:103EC0000E946B7F20911F1230912012409121128D
:103ED000509122120E94FEC320E030E040E251E403
:103EE0000E94FEC320E030E84EE052E40E94FFC38F
:103EF0002DE633EF45E65CE30E9475BD0E946BC57D
:103F0000653018F0BB24BA9401C0B62E8AE50E9431
:103F1000A27FE82E811105C081E50E94A27F082FB3
:103F200001C000E0C11001C010E0812F90E0D1106D
:103F300001C0F12C8F0D911D019721F4E11009C0F2
:103F4000011107C00E945F2982E395E00E94B62814
:103F500063C3A7FC02C0B7FE07C00E945F2986EFBB
:103F600093E00E94B62858C30E946B7FEA2CAA0CEB
:103F7000FF08AB2DBB0CBB0B002399F025E02E9D59
:103F8000F0012F9DF00D1124EA0FFB1FEE0FFF1F14
:103F9000EE0FFF1FEE55FE4E20813181428153818D
:103FA00003C020E030E0A901E5E0EE9D8001EF9D37
:103FB000100D11240A0F1B1F000F111F000F111FDE
:103FC0000E551E4E0E94FFC3F801608371838283E9
:103FD000938322C387E00E94DA3E81111DC305E668
:103FE00018E027E232E13FA32EA3CE0101961C0187
:103FF0007BE2C72E79E0D72E7C01C8010E94A7ABD7
:10400000AEA1BFA18D909D90AD90BD90BFA3AEA37A
:10401000A50194010E94FEC32B013C01F7016083BE
:1040200071838283938320E030E040EA51EC0E9468
:104030005FC687FD0AC020E030E040EA51E4C301DA
:10404000B2010E940FBD18162CF4F60184911816C7
:104050000CF413C7D7018D909D90AD90BD907D015C
:1040600020E030E040EA51ECC501B4010E945FC697
:1040700087FD0EC720E030E040EA51E4C501B401FD
:104080000E940FBD18160CF00AC702C70E9442A773
:10409000C3C20E94C8A5C0C2809391110E94C89259
:1040A00010929111882309F4B7C20E94632980E815
:1040B00095E00E94B628B0C20E94E661082F87FDF5
:1040C000ABC285E50E94A27F8823B1F1E02E002ECD
:1040D000000CFF080E946B7F4B015C0120E030E088
:1040E000A9010E945FC687FF04C0B7FAB094B7F871
:1040F000B094C70153E0880F991F5A95E1F79C01CE
:104100002A563E4E7901D9018D929D92AD92BC9274
:10411000139720E030E048E453E4C501B4010E9465
:104120005FC618164CF480E090E0A8E4B3E4F70111
:1041300080839183A283B3838CE40E94A27F88232F
:1041400009F46AC2002E000C110B0E946B7F6B01F8
:104150007C0120E030E0A9010E945FC687FF04C017
:10416000F7FAF094F7F8F09420E030E048E453E4F4
:10417000C701B6010E945FC6980143E0220F331FBA
:104180004A95E1F7F901EA56FE4E18162CF0C48262
:10419000D582E682F78240C280E090E0A8E4B3E4F2
:1041A00084839583A683B78337C20E94E66187FD27
:1041B00033C28AE50E94F07F882381F040E050E01E
:1041C000BA018AE50E94A8896B017C0120E030E0F9
:1041D000A9010E945FC61816B4F506C0C12CD12CE7
:1041E00030EAE32E31E4F32E80E090E0A0EAB0E480
:1041F0008E8B9F8BA88FB98F20912F123091301208
:104200004091311250913212C701B6010E94FFC392
:104210004B015C0120E030E048EC53E40E940FBD0C
:1042200087FD06C0812C912C28ECA22E23E4B22E0F
:1042300089829A82AB82BC82BE016A5E7F4FCE01C8
:1042400001960E94254480E090E0A8E4B2E48AA3AD
:104250009BA3ACA3BDA31E8E1F8E18A219A28CE433
:104260000E94A27F882329F00E946B7F4B015C0192
:1042700008C080909A1190909B11A0909C11B090D2
:104280009D1120E030E0A901C501B4010E945FC684
:1042900087FF04C0B7FAB094B7F8B0948A8E9B8EAB
:1042A000AC8EBD8E609145127091461264307105DE
:1042B00054F1072E000C880B990B0E9416BD9B0130
:1042C000AC01609141127091421280914312909121
:1042D00044120E94FEC34B015C0120E030E0A901C2
:1042E0000E945FC687FF04C0B7FAB094B7F8B094D5
:1042F00011E020E030E040E450E4C501B4010E9448
:104300005FC618160CF010E080E00E94A48088239D
:1043100059F0212FAE014E5D5F4FBE01665E7F4FAB
:10432000CE014E960E94C28320E030E0A901C70171
:10433000B6010E945FC618160CF06EC180E090E0D6
:10434000A0EAB0E48E8B9F8BA88FB98FA70196014E
:1043500060912F127091301280913112909132122F
:104360000E94FEC36B017C0120E030E0A9010E94A5
:104370005FC618161CF0C12CD12C7601C982DA82D6
:10438000EB82FC82BE016A5E7F4FCE0101960E94E5
:10439000254442C10E94E661182F87FD3DC18AE590
:1043A0000E94F07F882381F040E050E0BA018AE566
:1043B0000E94A8894B015C0120E030E0A9010E9425
:1043C0005FC61816B4F506C0812C912C90EAA92E70
:1043D00091E4B92E80E090E0A0EAB0E489839A836A
:1043E000AB83BC8320912F12309130124091311257
:1043F00050913212C501B4010E94FFC36B017C01D0
:1044000020E030E048EC53E40E940FBD87FD06C079
:10441000C12CD12C88ECE82E83E4F82ECE8ADF8ADA
:10442000E88EF98EBE016F5F7F4FCE0146960E94E7
:10443000254485E50E94A27F882329F00E946B7F96
:104440006B017C010AC028E01202F0011124EA5637
:10445000FE4EC080D180E280F38020E030E0A901F0
:10446000C701B6010E945FC687FF04C0F7FAF09447
:10447000F7F8F094F7FAF094F7F8F094C982DA823A
:10448000EB82FC8280E00E94A480882321F0CE0190
:1044900001960E94128020E030E0A901C501B4011C
:1044A0000E945FC618160CF0B7C080E090E0A0EA4A
:1044B000B0E489839A83AB83BC83A50194016091A6
:1044C0002F127091301280913112909132120E940D
:1044D000FEC36B017C0120E030E0A9010E945FC6B1
:1044E00018161CF0C12CD12C7601CE8ADF8AE88EFA
:1044F000F98EBE016F5F7F4FCE0146960E94254424
:104500008BC0A0904B04B0904C04C0904D04D09050
:104510004E048BE40E94F07F882339F10E946B7F68
:104520007B018C0120E030E0A9010E945FC687FD7D
:104530000AC020E030E040E251E4B701C8010E9427
:104540000FBD1816A4F48FE30E9466288BE40E9426
:10455000662883E995E00E94B6288BE895E00E94E2
:10456000B62888E892E10E94B62875018601970175
:10457000A801B501C6010E940FBD882361F00E9409
:104580000937C701D80180934B0490934C04A09342
:104590004D04B0934E048091D8109091D910A09101
:1045A000DA10B091DB10892B8A2B8B2BA9F50E9496
:1045B000632940914B0450914C0460914D047091DB
:1045C0004E0487EA95E00E949B2B8AE00E946628B1
:1045D00023C081E08093660A60E083E50E94FD7F4E
:1045E00081111AC00E94B98F17C00E9403B114C074
:1045F0001091D5100E940A9E6093440A7093450A58
:104600008093460A9093470A112331F0812F0E942C
:10461000858502C00E9403B13CA931110FC0E09111
:104620007510F0E0E156FD4E8081882339F088E76F
:1046300099E10E94B6288AE00E9466288AA98093A0
:10464000DB0256C420E030E0A901C701B6010E9498
:104650000FBD881F8827881F181709F4A2C080E0A3
:1046600090E0A0E8BFEB8AA79BA7ACA7BDA72EA1AF
:104670003FA148A559A5C501B4010E94FEC320E091
:1046800030E040E05FE30E9475BD6EA37FA388A782
:1046900099A72EA53FA548A959A9C301B2010E9417
:1046A000FEC320E030E040E05FE30E9475BD2B01D7
:1046B0003C012EA13FA148A559A5CA01B9010E94FC
:1046C00075BD4B015C01A3019201C301B2010E94BF
:1046D00075BD9B01AC01C501B4010E94FFC30E94DE
:1046E000ADC64B015C019B01AC01C701B6010E9444
:1046F000FEC36EA77FA788AB99ABA5019401C70144
:10470000B6010E94FFC39B01AC016EA57FA588A9DD
:1047100099A90E9475BD6B017C0120E030E0A901E0
:104720000E945FC687FD07C0C701B6010E94ADC6E3
:104730006B017C0103C0C12CD12C7601C301B201F5
:104740009058A50194010E94F9C42AA53BA54CA547
:104750005DA50E9475BDA70196010E9475BD2EA1A1
:104760003FA148A559A50E94FFC369837A838B8323
:104770009C83A50194016EA17FA188A599A50E94A3
:10478000F9C42AA53BA54CA55DA50E9475BDA7014E
:1047900096010E9475BDA30192010E94FFC30C9473
:1047A0001A1380E090E0A0E8BFE35DCF412FBE0187
:1047B0006F5F7F4F89E691E10E947D9E0E940A9E75
:1047C0006093440A7093450A8093460A9093470A7F
:1047D00023CF0E94093710921402909116129BABBE
:1047E00080E00E94A1270E940A9E6093440A709371
:1047F000450A8093460A9093470A0E94A54281E0A9
:104800008093630A0E94BC458AE50E94A27FF82E2D
:104810008823A1F081E00E94C73E082F82E00E9419
:10482000C73E11E0811101C010E0011112C088E5FE
:104830000E94A27F082F81110CC002C010E0F7CFA8
:1048400011119EC189E50E94A27F182F801398C183
:1048500004C0112309F491C1012FF01290C111E09D
:1048600001E091E09EA782E50E94F07F882319F085
:104870000E946B7F04C060E070E080EA90E46E8F7D
:104880007F8F88A399A320E030E0A9010E940FBD8B
:10489000882361F0011106C0111104C0AEA5AA233E
:1048A00009F45DC1CE014E960E949C99002309F443
:1048B000D3C0112309F4CDC01092271210922812F0
:1048C0001092291210922A1210922B1210922C126E
:1048D00010922D1210922E120E940345EBE2F9E085
:1048E000B491BDAB89E598E00E94A7AB6B017C0158
:1048F0008DE598E00E94A7AB4B015C019B01AC01E8
:10490000C701B6010E945FC618162CF4A7019601D4
:10491000C501B40104C0A5019401C701B6010E94FC
:10492000F9C42B013C01E4E1F9E085919591A59151
:10493000B4918EA39FA3A8A7B9A7E0E1F9E0859160
:104940009591A591B4918AA79BA7ACA7BDA79C01FF
:10495000AD016EA17FA188A599A50E945FC618161A
:1049600034F42AA43BA40CA59DA59EA305C02EA0AB
:104970003FA008A5A9A5AEA3A3019201C301B2015E
:104980000E9475BD20E030E040E85FE30E94FFC375
:104990000E94ADC69101402F5EA10E9475BD6A8F35
:1049A0007B8F8C8F9D8FECE2F9E0049120E030E06A
:1049B00040EC5FE3C501B4010E9475BD4B015C0191
:1049C000602F000F770B880B990B0E9416BD9B017F
:1049D000AC01C501B4010E9475BD69837A838B83E4
:1049E0009C8320E030E040EC5FE3C701B6010E9409
:1049F00075BD6B017C01BDA96B2FBB0F770B880BBD
:104A0000990B0E9416BD9B01AC01C701B6010E9423
:104A100075BD6E8B7F8B888F998FAE01465E5F4F21
:104A2000BE016F5F7F4FCE0146960E9403440E94F5
:104A300050B110922712109228121092291210923F
:104A40002A1210922B1210922C1210922D121092E8
:104A50002E1280E00E9419B2112319F081E00E9409
:104A600019B2EEA5EE2309F47AC083E00E94DA3E83
:104A7000811175C00E940345C0902F12D090301252
:104A8000E0903112F090321220917C1130917D1122
:104A900040917E1150917F1160E070E088E193E4D5
:104AA0000E94FEC36093691170936A1180936B1129
:104AB00090936C112091801130918111409182115D
:104AC0005091831160E070E088E193E40E94FEC39E
:104AD00060936D1170936E1180936F1190937011AC
:104AE0002091841130918511409186115091871148
:104AF000C701B6010E94FEC36093711170937211D9
:104B0000809373119093741189E691E10E94F27E73
:104B10008823D9F01E8A1F8A188E198E88E0E9E64C
:104B2000F1E1DE01119601900D928A95E1F7AE0157
:104B30004A5E5F4FBE016B5F7F4FCE0101960E94C0
:104B4000034482E00E9419B20AC085EE93E00E94FD
:104B50003C290E94632983ED93E00E94B6280E94BD
:104B600003458091620A8093630A8BA90E94A12762
:104B70000E948C420E9405454FCD01E063CE102F6C
:104B8000FEA671CE88E50E94A27F81115F9889E51B
:104B90000E94A27F81118A988AE50E94A27F8823C1
:104BA00031F080910801817080930601479885E477
:104BB0000E94A27F882309F42FCD12982DCD88E280
:104BC00094E00E943C295F988A9880910801817046
:104BD00080930601479812981FCD0E946B7F0E9418
:104BE0006BC5CB010E949A8561E081E00E9457B3BA
:104BF00011E00C9470180E946B7F0E946BC56C389A
:104C000071055CF57093510A6093500A0E948B778E
:104C100060E081E00E9457B36091500A7091510AA0
:104C2000072E000C880B990B0E9416BD20914C0A90
:104C300030914D0A40914E0A50914F0A0E945FC632
:104C400018161CF48FE694E002C080E694E00E94FF
:104C50003C29812F0E94AA85DFCC6CE870E0D2CF7E
:104C60000E94093788E50E94A27F882331F05F9A6D
:104C700080917B118E7F80937B1189E50E94A27FBA
:104C8000882331F08A9A80917B118D7F80937B11EC
:104C90008AE50E94A27F882361F0809108018095B7
:104CA000817080930601479A80917B118B7F80935E
:104CB0007B1185E40E94A27F882309F4ADCC0E9479
:104CC0000D28AACC0E94C938A7CC602F83E50E948A
:104CD000FD7F0C943E1C83E50E94F07F882391F0B9
:104CE0000E946B7F6093A6097093A7098093A8091F
:104CF0009093A9096093AE097093AF098093B009AE
:104D00009093B10980E50E94F07F882351F00E94C2
:104D10006B7F6093A6097093A7098093A80990936D
:104D2000A90982E50E94F07F882351F00E946B7FE1
:104D30006093AA097093AB098093AC099093AD0975
:104D400084E50E94F07F882309F466CC0E946B7F83
:104D50006093AE097093AF098093B0099093B10945
:104D60005BCC82E40E94A27F882351F00E944664BB
:104D700060938209709383098093840990938509D5
:104D800083E50E94A27F882351F00E946B7F60938D
:104D9000B2097093B3098093B4099093B50984E57F
:104DA0000E94A27F882351F00E946B7F6093B60916
:104DB0007093B7098093B8099093B90988E50E9468
:104DC000A27F882351F00E946B7F60932904709327
:104DD0002A0480932B0490932C0489E50E94A27FDF
:104DE000882351F00E946B7F60932D0470932E04F2
:104DF00080932F04909330048AE50E94A27F882339
:104E0000B1F00E946B7F6093310470933204809301
:104E10003304909334042DEC3CEC4CEC5DE30E94A5
:104E20000FBD181624F08FEA94E00E94B62885E49E
:104E30000E94A27F882309F4EFCB0E946B7F6093CE
:104E40003504709336048093370490933804E4CB90
:104E5000C12CD12CE12C80E4F82E0C94901DC12C97
:104E6000D12CE12C00ECF02E0C94901D82E50E94D8
:104E7000A27F81110C94C31DCFCBB7FAB094B7F8C1
:104E8000B094D7018D929D92AD92BC921397E2C8D7
:104E90000E945F2982E695E00E94B628BDCB0C5F98
:104EA0001F4FBFEFCB1ADB0AE1E7F8E0E017F1078D
:104EB00009F0A3C867E6E62E6AE0F62E10E0F101DD
:104EC00081919191A191B1911F01F70181939193EA
:104ED000A193B1937F01812F0E94A73E1F5F1330E2
:104EE00071F70E94054582E595E00E943C2994CB2C
:104EF000E5960FB6F894DEBF0FBECDBFDF91CF9120
:104F00001F910F91FF90EF90DF90CF90BF90AF90E7
:104F10009F908F907F906F905F904F903F902F90D9
:104F2000089510929E1110929F111092A01110924C
:104F3000A11184E6E2EAF1E1DF011D928A95E9F729
:104F40000895909116129817B1F00E940937809138
:104F50001612882339F087E292E10E9436391092C6
:104F6000161207C081E08093161287E292E10E9438
:104F700005390C9403450895EF92FF921F93CF9348
:104F8000DF9382EAE82E81E1F82E15E0C0E0D0E060
:104F900020E030E0A901F701EC0FFD1F6081718175
:104FA000828193810E940FBD81110CC02496C4316F
:104FB000D10571F7115084E1E80EF11C1111E6CF13
:104FC00080E001C081E0DF91CF911F91FF90EF90D1
:104FD0000895CF92DF92EF92FF926B017C0183E301
:104FE000C816D104E104F10470F082E3C81AD108B4
:104FF000E108F10862E370E080E090E00E94D09D5B
:105000000E948379ECCFC701B6010E94D09DFF902A
:10501000EF90DF90CF900C948379129A08955F9A65
:1050200080917B118E7F80937B118A9A80917B1176
:105030008D7F80937B118091080180958170809392
:105040000601479A80917B118B7F80937B110C9492
:105050000D288F929F92AF92BF92CF92DF92EF92E4
:10506000FF920F93CF93DF931F92CDB7DEB75C0112
:105070006B017A014901F501808191810E943FC352
:105080008983002311F0F6018083BE016F5F7F4F9B
:10509000C4010E9409B0F50180819181019691833C
:1050A0008083FFEFCF1ADF0A81E0E81AF10819F7D1
:1050B00080E00F90DF91CF910F91FF90EF90DF9004
:1050C000CF90BF90AF909F908F9008959091C10026
:1050D00095FD04C09091C00095FD40C02091E30271
:1050E0002F5F2F700FB607FC26C09091E4022913A2
:1050F00027C09091C00095FF1DC09091E40240919F
:10510000E302941791F0E92FF0E0ED51FD4F328169
:105110009F5F9F703093C6009093E4023091C0006F
:1051200030643093C000491305C09091C1009F7D49
:105130009093C100DACF9091E402291301C0FBCF14
:10514000E091E302F0E0ED51FD4F82832093E30212
:105150008091C10080628093C10008958093C60051
:105160008091C00080648093C0000895CF93DF9346
:10517000FC018491EF012196882321F00E9466288A
:10518000FE01F7CFDF91CF9108950F931F93CF9337
:105190008C01C62F83E298E00E94B628C8010E94C5
:1051A000B628CC2331F08AE0CF911F910F910C9457
:1051B0006628CF911F910F91089560E08CE498E0EC
:1051C0000E94C52884E598E00E94B6288AE00C94E5
:1051D000662860E08CE498E00E94C52888E498E0A6
:1051E0000E94B6288AE00C9466280F931F93CF93F1
:1051F000DF93D82F8B01C42F60E08CE498E00E94ED
:10520000C52888E498E00E94B6288AE00E946628B3
:10521000D093310A60E08CE498E00E94C5288BE3CB
:1052200098E00E94B62880E20E946628C8010E9489
:10523000B628CC2319F08C2F0E9466288AE0DF91D3
:10524000CF911F910F910C946628CF93DF93EC01BF
:1052500060E08CE498E00E94C52881E498E00E9418
:10526000B62880E20E946628CE010E94B6288AE015
:10527000DF91CF910C946628CF93DF93EC0160E02F
:105280008DE298E00E94C528CE010E94B6288AE0EF
:10529000DF91CF910C9466280F931F93CF93DF93E8
:1052A0008B010E94B628E8018991882319F00E9499
:1052B0006628FACFDF91CF911F910F91089584EF67
:1052C00097E00C94B6288EEE97E00C94B628C42F85
:1052D0000E94C3770E945F298EEC97E00E94B62857
:1052E00061E085EC97E00E94C52889EE93E030E606
:1052F000019729F0232F2A950000E9F7F9CFF894B8
:1053000089EE93E038EE019729F0232F2A950000CB
:10531000E9F7F9CF0E94C377CC2319F00E940F2838
:1053200002C00E940D28A895FECF7F928F929F9277
:10533000AF92BF92CF92DF92EF92FF920F931F93A3
:10534000CF93DF931F92CDB7DEB77C0159018B015C
:105350006B01C40ED51E0C151D0559F1F701808097
:105360009180F80171908F017982C4010E943FC33E
:10537000781691F0672DC4010E9447C3C4010E94B2
:105380003FC39981891741F00E9463298BE296E01F
:105390000E94B62881E00EC0BE016F5F7F4FC5013D
:1053A0000E9409B0F70180819181019691838083E9
:1053B000D2CF80E00F90DF91CF911F910F91FF909E
:1053C000EF90DF90CF90BF90AF909F908F907F90A5
:1053D00008958F929F92AF92BF92EF92FF920F9398
:1053E0001F93CF93DF93CDB7DEB7A0970FB6F89496
:1053F000DEBF0FBECDBF611571058105910591F12D
:1054000000E0842E912CA12CB12C102FEE24E394DB
:10541000F12CEC0EFD1EE00EF11C07FDFA94A50127
:1054200094010E9465C3F7016083B901CA010F5F4F
:10543000611571058105910541F71F3F31F1E1E0EB
:10544000F0E0EC0FFD1FE10FF11D17FDFA958081D3
:105450008A3010F097E301C090E3890F0E9466281C
:105460001150EBCF80E3A0960FB6F894DEBF0FBECD
:10547000CDBFDF91CF911F910F91FF90EF90BF9023
:10548000AF909F908F900C946628A0960FB6F894DA
:10549000DEBF0FBECDBFDF91CF911F910F91FF9067
:1054A000EF90BF90AF909F908F900895CF93DF9330
:1054B000EB010E94B628BE0180E090E04AE0DF9157
:1054C000CF910C94E929CF92DF92EF92FF926B017A
:1054D0007C0197FF0BC08DE20E946628F094E09457
:1054E000D094C094C11CD11CE11CF11C4AE0C7013E
:1054F000B601FF90EF90DF90CF900C94E929CF9305
:10550000DF93EB010E94B628BE01DD0F880B990BDB
:10551000DF91CF910C94632A8F929F92AF92BF92AA
:10552000CF92DF92EF92FF92CF936B017C01B42E6A
:1055300020E030E0A9010E940FBD87FF07C08DE287
:105540000E946628F7FAF094F7F8F094C0E060E063
:1055500070E080E09FE3CB1541F02DEC3CEC4CEC8F
:105560005DE30E9475BDCF5FF6CF9B01AC01C70123
:10557000B6010E94FFC36B017C010E9472C54B0102
:105580005C014AE00E94E929CC2389F1C501B401FC
:105590000E9414BD9B01AC01C701B6010E94FEC36D
:1055A0006B017C018EE20E94662820E030E040E240
:1055B00051E4C701B6010E9475BD4B015C010E9418
:1055C0006BC56B01770FEE08FF08C701B6010E949B
:1055D000632AC701B6010E9416BD9B01AC01C5013B
:1055E000B4010E94FEC36B017C01C150F1F6CF9162
:1055F000FF90EF90DF90CF90BF90AF909F908F90F3
:1056000008958F929F92AF92BF92CF92DF92EF92C6
:10561000FF920F931F93CF93DF938EE098E00E9449
:10562000B62860919E1170919F118091A011909168
:10563000A11145E00E948C2A8BEF97E00E94B628CA
:10564000C12CD12C7601C9E0C15021F080E20E942A
:105650006628FACFC701B6010E94632A8FEFC81AE5
:10566000D80AE80AF80A95E0C916D104E104F10461
:1056700051F78AE00E94662802EA11E1C12CD12C80
:10568000760180E20E946628C701B6010E94632A63
:10569000C0E0D0E080E20E946628F801EC0FFD1F18
:1056A00080809180A280B380A5019401C501B401DE
:1056B0000E94F1C6811112C020E030E0A901C501AD
:1056C000B4010E945FC687FD03C08BE20E9466287A
:1056D00045E0C501B4010E948C2A09C0B12C80E2CA
:1056E0000E946628B3948DE398E0B912F9CF6496CE
:1056F000C436D10579F68AE00E9466288FEFC81A71
:10570000D80AE80AF80A0C5F1F4F95E0C916D104C1
:10571000E104F10409F0B5CF8AE0DF91CF911F9148
:105720000F91FF90EF90DF90CF90BF90AF909F9040
:105730008F900C946628CF92DF92EF92FF926A01CD
:105740007B010E94B62844E0C701B601FF90EF90AC
:10575000DF90CF900C948C2A8DE00E9466288AE01E
:105760000C946628CF93DF93EC018991882319F07C
:105770000E946628FACFDF91CF910C94AC2BCF9387
:10578000DF93EC0160E08DE298E00E94C528CE0135
:10579000DF91CF910C94B22B8091DC109091DD10B1
:1057A000981759F0E92FF0E0E452FF4E82819F5F95
:1057B0009F779093DD1090E008958FEF9FEF08950D
:1057C0002F923F924F925F926F927F928F929F9211
:1057D000AF92BF92CF92DF92EF92FF920F931F93FF
:1057E000CF93DF93CDB7DEB728970FB6F894DEBF1F
:1057F0000FBECDBF182F80917610803108F03BC1CD
:1058000080E6F82E01E080917610803108F033C1F7
:105810008091DC109091DD10891B8F7709F42BC1EA
:105820000E94CC2BAC0197FDEECF282F8A3019F0C7
:105830008D3009F0E3C01092F60280915E119091D4
:105840005F11FC01E950FD4F1082892B49F0109245
:105850005F1110925E1127EF32E03F832E8303C069
:105860000E948379D0CFEE81FF818191803219F43B
:10587000FF83EE83F8CF8E3409F072C04E815F81D2
:105880004115510509F46CC062E477E0CA010E9439
:10589000C6BC6C01892B49F06EE470E08E819F815B
:1058A00004960E9411C7009711F48E819F814AE0EF
:1058B00050E060E070E001960E943EBA4B015C014E
:1058C0008091601190916111A0916211B09163116A
:1058D0000196A11DB11D88169906AA06BB0631F0D6
:1058E000CD2821F460E08FE097E02BC06AE270E001
:1058F0008E819F810E9431C79C01009729F1982FCA
:105900005E81951BE12C992341F09150EE81FF813E
:10591000E90FF11D8081E826F6CF4AE050E060E013
:1059200070E0C90101960E943EBA4E2C512C612CA8
:10593000712C641575058605970551F060E080EFC0
:1059400096E00E94E38F97C060E086EC96E0F9CF86
:105950008092601190926111A0926211B0926311D5
:105960008091660A8130E1F067E470E08E819F816A
:105970000E9411C70097A1F04AE050E060E070E09B
:1059800001960E943EBA643071058105910540F48C
:105990008FE496E00E94B62885E496E00E943C29B8
:1059A0008091F7028B3309F42ECF609176106A83D1
:1059B000603108F028CF7091F5027983C72ED12C81
:1059C000FC9CC001FD9C900D112467EF72E08B5888
:1059D000954F0E941CC7F601E156FD4E0083898158
:1059E0008F5F8983803118F48093F50202C0109292
:1059F000F5029A819F5F9093761005CF9091F60201
:105A0000913009F400CF943020F094509093F60236
:105A10000DC04C3531F49C5F9093F6029430C9F47C
:105A2000F2CE4B3319F40093F602EDCE283089F410
:105A300080915E1190915F11009709F4E4CE019777
:105A400090935F1180935E11FC01E950FD4F10822D
:105A5000DACE20915E1130915F11C90101969093C9
:105A60005F1180935E11F901E950FD4F40838F353E
:105A70009105CCF6C8CE0E940A9E6B017C011111E3
:105A80003AC08091D302811136C020E04091D40207
:105A90005091D5026091D6027091D70241155105FF
:105AA0006105710591F18091440A9091450AA09198
:105AB000460AB091470A840F951FA61FB71FB7016A
:105AC000A601481B590B6A0B7B0B77FD1EC00E9479
:105AD0005F2960910C1270910D1287E497E00E948B
