:100000000C9406130C9437130C9437130C94371379
:100010000C9437130C9437130C9437130C94371338
:100020000C9437130C9437130C9437130C94371328
:100030000C9437130C9437130C9437130C94371318
:100040000C9437130C945EA80C9437130C9437134C
:100050000C9437130C9437130C9466900C94A58D64
:100060000C9437130C948C740C9456740C943713B2
:100070000C9437130C9437130C9437130C943713D8
:100080000C9437130C9437130C9437130C943713C8
:100090000C9437130C9437130C9437130C943713B8
:1000A0000C9437130C9437130C9437130C943713A8
:1000B0000C9437130C9437130C9437130C94371398
:1000C0000C9437130C9437130C9437130C94371388
:1000D0000C9437130C9437130C9437130C94371378
:1000E0000C943713084AD73B3BCE016E84BCBFFD4E
:1000F000C12F3D6C74319ABD56833DDA3D00C77FF8
:1001000011BED9E4BB4C3E916BAAAABE0000008090
:100110003F05A84CCDB2D44EB93836A9020C50B91F
:10012000918688083CA6AAAA2ABE000000803F004B
:100130004E414E494E495459494E46CDCCCC3D0ACC
:10014000D7233C17B7D13877CC2B329595E6241FAF
:10015000B14F0A000020410000C84200401C462068
:10016000BCBE4CCA1B0E5AAEC59D7400407A10F33B
:100170005A00A0724E18090010A5D4E80000E876D5
:1001800048170000E40B54020000CA9A3B0000002C
:10019000E1F505000080969800000040420F000045
:1001A00000A08601000000102700000000E8030006
:1001B0000000006400000000000A000000000001D0
:1001C00000000000002C76D888DC674F0823DFC1D0
:1001D000DFAE59E1B1B796E5E3E453C63AE651998B
:1001E0007696E8E6C28426EB898C9B62ED407C6FB4
:1001F000FCEFBC9C9F40F2BAA56FA5F490055A2A6B
:10020000F75C936B6CF9676DC11BFCE0E40D47FE76
:10021000F520E6B500D0ED902E030094357705006B
:1002200080841E080000204E0A000000C80C3333F2
:1002300033330F986E12831141EF8D2114893BE601
:100240005516CFFEE6DB18D1844B381BF77C1D908A
:100250001DA4BBE424203284725E228100C9F124F3
:10026000ECA1E53D27434F4D4D554E49434154497F
:100270004F4E0044525952554E004552524F525320
:1002800000494E464F004543484F0053544F50508D
:1002900045442E20005072696E7465722073746F2D
:1002A000707065642064756520746F206572726F6C
:1002B00072732E2046697820746865206572726FAB
:1002C0007220616E6420757365204D393939207450
:1002D0006F20726573746172742E202854656D707E
:1002E00065726174757265206973207265736574D7
:1002F0002E205365742069742061667465722072C3
:10030000657374617274696E67290A004E6F2043C9
:100310006865636B73756D2077697468206C696EAE
:1003200065206E756D6265722C204C617374204C73
:10033000696E653A2000636865636B73756D206D47
:1003400069736D617463682C204C617374204C690F
:100350006E653A20004C696E65204E756D6265725F
:10036000206973206E6F74204C617374204C696E29
:1003700065204E756D6265722B312C204C61737453
:10038000204C696E653A20004D3131300053657262
:1003900069616C20737461747573206D69736D612C
:1003A0007463680A002121204B494C4C206361751D
:1003B00073656420627920746F6F206D75636820A7
:1003C000696E6163746976652074696D65202D209E
:1003D00063757272656E7420636F6D6D616E643AE1
:1003E0002000627573793A207061757365642066C8
:1003F0006F7220696E7075740A00627573793A20A5
:1004000070617573656420666F7220757365720A1A
:1004100000627573793A2070726F63657373696EE9
:10042000670A006563686F3A004572726F723A003E
:100430000A4D6561737572656420706F696E7473BF
:100440003A0A00357835206D6573682E205A206F82
:1004500066667365743A20002F2F616374696F6E4E
:100460003A006E6F74696669636174696F6E20002B
:10047000656E6400486F74656E6420746F6F2063EE
:100480006F6C640A00706175736564005061757308
:100490006500726573756D6564004469736D697399
:1004A0007300526573756D696E6700576169746991
:1004B0006E6720666F72206865617475702E0A0021
:1004C0004C656176696E6720473236003F53706530
:1004D00063696669656420582C5920636F6F726484
:1004E000696E617465206F7574206F6620626F7528
:1004F0006E64732E0A003F2852296570656174206E
:1005000076616C7565206E6F7420706C61757369AF
:10051000626C653B206D7573742062652061742088
:100520006C6561737420312E0A003F285229657072
:10053000656174206D7573742062652073706563E6
:100540006966696564207768656E206E6F742075D2
:1005500073696E6720616E204C43442E0A003F533E
:100560007065636966696564206E6F7A7A6C652070
:1005700074656D7065726174757265206E6F74203C
:10058000706C61757369626C652E0A003F5370650B
:100590006369666965642066696C616D656E742067
:1005A00073697A65206E6F7420706C61757369620F
:1005B0006C652E0A003F5370656369666965642047
:1005C0007072696D65206C656E677468206E6F74FB
:1005D00020706C61757369626C652E0A003F507201
:1005E000696D65206C656E677468206D7573742025
:1005F0006265207370656369666965642077686504
:100600006E206E6F74207573696E6720616E204C6A
:1006100043442E0A003F5370656369666965642030
:100620006E6F7A7A6C652073697A65206E6F7420BC
:10063000706C61757369626C652E0A003F52657457
:1006400072616374696F6E204D756C7469706C694A
:100650006572206D757374206265207370656369BF
:10066000666965642E0A003F537065636966696553
:10067000642052657472616374696F6E204D756C8D
:100680007469706C696572206E6F7420706C61752E
:100690007369626C652E0A003F5370656369666911
:1006A0006564206C6179657220686569676874208B
:1006B0006E6F7420706C61757369626C652E0A00D0
:1006C00043292E0A003F537065636966696564209B
:1006D0006265642074656D70657261747572652001
:1006E0006E6F7420706C61757369626C652028345C
:1006F000302D00473236207374617274696E672E34
:100700002E2E0A004F46460A004661646520486561
:10071000696768742000426564204C6576656C6981
:100720006E6720004661696C656420746F20656E99
:1007300061626C6520426564204C6576656C696E0B
:10074000670A004D65736820426564204C657665D4
:100750006C20646174613A0A00496E76616C696468
:10076000206D6573682E0A00206E6F7420656E74AC
:10077000657265642E0A00206F6620004D424C2091
:1007800047323920706F696E742000290A004A20B0
:100790006F7574206F662072616E67652028302D3A
:1007A00000290A0049206F7574206F662072616EFF
:1007B00067652028302D004732384C30004D657376
:1007C000682070726F62696E6720646F6E652E0AB2
:1007D000005374617274206D6573682070726F626B
:1007E000696E672077697468202247323920533157
:1007F000222066697273742E0A0047323953320020
:100800004732384C300A473239533200686173201E
:100810006E6F20646174612E0A004D65736820421A
:100820006564204C6576656C696E67200053206FA7
:100830007574206F662072616E67652028302D35D3
:10084000292E0A00416363757261637920446563F0
:1008500072656173696E67210044656372656173D7
:10086000696E6720416363757261637920446574C2
:1008700065637465642E0A00473238004732385A7F
:100880000041636375726163793A2000206F6620CE
:100890000044696420004733342061626F727465DC
:1008A000642E0A0041636375726163792041636855
:1008B000696576656400546172676574206163637D
:1008C00075726163792061636869657665642E0A73
:1008D000000A444946464552454E4345205A312D6B
:1008E0005A323D0050726F62696E67204661696CD2
:1008F00065640050726F62696E67206661696C653D
:10090000640A000A47333420497465726174696F60
:100910006E3A20003F2841296D706C6966696361F9
:1009200074696F6E206F7574206F6620626F756ECC
:1009300064732028302E352D322E30292E0A003FA8
:1009400028542961726765742061636375726163FD
:1009500079206F7574206F6620626F756E647320E6
:1009600028302E30312D312E30292E0A003F2849D3
:10097000297465726174696F6E206F7574206F667B
:1009800020626F756E64732028312D3330292E0A52
:100990000046696E6973686564210A003A207A3AF4
:1009A0002000206F662000476F696E6720746F3AE1
:1009B00020580043570A00206469723A0020616E93
:1009C000676C653A00537461727420726164697572
:1009D000733A00506F736974696F6E696E67207443
:1009E00068652070726F62652E2E2E0A003F4C657E
:1009F0006773206F66206D6F76656D656E74206914
:100A00006D706C61757369626C652028302D3135AD
:100A1000292E0A003F2028582C5929206F75742050
:100A20006F6620626F756E64732E0A0050726F627B
:100A300065206F7574206F6620626F756E64730039
:100A40003F53616D706C652073697A65206E6F74B9
:100A500020706C61757369626C652028342D3530A7
:100A6000292E0A004D3438205A2D50726F626520AD
:100A70005265706561746162696C6974792054654E
:100A800073740A003F2856296572626F7365206C83
:100A90006576656C20696D706C61757369626C65F3
:100AA0002028302D34292E0A005374616E6461723F
:100AB0006420446576696174696F6E3A2000205243
:100AC000616E67653A2000204D61783A2000204D24
:100AD000696E3A2000205369676D613A20004D65C8
:100AE000616E3A200020496E76616C6964206578F9
:100AF000747275646572200047322F47332062613B
:100B00006420706172616D65746572730A00536C64
:100B10006565702E2E2E005A2050726F626520502F
:100B2000617374204265640A005A2050726F6265D6
:100B300020506173742042656400205A3A200020DE
:100B4000593A200042656420583A20004D65736888
:100B500020706F696E74206F7574206F66207261EB
:100B60006E67650A004D302053746F70004D312060
:100B700053746F70004E6F204D6F76652E0025699F
:100B8000730025696D202569730025696820256932
:100B90006D20256973002569642025696820256911
:100BA0006D202569730025697920256964202569F0
:100BB000682025696D20256973006E6F7469666908
:100BC000636174696F6E20005072696E742074697D
:100BD0006D653A20006F6B006F66660086028102C9
:100BE0007A027302650244454255473A004D31315D
:100BF00033205300417274696C6C657279205369BB
:100C0000646577696E646572205831204F46462EC0
:100C1000002F2F00205200416363656C6572617480
:100C2000696F6E3A2050005741524E494E4721207D
:100C30004C6F77205A204A65726B206D6179206C69
:100C400065616420746F20756E77616E74656420D1
:100C50007061757365732E0A004D3230362058006E
:100C60004F4646004F4E0020204D61783A2000202C
:100C70000020204D696E3A2000536F667420656E27
:100C80006473746F70733A200046523A0020466CC9
:100C90006F773A20004D424C2041646A757374208E
:100CA0005A0020643A0020693A0020703A00496EE8
:100CB00076616C69642065787472756465720A0087
:100CC00020643A0020693A0020703A006469730099
:100CD000656E0043290A0061626C656420286D69B5
:100CE0006E2074656D702000436F6C6420657874AD
:100CF00072756465732061726520004D65736820AC
:100D0000706F696E74206F7574206F662072616EEB
:100D100067650A004D34323120696E636F72726507
:100D2000637420706172616D6574657220757361A2
:100D300067650A004F666673657473204170706C56
:100D400069656400546F6F206661722066726F6D12
:100D5000207265666572656E636520706F696E747A
:100D60000A00454550524F4D204F4B0A002E0A00B5
:100D70002028302D313029002076616C7565206F78
:100D80007574206F662072616E67650041647661DC
:100D90006E6365204B3D003F285929206F757420F4
:100DA0006F6620626F756E64732E0A003F285829A3
:100DB000206F7574206F6620626F756E64732E0AE3
:100DC000003F2853292050726F62652D706F736940
:100DD00074696F6E20696E64657820696E76616CE7
:100DE00069642E0A003F28532920697320726571B7
:100DF00075697265642E0A004D3432322053006FDB
:100E00006B00446966663A2020200046726F6D537D
:100E100074703A00537465707065723A00556E4C88
:100E20006576656C3A004C6576656C65643A00528F
:100E300061773A20202020000A4C6F676963616C5B
:100E40003A00436F756E7420453A004361703A0072
:100E50007D002C7A3A002C793A007D2C6D61783A2D
:100E60007B783A002C7A3A002C793A007D7D2C77F9
:100E70006F726B3A7B6D696E3A7B783A002C7A3AE6
:100E8000002C793A007D2C6D61783A7B783A002C01
:100E90007A3A002C793A00617265613A7B66756C2A
:100EA0006C3A7B6D696E3A7B783A004D45415450FF
:100EB00041434B00434F4F4C45525F54454D5045C5
:100EC000524154555245004348414D4245525F54AA
:100ED000454D5045524154555245004241425953A7
:100EE00054455050494E470041524353004D4F54D2
:100EF000494F4E5F4D4F44455300544845524D4174
:100F00004C5F50524F54454354494F4E004C4F4E46
:100F1000475F46494C454E414D45004155544F525F
:100F200045504F52545F53445F53544154555300FE
:100F300053445F575249544500524550454154006F
:100F40005344434152440050524F4D50545F535507
:100F500050504F525400484F53545F414354494FEF
:100F60004E5F434F4D4D414E445300454D45524712
:100F7000454E43595F5041525345520043415345FA
:100F80005F4C494748545F4252494748544E455385
:100F90005300544F47474C455F4C49474854530012
:100FA000534F4654574152455F504F5745520042A8
:100FB00055494C445F50455243454E54004C4556AC
:100FC000454C494E475F44415441005A5F50524F8F
:100FD00042450052554E4F5554004155544F4C45D3
:100FE00056454C005052494E545F4A4F42005052B1
:100FF0004F4752455353004155544F5245504F525D
:10100000545F54454D50004155544F5245504F5236
:10101000545F504F5300564F4C554D455452494321
:1010200000454550524F4D0042494E4152595F468E
:10103000494C455F5452414E534645520053455228
:1010400049414C5F584F4E5F584F46460046495203
:101050004D574152455F4E414D453A4D61726C6965
:101060006E20322E302E382E32202D20444947411A
:101070002D546563682041535758312076312E3006
:1010800020284D6179203331203230323120313700
:101090003A32393A31322920534F555243455F4352
:1010A0004F44455F55524C3A6769746875622E63C8
:1010B0006F6D2F4D61726C696E4669726D776172EA
:1010C000652F4D61726C696E2050524F544F434FE3
:1010D0004C5F56455253494F4E3A312E30204D41C8
:1010E0004348494E455F545950453A417274696CC2
:1010F0006C657279205369646577696E64657220E6
:1011000058312045585452554445525F434F554E2F
:10111000543A3120555549443A6365646532613229
:10112000662D343161322D343734382D3962313205
:101130002D6335356336326633363766660A0029E5
:101140000A0020746F20003F5A206F7574206F666C
:101150002072616E6765202800290A0020746F20C4
:10116000003F59206F7574206F662072616E67654D
:1011700020282D00290A0020746F20003F58206F7E
:101180007574206F662072616E676520282D00508F
:10119000726F6265204F6666736574205800426501
:1011A0006420436F6F6C696E672E2E2E004265645B
:1011B0002048656174696E672E2E2E002364656673
:1011C000696E652044454641554C545F0000626598
:1011D00064004B6420004B6920004B702000504994
:1011E00044204175746F74756E652066696E69730D
:1011F000686564212050757420746865206C617383
:1012000074204B702C204B6920616E64204B64204D
:10121000636F6E7374616E74732066726F6D20629B
:10122000656C6F7720696E746F20436F6E666967B7
:1012300075726174696F6E2E680A005049442041CE
:1012400075746F74756E65206661696C65642120C4
:1012500074696D656F75740A005049442041757456
:101260006F74756E65206661696C656421205465D4
:101270006D706572617475726520746F6F20686936
:1012800067680A00204B643A2000204B693A20002E
:10129000204B703A200020436C61737369632050C7
:1012A0004944200A00204E6F206F76657273686F84
:1012B0006F740A002054753A2000204B753A2000C4
:1012C000206D61783A2000206D696E3A200020641C
:1012D0003A200020626961733A200050494420415D
:1012E00075746F74756E652073746172740A005042
:1012F0004944204175746F74756E65206661696C30
:101300006564212054656D70657261747572652025
:10131000746F6F20686967680A00504944204175FE
:10132000746F74756E6500504944204175746F7414
:10133000756E65206661696C656421204261642078
:101340006865617465722069640A00486F6D696E32
:1013500067204661696C6564006F70656E00545269
:1013600049474745524544003A20007A5F6D696E0F
:1013700000795F6D696E00785F6D696E005265700F
:101380006F7274696E6720656E6473746F7020731A
:1013900074617475730A0020746F6F206C6F6E67D0
:1013A00020657874727573696F6E207072657665EA
:1013B0006E7465640A0020636F6C642065787472D3
:1013C0007573696F6E2070726576656E7465640AF8
:1013D00000486F6D6520257325732573204669725B
:1013E00073740000000000000000000000000057BF
:1013F00061726E696E673A20486F6D696E67204250
:10140000756D702044697669736F72203C20310AD3
:101410000002020400809843008098430000C84303
:101420000000A0400000A040000000400080984361
:10143000008098430000C843000000000000000046
:101440000000000053657474696E67732053746FF5
:1014500072656400290A002062797465733B206319
:101460007263200053657474696E67732053746FE0
:1014700072656420280048617264636F646564204B
:1014800044656661756C742053657474696E677326
:10149000204C6F616465640A003B20003A0A00201A
:1014A000204D36303320002055004C0046696C61D9
:1014B0006D656E74206C6F61642F756E6C6F616406
:1014C000206C656E677468733A0020204D393030A7
:1014D000204B004C696E65617220416476616E63D9
:1014E000653A0020204D3835312058005A2D507271
:1014F0006F6265204F666673657400204400204962
:101500000020204D3330342050002044002049007A
:1015100020204D33303120500050494420736574F1
:1015200074696E67733A00202047323920533420A3
:101530005A00204A002020473239205333204900E6
:1015400020204D3432302053004D657368204265B1
:1015500064204C6576656C696E673A0020204D32D8
:101560003036205800486F6D65206F66667365746D
:101570003A0020580020530020204D3230352042C0
:1015800000416476616E6365643A20423C6D696E29
:101590005F7365676D656E745F74696D655F7573A4
:1015A0003E20533C6D696E5F66656564726174656B
:1015B0003E20543C6D696E5F74726176656C5F6647
:1015C000656564726174653E20583C6D61785F7832
:1015D0005F6A65726B3E20593C6D61785F795F6A26
:1015E00065726B3E205A3C6D61785F7A5F6A657206
:1015F0006B3E20453C6D61785F655F6A65726B3E4E
:101600000020540020520020204D32303420500061
:10161000416363656C65726174696F6E2028756ED5
:101620006974732F7332293A20503C7072696E745A
:101630005F616363656C3E20523C726574726163E6
:10164000745F616363656C3E20543C7472617665BF
:101650006C5F616363656C3E0020204D3230312049
:1016600058004D6178696D756D20416363656C65E7
:10167000726174696F6E2028756E6974732F73328E
:10168000293A0020204D3230332058004D617869CE
:101690006D756D206665656472617465732028756B
:1016A0006E6974732F73293A0053746570732070D8
:1016B000657220756E69743A0020440020204D3216
:1016C00030302053002044697361626C65640A0005
:1016D00046696C616D656E742073657474696E67BC
:1016E000733A0020286D6D290020204732312020D8
:1016F00020203B20556E69747320696E206D6D004B
:10170000454550524F4D206461746173697A65207C
:101710006572726F722E0A00454550524F4D205629
:10172000657273696F6E204572726F720045455025
:10173000524F4D20496E646578204572726F720079
:10174000454550524F4D20435243204572726F72AF
:1017500000290A002062797465733B20637263205C
:10176000002073746F7265642073657474696E67AA
:10177000732072657472696576656420280020287C
:1017800063616C63756C6174656429210A002021B2
:101790003D2000454550524F4D20435243206D6936
:1017A000736D61746368202D202873746F72656493
:1017B0002920002053697A653A2000496E646578D3
:1017C0003A200000004843000048430000A04100C8
:1017D000002042F43DA042F43DA04296E3C74300FE
:1017E00080DE43D0070000D0070000640000001036
:1017F000270000204D61726C696E3D563833290A0E
:1018000000454550524F4D2076657273696F6E20CA
:101810006D69736D617463682028454550524F4D62
:101820003D0024F4D43050C38E20C2A24017828BD6
:101830007011127A910D816CD90AA861E108C7581C
:101840006607615143061E4B5D05C145A7041A4159
:101850001104093D9803713931034036DB026533C9
:101860009102D4305402802E1D02632CEE01752AA1
:10187000C501B028A001102781018F2564012B2408
:101880004B01E0223401AC211F018D200D01801F8E
:10189000FC00841EED00971DDF00B81CD200E61B83
:1018A000C600201BBC00641AB200B219A8000A19B5
:1018B000A0006A189900D117910040178B00B51647
:1018C000840031167E00B31579003A157300C714F1
:1018D0006F0058146A00EE13660088136300251326
:1018E0005E00C7125B006C12570015125400C11144
:1018F000510070114F0021114B00D61049008D107E
:1019000047004610440002104200C00F4000800F04
:101910003E00420F3C00060F3B00CB0E3800930EFA
:1019200037005C0E3500270E3400F30D3200C10D78
:101930003100900D3000600D2E00320D2D00050D90
:101940002C00D90C2B00AE0C2900850C29005C0C56
:101950002700350C27000E0C2600E80B2400C40BD2
:101960002400A00B23007D0B23005A0B2100390B10
:101970002100180B2000F80A1F00D90A1E00BB0A1C
:101980001E009D0A1D00800A1D00630A1C00470AF4
:101990001B002C0A1B00110A1A00F7091A00DD09A6
:1019A0001900C4091900AB091900920917007B0935
:1019B0001800630917004C091600360916002009A3
:1019C00016000A091500F5081500E0081400CC08F7
:1019D0001400B8081400A4081400900813007D082F
:1019E00012006B0813005808120046081200340851
:1019F0001100230811001208110001081100F0075E
:101A00001000E0071000D0071000C0071000B0075A
:101A10000F00A107100091070E0083070F00740745
:101A20000F0065070E0057070E0049070E003B0721
:101A30000D002E070E0020070D0013070D000607EE
:101A40000D00F9060C00ED060D00E0060C00D406B2
:101A50000C00C8060C00BC060C00B0060C00A40666
:101A60000B0099060C008D060B0082060B00770612
:101A70000B006C060B0061060A0057060B004C06B3
:101A80000A0042060A0038060A002E060A0024064A
:101A90000A001A060A001006090007060A00FD05DA
:101AA0000900F4050900EB050900E2050900D90564
:101AB0000900D0050900C7050900BE050900B505E4
:101AC0000800AD050800A50509009C05080094055F
:101AD00008008C050800840508007C0508007405D2
:101AE00008006C050700650508005D050700560540
:101AF00008004E05070047050700400508003805A7
:101B00000700310507002A050700230507001C050B
:101B10000600160507000F05070008050600020568
:101B20000700FB040600F5040700EE040600E804C5
:101B30000600E2040700DB040600D5040600CF041B
:101B40000600C9040600C3040600BD040600B7046D
:101B50000600B1040500AC040600A6040600A004BB
:101B600005009B04060095040500900406008A0405
:101B7000050085040500800406007A04050075044C
:101B80000500700405006B0405006604050061048F
:101B900005005C04050057040500520405004D04CF
:101BA000050048040500430405003E0404003A040F
:101BB000050035040500300404002C04050027044A
:101BC0000400230405001E0404001A040400160483
:101BD0000500110404000D040400090405000404B8
:101BE000040000040400FC030400F8030400F403F0
:101BF0000400F0030400EC030400E8030400E40321
:101C00000400E0030400DC030400D8030400D40350
:101C10000400D0030400CC030400C8030300C50380
:101C2000030024F404D9201BC40C5C0E9804C409DE
:101C30005F0265077101F405F900FB04B300480475
:101C40008700C10369005803550003034500BE0225
:101C50003A008402310053022A00290225000402BE
:101C60002000E4011C00C8011900AF011700980111
:101C70001400840113007101100061011000510172
:101C80000E0043010D0036010B002B010B0020015B
:101C90000B00150109000C01090003010800FB00FD
:101CA0000800F3000800EB000700E4000600DE0077
:101CB0000600D8000600D2000600CC000500C700D0
:101CC0000500C2000500BD000400B9000400B50015
:101CD0000400B1000400AD000400A9000400A50048
:101CE0000300A20003009F0004009B000300980073
:101CF00003009500020093000300900003008D0094
:101D000002008B00030088000200860002008400AD
:101D10000300810002007F0002007D0002007B00C2
:101D200002007900020077000100760002007400D2
:101D3000020072000100710002006F0002006D00DD
:101D400001006C0002006A000100690002006700E7
:101D500001006600010065000100640002006200ED
:101D6000010061000100600001005F0002005D00F1
:101D700001005C0001005B0001005A0001005900F5
:101D800001005800010057000100560001005500F5
:101D900001005400010053000000530001005200F4
:101DA000010051000100500001004F0001004E00F1
:101DB00000004E0001004D0001004C0001004B00EE
:101DC00000004B0001004A000100490001004800EA
:101DD00000004800010047000100460000004600E6
:101DE00001004500000045000100440001004300DF
:101DF00000004300010042000000420001004100D9
:101E0000000041000100400001003F0000003F00D1
:101E100001003E0000003E0001003D0000003D00CA
:101E200001003C0000003C0000003C0001003B00C1
:101E300000003B0001003A0000003A0001003900B8
:101E400000003900010038000000380000003800B0
:101E500001003700000037000100360000003600A6
:101E6000000036000100350000003500000035009C
:101E70000100340000003400000034000100330091
:101E80000000330000003300010032000000320087
:101E9000000032000100310000003100000031007C
:101EA00001003000000030000000300001002F0071
:101EB00000002F0000002F0000002F0001002E0066
:101EC00000002E0000002E0001002D0000002D005B
:101ED00000002D0000002D0001002C0000002C004F
:101EE00000002C0000002C0001002B0000002B0043
:101EF00000002B0000002B0001002A0000002A0037
:101F000000002A0000002A0001002900000029002A
:101F1000000029000000290000002900010028001D
:101F20000000280000002800000028000000280011
:101F30000100270000002700000027000000270004
:101F400000002700010026000000260000002600F7
:101F500000002600000026000100250000002500EA
:101F600000002500000025000000250000002500DD
:101F700001002400000024000000240000002400D0
:101F800000002400010023000000230000002300C3
:101F900000002300000023000000230000002300B5
:101FA00001002200000022000000220000002200A8
:101FB000000022000000220001002100000021009A
:101FC000000021000000210000002100000021008D
:101FD000000021000100200000002000000020007F
:101FE0000000200000002000000020000000200071
:101FF0000000200001001F0000001F0000001F0063
:1020000000001F0000001F0000001F0000001F0054
:1020100001001E0000001E0000001E0000001E0047
:102020000000C23100001C260000F4190000D80F87
:102030000000EB080000C004000075020000400131
:10204000000020436F756E7420583A00006265648A
:10205000002C2073797374656D2073746F707065D4
:102060006421204865617465725F49443A200048E4
:10207000656174696E67204661696C6564004865D6
:102080006174696E67206661696C6564004D313109
:10209000322053687574646F776E004572723A200F
:1020A0004D415854454D50004D415854454D5020D8
:1020B000747269676765726564004572723A204D93
:1020C000494E54454D50004D494E54454D50207495
:1020D000726967676572656400544845524D414CAA
:1020E0002052554E4157415900546865726D616CDC
:1020F0002052756E6177617900202F002042403AAE
:102100000020403A0020573A0020573A0020530060
:102110004D313036205000496E76616C696420651F
:10212000787472756465720A0070012C0190012741
:1021300001B0012201C0011D01F0011801100213BC
:102140000130020E016002090190020401C002FF89
:10215000000003FA004003F5008003F000D003EB19
:10216000002004E6007004E100E004DC004005D734
:1021700000C005D2004006CD00D006C8008007C3CD
:10218000003008BE00F008B900C009B400B00AAFC2
:1021900000B00BAA00D00CA500000EA000500F9BB1
:1021A00000C01096005012910000148C00C01587DA
:1021B00000B0178200B0197D00D01B7800001E739C
:1021C0000040206E0090226900F024640040275FE8
:1021D0000090295A00E02B5500102E500020304B63
:1021E0000010324600E033410090353C0010373794
:1021F0000070383200A0392D00B03A2800A03B23EF
:1022000000603C1E00103D1900903D1400103E0F70
:1022100000703E0A00C03E0500003F0000403FFB4A
:10222000FF803FF6FFC03FF1FF2020506C616E6ED3
:10223000657242756666657242797465733A20000C
:102240002046726565204D656D6F72793A200043B6
:102250006F6D70696C65643A204D6179203331206F
:10226000323032310A00204C617374205570646141
:102270007465643A20323032312D30352D323920B8
:102280007C20417574686F723A2028444947412D7B
:10229000546563682C2041535758312076312E30D5
:1022A000290A00322E302E382E320A004D61726C0F
:1022B000696E0020536F6674776172652052657392
:1022C00065740A00205761746368646F6720526503
:1022D0007365740A002042726F776E206F757420E8
:1022E00052657365740A002045787465726E616C7E
:1022F0002052657365740A00506F77657255700AD5
:102300000073746172740A00205A3A0020593A002E
:1023100020583A00656E6473746F70732068697436
:102320003A200000002100240027002A002D003060
:1023300000330001010000040107010A010000222E
:1023400000250028002B002E00310034000201007F
:1023500000050108010B010505050507050808082A
:1023600008020202020A0A08080404040401010126
:10237000010101010103030303030303030407072E
:10238000070C0C0C0C0C0C0C0C02020202060606CC
:1023900006060606060B0B0B0B0B0B0B0B010210B4
:1023A000202008081020401020408002010201086F
:1023B000040201010204081020408080402010081F
:1023C0000402018004020180402010080402010878
:1023D00004020101020408102040800102040810D8
:1023E00020408000000A0B02090C0D0E08070304B0
:1023F00001000000000000000000000000000000DC
:1024000000000000000000000000000000000012BA
:10241000111000000000000000000000000000009B
:10242000000000000000000000FFFFFF50726F621C
:10243000696E67204661696C65640A0050726F625C
:10244000696E67204661696C656400205A3A200015
:1024500020593A200042656420583A200053656EA6
:1024600064204D31303820746F20726573756D654E
:102470000A00496E736572742066696C616D656EE1
:102480007420616E642073656E64204D3130380AAB
:102490000052656865617420446F6E65005265681E
:1024A000656174696E672E2E2E00526568656174D1
:1024B000004865617465722054696D656F757400BC
:1024C00053656E64204D31303820746F206865612B
:1024D00074206E6F7A7A6C650A004E6F7A7A6C653A
:1024E000205061726B65640070726F6D70745F0074
:1024F00073686F7700627574746F6E0062656769E8
:102500006E0050757267654D6F726500506175732E
:10251000656400436F6E74696E7565004C6F61642D
:102520002046696C616D656E74205400496E736558
:1025300072742066696C616D656E7420616E6420D2
:1025400073656E64204D3130380A0020746F6F203F
:102550006C6F6E6720657874727573696F6E20702A
:10256000726576656E7465640A0020636F6C642022
:10257000657874727573696F6E2070726576656EBA
:102580007465640A00220A00556E6B6E6F776E20C8
:10259000636F6D6D616E643A202200204500205A01
:1025A00000205900204D39322058004572726F7258
:1025B0002077726974696E6720746F2045455052A8
:1025C0004F4D210A006F6B0A00526573656E643AC5
:1025D000200020453A00205A3A0020593A00583A43
:1025E00000706F7765726F6666005072696E746511
:1025F000722068616C7465642E206B696C6C28298C
:102600002063616C6C6564210A0046B211241FBE10
:10261000CFEFD1E2DEBFCDBF00E00CBF12E0A0E003
:10262000B2E0E6EFFAE801E00BBF02C007900D92BE
:10263000AE3CB107D9F722E1AEECB2E001C01D9289
:10264000AB3DB207E1F713E1C6E0D3E100E006C01D
:1026500021970109802FFE010E946BC2C530D1076E
:1026600080E00807A9F70E942EB30C9479C50C945A
:102670000000AF92BF92CF92DF92EF92FF920F9342
:102680001F93CF93DF93C5E1D0E106EB1AE085E21B
:10269000A82E80E1B82EC12CD12C7601C39469916B
:1026A0007991899199910E94C7BB288939894A8972
:1026B0005B890E9428BC0E94C9C3F8016193719391
:1026C000819391938F01C616D706E806F90610F498
:1026D0006B017C01AC16BD0611F76FEF7FEFCB01EC
:1026E000A70196010E94EDC12093C60A3093C70A44
:1026F0004093C80A5093C90ADF91CF911F910F915F
:10270000FF90EF90DF90CF90BF90AF900895CF9261
:10271000DF92EF92FF9280918C03882309F457C0D7
:10272000C0908803D0908903E0908A03F0908B03D7
:1027300020E030E0A901C701B6010E94C3BB882395
:1027400009F445C020E030E040E05FE3C701B60196
:102750000E9428BC9B01AC010E9428BC2BED3FE0ED
:1027600049E450E40E9428BC9B01AC0160E070E0A9
:1027700080E89FE30E945CC36B017C01C0926F0301
:10278000D0927003E0927103F0927203609119028B
:1027900070911A02072E000C880B990B0E94C9BB7E
:1027A0002AE037ED43E25CE30E9428BCA7019601D2
:1027B0000E9428BC609358027093590280935A0279
:1027C00090935B02FF90EF90DF90CF900895C12C23
:1027D000D12C80E8E82E8FE3F82ED0CF2F923F92B5
:1027E0004F925F926F927F928F929F92AF92BF9221
:1027F000CF92DF92EF92FF920F931F93CF93DF93CD
:10280000CDB7DEB764970FB6F894DEBF0FBECDBF6D
:102810007A8B698BDC018D909D90AD90BC90139765
:1028200014962D913D914D915C9117972D833E8388
:102830004F83588720E030E040E251E4C501B40105
:102840000E947FC22DE633EF45E65CE30E9428BC80
:102850000E94C4C364300CF427C163E0E62E660F07
:10286000FF08F701EE0FFF1FEE0FFF1FEC53FE4EA8
:1028700040805180628073801701BFEF2B1A3B0AA2
:1028800020E030E040E251E46D817E818F819885C7
:102890000E947FC22DE633EF45E65CE30E9428BC30
:1028A0000E94C4C364300CF403C163E0062F660FBA
:1028B000110BF801EE0FFF1FEE0FFF1FEC53FE4E42
:1028C000208131814281538129833A834B835C8308
:1028D000A8014F5F5F4F5C8B4B8BA5E0AE9DC001A5
:1028E000AF9D900D11249A878987FC01E00FF11F9D
:1028F000EE0FFF1FEE0FFF1FE356FC4FC080D1808D
:10290000E280F380F101EE0FFF1FEE0FFF1FEC538B
:10291000FE4EA301920160817181828193810E94A8
:102920007FC26B877C878D879E87A3019201C5013B
:10293000B4010E947FC22B013C0125E0229DF001E1
:10294000239DF00D1124F88BEF87E00FF11FEE0FA0
:10295000FF1FEE0FFF1FE356FC4FA701960160819A
:102960007181828193810E947FC22B853C854D8538
:102970005E850E945CC3A30192010E9428BCA7014E
:1029800096010E9480C26B017C01E985FA854B8922
:102990005C89E40FF51FEE0FFF1FEE0FFF1FE356DC
:1029A000FC4F80809180A280B380EF85F889E40F8E
:1029B000F51FEE0FFF1FEE0FFF1FE356FC4FA501A3
:1029C000940160817181828193810E947FC22B85F5
:1029D0003C854D855E850E945CC3A30192010E94E7
:1029E00028BCA50194010E9480C2A70196010E9403
:1029F0007FC24B015C01EB89FC89EE0FFF1FEE0FDC
:102A0000FF1FEC53FE4E29813A814B815C8160812E
:102A10007181828193810E947FC29B01AC01C501BB
:102A2000B4010E945CC34B015C0129813A814B8156
:102A30005C816D817E818F8198850E947FC29B0120
:102A4000AC01C501B4010E9428BCA70196010E94F7
:102A500080C2A989BA892D913D914D915C910E94C6
:102A600028BC20910104309102044091030450914C
:102A700004040E9480C264960FB6F894DEBF0FBEB5
:102A8000CDBFDF91CF911F910F91FF90EF90DF901D
:102A9000CF90BF90AF909F908F907F906F905F90FE
:102AA0004F903F902F90089567FFD8CE60E0D6CE2C
:102AB00067FFFCCE60E0FACE8F929F92AF92BF92FA
:102AC000CF92DF92EF92FF92CF93DF93EC01809051
:102AD000661090906710A0906810B090691020E088
:102AE00030E0A901C501B4010E94C3BB882309F4E9
:102AF00054C0C880D980EA80FB80A7019601C50137
:102B0000B4010E94C3BB18160CF04CC020915D109C
:102B100030915E1040915F1050916010C701B60176
:102B20000E94C3BB882331F1C0925D10D0925E1029
:102B3000E0925F10F092601020916110309162106D
:102B40004091631050916410688179818A819B81E2
:102B50000E9428BC9B01AC0160E070E080E89FE32C
:102B60000E947FC260931502709316028093170231
:102B700090931802609115027091160280911702CD
:102B800090911802DF91CF91FF90EF90DF90CF905E
:102B9000BF90AF909F908F90089560E070E080E8C4
:102BA0009FE3F0CF60E070E0CB01ECCF0F931F9379
:102BB000CF93DF9300D01F92CDB7DEB72091651081
:102BC0002223D1F08C01089677DF69837A838B8387
:102BD0009C83BE016F5F7F4FC80100DE9B01AC018B
:102BE000F80160857185828593850E947FC2F80116
:102BF00060877187828793870F900F900F900F9057
:102C0000DF91CF911F910F9108950F931F93E62F9E
:102C1000DC01FC910F2F10E030E020E0062E04C014
:102C200036952795179507950A94D2F700FF1CC093
:102C300000916E0310E030E020E004C03695279547
:102C4000179507956A95D2F700FF0EC041E050E056
:102C500060E070E004C0440F551F661F771FEA95BF
:102C6000D2F740954F234C931F910F910895CF9326
:102C7000DF9324E0829FC0011124EC01CB59DE4E8A
:102C8000FC01EC58FB4F8E599C4FDC012D913D917E
:102C90004D915C9160817181828193810E9480C29B
:102CA000688379838A839B83DF91CF910895CF9343
:102CB000DF931F92CDB7DEB7898360E0CE01019626
:102CC000A4DF61E0CE010196A0DF62E0CE010196B3
:102CD0009CDF89810F90DF91CF91089580915E03F1
:102CE00090915F03A0916003B091610380935402BF
:102CF00090935502A0935602B093570280915C03C3
:102D000090915D03909353028093520208958091B5
:102D1000540290915502A0915602B09157028093AF
:102D20005E0390935F03A0936003B093610380916F
:102D300052029091530290935D0380935C0384E66A
:102D400090E09093530280935202089590E080E0C7
:102D50000895282F90911E03833021F495FD0FC014
:102D600094FD0FC0892F90E0B0E0A0E004C0B695BC
:102D7000A795979587952A95D2F78170089581E058
:102D8000089580E00895FC01659175918591949175
:102D90000895CF92DF92EF92FF92CF93DF93EC01F1
:102DA000CC80DD80EE80FF8027E137EB41ED58EBF2
:102DB000C701B6010E94A7C487FD23C023E030E805
:102DC00048E953E4C701B6010E94C3BB1816CCF012
:102DD000C880D980EA80FB8027E137EB41ED58EBD2
:102DE000C701B6010E94A7C487FD0BC0C1E023E064
:102DF00030E848E953E4C701B6010E94C3BB181686
:102E00000CF4C0E08C2FDF91CF91FF90EF90DF901A
:102E1000CF9008952FEB280F2A3108F047C0E22FFA
:102E2000F0E080913E0390913F03A0914003B09168
:102E3000410304C0B695A795979587952A95D2F733
:102E400080FD02C081700895E15EFC4FE081EE23B9
:102E500041F18091131090911410E80FF92FF11D9A
:102E6000808190ED980F9A3030F08E3251F481814C
:102E700080538A3098F4F0931B03E0931A0381E0A7
:102E800008958D3211F08B3249F4818190ED980FC5
:102E90009A3088F38E3211F48281EACFF0E0E0E0DC
:102EA000EACF10921B0310921A03E9CF80E0089535
:102EB000B1DF882341F081E020911A0330911B0398
:102EC000232B09F480E00895CF93DF93EC01C43005
:102ED00081E0D80714F0C4E0D1E0D0934404C0935B
:102EE000430460913F0470914004809141049091AB
:102EF00042040E94C4C3CB01BE01DF91CF910C9468
:102F0000F08C0F931F93CF93DF9309E210E1CFED85
:102F1000DAE0F80121913191419151918F0160E006
:102F200070E080E89FE30E945CC369937993899382
:102F30009993FAE0CF3EDF0761F70E943D87DF916A
:102F4000CF911F910F9195CBCF92DF92EF92FF928D
:102F50000F931F93C12CD12C76018C0121E631E116
:102F60004DE551E169E571E185E591E10E948788D0
:102F70001F910F91FF90EF90DF90CF9008950F93E6
:102F80001F9380914E03813019F50E94E48C0091CB
:102F90004603109147032091480330914903601B79
:102FA000710B820B930B28EE33E040E050E00E945F
:102FB000EDC160914203709143038091440390916D
:102FC0004503620F731F841F951F1F910F91089572
:102FD00060914A0370914B0380914C0390914D0393
:102FE000D6CF80914E03813079F482E080934E03F6
:102FF0000E94E48C60934A0370934B0380934C03CC
:1030000090934D0381E0089580E0089580914E03F0
:103010008150823070F410924E030E94E48C6093D1
:103020004A0370934B0380934C0390934D0381E0CC
:10303000089580E0089563E00C94218A80911A033A
:1030400090911B03009731F04AE050E070E060E09F
:103050000C942EBA60E070E0CB01089580911A03C1
:1030600090911B03009731F04AE050E070E060E07F
:103070000C9402B960E070E0CB010895EFDF97FD9A
:103080000AC0ECDF6F3F71058105910509F02CF452
:10309000E5DF862F089580E008958FEF0895CF93A0
:1030A000C62F06DF882311F0CF91E8CF8C2FCF9168
:1030B000089580911A0390911B03892B39F0DEDF6C
:1030C00091E0811101C090E0892F089591E0FCCF3B
:1030D000CF93DF93C82FD62FEBDE882319F0DF9133
:1030E000CF91E7CF8C2F96DE811101C08D2FDF911C
:1030F000CF910895B3DFCB010895CF93DF93EB0118
:10310000D7DE882319F0DF91CF91F4CFCE01DF9184
:10311000CF9108950F931F93CF9380911A039091AD
:103120001B030097E9F0FC018F01C1912C2F2F7D2B
:1031300081F0C53411F0C536B9F7F801108270E09E
:1031400060E00E94ACB7F801C083CF911F910F914E
:10315000089570E060E0CF911F910F910C94ACB78F
:1031600060E070E0CB01F1CFCF92DF92EF92FF925F
:103170006A017B019DDE882329F0FF90EF90DF90AC
:10318000CF90C8CFC701B601FF90EF90DF90CF90EE
:1031900008958F929F92AF92BF92CF92DF92EF925B
:1031A000FF920F931F93CF9385E9E82E8AE0F82EC4
:1031B00005E511E195E6C92E91E1D92EC0E088E53B
:1031C0008C0F76DE882309F474C0A4DF4B015C0108
:1031D0008C2FBFDD882309F462C0F8012081318182
:1031E00042815381C501B4010E9480C2F70160830E
:1031F000718382839383CF5FF4E0EF0EF11C0C5F49
:103200001F4F84E0C80ED11CC330C9F685E450DEE0
:10321000882309F459C07EDF6B017C0183E099DDCE
:10322000882371F0209161113091621140916311F6
:1032300050916411C701B6010E9480C26B017C01EC
:10324000C092A10AD092A20AE092A30AF092A40A24
:1032500040E050E0BA0186E487DF20E030E0A901D9
:103260000E94A7C418167CF455DF20E030E040E748
:1032700052E40E945CC360935402709355028093A1
:10328000560290935702CF911F910F91FF90EF90AC
:10329000DF90CF90BF90AF909F908F900895F601F0
:1032A0002081318142815381C501B4010E947FC2D6
:1032B0009DCFF80180819181A281B381F701808344
:1032C0009183A283B38397CF809161119091621112
:1032D000A0916311B09164118093A10A9093A20A06
:1032E000A093A30AB093A40AB3CF8F929F92AF92F8
:1032F000BF92CF92DF92EF92FF92CF93DF93CDB741
:10330000DEB760970FB6F894DEBF0FBECDBF80E08A
:1033100090E0A8E1B3E48D839E83AF83B8878D8767
:103320009E87AF87B88BE0918511F09186118080E0
:103330009180A280B38020E030E0A901C501B401F2
:103340000E9480C26B017C0120E030E040E251E449
:103350000E94C3BB87FF06C0C12CD12C90E2E92E8E
:1033600091E4F92EC982DA82EB82FC8220E030E817
:1033700048E953E4C501B4010E9480C26B017C019D
:1033800020E030E843E953E40E94A7C418163CF457
:10339000C12C80E8D82E83E9E82E83E4F82EC98674
:1033A000DA86EB86FC8680E1FE013196ADE8B3E07B
:1033B00001900D928A95E1F760960FB6F894DEBF02
:1033C0000FBECDBFDF91CF91FF90EF90DF90CF90F8
:1033D000BF90AF909F908F9008954091090421E095
:1033E00042270C948387CF93DF93809173038111DD
:1033F00019C0C0911B02D0911C02219720E030E03F
:1034000040E05FE360913F0470914004809141048B
:10341000909142040E9480C20E94C4C321E06C17B4
:103420007D070CF020E0822FDF91CF9108950F935C
:103430001F93CF93DF9300D01F92CDB7DEB72091BB
:1034400065102223D1F08C01089636DB69837A83DC
:103450008B839C83BE016F5F7F4FC801BFD99B01E7
:10346000AC01F80160857185828593850E9480C2D8
:10347000F80160877187828793870F900F900F9074
:103480000F90DF91CF911F910F9108954F925F920E
:103490006F927F928F929F92AF92BF92CF92DF9264
:1034A000EF92FF920F931F93CF93DF93CDB7DEB7C9
:1034B00068970FB6F894DEBF0FBECDBF8C015B01DD
:1034C0005A834983FC01EF5BFF4F608171818281E8
:1034D00093810E94C7BB6B017C01D5012D913D9169
:1034E0004D915C910E9428BC0E9446C32B013C0177
:1034F000E981FA812081318142815381C701B6017E
:103500000E9428BC0E9446C34B015C01C301B2016A
:103510000E94C9C3698B7A8B8B8B9C8B6837710532
:103520008105910540F428E730E040E050E0298B28
:103530003A8B4B8B5C8BC501B4010E94C9C36D876C
:103540007E878F87988B683771058105910540F4D8
:1035500088E790E0A0E0B0E08D879E87AF87B88BCA
:10356000F801E35BFF4F2081318142815381298340
:103570003A834B835C83CA01B9010E94C9BB2B010A
:103580003C0169897A898B899C890E94C7BB6987BC
:103590007A878B879C8720E030E0A901C301B201C4
:1035A0000E94C3BB882309F43BC1A7019601C70150
:1035B000B6010E9428BC4B015C0129853A854B85E8
:1035C0005C85CA01B9010E9428BC9B01AC01C50100
:1035D000B4010E947FC24B015C01A3019201C301AF
:1035E000B2010E9480C29B01AC01C501B4010E94DE
:1035F0005CC30E9446C30E94C9C36D837E838F83D0
:10360000988769817A818B819C819095809570954E
:1036100061957F4F8F4F9F4F0E94C9BB4B015C014B
:103620006D857E858F8598890E94C7BB69837A8363
:103630008B839C8320E030E0A901C501B4010E9486
:10364000C3BB882309F4F0C029813A814B815C8196
:10365000CA01B9010E9428BC6D8B7E8B8F8B988F1D
:10366000A7019601C701B6010E9428BC9B01AC01CD
:103670006D897E898F89988D0E947FC26B017C0144
:10368000A5019401C501B4010E9480C29B01AC0157
:10369000C701B6010E945CC30E94F5C3D80195968C
:1036A0008D909D90AD90BC909897750164012D818F
:1036B0003E814F815885C21AD30AE40AF50A0E9456
:1036C000C9C3C61AD70AE80AF90AF7FE6EC020E095
:1036D00030E0A901C301B2010E94C3BB882309F4F1
:1036E000A7C0C501B4010E94C7BB6B017C01A30147
:1036F0009201C301B2010E9480C29B01AC01C701CB
:10370000B6010E9428BC6B017C0129853A854B8556
:103710005C85CA01B9010E9428BC9B01AC01C701AC
:10372000B6010E947FC26B017C0129813A814B81E5
:103730005C81CA01B9010E9428BC9B01AC01C70190
:10374000B6010E9480C26B017C0120E030E040E8BD
:1037500050E4C301B2010E9428BC9B01AC01C70127
:10376000B6010E945CC30E9446C36B017C0120E04D
:1037700030E0A9010E94A7C418161CF0C12CD12C5E
:103780007601C701B6010E94C9C36D837E838F8312
:10379000988786169706A806B90620F48D829E8221
:1037A000AF82B886C12CD12C76018D819E81AF81EC
:1037B000B885F80181A792A7A3A7B4A7C80ED91E00
:1037C000EA1EFB1EC5A6D6A6E7A6F0AAEB5BFF4F36
:1037D00029893A894B895C892083318342835383C9
:1037E00034968D859E85AF85B88980839183A28329
:1037F000B38368960FB6F894DEBF0FBECDBFDF91DE
:10380000CF911F910F91FF90EF90DF90CF90BF90DD
:10381000AF909F908F907F906F905F904F900895A2
:1038200060E070E0CB01E5CE60E070E0CB0134CF2A
:1038300060E070E0CB0197CF80918A1190918B115D
:10384000891B8F7019F490E080E0089590918711A2
:10385000992351F0833030F48FEF890F19F0809362
:103860008711F1CF1092871180918B1122E5829FF1
:10387000C00111248F50954FFC01208120FDE3CF22
:1038800020918B112F5F2F702093881130918B1115
:1038900020918911321304C020918811209389113D
:1038A000089590916F0081E091FD02C080E008953D
:1038B00090916F009D7F90936F000895EFE6F0E088
:1038C0008081826080830895CF92DF92EF92FF9291
:1038D000CF93DF93C82FE5DF94E0C99FE001112467
:1038E000FE01E85EFB4FC080D180E280F380811151
:1038F000E5DFC152D54FC701B6010E94C9BB28817F
:1039000039814A815B810E9428BCDF91CF91FF9071
:10391000EF90DF90CF900895CF93DF9380E0D4DFD6
:10392000C0E5D3E0688379838A839B8381E0CCDF21
:103930006C837D838E839F8382E0C6DF688779876F
:103940008A879B87DF91CF910895CF92DF92EF9284
:10395000FF92CF93DF93C82FA4DF94E0C99FE001CB
:103960001124FE01E45FFB4FC080D180E280F38030
:103970008111A4DFC152D54FC701B6010E94C9BB56
:10398000288139814A815B810E9428BCDF91CF91D7
:10399000FF90EF90DF90CF900895CF93DF93CDB756
:1039A000DEB72C970FB6F894DEBF0FBECDBF0E94D6
:1039B000B6A877DF9CE0E8E1F4E0DE011196019023
:1039C0000D929A95E1F7811179DFCE0101960E945F
:1039D0001E9F2C960FB6F894DEBF0FBECDBFDF91B1
:1039E000CF9108952F923F924F925F926F927F9264
:1039F0008F929F92AF92BF92CF92DF92EF92FF92FF
:103A00000F931F93CF93DF9300D0CDB7DEB7809095
:103A1000551190905611A0905711B09058114090A8
:103A2000591150905A1160905B1170905C11C090C8
:103A30005D11D0905E11E0905F11F09060110E94D6
:103A400039130E94871308E314E18FE192E09B830E
:103A50008A838CE2282E84E1382E1982898107D945
:103A6000C80191D9EA81FB8161937193819391930C
:103A7000FB83EA83C10187D9EA81FB816087718773
:103A800082879387F981FF5FF9830C5F1F4F84E082
:103A9000280E311CF33011F785E094E00E94EE8788
:103AA00030DAA50194016091551170915611809101
:103AB0005711909158110E94C3BB81111CC0A301E2
:103AC00092016091591170915A1180915B119091FE
:103AD0005C110E94C3BB81110EC020915D11309119
:103AE0005E1140915F1150916011C701B6010E94B3
:103AF000C3BB8823B1F00F900F900F90DF91CF914F
:103B00001F910F91FF90EF90DF90CF90BF90AF90FB
:103B10009F908F907F906F905F904F903F902F90ED
:103B20003CCF0F900F900F90DF91CF911F910F918D
:103B3000FF90EF90DF90CF90BF90AF909F908F90CD
:103B40007F906F905F904F903F902F9008958F924D
:103B50009F92AF92BF92CF92DF92EF92FF92CF935C
:103B6000DF9320911D02222309F49EC0EC01809175
:103B70006E03C82ED12CF12CE12C80FF2CC080903C
:103B80001F0290902002A0902102B0902202288172
:103B900039814A815B81C501B4010E94A7C418160E
:103BA00024F488829982AA82BB8280902B02909012
:103BB0002C02A0902D02B0902E02288139814A81DA
:103BC0005B81C501B4010E94C3BB87FF04C088822A
:103BD0009982AA82BB82D701C601B695A79597950F
:103BE000879580FF2CC08090230290902402A090A3
:103BF0002502B09026022C813D814E815F81C50156
:103C0000B4010E94A7C4181624F48C829D82AE824F
:103C1000BF8280902F0290903002A0903102B0902D
:103C200032022C813D814E815F81C501B4010E9429
:103C3000C3BB87FF04C08C829D82AE82BF8282E0BC
:103C4000F694E794D794C7948A95D1F7C0FE2CC018
:103C5000C0902702D0902802E0902902F0902A021A
:103C6000288539854A855B85C701B6010E94A7C4AE
:103C7000181624F4C886D986EA86FB86C0903302DB
:103C8000D0903402E0903502F090360228853985D4
:103C90004A855B85C701B6010E94C3BB87FF04C08C
:103CA000C886D986EA86FB86DF91CF91FF90EF9098
:103CB000DF90CF90BF90AF909F908F9008951F930B
:103CC000CF93DF93CDB7DEB760970FB6F894DEBF22
:103CD0000FBECDBF182F20DE1D861E861F86188AB8
:103CE0008091500390915103A0915203B0915303DE
:103CF00089839A83AB83BC8380915403909155034D
:103D0000A0915603B09157038D839E83AF83B887EC
:103D10008091580390915903A0915A03B0915B038D
:103D200089879A87AB87BC8783E0CEDD6D877E87E6
:103D30008F87988BCE0101960E94D6151E3F99F46D
:103D400080E1FE013196A5E5B1E101900D928A95E1
:103D5000E1F760960FB6F894DEBF0FBECDBFDF91DE
:103D6000CF911F91089584E0189FF0011124DF0185
:103D7000AB5ABE4E81E090E08C0F9D1FE80FF91FFB
:103D800040815181628173814D935D936D937C93EA
:103D90001397DFCF0C943D8780917104811105C08A
:103DA0008091A70A882309F463C080914F03659925
:103DB00059C0816080934F039091030180914F031C
:103DC00091FD52C0826080934F0380914F034B99C5
:103DD0004DC0846080934F0380910B0480FF10C01E
:103DE0008091720480FF0CC080914F0380FF08C057
:103DF0008091A50A81608093A50A80E00E943E9F81
:103E000080910B04869580FF11C080917204869585
:103E100080FF0CC080914F0381FF08C08091A50AEC
:103E200082608093A50A81E00E943E9F80910B04EE
:103E30008695869580FF1CC0809172048695869534
:103E400080FF16C08091A70A882391F080914F03CC
:103E500082FF0EC08091A50A84608093A50A82E04B
:103E60000C943E9F8E7FA6CF8D7FADCF8B7FB2CF40
:103E700008958091A50A882319F01092A50A089543
:103E800060E08BE493E10E94C09010924E03109288
:103E90004603109247031092480310924903109270
:103EA0004A0310924B0310924C0310924D03109250
:103EB0004203109243031092440310924503089565
:103EC00080914E038130E1F08230C1F458D8609384
:103ED000420370934303809344039093450381E02E
:103EE00080934E030E94E48C6093460370934703D3
:103EF000809348039093490381E00895C6DFEFCF94
:103F000080E008958F929F92AF92BF92CF92DF92FE
:103F1000EF92FF920F931F93CF93DF9310923A0388
:103F2000109239032FE320933D0310923C0310922B
:103F30003B0310923E0310923F03109240031092F5
:103F400041039C01F90190812F5F3F4F9032D1F3E3
:103F50009E34C9F4818190ED980F9A3020F08D3213
:103F600011F08B3281F432969F012F5F3F4F808199
:103F700080538A3008F46BC09F012F5F3F4F8081D0
:103F8000803209F466C0F0931410E09313108F018F
:103F90000F5F1F4FC0816AE270E0C8010E944EC5EA
:103FA000009731F0FC01319780818032E1F311827A
:103FB000CD3421F0C43511F0C734E1F5F80180812A
:103FC0000F5F1F4F8032D1F380538A3098F5C09332
:103FD0003D0330E020E06AE0AF014F5F5F4F629F3A
:103FE000C001639F900D11249C01205331098081F1
:103FF000280F311D87FD3A95FA01808180538A3060
:1040000058F330933C0320933B03DF0131968C91AE
:104010008032D9F3CD3449F52E31310539F0D8F459
:104020002731310519F02C313105F9F4B0933A03F9
:10403000A0933903DF91CF911F910F91FF90EF90E3
:10404000DF90CF90BF90AF909F908F900895F9012F
:104050008BCFF90191CF2537310538F0273731055E
:1040600028F3203A83E0380709F3D091131040E099
:1040700050E0BA0110E000E0C12CD12C7601C394CD
:10408000FD0131968C91882309F47FC08132E1F4DF
:10409000CD34D1F420323105B9F440933E0350932E
:1040A0003F036093400370934103F0933A03E0931E
:1040B000390363E270E0CF010E944EC5009709F416
:1040C000B9CFFC011082B6CF81548A3108F058C0B4
:1040D000DF019D91903291F0A0EDA90FAA30E8F098
:1040E0009E3271F4918190539A30B8F00115110508
:1040F00019F48F010150110990E013C0FD01E8CFC0
:104100009D3211F09B3291F79181A0EDA90FAA3059
:1041100020F09E3259F79281E6CF9E2F9D1B30975B
:1041200059F3A82FB0E04601570104C0880C991C30
:10413000AA1CBB1C8A95D2F7482959296A297B29D0
:10414000A15EBC4F9C9380818154DF018A3108F4C9
:1041500097CFDF018191882309F492CF90ED980FDA
:104160009A30B8F393ED980F923098F38B3289F32D
:10417000CD010196EC91E03209F082CFDC01F8CF5D
:104180000115110501F78D01DECF10933A0300935D
:10419000390340933E0350933F0360934003709371
:1041A000410348CF4F925F926F927F928F929F927E
:1041B000AF92BF92CF92DF92EF92FF92CF93DF93B5
:1041C00000D000D01F921F92CDB7DEB75C01DB019B
:1041D000CD90DD90ED90FC90E0918511F0918611ED
:1041E000FE83ED8384819581A681B78189839A833B
:1041F000AB83BC839C01AD01C701B6010E947FC2A5
:104200002B013C01F50180809180A280B380AD81BB
:10421000BE818D919D910D90BC91A02D8D839E832B
:10422000AF83B88727E137EB41ED58EBC301B2010B
:104230000E94A7C487FDD3C023E030E848E953E4D7
:10424000C301B2010E94C3BB18160CF4C8C02D8173
:104250003E814F815885C501B4010E947FC22B0168
:104260003C0127E137EB41ED58EB0E94A7C487FDE5
:10427000B6C023E030E848E953E4C301B2010E942C
:10428000C3BB18160CF4ABC020E030E0A9016D816F
:104290007E818F8198850E9480C22B013C0120E0A5
:1042A00030E040E251E40E94C3BB87FF06C0412CCE
:1042B000512C30E2632E31E4732E27E137EB41EDD0
:1042C00058E3C301B2010E947FC29B01AC01C5014A
:1042D000B4010E94A7C487FD82C020E030E848E90D
:1042E00053E46D817E818F8198850E9480C22B016D
:1042F0003C0120E030E843E953E40E94A7C41816CB
:104300003CF4412C20E8522E23E9622E23E4722E45
:1043100027E137EB41ED58E3C301B2010E9480C2AF
:104320009B01AC01C501B4010E94C3BB18160CF47B
:1043300056C020E030E0A90169817A818B819C819F
:104340000E9480C24B015C0120E030E040E251E479
:104350000E94C3BB87FF06C0812C912C90E2A92E3E
:1043600091E4B92E27E137EB41ED58E3C501B401E3
:104370000E947FC29B01AC01C701B6010E94A7C485
:1043800087FD2DC020E030E848E953E469817A8157
:104390008B819C810E9480C24B015C0120E030E84F
:1043A00043E953E40E94A7C418163CF4812C80E82A
:1043B000982E83E9A82E83E4B82E27E137EB41ED50
:1043C00058E3C501B4010E9480C29B01AC01B1E079
:1043D000B983C701B6010E94C3BB18160CF4198239
:1043E000898128960FB6F894DEBF0FBECDBFDF914E
:1043F000CF91FF90EF90DF90CF90BF90AF909F90C4
:104400008F907F906F905F904F900895CF93DF9340
:10441000C0916004D0916104209729F160915C04FF
:1044200070915D0480915E0490915F040E94C4C30A
:104430006E5F7F4F24976C177D07ACF470932A044E
:10444000609329040E94E48C605A75418F4F9F4FFE
:1044500060932B0470932C0480932D0490932E046E
:10446000DF91CF91089510922B0410922C0410929A
:104470002D0410922E04F4CFCF93DF93EBE3F4E0FE
:10448000C085D18564817581868197810E94C4C36E
:10449000CB01BE01DF91CF910C94F08C843021E0F0
:1044A000920714F084E091E09093440480934304D5
:1044B000E3CFCF93DF93EC01688170E085E00E9449
:1044C000618B698170E084E00E94618B6A8170E099
:1044D00086E00E94618B88819981482F490F55277A
:1044E000551F8A81840F952F911D21E083309105FE
:1044F0000CF420E02093280403976CF051E1CC3AAF
:10450000D50749F088819981AA818093AC11909355
:10451000AD11A093AE11DF91CF9108958F929F922C
:10452000AF92BF92CF92DF92EF92FF92CF93DF9341
:1045300000D0CDB7DEB72FEF8417950731F16A01B0
:10454000052E000CEE08FF084C01092E000CAA08ED
:10455000BB08681779072CF0CB01461757070CF4F6
:10456000CA019C01990F440B550B281939094A09B6
:104570005B09AFEFB0E00E942BC2A701960128199A
:1045800039094A095B090E940FC2809153048217BE
:1045900051F0209353048FEF89831A8220952B8347
:1045A000CE01019686DF0F900F900F90DF91CF9193
:1045B000FF90EF90DF90CF90BF90AF909F908F9043
:1045C00008958F929F92AF92BF92CF92DF92EF9217
:1045D000FF92CF93DF9300D0CDB7DEB72FEF8417D4
:1045E000950731F16A01052E000CEE08FF084C0119
:1045F000092E000CAA08BB08681779072CF0CB011C
:10460000461757070CF4CA019C01990F440B550B30
:10461000281939094A095B09AFEFB0E00E942BC2A3
:10462000A7019601281939094A095B090E940FC29E
:1046300080915304821749F02093530429831A82EE
:104640008FEF8B83CE01019634DF0F900F900F9088
:10465000DF91CF91FF90EF90DF90CF90BF90AF9020
:104660009F908F900895109201041092020410926E
:10467000030410920404EDE9F3E084E6DF011D92E7
:104680008A95E9F70895EF92FF920F931F93CF93C6
:10469000DF930DE913E0C5E07801D5E0F701619102
:1046A0007191819191917F0120E030E0A9010E94F8
:1046B000C3BB81110EC0D15089F7C1500C5E1F4F92
:1046C000C111EACFDF91CF911F910F91FF90EF9031
:1046D000089581E0F7CFCF92DF92EF92FF926B01C6
:1046E0007C0183E3C816D104E104F10470F082E395
:1046F000C81AD108E108F10862E370E080E090E0B8
:104700000E944A8C0E94E492ECCFC701B6010E943D
:104710004A8CFF90EF90DF90CF900C94E4928091C0
:104720007104811104C08091A70A882329F062E0F6
:1047300070E080E090E0CFCF0895129A08955F9ADC
:104740008091A60A8E7F8093A60A8A9A8091A60AF3
:104750008D7F8093A60A8091080180958170809357
:104760000601479A8091A60A8B7F8093A60AE5CF1F
:1047700081E008959091C10095FD0CC09091C0001A
:1047800095FF08C08093C6008091C000806480932C
:10479000C00008952091D3022F5F2F700FB607FC41
:1047A00027C09091D402921328C09091C00095FF29
:1047B0001EC09091D4024091D302941306C09091F0
:1047C000C1009F7D9093C10012C0E92FF0E0ED522F
:1047D000FD4F32819F5F9F703093C6009093D4024B
:1047E0003091C00030643093C000491741F3D9CFF5
:1047F0009091D402921301C0FBCFE091D302F0E07C
:10480000ED52FD4F82832093D3028091C1008062DC
:104810008093C1000895CF93DF93EC0189918823A1
:1048200011F0A8DFFBCFDF91CF910895CF93DF93F5
:10483000EC018991882311F09DDFFBCF8DE09ADF99
:104840008AE0DF91CF9196CFCF92DF92EF92FF92E5
:104850000F931F93CF93DF93CDB7DEB7A0970FB61B
:10486000F894DEBF0FBECDBF442309F443C06115E9
:1048700071058105910571F100E0C42ED12CF12C58
:10488000E12CA70196010E94EDC111E0100FE1E0BB
:10489000F0E0EC0FFD1FE00FF11D07FDFA956083BE
:1048A000B901CA01012F611571058105910549F70B
:1048B000115000F1E1E0F0E0EC0FFD1FE10FF11D00
:1048C00017FDFA95908187E39A3008F480E3890F09
:1048D00051DFEECF80E3A0960FB6F894DEBF0FBE97
:1048E000CDBFDF91CF911F910F91FF90EF90DF909F
:1048F000CF9040CFA0960FB6F894DEBF0FBECDBFCD
:10490000DF91CF911F910F91FF90EF90DF90CF90AB
:104910000895CF92DF92EF92FF92CF936B017C01CB
:10492000C42F4A3061F4F7FE0AC0F094E094D094AA
:10493000C094C11CD11CE11CF11C8DE21BDF4C2F6B
:10494000C701B601CF91FF90EF90DF90CF907CCF61
:10495000CF93DF93EC01FE0184912196882311F01F
:1049600009DFF9CFDF91CF910895CF93C82FCB0105
:10497000EFDF88E693E1ECDF89E593E1CC2311F0EA
:104980008EE593E1E5DF8AE0CF91F4CECF938DE71A
:1049900093E1DEDF8CB1C1E085FB882780F967E712
:1049A00073E18C27E2DF809103018695817061E7D6
:1049B00073E18C27DADF89B183FB882780F96BE606
:1049C00073E18C27CF91D1CF0F931F93CF938C019D
:1049D000C62F8BE49EE0BCDFC801BADF8AE3CADEE3
:1049E00080E38C0FC7DE8AE0CF911F910F91C2CE7A
:1049F000AF92BF92CF92DF92EF920F931F93CF931C
:104A0000DF935B01EA016901882309F45AC08EED46
:104A10009AE09EDFF501608171818281938146E099
:104A20000E94008EE1100AC085ED9AE091DF688156
:104A300079818A819B8146E00E94008E8EEC9AE00B
:104A400087DFF601608171818281938143E00E945A
:104A5000008E87EC9AE07CDFF801608171818281B1
:104A6000938143E00E94008E8EEB9AE071DFF601A5
:104A70002081318142815381F8016081718182817D
:104A800093810E947FC243E00E94008EEE20D9F005
:104A90008AE070DE89EA9AE05BDF688179818A8149
:104AA0009B8146E00E94008E8AE064DE8AE0DF910E
:104AB000CF911F910F91EF90DF90CF90BF90AF906B
:104AC00059CEE110E7CFDF91CF911F910F91EF9079
:104AD000DF90CF90BF90AF9008954CDE88E697E0CE
:104AE00037CF0F931F93CF938C01C62F88E594E0A7
:104AF0002FDFC8012DDFCC2329F08AE0CF911F9151
:104B00000F9138CECF911F910F91089560E088EEFC
:104B100094E2E7DF80E794E01BDF8AE02BCEEF92A0
:104B2000FF920F931F93CF937C018B01C42F60E002
:104B300088EE94E2D6DFC7010BDF80E21BDEC801FE
:104B400007DFCC2311F08C2F15DE8AE0CF911F9167
:104B50000F91FF90EF900ECEDF92EF92FF920F93A6
:104B60001F93CF93DF93D82E7B018A01E901CEDF1B
:104B7000D092B20A40E0B7018CEF94E2D0DF011589
:104B8000110529F040E0B80185EF94E2C8DF2097D5
:104B900029F040E0BE0185EF94E2C1DF60E088EEDD
:104BA00094E29FDF80EF94E2D3DE8AE0DF91CF9141
:104BB0001F910F91FF90EF90DF90DCCDCF93DF93AB
:104BC000EC0160E082E694E08CDFCE01C1DE8AE099
:104BD000DF91CF91CFCDCF93DF939091111093FDC3
:104BE00047C0C82F83E50E945817D82F8823C9F1E2
:104BF0000E947A188C3891050CF03DC090936104A6
:104C00008093600403DC80914304909144048635D2
:104C1000910534F4809160049091610406970CF042
:104C20004FD96091600470916104072E000C880BCD
:104C3000990B0E94C9BB20915C0430915D044091A6
:104C40005E0450915F040E94A7C41816BCF08EE960
:104C500091E1B4DFCC2361F08D2FDF91CF910C94E3
:104C6000B59BCC2329F082E50E9458178111C0CF53
:104C7000DF91CF9108958CE890E0C0CF8DEA91E16B
:104C8000E8CFAF92BF92CF92DF92EF92FF920F9355
:104C90001F93CF93DF9383E494E05ADE6091010485
:104CA00070910204809103049091040445E00E94F5
:104CB000008E80E394E04CDEC0E0D9E0D15019F0E2
:104CC00080E258DDFBCF8C2F0E94F886CF5FC53085
:104CD000A1F78AE04FDD0DE913E0C0E080E24ADD94
:104CE0008C2F0E94F8865801D5E080E243DDF50163
:104CF000C080D180E280F380A7019601C701B60190
:104D00000E942FC5811129C020E030E0A901C70110
:104D1000B6010E94A7C487FD02C08BE22BDD45E0EF
:104D2000C701B6010E94008ED15084E1A80EB11CCB
:104D3000D111DBCF8AE01EDDCF5F0C5F1F4FC53086
:104D400069F68AE0DF91CF911F910F91FF90EF906C
:104D5000DF90CF90BF90AF900DCDF12C80E20ADDB7
:104D6000F3948DE3F8E0FF12FACFDECFCF93DF9319
:104D7000EB01EEDDCE01DF91CF910C946C88CF93E7
:104D8000C62FE6DD8C2FCF910C94F886CF92DF9260
:104D9000EF92FF926A017B01DBDD44E0C701B601BF
:104DA000FF90EF90DF90CF900C94008E4F925F9227
:104DB0006F927F928F929F92AF92BF92CF92DF922B
:104DC000EF92FF92CF93DF93CDB7DEB7E0970FB6A8
:104DD000F894DEBF0FBECDBF8DE490E1B9DD60E099
:104DE0008DE390E1F1DD60E088E290E1EDDD61E0EE
:104DF00081E290E1E9DD61E086E190E1E5DD61E0FD
:104E000087E090E1E1DD61E087EF9FE0DDDD60E0DC
:104E10008EEE9FE0D9DD61E084EE9FE0D5DD60E0BD
:104E20008AED9FE0D1DD60E083ED9FE0CDDD61E0C4
:104E30008BEC9FE0C9DD61E08DEB9FE0C5DD60E0BC
:104E40008FEA9FE0C1DD60E080EA9FE0BDDD60E0C9
:104E500082E99FE0B9DD60E08CE79FE0B5DD61E0CD
:104E60008BE69FE0B1DD61E086E59FE0ADDD61E0CE
:104E700087E49FE0A9DD60E080E49FE0A5DD60E0DD
:104E800089E39FE0A1DD60E080E39FE09DDD60E0DD
:104E90008BE19FE099DD60E08DE09FE095DD61E0D2
:104EA0008AEF9EE091DD60E08DEE9EE08DDD61E0B9
:104EB00088EE9EE089DD61E08BED9EE085DD60E0BF
:104EC00087EC9EE081DD60E084EB9EE07DDD60E0CC
:104ED00088ED91E10E94A616682F61708BEA9EE032
:104EE00073DD19821A821B821C821D821E821F8220
:104EF000188619861A861B861C8680E090E8A8E929
:104F0000B3E48D879E87AF87B88B898B9A8BAB8BE9
:104F1000BC8B80E090E0A8ECB3E48D8B9E8BAF8BD4
:104F2000B88FCE0101960E94A71DCE010D960E945A
:104F3000A71DE5E6F1E140805180628073808480A6
:104F40009580A680B780C084D184E284F3842981CF
:104F50003A814B815C81C301B2010E9480C2698F9A
:104F60007A8F8B8F9C8F2D813E814F815885C50113
:104F7000B4010E9480C26D8F7E8F8F8F98A3298588
:104F80003A854B855C85C701B6010E9480C269A342
:104F90007AA38BA39CA32D853E854F855889C30199
:104FA000B2010E9480C26DA37EA38FA398A7298916
:104FB0003A894B895C89C501B4010E9480C269A706
:104FC0007AA78BA79CA72D893E894F89588DC70149
:104FD000B6010E9480C26DA77EA78FA798AB20E084
:104FE00030E0A901C301B2010E9480C2AB01BC0143
:104FF00087E99EE0CBDE20E030E0A901C501B401E5
:105000000E9480C2AB01BC0183E99EE0BFDE20E0CC
:1050100030E0A901C701B6010E9480C2AB01BC010A
:105020008FE89EE0B3DE20E030E848E953E4C301B6
:10503000B2010E9480C2AB01BC0185E89EE0A6DE01
:1050400020E030E848E953E4C501B4010E9480C281
:10505000AB01BC0181E89EE099DE20E030E048EC45
:1050600053E4C701B6010E9480C2AB01BC018DE7C9
:105070009EE08CDE498D5A8D6B8D7C8D8CE69EE09A
:1050800085DE4D8D5E8D6F8D78A188E69EE07EDE9B
:1050900049A15AA16BA17CA184E69EE077DE4DA1D7
:1050A0005EA16FA178A58AE59EE070DE49A55AA5AC
:1050B0006BA57CA586E59EE069DE4DA55EA56FA586
:1050C00078A982E59EE062DE80E59EE041DC81EC2D
:1050D00092E0A1DB8AE04EDBE0960FB6F894DEBFEB
:1050E0000FBECDBFDF91CF91FF90EF90DF90CF90BB
:1050F000BF90AF909F908F907F906F905F904F90F8
:105100000895CF92DF92EF92FF926A017B0120DC3B
:105110004AE0C701B601FF90EF90DF90CF90F9CB46
:105120002F923F924F925F926F927F928F929F92B7
:10513000AF92BF92CF92DF92EF92FF920F931F93A5
:10514000CF93DF93CDB7DEB7C956D1090FB6F89428
:10515000DEBF0FBECDBF70E060E085E40E947D1829
:105160008F838F3F09F474C08823E9F087E293E1CD
:10517000EFDBC759DF4F0FB6F894DEBF0FBECDBFD0
:10518000DF91CF911F910F91FF90EF90DF90CF9023
:10519000BF90AF909F908F907F906F905F904F9057
:1051A0003F902F90089524EB30E03987288783E5DE
:1051B0000E945817882321F00E947A1899878887BF
:1051C00065E070E083E40E947D18782E60E085E55C
:1051D0000E94681868968FAF68978AE193E1EEDCC9
:1051E0000E94E48C6A8B7B8B8C8B9D8B5F810CE3A4
:1051F00010E05F3F11F004E110E08A899B89AC89DF
:10520000BD898C53964FAF4FBF4F80932F0490931F
:105210003004A0933104B09332048F818F3F09F49E
:10522000ABC1E82E880FFF08F701A3E0EE0FFF1FC8
:10523000AA95E1F7E65BFD4F868197810F97A885D8
:10524000B9858A179B070CF055C38FEE92E190CF7A
:1052500046E450E059874887AACF65961FAE659708
:10526000D6C110913F043090400420904104009139
:10527000420477C253D9B1C26796EEADFFAD6797CE
:10528000808307C34BEE842E912CA12CB12CAAC392
:1052900084E190E0A0E0B0E08A8F9B8FAC8FBD8F5F
:1052A00034E1832E912CA12CB12CACC38A8E9B8E21
:1052B000AC8EBD8EA7C32AE939E949E15FE380E0FE
:1052C00090E0A0E0BEE307C486E992E147C4679698
:1052D000EEADFFAD679780836DC4D301C201259603
:1052E0002CAD3DAD4EAD5FAD2597821B930BA40B4E
:1052F000B50BB7FD5BC065968FAD65970E949E8E1E
:105300008AE038DAD301C2018053984FAF4FBF4FC4
:1053100025968CAF9DAFAEAFBFAF259726969FADBC
:105320002697911173C02A962CAD3DAD4EAD5FAD61
:105330002A97612F732D822D902F0E94A7C41816D3
:105340000CF04EC020E030E040E050E4612F732DBF
:10535000822D902F0E9480C22A966CAF7DAF8EAFB7
:105360009FAF2A9721962CAD3DAD4EAD5FAD2197F5
:10537000240D351D461D571D2E962CAF3DAF4EAF4B
:105380005FAF2E97A8966CAD7DAD8EAD9FADA89703
:105390000E94C9BB212F332D422D502F0E94C3BB29
:1053A000881F8827881F26968FAF26978A899B8912
:1053B000AC89BD89C816D906EA06FB0610F4D701E8
:1053C000C601481A590A6A0A7B0A31E843163FE4C3
:1053D000530632E16306710480F18BE392E17CC2F3
:1053E000D301C2012E962CAD3DAD4EAD5FAD2E97D3
:1053F000821B930BA40BB50B4FE650E26EE770E2F5
:10540000B7FDD4CF8F810E943991D0CFA4966CADD7
:105410007DAD8EAD9FADA4970E94C9BB9B01AC0131
:10542000612F732D822D902F0E94C3BB87FFBECFAB
:1054300049ED50E269EE70E2E5CFAA964EAD5FAD60
:10544000AA978AA19BA1481759070CF069C1039735
:105450000CF466C18EED91E17BDA9F810EEC11E1D7
:105460009F3F11F00DEC11E18CEB91E171DAC80175
:105470006FDA4A855B856C857D858AED91E186DCF6
:105480008AE078D98CEB91E163DAC80161DA4AA548
:105490005BA56CA57DA586ED91E178DC8AE06AD9F3
:1054A0008CEB91E155DAC80153DA4EA55FA568A9E6
:1054B00079A982ED91E16ADC8AE05CD96896AFADAA
:1054C0006897AA23A9F12CEA35EC47E25EE36AA5C6
:1054D0007BA58CA59DA50E9428BC6B017C012CEAB4
:1054E00035EC47E25EE36EA57FA588A999A90E94E5
:1054F0005CC3BF812A853B854C855D85BF3F19F51F
:1055000020936304309364044093650450936604CD
:10551000C0926704D0926804E0926904F0926A0431
:1055200060936B0470936C0480936D0490936E048D
:105530008AAD9BADACAD89839A83AB83CE010196D6
:105540000E94592216CE209346043093470440937C
:10555000480450934904C0924A04D0924B04E0920C
:105560004C04F0924D0460934E0470934F0480936A
:10557000500490935104DCCF488559854D3851052E
:105580000CF063CE8BED92E1E3D90E949D908FE702
:105590008093620420915C0430915D0440915E042C
:1055A00050915F0464962CAF3DAF4EAF5FAF6497F0
:1055B000809353040E94A69B6AAF7BAF8CAF980187
:1055C000A8EEB3E00E943BC221966CAF7DAF8EAFD8
:1055D0009FAF21972A893B894C895D89260F371F08
:1055E000481F591F2E962CAF3DAF4EAF5FAF2E9781
:1055F00081E0809347023F813E5F60963FAF6097B6
:10560000323008F42ACE4F8165964FAF6597CA882D
:10561000DB88EC88FD882596CCAEDDAEEEAEFFAE25
:1056200025971EA61FA618AA19AA1AA61BA61CA66D
:105630001DA61A861B861C861D868FE790E0A0E0BB
:10564000B0E08A8F9B8FAC8FBD8F1E8690E49E8BBF
:10565000ACE1ACA3B6E4BDA31EA21FA218A619A676
:10566000FFE78F2E912CA12CB12C26961FAE2697EA
:105670002A961CAE1DAE1EAE1FAE2A971EAA1FAAEA
:1056800018AE19AEE1E0EDAB1BA21AA210E0312C6E
:10569000212C00E028853985032E000C440B550B86
:1056A0006C962CAF3DAF4EAF5FAF6C973F8147E13B
:1056B0003402C0011124DC01AB5BBB4F6796BFAF66
:1056C000AEAF6797888599854E969C01990F440BDC
:1056D000550BA0962CAF3DAF4EAF5FAFA09788851E
:1056E00099854E979C01990F440B550BA4962CAFAE
:1056F0003DAF4EAF5FAFA4978885998506979C0113
:10570000990F440B550BA8962CAF3DAF4EAF5FAF32
:10571000A897472D770C550BAA965FAF4EAFAA9767
:1057200080914702882309F4D8C00E94E48C2B01A1
:105730003C01509135042F965FAF2F97552309F404
:10574000B9C00E943792109235048F818F3F09F0C3
:1057500088CD10915C0430905D0420905E0400912F
:105760005F042EA13FA148A559A5612F732D822D5D
:10577000902F0E94A7C4181624F41EA33FA228A6A7
:1057800009A72E853E894CA15DA1612F732D822D25
:10579000902F0E94C3BB87FF04C01E873E8A2CA2A5
:1057A0000DA364966CAD7DAD8EAD9FAD64970E94E8
:1057B000C4C36E8F7F8F88A399A3612F732D822D11
:1057C000902F0E94C4C3AF81488559858E8D9F8DCF
:1057D000AF3F09F04FCD0E94E12280912F049091BC
:1057E0003004A0913104B0913204A3019201281B2E
:1057F000390B4A0B5B0BDA01C901B7FD10C00E94DF
:10580000A992D301C2018C53964FAF4FBF4F8093E3
:105810002F0490933004A0933104B09332046C961B
:105820006CAD7DAD8EAD9FAD6C970E94C9BB6E8F88
:105830007AAB8BAB9CAB3DA9332309F47BC09B01B6
:10584000AC01612F732D822D902F0E94A7C41816D2
:105850008CF5B301A2014C195D096E097F09DB01CA
:10586000CA0188589341A109B109B7FD23C08A8DA7
:105870009B8DAC8DBD8D88199909AA09BB09B59579
:10588000A79597958795EF81EF3F09F0F5CC809329
:1058900062044EAB5FAB68AF79AFFE8DFEA32AA961
:1058A0002FA33BA938A74CA949A74A8A5B8A6C8ACF
:1058B0007D8A1DAAA0966CAD7DAD8EAD9FADA097E3
:1058C0000E94C9BB212F332D422D502F0E94C3BBF4
:1058D00087FF03CD89E592E13BD8109247020E94F1
:1058E0009D902AAD3BAD4CAD2C833D834E83CE01C4
:1058F000049626CE8BED92E12BD80E949D9087E1F5
:105900008E9DF0018F9DF00D1124E55CFB4F8FE71C
:10591000828780913F0490914004A0914104B0910E
:10592000420464968CAF9DAFAEAFBFAF6497109248
:10593000530440CE2E8D3AA94BA95CA9612F732D3B
:10594000822D902F0E94C3BB87FFB4CFD301C20129
:105950002A893B894C895D89821B930BA40BB50B6B
:10596000AC01BD01485853416109710977FDA2CFCF
:105970004AA15BA1452B09F40BC1CEA8DFA8E8AC76
:10598000F9ACC80ED91EEA1EFB1E2EA93FA948ADD0
:1059900059AD281B390B4A0B5B0BC501B4010E94A2
:1059A000DEC1A70196010E940FC28A8C9B8CAC8C31
:1059B000BD8C820E931EA41EB51E54E18516910463
:1059C000A104B1040CF464CC8CEE88169104A104FB
:1059D000B1040CF057CC90E889169104A104B104ED
:1059E0000CF464CC8A8E9B8EAC8EBD8E8EEF90E0D4
:1059F000A0E0B0E09C01AD01281939094A095B0912
:105A000049015A014A8D5B8D6C8D7D8D83ED92E14C
:105A100078DBB501A4018EEC92E173DB4E855E89E3
:105A20006CA17DA187EC92E1B1D94EA15FA168A5DF
:105A300079A580EC92E1AAD9AAA1BBA113970CF495
:105A4000A7C0C501B4010E94C9BB20E030E040E816
:105A500050E40E9428BC6A877B878C879D872E85AF
:105A60003E894CA15DA16EA17FA188A599A50E9448
:105A70007FC22BED3FE049E450E40E9428BC20E0C7
:105A800030E040E05FE30E9428BC9B01AC016A85E6
:105A90007B858C859D850E945CC36E8B7F8B888FF8
:105AA000998FC701B6010E94C9BB2FE632E143E8D6
:105AB0005AE30E9428BC6B017C01BF81BE3F19F0F4
:105AC000BF3F09F0F8CB2DEC3CEC4CE45EE38BEAF5
:105AD0009AEAAAEABEE38E879F87A88BB98B6E8964
