:100000000C94E4230C9415240C9415240C941524BE
:100010000C9415240C9415240C9415240C9415247C
:100020000C9415240C9415240C9415240C9415246C
:100030000C9415240C9415240C9415240C9415245C
:100040000C9415240C9487E70C9415240C94152417
:100050000C9415240C9415240C94C2CF0C94EFCC62
:100060000C9415240C94F8B40C94C2B40C9415247C
:100070000C9415240C9415240C9415240C9415241C
:100080000C94D1420C9415240C9415240C94152432
:100090000C9415240C9415240C9415240C941524FC
:1000A0000C9415240C9415240C94A3420C94152440
:1000B0000C9415240C9415240C9415240C941524DC
:1000C0000C9415240C9415240C9415240C941524CC
:1000D0000C9415240C9415240C9415240C941524BC
:1000E0000C941524084AD73B3BCE016E84BCBFFD5F
:1000F000C12F3D6C74319ABD56833DDA3D00C77FF8
:1001000011BED9E4BB4C3E916BAAAABE0000008090
:100110003F05A84CCDB2D44EB93836A9020C50B91F
:10012000918688083CA6AAAA2ABE000000803F0744
:10013000634236B79BD8A71A39685618AEBAAB5582
:100140008C1D3CB7CC5763BD6DEDFD753EF6177247
:1001500031BF000000803F08000000BE9224491219
:100160003EABAAAA2ABECDCCCC4C3E00000080BE3D
:10017000ABAAAAAA3E00000000BF000000803F001A
:1001800000000000084178D3BB4387D1133D190E0E
:100190003CC3BD4282AD2B3E68EC8276BED98FE176
:1001A000A93E4C80EFFFBE01C4FF7F3F000000006E
:1001B00000004E414E494E495459494E46CDCCCC93
:1001C0003D0AD7233C17B7D13877CC2B329595E62B
:1001D000241FB14F0A000020410000C84200401C0B
:1001E0004620BCBE4CCA1B0E5AAEC59D7400407A58
:1001F00010F35A00A0724E18090010A5D4E80000B0
:10020000E87648170000E40B54020000CA9A3B004D
:100210000000E1F505000080969800000040420FC4
:10022000000000A08601000000102700000000E888
:1002300003000000006400000000000A000000004D
:10024000000100000000002C76D888DC674F0823EE
:10025000DFC1DFAE59E1B1B796E5E3E453C63AE654
:1002600051997696E8E6C28426EB898C9B62ED4034
:100270007C6FFCEFBC9C9F40F2BAA56FA5F4900583
:100280005A2AF75C936B6CF9676DC11BFCE0E40DB7
:1002900047FEF520E6B500D0ED902E0300943577AB
:1002A000050080841E080000204E0A000000C80CD3
:1002B000333333330F986E12831141EF8D2114893C
:1002C0003BE65516CFFEE6DB18D1844B381BF77C96
:1002D0001D901DA4BBE424203284725E228100C9DB
:1002E000F124ECA1E53D27E902363726033C3D38F1
:1002F0000E2E303E1224221E131A1C180A07430920
:10030000070844000170012C0190012701B001226F
:1003100001C0011D01F00118011002130130020E8D
:10032000016002090190020401C002FF000003FA0B
:10033000004003F5008003F000D003EB002004E64A
:10034000007004E100E004DC004005D700C005D2E5
:10035000004006CD00D006C8008007C3003008BEAC
:1003600000F008B900C009B400B00AAF00B00BAA91
:1003700000D00CA500000EA000500F9B00C01096EE
:10038000005012910000148C00C0158700B0178235
:1003900000B0197D00D01B7800001E730040206E55
:1003A0000090226900F024640040275F0090295AE1
:1003B00000E02B5500102E500020304B001032462C
:1003C00000E033410090353C001037370070383280
:1003D00000A0392D00B03A2800A03B2300603C1E4D
:1003E00000103D1900903D1400103E0F00703E0AB1
:1003F00000C03E0500003F0000403FFBFF803FF68D
:10040000FFC03FF1FF24F404D9201BC40C5C0E98FC
:1004100004C4095F0265077101F405F900FB04B328
:100420000048048700C103690058035500030345D1
:1004300000BE023A008402310053022A002902253C
:100440000004022000E4011C00C8011900AF0117DC
:100450000098011400840113007101100061011063
:100460000051010E0043010D0036010B002B010B62
:100470000020010B00150109000C0109000301080F
:1004800000FB000800F3000800EB000700E4000692
:1004900000DE000600D8000600D2000600CC0005F1
:1004A00000C7000500C2000500BD000400B900043B
:1004B00000B5000400B1000400AD000400A9000470
:1004C00000A5000300A20003009F0004009B00039E
:1004D00000980003009500020093000300900003C1
:1004E000008D0002008B00030088000200860002DD
:1004F0000084000300810002007F0002007D0002F2
:10050000007B000200790002007700010076000203
:10051000007400020072000100710002006F00020E
:10052000006D0001006C0002006A00010069000219
:100530000067000100660001006500010064000220
:10054000006200010061000100600001005F000224
:10055000005D0001005C0001005B0001005A000129
:100560000059000100580001005700010056000129
:100570000055000100540001005300000053000129
:10058000005200010051000100500001004F000125
:10059000004E0000004E0001004D0001004C000123
:1005A000004B0000004B0001004A0001004900011F
:1005B000004800000048000100470001004600001C
:1005C0000046000100450000004500010044000114
:1005D000004300000043000100420000004200010F
:1005E000004100000041000100400001003F000008
:1005F000003F0001003E0000003E0001003D000001
:10060000003D0001003C0000003C0000003C0001F7
:10061000003B0000003B0001003A0000003A0001EE
:1006200000390000003900010038000000380000E7
:1006300000380001003700000037000100360000DC
:1006400000360000003600010035000000350000D3
:1006500000350001003400000034000000340001C7
:1006600000330000003300000033000100320000BE
:1006700000320000003200010031000000310000B3
:1006800000310001003000000030000000300001A7
:10069000002F0000002F0000002F0000002F00019D
:1006A000002E0000002E0000002E0001002D000092
:1006B000002D0000002D0000002D0001002C000086
:1006C000002C0000002C0000002C0001002B00007A
:1006D000002B0000002B0000002B0001002A00006E
:1006E000002A0000002A0000002A00010029000062
:1006F0000029000000290000002900000029000155
:100700000028000000280000002800000028000049
:10071000002800010027000000270000002700003B
:10072000002700000027000100260000002600002E
:100730000026000000260000002600010025000021
:100740000025000000250000002500000025000015
:100750000025000100240000002400000024000007
:1007600000240000002400010023000000230000FA
:1007700000230000002300000023000000230000ED
:1007800000230001002200000022000000220000DF
:1007900000220000002200000022000100210000D1
:1007A00000210000002100000021000000210000C5
:1007B00000210000002100010020000000200000B6
:1007C00000200000002000000020000000200000A9
:1007D0000020000000200001001F0000001F00009A
:1007E000001F0000001F0000001F0000001F00008D
:1007F000001F0001001E0000001E0000001E00007F
:10080000001E00000024F4D43050C38E20C2A24049
:1008100017828B7011127A910D816CD90AA861E14F
:1008200008C7586607615143061E4B5D05C145A7C1
:10083000041A411104093D9803713931034036DB34
:100840000265339102D4305402802E1D02632CEED7
:1008500001752AC501B028A001102781018F2564E8
:10086000012B244B01E0223401AC211F018D200D0E
:1008700001801FFC00841EED00971DDF00B81CD214
:1008800000E61BC600201BBC00641AB200B219A807
:10089000000A19A0006A189900D117910040178B1F
:1008A00000B516840031167E00B31579003A157331
:1008B00000C7146F0058146A00EE136600881363B3
:1008C0000025135E00C7125B006C1257001512540E
:1008D00000C111510070114F0021114B00D6104979
:1008E000008D1047004610440002104200C00F4027
:1008F00000800F3E00420F3C00060F3B00CB0E383D
:1009000000930E37005C0E3500270E3400F30D32D5
:1009100000C10D3100900D3000600D2E00320D2D04
:1009200000050D2C00D90C2B00AE0C2900850C29DC
:10093000005C0C2700350C27000E0C2600E80B2469
:1009400000C40B2400A00B23007D0B23005A0B21B5
:1009500000390B2100180B2000F80A1F00D90A1ECD
:1009600000BB0A1E009D0A1D00800A1D00630A1CB0
:1009700000470A1B002C0A1B00110A1A00F7091A6B
:1009800000DD091900C4091900AB09190092091703
:10099000007B091800630917004C09160036091678
:1009A00000200916000A091500F5081500E00814D2
:1009B00000CC081400B8081400A408140090081310
:1009C000007D0812006B0813005808120046081238
:1009D0000034081100230811001208110001081149
:1009E00000F0071000E0071000D0071000C007104B
:1009F00000B0070F00A107100091070E0083070F3A
:100A00000074070F0065070E0057070E0049070E18
:100A1000003B070D002E070E0020070D0013070DE9
:100A20000006070D00F9060C00ED060D00E0060CAF
:100A300000D4060C00C8060C00BC060C00B0060C66
:100A400000A4060B0099060C008D060B0082060B15
:100A50000077060B006C060B0061060A0057060BB8
:100A6000004C060A0042060A0038060A002E060A52
:100A70000024060A001A060A001006090007060AE2
:100A800000FD050900F4050900EB050900E2050970
:100A900000D9050900D0050900C7050900BE0509F0
:100AA00000B5050800AD050800A50509009C05086E
:100AB00000940508008C050800840508007C0508E2
:100AC00000740508006C050700650508005D050752
:100AD00000560508004E05070047050700400508B9
:100AE0000038050700310507002A05070023050720
:100AF000001C050600160507000F0507000805067F
:100B00000002050700FB040600F5040700EE0406DA
:100B100000E8040600E2040700DB040600D5040632
:100B200000CF040600C9040600C3040600BD040685
:100B300000B7040600B1040500AC040600A60406D4
:100B400000A00405009B040600950405009004061F
:100B5000008A04050085040500800406007A040567
:100B60000075040500700405006B040500660405AB
:100B700000610405005C04050057040500520405EB
:100B8000004D04050048040500430405003E04042C
:100B9000003A04050035040500300404002C040567
:100BA0000027040400230405001E0404001A0404A2
:100BB0000016040500110404000D040400090405D6
:100BC000000404040000040400FC030400F803040F
:100BD00000F4030400F0030400EC030400E8030441
:100BE00000E4030400E0030400DC030400D8030471
:100BF00000D4030400D0030400CC030400C80303A2
:100C000000C5030300726F746174696F6E206D61BB
:100C1000747269783A0A0024F404D9201BC40C5C6D
:100C20000E9804C4095F0265077101F405F900FB21
:100C300004B30048048700C103690058035500034A
:100C4000034500BE023A008402310053022A002903
:100C500002250004022000E4011C00C8011900AFB5
:100C60000117009801140084011300710110006144
:100C700001100051010E0043010D0036010B002B45
:100C8000010B0020010B00150109000C01090003F4
:100C9000010800FB000800F3000800EB000700E477
:100CA000000600DE000600D8000600D2000600CCD8
:100CB000000500C7000500C2000500BD000400B922
:100CC000000400B5000400B1000400AD000400A958
:100CD000000400A5000300A20003009F0004009B85
:100CE00000030098000300950002009300030090A9
:100CF0000003008D0002008B0003008800020086C4
:100D000000020084000300810002007F0002007DD9
:100D10000002007B000200790002007700010076EB
:100D20000002007400020072000100710002006FF6
:100D30000002006D0001006C0002006A0001006901
:100D40000002006700010066000100650001006408
:100D50000002006200010061000100600001005F0C
:100D60000002005D0001005C0001005B0001005A10
:100D70000001005900010058000100570001005611
:100D80000001005500010054000100530000005311
:100D90000001005200010051000100500001004F0D
:100DA0000001004E0000004E0001004D0001004C0B
:100DB0000001004B0000004B0001004A0001004907
:100DC0000001004800000048000100470001004603
:100DD00000000046000100450000004500010044FD
:100DE00000010043000000430001004200000042F7
:100DF0000001004100000041000100400001003FEF
:100E00000000003F0001003E0000003E0001003DE8
:100E10000000003D0001003C0000003C0000003CE0
:100E20000001003B0000003B0001003A0000003AD6
:100E300000010039000000390001003800000038CE
:100E400000000038000100370000003700010036C4
:100E500000000036000000360001003500000035BB
:100E600000000035000100340000003400000034B0
:100E700000010033000000330000003300010032A5
:100E8000000000320000003200010031000000319B
:100E90000000003100010030000000300000003090
:100EA0000001002F0000002F0000002F0000002F85
:100EB0000001002E0000002E0000002E0001002D79
:100EC0000000002D0000002D0000002D0001002C6E
:100ED0000000002C0000002C0000002C0001002B62
:100EE0000000002B0000002B0000002B0001002A56
:100EF0000000002A0000002A0000002A000100294A
:100F0000000000290000002900000029000000293D
:100F10000001002800000028000000280000002830
:100F20000000002800010027000000270000002723
:100F30000000002700000027000100260000002616
:100F40000000002600000026000000260001002509
:100F500000000025000000250000002500000025FD
:100F600000000025000100240000002400000024EF
:100F700000000024000000240001002300000023E2
:100F800000000023000000230000002300000023D5
:100F900000000023000100220000002200000022C7
:100FA00000000022000000220000002200010021B9
:100FB00000000021000000210000002100000021AD
:100FC000000000210000002100010020000000209E
:100FD0000000002000000020000000200000002091
:100FE00000000020000000200001001F0000001F82
:100FF0000000001F0000001F0000001F0000001F75
:101000000000001F0001001E0000001E0000001E66
:101010000000001E00000024F4D43050C38E20C213
:10102000A24017828B7011127A910D816CD90AA897
:1010300061E108C7586607615143061E4B5D05C153
:1010400045A7041A411104093D9803713931034041
:1010500036DB0265339102D4305402802E1D0263C8
:101060002CEE01752AC501B028A001102781018F3F
:101070002564012B244B01E0223401AC211F018D9A
:10108000200D01801FFC00841EED00971DDF00B8BD
:101090001CD200E61BC600201BBC00641AB200B2C2
:1010A00019A8000A19A0006A189900D117910040E8
:1010B000178B00B516840031167E00B31579003AFF
:1010C000157300C7146F0058146A00EE1366008889
:1010D00013630025135E00C7125B006C12570015E6
:1010E000125400C111510070114F0021114B00D654
:1010F0001049008D1047004610440002104200C005
:101100000F4000800F3E00420F3C00060F3B00CB1B
:101110000E3800930E37005C0E3500270E3400F3B6
:101120000D3200C10D3100900D3000600D2E0032E7
:101130000D2D00050D2C00D90C2B00AE0C290085BF
:101140000C29005C0C2700350C27000E0C2600E84B
:101150000B2400C40B2400A00B23007D0B23005A9A
:101160000B2100390B2100180B2000F80A1F00D9B1
:101170000A1E00BB0A1E009D0A1D00800A1D006396
:101180000A1C00470A1B002C0A1B00110A1A00F750
:10119000091A00DD091900C4091900AB09190092E8
:1011A0000917007B091800630917004C091600365F
:1011B000091600200916000A091500F5081500E0B7
:1011C000081400CC081400B8081400A408140090F7
:1011D0000813007D0812006B08130058081200461F
:1011E0000812003408110023081100120811000130
:1011F000081100F0071000E0071000D0071000C031
:10120000071000B0070F00A107100091070E008320
:10121000070F0074070F0065070E0057070E0049FF
:10122000070E003B070D002E070E0020070D0013D0
:10123000070D0006070D00F9060C00ED060D00E095
:10124000060C00D4060C00C8060C00BC060C00B04E
:10125000060C00A4060B0099060C008D060B0082FC
:10126000060B0077060B006C060B0061060A0057A0
:10127000060B004C060A0042060A0038060A002E39
:10128000060A0024060A001A060A001006090007CA
:10129000060A00FD050900F4050900EB050900E256
:1012A000050900D9050900D0050900C7050900BED8
:1012B000050900B5050800AD050800A50509009C55
:1012C000050800940508008C050800840508007CCA
:1012D000050800740508006C050700650508005D39
:1012E000050700560508004E0507004705070040A2
:1012F00005080038050700310507002A0507002307
:101300000507001C050600160507000F0507000865
:1013100005060002050700FB040600F5040700EEC1
:10132000040600E8040600E2040700DB040600D51A
:10133000040600CF040600C9040600C3040600BD6D
:10134000040600B7040600B1040500AC040600A6BC
:10135000040600A00405009B040600950405009007
:101360000406008A04050085040500800406007A4E
:1013700004050075040500700405006B0405006693
:10138000040500610405005C0405005704050052D3
:101390000405004D04050048040500430405003E13
:1013A0000404003A04050035040500300404002C50
:1013B00004050027040400230405001E0404001A89
:1013C00004040016040500110404000D04040009BF
:1013D0000405000404040000040400FC030400F8F5
:1013E000030400F4030400F0030400EC030400E829
:1013F000030400E4030400E0030400DC030400D859
:10140000030400D4030400D0030400CC030400C888
:10141000030300C503030024F404D9201BC40C5C9F
:101420000E9804C4095F0265077101F405F900FB19
:1014300004B30048048700C1036900580355000342
:10144000034500BE023A008402310053022A0029FB
:1014500002250004022000E4011C00C8011900AFAD
:10146000011700980114008401130071011000613C
:1014700001100051010E0043010D0036010B002B3D
:10148000010B0020010B00150109000C01090003EC
:10149000010800FB000800F3000800EB000700E46F
:1014A000000600DE000600D8000600D2000600CCD0
:1014B000000500C7000500C2000500BD000400B91A
:1014C000000400B5000400B1000400AD000400A950
:1014D000000400A5000300A20003009F0004009B7D
:1014E00000030098000300950002009300030090A1
:1014F0000003008D0002008B0003008800020086BC
:1015000000020084000300810002007F0002007DD1
:101510000002007B000200790002007700010076E3
:101520000002007400020072000100710002006FEE
:101530000002006D0001006C0002006A00010069F9
:101540000002006700010066000100650001006400
:101550000002006200010061000100600001005F04
:101560000002005D0001005C0001005B0001005A08
:101570000001005900010058000100570001005609
:101580000001005500010054000100530000005309
:101590000001005200010051000100500001004F05
:1015A0000001004E0000004E0001004D0001004C03
:1015B0000001004B0000004B0001004A00010049FF
:1015C00000010048000000480001004700010046FB
:1015D00000000046000100450000004500010044F5
:1015E00000010043000000430001004200000042EF
:1015F0000001004100000041000100400001003FE7
:101600000000003F0001003E0000003E0001003DE0
:101610000000003D0001003C0000003C0000003CD8
:101620000001003B0000003B0001003A0000003ACE
:1016300000010039000000390001003800000038C6
:1016400000000038000100370000003700010036BC
:1016500000000036000000360001003500000035B3
:1016600000000035000100340000003400000034A8
:10167000000100330000003300000033000100329D
:101680000000003200000032000100310000003193
:101690000000003100010030000000300000003088
:1016A0000001002F0000002F0000002F0000002F7D
:1016B0000001002E0000002E0000002E0001002D71
:1016C0000000002D0000002D0000002D0001002C66
:1016D0000000002C0000002C0000002C0001002B5A
:1016E0000000002B0000002B0000002B0001002A4E
:1016F0000000002A0000002A0000002A0001002942
:101700000000002900000029000000290000002935
:101710000001002800000028000000280000002828
:10172000000000280001002700000027000000271B
:10173000000000270000002700010026000000260E
:101740000000002600000026000000260001002501
:1017500000000025000000250000002500000025F5
:1017600000000025000100240000002400000024E7
:1017700000000024000000240001002300000023DA
:1017800000000023000000230000002300000023CD
:1017900000000023000100220000002200000022BF
:1017A00000000022000000220000002200010021B1
:1017B00000000021000000210000002100000021A5
:1017C0000000002100000021000100200000002096
:1017D0000000002000000020000000200000002089
:1017E00000000020000000200001001F0000001F7A
:1017F0000000001F0000001F0000001F0000001F6D
:101800000000001F0001001E0000001E0000001E5E
:101810000000001E00000024F4D43050C38E20C20B
:10182000A24017828B7011127A910D816CD90AA88F
:1018300061E108C7586607615143061E4B5D05C14B
:1018400045A7041A411104093D9803713931034039
:1018500036DB0265339102D4305402802E1D0263C0
:101860002CEE01752AC501B028A001102781018F37
:101870002564012B244B01E0223401AC211F018D92
:10188000200D01801FFC00841EED00971DDF00B8B5
:101890001CD200E61BC600201BBC00641AB200B2BA
:1018A00019A8000A19A0006A189900D117910040E0
:1018B000178B00B516840031167E00B31579003AF7
:1018C000157300C7146F0058146A00EE1366008881
:1018D00013630025135E00C7125B006C12570015DE
:1018E000125400C111510070114F0021114B00D64C
:1018F0001049008D1047004610440002104200C0FD
:101900000F4000800F3E00420F3C00060F3B00CB13
:101910000E3800930E37005C0E3500270E3400F3AE
:101920000D3200C10D3100900D3000600D2E0032DF
:101930000D2D00050D2C00D90C2B00AE0C290085B7
:101940000C29005C0C2700350C27000E0C2600E843
:101950000B2400C40B2400A00B23007D0B23005A92
:101960000B2100390B2100180B2000F80A1F00D9A9
:101970000A1E00BB0A1E009D0A1D00800A1D00638E
:101980000A1C00470A1B002C0A1B00110A1A00F748
:10199000091A00DD091900C4091900AB09190092E0
:1019A0000917007B091800630917004C0916003657
:1019B000091600200916000A091500F5081500E0AF
:1019C000081400CC081400B8081400A408140090EF
:1019D0000813007D0812006B081300580812004617
:1019E0000812003408110023081100120811000128
:1019F000081100F0071000E0071000D0071000C029
:101A0000071000B0070F00A107100091070E008318
:101A1000070F0074070F0065070E0057070E0049F7
:101A2000070E003B070D002E070E0020070D0013C8
:101A3000070D0006070D00F9060C00ED060D00E08D
:101A4000060C00D4060C00C8060C00BC060C00B046
:101A5000060C00A4060B0099060C008D060B0082F4
:101A6000060B0077060B006C060B0061060A005798
:101A7000060B004C060A0042060A0038060A002E31
:101A8000060A0024060A001A060A001006090007C2
:101A9000060A00FD050900F4050900EB050900E24E
:101AA000050900D9050900D0050900C7050900BED0
:101AB000050900B5050800AD050800A50509009C4D
:101AC000050800940508008C050800840508007CC2
:101AD000050800740508006C050700650508005D31
:101AE000050700560508004E05070047050700409A
:101AF00005080038050700310507002A05070023FF
:101B00000507001C050600160507000F050700085D
:101B100005060002050700FB040600F5040700EEB9
:101B2000040600E8040600E2040700DB040600D512
:101B3000040600CF040600C9040600C3040600BD65
:101B4000040600B7040600B1040500AC040600A6B4
:101B5000040600A00405009B0406009504050090FF
:101B60000406008A04050085040500800406007A46
:101B700004050075040500700405006B040500668B
:101B8000040500610405005C0405005704050052CB
:101B90000405004D04050048040500430405003E0B
:101BA0000404003A04050035040500300404002C48
:101BB00004050027040400230405001E0404001A81
:101BC00004040016040500110404000D04040009B7
:101BD0000405000404040000040400FC030400F8ED
:101BE000030400F4030400F0030400EC030400E821
:101BF000030400E4030400E0030400DC030400D851
:101C0000030400D4030400D0030400CC030400C880
:101C1000030300C503030070012C0190012701B0EC
:101C2000012201C0011D01F0011801100213013051
:101C3000020E016002090190020401C002FF0000CF
:101C400003FA004003F5008003F000D003EB00200E
:101C500004E6007004E100E004DC004005D700C0A9
:101C600005D2004006CD00D006C8008007C3003072
:101C700008BE00F008B900C009B400B00AAF00B057
:101C80000BAA00D00CA500000EA000500F9B00C0B6
:101C90001096005012910000148C00C0158700B0FF
:101CA000178200B0197D00D01B7800001E73004021
:101CB000206E0090226900F024640040275F0090AD
:101CC000295A00E02B5500102E500020304B0010F8
:101CD000324600E033410090353C00103737007049
:101CE000383200A0392D00B03A2800A03B23006014
:101CF0003C1E00103D1900903D1400103E0F007076
:101D00003E0A00C03E0500003F0000403FFBFF8050
:101D10003FF6FFC03FF1FF5A5F6D6F76655F636FFF
:101D20006D700A003F28532920616E6420285729CE
:101D3000206D6179206E6F7420626520636F6D6223
:101D4000696E65642E0A00417869732000206D6910
:101D50006E3A00206D61783A00416363656C65728C
:101D60006174696F6E206C696D697465642E0A0018
:101D7000534C4F5700060000070100050007010003
:101D8000070600000007000500434F4D4D554E4922
:101D9000434154494F4E0044525952554E0045520A
:101DA000524F525300494E464F004543484F00455D
:101DB00072726F722077726974696E6720746F2017
:101DC000454550524F4D210A0053544F5050454401
:101DD0002E20005072696E7465722073746F70707B
:101DE00065642064756520746F206572726F72730C
:101DF0002E2046697820746865206572726F7220A3
:101E0000616E6420757365204D39393920746F20F7
:101E1000726573746172742E202854656D706572DA
:101E200061747572652069732072657365742E2004
:101E300053657420697420616674657220726573DD
:101E400074617274696E67290A004E6F2043686579
:101E5000636B73756D2077697468206C696E65209B
:101E60006E756D6265722C204C617374204C696EC6
:101E7000653A2000636865636B73756D206D6973E7
:101E80006D617463682C204C617374204C696E65BD
:101E90003A20004C696E65204E756D62657220694E
:101EA00073206E6F74204C617374204C696E6520D2
:101EB0004E756D6265722B312C204C617374204C11
:101EC000696E653A20004D313130005365726961A9
:101ED0006C20737461747573206D69736D617463C4
:101EE000680A002121204B494C4C206361757365C1
:101EF0006420627920746F6F206D75636820696E4D
:101F00006163746976652074696D65202D20637541
:101F10007272656E7420636F6D6D616E643A20003D
:101F2000627573793A2070617573656420666F72AB
:101F300020696E7075740A00627573793A20706159
:101F40007573656420666F7220757365720A00622E
:101F50007573793A2070726F63657373696E670A7F
:101F60000053544F505045442E20005072696E74F7
:101F700065722073746F7070656420647565207479
:101F80006F206572726F72732E20466978207468B4
:101F900065206572726F7220616E642075736520B2
:101FA0004D39393920746F20726573746172742EE3
:101FB000202854656D70657261747572652069734F
:101FC0002072657365742E205365742069742061D6
:101FD000667465722072657374617274696E6729C4
:101FE0000A006563686F3A004572726F723A0020AA
:101FF0004A0020204D343231204900202047323918
:1020000020493939390A006163746976650A0069C3
:102010006E00002053797374656D2076312E303157
:1020200020002020207C0A004E414E0020202E203F
:10203000202000207C004C43443A0A004353563A87
:102040000A0020666F7220003A0A0A000A4265649C
:1020500020546F706F677261706879205265706F7D
:1020600072740050726F62696E67204661696C65B8
:10207000640A0050726F62696E67204661696C6520
:102080006400205A3A200020593A2000426564201A
:10209000583A20004732384C3000446F6E652E0AA3
:1020A000003F496E76616C69642073746F7261677A
:1020B0006520736C6F742E0A3F5573652030207451
:1020C0006F20003F454550524F4D2073746F726131
:1020D0006765206E6F7420617661696C61626C6502
:1020E0002E0A00446F6E652E0A003F496E76616CC1
:1020F00069642073746F7261676520736C6F742EEE
:102100000A3F557365203020746F20003F454550CD
:10211000524F4D2073746F72616765206E6F74202B
:10212000617661696C61626C652E0A003F503420F3
:102130006973206F6E6C7920617661696C61626C85
:1021400065207768656E20616E204C43442069737A
:102150002070726573656E742E0A003F50322069DC
:1021600073206F6E6C7920617661696C61626C6559
:10217000207768656E20616E204C4344206973208F
:1021800070726573656E742E0A00292E0A0A00505B
:10219000726F62696E672061726F756E64202800CD
:1021A0004D65736820696E76616C696461746564FD
:1021B0002E2050726F62696E67206D6573682E0AFB
:1021C000004D657368207A65726F65642E0A00445D
:1021D000656661756C742073746F726167652073D6
:1021E0006C6F7420302073656C65637465642E0AAF
:1021F000004C6F6164696E6720746573745F706111
:10220000747465726E2076616C7565732E0A0A00AF
:10221000496E76616C696420746573745F70617473
:102220007465726E2076616C75652E20282D3120C4
:10223000746F2032290A0A0020696E76616C696425
:10224000617465642E0A0A004C6F636174696F6E75
:102250007300456E74697265204D65736800537430
:10226000616E6461726420446576696174696F6E41
:102270003A20004D65616E204D65736820486569A0
:102280006768743A200023206F662073616D706C5C
:1022900065733A20002E0A002F0050726F62696E3B
:1022A00067206D65736820706F696E742000496ED9
:1022B00076616C6964206D617020747970652E0A96
:1022C0000A003F284629616465206865696768746B
:1022D00020666F7220426564204C6576656C2043F1
:1022E0006F7272656374696F6E206E6F7420706CAC
:1022F00061757369626C652E0A0A003F43616E273F
:102300007420616374697661746520616E64206411
:1023100065616374697661746520617420746865B1
:102320002073616D652074696D652E0A0A00426F25
:102330007468205820262059206C6F636174696F7F
:102340006E73206D757374206265207370656369A8
:10235000666965642E0A0A003F496E76616C69649D
:1023600020677269642073697A6520284A2920737E
:1023700070656369666965642028322D39292E0AE3
:102380000A003F285029686173652076616C756585
:1023900020696E76616C69642028302D36292E0AFA
:1023A0000A003F2856296572626F7365206C657656
:1023B000656C20696D706C61757369626C6520284D
:1023C000302D34292E0A0A003F2852296570657481
:1023D0006974696F6E20636F756E7420696E7661C3
:1023E0006C69642028312B292E0A0A00841D7F1D68
:1023F0007A1D751D5D0A0062656420706C616E65F2
:10240000206E6F726D616C203D205B00436F756CB8
:1024100064206E6F7420636F6D706C657465204C02
:1024200053462100436F727265637465645F5A3D61
:10243000000A0A002F0054696C74696E67206D658C
:10244000736820706F696E7420003F4572726F72FE
:102450002070726F62696E6720706F696E742E20D3
:1024600041626F7274696E67206F70657261746922
:102470006F6E2E0A00436F727265637465645F5AF3
:102480003D0054696C74696E67206D65736820281F
:10249000332F33290A00436F727265637465645F7A
:1024A0005A3D0054696C74696E67206D65736820CD
:1024B00028322F33290A00436F7272656374656492
:1024C0005F5A3D0054696C74696E67206D6573686E
:1024D0002028312F33290A00646F6E650A00496E87
:1024E00073756666696369656E7420646174610AF8
:1024F0000000002041000066420000D24200801827
:10250000430000484300807743008093430000204D
:1025100041000066420000D242008018430000489B
:102520004300807743008093434578747261706FF5
:102530006C6174696E67206D6573682E2E2E0021A4
:10254000212053544F502063616C6C656420626598
:102550006361757365206F6620424C546F756368C4
:10256000206572726F72202D2072657374617274AF
:102570002077697468204D3939390A0021212053A8
:10258000544F502063616C6C6564206265636175B3
:102590007365206F6620424C546F756368206572C6
:1025A000726F72202D207265737461727420776966
:1025B0007468204D3939390A002F2F616374696FAF
:1025C0006E3A006E6F74696669636174696F6E203C
:1025D00000656E6400486F74656E6420746F6F20D0
:1025E000636F6C640A007061757365640050617597
:1025F000736500726573756D6564004469736D6918
:10260000737300526573756D696E67005761697405
:10261000696E6720666F72206865617475702E0A36
:10262000004C656176696E6720473236003F537013
:102630006563696669656420582C5920636F6F7201
:1026400064696E617465206F7574206F6620626FB7
:10265000756E64732E0A003F285229657065617497
:102660002076616C7565206E6F7420706C61757377
:1026700069626C653B206D757374206265206174BE
:10268000206C6561737420312E0A003F2852296541
:1026900070656174206D7573742062652073706558
:1026A000636966696564207768656E206E6F742063
:1026B0007573696E6720616E204C43442E0A003F9B
:1026C000537065636966696564206E6F7A7A6C65BC
:1026D0002074656D7065726174757265206E6F74BB
:1026E00020706C61757369626C652E0A003F5370CF
:1026F000656369666965642066696C616D656E74A1
:102700002073697A65206E6F7420706C61757369CF
:10271000626C652E0A003F53706563696669656483
:10272000207072696D65206C656E677468206E6FCD
:102730007420706C61757369626C652E0A003F507D
:1027400072696D65206C656E677468206D75737451
:1027500020626520737065636966696564207768C7
:10276000656E206E6F74207573696E6720616E20D0
:102770004C43442E0A003F53706563696669656483
:10278000206E6F7A7A6C652073697A65206E6F743B
:1027900020706C61757369626C652E0A003F52652A
:1027A0007472616374696F6E204D756C7469706CBE
:1027B000696572206D75737420626520737065633E
:1027C00069666965642E0A003F53706563696669CE
:1027D00065642052657472616374696F6E204D7513
:1027E0006C7469706C696572206E6F7420706C61B6
:1027F000757369626C652E0A003F53706563696684
:10280000696564206C6179657220686569676874C0
:10281000206E6F7420706C61757369626C652E0A2E
:102820000043292E0A003F53706563696669656439
:10283000206265642074656D70657261747572657F
:10284000206E6F7420706C61757369626C652028EE
:1028500034302D00473236207374617274696E67AC
:102860002E2E2E0A004F46460A0046616465204817
:1028700065696768742000426564204C6576656C04
:10288000696E6720004661696C656420746F20651D
:102890006E61626C6520426564204C6576656C698A
:1028A0006E670A00496E76616C6964206D657368B5
:1028B0002E0A0076616C69640A53746F72616765F1
:1028C00020736C6F743A2000696E004D6573682048
:1028D000697320003F557365203020746F20003FDE
:1028E000496E76616C69642073746F7261676520EC
:1028F000736C6F742E0A003F454550524F4D207344
:10290000746F72616765206E6F7420617661696CA7
:1029100061626C652E0A00416363757261637920A0
:1029200044656372656173696E6721004465637213
:10293000656173696E6720416363757261637920B5
:1029400044657465637465642E0A00473238004735
:1029500032385A0041636375726163793A2000200E
:102960006F66200044696420004733342061626F41
:10297000727465642E0A0041636375726163792025
:1029800041636869657665640054617267657420A7
:1029900061636375726163792061636869657665F7
:1029A000642E0A000A5A322D5A313D0050726F626D
:1029B000696E67204661696C65640050726F626978
:1029C0006E67206661696C65640A000A47333420CB
:1029D000497465726174696F6E3A20003F2841291D
:1029E0006D706C696669636174696F6E206F757470
:1029F000206F6620626F756E64732028302E352D2F
:102A0000322E30292E0A003F2854296172676574DE
:102A1000206163637572616379206F7574206F66DE
:102A200020626F756E64732028302E30312D312E68
:102A300030292E0A003F2849297465726174696F34
:102A40006E206F7574206F6620626F756E647320E0
:102A500028312D3330292E0A0046696E6973686566
:102A600064210A003A207A3A2000206F662000474D
:102A70006F696E6720746F3A20580043570A002030
:102A80006469723A0020616E676C653A0053746144
:102A90007274207261646975733A00506F7369745F
:102AA000696F6E696E67207468652070726F626509
:102AB0002E2E2E0A003F4C656773206F66206D6FC7
:102AC00076656D656E7420696D706C617573696291
:102AD0006C652028302D3135292E0A003F202858DA
:102AE0002C5929206F7574206F6620626F756E6493
:102AF000732E0A0050726F6265206F7574206F66C6
:102B000020626F756E6473003F53616D706C652059
:102B100073697A65206E6F7420706C617573696279
:102B20006C652028342D3530292E0A004D3438208C
:102B30005A2D50726F6265205265706561746162D2
:102B4000696C69747920546573740A003F285629AA
:102B50006572626F7365206C6576656C20696D7057
:102B60006C61757369626C652028302D34292E0ADA
:102B7000005374616E6461726420446576696174A7
:102B8000696F6E3A20002052616E67653A2000201E
:102B90004D61783A2000204D696E3A20002053693B
:102BA000676D613A20004D65616E3A200020496EE4
:102BB00076616C6964206578747275646572200052
:102BC00047322F47332062616420706172616D6506
:102BD000746572730A00536C6565702E2E2E005A50
:102BE0002050726F62652050617374204265640AE0
:102BF000005A2050726F62652050617374204265E4
:102C00006400205A3A200020593A2000426564208E
:102C1000583A20004D65736820706F696E74206F9C
:102C20007574206F662072616E67650A004D3020F2
:102C300053746F70004D312053746F70004E6F20CD
:102C40004D6F76652E002569730025696D20256915
:102C500073002569682025696D2025697300256941
:102C600064202569682025696D2025697300256920
:102C70007920256964202569682025696D202569EA
:102C800073006E6F74696669636174696F6E2000AA
:102C90005072696E742074696D653A20006F6B0024
:102CA0006F666600AA1DA51D9E1D971D891D4445C2
:102CB0004255473A004D3131332053004172746917
:102CC0006C6C657279205369646577696E646572AE
:102CD000205831204F46462E002F2F002052004111
:102CE0006363656C65726174696F6E3A205000575A
:102CF00041524E494E4721204C6F77205A204A6559
:102D0000726B206D6179206C65616420746F207531
:102D10006E77616E746564207061757365732E0AD9
:102D2000004D3230362058004F4646004F4E0020AE
:102D3000204D61783A2000200020204D696E3A2015
:102D400000536F667420656E6473746F70733A20FD
:102D50000046523A0020466C6F773A20003A200035
:102D600020536572766F2000206F7574206F662087
:102D700072616E67650A00536572766F200050724B
:102D80006F6265204F6666736574205A0050726FDB
:102D90006265204F6666736574205A0020643A00AD
:102DA00020693A0020703A00496E76616C696420AF
:102DB00065787472756465720A0020643A0020694F
:102DC0003A0020703A0064697300656E0043290A76
:102DD0000061626C656420286D696E2074656D7099
:102DE0002000436F6C64206578747275646573208D
:102DF00061726520004D65736820706F696E742084
:102E00006F7574206F662072616E67650A004D34BD
:102E1000323120696E636F72726563742070617203
:102E2000616D657465722075736167650A004F6630
:102E30006673657473204170706C69656400546FCB
:102E40006F206661722066726F6D207265666572B2
:102E5000656E636520706F696E740A004545505257
:102E60004F4D204F4B0A002E0A002028302D3130C4
:102E700029002076616C7565206F7574206F66205F
:102E800072616E676500416476616E6365204B3DDB
:102E9000003F285929206F7574206F6620626F7576
:102EA0006E64732E0A003F285829206F7574206FB6
:102EB0006620626F756E64732E0A003F28532920C6
:102EC00050726F62652D706F736974696F6E2069DF
:102ED0006E64657820696E76616C69642E0A003FC5
:102EE0002853292069732072657175697265642E93
:102EF0000A004D3432322053006F6B00446966661D
:102F00003A2020200046726F6D5374703A0053745B
:102F100065707065723A00556E4C6576656C3A0066
:102F20004C6576656C65643A005261773A202020E2
:102F300020000A4C6F676963616C3A00436F756EDD
:102F40007420453A004361703A007D002C7A3A00C3
:102F50002C793A007D2C6D61783A7B783A002C7A96
:102F60003A002C793A007D7D2C776F726B3A7B6D3D
:102F7000696E3A7B783A002C7A3A002C793A007DD7
:102F80002C6D61783A7B783A002C7A3A002C793AA9
:102F900000617265613A7B66756C6C3A7B6D696E37
:102FA0003A7B783A004D4541545041434B00434FE2
:102FB0004F4C45525F54454D504552415455524532
:102FC000004348414D4245525F54454D50455241A2
:102FD0005455524500424142595354455050494E70
:102FE000470041524353004D4F54494F4E5F4D4FA0
:102FF00044455300544845524D414C5F50524F5444
:10300000454354494F4E004C4F4E475F46494C454F
:103010004E414D45004155544F5245504F52545F1B
:1030200053445F5354415455530053445F575249DE
:103030005445005245504541540053444341524485
:103040000050524F4D50545F535550504F52540002
:10305000484F53545F414354494F4E5F434F4D4D8A
:10306000414E445300454D455247454E43595F50EC
:10307000415253455200434153455F4C49474854E0
:103080005F4252494748544E45535300544F4747B7
:103090004C455F4C494748545300534F46545741A1
:1030A00052455F504F574552004255494C445F507E
:1030B000455243454E54004C4556454C494E475F9A
:1030C00044415441005A5F50524F42450052554EC0
:1030D0004F5554004155544F4C4556454C005052A5
:1030E000494E545F4A4F420050524F475245535346
:1030F000004155544F5245504F52545F54454D5026
:10310000004155544F5245504F52545F504F530059
:10311000564F4C554D455452494300454550524F2A
:103120004D0042494E4152595F46494C455F545209
:10313000414E534645520053455249414C5F584F0A
:103140004E5F584F4646004649524D574152455FE3
:103150004E414D453A4D61726C696E20322E302ED3
:10316000392E31202D20444947412D546563682074
:1031700041535758312076312E3020284A756C2023
:10318000203520323032312031313A33313A35383E
:103190002920534F555243455F434F44455F555295
:1031A0004C3A6769746875622E636F6D2F4D61725A
:1031B0006C696E4669726D776172652F4D61726CD4
:1031C000696E2050524F544F434F4C5F56455253F7
:1031D000494F4E3A312E30204D414348494E455FCC
:1031E000545950453A417274696C6C657279205338
:1031F00069646577696E646572205831204558545A
:1032000052554445525F434F554E543A312055551F
:1032100049443A63656465326132662D3431613206
:103220002D343734382D396231322D6335356336DC
:10323000326633363766660A00290A0020746F202A
:10324000003F5A206F7574206F662072616E67654B
:10325000202800290A0020746F20003F59206F7534
:1032600074206F662072616E676520282D00290A20
:103270000020746F20003F58206F7574206F662007
:1032800072616E676520282D0050726F6265204F55
:10329000666673657420580042656420436F6F6CE6
:1032A000696E672E2E2E0042656420486561746940
:1032B0006E672E2E2E0023646566696E6520444578
:1032C0004641554C545F00626564004B6420004BDE
:1032D0006920004B702000504944204175746F7480
:1032E000756E652066696E69736865642120507526
:1032F0007420746865206C617374204B702C204BB3
:103300006920616E64204B6420636F6E7374616E1C
:1033100074732066726F6D2062656C6F7720696EC2
:10332000746F20436F6E66696775726174696F6E42
:103330002E680A00504944204175746F74756E659B
:10334000206661696C6564212074696D656F7574B0
:103350000A00504944204175746F74756E6520668B
:1033600061696C6564212054656D70657261747566
:10337000726520746F6F20686967680A00204B646B
:103380003A2000204B693A2000204B703A20002060
:10339000436C617373696320504944200A00204ED6
:1033A0006F206F76657273686F6F740A00205475B2
:1033B0003A2000204B753A2000206D61783A2000B9
:1033C000206D696E3A200020643A20002062696115
:1033D000733A2000504944204175746F74756E65CE
:1033E0002073746172740A00504944204175746FEF
:1033F00074756E65206661696C6564212054656D25
:10340000706572617475726520746F6F206869678A
:10341000680A00504944204175746F74756E6500E8
:10342000504944204175746F74756E6520666169FA
:103430006C65642120426164206865617465722056
:1034400069640A00486F6D696E67204661696C6542
:1034500064006F70656E00545249474745524544B9
:10346000003A20007A5F70726F6265007A5F6D6962
:103470006E00795F6D696E00785F6D696E005265F0
:10348000706F7274696E6720656E6473746F7020FC
:103490007374617475730A0020746F6F206C6F6EA3
:1034A0006720657874727573696F6E2070726576C7
:1034B000656E7465640A0020636F6C6420657874BF
:1034C000727573696F6E2070726576656E7465646F
:1034D0000A00486F6D6520257325732573204669A2
:1034E0007273740000000000000000000000000083
:1034F0005761726E696E673A20486F6D696E67201A
:1035000042756D702044697669736F72203C20317A
:103510000A0002020400809843008098430000C81B
:10352000430000A0400000A0400000004000809840
:1035300043008098430000C84300000000000000E2
:10354000000000000053657474696E677320537443
:103550006F72656400290A002062797465733B20EC
:10356000637263200053657474696E6773205374CB
:103570006F7265642028004D6573682073617665FD
:103580006420696E20736C6F7420003F556E616219
:103590006C6520746F2073617665206D657368209B
:1035A000646174612E0A0020736C6F743D00206D9D
:1035B00065736865735F656E643D004532454E44D2
:1035C0003D00206D65736820736C6F7473206176A5
:1035D00061696C61626C652E0A003F496E76616CB0
:1035E000696420736C6F742E0A004D657368206CDB
:1035F0006F616465642066726F6D20736C6F7420F8
:10360000003F556E61626C6520746F206C6F616461
:10361000206D65736820646174612E0A00486172D0
:1036200064636F6465642044656661756C742053DF
:10363000657474696E6773204C6F616465640A0019
:10364000556E696669656420426564204C657665DF
:103650006C696E67003B20003A0A0020204D36302E
:103660003320002055004C0046696C616D656E7416
:10367000206C6F61642F756E6C6F6164206C656E79
:10368000677468733A0020204D393030204B004C6D
:10369000696E65617220416476616E63653A0020EF
:1036A000204D3835312058005A2D50726F626520F8
:1036B0004F66667365740020440020490020204D49
:1036C00033303420500020440020490020204D3366
:1036D00030312050005049442073657474696E671E
:1036E000733A00206D65736865732E0A0A004545BC
:1036F00050524F4D2063616E20686F6C6420004112
:103700006374697665204D65736820536C6F743AF5
:10371000200020204D3432302053000020204D3234
:103720003036205800486F6D65206F66667365748B
:103730003A0020580020530020204D3230352042DE
:1037400000416476616E6365643A20423C6D696E47
:103750005F7365676D656E745F74696D655F7573C2
:103760003E20533C6D696E5F666565647261746589
:103770003E20543C6D696E5F74726176656C5F6665
:10378000656564726174653E20583C6D61785F7850
:103790005F6A65726B3E20593C6D61785F795F6A44
:1037A00065726B3E205A3C6D61785F7A5F6A657224
:1037B0006B3E20453C6D61785F655F6A65726B3E6C
:1037C0000020540020520020204D32303420500080
:1037D000416363656C65726174696F6E2028756EF4
:1037E0006974732F7332293A20503C7072696E7479
:1037F0005F616363656C3E20523C72657472616305
:10380000745F616363656C3E20543C7472617665DD
:103810006C5F616363656C3E0020204D3230312067
:1038200058004D6178696D756D20416363656C6505
:10383000726174696F6E2028756E6974732F7332AC
:10384000293A0020204D3230332058004D617869EC
:103850006D756D2066656564726174657320287589
:103860006E6974732F73293A0053746570732070F6
:10387000657220756E69743A0020440020204D3234
:1038800030302053002044697361626C65640A0023
:1038900046696C616D656E742073657474696E67DA
:1038A000733A0020286D6D290020204732312020F6
:1038B00020203B20556E69747320696E206D6D0069
:1038C0003F4D65736820746F6F2062696720666F73
:1038D0007220454550524F4D2E0A00454550524FDB
:1038E0004D206461746173697A65206572726F72CC
:1038F0002E0A00454550524F4D2056657273696F30
:103900006E204572726F7200454550524F4D2049EE
:103910006E646578204572726F7200454550524F53
:103920004D20435243204572726F720055424C2025
:1039300072657365740A00206C6F6164656420664B
:10394000726F6D2073746F726167652E0A004D652A
:1039500073682000290A002062797465733B206334
:10396000726320002073746F7265642073657474D1
:10397000696E677320726574726965766564202864
:1039800000202863616C63756C6174656429210A89
:103990000020213D2000454550524F4D20435243C9
:1039A000206D69736D61746368202D202873746FB6
:1039B0007265642920002053697A653A2000496EB7
:1039C0006465783A20000000484300004843000046
:1039D000A04100002042F43DA042F43DA04296E305
:1039E000C7430080DE43D0070000D007000064001A
:1039F000000010270000204D61726C696E3D563842
:103A000033290A00454550524F4D2076657273693F
:103A10006F6E206D69736D61746368202845455031
:103A2000524F4D3D0024F4D43050C38E20C2A240EA
:103A300017828B7011127A910D816CD90AA861E1FD
:103A400008C7586607615143061E4B5D05C145A76F
:103A5000041A411104093D9803713931034036DBE2
:103A60000265339102D4305402802E1D02632CEE85
:103A700001752AC501B028A001102781018F256496
:103A8000012B244B01E0223401AC211F018D200DBC
:103A900001801FFC00841EED00971DDF00B81CD2C2
:103AA00000E61BC600201BBC00641AB200B219A8B5
:103AB000000A19A0006A189900D117910040178BCD
:103AC00000B516840031167E00B31579003A1573DF
:103AD00000C7146F0058146A00EE13660088136361
:103AE0000025135E00C7125B006C125700151254BC
:103AF00000C111510070114F0021114B00D6104927
:103B0000008D1047004610440002104200C00F40D4
:103B100000800F3E00420F3C00060F3B00CB0E38EA
:103B200000930E37005C0E3500270E3400F30D3283
:103B300000C10D3100900D3000600D2E00320D2DB2
:103B400000050D2C00D90C2B00AE0C2900850C298A
:103B5000005C0C2700350C27000E0C2600E80B2417
:103B600000C40B2400A00B23007D0B23005A0B2163
:103B700000390B2100180B2000F80A1F00D90A1E7B
:103B800000BB0A1E009D0A1D00800A1D00630A1C5E
:103B900000470A1B002C0A1B00110A1A00F7091A19
:103BA00000DD091900C4091900AB091900920917B1
:103BB000007B091800630917004C09160036091626
:103BC00000200916000A091500F5081500E0081480
:103BD00000CC081400B8081400A4081400900813BE
:103BE000007D0812006B08130058081200460812E6
:103BF00000340811002308110012081100010811F7
:103C000000F0071000E0071000D0071000C00710F8
:103C100000B0070F00A107100091070E0083070FE7
:103C20000074070F0065070E0057070E0049070EC6
:103C3000003B070D002E070E0020070D0013070D97
:103C40000006070D00F9060C00ED060D00E0060C5D
:103C500000D4060C00C8060C00BC060C00B0060C14
:103C600000A4060B0099060C008D060B0082060BC3
:103C70000077060B006C060B0061060A0057060B66
:103C8000004C060A0042060A0038060A002E060A00
:103C90000024060A001A060A001006090007060A90
:103CA00000FD050900F4050900EB050900E205091E
:103CB00000D9050900D0050900C7050900BE05099E
:103CC00000B5050800AD050800A50509009C05081C
:103CD00000940508008C050800840508007C050890
:103CE00000740508006C050700650508005D050700
:103CF00000560508004E0507004705070040050867
:103D00000038050700310507002A050700230507CD
:103D1000001C050600160507000F0507000805062C
:103D20000002050700FB040600F5040700EE040688
:103D300000E8040600E2040700DB040600D50406E0
:103D400000CF040600C9040600C3040600BD040633
:103D500000B7040600B1040500AC040600A6040682
:103D600000A00405009B04060095040500900406CD
:103D7000008A04050085040500800406007A040515
:103D80000075040500700405006B04050066040559
:103D900000610405005C0405005704050052040599
:103DA000004D04050048040500430405003E0404DA
:103DB000003A04050035040500300404002C040515
:103DC0000027040400230405001E0404001A040450
:103DD0000016040500110404000D04040009040584
:103DE000000404040000040400FC030400F80304BD
:103DF00000F4030400F0030400EC030400E80304EF
:103E000000E4030400E0030400DC030400D803041E
:103E100000D4030400D0030400CC030400C803034F
:103E200000C503030024F404D9201BC40C5C0E98C5
:103E300004C4095F0265077101F405F900FB04B3CE
:103E40000048048700C10369005803550003034577
:103E500000BE023A008402310053022A00290225E2
:103E60000004022000E4011C00C8011900AF011782
:103E70000098011400840113007101100061011009
:103E80000051010E0043010D0036010B002B010B08
:103E90000020010B00150109000C010900030108B5
:103EA00000FB000800F3000800EB000700E4000638
:103EB00000DE000600D8000600D2000600CC000597
:103EC00000C7000500C2000500BD000400B90004E1
:103ED00000B5000400B1000400AD000400A9000416
:103EE00000A5000300A20003009F0004009B000344
:103EF0000098000300950002009300030090000367
:103F0000008D0002008B0003008800020086000282
:103F10000084000300810002007F0002007D000297
:103F2000007B0002007900020077000100760002A9
:103F3000007400020072000100710002006F0002B4
:103F4000006D0001006C0002006A000100690002BF
:103F500000670001006600010065000100640002C6
:103F6000006200010061000100600001005F0002CA
:103F7000005D0001005C0001005B0001005A0001CF
:103F800000590001005800010057000100560001CF
:103F900000550001005400010053000000530001CF
:103FA000005200010051000100500001004F0001CB
:103FB000004E0000004E0001004D0001004C0001C9
:103FC000004B0000004B0001004A000100490001C5
:103FD00000480000004800010047000100460000C2
:103FE00000460001004500000045000100440001BA
:103FF00000430000004300010042000000420001B5
:10400000004100000041000100400001003F0000AD
:10401000003F0001003E0000003E0001003D0000A6
:10402000003D0001003C0000003C0000003C00019D
:10403000003B0000003B0001003A0000003A000194
:10404000003900000039000100380000003800008D
:104050000038000100370000003700010036000082
:104060000036000000360001003500000035000079
:10407000003500010034000000340000003400016D
:104080000033000000330000003300010032000064
:104090000032000000320001003100000031000059
:1040A000003100010030000000300000003000014D
:1040B000002F0000002F0000002F0000002F000143
:1040C000002E0000002E0000002E0001002D000038
:1040D000002D0000002D0000002D0001002C00002C
:1040E000002C0000002C0000002C0001002B000020
:1040F000002B0000002B0000002B0001002A000014
:10410000002A0000002A0000002A00010029000007
:1041100000290000002900000029000000290001FA
:1041200000280000002800000028000000280000EF
:1041300000280001002700000027000000270000E1
:1041400000270000002700010026000000260000D4
:1041500000260000002600000026000100250000C7
:1041600000250000002500000025000000250000BB
:1041700000250001002400000024000000240000AD
:1041800000240000002400010023000000230000A0
:104190000023000000230000002300000023000093
:1041A0000023000100220000002200000022000085
:1041B0000022000000220000002200010021000077
:1041C000002100000021000000210000002100006B
:1041D000002100000021000100200000002000005C
:1041E000002000000020000000200000002000004F
:1041F0000020000000200001001F0000001F000040
:10420000001F0000001F0000001F0000001F000032
:10421000001F0001001E0000001E0000001E000024
:10422000001E000000C23100001C260000F419002E
:1042300000D80F0000EB080000C004000075020069
:10424000004001000020436F756E7420583A000052
:10425000626564002C2073797374656D2073746FCC
:104260007070656421204865617465725F49443AE5
:10427000200048656174696E67204661696C6564F9
:104280000048656174696E67206661696C656400E9
:104290004D3131322053687574646F776E0045720A
:1042A000723A204D415854454D50004D41585445A7
:1042B0004D5020747269676765726564004572725B
:1042C0003A204D494E54454D50004D494E54454DB0
:1042D000502074726967676572656400544845527E
:1042E0004D414C2052554E4157415900546865721A
:1042F0006D616C2052756E6177617900202F00200E
:1043000042403A0020403A0020573A0020573A00F5
:104310002053004D313036205000496E76616C6973
:10432000642065787472756465720A0070012C01EE
:1043300090012701B0012201C0011D01F001180107
:104340001002130130020E01600209019002040103
:10435000C002FF000003FA004003F5008003F000F4
:10436000D003EB002004E6007004E100E004DC0070
:104370004005D700C005D2004006CD00D006C800D9
:104380008007C3003008BE00F008B900C009B400BF
:10439000B00AAF00B00BAA00D00CA500000EA00020
:1043A000500F9B00C01096005012910000148C001A
:1043B000C0158700B0178200B0197D00D01B7800AF
:1043C000001E730040206E0090226900F0246400FB
:1043D00040275F0090295A00E02B5500102E500016
:1043E00020304B0010324600E033410090353C0055
:1043F0001037370070383200A0392D00B03A28004D
:10440000A03B2300603C1E00103D1900903D1400AD
:10441000103E0F00703E0A00C03E0500003F000045
:10442000403FFBFF803FF6FFC03FF1FF2020506C74
:10443000616E6E6572427566666572427974657307
:104440003A20002046726565204D656D6F72793A9D
:104450002000436F6D70696C65643A204A756C206A
:10446000203520323032310A00204C6173742055DF
:104470007064617465643A20323032312D30362DEB
:104480003237207C20417574686F723A2028444985
:1044900047412D546563682C20415357583120768D
:1044A000312E30290A00322E302E392E310A004D9D
:1044B00061726C696E0020536F667477617265205B
:1044C00052657365740A00205761746368646F678E
:1044D0002052657365740A002042726F776E206FF8
:1044E00075742052657365740A002045787465728E
:1044F0006E616C2052657365740A00506F77657247
:1045000055700A0073746172740A0020503A0020DA
:104510005A3A0020593A0020583A00656E64737484
:104520006F7073206869743A200000000A0B02095A
:104530000C0D0E080703040100000000000000003D
:10454000000000000000000000000000000000006B
:104550000000000000001211100000000000000028
:10456000000000000000000000000000000000004B
:10457000FFFFFF53656E64204D31303820746F208B
:10458000726573756D650A00496E73657274206695
:10459000696C616D656E7420616E642073656E6414
:1045A000204D3130380A0052656865617420446FCF
:1045B0006E6500526568656174696E672E2E2E0007
:1045C000526568656174004865617465722054695C
:1045D0006D656F75740053656E64204D3130382001
:1045E000746F2068656174206E6F7A7A6C650A005A
:1045F0004E6F7A7A6C65205061726B6564007072E0
:104600006F6D70745F0073686F7700627574746F9C
:104610006E00626567696E0050757267654D6F72F6
:10462000650050617573656400436F6E74696E75E3
:1046300065004C6F61642046696C616D656E742025
:104640005400496E736572742066696C616D656EA5
:104650007420616E642073656E64204D3130380AB9
:104660000020746F6F206C6F6E67206578747275B0
:1046700073696F6E2070726576656E7465640A008A
:1046800020636F6C6420657874727573696F6E2037
:1046900070726576656E7465640A00220A00556E54
:1046A0006B6E6F776E20636F6D6D616E643A202262
:1046B00000204500205A00205900204D3932205852
:1046C000006F6B0A00526573656E643A200000004B
:1046D0002200250028002B002E00310034000201AA
:1046E0000000050108010B01000021002400270043
:1046F0002A002D00300033000101000004010701F1
:104700000A01050505050705080808080202020256
:104710000A0A08080404040401010101010101015D
:104720000303030303030303040707070C0C0C0C28
:104730000C0C0C0C02020202060606060606060611
:104740000B0B0B0B0B0B0B0B01021020200808109E
:1047500020401020408002010201080402010102F1
:1047600004081020408080402010080402018004CA
:104770000201804020100804020108040201010225
:1047800004081020408001020408102040802045C9
:104790003A00205A3A0020593A00583A00706F7790
:1047A00065726F6666005072696E7465722068612A
:1047B0006C7465642E206B696C6C28292063616CB5
:1047C0006C6564210A0038F211241FBECFEFD1E2DC
:1047D000DEBFCDBF00E00CBF13E0A0E0B2E0E6EE2C
:1047E000FDE002E00BBF02C007900D92A636B107B4
:1047F000D9F724E1A6E6B3E001C01D92AD31B207BE
:10480000E1F713E2C4EED3E200E006C0219701090C
:10481000802FFE010F94BA02C33ED10780E0080743
:10482000A9F70E94F8F20D94F1060C940000AF92E3
:10483000BF92CF92DF92EF92FF920F931F93CF938D
:10484000DF93CFE3D1E100EE1BE08FE4A82E81E1FE
:10485000B82EC12CD12C7601C3946991799189919C
:1048600099910E9417FC288939894A895B890E949D
:1048700078FC0F940C04F8016193719381939193E8
:104880008F01C616D706E806F90610F46B017C0105
:10489000AC16BD0611F76FEF7FEFCB01A7019601B4
:1048A0000F943D022093F00B3093F10B4093F20BE9
:1048B0005093F30BDF91CF911F910F91FF90EF90E9
:1048C000DF90CF90BF90AF900895CF92DF92EF929C
:1048D000FF9280911C05882309F457C0C0901805E9
:1048E000D0901905E0901A05F0901B0520E030E00B
:1048F000A901C701B6010E9413FC882309F445C031
:1049000020E030E040E05FE3C701B6010E9478FCA0
:104910009B01AC010E9478FC2BED3FE049E450E4A0
:104920000E9478FC9B01AC0160E070E080E89FE3AE
:104930000F949F036B017C01C0923504D092360422
:10494000E0923704F092380460911B0270911C02CF
:10495000072E000C880B990B0E9419FC2AE037EDFA
:1049600043E25CE30E9478FCA70196010E9478FC78
:1049700060935A0270935B0280935C0290935D0295
:10498000FF90EF90DF90CF900895C12CD12C80E85C
:10499000E82E8FE3F82ED0CF0F931F93E62FDC0184
:1049A000FC910F2F10E030E020E0062E04C0369579
:1049B0002795179507950A94D2F700FF1CC0009120
:1049C000280410E030E020E004C0369527951795C4
:1049D00007956A95D2F700FF0EC041E050E060E015
:1049E00070E004C0440F551F661F771FEA95D2F789
:1049F00040954F234C931F910F910895CF93DF93D0
:104A000024E0829FC0011124EC01C058DD4EFC015E
:104A1000EE55FA4F875D9B4FDC012D913D914D91F5
:104A20005C9160817181828193810F94C30268835C
:104A300079838A839B83DF91CF910895CF93DF930E
:104A40001F92CDB7DEB7898360E0CE010196A4DF67
:104A500061E0CE010196A0DF62E0CE0101969CDF0D
:104A600089810F90DF91CF910895809123049091D7
:104A70002404A0912504B0912604809356029093BB
:104A80005702A0935802B09359028091210490914B
:104A90002204909355028093540208958091560207
:104AA00090915702A0915802B0915902809323042B
:104AB00090932404A0932504B0932604809154027B
:104AC00090915502909322048093210484E690E013
:104AD000909355028093540208954F925F926F9283
:104AE0007F928F929F92AF92BF92CF92DF92EF927E
:104AF000FF92CF93DF93CDB7DEB76E970FB6F894E2
:104B0000DEBF0FBECDBF9E8F8D8FFC01C4A8D5A880
:104B1000E6A8F7A820E030E0A901C701B6010E948D
:104B200013FC882309F497C1A701960160E070E0A7
:104B300080E89FE30F949F036B017C01ED8DFE8D58
:104B400020813181428153810E9478FC6D837E8374
:104B50008F839887ED8DFE8D248135814681578125
:104B6000C701B6010E9478FC2B013C01ED8DFE8D42
:104B70002485358546855785C701B6010E9478FC96
:104B80004B015C012D813E814F815885CA01B901DD
:104B90000E9478FC9B01AC01C501B4010F94C202D4
:104BA000698B7A8B8B8B9C8BED8DFE8D2089318967
:104BB00042895389C701B6010E9478FC4B015C0110
:104BC000A3019201C301B2010E9478FC9B01AC01D8
:104BD000C501B4010F94C2026D8B7E8B8F8B988FB1
:104BE000ED8DFE8D2489358946895789C701B60127
:104BF0000E9478FC4B015C01A30192016D817E81D2
:104C00008F8198850E9478FC9B01AC01C501B4019D
:104C10000F94C20269837A838B839C832D893E899A
:104C20004F89588D69897A898B899C890E9478FC83
:104C30004B015C0129813A814B815C81CA01B90138
:104C40000E9478FC9B01AC01C501B4010F94C20223
:104C500069877A878B879C8720E030E0A9010F94D1
:104C6000E90489849A84AB84BC8487FF04C0B7FAC2
:104C7000B094B7F8B094ED8DFE8D24A135A146A176
:104C800057A160A171A182A193A10F94C3022FEF3C
:104C900036EE4BED5EE20E9478FCA50194010F9484
:104CA000E90487FFD8C0ED8DFE8D208531854285D2
:104CB0005385C701B6010E9478FC6D877E878F8778
:104CC000988BED8DFE8D248D358D468D578DC701CA
:104CD000B6010E9478FC4B015C012D853E854F8515
:104CE0005889C301B2010E9478FC9B01AC01C50147
:104CF000B4010F94C2024B015C01ED8DFE8D208D3D
:104D0000318D428D538DC701B6010E9478FC6B0135
:104D10007C012D853E854F8558896D817E818F81EF
:104D200098850E9478FC9B01AC01C701B6010F94E5
:104D3000C202698F7A8F8B8F9C8FA5019401698144
:104D40007A818B819C810E9478FC6B017C01298D8A
:104D50003A8D4B8D5C8D6D897E898F89988D0E94EF
:104D600078FC9B01AC01C701B6010F94C2022985F2
:104D70003A854B855C850F949F036B017C01ED8D1B
:104D8000FE8DC0A6D1A6E2A6F3A6298D3A8D4B8D45
:104D90005C8D69817A818B819C810E9478FC69831A
:104DA0007A838B839C83A501940169897A898B8995
:104DB0009C890E9478FC9B01AC0169817A818B817E
:104DC0009C810F94C20229853A854B855C850F949E
:104DD0009F034B015C01ED8DFE8D84A695A6A6A6D2
:104DE000B7A62D813E814F815885C701B6010E942B
:104DF00078FC2D853E854F8558890F94C3026B0141
:104E00007C01A3019201C501B4010E9478FC9B01C1
:104E1000AC01C701B6010F94C3029058ED8DFE8D11
:104E200060AB71AB82AB93AB90E080E06E960FB657
:104E3000F894DEBF0FBECDBFDF91CF91FF90EF9012
:104E4000DF90CF90BF90AF909F908F907F906F90AA
:104E50005F904F90089581E090E0E8CF90E080E08F
:104E60000895282F9091E303833021F495FD0FC01E
:104E700094FD0FC0892F90E0B0E0A0E004C0B6958B
:104E8000A795979587952A95D2F78170089581E027
:104E9000089580E00895FC01659175918591949144
:104EA00008958F929F92AF92BF92CF92DF92EF922E
:104EB000FF92CF93DF93EC0180900A0590900B0551
:104EC000A0900C05B0900D0520E030E0A901C501CF
:104ED000B4010E9413FC882309F454C0C880D9800F
:104EE000EA80FB80A7019601C501B4010E9413FC72
:104EF00018160CF04CC02091B1033091B2034091D0
:104F0000B3035091B403C701B6010E9413FC882378
:104F100031F1C092B103D092B203E092B303F092A8
:104F2000B4032091AD033091AE034091AF03509193
:104F3000B003688179818A819B810E9478FC9B0102
:104F4000AC0160E070E080E89FE30F94C2026093E0
:104F50000002709301028093020290930302609119
:104F60000002709101028091020290910302DF9190
:104F7000CF91FF90EF90DF90CF90BF90AF909F9038
:104F80008F90089560E070E080E89FE3F0CF60E0EC
:104F900070E0CB01ECCF840F911DFC01808190E08B
:104FA000B0E0A0E004C0B695A795979587956A955F
:104FB000D2F781700895FC0120812617170611F0A1
:104FC0000CF0608308954F925F926F927F928F9260
:104FD0009F92AF92BF92CF92DF92EF92FF920F9388
:104FE0001F93CF93DF93C82F062F542E622EE62EE9
:104FF000F12C37E0732EC82ED12CF701789EE00DEE
:10500000F11D1124EE0FFF1FEE0FFF1FEA5BFB4F98
:1050100060817181828193819B01AC010F94C505F0
:10502000882309F47AC0C50D0C2E000CDD0B060D8B
:10503000002E000C110B7C9EF0017D9EF00D1124C2
:10504000E00FF11FEE0FFF1FEE0FFF1FEA5BFB4F9C
:1050500080809180A280B380A5019401C501B40134
:105060000F94C505811159C0C50DD11D57FCDA95A6
:105070007C9EF0017D9EF00D1124060D111D67FC34
:105080001A95E00FF11FEE0FFF1FEE0FFF1FEA5BF7
:10509000FB4F4080518062807380A3019201C30165
:1050A000B2010F94C505811138C0A3019201C50159
:1050B000B4010E9413FC87FD0CC0A5019401C50139
:1050C000B4010F94C302A30192010F94C2024B01D9
:1050D0005C0187E08C9DF0018D9DF00D1124EE0D9B
:1050E000FF1DEE0FFF1FEE0FFF1FEA5BFB4F8082DD
:1050F0009182A282B38281E0DF91CF911F910F91C3
:10510000FF90EF90DF90CF90BF90AF909F908F90E7
:105110007F906F905F904F90089580E0EDCF8F92D9
:105120009F92AF92BF92CF92DF92EF92FF920F9336
:105130001F93CF93DF938CEEE82E83E2F82E94EF4B
:10514000C92E93E2D92EF70185919491FC01A49088
:105150003296B4903197C491329604910496FC0132
:1051600084918823F1F088248A94AC1614F488245E
:105170008394002E000C110B0C2E000CDD0BB016CE
:10518000110669F19A2C9C161D0649F020E0482D65
:105190006B2D892D18DF811102C0980CF4CFB394C8
:1051A000EECF88248A94B01614F4882483940C2EAD
:1051B000000CDD0B002E000C110BAC161D0679F057
:1051C0009B2C9016110649F0282D40E0692D8A2D60
:1051D000FADE811102C0980CF4CFA394EECFF2E076
:1051E000EF0EF11CCE14DF0409F0ADCFDF91CF91AB
:1051F0001F910F91FF90EF90DF90CF90BF90AF90F5
:105200009F908F9008954F925F926F927F928F92AE
:105210009F92AF92BF92CF92DF92EF92FF920F9345
:105220001F93CF93DF9340909E0350909F03609015
:10523000A0037090A10306E414E0C7E07801D7E072
:10524000F70181909190A190B1907F01A501940107
:10525000C501B4010F94C50581110FC06701F4E0C9
:10526000CF1AD108A5019401C301B2010F94C30262
:10527000F6016083718382839383D15009F7C15013
:10528000045E1F4FC111DACFDF91CF911F910F91B3
:10529000FF90EF90DF90CF90BF90AF909F908F9056
:1052A0007F906F905F904F9008958F929F92AF92F2
:1052B000BF92CF92DF92EF92FF920F931F93CF9303
:1052C000DF93EC017B018A016901FB0120813181BF
:1052D00042815381688179818A819B810F94C302C5
:1052E000688379838A839B83F8012081318142819D
:1052F00053816C817D818E819F810F94C3026C8369
:105300007D838E839F83F601208131814281538189
:10531000688579858A859B850F94C302688779871C
:105320008A879B87F70160817181828193819B01CC
:10533000AC010E9478FC9B01AC016C857D858E855B
:105340009F850F94C3026C877D878E879F87F801A6
:1053500060817181828193819B01AC010E9478FC04
:105360009B01AC01688979898A899B890F94C30262
:10537000688B798B8A8B9B8BF801208131814281EC
:105380005381F70160817181828193810E9478FC51
:105390009B01AC016C897D898E899F890F94C30222
:1053A0006C8B7D8B8E8B9F8BF601208131814281AE
:1053B0005381F70160817181828193810E9478FC21
:1053C0009B01AC01688D798D8A8D9B8D0F94C302F2
:1053D000688F798F8A8F9B8FF6012081318142817E
:1053E0005381F80160817181828193810E9478FCF0
:1053F0009B01AC016C8D7D8D8E8D9F8D0F94C302B2
:105400006C8F7D8F8E8F9F8F88A099A0AAA0BBA044
:10541000F701C080D180E280F38020E030E0A90174
:10542000C701B6010F94E90487FF04C0F7FAF094AE
:10543000F7F8F094A7019601B401C5010E9413FC8E
:1054400087FD02C064017501C8A2D9A2EAA2FBA22D
:105450008CA09DA0AEA0BFA0F801C080D180E2804A
:10546000F38020E030E0A901C701B6010F94E90400
:1054700087FF04C0F7FAF094F7F8F094A7019601BB
:10548000B401C5010E9413FC87FD02C064017501CF
:10549000CCA2DDA2EEA2FFA220E030E040E85FE374
:1054A0006CA97DA98EA99FA90F94C3026CAB7DAB9B
:1054B0008EAB9FABDF91CF911F910F91FF90EF903B
:1054C000DF90CF90BF90AF909F908F9008952FEB7B
:1054D000280F2A3108F047C0E22FF0E08091030442
:1054E00090910404A0910504B091060404C0B695FF
:1054F000A795979587952A95D2F780FD02C0817070
:105500000895EC51FC4FE081EE2341F180913D1173
:1055100090913E11E80FF92FF11D808190ED980FC9
:105520009A3030F08E3251F4818180538A3098F471
:10553000F093E003E093DF0381E008958D3211F0F2
:105540008B3249F4818190ED980F9A3088F38E3236
:1055500011F48281EACFF0E0E0E0EACF1092E003BC
:105560001092DF03E9CF80E00895B1DF882341F096
:1055700081E02091DF033091E003232B09F480E0E8
:105580000895CF92DF92EF92FF92E091EC12F091AA
:10559000ED1220E030E0A901648175818681978158
:1055A0000F94C3026B017C0120E030E040E251E443
:1055B0000E9413FC87FF06C0C12CD12C80E2E82E8C
:1055C00081E4F82EC701B601FF90EF90DF90CF90F5
:1055D0000895CF92DF92EF92FF92E091EC12F0915A
:1055E000ED1220E030E848E953E460817181828166
:1055F00093810F94C3026B017C0120E030E843E902
:1056000053E40F94E90418163CF4C12C80E8D82E1A
:1056100083E9E82E83E4F82EC701B601FF90EF90EE
:10562000DF90CF900895CF92DF92EF92FF92E091BA
:10563000EC12F091ED1220E030E0A901608171815F
:10564000828193810F94C3026B017C0120E030E0E2
:1056500040E251E40E9413FC87FF06C0C12CD12C0C
:1056600080E2E82E81E4F82EC701B601FF90EF90AA
:10567000DF90CF90089508954F925F926F927F923E
:105680008F929F92AF92BF92CF92DF92EF92FF9252
:10569000CF93DF9300D000D0CDB7DEB73C01DB0164
:1056A000CD90DD90ED90FC90E091EC12F091ED1238
:1056B000FE83ED8384819581A681B78189839A8356
:1056C000AB83BC839C01AD01C701B6010F94C2023C
:1056D0004B015C0127E137EB41ED58EB0F94E904F6
:1056E00087FD8AC023E030E848E953E4C501B401EE
:1056F0000E9413FC18160CF47FC0F3018080918087
:10570000A280B380AD81BE812D913D914D915C9180
:10571000C501B4010F94C2022B013C0127E137EB14
:1057200041ED58EB0F94E90487FD66C023E030E8B3
:1057300048E953E4C301B2010E9413FC18160CF4AB
:105740005BC071DF27E137EB41ED58E30F94C202F4
:105750009B01AC01C501B4010F94E90487FD4CC065
:1057600038DF27E137EB41ED58E30F94C3029B018B
:10577000AC01C501B4010E9413FC18160CF43CC026
:1057800000DF27E137EB41ED58E30F94C2029B01A4
:10579000AC01C701B6010F94E90487FD2DC020E0DC
:1057A00030E848E953E469817A818B819C810F94C8
:1057B000C3024B015C0120E030E843E953E40F945D
:1057C000E90418163CF4812C80E8982E83E9A82E71
:1057D00083E4B82E27E137EB41ED58E3C501B4016E
:1057E0000F94C3029B01AC01B1E0B983C701B601BC
:1057F0000E9413FC18160CF41982898126960FB6A4
:10580000F894DEBF0FBECDBFDF91CF91FF90EF9038
:10581000DF90CF90BF90AF909F908F907F906F90D0
:105820005F904F900895BC016C5F7F4F25CF2FEFA5
:10583000FC01208321830895682F70E08730A0F455
:10584000660F771F660F771FFB01EF50FB4D4591E9
:10585000559165917491F42FE52F362F272F6F2FD7
:105860007E2F832F922F0895072E000C880B990B03
:105870000E9419FC20E030E04EE352E40E9478FCE4
:1058800020E030E040E251E40F94C302F62FE72F0E
:10589000382F292FE4CF8F929F92AF92BF92CF9251
:1058A000DF92EF92FF920F931F93CF93DF938B01C1
:1058B000EA01FC01C080D180E280F380842FBCDF4C
:1058C0009B01AC01C701B6010F94C20222E936E781
:1058D0004CEA5CE30E9478FC4B015C0187E0809F0E
:1058E000F001819FF00D1124EC0FFD1FEE0FFF1F43
:1058F000EE0FFF1FEA5BFB4FC080D180E280F38098
:10590000C530D10514F0C5E0D0E087E0809FF001FC
:10591000819FF00D11242196EC0FFD1FEE0FFF1F4C
:10592000EE0FFF1FEA5BFB4FA701960160817181BB
:10593000828193810F94C202A50194010E9478FC98
:10594000A70196010F94C302DF91CF911F910F9190
:10595000FF90EF90DF90CF90BF90AF909F908F908F
:105960000895682F70E08730A0F4660F771F660FE8
:10597000771FFB01E35FFA4D459155916591749155
:10598000F42FE52F362F272F6F2F7E2F832F922F67
:105990000895072E000C880B990B0E9419FC20E03B
:1059A00030E04EE352E40E9478FC20E030E040E238
:1059B00051E40F94C302F62FE72F382F292FE4CF9D
:1059C0008F929F92AF92BF92CF92DF92EF92FF920F
:1059D0000F931F93CF93DF93EB018A01FC01C080EB
:1059E000D180E280F380862FBCDF9B01AC01C70130
:1059F000B6010F94C20222E936E74CEA5CE30E944A
:105A000078FC4B015C0187E08C9FF0018D9FF00DCD
:105A10001124E00FF11FEE0FFF1FEE0FFF1FEA5BD7
:105A2000FB4FC080D180E280F380C530D10514F0F7
:105A3000C5E0D0E0219687E08C9FF0018D9FF00DAE
:105A40001124E00FF11FEE0FFF1FEE0FFF1FEA5BA7
:105A5000FB4FA701960160817181828193810F9430
:105A6000C202A50194010E9478FCA70196010F943F
:105A7000C302DF91CF911F910F91FF90EF90DF90C4
:105A8000CF90BF90AF909F908F9008950F931F93EA
:105A9000CF93DF9300D000D01F921F92CDB7DEB717
:105AA0008C01FC0180815DDF69837A838B839C8319
:105AB000F8018181C1DEE62F462F572FBC014D83AF
:105AC0005E836F83788729813A814B815C816E2F59
:105AD0007E818F81988528960FB6F894DEBF0FBE21
