:100000000C94C3100C94F4100C94F4100C94F41091
:100010000C94F4100C94F4100C94F4100C94F41050
:100020000C94F4100C94F4100C94F4100C94F41040
:100030000C94F4100C94F4100C94F4100C94F41030
:100040000C94F4100C9460950C94F4100C94F4102F
:100050000C94F4100C94F4100C94568C0C94B38AF9
:100060000C94F4100C94D6950C94A0950C94F41068
:100070000C94F4100C94F4100C94F4100C94F410F0
:100080000C94F4100C94F4100C94F4100C94F410E0
:100090000C94F4100C94F4100C94F4100C94F410D0
:1000A0000C94F4100C94F4100C94F4100C94F410C0
:1000B0000C94F4100C94F4100C94F4100C94F410B0
:1000C0000C94F4100C94F4100C94F4100C94F410A0
:1000D0000C94F4100C94F4100C94F4100C94F41090
:1000E0000C94F410084AD73B3BCE016E84BCBFFD94
:1000F000C12F3D6C74319ABD56833DDA3D00C77FF8
:1001000011BED9E4BB4C3E916BAAAABE0000008090
:100110003F05A84CCDB2D44EB93836A9020C50B91F
:10012000918688083CA6AAAA2ABE000000803F004B
:100130004E414E494E495459494E46CDCCCC3D0ACC
:10014000D7233C17B7D13877CC2B329595E6241FAF
:10015000B14F0A000020410000C84200401C462068
:10016000BCBE4CCA1B0E5AAEC59D7400407A10F33B
:100170005A00A0724E18090010A5D4E80000E876D5
:1001800048170000E40B54020000CA9A3B0000002C
:10019000E1F505000080969800000040420F000045
:1001A00000A08601000000102700000000E8030006
:1001B0000000006400000000000A000000000001D0
:1001C00000000000002C76D888DC674F0823DFC1D0
:1001D000DFAE59E1B1B796E5E3E453C63AE651998B
:1001E0007696E8E6C28426EB898C9B62ED407C6FB4
:1001F000FCEFBC9C9F40F2BAA56FA5F490055A2A6B
:10020000F75C936B6CF9676DC11BFCE0E40D47FE76
:10021000F520E6B500D0ED902E030094357705006B
:1002200080841E080000204E0A000000C80C3333F2
:1002300033330F986E12831141EF8D2114893BE601
:100240005516CFFEE6DB18D1844B381BF77C1D908A
:100250001DA4BBE424203284725E228100C9F124F3
:10026000ECA1E53D27434F4D4D554E49434154497F
:100270004F4E0044525952554E004552524F525320
:1002800000494E464F004543484F0053544F50508D
:1002900045442E20005072696E7465722073746F2D
:1002A000707065642064756520746F206572726F6C
:1002B00072732E2046697820746865206572726FAB
:1002C0007220616E6420757365204D393939207450
:1002D0006F20726573746172742E202854656D707E
:1002E00065726174757265206973207265736574D7
:1002F0002E205365742069742061667465722072C3
:10030000657374617274696E67290A004E6F2043C9
:100310006865636B73756D2077697468206C696EAE
:1003200065206E756D6265722C204C617374204C73
:10033000696E653A2000636865636B73756D206D47
:1003400069736D617463682C204C617374204C690F
:100350006E653A20004C696E65204E756D6265725F
:10036000206973206E6F74204C617374204C696E29
:1003700065204E756D6265722B312C204C61737453
:10038000204C696E653A20004D3131300053657262
:1003900069616C20737461747573206D69736D612C
:1003A0007463680A002121204B494C4C206361751D
:1003B00073656420627920746F6F206D75636820A7
:1003C000696E6163746976652074696D65202D209E
:1003D00063757272656E7420636F6D6D616E643AE1
:1003E0002000627573793A207061757365642066C8
:1003F0006F7220696E7075740A00627573793A20A5
:1004000070617573656420666F7220757365720A1A
:1004100000627573793A2070726F63657373696EE9
:10042000670A006563686F3A004572726F723A003E
:100430002F2F616374696F6E3A006E6F746966691D
:10044000636174696F6E2000656E6400486F746547
:100450006E6420746F6F20636F6C640A0070617546
:1004600073656400506175736500726573756D65C1
:1004700064004469736D69737300526573756D69C7
:100480006E670041636375726163792044656372CE
:10049000656173696E6721004465637265617369A4
:1004A0006E6720416363757261637920446574658A
:1004B000637465642E0A00473238004732385A00A8
:1004C00041636375726163793A2000206F66200092
:1004D00044696420004733342061626F727465643C
:1004E0002E0A004163637572616379204163686914
:1004F0006576656400546172676574206163637535
:10050000726163792061636869657665642E0A00AB
:100510000A5A322D5A313D0050726F62696E67205F
:100520004661696C65640050726F62696E6720662F
:1005300061696C65640A000A473334204974657246
:100540006174696F6E3A20003F2841296D706C69B3
:100550006669636174696F6E206F7574206F6620C1
:10056000626F756E64732028302E352D322E30293F
:100570002E0A003F28542961726765742061636305
:100580007572616379206F7574206F6620626F7574
:100590006E64732028302E30312D312E30292E0AF2
:1005A000003F2849297465726174696F6E206F7508
:1005B00074206F6620626F756E64732028312D334E
:1005C00030292E0A0046696E6973686564210A0045
:1005D0003A207A3A2000206F662000476F696E67E4
:1005E00020746F3A20580043570A00206469723A19
:1005F0000020616E676C653A0053746172742072FA
:1006000061646975733A00506F736974696F6E69DC
:100610006E67207468652070726F62652E2E2E0AD8
:10062000003F4C656773206F66206D6F76656D6562
:100630006E7420696D706C61757369626C652028D9
:10064000302D3135292E0A003F2028582C592920D9
:100650006F7574206F6620626F756E64732E0A006A
:1006600050726F6265206F7574206F6620626F75BF
:100670006E6473003F53616D706C652073697A65B9
:10068000206E6F7420706C61757369626C652028D0
:10069000342D3530292E0A004D3438205A2D507211
:1006A0006F6265205265706561746162696C69741E
:1006B0007920546573740A003F2856296572626F69
:1006C0007365206C6576656C20696D706C617573FF
:1006D00069626C652028302D34292E0A005374611C
:1006E0006E6461726420446576696174696F6E3A04
:1006F00020002052616E67653A2000204D61783AF3
:100700002000204D696E3A2000205369676D613AE0
:1007100020004D65616E3A200020496E76616C695B
:1007200064206578747275646572200047322F47C3
:10073000332062616420706172616D6574657273EB
:100740000A00536C6565702E2E2E005A2050726F71
:1007500062652050617374204265640A005A20501B
:10076000726F626520506173742042656400205A84
:100770003A200020593A200042656420583A20006F
:100780004D302053746F70004D312053746F7000E2
:100790004E6F204D6F76652E002569730025696DBB
:1007A00020256973002569682025696D20256973F6
:1007B00000256964202569682025696D20256973F5
:1007C0000025697920256964202569682025696DDF
:1007D00020256973006E6F74696669636174696F5F
:1007E0006E20005072696E742074696D653A200045
:1007F0006F6B006F666600860281027A0273026583
:100800000244454255473A004D31313320530041AF
:100810007274696C6C657279205369646577696E6E
:10082000646572205831204F46462E002F2F00203D
:100830005200416363656C65726174696F6E3A2042
:1008400050004D3230362058004F4646004F4E0083
:1008500020204D61783A2000200020204D696E3A1A
:100860002000536F667420656E6473746F70733A02
:10087000200046523A0020466C6F773A20005072B2
:100880006F6265204F6666736574205A0050726F00
:100890006265204F6666736574205A0020643A00D2
:1008A00020693A0020703A00496E76616C696420D4
:1008B00065787472756465720A0020643A00206974
:1008C0003A0020703A0064697300656E0043290A9B
:1008D0000061626C656420286D696E2074656D70BE
:1008E0002000436F6C6420657874727564657320B2
:1008F00061726520004F6666736574732041707085
:100900006C69656400546F6F206661722066726F57
:100910006D207265666572656E636520706F696EC5
:10092000740A00454550524F4D204F4B0A002E0A85
:10093000002028302D313029002076616C7565202B
:100940006F7574206F662072616E67650041647612
:10095000616E6365204B3D003F285929206F7574F7
:10096000206F6620626F756E64732E0A003F2858F0
:1009700029206F7574206F6620626F756E64732E08
:100980000A003F2853292050726F62652D706F73E3
:100990006974696F6E20696E64657820696E76612E
:1009A0006C69642E0A003F28532920697320726500
:1009B0007175697265642E0A004D3432322053001D
:1009C000496E76616C6964206578747275646572CD
:1009D0000A006F6B00446966663A20202000467268
:1009E0006F6D5374703A00537465707065723A009D
:1009F0005261773A20202020000A4C6F67696361BA
:100A00006C3A00436F756E7420453A004361703A4A
:100A1000007D002C7A3A002C793A007D2C6D6178AB
:100A20003A7B783A002C7A3A002C793A007D7D2C7A
:100A3000776F726B3A7B6D696E3A7B783A002C7AED
:100A40003A002C793A007D2C6D61783A7B783A0037
:100A50002C7A3A002C793A00617265613A7B6675AE
:100A60006C6C3A7B6D696E3A7B783A004D45415427
:100A70005041434B00434F4F4C45525F54454D50FE
:100A800045524154555245004348414D4245525FFD
:100A900054454D50455241545552450042414259EA
:100AA0005354455050494E470041524353004D4F17
:100AB00054494F4E5F4D4F44455300544845524DA5
:100AC000414C5F50524F54454354494F4E004C4F98
:100AD0004E475F46494C454E414D45004155544FA8
:100AE0005245504F52545F53445F535441545553F1
:100AF0000053445F575249544500524550454154B4
:100B0000005344434152440050524F4D50545F53A0
:100B10005550504F525400484F53545F414354492D
:100B20004F4E5F434F4D4D414E445300454D45524E
:100B300047454E43595F504152534552004341533C
:100B4000455F4C494748545F4252494748544E45D7
:100B5000535300544F47474C455F4C494748545303
:100B600000534F4654574152455F504F574552002E
:100B70004255494C445F50455243454E54004C4504
:100B800056454C494E475F44415441005A5F5052CC
:100B90004F42450052554E4F5554004155544F4C0D
:100BA0004556454C005052494E545F4A4F42005002
:100BB000524F4752455353004155544F5245504FA1
:100BC00052545F54454D50004155544F5245504F7B
:100BD00052545F504F5300564F4C554D4554524957
:100BE0004300454550524F4D0042494E4152595FD6
:100BF00046494C455F5452414E5346455200534579
:100C00005249414C5F584F4E5F584F464600464947
:100C1000524D574152455F4E414D453A4D61726CC0
:100C2000696E20322E302E392E31202D2044494736
:100C3000412D546563682041535758312076312E39
:100C40003020284A756C2020352032303231203156
:100C5000313A33353A31392920534F555243455FA4
:100C6000434F44455F55524C3A6769746875622E2C
:100C7000636F6D2F4D61726C696E4669726D77613D
:100C800072652F4D61726C696E2050524F544F4304
:100C90004F4C5F56455253494F4E3A312E30204DFE
:100CA000414348494E455F545950453A4172746931
:100CB0006C6C657279205369646577696E646572DE
:100CC0002058312045585452554445525F434F55A2
:100CD0004E543A3120555549443A63656465326152
:100CE00032662D343161322D343734382D3962314A
:100CF000322D6335356336326633363766660A0021
:100D0000290A0020746F20003F5A206F7574206FED
:100D1000662072616E6765202800290A0020746FC2
:100D200020003F59206F7574206F662072616E67D6
:100D30006520282D00290A0020746F20003F5820CC
:100D40006F7574206F662072616E676520282D00B4
:100D500050726F6265204F6666736574205800207C
:100D6000573A0042656420436F6F6C696E672E2EA0
:100D70002E004265642048656174696E672E2E2ED0
:100D80000023646566696E652044454641554C54B0
:100D90005F0000626564004B6420004B6920004BDB
:100DA000702000504944204175746F74756E652041
:100DB00066696E6973686564212050757420746873
:100DC00065206C617374204B702C204B6920616E20
:100DD00064204B6420636F6E7374616E747320665D
:100DE000726F6D2062656C6F7720696E746F20433F
:100DF0006F6E66696775726174696F6E2E680A003E
:100E0000504944204175746F74756E652066616940
:100E10006C6564212074696D656F75740A005049B2
:100E200044204175746F74756E65206661696C65E8
:100E300064212054656D70657261747572652074EB
:100E40006F6F20686967680A00204B643A200020B1
:100E50004B693A2000204B703A200020436C6173AC
:100E600073696320504944200A00204E6F206F763A
:100E7000657273686F6F740A002054753A20002001
:100E80004B753A2000206D61783A2000206D696E24
:100E90003A200020643A200020626961733A200001
:100EA000504944204175746F74756E652073746188
:100EB00072740A00504944204175746F74756E65F0
:100EC000206661696C6564212054656D706572618E
:100ED0007475726520746F6F20686967680A0050C6
:100EE0004944204175746F74756E65005049442003
:100EF0004175746F74756E65206661696C656421F7
:100F000020426164206865617465722069640A002A
:100F1000486F6D696E67204661696C6564006F702B
:100F2000656E00545249474745524544003A2000F7
:100F30007A5F6D696E00795F6D696E00785F6D69CB
:100F40006E005265706F7274696E6720656E6473AF
:100F5000746F70207374617475730A0020746F6FFE
:100F6000206C6F6E6720657874727573696F6E2080
:100F700070726576656E7465640A0020636F6C64D8
:100F800020657874727573696F6E2070726576650E
:100F90006E7465640A00486F6D652025732573259E
:100FA00073204669727374000000000000000000A6
:100FB000000000005761726E696E673A20486F6DDD
:100FC000696E672042756D702044697669736F722F
:100FD000203C20310A0002020400809843008098DF
:100FE000430000C8430000A0400000A040000000F3
:100FF0004000809843008098430000C843000000F0
:1010000000000000000000000053657474696E6702
:10101000732053746F72656400290A00206279742A
:1010200065733B20637263200053657474696E6757
:10103000732053746F726564202800486172646382
:101040006F6465642044656661756C7420536574D3
:1010500074696E6773204C6F616465640A003B209D
:10106000003A0A0020204D36303320002055004C35
:101070000046696C616D656E74206C6F61642F75DC
:101080006E6C6F6164206C656E677468733A0020E3
:10109000204D393030204B004C696E656172204123
:1010A0006476616E63653A0020204D3835312058F2
:1010B000005A2D50726F6265204F6666736574002A
:1010C00020440020490020204D333034205000209F
:1010D000440020490020204D333031205000504939
:1010E000442073657474696E67733A0020204D3232
:1010F0003036205800486F6D65206F6666736574E2
:101100003A0020580020530020204D323035204234
:1011100000416476616E6365643A20423C6D696E9D
:101120005F7365676D656E745F74696D655F757318
:101130003E20533C6D696E5F6665656472617465DF
:101140003E20543C6D696E5F74726176656C5F66BB
:10115000656564726174653E20583C6D61785F78A6
:101160005F6A65726B3E20593C6D61785F795F6A9A
:1011700065726B3E205A3C6D61785F7A5F6A65727A
:101180006B3E20453C6D61785F655F6A65726B3EC2
:101190000020540020520020204D323034205000D6
:1011A000416363656C65726174696F6E2028756E4A
:1011B0006974732F7332293A20503C7072696E74CF
:1011C0005F616363656C3E20523C7265747261635B
:1011D000745F616363656C3E20543C747261766534
:1011E0006C5F616363656C3E0020204D32303120BE
:1011F00058004D6178696D756D20416363656C655C
:10120000726174696F6E2028756E6974732F733202
:10121000293A0020204D3230332058004D61786942
:101220006D756D20666565647261746573202875DF
:101230006E6974732F73293A00537465707320704C
:10124000657220756E69743A0020440020204D328A
:1012500030302053002044697361626C65640A0079
:1012600046696C616D656E742073657474696E6730
:10127000733A0020286D6D2900202047323120204C
:1012800020203B20556E69747320696E206D6D00BF
:10129000454550524F4D206461746173697A6520F1
:1012A0006572726F722E0A00454550524F4D20569E
:1012B000657273696F6E204572726F72004545509A
:1012C000524F4D20496E646578204572726F7200EE
:1012D000454550524F4D20435243204572726F7224
:1012E00000290A002062797465733B2063726320D1
:1012F000002073746F7265642073657474696E671F
:1013000073207265747269657665642028002028F0
:1013100063616C63756C6174656429210A00202126
:101320003D2000454550524F4D20435243206D69AA
:10133000736D61746368202D202873746F72656407
:101340002920002053697A653A2000496E64657847
:101350003A200000004843000048430000A041003C
:10136000002042F43DA042F43DA04296E3C7430072
:1013700080DE43D0070000D00700006400000010AA
:10138000270000204D61726C696E3D563833290A82
:1013900000454550524F4D2076657273696F6E203F
:1013A0006D69736D617463682028454550524F4DD7
:1013B0003D0024F4D43050C38E20C2A24017828B4B
:1013C0007011127A910D816CD90AA861E108C75891
:1013D0006607615143061E4B5D05C145A7041A41CE
:1013E0001104093D9803713931034036DB0265333E
:1013F0009102D4305402802E1D02632CEE01752A16
:10140000C501B028A001102781018F2564012B247C
:101410004B01E0223401AC211F018D200D01801F02
:10142000FC00841EED00971DDF00B81CD200E61BF7
:10143000C600201BBC00641AB200B219A8000A1929
:10144000A0006A189900D117910040178B00B516BB
:10145000840031167E00B31579003A157300C71465
:101460006F0058146A00EE1366008813630025139A
:101470005E00C7125B006C12570015125400C111B8
:10148000510070114F0021114B00D61049008D10F2
:1014900047004610440002104200C00F4000800F79
:1014A0003E00420F3C00060F3B00CB0E3800930E6F
:1014B00037005C0E3500270E3400F30D3200C10DED
:1014C0003100900D3000600D2E00320D2D00050D05
:1014D0002C00D90C2B00AE0C2900850C29005C0CCB
:1014E0002700350C27000E0C2600E80B2400C40B47
:1014F0002400A00B23007D0B23005A0B2100390B85
:101500002100180B2000F80A1F00D90A1E00BB0A90
:101510001E009D0A1D00800A1D00630A1C00470A68
:101520001B002C0A1B00110A1A00F7091A00DD091A
:101530001900C4091900AB091900920917007B09A9
:101540001800630917004C09160036091600200917
:1015500016000A091500F5081500E0081400CC086B
:101560001400B8081400A4081400900813007D08A3
:1015700012006B08130058081200460812003408C5
:101580001100230811001208110001081100F007D2
:101590001000E0071000D0071000C0071000B007CF
:1015A0000F00A107100091070E0083070F007407BA
:1015B0000F0065070E0057070E0049070E003B0796
:1015C0000D002E070E0020070D0013070D00060763
:1015D0000D00F9060C00ED060D00E0060C00D40627
:1015E0000C00C8060C00BC060C00B0060C00A406DB
:1015F0000B0099060C008D060B0082060B00770687
:101600000B006C060B0061060A0057060B004C0627
:101610000A0042060A0038060A002E060A002406BE
:101620000A001A060A001006090007060A00FD054E
:101630000900F4050900EB050900E2050900D905D8
:101640000900D0050900C7050900BE050900B50558
:101650000800AD050800A50509009C0508009405D3
:1016600008008C050800840508007C050800740546
:1016700008006C050700650508005D0507005605B4
:1016800008004E050700470507004005080038051B
:101690000700310507002A050700230507001C0580
:1016A0000600160507000F050700080506000205DD
:1016B0000700FB040600F5040700EE040600E8043A
:1016C0000600E2040700DB040600D5040600CF0490
:1016D0000600C9040600C3040600BD040600B704E2
:1016E0000600B1040500AC040600A6040600A00430
:1016F00005009B04060095040500900406008A047A
:10170000050085040500800406007A0405007504C0
:101710000500700405006B04050066040500610403
:1017200005005C04050057040500520405004D0443
:10173000050048040500430405003E0404003A0483
:10174000050035040500300404002C0405002704BE
:101750000400230405001E0404001A0404001604F7
:101760000500110404000D0404000904050004042C
:10177000040000040400FC030400F8030400F40364
:101780000400F0030400EC030400E8030400E40395
:101790000400E0030400DC030400D8030400D403C5
:1017A0000400D0030400CC030400C8030300C503F5
:1017B000030024F404D9201BC40C5C0E9804C40953
:1017C0005F0265077101F405F900FB04B3004804EA
:1017D0008700C10369005803550003034500BE029A
:1017E0003A008402310053022A0029022500040233
:1017F0002000E4011C00C8011900AF011700980186
:1018000014008401130071011000610110005101E6
:101810000E0043010D0036010B002B010B002001CF
:101820000B00150109000C01090003010800FB0071
:101830000800F3000800EB000700E4000600DE00EB
:101840000600D8000600D2000600CC000500C70044
:101850000500C2000500BD000400B9000400B50089
:101860000400B1000400AD000400A9000400A500BC
:101870000300A20003009F0004009B0003009800E7
:1018800003009500020093000300900003008D0008
:1018900002008B0003008800020086000200840022
:1018A0000300810002007F0002007D0002007B0037
:1018B0000200790002007700010076000200740047
:1018C000020072000100710002006F0002006D0052
:1018D00001006C0002006A0001006900020067005C
:1018E0000100660001006500010064000200620062
:1018F000010061000100600001005F0002005D0066
:1019000001005C0001005B0001005A000100590069
:101910000100580001005700010056000100550069
:101920000100540001005300000053000100520068
:10193000010051000100500001004F0001004E0065
:1019400000004E0001004D0001004C0001004B0062
:1019500000004B0001004A0001004900010048005E
:10196000000048000100470001004600000046005A
:101970000100450000004500010044000100430053
:10198000000043000100420000004200010041004D
:10199000000041000100400001003F0000003F0046
:1019A00001003E0000003E0001003D0000003D003F
:1019B00001003C0000003C0000003C0001003B0036
:1019C00000003B0001003A0000003A00010039002D
:1019D0000000390001003800000038000000380025
:1019E000010037000000370001003600000036001B
:1019F0000000360001003500000035000000350011
:101A00000100340000003400000034000100330005
:101A100000003300000033000100320000003200FB
:101A200000003200010031000000310000003100F0
:101A300001003000000030000000300001002F00E5
:101A400000002F0000002F0000002F0001002E00DA
:101A500000002E0000002E0001002D0000002D00CF
:101A600000002D0000002D0001002C0000002C00C3
:101A700000002C0000002C0001002B0000002B00B7
:101A800000002B0000002B0001002A0000002A00AB
:101A900000002A0000002A0001002900000029009F
:101AA0000000290000002900000029000100280092
:101AB0000000280000002800000028000000280086
:101AC0000100270000002700000027000000270079
:101AD000000027000100260000002600000026006C
:101AE000000026000000260001002500000025005F
:101AF0000000250000002500000025000000250052
:101B00000100240000002400000024000000240044
:101B10000000240001002300000023000000230037
:101B20000000230000002300000023000000230029
:101B3000010022000000220000002200000022001C
:101B4000000022000000220001002100000021000E
:101B50000000210000002100000021000000210001
:101B600000002100010020000000200000002000F3
:101B700000002000000020000000200000002000E5
:101B80000000200001001F0000001F0000001F00D7
:101B900000001F0000001F0000001F0000001F00C9
:101BA00001001E0000001E0000001E0000001E00BC
:101BB0000000C23100001C260000F4190000D80FFC
:101BC0000000EB080000C0040000750200004001A6
:101BD000000020436F756E7420583A0000626564FF
:101BE000002C2073797374656D2073746F70706549
:101BF0006421204865617465725F49443A20004859
:101C0000656174696E67204661696C65640048654A
:101C10006174696E67206661696C6564004D31317D
:101C2000322053687574646F776E004572723A2083
:101C30004D415854454D50004D415854454D50204C
:101C4000747269676765726564004572723A204D07
:101C5000494E54454D50004D494E54454D50207409
:101C6000726967676572656400544845524D414C1E
:101C70002052554E4157415900546865726D616C50
:101C80002052756E6177617900202F002042403A22
:101C90000020403A0020573A002053004D313036A2
:101CA00020500070012C0190012701B0012201C0D9
:101CB000011D01F00118011002130130020E016034
:101CC00002090190020401C002FF000003FA004073
:101CD00003F5008003F000D003EB002004E6007061
:101CE00004E100E004DC004005D700C005D200405C
:101CF00006CD00D006C8008007C3003008BE00F043
:101D000008B900C009B400B00AAF00B00BAA00D0F7
:101D10000CA500000EA000500F9B00C010960050B4
:101D200012910000148C00C0158700B0178200B01B
:101D3000197D00D01B7800001E730040206E0090BB
:101D4000226900F024640040275F0090295A00E0D7
:101D50002B5500102E500020304B0010324600E072
:101D600033410090353C001037370070383200A006
:101D7000392D00B03A2800A03B2300603C1E001023
:101D80003D1900903D1400103E0F00703E0A00C047
:101D90003E0500003F0000403FFBFF803FF6FFC0D4
:101DA0003FF1FF2020506C616E6E65724275666671
:101DB000657242797465733A200020467265652029
:101DC0004D656D6F72793A2000436F6D70696C6577
:101DD000643A204A756C20203520323032310A00B6
:101DE000204C61737420557064617465643A2032CC
:101DF0003032312D30362D3237207C2041757468D9
:101E00006F723A2028444947412D546563682C205D
:101E100041535758312076312E30290A00322E3066
:101E20002E392E310A004D61726C696E0020536F9D
:101E30006674776172652052657365740A00205775
:101E400061746368646F672052657365740A00206B
:101E500042726F776E206F75742052657365740AD5
:101E6000002045787465726E616C205265736574EC
:101E70000A00506F77657255700A0073746172744E
:101E80000A00205A3A0020593A0020583A00656E5C
:101E90006473746F7073206869743A2000000021C5
:101EA00000240027002A002D00300033000101002B
:101EB00000040107010A0100002200250028002B70
:101EC000002E003100340002010000050108010B62
:101ED0000105050505070508080808020202020AAF
:101EE0000A080804040404010101010101010103BD
:101EF00003030303030303040707070C0C0C0C0C78
:101F00000C0C0C0202020206060606060606060B6A
:101F10000B0B0B0B0B0B0B010210202008081020E1
:101F20004010204080020102010804020101020465
:101F30000810204080804020100804020180040224
:101F4000018040201008040201080402010102047B
:101F50000810204080010204081020408000000A80
:101F60000B02090C0D0E080703040100000000001D
:101F70000000000000000000000000000000000061
:101F8000000000000000000000121110000000001E
:101F90000000000000000000000000000000000041
:101FA000000000FFFFFF50726F62696E672046619C
:101FB000696C65640A0050726F62696E67204661E1
:101FC000696C656400205A3A200020593A2000428A
:101FD000656420583A200053656E64204D313038D6
:101FE00020746F20726573756D650A00496E7365A4
:101FF00072742066696C616D656E7420616E642018
:1020000073656E64204D3130380A00526568656131
:102010007420446F6E6500526568656174696E670F
:102020002E2E2E00526568656174004865617465E6
:10203000722054696D656F75740053656E64204D30
:1020400031303820746F2068656174206E6F7A7A41
:102050006C650A004E6F7A7A6C65205061726B6510
:10206000640070726F6D70745F0073686F770062E8
:102070007574746F6E00626567696E005075726783
:10208000654D6F72650050617573656400436F6ED6
:1020900074696E7565004C6F61642046696C616D92
:1020A000656E74205400496E736572742066696CA5
:1020B000616D656E7420616E642073656E64204D81
:1020C0003130380A0020746F6F206C6F6E672065A6
:1020D0007874727573696F6E2070726576656E7450
:1020E00065640A0020636F6C642065787472757390
:1020F000696F6E2070726576656E7465640A002281
:102100000A00556E6B6E6F776E20636F6D6D616E3A
:10211000643A202200204500205A00205900204D1A
:1021200039322058004572726F7220777269746973
:102130006E6720746F20454550524F4D210A006F45
:102140006B0A00526573656E643A200020453A00C0
:10215000205A3A0020593A00583A00706F77657259
:102160006F6666005072696E7465722068616C7487
:1021700065642E206B696C6C28292063616C6C652A
:1021800064210A00BC9611241FBECFEFD1E2DEBF4E
:10219000CDBF00E00CBF12E0A0E0B2E0E6E8F2E55F
:1021A00001E00BBF02C007900D92A83EB107D9F71E
:1021B00022E1A8EEB2E001C01D92A934B207E1F716
:1021C00010E1C3ECD0E100E006C021970109802FA7
:1021D000FE010E9440A6C23CD10780E00807A9F793
:1021E0000E9424970C9441A90C940000FC012081CA
:1021F0008091E2119091E311922728E0AC01880FC1
:10220000991F57FD07C02150C9F79093E3118093A0
:10221000E2110895F1E28F27F0E19F27F4CF282FF4
:1022200030E0F901E35AF04E9491F901E95EF04E85
:1022300044912F52314EF9012491222309F435C0E3
:10224000992311F191509231F8F4E92FF0E08827A9
:10225000E35DFE4E8F4F0C9440A65E1162113F115C
:1022600056115A11441165116B116F1175117911C5
:102270007D118311871144118B119111951180915A
:1022800080008F7780938000E22FF0E0EE0FFF1F39
:10229000E954F14EA591B4918FB7F894EC91611186
:1022A00048C040954E234C938FBF08958091800085
:1022B0008F7DE8CF80918000877FE4CF84B58F77D2
:1022C00084BDE2CF84B58F7DFBCF8091B0008F7746
:1022D0008093B000D9CF8091B0008F7DF9CF8091ED
:1022E00090008F7780939000CFCF809190008F7D6A
:1022F000F9CF80919000877FF5CF8091A0008F77F4
:102300008093A000C1CF8091A0008F7DF9CF8091F4
:10231000A000877FF5CF809120018F7780932001E7
:10232000B3CF809120018F7DF9CF80912001877FED
:10233000F5CF4E2BB8CF582F282F30E0F901E95EAA
:10234000F04E4491F901EF52F14E8491882399F0B7
:1023500090E0880F991FFC01E356F14EA591B491CE
:10236000FC01E954F14E859194918FB7F894EC916A
:10237000E42BEC938FBF6115710519F460E0852F94
:102380004ECF6F3F710511F461E0F9CFF901E35AC7
:10239000F04EE491E150E23108F0B0C0F0E088275F
:1023A000EB52FE4E8F4F0C9440A6E711EC11F11149
:1023B000FB1105127E120F1217121F12291233126F
:1023C0003D124C1256127E1260126A12741284B5BB
:1023D000806884BD67BD089584B5806284BD68BD92
:1023E00008958091800080688093800070938900B8
:1023F00060938800089580918000806280938000BF
:1024000070938B0060938A000895809180008860AB
:102410008093800070938D0060938C00089580916C
:10242000B00080688093B0006093B30008958091FD
:10243000B00080628093B0006093B40008958091F2
:10244000900080688093900070939900609398004A
:1024500008958091900080628093900070939B001B
:1024600060939A0008958091900088608093900016
:1024700070939D0060939C0008958091A0008068F7
:102480008093A0008091A0008F7B8093A000709328
:10249000A9006093A80008958091A00080628093B5
:1024A000A0007093AB006093AA0008958091A000F3
:1024B00088608093A0007093AD006093AC00089595
:1024C000809120018068809320017093290160939E
:1024D00028010895809120018062809320017093EB
:1024E0002B0160932A0108958091200188608093D8
:1024F000200170932D0160932C01089560387105BF
:102500000CF042CF3BCF3FB7F8948091150B9091E0
:10251000160BA091170BB091180B26B5A89B05C000
:102520002F3F19F00196A11DB11D3FBFBA2FA92F52
:10253000982F8827BC01CD01620F711D811D911D4F
:1025400042E0660F771F881F991F4A95D1F70895BB
:102550008F929F92AF92BF92CF92DF92EF92FF92B3
:102560006B017C01D0DF4B015C01C114D104E1049B
:10257000F104B1F0C8DF681979098A099B09683E3E
:1025800073408105910588F321E0C21AD108E10862
:10259000F10888EE880E83E0981EA11CB11CE5CFDF
:1025A000FF90EF90DF90CF90BF90AF909F908F9073
:1025B00008952FB7F8946091110B7091120B8091D0
:1025C000130B9091140B2FBF089561157105C1F085
:1025D0000296645071098617970794F49093DD1161
:1025E0008093DC11E6DF605E714B8F4F9F4F6093ED
:1025F000DE117093DF118093E0119093E111089543
:102600001092DE111092DF111092E0111092E11180
:1026100008958F929F92AF92BF92CF92DF92EF92E6
:10262000FF920F931F93CF93DF93B0E4A0E06A2F44
:1026300070E0AB014B0F511D55954795411119C0E5
:10264000E5EAFCE165917491072E000C880B990B6B
:102650000E94AB9FDF91CF911F910F91FF90EF9060
:10266000DF90CF90BF90AF909F908F900895B42F40
:10267000E0CFA41711F0B41303C0E1EAFDE1E2CF0B
:102680009A0121503109220F331F220F331FF90104
:10269000ED55F34EE590F490F901E955F34EC591EF
:1026A000D4918E159F051CF3A42FC817D9070CF4DD
:1026B000BECFF901EB55F34E05911491F901E755A1
:1026C000F34EC590D490BC016E197F09072E000C03
:1026D000880B990B0E94AB9F4B015C01B601601BFC
:1026E000710B072E000C880B990B0E94AB9F9B016E
:1026F000AC01C501B4010E940AA04B015C01BE01FE
:102700006E197F09072E000C880B990B0E94AB9F56
:102710009B01AC01C501B4010E9425A76B017C019E
:10272000B801110F880B990B0E94AB9F9B01AC0164
:10273000C701B6010E9449A68DCFCF93DF93CCEDA0
:10274000DBE120E030E048E452E4609193047091D2
:10275000940480919504909196040E946FA887FF3D
:1027600017C080E0FE01C4912091020190E0B0E02A
:10277000A0E004C0B695A79597958795CA95D2F71E
:1027800080FD14C0207120930001DF91CF91089546
:10279000FE01249181E090E0A0E0B0E004C0880F49
:1027A000991FAA1FBB1F2A95D2F7DCCF2095EACF2D
:1027B00080913104882339F060913D1270913E126E
:1027C00080913F12089560E070E080E00895FC0180
:1027D00090E1A1E2B4E001900D929A95E1F708959D
:1027E000BC012091130430911404409113045091C2
:1027F00014042417350731F481E02617370709F050
:1028000080E008959A01F1CF8091AC0480FF1EC052
:1028100089988FEF8093C0038091AC04869580FFE8
:1028200018C08F988FEF8093C1038091AC04869578
:10283000869580FF11C080910B01809582708093F6
:102840000901439A8FEF8093C2030895899A81E02A
:10285000E1CF8F9A81E0E7CF80910B018270809366
:102860000901439881E0EFCFCF93DF9380919403E8
:10287000811119C0C0911702D0911802219720E050
:1028800030E040E05FE360919304709194048091A4
:102890009504909196040E9449A60E948DA721E07C
:1028A0006C177D070CF020E0822FDF91CF91089507
:1028B000AF92BF92CF92DF92EF92FF920F931F934E
:1028C000CF93DF93CDE8D0E10EE21BE08DE9A82E97
:1028D00080E1B82EC12CD12C7601C39469917991F5
:1028E000899199910E94A99F288939894A895B8990
:1028F0000E940AA00E9492A7F801619371938193AC
:1029000091938F01C616D706E806F90610F46B01FD
:102910007C01AC16BD0611F76FEF7FEFCB01A7016D
:1029200096010E94CFA520933E0B30933F0B40931E
:10293000400B5093410BDF91CF911F910F91FF906E
:10294000EF90DF90CF90BF90AF900895CF92DF923D
:10295000EF92FF928091AD03882309F457C0C09095
:10296000A903D090AA03E090AB03F090AC0320E061
:1029700030E0A901C701B6010E94A59F882309F490
:1029800045C020E030E040E05FE3C701B6010E94AF
:102990000AA09B01AC010E940AA02BED3FE049E494
:1029A00050E40E940AA09B01AC0160E070E080E866
:1029B0009FE30E9425A76B017C01C0929003D092F7
:1029C0009103E0929203F09293036091150270914B
:1029D0001602072E000C880B990B0E94AB9F2AE071
:1029E00037ED43E25CE30E940AA0A70196010E9432
:1029F0000AA060934E0270934F028093500290930E
:102A00005102FF90EF90DF90CF900895C12CD12C10
:102A100080E8E82E8FE3F82ED0CF809107129091B6
:102A20000812891B8F7019F490E080E0089590914E
:102A30000412992351F0833030F48FEF890F19F08D
:102A400080930412F1CF109204128091081222E5B3
:102A5000829FC00111248659944FFC01208120FDE2
:102A6000E3CF209108122F5F2F7020930512309131
:102A7000081220910612321304C0209105122093EF
:102A80000612089590916F0081E091FD02C080E0F0
:102A9000089590916F009D7F90936F000895EFE6E9
:102AA000F0E08081826080830895CF93C82FEADFB1
:102AB00094E0C99F90011124F901EB5EFB4F2F5D5B
:102AC0003B4FD9014D915D916D917C914083518334
:102AD0006283738391E090933304882311F0CF9144
:102AE000DECFCF910895CF92DF92EF92FF92CF93F6
:102AF000DF93C82FC7DF94E0C99FE0011124FE01D6
:102B0000EF5DFB4FC080D180E280F3808111C7DF91
:102B1000C85AD44FC701B6010E94AB9F28813981A2
:102B20004A815B810E940AA0DF91CF91FF90EF90D4
:102B3000DF90CF900895CF92DF92EF92FF92CF93E4
:102B4000DF93C82F9FDF94E0C99FE0011124FE01AD
:102B5000EB5EFB4FC080D180E280F38081119FDF6C
:102B6000C85AD44FC701B6010E94AB9F2881398152
:102B70004A815B810E940AA0DF91CF91FF90EF9084
:102B8000DF90CF9008950F931F93E62FDC01FC9107
:102B90000F2F10E030E020E0062E04C03695279578
:102BA000179507950A94D2F700FF1CC00091730394
:102BB00010E030E020E004C0369527951795079582
:102BC0006A95D2F700FF0EC041E050E060E070E08F
:102BD00004C0440F551F661F771FEA95D2F7409532
:102BE0004F234C931F910F910895CF93DF9324E0CF
:102BF000829FC0011124EC01C053DE4EFC01E2555E
:102C0000FB4F8C589C4FDC012D913D914D915C9177
:102C100060817181828193810E9449A66883798352
:102C20008A839B83DF91CF910895CF93DF931F9287
:102C3000CDB7DEB7898360E0CE010196A4DF61E005
:102C4000CE010196A0DF62E0CE0101969CDF898172
:102C50000F90DF91CF9108958F929F92AF92BF9284
:102C6000CF92DF92EF92FF92CF93DF9320911902E0
:102C7000222309F49EC0EC0180917303C82ED12C4D
:102C8000F12CE12C80FF2CC080901B0290901C0244
:102C9000A0901D02B0901E02288139814A815B817B
:102CA000C501B4010E946FA8181624F48882998285
:102CB000AA82BB828090270290902802A0902902CD
:102CC000B0902A02288139814A815B81C501B40113
:102CD0000E94A59F87FF04C088829982AA82BB8236
:102CE000D701C601B695A7959795879580FF2CC00B
:102CF00080901F0290902002A0902102B0902202AA
:102D00002C813D814E815F81C501B4010E946FA875
:102D1000181624F48C829D82AE82BF8280902B0292
:102D200090902C02A0902D02B0902E022C813D811B
:102D30004E815F81C501B4010E94A59F87FF04C039
:102D40008C829D82AE82BF8282E0F694E794D79413
:102D5000C7948A95D1F7C0FE2CC0C0902302D090B2
:102D60002402E0902502F0902602288539854A85C4
:102D70005B85C701B6010E946FA8181624F4C886A7
:102D8000D986EA86FB86C0902F02D0903002E09070
:102D90003102F0903202288539854A855B85C7016A
:102DA000B6010E94A59F87FF04C0C886D986EA861F
:102DB000FB86DF91CF91FF90EF90DF90CF90BF9097
:102DC000AF909F908F90089580916F0390917003C2
:102DD000A0917103B091720380931102909312023B
:102DE000A0931302B093140280916D0390916E032F
:102DF0009093100280930F02089580911102909198
:102E00001202A0911302B091140280936F03909369
:102E10007003A0937103B093720380910F0290919D
:102E2000100290936E0380936D0384E690E090937C
:102E3000100280930F020895CF93DF9380E053DE5A
:102E4000C1E6D3E0688379838A839B8381E04BDE8C
:102E50006C837D838E839F8382E045DE68877987DC
:102E60008A879B87DF91CF9108951F93CF93DF933C
:102E7000CDB7DEB760970FB6F894DEBF0FBECDBFFB
:102E8000182FDADF8091610390916203A0916303B0
:102E9000B091640389839A83AB83BC83809165037B
:102EA00090916603A0916703B09168038D839E8320
:102EB000AF83B8878091690390916A03A0916B03F7
:102EC000B0916C0389879A87AB87BC8783E00BDE60
:102ED0006D877E878F87988B1E3F99F480E1FE0176
:102EE0003196A0ECB1E101900D928A95E1F76096E0
:102EF0000FB6F894DEBF0FBECDBFDF91CF911F910B
:102F0000089524E0129FC0011124FC01E054FE4EFC
:102F1000A1E0B0E0AC0FBD1F8A0F9B1FDC014D91FB
:102F20005D916D917C914083518362837383DFCF88
:102F3000CF92DF92EF92FF928091AB04811105C096
:102F400080911B0B882309F46DC080916003659903
:102F500063C081608093600390910301809160035E
:102F600091FD5CC0826080936003809160034B9907
:102F700057C0846080936003C0900604C0FE0FC0F9
:102F80008091AC0480FF0BC08091600380FF07C07C
:102F900080911A0B816080931A0B80E086DDD12C22
:102FA000F12CE12CD701C601B695A7959795879589
:102FB00080FF10C08091AC04869580FF0BC080918B
:102FC000600381FF07C080911A0B826080931A0B07
:102FD00081E06BDD82E0F694E794D794C7948A95FC
:102FE000D1F7C0FE1FC08091AC048695869580FF06
:102FF00019C080911B0B8823A9F08091600382FF88
:1030000011C080911A0B846080931A0B82E0FF90AC
:10301000EF90DF90CF9049CD8E7F9CCF8D7FA3CF57
:103020008B7FA8CFFF90EF90DF90CF9008950F9304
:103030001F9380915F03813011F5BBDA0091570334
:10304000109158032091590330915A03601B710B62
:10305000820B930B28EE33E040E050E00E94CFA5B6
:1030600060915303709154038091550390915603DE
:10307000620F731F841F951F1F910F910895609118
:103080005B0370915C0380915D0390915E03D6CFEA
:1030900010925F0310925703109258031092590335
:1030A00010925A0310925B0310925C0310925D031E
:1030B00010925E0310925303109254031092550322
:1030C00010925603089580915F038130D9F08230C9
:1030D000B9F4ADDF609353037093540380935503A9
:1030E0009093560381E080935F0363DA6093570304
:1030F000709358038093590390935A0381E0089585
:10310000C7DFF0CF80E0089580915F03813071F4D4
:1031100082E080935F034DDA60935B0370935C03FE
:1031200080935D0390935E0381E0089580E00895AD
:1031300080915F038150823068F410925F0339DA26
:1031400060935B0370935C0380935D0390935E03D5
:1031500081E0089580E008952091970430919804CB
:10316000263531053CF420917B0430917C042630D7
:1031700031051CF0882319F0A6CF6111D9CF08952D
:10318000CF93DF93C0917B04D0917C04209721F1F1
:1031900060917704709178048091790490917A0419
:1031A0000E948DA76E5F7F4F24976C177D07A4F454
:1031B00070935E0460935D04FCD9605A75418F4F33
:1031C0009F4F60935F0470936004809361049093B9
:1031D0006204DF91CF91089510925F041092600411
:1031E0001092610410926204F4CFCF93DF93109297
:1031F000A604CFE8D4E0198618866C817D818E8183
:103200009F810E948DA7CB0170E060E0DED91A8615
:103210002C98C3E7D4E019861886B2DF1A8680910D
:103220000201807280930001DF91CF91089590E0B8
:1032300080E00895282F90912F03833021F495FD8D
:103240000FC094FD0FC0892F90E0B0E0A0E004C053
:10325000B695A795979587952A95D2F78170089589
:1032600081E0089580E008954F925F926F927F927F
:103270008F929F92AF92BF92CF92DF92EF92FF9286
:10328000CF93DF9300D000D01F921F92CDB7DEB74F
:103290005C01DB01CD90DD90ED90FC90E09102129D
:1032A000F0910312FE83ED8384819581A681B7811D
:1032B00089839A83AB83BC839C01AD01C701B601AE
:1032C0000E9448A62B013C01F50180809180A280DC
:1032D000B380AD81BE818D919D910D90BC91A02D4B
:1032E0008D839E83AF83B88727E137EB41ED58EBA1
:1032F000C301B2010E946FA887FDD3C023E030E86C
:1033000048E953E4C301B2010E94A59F18160CF4CA
:10331000C8C02D813E814F815885C501B4010E94EE
:1033200048A62B013C0127E137EB41ED58EB0E9409
:103330006FA887FDB6C023E030E848E953E4C30135
:10334000B2010E94A59F18160CF4ABC020E030E03B
:10335000A9016D817E818F8198850E9449A62B01EC
:103360003C0120E030E040E251E40E94A59F87FF4D
:1033700006C0412C512C30E2632E31E4732E27E13C
:1033800037EB41ED58E3C301B2010E9448A69B010F
:10339000AC01C501B4010E946FA887FD82C020E086
:1033A00030E848E953E46D817E818F8198850E94E1
:1033B00049A62B013C0120E030E843E953E40E9498
:1033C0006FA818163CF4412C20E8522E23E9622EF7
:1033D00023E4722E27E137EB41ED58E3C301B2013C
:1033E0000E9449A69B01AC01C501B4010E94A59FA2
:1033F00018160CF456C020E030E0A90169817A81EA
:103400008B819C810E9449A64B015C0120E030E049
:1034100040E251E40E94A59F87FF06C0812C912CB9
:1034200090E2A92E91E4B92E27E137EB41ED58E364
:10343000C501B4010E9448A69B01AC01C701B601B9
:103440000E946FA887FD2DC020E030E848E953E4D2
:1034500069817A818B819C810E9449A64B015C0124
:1034600020E030E843E953E40E946FA818163CF4CA
:10347000812C80E8982E83E9A82E83E4B82E27E1DA
:1034800037EB41ED58E3C501B4010E9449A69B0109
:10349000AC01B1E0B983C701B6010E94A59F18161F
:1034A0000CF41982898128960FB6F894DEBF0FBEFE
:1034B000CDBFDF91CF91FF90EF90DF90CF90BF9085
:1034C000AF909F908F907F906F905F904F900895F6
:1034D000FC01659175918591949108952FEB280FCA
:1034E0002A3108F047C0E22FF0E080914F0390911D
:1034F0005003A0915103B091520304C0B695A79513
:10350000979587952A95D2F780FD02C0817008951E
:10351000E05DFC4FE081EE2341F180918B109091B2
:103520008C10E80FF92FF11D808190ED980F9A30E3
:1035300030F08E3251F4818180538A3098F4F093C8
:103540002C03E0932B0381E008958D3211F08B3230
:1035500049F4818190ED980F9A3088F38E3211F4FE
:103560008281EACFF0E0E0E0EACF10922C031092E3
:103570002B03E9CF80E00895B1DF882341F081E09B
:1035800020912B0330912C03232B09F480E0089524
:10359000CF93DF93EFE8F4E0C085D1856481758136
:1035A000868197810E948DA7CB01BE01DF91CF91CB
:1035B0000CC8843021E0920714F084E091E09093ED
:1035C000980480939704E4CFCF93DF93EC01688154
:1035D00070E085E00E949B11698170E084E00E94A8
:1035E0009B116A8170E086E00E949B11888199811D
:1035F000482F490F5527551F8A81840F952F911DFC
:1036000021E0833091050CF420E0209331040397EE
:103610006CF052E1CD33D50749F088819981AA81B8
:1036200080933D1290933E12A0933F12DF91CF9171
:1036300008958F929F92AF92BF92CF92DF92EF92B6
:10364000FF92CF93DF9300D0CDB7DEB72FEF841773
:10365000950731F16A01052E000CEE08FF084C01B8
:10366000092E000CAA08BB08681779072CF0CB01BB
:10367000461757070CF4CA019C01990F440B550BD0
:10368000281939094A095B09AFEFB0E00E940DA67D
:10369000A7019601281939094A095B090E94F1A579
:1036A00080918A04821751F020938A048FEF8983D6
:1036B0001A8220952B83CE01019686DF0F900F9002
:1036C0000F90DF91CF91FF90EF90DF90CF90BF9060
:1036D000AF909F908F9008958F929F92AF92BF92DC
:1036E000CF92DF92EF92FF92CF93DF9300D0CDB7CE
:1036F000DEB72FEF8417950731F16A01052E000C14
:10370000EE08FF084C01092E000CAA08BB08681738
:1037100079072CF0CB01461757070CF4CA019C011E
:10372000990F440B550B281939094A095B09AFEF6A
:10373000B0E00E940DA6A7019601281939094A098F
:103740005B090E94F1A580918A04821749F02093B9
:103750008A0429831A828FEF8B83CE01019634DF8E
:103760000F900F900F90DF91CF91FF90EF90DF902F
:10377000CF90BF90AF909F908F900895129A089528
:1037800041E050E060E070E004C0440F551F661F48
:10379000771F8A95D2F740958091190B4823409363
:1037A000190B08955F9A80E0EBDF8A9A81E0E8DFE9
:1037B000809108018095817080930601479A82E08C
:1037C000DFDFDCCF81E008959091C10095FD0CC052
:1037D0009091C00095FF08C08093C6008091C00002
:1037E00080648093C00008952091ED022F5F2F70B8
:1037F0000FB607FC27C09091EE02921328C090915B
:10380000C00095FF1EC09091EE024091ED0294130E
:1038100006C09091C1009F7D9093C10012C0E92F16
:10382000F0E0E351FD4F32819F5F9F703093C600FF
:103830009093EE023091C00030643093C00049177D
:1038400041F3D9CF9091EE02921301C0FBCFE091EA
:10385000ED02F0E0E351FD4F82832093ED02809171
:10386000C10080628093C1000895CF93DF93EC0183
:103870008991882311F0A8DFFBCFDF91CF910895C4
:10388000CF93DF93EC018991882311F09DDFFBCF6B
:103890008DE09ADF8AE0DF91CF9196CFCF92DF92D1
:1038A000EF92FF920F931F93CF93DF93CDB7DEB7C5
:1038B000A0970FB6F894DEBF0FBECDBF442309F426
:1038C00043C0611571058105910571F100E0C42EB9
:1038D000D12CF12CE12CA70196010E94CFA511E07B
:1038E000100FE1E0F0E0EC0FFD1FE00FF11D07FD10
:1038F000FA956083B901CA01012F6115710581052F
:10390000910549F7115000F1E1E0F0E0EC0FFD1FE7
:10391000E10FF11D17FDFA95908187E39A3008F4C5
:1039200080E3890F51DFEECF80E3A0960FB6F894C5
:10393000DEBF0FBECDBFDF91CF911F910F91FF90E2
:10394000EF90DF90CF9040CFA0960FB6F894DEBFF7
:103950000FBECDBFDF91CF911F910F91FF90EF90E0
:10396000DF90CF900895682F70E090E080E04AE00B
:1039700095CFBC0190E080E04AE090CF8F929F927B
:10398000AF92BF92CF92DF92EF92FF92CF936B01F3
:103990007C01B42E20E030E0A9010E94A59F87FFA2
:1039A00006C08DE211DFF7FAF094F7F8F09460E0CA
:1039B00070E080E09FE3C0E02DEC3CEC4CEC5DE37C
:1039C0000E940AA0CF5FBC12F7CFA70196010E9408
:1039D00049A66B017C010E9492A74B015C010E94E9
:1039E000A99F9B01AC01C701B6010E9448A66B01CB
:1039F0007C014AE0C501B40151DF8EE2E5DEC15031
:103A0000E8F020E030E040E251E4C701B6010E9456
:103A10000AA06B017C010E9492A74B015C014AE065
:103A20003DDFC501B4010E94A99F9B01AC01C70104
:103A3000B6010E9448A66B017C01E1CFCF91FF90B7
:103A4000EF90DF90CF90BF90AF909F908F900895B0
:103A5000CF92DF92EF92FF92CF936B017C01C42F44
:103A60004A3061F4F7FE0AC0F094E094D094C09418
:103A7000C11CD11CE11CF11C8DE2A6DE4C2FC7013C
:103A8000B601CF91FF90EF90DF90CF9007CFBC01B0
:103A9000990F880B990B4AE0DBCFCF93DF93EC01B2
:103AA000FE0184912196882311F08EDEF9CFDF91FB
:103AB000CF910895CF938CE99CE1EFDF80E053DF55
:103AC000C091570B89E99CE1E8DF8C2F4CDF8AE03D
:103AD000CF917ACEEF92FF920F931F93CF937B01FA
:103AE0008A01C2E48F3F09F0C4E580E26DDE8C2FCD
:103AF0006BDE8AE369DEF7016081718182819381E7
:103B000042E03CDF89E89CE1C8DFF8016081718117
:103B10008281938142E032DF62E070E080E090E0F9
:103B2000CF911F910F91FF90EF900C94A812CF931B
:103B3000C82FCB01B2DF8DE29FE0AFDF8EE19FE0C7
:103B4000CC2311F083E29FE0A8DF8AE0CF913CCE46
:103B5000CF9382E49FE0A1DF8CB1C1E085FB882791
:103B600080F96CE37FE08C27E2DF8091030186958A
:103B7000817066E37FE08C27DADF89B183FB8827D9
:103B800080F960E37FE08C27CF91D1CF0F931F9313
:103B9000CF938C01C62F8CE09AE07FDFC8017DDFD8
:103BA0008AE312DE80E38C0F0FDE8AE0CF911F9153
:103BB0000F910ACEAF92BF92CF92DF92EF920F9306
:103BC0001F93CF93DF935B01EA016901882309F416
:103BD00054C082E197E061DFF501608171818281EB
:103BE000938146E0CBDEE11009C089E097E055DF24
:103BF000688179818A819B8146E0C0DE82E097E01E
:103C00004CDFF601608171818281938143E0B6DEF1
:103C10008BEF96E042DFF8016081718182819381B0
:103C200043E0ACDE82EF96E038DFF601208131819F
:103C300042815381F80160817181828193810E9468
:103C400048A643E09BDEEE20D1F08AE0BDDD8DED9D
:103C500096E023DF688179818A819B8146E08EDE50
:103C60008AE0B2DD8AE0DF91CF911F910F91EF9052
:103C7000DF90CF90BF90AF90A7CDE110E8CFDF915C
:103C8000CF911F910F91EF90DF90CF90BF90AF90A9
:103C900008950F931F93CF938C01C62F80E394E078
:103CA000FCDEC801FADECC2329F08AE0CF911F9117
:103CB0000F918ACDCF911F910F91089560E082E618
:103CC00090E2E7DF88E494E0E8DE8AE07DCDCF9300
:103CD000DF93EC0160E08AE394E0DBDFCE01DDDE20
:103CE0008AE0DF91CF9170CDCF93DF93EB01D5DEEA
:103CF000CE01DF91CF913DCECF92DF92EF92FF9236
:103D00006A017B01CADE44E0C701B601FF90EF9073
:103D1000DF90CF9033CE4F925F926F927F928F92CF
:103D20009F92AF92BF92CF92DF92EF92FF920F934A
:103D30001F93CF93DF93C0ECD1E14C845D846E84FC
:103D40007F8400ED11E1F80124813581468157819E
:103D50006C817D818E819F810E9449A64B015C010F
:103D6000F8012085318542855385688579858A8566
:103D70009B850E9449A66B017C01F801208131815D
:103D800042815381688179818A819B810E9449A601
:103D9000AB01BC0188E591E2AFDFB501A40184E588
:103DA00091E2AADFB701A60180E591E2A5DFB301A8
:103DB000A2018CE491E2DF91CF911F910F91FF90CE
:103DC000EF90DF90CF90BF90AF909F908F907F90BB
:103DD0006F905F904F9090CF4F925F926F927F92D3
:103DE0008F929F92AF92BF92CF92DF92EF92FF920B
:103DF000CF93DF93CDB7DEB7E0970FB6F894DEBF71
:103E00000FBECDBF8EE09CE048DE60E08EEF9BE011
:103E1000BDDE60E089EE9BE0B9DE61E082EE9BE012
:103E2000B5DE61E087ED9BE0B1DE61E088EC9BE010
:103E3000ADDE61E088EB9BE0A9DE60E08FEA9BE00D
:103E4000A5DE61E085EA9BE0A1DE60E08BE99BE016
:103E50009DDE60E084E99BE099DE61E08CE89BE018
:103E600095DE60E08EE79BE091DE60E080E79BE01E
:103E70008DDE60E081E69BE089DE60E083E59BE02B
:103E800085DE60E08DE39BE081DE61E08CE29BE01B
:103E90007DDE61E087E19BE079DE61E088E09BE028
:103EA00075DE60E081E09BE071DE60E08AEF9AE021
:103EB0006DDE60E081EF9AE069DE60E08CED9AE013
:103EC00065DE60E08EEC9AE061DE61E08BEB9AE00B
:103ED0005DDE60E08EEA9AE059DE61E089EA9AE010
:103EE00055DE61E08CE99AE051DE60E088E89AE016
:103EF0004DDE60E085E79AE049DE60E081E492E132
:103F000096D9682F61708CE69AE040DE19821A8299
:103F10001B821C821D821E821F82188619861A86A9
:103F20001B861C8680E090E8A8E9B3E48D879E8715
:103F3000AF87B88B898B9A8BAB8BBC8B80E090E082
:103F4000A8ECB3E48D8B9E8BAF8BB88FCE0101961E
:103F50000E942C16CE010D960E942C16E0EDF1E188
:103F6000408051806280738084809580A680B78075
:103F7000C084D184E284F38429813A814B815C81BD
:103F8000C301B2010E9449A6698F7A8F8B8F9C8FE3
:103F90002D813E814F815885C501B4010E9449A6FB
:103FA0006D8F7E8F8F8F98A329853A854B855C8591
:103FB000C701B6010E9449A669A37AA38BA39CA35B
:103FC0002D853E854F855889C301B2010E9449A6BF
:103FD0006DA37EA38FA398A729893A894B895C8911
:103FE000C501B4010E9449A669A77AA78BA79CA71F
:103FF0002D893E894F89588DC701B6010E9449A677
:104000006DA77EA78FA798AB20E030E0A901C30180
:10401000B2010E9449A6AB01BC0188E59AE06CDEC2
:1040200020E030E0A901C501B4010E9449A6AB011E
:10403000BC0184E59AE060DE20E030E0A901C70120
:10404000B6010E9449A6AB01BC0180E59AE054DEAE
:1040500020E030E848E953E4C301B2010E9449A6D8
:10406000AB01BC0186E49AE047DE20E030E848E995
:1040700053E4C501B4010E9449A6AB01BC0182E42E
:104080009AE03ADE20E030E048EC53E4C701B601A4
:104090000E9449A6AB01BC018EE39AE02DDE498D5A
:1040A0005A8D6B8D7C8D8DE29AE026DE4D8D5E8D76
:1040B0006F8D78A189E29AE01FDE49A15AA16BA118
:1040C0007CA185E29AE018DE4DA15EA16FA178A5E2
:1040D0008BE19AE011DE49A55AA56BA57CA587E185
:1040E0009AE00ADE4DA55EA56FA578A983E19AE066
:1040F00003DE81E19AE0D1DC8BED92E0B6DB8AE071
:1041000063DBE0960FB6F894DEBF0FBECDBFDF9144
:10411000CF91FF90EF90DF90CF90BF90AF909F90A6
:104120008F907F906F905F904F900895CF92DF9225
:10413000EF92FF926A017B01B0DC4AE0C701B60151
:10414000FF90EF90DF90CF9083CCE7EDF0E180819E
:1041500081834091591150915A1160915B11709176
:104160005C114F5F5F4F6F4F7F4F83E491E2DEDF63
:104170008AE02ADB8FE391E290CCCF93DF93EC01CE
:10418000488159816A817B8182ED9BE1CFDF4C813F
:104190005D816E817F8184E591E2C8DF4885598524
:1041A0006A857B8580E591E2C1DF8AE0DF91CF916E
:1041B0000BCBCF93DF93CDB7DEB72C970FB6F89428
:1041C000DEBF0FBECDBFA7DD0E9442159CE0E1E23D
:1041D000F4E0DE01119601900D929A95E1F78111BC
:1041E0000E944F15CE010196C8DF2C960FB6F894A9
:1041F000DEBF0FBECDBFDF91CF910895CF93DF9388
:10420000EB014BDCCE01DF91CF9141CC1F93CF93DB
:10421000DF9300D000D01F921F92CDB7DEB7182FCA
:104220006091970470919804072E000C880B990BED
:104230000E94AB9F6D837E838F83988780919304C8
:1042400090919404A0919504B091960489839A83E7
:10425000AB83BC83AE014B5F5F4FBE016F5F7F4F8F
:104260008AEF38DC60917B0470917C04072E000C8F
:10427000880B990B0E94AB9F6D837E838F839887F9
:104280008091770490917804A0917904B0917A0498
:1042900089839A83AB83BC83AE014B5F5F4FBE01C2
:1042A0006F5F7F4F8FEF16DC60917D041F3F39F009
:1042B00087E11802F0011124E157FB4F628570E09D
:1042C00081E99CE19BDF60917D0470E08CE89CE1DA
:1042D00095DF28960FB6F894DEBF0FBECDBFDF91F5
:1042E000CF911F91089589E294E0D7CB83E294E0C7
:1042F000D4CBEC01162F0E94F518209729F0F6DF99
:10430000CE01CBDB8AE060DAEEDF84E691E2C5DB4A
:1043100061E08BE591E2BDDC89EE93E030E6019748
:1043200029F0232F2A950000E9F7F9CFF89489EEB8
:1043300093E038EE019729F0232F2A950000E9F742
:10434000F9CF0E94F518112319F02CDAA895FECFA9
:1043500015DAFCCFEF92FF920F931F93CF93C82FE4
:104360007B018A018091AD04833070F0BCDFC7010E
:1043700094DB81EE9BE191DBC7FD16C08C2FCC0F47
:10438000990B85DB8AE020DA0E94F518A8958091C8
:10439000320481110DC081E08093320482E0809369
:1043A000AD0460E0C801A5DF8DED9BE176DBEACFCF
:1043B000CF911F910F91FF90EF9008954F925F92D0
:1043C0006F927F928F929F92AF92BF92CF92DF9225
:1043D000EF92FF920F931F93CF93DF93EC015B015A
:1043E0004A01D22E81E090E02FEFD21611F090E03A
:1043F00080E025E0289FF001299FF00D1124E45E64
:10440000F44F8481882309F457C01C821D821E82C8
:104410001F8218868C818230A1F0833009F47FC01E
:104420008130C9F52D813E814F815885F50160812C
:104430007181828193810E94A59F87FD2CC082E0BB
:104440008C83B701FF0C880B990B0E94AB9F9B01DB
:10445000AC016D817E818F8198850E9448A69B0169
:10446000AC01F50160817181828193810E946FA806
:1044700087FD47C00E94D9126B017C019801A8EE0C
:10448000B3E00E941DA6C60ED71EE81EF91EC88204
:10449000D982EA82FB82DF91CF911F910F91FF9029
:1044A000EF90DF90CF90BF90AF909F908F907F90D4
:1044B0006F905F904F900895F4014080518062802A
:1044C0007380A30192016D817E818F8198850E9406
:1044D000A59F882309F49ECF4D825E826F827886E5
:1044E000CC24C39420E030E0A901F4016081718103
:1044F000828193810E946FA818160CF0C12CCC8287
:1045000089CF0E94D912088119812A813B81601BC1
:10451000710B820B930B97FDBECF83E08C8349E632
:104520005CE169E77CE18D2DDF91CF911F910F91C7
:10453000FF90EF90DF90CF90BF90AF909F908F90C3
:104540007F906F905F904F9005CF80911A0B8823DA
:1045500019F010921A0B089560E080E19FE0C9DE27
:10456000882379F1C3DE4091A1105091A21060918F
:10457000A3107091A4108EE191E2BEDB4091A510D2
:104580005091A6106091A7107091A8108BE191E254
:10459000B3DB4091A9105091AA106091AB107091BB
:1045A000AC1088E191E2A8DB4091AD105091AE10C3
:1045B0006091AF107091B01085E191E29DDB8AE0CF
:1045C00003C980E201D9CFCFCF93DF938FDEC091B3
:1045D0008B10D0918C1082E091E25FDACE0145D948
:1045E0008FEF90E2DF91CF9158CA0F931F93CF9333
:1045F00081110FC0C42F8B0179DE8EE590E14DDA79
:10460000C8014BDACC2329F08AE0CF911F910F919A
:10461000DBC8CF911F910F9108958091D710909191
:10462000D8102FEF3FEF981751F0E92FF0E0E95243
:10463000FF4E228130E09F5F9F779093D810C90191
:1046400008950F931F93CF938C01C62F4CDE40919A
:10465000591150915A1160915B1170915C11C80110
:1046600065DD8AE0B1D8D9DF0196E9F78C2F6DDDE1
:1046700010925E1110925D11CF911F910F910895CC
:104680008F929F92AF92BF92CF92DF92EF92FF9262
:104690000F931F93CF93DF93B0E4A0E06A2F70E0F5
:1046A000AB014B0F511D55954795411119C0E5EAD6
:1046B000FCE165917491072E000C880B990B0E9408
:1046C000AB9FDF91CF911F910F91FF90EF90DF9003
:1046D000CF90BF90AF909F908F900895B42FE0CF70
:1046E0004A1711F0B41303C0E1EAFDE1E2CF9A01E9
:1046F00021503109220F331F220F331FF901ED55CD
:10470000F34EE590F490F901E955F34EC591D4913B
:104710008E159F051CF3A42FC817D9070CF4BECF24
:10472000F901EB55F34E05911491F901E755F34E5C
:10473000C590D490BC016E197F09072E000C880B20
:10474000990B0E94AB9F4B015C01B601601B710B82
:10475000072E000C880B990B0E94AB9F9B01AC01AC
:10476000C501B4010E940AA04B015C01BE016E1993
:104770007F09072E000C880B990B0E94AB9F9B01B1
:10478000AC01C501B4010E9425A76B017C01B801F1
:10479000110F880B990B0E94AB9F9B01AC01C701C5
:1047A000B6010E9449A68DCFCF93DF93A895809143
:1047B00091049091920464DF609393047093940445
:1047C000809395049093960480917504909176045B
:1047D0000E9409136093770470937804809379049E
:1047E00090937A04C0919104D091920480914802F0
:1047F00090914902C817D90734F44BE25CE168E3B1
:104800007CE180E0A7DD80919704909198041816D0
:1048100019066CF480914602909147028C179D070F
:1048200034F44AE45CE167E57CE180E093DD2091CB
:104830007504309176048091A8049091A9042817FA
:10484000390734F44BE25CE168E37CE18FEF82DD11
:1048500080917B0490917C04181619069CF4209199
:10486000750430917604809144029091450282173C
:10487000930744F44AE45CE167E57CE18FEFDF9164
:10488000CF9168CDDF91CF9108950F931F93CF9370
:10489000DF93C82FD1E0D827811101C027DD89E738
:1048A00092E1FBD883E792E1F8D88AE00E94E41B0A
:1048B0008AE00E94E41BC11110C018DD8EE590E172
:1048C000ECD880E692E1E9D88091AD03882309F421
:1048D00037C28AE00E94E41B09DD6091AD0370E0FD
:1048E0008CE492E18BDC4091A9035091AA03609182
:1048F000AB037091AC0389E492E1FED98AE00E9497
:10490000E41B41E069E372E18C2F6FDE8D2F28DE1E
:1049100041E06CE172E18C2F68DEC11101C0E6DC80
:104920004091B1105091B2106091B3107091B410D9
:1049300083E192E1E1D94091B5105091B6106091B8
:10494000B7107091B8108BE191E2D6D94091B910AF
:104950005091BA106091BB107091BC1088E191E247
:10496000CBD94091BD105091BE106091BF10709195
:10497000C01085E191E2C0D98AE00E94E41B41E0C9
:1049800062EF71E18C2F31DEC11101C0AFDC6091AB
:104990008D1070918E1080918F10909190100E94C8
:1049A000A99FAB01BC0189EE91E1A6D9609191105C
:1049B0007091921080919310909194100E94A99FF1
:1049C000AB01BC018BE191E297D960919510709198
:1049D000961080919710909198100E94A99FAB011A
:1049E000BC0188E191E288D96091991070919A1088
:1049F00080919B1090919C100E94A99FAB01BC01DB
:104A000085E191E279D98AE00E94E41B41E060EA05
:104A100071E18C2FEADDC11101C068DC4091C11049
:104A20005091C2106091C3107091C41087E991E158
:104A300063D94091C5105091C6106091C710709114
:104A4000C81084E991E158D94091C9105091CA1019
:104A50006091CB107091CC1081E991E14DD98AE041
:104A60000E94E41B41E061E171E18C2FBEDDC111C8
:104A700001C03CDC60919D1070919E1080919F1050
:104A80009091A0100E94A99FAB01BC0188E091E128
:104A900033D94091CD105091CE106091CF107091CC
:104AA000D01085E091E128D94091D1105091D210D9
:104AB0006091D3107091D41081E991E11DD940919A
:104AC000420B5091430B6091440B7091450B82E077
:104AD00091E112D94091460B5091470B6091480BE0
:104AE0007091490B8BE191E207D940914A0B5091AB
:104AF0004B0B60914C0B70914D0B88E191E2FCD80F
:104B000040914E0B50914F0B6091500B7091510B97
:104B100085E191E2F1D88AE00E94E41B41E065EF73
:104B200070E18C2F62DDC11101C0E0DB4091AE0469
:104B30005091AF046091B0047091B1048CEE90E19B
:104B4000DBD84091B2045091B3046091B4047091E9
:104B5000B5048BE191E2D0D84091B6045091B704EE
:104B60006091B8047091B90488E191E2C5D88AE0F7
:104B70000E94E41B41E06EED70E18C2F36DDC11127
:104B800001C0B4DB40919A0450919B0460919C0455
:104B900070919D0485ED90E1AFD82CEA35EC47E2A9
:104BA0005EE360919E0470919F048091A0049091B7
:104BB000A1040E9425A7AB01BC0182ED90E19CD825
:104BC0002CEA35EC47E25EE36091A2047091A30405
:104BD0008091A4049091A5040E940AA0AB01BC019D
:104BE0008FEC90E189D88AE00E94E41BC11101C0DA
:104BF0007DDB40917E0450917F0460918004709130
:104C0000810486EC90E178D82CEA35EC47E25EE34B
:104C10006091820470918304809184049091850452
:104C20000E9425A7AB01BC0183EC90E165D82CEA7A
:104C300035EC47E25EE360918604709187048091D1
:104C40008804909189040E940AA0AB01BC0180EC09
:104C500090E152D88AE00E94E41B40E061EB70E1F1
:104C60008C2FC3DCC11109C083E792E10E944D1D66
:104C700081E690E10E944D1D39DB009102121091F6
:104C80000312F801408151816281738188EA90E1C9
:104C900033D8F80144815581668177818BE191E2B7
:104CA0002BD84091FE115091FF116091001270912C
:104CB000011288E191E220D88AE00E94E41B41E0E1
:104CC00068E970E18C2F91DCC11101C00FDB4091CC
:104CD000520B5091530B6091540B7091550B8FE810
:104CE00090E10AD88AE00E94E41B41E061E770E1AC
:104CF0008C2F7BDCC11101C0F9DA84E690E10E94BF
:104D00004D1D4091A5035091A6036091A70370919A
:104D1000A8038FE690E10E947C1E4091A103509170
:104D2000A2036091A3037091A4038CE690E10E941A
:104D30007C1E8AE0DF91CF911F910F910C94E41BB0
:104D400085E592E10E944D1DC7CDEF92FF920F9332
:104D50001F93CF937C018B01C42F60E082E690E229
:104D60000E94491EC7010E944D1D80E20E94E41B63
:104D7000C8010E944D1DCC2319F08C2F0E94E41B0A
:104D80008AE0CF911F910F91FF90EF900C94E41B5C
:104D9000DF92EF92FF920F931F93CF93DF93D82E62
:104DA0007B018A01E9010E945E1ED092260B40E041
:104DB000B70186E790E2C9DF0115110529F040E04F
:104DC000B8018FE690E2C1DF209729F040E0BE01F4
:104DD0008FE690E2BADF60E082E690E20E94491E30
:104DE0008AE690E20E944D1D8AE0DF91CF911F91EB
:104DF0000F91FF90EF90DF900C94E41BDF92EF9205
:104E0000FF920F931F93CF93DF931F92CDB7DEB71F
:104E10008C01D42E7C01E60EF71E8091D510909166
:104E2000D6100E94AAA58983DD2011F0F8018083A5
:104E3000CE0101960E94F6108091D5109091D61067
:104E400001969093D6108093D5100F5F1F4F0E15CB
:104E50001F0519F780E00F90DF91CF911F910F91FF
:104E6000FF90EF90DF9008954091BE0321E042272C
:104E70006CE070E0C3CF4091BE0321E0422764E0C4
:104E800070E0BCCF4091BE0321E0422761E070E0BA
:104E9000B5CF4091BE0321E0422762E070E0AECF83
:104EA0004091BE0321E0422761E070E0A7CF40912E
:104EB000BE0321E0422768E070E0A0CF4091BE032E
:104EC00021E042276CE070E099CF41E061E070E0C2
:104ED00095CF4091BE0321E0422790CFAF92BF9281
:104EE000CF92DF92EF92FF920F931F93CF93DF93B6
:104EF000CDB7DEB72C970FB6F894DEBF0FBECDBF8F
:104F0000E62E2BECA22E22E0B22E6C01F12CF50144
:104F100011915F0180E20E94E41B812F0E94E41B3B
:104F20008AE30E94E41BF601619171918191919154
:104F30006F0120E030E0A9010E946FA887FD03C047
:104F400080E20E94E41BF6013497608171818281C6
:104F500093818E010F5F1F4F23E041E00E94CD9AA5
:104F60000E94351CF394EF10D2CF8AE00E94E41B1C
:104F70002C960FB6F894DEBF0FBECDBFDF91CF9158
:104F80001F910F91FF90EF90DF90CF90BF90AF9067
:104F900008954F925F926F927F928F929F92AF92FD
:104FA000BF92CF92DF92EF92FF920F931F93CF9316
:104FB000DF93CDB7DEB768970FB6F894DEBF0FBEAC
:104FC000CDBF8C015B015A834983FC01EF5BFF4F2E
:104FD00060817181828193810E94A99F6B017C0114
:104FE000D5012D913D914D915C910E940AA00E94A6
:104FF0000FA72B013C01E981FA8120813181428197
:105000005381C701B6010E940AA00E940FA74B015D
:105010005C01C301B2010E9492A7698B7A8B8B8BD2
:105020009C8B683771058105910540F428E730E0D5
:1050300040E050E0298B3A8B4B8B5C8BC501B4016F
:105040000E9492A76D877E878F87988B683771053E
:105050008105910540F488E790E0A0E0B0E08D87FD
:105060009E87AF87B88BF801E35BFF4F20813181CA
:105070004281538129833A834B835C83CA01B901FE
:105080000E94AB9F2B013C0169897A898B899C899D
:105090000E94A99F69877A878B879C8720E030E0F0
:1050A000A901C301B2010E94A59F882309F43BC155
:1050B000A7019601C701B6010E940AA04B015C013D
:1050C00029853A854B855C85CA01B9010E940AA0F1
:1050D0009B01AC01C501B4010E9448A64B015C01D3
:1050E000A3019201C301B2010E9449A69B01AC0138
:1050F000C501B4010E9425A70E940FA70E9492A794
:105100006D837E838F83988769817A818B819C816F
:1051100090958095709561957F4F8F4F9F4F0E941E
:10512000AB9F4B015C016D857E858F8598890E94C0
:10513000A99F69837A838B839C8320E030E0A90157
:10514000C501B4010E94A59F882309F4F0C02981FC
:105150003A814B815C81CA01B9010E940AA06D8B22
:105160007E8B8F8B988FA7019601C701B6010E9495
:105170000AA09B01AC016D897E898F89988D0E9460
:1051800048A66B017C01A5019401C501B4010E94F0
:1051900049A69B01AC01C701B6010E9425A70E9448
:1051A000BEA7D80195968D909D90AD90BC90989794
:1051B000750164012D813E814F815885C21AD30A41
:1051C000E40AF50A0E9492A7C61AD70AE80AF90A61
:1051D000F7FE6EC020E030E0A901C301B2010E94D9
:1051E000A59F882309F4A7C0C501B4010E94A99F07
:1051F0006B017C01A3019201C301B2010E9449A687
:105200009B01AC01C701B6010E940AA06B017C01A1
:1052100029853A854B855C85CA01B9010E940AA09F
:105220009B01AC01C701B6010E9448A66B017C013D
:1052300029813A814B815C81CA01B9010E940AA08F
:105240009B01AC01C701B6010E9449A66B017C011C
:1052500020E030E040E850E4C301B2010E940AA01F
:105260009B01AC01C701B6010E9425A70E940FA7B0
:105270006B017C0120E030E0A9010E946FA81816A4
:105280001CF0C12CD12C7601C701B6010E9492A757
:105290006D837E838F83988786169706A806B90646
:1052A00020F48D829E82AF82B886C12CD12C7601EB
:1052B0008D819E81AF81B885F80181A792A7A3A7B0
:1052C000B4A7C80ED91EEA1EFB1EC5A6D6A6E7A621
:1052D000F0AAEB5BFF4F29893A894B895C892083CF
:1052E00031834283538334968D859E85AF85B889FB
:1052F00080839183A283B38368960FB6F894DEBF50
:105300000FBECDBFDF91CF911F910F91FF90EF9016
:10531000DF90CF90BF90AF909F908F907F906F90D5
:105320005F904F90089560E070E0CB01E5CE60E0C3
:1053300070E0CB0134CF60E070E0CB0197CFEF920B
:10534000FF920F931F93CF93DF93CDB7DEB7629792
:105350000FB6F894DEBF0FBECDBF0E94151688238E
:10536000E1F147EE52E082FF02C04EED52E027EE3F
:1053700032E081FF02C020EE32E080FD2BC087EEDC
:1053800092E05F934F933F932F939F938F9386E980
:105390009FE09F938F93CE0101967C019F938F9303
:1053A0000E94769F0E947621C7010E94401C0FB682
:1053B000F894DEBF0FBECDBF81E062960FB6F894C1
:1053C000DEBF0FBECDBFDF91CF911F910F91FF9038
:1053D000EF90089582EE92E0D4CF80E0EECF4F922E
:1053E0005F926F927F92AF92BF92CF92DF92EF92D5
:1053F000FF920F931F93CF93DF9310924B03109262
:105400004A032FE320934E0310924D0310924C0356
:1054100010924F03109250031092510310925203B6
:105420009C01E90198812F5F3F4F9032D1F39E3468
:10543000C9F4898190ED980F9A3020F08D3211F0E7
:105440008B3281F422969E012F5F3F4F88818053DB
:105450008A3008F46EC09E012F5F3F4F88818032F2
:1054600009F469C0D0938C10C0938B107E012FEF8C
:10547000E21AF20A18816AE270E0C7010E9416A9D6
:10548000009731F0FC01319780818032E1F3118285
:105490001D3421F0143511F01734E1F5F701808146
:1054A0009FEFE91AF90A8032C9F380538A3090F5E8
:1054B00010934E0390E080E06AE0AF014F5F5F4FD2
:1054C000689F9001699F300D1124C901C097208108
:1054D000820F911D27FD9A95FA01208120532A30D1
:1054E00060F390934D0380934C03DF0131962C9130
:1054F0002032D9F31D3459F58E31910539F0E8F495
:105500008731910519F08C31910509F5B0934B0362
:10551000A0934A03DF91CF911F910F91FF90EF90DD
:10552000DF90CF90BF90AF907F906F905F904F9043
:105530000895E90188CFE9018ECF8537910538F0CC
:105540008737910518F3803AE3E09E07F9F240E0CF
:1055500050E0BA0130E020E0C12CD12C7601C39498
:10556000FD0131960C91002309F48CC00132F1F455
:105570001D34E1F480329105C9F440934F035093F8
:1055800050036093510370935203F0934B03E093E5
:105590004A0363E270E0CF010E9416A9009709F464
:1055A000B9CFFC011082B6CFDF01DACF01540A3146
:1055B00008F063C0DF01BD90D0E2AD2EBA1499F0BF
:1055C000A0EDAB0DAA3008F1AEE2BA120EC0A18177
:1055D000A053AA30D0F02115310519F49F012150B4
:1055E0003109B12C16C0FD01E5CFADE2AA2EBA14E7
:1055F00019F0ABE2BA12EFCFA181B0EDBA0FBA3019
:1056000020F0AE3241F7A281E3CFBE2EBC1A309714
:1056100041F3A02FB0E02601370104C0440C551C13
:10562000661C771C0A95D2F74429552966297729E3
:10563000A05DBC4FBC92A081A154AA3108F4B4CFA4
:10564000DF010191002309F48BCFD0EDBD2EB00E08
:10565000D9E0AD2EAB14A0F7D3EDBD2EB00EAA2429
:10566000A394AB1468F70B3259F3FD0131960C91FA
:10567000003209F075CFDF01F8CF21153105D9F6D9
:105680009D01D9CF30934B0320934A0340934F039E
:105690005093500360935103709352033BCF80911A
:1056A0002B0390912C03009731F04AE050E070E01A
:1056B00060E00C94109E60E070E0CB010895809152
:1056C0002B0390912C03009731F04AE050E070E0FA
:1056D00060E00C94E49C60E070E0CB010895EFDFA3
:1056E00097FD0AC0ECDF6F3F71058105910509F058
:1056F0002CF4E5DF862F089580E008958FEF08955C
:10570000CF9384E50E94BC1AC0E08823D1F0E7DF84
:10571000C82F1816B4F40E9476218DE40E94E41B71
:1057200080914C0390914D030E94B91C6C2FCC0FBB
:10573000770B89E197E00E94FE208AE00E94E41B3B
:10574000CFEF8C2FCF910895CF93C62F0E94BC1A14
:10575000882311F0CF91C3CF8C2FCF9108958091E2
:105760002B0390912C03892B39F0B9DF91E0811143
:1057700001C090E0892F089591E0FCCFCF93DF9393
:10578000C82FD62F0E94BC1A882319F0DF91CF9121
:10579000E6CF8C2F0E946E1A811101C08D2FDF91F0
:1057A000CF9108958CDFCB010895CF93DF93EB0168
:1057B0000E94BC1A882319F0DF91CF91F3CFCE015C
:1057C000DF91CF9108952F923F924F925F926F9207
:1057D0007F928F929F92AF92BF92CF92DF92EF9281
:1057E000FF920F931F93CF93DF93CDB7DEB7C157CF
:1057F000D1090FB6F894DEBF0FBECDBF70E060E0F8
:1058000085E4D3DF8F838F3F09F473C08823F1F0E1
:105810008CEE9EE00E944D1DCF58DF4F0FB6F894DE
:10582000DEBF0FBECDBFDF91CF911F910F91FF90D3
:10583000EF90DF90CF90BF90AF909F908F907F9030
:105840006F905F904F903F902F90089524EB30E041
:105850003987288783E50E94BC1A882319F0A2DFC4
:105860009987888765E070E083E49FDFB82E60E069
:1058700085E584DFA0968FAFA0978FED9EE00E9414
:10588000671E0E94D9126E877F87888B998B5F81F4
:105890000CE310E05F3F11F004E110E08E859F857E
:1058A000A889B9898C53964FAF4FBF4F809363043B
:1058B00090936404A0936504B09366048F818F3F36
:1058C00009F4CAC1E82E880FFF08F701A3E0EE0F24
:1058D000FF1FAA95E1F7EA5BFD4F868197810F973D
:1058E000A885B9858A179B070CF092C384EB9EE0CC
:1058F00091CF46E450E059874887ACCF20E030E0B4
:1059000040E05EE368962CAF3DAF4EAF5FAF689767
:10591000F3C12AE939E949E15FE36C962CAF3DAF69
:105920004EAF5FAF6C97F6C16D961FAE6D97FAC123
:105930001091930430909404209095040091960463
:1059400099C20E94191BD2C26F96EEADFFAD6F9740
:1059500080832AC34BEEC42ED12CE12CF12CD7C36B
:1059600084E190E0A0E0B0E08E8B9F8BA88FB98F90
:1059700034E1C32ED12CE12CF12CD9C3CE8ADF8A9D
:10598000E88EF98ED4C36F96EEADFFAD6F9780832E
:10599000A4C4D501C40126962CAD3DAD4EAD5FAD7E
:1059A0002697821B930BA40BB50BB7FD5CC06D96BD
:1059B0008FAD6D970E9406218AE00E94E41BD501FD
:1059C000C4018053984FAF4FBF4F26968CAF9DAF09
:1059D000AEAFBFAF269727969FAD2797911181C095
:1059E0002B962CAD3DAD4EAD5FAD2B97612F732D3A
:1059F000822D902F0E946FA818160CF05CC020E03A
:105A000030E040E050E4612F732D822D902F0E94F2
:105A100049A62B966CAF7DAF8EAF9FAF2B9722968A
:105A20002CAD3DAD4EAD5FAD2297280D391D4A1D01
:105A30005B1D2F962CAF3DAF4EAF5FAF2F97E0961B
:105A40006CAD7DAD8EAD9FADE0970E94AB9F212FD9
:105A5000332D422D502F0E94A59F881F8827881F15
:105A600027968FAF27978E859F85A889B9898E8FB6
:105A70009F8FA8A3B9A32A8D3B8D4C8D5D8D2817D0
:105A800039074A075B0720F42E8F3F8F48A359A39D
:105A90008E8D9F8DA8A1B9A1881A990AAA0ABB0A5E
:105AA00091E889169FE4990692E1A906B10480F174
:105AB00080E09EE09CC2D501C4012F962CAD3DAD87
:105AC0004EAD5FAD2F97821B930BA40BB50B4FEF21
:105AD0005BE16EE07CE1B7FDC6CF8F810E94AA2119
