:100000000C9467110C9498110C9498110C949811FD
:100010000C9498110C9498110C9498110C949811BC
:100020000C9498110C9498110C9498110C949811AC
:100030000C9498110C9498110C9498110C9498119C
:100040000C9498110C945D4B0C9498110C9498118D
:100050000C9498110C9498110C943B830C94B4A3B9
:100060000C9498110C94AC2D0C94772D0C94981141
:100070000C9498110C9498110C9498110C9498115C
:100080000C9498110C9498110C9498110C9498114C
:100090000C9498110C9498110C9498110C9498113C
:1000A0000C9498110C9498110C9498110C9498112C
:1000B0000C9498110C9498110C9498110C9498111C
:1000C0000C9498110C9498110C9498110C9498110C
:1000D0000C9498110C9498110C9498110C949811FC
:1000E0000C949811E22DF42D062E172E1F2E522E51
:1000F000232E522E272E2B2E522E2F2E332E372EDE
:10010000402E522E4B2E1F9F229F119F159F1B9FEB
:10011000599F269F2A9F309F349F389F3E9F429F22
:10012000469F599F4C9F509F549FCEA2D3A2D8A2C6
:10013000E2A2ECA265A3F6A2FEA206A310A31AA354
:1001400024A333A33DA365A347A351A35BA3084AFC
:10015000D73B3BCE016E84BCBFFDC12F3D6C7431DB
:100160009ABD56833DDA3D00C77F11BED9E4BB4C32
:100170003E916BAAAABE000000803F05A84CCDB2FC
:10018000D44EB93836A9020C50B9918688083CA6DD
:10019000AAAA2ABE000000803F000C94E2A20C94A0
:1001A000FEA20C94309F0C9465A30C94522E0C94D8
:1001B000062E0C944C9F0C94E22D0C94429F0C94B0
:1001C000172E0C94232E0C94119F0C9410A30C94B6
:1001D000CEA20C9424A30C94ECA20C94272E0C9485
:1001E0002B2E0C94509F0C945BA30C94349F0C9476
:1001F00047A30C942F2E0C94549F0C94D8A20C94CB
:100200001AA30C941F9F0C94F42D0C94159F0C941E
:1002100033A30C94372E0C94D3A20C942A9F0C94E5
:100220003E9F0C9451A30C9406A30C94599F0C94DC
:10023000389F0C943DA30C94269F0C94F6A20C942A
:100240001B9F0C94332E0C941F2E0C944B2E0C944D
:10025000402E0C94469F0C94229F0C9455B24E4114
:100260004E494E495459494E46CDCCCC3D0AD72330
:100270003C17B7D13877CC2B329595E6241FB14F78
:100280000A000020410000C84200401C4620BCBEBD
:100290004CCA1B0E5AAEC59D74434F4D4D554E4929
:1002A000434154494F4E0044525952554E00455215
:1002B000524F5253004543484F0047322F47332097
:1002C00062616420706172616D65746572730A00A9
:1002D000536C6565702E2E2E005A2050726F626529
:1002E0002050617374204265640A005A2050726F76
:1002F0006265205061737420426564004D657368C7
:1003000020706F696E74206F7574206F6620726143
:100310006E67650A004D302053746F70004D3120B8
:1003200053746F7000436F6E74696E7565004E6F25
:10033000204D6F76652E002569792025696420257A
:1003400069682025696D20256973005072696E7493
:100350002074696D653A2000496E76616C6964208D
:1003600050696E204D6F64650A0044454255473A16
:10037000004D31313320530042656420436F6F6C70
:10038000696E672E2E2E004265642048656174698F
:100390006E672E2E2E00417274696C6C6572792026
:1003A0005369646577696E646572205831204F46E1
:1003B000462E002F2F2000416363656C65726174C7
:1003C000696F6E3A2050005741524E494E472120E6
:1003D0004C6F77205A204A65726B206D6179206CD2
:1003E00065616420746F20756E77616E746564203A
:1003F0007061757365732E0A0020204D61783A2074
:100400000020204D696E3A2000536F667420656E9F
:100410006473746F70733A200046523A0020466C41
:100420006F773A200050726F746563746564205072
:10043000696E0A004D424C2041646A757374205AFB
:100440000020643A0020693A0020703A0064697321
:100450000043290A0061626C656420286D696E2082
:1004600074656D702000436F6C64206578747275DC
:100470006465732061726520004D34323120696EED
:10048000636F727265637420706172616D6574650B
:10049000722075736167650A004F666673657473D1
:1004A000204170706C69656400546F6F20666172E2
:1004B0002066726F6D207265666572656E63652079
:1004C000706F696E740A00454550524F4D204F4B76
:1004D0000A003F5A206F7574206F662072616E6744
:1004E000652028003F59206F7574206F6620726167
:1004F0006E676520282D0020746F20003F58206F04
:100500007574206F662072616E676520282D00501B
:10051000726F6265204F66667365742058002028EC
:10052000302D313029002076616C7565206F75742F
:10053000206F662072616E676500416476616E634C
:1005400065204B3D00B5026305AE02A70299025536
:100550004E4B4E4F574E2053544154450047434F46
:1005600044455F494E464F004C43445F504155530C
:10057000455F524553554D450046494C414D454E0A
:10058000545F52554E4F55545F434F4E54494E554C
:10059000450046494C414D454E545F52554E4F55CE
:1005A00054004D38373620526573706F6E64696E33
:1005B000672050524F4D50545F004D323400457209
:1005C000726F722077726974696E6720746F20454C
:1005D0004550524F4D210A0053544F505045442E20
:1005E00020005072696E7465722073746F7070654C
:1005F000642064756520746F206572726F72732E4B
:100600002046697820746865206572726F72206177
:100610006E6420757365204D39393920746F2072EE
:100620006573746172742E202854656D70657261F3
:10063000747572652069732072657365742E20531A
:1006400065742069742061667465722072657374C4
:10065000617274696E67290A004E6F204368656392
:100660006B73756D2077697468206C696E65206E98
:10067000756D6265722C204C617374204C696E65D7
:100680003A2000636865636B73756D206D69736DE7
:10069000617463682C204C617374204C696E653AF8
:1006A00020004C696E65204E756D6265722069731D
:1006B000206E6F74204C617374204C696E65204EFF
:1006C000756D6265722B312C204C617374204C69FE
:1006D0006E653A20004D313130002121204B494CCC
:1006E0004C2063617573656420627920746F6F209C
:1006F0006D75636820696E616374697665207469DD
:100700006D65202D2063757272656E7420636F6D48
:100710006D616E643A2000627573793A207061757C
:1007200073656420666F7220696E7075740A00626A
:100730007573793A2070617573656420666F7220F5
:10074000757365720A00627573793A2070726F630F
:10075000657373696E670A00706F7765726F66669E
:10076000005072696E7465722068616C7465642EE5
:10077000206B696C6C28292063616C6C6564210AAC
:1007800000363726033C3D380E2E303E1224221E02
:100790001A1C180A07430809070844000120746F4F
:1007A0006F206C6F6E6720657874727573696F6EF9
:1007B0002070726576656E7465640A0020636F6CE4
:1007C0006420657874727573696F6E2070726576D7
:1007D000656E7465640A0000809843008098430049
:1007E00000C84300000000000000000000000053AB
:1007F000657474696E67732053746F726564005317
:10080000657474696E67732053746F726564202811
:100810000024F4D43050C38E20C2A24017828B70C3
:1008200011127A910D816CD90AA861E108C7586646
:1008300007615143061E4B5D05C145A7041A4111CE
:1008400004093D9803713931034036DB0265339169
:1008500002D4305402802E1D02632CEE01752AC58D
:1008600001B028A001102781018F2564012B244BA2
:1008700001E0223401AC211F018D200D01801FFCFD
:1008800000841EED00971DDF00B81CD200E61BC6D9
:1008900000201BBC00641AB200B219A8000A19A0FB
:1008A000006A189900D117910040178B00B5168483
:1008B0000031167E00B31579003A157300C7146F26
:1008C0000058146A00EE1366008813630025135E57
:1008D00000C7125B006C12570015125400C1115171
:1008E0000070114F0021114B00D61049008D1047A8
:1008F000004610440002104200C00F4000800F3E2E
:1009000000420F3C00060F3B00CB0E3800930E3721
:10091000005C0E3500270E3400F30D3200C10D319E
:1009200000900D3000600D2E00320D2D00050D2CB5
:1009300000D90C2B00AE0C2900850C29005C0C277B
:1009400000350C27000E0C2600E80B2400C40B24F5
:1009500000A00B23007D0B23005A0B2100390B2133
:1009600000180B2000F80A1F00D90A1E00BB0A1E3F
:10097000009D0A1D00800A1D00630A1C00470A1B17
:10098000002C0A1B00110A1A00F7091A00DD0919C8
:1009900000C4091900AB091900920917007B091856
:1009A00000630917004C09160036091600200916C5
:1009B000000A091500F5081500E0081400CC081419
:1009C00000B8081400A4081400900813007D081251
:1009D000006B081300580812004608120034081172
:1009E00000230811001208110001081100F007107F
:1009F00000E0071000D0071000C0071000B0070F7C
:100A000000A107100091070E0083070F0074070F65
:100A10000065070E0057070E0049070E003B070D43
:100A2000002E070E0020070D0013070D0006070D0E
:100A300000F9060C00ED060D00E0060C00D4060CD3
:100A400000C8060C00BC060C00B0060C00A4060B87
:100A50000099060C008D060B0082060B0077060B32
:100A6000006C060B0061060A0057060B004C060AD4
:100A70000042060A0038060A002E060A0024060A6A
:100A8000001A060A001006090007060A00FD0509FB
:100A900000F4050900EB050900E2050900D9050984
:100AA00000D0050900C7050900BE050900B5050805
:100AB00000AD050800A50509009C0508009405087F
:100AC000008C050800840508007C050800740508F2
:100AD000006C050700650508005D05070056050860
:100AE000004E0507004705070040050800380507C8
:100AF00000310507002A050700230507001C05062D
:100B000000160507000F0507000805060002050787
:100B100000FB040600F5040700EE040600E80406E6
:100B200000E2040700DB040600D5040600CF04063B
:100B300000C9040600C3040600BD040600B704068D
:100B400000B1040500AC040600A6040600A00405DC
:100B5000009B04060095040500900406008A040525
:100B60000085040500800406007A0405007504056C
:100B700000700405006B04050066040500610405AF
:100B8000005C04050057040500520405004D0405EF
:100B90000048040500430405003E0404003A04052F
:100BA0000035040500300404002C0405002704046B
:100BB00000230405001E0404001A040400160405A2
:100BC00000110404000D04040009040500040404D9
:100BD0000000040400FC030400F8030400F4030410
:100BE00000F0030400EC030400E8030400E4030441
:100BF00000E0030400DC030400D8030400D4030471
:100C000000D0030400CC030400C8030300C50303A1
:100C10000024F404D9201BC40C5C0E9804C4095FA2
:100C20000265077101F405F900FB04B3004804876D
:100C300000C10369005803550003034500BE023A92
:100C4000008402310053022A0029022500040220F8
:100C500000E4011C00C8011900AF0117009801143D
:100C60000084011300710110006101100051010E98
:100C70000043010D0036010B002B010B0020010B7E
:100C800000150109000C01090003010800FB000820
:100C900000F3000800EB000700E4000600DE000699
:100CA00000D8000600D2000600CC000500C70005F1
:100CB00000C2000500BD000400B9000400B5000436
:100CC00000B1000400AD000400A9000400A5000369
:100CD00000A20003009F0004009B00030098000393
:100CE000009500020093000300900003008D0002B5
:100CF000008B0003008800020086000200840003CD
:100D000000810002007F0002007D0002007B0002E3
:100D100000790002007700010076000200740002F2
:100D20000072000100710002006F0002006D0001FE
:100D3000006C0002006A0001006900020067000107
:100D4000006600010065000100640002006200010D
:100D50000061000100600001005F0002005D000111
:100D6000005C0001005B0001005A00010059000115
:100D70000058000100570001005600010055000115
:100D80000054000100530000005300010052000114
:100D90000051000100500001004F0001004E000012
:100DA000004E0001004D0001004C0001004B00000E
:100DB000004B0001004A000100490001004800000A
:100DC0000048000100470001004600000046000105
:100DD0000045000000450001004400010043000000
:100DE00000430001004200000042000100410000F9
:100DF0000041000100400001003F0000003F0001F1
:100E0000003E0000003E0001003D0000003D0001EA
:100E1000003C0000003C0000003C0001003B0000E2
:100E2000003B0001003A0000003A000100390000D8
:100E300000390001003800000038000000380001CF
:100E400000370000003700010036000000360000C7
:100E500000360001003500000035000000350001BB
:100E600000340000003400000034000100330000B2
:100E700000330000003300010032000000320000A7
:100E8000003200010031000000310000003100019B
:100E9000003000000030000000300001002F000092
:100EA000002F0000002F0000002F0001002E000086
:100EB000002E0000002E0001002D0000002D00007B
:100EC000002D0000002D0001002C0000002C00006F
:100ED000002C0000002C0001002B0000002B000063
:100EE000002B0000002B0001002A0000002A000057
:100EF000002A0000002A000100290000002900004B
:100F0000002900000029000000290001002800003D
:100F10000028000000280000002800000028000130
:100F20000027000000270000002700000027000025
:100F30000027000100260000002600000026000017
:100F4000002600000026000100250000002500000A
:100F500000250000002500000025000000250001FC
:100F600000240000002400000024000000240000F1
:100F700000240001002300000023000000230000E3
:100F800000230000002300000023000000230001D4
:100F900000220000002200000022000000220000C9
:100FA00000220000002200010021000000210000BA
:100FB00000210000002100000021000000210000AD
:100FC000002100010020000000200000002000009F
:100FD0000020000000200000002000000020000091
:100FE00000200001001F0000001F0000001F000083
:100FF000001F0000001F0000001F0000001F000174
:10100000001E0000001E0000001E0000001E000068
:1010100000C23100001C260000F4190000D80F00A7
:1010200000EB080000C00400007502000040010051
:101030000020436F756E7420583A00453100626598
:1010400064002C2073797374656D2073746F7070F5
:10105000656421204865617465725F49443A2000E7
:1010600000486F6D696E67204661696C6564006F4A
:1010700070656E00545249474745524544007A5FB7
:101080006D696E00795F6D696E00785F6D696E00E5
:101090005265706F7274696E6720656E6473746FE9
:1010A00070207374617475730A00486F6D65202534
:1010B0007325732573204669727374005761726ECD
:1010C000696E673A20486F6D696E672042756D7072
:1010D0002044697669736F72203C20310A00000059
:1010E000484200004842000080400202040000A084
:1010F000400000A04000000040FFFFFF6F6B005267
:101100006573656E643A200023646566696E6520C8
:1011100044454641554C545F004B6420004B6920C8
:10112000004B702000504944204175746F74756EF7
:10113000652066696E697368656421205075742046
:10114000746865206C617374204B702C204B69208F
:10115000616E64204B6420636F6E7374616E747390
:101160002066726F6D2062656C6F7720696E746F98
:1011700020436F6E66696775726174696F6E2E6861
:101180000A00504944204175746F74756E6520667D
:1011900061696C6564212074696D656F75740A00FE
:1011A0000A20436C617373696320504944200A002C
:1011B000204B643A2000204B693A2000204B703AC3
:1011C00020000A204E6F206F76657273686F6F740F
:1011D0000A002054753A2000204B753A2000206DFB
:1011E00061783A2000206D696E3A200020643A2030
:1011F0000020626961733A200050494420417574AF
:101200006F74756E652073746172740A005049447E
:10121000204175746F74756E65206661696C6564D4
:10122000212054656D706572617475726520746FEC
:101230006F20686967680A00504944204175746FDF
:1012400074756E6500504944204175746F74756EF5
:1012500065206661696C656421204261642065785F
:10126000747275646572206E756D6265720A0057DE
:10127000616974696E6720666F7220686561747554
:10128000702E0A004C656176696E67204732360021
:101290003F53706563696669656420582C59206303
:1012A0006F6F7264696E617465206F7574206F660C
:1012B00020626F756E64732E0A003F285229657094
:1012C0006561742076616C7565206E6F7420706C3A
:1012D00061757369626C653B206D7573742062651E
:1012E000206174206C6561737420312E0A003F28E0
:1012F00052296570656174206D7573742062652074
:10130000737065636966696564207768656E206ED1
:101310006F74207573696E6720616E204C43442E94
:101320000A003F537065636966696564206E6F7A71
:101330007A6C652074656D70657261747572652074
:101340006E6F7420706C61757369626C652E0A0033
:101350003F5370656369666965642066696C616D99
:10136000656E742073697A65206E6F7420706C618D
:10137000757369626C652E0A003F53706563696618
:10138000696564207072696D65206C656E6774684C
:10139000206E6F7420706C61757369626C652E0AC3
:1013A000003F5072696D65206C656E677468206DD2
:1013B000757374206265207370656369666965641E
:1013C000207768656E206E6F74207573696E672074
:1013D000616E204C43442E0A003F5370656369667A
:1013E000696564206E6F7A7A6C652073697A65200E
:1013F0006E6F7420706C61757369626C652E0A0083
:101400003F52657472616374696F6E204D756C74C0
:1014100069706C696572206D7573742062652073E4
:1014200070656369666965642E0A003F5370656381
:1014300069666965642052657472616374696F6E70
:10144000204D756C7469706C696572206E6F7420C4
:10145000706C61757369626C652E0A003F5370652C
:10146000636966696564206C617965722068656985
:10147000676874206E6F7420706C61757369626C3C
:10148000652E0A0043292E0A003F53706563696682
:10149000696564206265642074656D70657261744D
:1014A000757265206E6F7420706C61757369626C03
:1014B00065202834302D00473236207374617274F1
:1014C000696E672E2E2E0A004F46460A004661645A
:1014D000652048656967687420004661696C6564C9
:1014E00020746F20656E61626C6520426564204CDB
:1014F0006576656C696E670A004D657368204265A4
:1015000064204C6576656C20646174613A0A004918
:101510006E76616C6964206D6573682E0A00206EBA
:101520006F7420656E74657265642E0A00473238E8
:1015300000206F6620004D424C2047323920706FEA
:10154000696E7420004A206F7574206F6620726186
:101550006E67652028302D0049206F7574206F66F6
:101560002072616E67652028302D004D65736820FC
:1015700070726F62696E6720646F6E652E0A005329
:1015800074617274206D6573682070726F62696E29
:10159000672077697468202247323920533122202E
:1015A00066697273742E0A004732380A473239204E
:1015B000533200686173206E6F20646174612E0A7B
:1015C000004D65736820426564204C6576656C69E2
:1015D0006E67200053206F7574206F662072616EF5
:1015E00067652028302D35292E0A0046696E6973FB
:1015F000686564210A003A207A3A2000476F696ED4
:101600006720746F3A20580043570A0020646972BB
:101610003A0020616E676C653A0053746172742001
:101620007261646975733A00506F736974696F6EA3
:10163000696E67207468652070726F62652E2E2E49
:101640000A003F4C656773206F66206D6F76656D8D
:10165000656E7420696D706C61757369626C65206C
:1016600028302D3135292E0A003F2028582C5929A1
:10167000206F7574206F6620626F756E64732E0A1A
:101680000050726F6265206F7574206F6620626F04
:10169000756E6473003F53616D706C652073697A79
:1016A00065206E6F7420706C61757369626C652063
:1016B00028342D3530292E0A004D3438205A2D502B
:1016C000726F6265205265706561746162696C69F0
:1016D000747920546573740A003F28562965726234
:1016E0006F7365206C6576656C20696D706C6175D3
:1016F0007369626C652028302D34292E0A004865F4
:101700006174696E67204661696C65640048656153
:1017100074696E67206661696C6564004D313132B1
:101720002053687574646F776E00202D20496E76A3
:10173000616C6964206578747275646572206E7579
:101740006D62657220210A00544845524D414C207B
:1017500052554E4157415900546865726D616C2075
:1017600052756E61776179004572723A204D415829
:1017700054454D50004D415854454D5020747269A8
:10178000676765726564004572723A204D494E5430
:10179000454D50004D494E54454D50207472696777
:1017A000676572656400202F002042403A002040A7
:1017B0003A00486F74656E6420746F6F20636F6CBD
:1017C000640A005374616E646172642044657669D2
:1017D0006174696F6E3A20002052616E67653A202D
:1017E00000205369676D613A20004D65616E3A20B3
:1017F00000204D39322058004C6F61642046696CDE
:10180000616D656E74205400496E73657274206654
:10181000696C616D656E7420616E642073656E64C1
:10182000204D3130380A00726573756D6564005261
:101830006573756D696E67005265686561742044F3
:101840006F6E6500526568656174696E672E2E2E35
:101850000052656865617400486561746572205462
:10186000696D656F75740053656E64204D31303855
:1018700020746F2068656174206E6F7A7A6C650AD7
:10188000004E6F7A7A6C65205061726B65640070EF
:101890006175736564004469736D697373005061A9
:1018A0007573650020496E76616C69642065787493
:1018B00072756465722000496E76616C696420659A
:1018C000787472756465720A0020573A004D3130A1
:1018D000362050002020506C616E6E657242756635
:1018E00066657242797465733A20002046726565B8
:1018F000204D656D6F72793A2000436F6D70696C91
:1019000065643A204E6F7620313420323032300A0E
:1019100000204C61737420557064617465643A20D2
:10192000323032302D30382D3237207C20417574E2
:10193000686F723A2028444947412D546563682CEA
:101940002041535758312076312E30290A00322E4B
:10195000302E362E310A004D61726C696E002053B4
:101960006F6674776172652052657365740A002032
:101970005761746368646F672052657365740A0009
:101980002042726F776E206F757420526573657494
:101990000A002045787465726E616C20526573652B
:1019A000740A00506F77657255700A00656E647333
:1019B000746F7073206869743A200070012C019074
:1019C000012701B0012201C0011D01F00118011021
:1019D00002130130020E016002090190020401C0ED
:1019E00002FF000003FA004003F5008003F000D07E
:1019F00003EB002004E6007004E100E004DC00409A
:101A000005D700C005D2004006CD00D006C8008032
:101A100007C3003008BE00F008B900C009B400B028
:101A20000AAF00B00BAA00D00CA500000EA0005019
:101A30000F9B00C01096005012910000148C00C043
:101A4000158700B0178200B0197D00D01B78000008
:101A50001E730040206E0090226900F02464004054
:101A6000275F0090295A00E02B5500102E500020CF
:101A7000304B0010324600E033410090353C0010FE
:101A800037370070383200A0392D00B03A2800A056
:101A90003B2300603C1E00103D1900903D140010D7
:101AA0003E0F00703E0A00C03E0500003F000040AF
:101AB0003FFBFF803FF6FFC03FF1FF6563686F3A71
:101AC000004572726F723A000A4D656173757265F6
:101AD0006420706F696E74733A0A00357835206D32
:101AE0006573682E205A206F66667365743A20000D
:101AF0002F2F616374696F6E3A006E6F7469666947
:101B0000636174696F6E2000626567696E0062755B
:101B100074746F6E00656E640070726F6D70745FC8
:101B20000073686F770050757267654D6F7265005E
:101B3000506175736564002062797465733B20633E
:101B4000726320004E6F20454550524F4D2E0A00C3
:101B5000454550524F4D206461746173697A652028
:101B60006572726F722E0A00454550524F4D2056D5
:101B7000657273696F6E204572726F7200454550D1
:101B8000524F4D20496E646578204572726F720025
:101B9000454550524F4D20435243204572726F725B
:101BA000002073746F7265642073657474696E6766
:101BB0007320726574726965766564202800202838
:101BC00063616C63756C6174656429210A0020216E
:101BD0003D2000454550524F4D20435243206D69F2
:101BE000736D61746368202D202873746F7265644F
:101BF0002920002053697A653A2000496E6465788F
:101C00003A2000204D61726C696E3D563831290AC8
:101C100000454550524F4D2076657273696F6E20B6
:101C20006D69736D617463682028454550524F4D4E
:101C30003D00205A3A200020593A20004265642095
:101C4000583A200050726F62696E67204661696C75
:101C500065640A0050726F62696E67204661696C44
:101C600065640000002100240027002A002D0030B8
:101C700000330001010000040107010A01000022F5
:101C800000250028002B002E003100340002010046
:101C900000050108010B0100002000230026002997
:101CA000002C002F00320000010000030106010992
:101CB0000105050505070508080808020202020AD1
:101CC0000A080804040404010101010101010103DF
:101CD00003030303030303040707070C0C0C0C0C9A
:101CE0000C0C0C0202020206060606060606060B8D
:101CF0000B0B0B0B0B0B0B01021020200808102004
:101D00004010204080020102010804020101020487
:101D10000810204080804020100804020180040246
:101D2000018040201008040201080402010102049D
:101D30000810204080010204081020408000000AA2
:101D40000B02090C0D0E080703040100000000003F
:101D50000000000000000000000000000000000083
:101D60000000000000000000001211100000000040
:101D70000000000000000000000000000000000063
:101D800000000020520048617264636F6465642043
:101D900044656661756C742053657474696E67730D
:101DA000204C6F616465640A003B200020204D36A2
:101DB0003033200020550046696C616D656E7420DB
:101DC0006C6F61642F756E6C6F6164206C656E67FB
:101DD0007468733A0020204D393030204B004C6934
:101DE0006E65617220416476616E63653A00202001
:101DF0004D3835312058005A2D50726F6265204F92
:101E000066667365740020204D3330342050002006
:101E1000204D333031205000504944207365747494
:101E2000696E67733A002020473239205334205AB4
:101E300000204A0020204732392053332049002017
:101E4000204D3432302053004D6573682042656464
:101E5000204C6576656C696E673A0020204D323003
:101E600036205800486F6D65206F66667365743A5A
:101E70000020204D323035204200416476616E638F
:101E800065643A20423C6D696E5F7365676D656E8F
:101E9000745F74696D655F75733E20533C6D696E48
:101EA0005F66656564726174653E20543C6D696E61
:101EB0005F74726176656C5F666565647261746596
:101EC0003E20583C6D61785F785F6A65726B3E209A
:101ED000593C6D61785F795F6A65726B3E205A3C50
:101EE0006D61785F7A5F6A65726B3E20453C6D611B
:101EF000785F655F6A65726B3E0020204D3230343A
:101F0000205000416363656C65726174696F6E2077
:101F100028756E6974732F7332293A20503C7072A1
:101F2000696E745F616363656C3E20523C726574D8
:101F3000726163745F616363656C3E20543C7472CC
:101F40006176656C5F616363656C3E0020204D3295
:101F500030312058004D6178696D756D20416363A3
:101F6000656C65726174696F6E2028756E69747333
:101F70002F7332293A0020450020590020204D328D
:101F800030332058004D6178696D756D2066656548
:101F90006472617465732028756E6974732F732978
:101FA0003A0053746570732070657220756E6974A1
:101FB0003A0020440020204D32303020530020448D
:101FC000697361626C65640A0046696C616D656E77
:101FD000742073657474696E67733A0020286D6DA0
:101FE00029002020473231202020203B20556E69D7
:101FF000747320696E206D6D000000484300004836
:10200000430000A04100002042F43DA042F43DA066
:102010004296E3C7430080DE43D0070000D00700AC
:10202000006400000010270000220A00556E6B6E4D
:102030006F776E20636F6D6D616E643A20220020B1
:10204000453A00205A3A0020593A004361703A005C
:102050007D007D7D2C776F726B3A7B6D696E3A7B6C
:10206000783A007D2C6D61783A7B783A002C7A3A88
:10207000002C793A00617265613A7B66756C6C3A46
:102080007B6D696E3A7B783A004348414D42455238
:102090005F54454D504552415455524500424142CE
:1020A000595354455050494E470041524353004DF7
:1020B0004F54494F4E5F4D4F44455300544845528D
:1020C0004D414C5F50524F54454354494F4E004C84
:1020D0004F4E475F46494C454E414D450041555492
:1020E0004F5245504F52545F53445F5354415455DF
:1020F00053005344434152440050524F4D50545F9B
:10210000535550504F525400454D455247454E434C
:10211000595F50415253455200434153455F4C492A
:102120004748545F4252494748544E455353005420
:102130004F47474C455F4C494748545300534F461F
:1021400054574152455F504F574552004255494CF4
:10215000445F50455243454E54004C4556454C490A
:102160004E475F44415441005A5F50524F42450030
:102170004155544F4C4556454C005052494E545FC2
:102180004A4F420050524F47524553530041555415
:102190004F5245504F52545F54454D5000564F4C8E
:1021A000554D455452494300454550524F4D00420C
:1021B000494E4152595F46494C455F5452414E5336
:1021C0004645520053455249414C5F584F4E5F5867
:1021D0004F4646004649524D574152455F4E414D8C
:1021E000453A4D61726C696E20322E302E362E319A
:1021F000444947412D546563682041535758312065
:1022000076312E3020284E6F762031342032303215
:10221000302031363A31393A32312920534F555234
:1022200043455F434F44455F55524C3A6874747060
:10223000733A2F2F6769746875622E636F6D2F4D27
:1022400061726C696E4669726D776172652F4D615E
:10225000726C696E2050524F544F434F4C5F56453D
:102260005253494F4E3A312E30204D414348494E4A
:10227000455F545950453A417274696C6C65727986
:10228000205369646577696E646572205831204512
:10229000585452554445525F434F554E543A31209D
:1022A000555549443A63656465326132662D34316F
:1022B00061322D343734382D396231322D63353562
:1022C0006336326633363766660A000055B211242B
:1022D0001FBECFEFD1E2DEBFCDBF00E00CBF12E0EA
:1022E000A0E0B2E0E8EAFFE701E00BBF02C0079020
:1022F0000D92A23CB107D9F722E1A2ECB2E001C0F5
:102300001D92A63DB207E1F711E1C7E6D1E100E079
:1023100006C021970109802FFE010E9480BCC636AD
:10232000D10780E00807A9F70E9486AE0C94D2BFBF
:102330000C9400002F923F924F925F926F927F9287
:102340008F929F92AF92BF92CF92DF92EF92FF92C5
:102350000F931F93CF93DF93CDB7DEB7E1970FB6FF
:10236000F894DEBF0FBECDBF88AB2091CE022EA762
:1023700081E08093CE028091D4098D3409F41DC38D
:10238000843511F40C945D21873411F00C946F2185
:102390008091D2099091D3098B31910509F41BC129
:1023A000B4F48430910534F482309105DCF597FF64
:1023B0002DC0FFC28531910511F40C9471218A3131
:1023C000910509F404C1049709F0F3C2C6C08A322A
:1023D000910509F431C254F48D31910509F42BC1F2
:1023E0000CF419C14E9709F42AC1E3C28B3591054B
:1023F00009F49FC18C35910509F4A0C18A35910576
:1024000009F0D7C21092CD020C9471218091180B63
:10241000813011F00C9471210E94078A0E94DE57CE
:102420000C9471212091180B213011F00C94712122
:1024300011E0029709F010E00E94078A19821A82BF
:102440001B821C821D821E821F82188682E50E94CA
:10245000F794882309F44BC00E9477946B017C01A8
:1024600020E030E0A9010E94F4B7882309F455C0A8
:1024700080912E1290912F12A0913012B0913112B2
:102480008AA39BA3ACA3BDA3809132129091331277
:10249000A0913412B09135128AA79BA7ACA7BDA713
:1024A0008090701190907111A0907211B090731182
:1024B0004090741150907511609076117090771162
:1024C000A50194016AA17BA18CA19DA10E94F4B7F2
:1024D00081110C948721A30192016AA57BA58CA58B
:1024E0009DA50E94F4B78823C1F00C94872189E44C
:1024F0000E94F794882331F00E94779469837A834D
:102500008B839C838AE40E94F794882331F00E9495
:1025100077946D837E838F83988720E030E0A901D4
:1025200069817A818B819C810E94F4B781110C941E
:102530003B2220E030E0A9016D817E818F8198856A
:102540000E94F4B781110C943B220E9472988AEB8E
:1025500092E00E94E7960C94712180E50E94F79426
:10256000882329F00E94268F6B017C0103C0C12CB7
:10257000D12C760183E50E94F794882361F00E94B4
:10258000779420E030E04AE754E40E945AB80E9471
:1025900008BE6B017C010E94154580ED92E00E940F
:1025A0007D970E94A8A3C60ED71EE81EF91E0E94A2
:1025B000A8A3DC01CB018C199D09AE09BF09B7FDA9
:1025C00002C00C94712180E00E944A29F0CF0E9441
:1025D000AF6C0C94712187E00E94EB5681110C9432
:1025E00071218CE0E1E6F2E0DE01119601900D929E
:1025F0008A95E1F780E50E94F794882321F00E94F4
:102600003F94862F01C080E0BE016F5F7F4F0E9424
:10261000715E0C94712180919E098770873011F052
:102620000C944E2260E08FE40E94049581110C947A
:1026300071210C944E220E94327C0C9471212091C5
:1026400083113091841140918511509186116091D0
:102650002E1270912F1280913012909131120E949F
:1026600095BCAB01BC0188E50E941D5F69837A833C
:102670008B839C832091871130918811409189111F
:1026800050918A11609132127091331280913412FC
:10269000909135120E9495BCAB01BC0189E50E9466
:1026A0001D5F6D837E838F839887BE016B5F7F4F35
:1026B000CE0101960E943A77882311F40C9471217F
:1026C00080E00E947B960E94B45A61E085E40E94FB
:1026D000049521E0482FBE016B5F7F4FCE0101962C
:1026E0000E947F9F6B017C019B01AC010E9487BF10
:1026F000811119C049815A816B817C818CE39CE1F5
:102700000E9441984D815E816F81788587E39CE1CD
:102710000E944198B701A60182E39CE10E94419882
:102720008AE00E94D5270E949B5A0E940E5D0C945D
:1027300071218FE08093CD020C9471211DE6212E32
:1027400012E0312E02E9E02E09E0F02E2EE232E115
:102750003BA32AA382E2C82E82E1D82E00E010E03B
:10276000D1018D911D010E94F794882309F44BC07B
:102770000E9477942B013C01133049F0F60120812F
:102780003181428153810E9494BC2B013C01AAA15A
:10279000BBA12D913D914D915C91C301B2010E946D
:1027A00094BC4B015C012DEB37E346E855EB0E94EE
:1027B000F5BE87FD0AC02DEB37E346E855E3C501BA
:1027C000B4010E94F4B71816F4F4133051F4409297
:1027D0003A1250923B1260923C1270923D1201E00C
:1027E00012C0A5019401F7016081718182819381FA
:1027F0000E9495BCD7016D937D938D939C93139705
:10280000812F0E94B8561F5FB4E0EB0EF11CEAA1C5
:10281000FBA13496FBA3EAA3F4E0CF0ED11C143045
:1028200009F09ECF002321F08AE392E10E94264521
:102830000E940E5D0C9471218091180B813011F073
:102840000C94712189E40E94F794F82E882321F0DA
:102850000E947394182F01C010E08AE40E94F7943C
:10286000082F882319F00E94739401C080E0FF2094
:1028700011F0153020F4002341F0853030F08CEF5A
:1028800092E00E94E7960C94712190E1EEE2F2E171
:10289000A0E7B1E101900D929A95E1F7FF2091F048
:1028A00024E01202F0011124E454FD4E40815181D4
:1028B0006281738140937011509371116093721112
:1028C00070937311002391F034E08302F00111241E
:1028D000E855FD4E80819181A281B381809374116E
:1028E00090937511A0937611B093771160E080E515
:1028F0000E9404958823C1F1FF20D1F0209183111B
:102900003091841140918511509186116091701120
:102910007091711180917211909173110E9494BC09
:102920006093701170937111809372119093731171
:102930000023D1F0209187113091881140918911A5
:1029400050918A1160917411709175118091761176
:10295000909177110E9494BC6093741170937511DB
:10296000809376119093771140E050E0BA0186E4AD
:102970000E941D5F6B017C0120E030E0A9010E94F4
:10298000F5BE18164CF420E030E040E752E4C701F1
:10299000B6010E948FBD03C060E070E0CB01698387
:1029A0007A838B839C83CE0101960E94D35A0C9428
:1029B00071210E9434AA0C9471210091D2091091C6
:1029C000D3090639110509F495C50CF0A7C00836DE
:1029D000110509F4A9C20CF05DC00B34110509F40E
:1029E00097C20CF50231110509F423C474F417FFE2
:1029F00002C00C945A21023011050CF464C101315B
:102A0000110509F4AAC10C945A210A32110509F4DE
:102A100062C20033110509F477C20F31110511F0BC
:102A20000C945A21AEC10235110509F4F2C314F514
:102A30000D34110509F474C20CF46EC20135110590
:102A400011F00C945A210E94AB830E945C5E0E949C
:102A5000D54610927B0380E00E943FB268EE73E09F
:102A600080E090E00E94C39686E993E00E947D9703
:102A70000C9471210435110509F4DBC30CF4D1C3A6
:102A80000535110509F40CC40C35110509F42DC4E4
:102A90000C945A210137110509F433C3F4F40C36B0
:102AA000110511F40C9471213CF40A36110509F456
:102AB00096C20CF480C2BAC20E36110509F4C3C224
:102AC0000CF452C20F36110509F4D0C200371105BB
:102AD00011F40C9471210C945A210637110509F454
:102AE000BDC464F40337110509F4A6C40CF49DC4F5
:102AF0000537110509F4A3C40C945A2108371105B0
:102B000009F4E9C40CF4E4C40937110509F4EBC471
:102B10000C38110509F41FC30C945A21003981E0C7
:102B2000180711F40C94D81E0CF060C0033D110579
:102B300009F409C66CF5093C110509F45FC574F484
:102B40000E3B110509F428C3083C110509F40FC513
:102B50000B39110511F00C945A2133C30C3C1105AB
:102B600009F491C534F40B3C110509F46DC50C94BE
:102B70005A210D3C110509F4BAC50E3C110511F09E
:102B80000C945A2149E1E42E4BE0F42E10E0C9C523
:102B90000232A1E01A0709F465C774F40D3D11056E
:102BA00009F4BEC6023E110509F410C70C3D11051B
:102BB00011F00C945A218DC60E32E1E01E0711F47B
:102BC0000C94911E34F40D32114009F4B7C70C94E3
:102BD0005A210F3231E0130711F40C94D51E003343
:102BE000114011F40C941E1E0C945A21063F91E0E2
:102BF000190711F40C941820A4F5043AB1E01B074E
:102C000011F40C94E61E84F40239F1E01F0711F46C
:102C10000C94E11E14F40C94DB1E0A39114011F4DB
:102C20000C9471210C945A210C3A81E0180711F48C
:102C30000C94B91F3CF4053A114011F40C94E91EB0
:102C40000C945A21043FB1E01B0711F40C94152099
:102C5000053F114011F00C945A210E9494A50C9448
:102C600071210B35F2E01F0711F40C943C2084F421
:102C7000083F31E0130711F40C94242014F40C9451
:102C80001B200835124011F40C9435200C945A2165
:102C90000C36A3E01A0711F40C9471213CF40335AF
:102CA000134011F40C94B5200C945A210438F3E02D
:102CB0001F0711F40C94E620073E134011F40C9406
:102CC0004E210C945A2180E50E94F794882329F024
:102CD0000E94268F6B017C0103C0C12CD12C760190
:102CE00083E50E94F794882361F00E94779420E0A6
:102CF00030E04AE754E40E945AB80E9408BE6B01D3
:102D00007C010E9415458091D0099091D109892BB1
:102D100041F00E9476988091D0099091D1090E944B
:102D200029298091D2099091D309892B19F06DE15D
:102D300073E002C065E173E040E082E00E94269704
:102D400085E293E00E9456970E940E9740E0C701EB
:102D5000B6010E94392D0C9471218091CC0984FF19
:102D600002C00C9425248091CE0987FF02C00C94E8
:102D700025248091CF09837011F00C9425240C94A4
:102D800042240E94D45D7B018C0120E831E541E0C2
:102D900050E00E94FBBBC9016DE671E00E946CBC73
:102DA0004B015C01C801B70120E13EE040E050E08A
:102DB0000E94FBBBCA01B90128E130E040E050E0CD
:102DC0000E94FBBB762E672EC62ED72EBCE32B2E81
:102DD000312C412C512CC801B701A20191010E9454
:102DE000FBBBF62EE72ECA01B901A20191010E9498
:102DF000FBBBCB018E010F5F1F4F8114910499F033
:102E0000EF92FF927F936F936F927F92BF92AF92F8
:102E10009F928F9287E393E09F938F931F930F93DB
:102E20000E94C5B713C0A114B104B1F0EF92FF9294
:102E30007F936F936F927F92BF92AF928BE393E0F9
:102E40009F938F931F930F930E94C5B70FB6F8946B
:102E5000DEBF0FBECDBF30C0CD2879F0EF92FF921C
:102E60007F936F936F927F928FE393E09F938F9303
:102E70001F930F930E94C5B7E9CF892B69F0EF929A
:102E8000FF927F936F9383E493E09F938F931F93BD
:102E90000F930E94C5B7DACFEF92FF9287E493E0D9
:102EA0009F938F931F930F930E94C5B70F900F901E
:102EB0000F900F900F900F90C8010E948D970E9465
:102EC0007698B8018BE493E00E945F988AE00E94B4
:102ED000D5270C9471216DE070E080E50E94E18AB5
:102EE0008C0197FF02C00C947121E82E60E089E408
:102EF0000E94049581110C945024802F0E9405ACEF
:102F0000811181C50C9450240E9483780C94712106
:102F10000E94235E0C9471210E94475E0C947121E3
:102F20000E945C5E0C9471218091B30883FF02C003
:102F30000C9471210E94B88A87FF02C00C94712101
:102F400083E50E94F794882359F00E9477940E94A9
:102F500001BECB010E94CA8F61E080E00E9470AE8A
:102F60000E942AAC0C9471218091B30883FF02C0A7
:102F70000C9471210E94B88A082F87FF02C00C941C
:102F8000712183E50E94F794F82E81110C94872417
:102F900082E50E94F79481110C94872410E00E942E
:102FA0002AAC112311F40C9471216F2D802F0E94F3
:102FB0006C910C9471210E94B88A182F87FD0AC069
:102FC0008CEF90E10E94E796812F0E9429818AE090
:102FD0000E94D5278EA58093CE020C94E12660E056
:102FE00080E50E94777881110C94712181E40E9420
:102FF000AE94882321F060917B03062F02C00FEF6F
:1030000010E083E50E94F794882349F00E943F94E2
:103010008B016F3F710519F010F00FEF10E0009376
:103020007B0380E00E943FB20C94712160E080E558
:103030000E94777881110C94712110927B030E9479
:103040003FB20C9471218EE40E94F794882311F40E
:103050000C9471210E943F946093590A70935A0A0C
:1030600080935B0A90935C0A0C94712183E50E9423
:10307000AE94882331F060E083E50E9477788093F6
:10308000B3080E9476988AE693E00E94E7968091C2
:10309000B308882369F1A5E4EA2EA5E0FA2E00E042
:1030A00010E020E08091B30890E0A0E0B0E0002EB6
:1030B00004C0B695A795979587950A94D2F780FF97
:1030C0000EC0DD24D394D20E222319F08CE20E948C
:1030D000D527F701859194910E94E7962D2D0F5FDA
:1030E0001F4F92E0E90EF11C05301105D9F604C01E
:1030F0008DE597E00E94E7968AE00E94D5270C9420
:10310000712183E50E94F794882381F00E944F94F7
:10311000282F30E02D33310524F4809300020C94E5
:1031200071218CE3809300020C9471210E947698A7
:10313000C0900002D12CE12CF12C81E793E00E9499
:10314000E7964AE0C701B6010E9425288AE00E945E
:10315000D5270C9471218091B30883FF02C00C9491
:10316000712183E50E94F794882311F40C94712156
:103170000E9477940E9401BE6C3871050CF48B019B
:103180001093030B0093020B0E94738361E080E0B5
:103190000E9470AE0C9471218091B30883FF02C02D
:1031A0000C94712183E50E94F794182F81110C94DF
:1031B000952482E50E94F79481110C9495240C9437
:1031C000712183E50E94F794882311F40C947121F6
:1031D0000E944F94182F90E0CD970CF01CE31093B1
:1031E000C6020E94A8A36B017C01212F30E0A8EE4B
:1031F000B3E00E944FBCC60ED71EE81EF91EC09257
:10320000C202D092C302E092C402F092C5020C94B2
:1032100071218091CD028F7D80618093CD020C94CD
:1032200071218091CD028F7E80628093CD020C94BB
:10323000712183E50E94F7948823F1F00E94A8A3EE
:103240006093F60A7093F70A8093F80A9093F90A4C
:103250000E94779420E030E04AE754E40E945AB894
:103260000E9408BE609301027093020280930302E1
:10327000909304020C9471218091CC0984FF02C0C8
:103280000C94CA248091CE0987FF02C00C94CA24F2
:103290008091CF09837011F00C94CA240C94FC2403
:1032A00083E50E94AE94882311F40C9471210E944E
:1032B000A8A36093F60A7093F70A8093F80A909394
:1032C000F90A0E94779420E030E04AE754E40E9433
:1032D0005AB80E9408BE6093C7027093C8028093D8
:1032E000C9029093CA020C9471210E94B88A87FF88
:1032F00002C00C9471219091CC0994FD04C090916E
:10330000CE0997FF0AC0EDE6CE2EE2E0DE2EF4EB0A
:10331000EF2EF8E0FF2E10E009C09091CF099370D6
:1033200091F7682F81E00E94EB8EDBC7D6018D916B
:103330006D010E94F794882309F46DC0133009F0E1
:1033400063C00E9477944B015C0120E030E040EACA
:1033500051E40E94F4B787FF4EC0A501940160912B
:10336000D4087091D5088091D6089091D7080E9412
:103370008FBD2B013C019B01AC01609177037091E3
:1033800078038091790390917A030E945AB86093F0
:103390007703709378038093790390937A03A30162
:1033A00092016091E4087091E5088091E60890919F
:1033B000E7080E945AB86093E4087093E508809388
:1033C000E6089093E708609163037091640380912D
:1033D0006503909166030E94F9B7A30192010E94D0
:1033E0005AB80E9408BE609363037093640380938D
:1033F0006503909366038092D4089092D508A092BA
:10340000D608B092D70807C00E947794F701648B62
:10341000758B868B978B1F5FF4E0EF0EF11C1430D9
:1034200009F084CF0E94F1445CC70E9452A984E84D
:1034300092E10E94F54A55C70E945CAA52C780914A
:10344000D0099091D109009709F44BC7DC012C9168
:10345000222309F446C70E948D9743C70091D009E3
:103460001091D10994E0F12C40E0915021F1F80144
:103470008081282F2B7F213421F421812133D9F41D
:1034800007C08035C1F4818180538A3048F013C071
:10349000813421F0853421F441E002C0FF24F3940B
:1034A00098012E5F3F4F89012F5F3F4FF8018081C8
:1034B0008032C9F3DACF41110E947698FF2021F0C3
:1034C00083EB93E00E94E796C8010E94292909C76F
:1034D0000E94A35D06C781E08093150B8093140BB7
:1034E0000E94C55DFEC61092150B1092140B0E942F
:1034F000C55DF7C682E40E94AE94882351F08091A6
:10350000CB029091CC02892B31F00E944F94182F5E
:1035100003C010E001C01FEF85E50E94AE94882330
:1035200051F08091CB029091CC02892B31F00E9416
:103530004F94082F03C000E001C00FEF82E50E9406
:10354000AE94882349F08091CB029091CC02892BD4
:1035500029F00E944F9403C080E001C08FEF89835F
:103560000A831B83CE0101960E941995BAC60E9458
:10357000B88A182F87FDB5C60091111284E40E9405
:10358000F794882311F40C94FF240E9477946B0124
:103590007C0120E030E0A9010E94F4B7882341F1CA
:1035A00024E01202F0011124E35FFD4EC082D182BB
:1035B000E282F38220E030E0A90160910D12709167
:1035C0000E1280910F12909110120E94F4B7811187
:1035D0000CC080E090E0A0EEBFE380930D129093CA
:1035E0000E12A0930F12B093101201E00C94FF245E
:1035F00080E0809311120E94424773C60E94B88AED
:1036000087FD6FC66DE6E62E62E0F62E04EB18E04D
:1036100074ECC72E78E0D72ED7018D917D010E94E2
:10362000AE94882359F00E9477940E9408BEF80156
:1036300060837183828393830E94AA440C5F1F4F2F
:10364000C016D10649F74DC60E94B88A87FD49C603
:103650005DE6E52E52E0F52E04EB18E0D7018D91E2
:103660007D010E94AE94882339F00E947794F8017E
:1036700064A375A386A397A30C5F1F4FF8E0043CD7
:103680001F0761F72EC68091CD0987FF02C00C94F9
:1036900005258091CE098E7011F00C94052540917E
:1036A000E8085091E9086091EA087091EB0887EB0F
:1036B00093E00E9441984091EC085091ED08609190
:1036C000EE087091EF0883E89DE10E9441984091D7
:1036D000F0085091F1086091F2087091F30885E0CC
:1036E00098E10E9441988AE00E94D527FAC580910E
:1036F000CC09827111F00C944B258091CE098C7805
:1037000011F00C944B258091CF09837011F00C942B
:103710004B25E7C51F5FB4E0EB0EF11C133009F435
:1037200087C888E5810F0E94AE94882399F30E9490
:103730007794D7016D937D938D939C931397812FED
:103740000E94B856E7CF409022125090231260900A
:103750002412709025122091190230911A02409182
:103760001B0250911C02C301B2010E9495BC6AA3C6
:103770007BA38CA39DA38090261290902712A090EB
:103780002812B090291220911D0230911E02409102
:103790001F0250912002C501B4010E9495BC6EA386
:1037A0007FA388A799A7C0902A12D0902B12E090EF
:1037B0002C12F0902D122091210230912202409182
:1037C000230250912402C701B6010E9495BC6AA74A
:1037D0007BA78CA79DA720912502309126024091BE
:1037E000270250912802C301B2010E9495BC2B010F
:1037F0003C012091290230912A0240912B025091E4
:103800002C02C501B4010E9495BC4B015C012091C2
:103810002D0230912E0240912F0250913002C701AB
:10382000B6010E9495BC6B017C010E94769889E0EC
:1038300094E00E94E79683E50E94AE94882321F0ED
:103840000E94639480933D0280913D02882319F089
:1038500084EA92E002C080ED91E20E94E79681E066
:1038600094E00E94E7964AA15BA16CA17DA182E54C
:103870009FE10E9441984EA15FA168A579A589E7C3
:103880009FE10E9441984AA55BA56CA57DA58EE2AB
:103890009EE10E94419881EF9BE10E94E79689EFAB
:1038A00093E00E94E796B301A20182E59FE10E94A6
:1038B0004198B501A40189E79FE10E944198B701B1
:1038C000A6018EE29EE10E9441988AE00E94D527DF
:1038D00008C583E50E94F794882331F00E94739411
:1038E00090933F0280933E028091CC099091CD0944
:1038F000A091CE09B091CF09892B8A2B8B2B09F08F
:10390000F0C460913E0270913F0289E194E00E9410
:10391000529885E20E94D5278AE00E94D527E1C40B
:103920000E94B88AF82E87FDDCC483E50E94F794D4
:103930000F2D0F2C000C110B882369F10E9473943A
:10394000F801EE0FFF1FE55FFD4F91838083000FAD
:10395000111F000F111FF801EB5FFD4F7F01BC012C
:10396000990F880B990B0E94FBB72AE037ED43E2D1
:103970005CE30E945AB8F801EF5FF64F2081318175
:10398000428153810E945AB8D7016D937D938D93E4
:103990009C931397A6C40E94769885E40E94D5272D
:1039A00080E38F0D0E94D527F801EE0FFF1FE55F22
:1039B000FD4F608171818DE194E00E94529885E213
:1039C0000E94D5278AE00E94D5278BC480E50E94FB
:1039D000AE94882309F485C460E070E080E50E941D
:1039E000E18AF82E6FEF7FEF83E50E94E18A8C0178
:1039F0000196039708F075C4F7FC73C48F2D0E94DD
:103A000005AC882339F00E94729885E294E00E9408
:103A1000E79667C40E94154560E08F2D0E9469A259
:103A20000F3FBFEF1B0731F00130110571F000E0CF
:103A300010E00DC08F2D0E9411A231E020E0892BF3
:103A400009F030E0032F122F02C001E010E08F2DAB
:103A50000E9411A28017910709F443C480E00E94DC
:103A60004A29F5CF8AE50E94F794811106C083E5C3
:103A70000E94F794882309F443C00E94779420E0C1
:103A800030E040E050EC0E94F4B787FF02C00C9495
:103A9000C9250E94779420E030E040E050E40E9485
:103AA000F5BE181614F40C94C2250E9477946B018D
:103AB0007C0184E00E94D856811122C02091D00858
:103AC0003091D1084091D2085091D308C701B60176
:103AD0000E945AB80E9401BE2091CF023091D002BC
:103AE000260F371F3093D0022093CF022091950AE2
:103AF0003091960A620F731F7093960A6093950A2D
:103B00008091CE0987FF02C00C94D0258091CF0907
:103B1000837011F00C94D0250E9476984091A511E5
:103B20005091A6116091A7117091A81184E394E0BF
:103B30000E9441988AE00E94D527D3C360E085E4C3
:103B40000E947778811173C080E50E94AE9488232B
:103B500051F00E94779460934F12709350128093AB
:103B600051129093521289E40E94AE94882381F0FE
:103B70000E9477942CEA35EC47E25EE30E945AB843
:103B8000609353127093541280935512909356126F
:103B900084E40E94AE94882381F00E9477942CEAFA
:103BA00035EC47E25EE30E948FBD6093571270933D
:103BB00058128093591290935A120E94769840910D
:103BC0004F1250915012609151127091521289E42B
:103BD00094E00E9441982CEA35EC47E25EE3609164
:103BE00053127091541280915512909156120E9466
:103BF0008FBDAB01BC0185E494E00E9441982CEAA2
:103C000035EC47E25EE36091571270915812809153
:103C1000591290915A120E945AB8AB01BC0181E42A
:103C200094E00E9441988AE00E94D5275AC30E94DE
:103C3000729887EB98E10E94E79653C380E50E9453
:103C4000AE94882351F00E9477946093050B709393
:103C5000060B8093070B9093080B89E40E94AE94A7
:103C6000882381F00E9477942CEA35EC47E25EE3EA
:103C70000E945AB86093090B70930A0B80930B0B48
:103C800090930C0B84E40E94AE94882381F00E94F0
:103C900077942CEA35EC47E25EE30E948FBD609397
:103CA0000D0B70930E0B80930F0B9093100B0E94D3
:103CB00076984091050B5091060B6091070B70911F
:103CC000080B89E494E00E9441982CEA35EC47E225
:103CD0005EE36091090B70910A0B80910B0B909140
:103CE0000C0B0E948FBDAB01BC0185E494E00E94E7
:103CF00041982CEA35EC47E25EE360910D0B709140
:103D00000E0B80910F0B9091100B0E945AB8AB01D3
:103D1000BC0181E494E00E9441988AE00E94D5278A
:103D2000E0C283E50E94AE94182F882371F00E94B0
:103D300077940E9401BE70930A026093090221E009
:103D4000672B09F020E020938C0380E50E94AE945D
:103D5000882359F02091090230910A02232B11F097
:103D60000E94639480938C03BCC21111BAC20E945A
:103D7000769886E694E00E94E79680918C038823EB
:103D800019F081E790E102C08DE494E00E94E7968B
:103D90006091090270910A0285E594E00E945298B0
:103DA00081E594E00E94E7969CC20E94345F99C22C
:103DB0000E94154596C281E00E940B440E940E5D50
:103DC00090C20E9437770E940E5D8BC20E943F7E98
:103DD00088C288E50E94AE94D82E89E40E94AE94F1
:103DE000C82E882321F00E947394A82E28C0DD20BD
:103DF00011F10E9477942091221230912312409168
:103E00002412509125120E9494BC20E030E040E240
:103E100051E40E9494BC20E030E84EE052E40E945D
:103E200095BC2DE633EF45E65CE30E945AB80E944C
:103E300001BE653018F0AA24AA9401C0A62E89E517
:103E40000E94AE94F82E8AE40E94AE94182F882324
:103E500021F00E947394B82E28C0FF2011F10E9417
:103E60007794209126123091271240912812509178
:103E700029120E9494BC20E030E040E251E40E940C
:103E800094BC20E030E84EE052E40E9495BC2DE660
:103E900033EF45E65CE30E945AB80E9401BE6530EC
:103EA00018F0BB24BA9401C0B62E8AE50E94AE94E5
:103EB000E82E811105C081E50E94AE94082F01C053
:103EC00000E0C11001C010E0812F90E0D11001C0CE
:103ED000F12C8F0D911D019721F4E11009C0011102
:103EE00007C00E94729889E794E00E94E796F9C1A2
:103EF000A7FC02C0B7FE07C00E9472988CEF92E048
:103F00000E94E796EEC10E947794EA2CAA0CFF0863
:103F1000AB2DBB0CBB0B002399F025E02E9DF001CF
:103F20002F9DF00D1124EA0FFB1FEE0FFF1FEE0F68
:103F3000FF1FE755FE4E208131814281538103C02E
:103F400020E030E0A901E5E0EE9D8001EF9D100D3D
:103F500011240A0F1B1F000F111F000F111F0755FF
:103F60001E4E0E9495BCF801608371838283938307
:103F7000B8C187E00E94EB568111B3C103EE17E090
:103F80002EE232E13BA32AA3CE0101961C0149EFA8
:103F9000C42E40E1D42E7C01C8010E947178AAA1F0
:103FA000BBA18D909D90AD90BD90BBA3AAA3A50190
:103FB00094010E9494BC2B013C01F7016083718342
:103FC0008283938320E030E040EA51EC0E94F5BE0A
:103FD00087FD0AC020E030E040EA51E4C301B201AD
:103FE0000E94F4B718162CF4F601849118160CF4FC
:103FF000DEC5D7018D909D90AD90BD907D0120E0F4
:1040000030E040EA51ECC501B4010E94F5BE87FDE5
:10401000D9C520E030E040EA51E4C501B4010E9476
:10402000F4B718160CF0D5C5CDC50E94993F59C1FB
:104030000E941AA456C161E083E50E94049591E0B4
:1040400089270E94A2A54DC181E0809398110E940A
:10405000DD9810929811882309F443C10E94769844
:1040600087EC94E00E94E7963CC10E94B88A87FDE5
:1040700038C10E94F08A35C10E94B88A082F87FD96
:1040800030C185E50E94AE948823B1F1E02E002E68
:10409000000CFF080E9477944B015C0120E030E0A7
:1040A000A9010E94F5BE87FF04C0B7FAB094B7F823
:1040B000B094C70123E0880F991F2A95E1F79C016E
:1040C00023563E4E7901D9018D929D92AD92BC92BC
:1040D000139720E030E048E453E4C501B4010E94A6
:1040E000F5BE18164CF480E090E0A8E4B3E4F701C4
:1040F00080839183A283B3838CE40E94AE9488234F
:1041000009F4EFC0002E000C110B0E9477946B0194
:104110007C0120E030E0A9010E94F5BE87FF04C0C9
:10412000F7FAF094F7F8F09420E030E048E453E434
:10413000C701B6010E94F5BE980193E0220F331F1C
:104140009A95E1F7F901E356FE4E18162CF0C48259
:10415000D582E682F782C5C080E090E0A8E4B3E4AF
:1041600084839583A683B783BCC08091CE0987FDE5
:1041700058C58091CF09837009F053C540918311D0
:104180005091841160918511709186118FE095E0B6
:104190000E94419840918711509188116091891136
:1041A00070918A1189E79FE10E94419840918B119B
:1041B00050918C1160918D1170918E118EE29EE163
:1041C0000E9441988AE00E94D5278BC0A0908D0361
:1041D000B0908E03C0908F03D09090038BE40E9428
:1041E000F794882339F10E9477947B018C0120E0B9
:1041F00030E0A9010E94F5BE87FD0AC020E030E052
:1042000040E251E4B701C8010E94F4B71816A4F4C3
:104210008FE30E94D5278BE40E94D52786E295E0A4
:104220000E94E7968EE195E00E94E79686EB96E184
:104230000E94E796750186019701A801B501C601A4
:104240000E94F4B7882361F00E941545C701D80188
:1042500080938D0390938E03A0938F03B09390036C
:104260008091CC099091CD09A091CE09B091CF0950
:10427000892B8A2B8B2BA9F50E94769840918D0370
:1042800050918E0360918F03709190038AE395E0C3
:104290000E9441988AE00E94D52723C081E0809344
:1042A000180B60E083E50E94049581111AC00E94FA
:1042B000326517C00E9434AA14C01091D2090E941E
:1042C000A8A36093F60A7093F70A8093F80A909374
:1042D000F90A112331F0812F0E94B58F02C00E948C
:1042E00034AAF8A9F1110FC0E0912711F0E0EC56C3
:1042F000FD4E8081882339F08CEF90E10E94E79693
:104300008AE00E94D5272EA52093CE025AC520E030
:1043100030E0A901C701B6010E94F4B7881F8827C1
:10432000881F181709F4A2C080E090E0A0E8BFEB56
:104330008EA39FA3A8A7B9A72AA13BA14CA15DA1C9
:10434000C501B4010E9494BC20E030E040E05FE38E
:104350000E945AB86AA37BA38CA39DA32AA53BA560
:104360004CA55DA5C301B2010E9494BC20E030E0E1
:1043700040E05FE30E945AB82B013C012AA13BA117
:104380004CA15DA1CA01B9010E945AB84B015C0160
:10439000A3019201C301B2010E945AB89B01AC0172
:1043A000C501B4010E9495BC0E9443BF4B015C0152
:1043B0009B01AC01C701B6010E9494BC6AA77BA710
:1043C0008CA79DA7A5019401C701B6010E9495BCC9
:1043D0009B01AC016AA57BA58CA59DA50E945AB83E
:1043E0006B017C0120E030E0A9010E94F5BE87FD51
:1043F00007C0C701B6010E9443BF6B017C0103C027
:10440000C12CD12C7601C301B2019058A5019401B1
:104410000E948FBD2EA13FA148A559A50E945AB860
:10442000A70196010E945AB82AA13BA14CA15DA107
:104430000E9495BC69837A838B839C83A501940138
:104440006AA17BA18CA19DA10E948FBD2EA13FA13D
:1044500048A559A50E945AB8A70196010E945AB8CA
:10446000A30192010E9495BC0C94891280E090E017
:10447000A0E8BFE35DCF412FBE016F5F7F4F80E7B4
:1044800091E10E9402670E94A8A36093F60A7093CC
:10449000F70A8093F80A9093F90A23CF0E941545F2
:1044A00090911D129FA780E00E947B960E94A8A376
:1044B0006093F60A7093F70A8093F80A9093F90ACA
:1044C0000E94B45A81E08093150B0E94C55D8AE575
:1044D0000E94AE94F82E8823A1F081E00E94D85665
:1044E000082F82E00E94D85611E0811101C010E02F
:1044F000011112C088E50E94AE94082F81110CC0F2
:1045000002C010E0F7CF11119EC189E50E94AE9460
:10451000012F811397C104C0112309F491C1012F08
:10452000F11291C111E001E091E09AA782E50E94A9
:10453000F794882319F00E94779404C060E070E03B
:1045400080EA90E46E8F7F8F88A399A320E030E00B
:10455000A9010E94F4B7882361F0011106C011116E
:1045600004C0AAA5AA2309F45DC1CE014E960E94FB
:10457000FE3E002309F4D3C0112309F4CDC01092EC
:104580002E1210922F12109230121092311210929D
:1045900032121092331210923412109235120E947D
:1045A0000C5DE9EFF0E1B491B9AB87ED97E00E94C3
:1045B00071786B017C018BED97E00E9471784B0163
:1045C0005C019B01AC01C701B6010E94F5BE181643
:1045D0002CF4A7019601C501B40104C0A501940102
:1045E000C701B6010E948FBD2B013C01E2EEF0E154
:1045F00085919591A591B4918AA39BA3ACA3BDA3EA
:10460000EEEDF0E185919591A591B4918EA39FA3D4
:10461000A8A7B9A79C01AD016AA17BA18CA19DA10E
:104620000E94F5BE181634F42EA03FA008A599A547
:104630009AA305C02AA03BA00CA1ADA1AAA3A301E7
:104640009201C301B2010E945AB820E030E040E874
:104650005FE30E9495BC0E9443BF9101402F5AA185
:104660000E945AB86A8F7B8F8C8F9D8FEAEFF0E1A2
:10467000049120E030E040EC5FE3C501B4010E940A
:104680005AB84B015C01602F000F770B880B990B18
:104690000E94FBB79B01AC01C501B4010E945AB84E
:1046A00069837A838B839C8320E030E040EC5FE376
:1046B000C701B6010E945AB86B017C01B9A96B2FE2
:1046C000BB0F770B880B990B0E94FBB79B01AC01CA
:1046D000C701B6010E945AB86E8B7F8B888F998F65
:1046E000AE01465E5F4FBE016F5F7F4FCE014696C3
:1046F0000E94125C0E9469AC10922E1210922F122E
:104700001092301210923112109232121092331213
:10471000109234121092351280E00E9432AD1123B3
:1047200019F081E00E9432ADEAA5EE2309F47AC0C7
:1047300083E00E94EB56811175C00E940C5DC09011
:104740003612D0903712E0903812F0903912209142
:10475000831130918411409185115091861160E050
:1047600070E088E193E40E9494BC609370117093B0
:104770007111809372119093731120918711309170
:1047800088114091891150918A1160E070E088E1B0
:1047900093E40E9494BC609374117093751180939C
:1047A00076119093771120918B1130918C1140915B
:1047B0008D1150918E11C701B6010E9494BC609377
:1047C00078117093791180937A1190937B1180E71F
:1047D00091E10E94FE938823D9F01E8A1F8A188EC9
:1047E000198E88E0E0E7F1E1DE01119601900D926B
:1047F0008A95E1F7AE014A5E5F4FBE016B5F7F4F66
:10480000CE0101960E94125C82E00E9432AD0AC085
:104810008BEE92E00E947D970E94769889ED92E05F
:104820000E94E7960E940C5D8091140B8093150BFB
:104830008FA50E947B960E949B5A0E940E5D51CDCF
:1048400011E063CE182FFAA671CE88E50E94AE94CF
:1048500081115F9889E50E94AE9481118A988AE55A
:104860000E94AE94882331F080910801817080937A
:104870000601479885E40E94AE94882309F431CD5F
:1048800012982FCD8EE293E00E947D975F988A98D0
:10489000809108018170809306014798129821CD7C
:1048A0008DE40E94F7948823A9F00E944F948130F0
:1048B00039F020F0823049F462E003C060E001C0CA
:1048C00061E0802F0E9469A205C088E593E00E9404
:1048D000E79607CD83E50E94F794882309F401CD7C
:1048E0000E944F94F82E39E0E31203C080937B03BB
:1048F000F8CC61E0802F0E9469A26F2D802F0E946A
:104900003AA26F2D70E0802F0E94A5A2EACC0E94EF
:1049100077940E9401BECB010E94CA8F61E081E0C2
:104920000E9470AE11E00C94CF170E9477940E9401
:1049300001BE6C3871055CF57093030B6093020B3C
:104940000E94738360E081E00E9470AE6091020B70
:104950007091030B072E000C880B990B0E94FBB77C
:104960002091FE0A3091FF0A4091000B5091010BFB
:104970000E94F5BE18161CF487E893E002C088E791
:1049800093E00E947D97812F0E94DA8FAACC6CE879
:1049900070E0D2CF0E94154588E50E94AE9488232E
:1049A00031F05F9A809182118E7F8093821189E528
:1049B0000E94AE94882331F08A9A809182118D7F73
:1049C000809382118AE50E94AE94882361F08091E1
:1049D00008018095817080930601479A8091821129
:1049E0008B7F8093821185E40E94AE94882309F422
:1049F00078CC0E94FA2675CC0E94D54672CC602FE6
:104A000083E50E9404950C94F91A83E50E94F794BB
:104A1000882391F00E9477946093E8087093E908E6
:104A20008093EA089093EB086093F0087093F10884
:104A30008093F2089093F30880E50E94F79488230E
:104A400051F00E9477946093E8087093E90880938E
:104A5000EA089093EB0882E50E94F794882351F0CE
:104A60000E9477946093EC087093ED088093EE08B1
:104A70009093EF0884E50E94F794882309F431CCE1
:104A80000E9477946093F0087093F1088093F20885
:104A90009093F30826CC82E40E94AE94882351F0D0
:104AA0000E94268F6093C4087093C5088093C6083F
:104AB0009093C70883E50E94AE94882351F00E942A
:104AC00077946093F4087093F5088093F6089093B8
:104AD000F70884E50E94AE94882351F00E947794F1
:104AE0006093F8087093F9088093FA089093FB0894
:104AF00088E50E94AE94882351F00E9477946093D9
:104B00006B0370936C0380936D0390936E0389E540
:104B10000E94AE94882351F00E94779460936F03B3
:104B20007093700380937103909372038AE50E94DF
:104B3000AE948823B1F00E947794609373037093CE
:104B4000740380937503909376032DEC3CEC4CEC4E
:104B50005DE30E94F4B7181624F087EC93E00E94FE
:104B6000E79685E40E94AE94882309F4BACB0E94AC
:104B7000779460937703709378038093790390938D
:104B80007A03AFCBC12CD12CE12C80E4F82E0C940D
:104B9000591DC12CD12CE12C00ECF02E0C94591D88
:104BA00082E50E94AE9481110C948C1D9ACBB7FAC9
:104BB000B094B7F8B094D7018D929D92AD92BC920B
:104BC000139717CA0E94729889EA94E00E94E796A8
:104BD00088CB0C5F1F4FBFEFCB1ADB0AE7E00F3E1D
:104BE0001E0709F0D9C939E1E32E3BE0F32E10E0AE
:104BF000F10181919191A191B1911F01F7018193EF
:104C00009193A193B1937F01812F0E94B8561F5FAA
:104C1000133071F70E940E5D89E994E00E947D9740
:104C200060CBF0918311FAA380908411709085116C
:104C300060908611509087114090881130908911B2
:104C400020908A11C0908B11D0908C11E0908D1122
:104C5000F0908E1188E50E94F794882361F10E94FC
:104C600077945B018C0120E030E848E953EC0E9426
:104C7000F5BE87FD0AC020E030E848E953E4B501FD
:104C8000C8010E94F4B7181694F461E371E08CEF48
:104C900094E00E94529861E371E087EF94E00E94F3
:104CA00052988BE499E10E94E79610E005C0AAA211
:104CB0008B2C702E612E11E089E50E94F7948823D9
:104CC00081F10E947794962EA72EB82E092F20E00E
:104CD00030E848E953EC0E94F5BE87FD0CC020E0A7
:104CE00030E848E953E4692D7A2D8B2D902F0E94EE
:104CF000F4B7181694F461E371E084EE94E00E9436
:104D0000529861E371E087EF94E00E9452988BE43F
:104D100099E10E94E79610E004C0592C4A2C3B2CE4
:104D2000202E8AE50E94F794882339F10E94779417
:104D30006B017C0120E030E040EA51EC0E94F5BEBE
:104D400087FD0AC020E030E040EA51E4C701B60127
:104D50000E94F4B718168CF46CEE7FEF82ED94E0AD
:104D60000E94529864E170E087EF94E00E945298AC
:104D70008BE499E10E94E796B4CA112309F4B1CA01
:104D80008AA1982DA72DB62D80938311909384111D
:104D9000A0938511B0938611852D942DA32DB22D4E
:104DA0008093871190938811A0938911B0938A11F1
:104DB000C0928B11D0928C11E0928D11F0928E11D5
:104DC00090CAE1960FB6F894DEBF0FBECDBFDF915B
:104DD000CF911F910F91FF90EF90DF90CF90BF90F8
:104DE000AF909F908F907F906F905F904F903F908B
:104DF0002F900895129A08955F9A809182118E7F64
:104E0000809382118A9A809182118D7F8093821182
:104E1000809108018095817080930601479A809166
:104E200082118B7F809382110C94FA26C42F0E94EA
:104E3000AB830E94729881E697E00E94E79661E05A
:104E400088E597E00E94F69689EE93E030E60197B8
:104E500029F0232F2A950000E9F7F9CFF89489EE7D
:104E600093E038EE019729F0232F2A950000E9F707
:104E7000F9CF0E94AB83CC2319F00E94FC2602C01C
:104E80000E94FA26A895FECF8F929F92AF92BF9272
:104E9000CF92DF92EF92FF920F93CF93DF931F9207
:104EA000CDB7DEB75C016B017A014901F501808164
:104EB00091810E94D5BB8983002311F0F601808384
:104EC000BE016F5F7F4FC4010E943AA9F501808146
:104ED0009181019691838083FFEFCF1ADF0A81E0F1
:104EE000E81AF10819F780E00F90DF91CF910F9148
:104EF000FF90EF90DF90CF90BF90AF909F908F90FA
:104F000008957F928F929F92AF92BF92CF92DF923D
:104F1000EF92FF920F931F93CF93DF931F92CDB722
:104F2000DEB77C0159018B016B01C40ED51E0C1537
:104F30001D0559F1F70180809180F80171908F0172
:104F40007982C4010E94D5BB781691F0672DC40107
:104F50000E94DDBBC4010E94D5BB9981891741F035
:104F60000E9476988EEB95E00E94E79681E00EC055
:104F7000BE016F5F7F4FC5010E943AA9F701808192
:104F80009181019691838083D2CF80E00F90DF9151
:104F9000CF911F910F91FF90EF90DF90CF90BF9036
:104FA000AF909F908F907F9008959091C10095FD54
:104FB00004C09091C00095FD40C02091D6022F5FA3
:104FC0002F700FB607FC26C09091D702291327C077
:104FD0009091C00095FF1DC09091D7024091D602DC
:104FE000941791F0E92FF0E0EA52FD4F32819F5F74
:104FF0009F703093C6009093D7023091C000306408
:105000003093C000491305C09091C1009F7D9093DB
:10501000C100DACF9091D702291301C0FBCFE091F4
:10502000D602F0E0EA52FD4F82832093D6028091AF
:10503000C10080628093C10008958093C600809172
:10504000C00080648093C00008958F929F92AF92B9
:10505000BF92EF92FF920F931F93CF93DF93CDB741
:10506000DEB7A0970FB6F894DEBF0FBECDBF6115B7
:1050700071058105910591F100E0842E912CA12C00
:10508000B12C102FEE24E394F12CEC0EFD1EE00E5B
:10509000F11C07FDFA94A50194010E94FBBBF701E6
:1050A0006083B901CA010F5F611571058105910522
:1050B00041F71F3F31F1E1E0F0E0EC0FFD1FE10FA0
:1050C000F11D17FDFA9580818A3010F097E301C039
:1050D00090E3890F0E94D5271150EBCF80E3A09673
:1050E0000FB6F894DEBF0FBECDBFDF91CF911F91F9
:1050F0000F91FF90EF90BF90AF909F908F900C9486
:10510000D527A0960FB6F894DEBF0FBECDBFDF91B6
:10511000CF911F910F91FF90EF90BF90AF909F9014
:105120008F900895CF92DF92EF92FF926B017C01F6
:1051300097FF0BC08DE20E94D527F094E094D094A5
:10514000C094C11CD11CE11CF11C4AE0C701B6018E
:10515000FF90EF90DF90CF900C9425288F929F9234
:10516000AF92BF92CF92DF92EF92FF92CF936B01FB
:105170007C01B42E20E030E0A9010E94F4B787FF43
:1051800007C08DE20E94D527F7FAF094F7F8F09463
:10519000C0E060E070E080E09FE3CB1541F02DECD3
:1051A0003CEC4CEC5DE30E945AB8CF5FF6CF9B011C
:1051B000AC01C701B6010E9495BC6B017C010E9445
:1051C00008BE4B015C014AE00E942528CC2389F1EE
:1051D000C501B4010E94F9B79B01AC01C701B6013A
:1051E0000E9494BC6B017C018EE20E94D52720E0D6
:1051F00030E040E251E4C701B6010E945AB84B01C9
:105200005C010E9401BE6B01770FEE08FF08C70129
:10521000B6010E949228C701B6010E94FBB79B010C
:10522000AC01C501B4010E9494BC6B017C01C1506A
:10523000F1F6CF91FF90EF90DF90CF90BF90AF90BD
:105240009F908F9008958DE00E94D5278AE00C945E
:10525000D527CF93DF93EC018991882319F00E9421
:10526000D527FACFDF91CF910C9423298091D509CE
:105270009091D609981759F0E92FF0E0EB52F64FCC
:1052800082819F5F9F779093D60990E008958FEF7A
:105290009FEF08952F923F924F925F926F927F926D
:1052A0008F929F92AF92BF92CF92DF92EF92FF9236
:1052B0000F931F93CF93DF93CDB7DEB728970FB629
:1052C000F894DEBF0FBECDBF182F8091281180311A
:1052D00008F03BC180E6F82E01E080912811803172
:1052E00008F033C18091D5099091D609891B8F7739
:1052F00009F42BC10E943629AC0197FDEECF282F6F
:105300008A3019F08D3009F0E3C01092E9028091E3
:10531000570A9091580AFC01E651FD4F1082892BE3
:1053200049F01092580A1092570A2AEE32E03F8351
:105330002E8303C00E946B85D0CFEE81FF818191C7
:10534000803219F4FF83EE83F8CF8E3409F072C0F7
:105350004E815F814115510509F46CC065ED76E021
:10536000CA010E94ABB76C01892B49F06EE470E072
:105370008E819F8104960E94A7BF009711F48E81B1
:105380009F814AE050E060E070E001960E9423B502
:105390004B015C018091590A90915A0AA0915B0AD5
:1053A000B0915C0A0196A11DB11D88169906AA0646
:1053B000BB0631F0CD2821F460E082EA96E02BC0F4
:1053C0006AE270E08E819F810E94C7BF9C010097B6
:1053D00029F1982F5E81951BE12C992341F0915082
:1053E000EE81FF81E90FF11D8081E826F6CF4AE0CA
:1053F00050E060E070E0C90101960E9423B54E2C98
:10540000512C612C712C641575058605970551F09A
:1054100060E083E896E00E945C6597C060E089E503
:1054200096E0F9CF8092590A90925A0AA0925B0AAC
:10543000B0925C0A8091180B8130E1F067E470E073
:105440008E819F810E94A7BF0097A1F04AE050E0A3
:1054500060E070E001960E9423B56430710581051B
:10546000910540F482EE95E00E94E79688ED95E084
:105470000E947D978091EA028B3309F42ECF6091D0
:1054800028116A83603108F028CF7091E80279838F
:10549000C72ED12CFC9CC001FD9C900D11246AEEFE
:1054A00072E0895D944F0E94B2BFF601EC56FD4E4A
:1054B000008389818F5F8983803118F48093E802AB
:1054C00002C01092E8029A819F5F9093281105CF45
:1054D0009091E902913009F400CF943020F094507B
:1054E0009093E9020DC04C3531F49C5F9093E90232
:1054F0009430C9F4F2CE4B3319F40093E902EDCEA7
:10550000283089F48091570A9091580A009709F43D
:10551000E4CE01979093580A8093570AFC01E65114
:10552000FD4F1082DACE2091570A3091580AC901F6
:1055300001969093580A8093570AF901E651FD4F5E
:1055400040838F359105CCF6C8CE0E94A8A36B018D
:105550007C0111113AC08091E30A811136C020E02C
:105560004091C7025091C8026091C9027091CA026D
:10557000411551056105710591F18091F60A9091EF
:10558000F70AA091F80AB091F90A840F951FA61F97
:10559000B71FB701A601481B590B6A0B7B0B77FDA0
:1055A0001EC00E94729860911312709114128AEDBD
:1055B00096E00E945F988AE00E94D52740E060E074
:1055C00070E080E090E00E941627C092F60AD09228
:1055D000F70AE092F80AF092F90A21E0C1CF80912F
:1055E000010290910202A0910302B0910402892B62
:1055F0008A2B8B2B09F450C090915E1280915F1220
:10560000981749F0C092F60AD092F70AE092F80A89
:10561000F092F90A41C0211110C20E94A8A3809003
:10562000F60A9090F70AA090F80AB090F90A009153
:105630000102109102022091030230910402080D30
:10564000191D2A1D3B1DDC01CB01801B910BA20BF8
:10565000B30BB7FDF2C18091520381111DC081E0EF
:10566000809352035F9A809182118E7F8093821182
:105670008A9A809182118D7F809382118091080196
:105680008095817080930601479A809182118B7F6B
:10569000809382110E94FA2680914E0390914F03CD
:1056A000A0915003B091510397018601081B190B7B
:1056B0002A0B3B0B37FD28C190915E1280915F123F
:1056C000981751F0E0915F1212E5E19FF00111246B
:1056D000EE51FC4F608102C060917B03662311F0A4
:1056E00070E002C060E070E089E00E94A5A28091B5
:1056F000F40A882309F4FBC02090150230901602AA
:10570000009117020887109118021E8360914C12B5
:1057100070914D126E5F7F4F072E000C880B990B16
:105720000E94FBB79101A8010E94F4B787FDDFC07A
:1057300000915F1209831A821B821C821D82809154
:105740005E121981811709F460C0812F90E022E573
:10575000289FF001299FF00D1124EF56FC4F458939
:1057600056896789708D452B462B472B81F4418DD7
:10577000528D638D748D452B462B472B41F4458DFF
:10578000568D678D70A1452B462B472BC9F132E50D
:10579000389F8001399F100D11240F561C4FF801BE
:1057A00061817281838194810E9443BF4B015C01BE
:1057B000F80161A172A183A194A10E94F9B72B0104
:1057C0003C01F80165A176A187A190A50E94F9B7D7
:1057D0009B01AC01C301B2010E948FBDA5019401E0
:1057E0000E945AB85B018C012A813B814C815D810A
:1057F0000E94F5BE181624F4AA82BB820C831D8376
:1058000089818F5F8F7089839ACF20910D023091AB
:105810000E0240910F02509110026A817B818C81AF
:105820009D810E945AB8910148855E810E9495BC75
:105830005B018C0160901102709012028090130243
:10584000909014029B01AC01B10188859E810E9459
:10585000F5BE18167CF09301A401B501C8010E94A1
:10586000F5BE181624F4130188869E8203C0150124
:1058700008871E8380904A0390904B03A0904C03AE
:10588000B0904D03910148855E81C501B4010E942D
:10589000F5BE1816D4F420E037ED43EA5CE3B1011D
:1058A00088859E810E945AB82B013C0128E431EE84
:1058B0004AE75FE3C501B4010E945AB8A30192010F
:1058C0000E9495BC1B0188879E83C101A885BE816B
:1058D00080934A0390934B03A0934C03B0934D03E2
:1058E000B101CD010E9401BECB010E94CA8FF4E636
:1058F000CF0ED11CE11CF11CC0924E03D0924F037D
:10590000E0925003F09251030E946B858091180B36
:10591000882309F495C00E94A8A36B017C018091A3
:105920000002882359F18091CE02882339F14091F9
:10593000530350915403609155037091560397019E
:105940008601041B150B260B370B37FD2AC083304D
:1059500079F03CF4813094F00E94769886E497E0E8
:105960000BC0843059F40E94769887E197E004C018
:105970000E9476988FE297E00E94E79620910002BD
:1059800030E0A8EEB3E00E944FBCC60ED71EE81E62
:10599000F91EC0925303D0925403E0925503F09243
:1059A00056038091C602882309F44AC00E94A8A326
:1059B0000091C2021091C3022091C4023091C5022D
:1059C000DC01CB01801B910BA20BB30BB7FD38C0E0
:1059D0000E94A8A36B017C012091C60230E0A8EED2
:1059E000B3E00E944FBCC60ED71EE81EF91EC0923F
:1059F000C202D092C302E092C402F092C50280E0DB
:105A00000E9429818AE028960FB6F894DEBF0FBE67
:105A1000CDBFDF91CF911F910F91FF90EF90DF905D
:105A2000CF90BF90AF909F908F907F906F905F903E
:105A30004F903F902F900C94D527109252032CCE6C
:105A400028960FB6F894DEBF0FBECDBFDF91CF9181
:105A50001F910F91FF90EF90DF90CF90BF90AF908C
:105A60009F908F907F906F905F904F903F902F907E
:105A70000895CF92DF92EF92FF92CF93DF936B0165
:105A80007C01D42FC091CE0283E08093CE0281E0CE
:105A90008093E10AC114D104E104F10431F00E94C1
:105AA000A8A3C60ED71EE81EF91E8091E10A88231E
:105AB00099F0C114D104E104F10421F48D2F0E9466
:105AC0004A29F3CF0E94A8A3DC01CB018C199D09C0
:105AD000AE09BF09B7FDF2CF1092E10AC093CE0222
