:100000000C947D120C94AE120C94AE120C94AE12A1
:100010000C94AE120C94AE120C94AE120C94AE1260
:100020000C94AE120C94AE120C94AE120C94AE1250
:100030000C94AE120C94AE120C94AE120C94AE1240
:100040000C94AE120C94ABA60C94AE120C94AE129F
:100050000C94AE120C94AE120C94B38E0C94F48BE0
:100060000C94AE120C94DB720C94A5720C94AE122C
:100070000C94AE120C94AE120C94AE120C94AE1200
:100080000C94AE120C94AE120C94AE120C94AE12F0
:100090000C94AE120C94AE120C94AE120C94AE12E0
:1000A0000C94AE120C94AE120C94AE120C94AE12D0
:1000B0000C94AE120C94AE120C94AE120C94AE12C0
:1000C0000C94AE120C94AE120C94AE120C94AE12B0
:1000D0000C94AE120C94AE120C94AE120C94AE12A0
:1000E0000C94AE12084AD73B3BCE016E84BCBFFDD8
:1000F000C12F3D6C74319ABD56833DDA3D00C77FF8
:1001000011BED9E4BB4C3E916BAAAABE0000008090
:100110003F05A84CCDB2D44EB93836A9020C50B91F
:10012000918688083CA6AAAA2ABE000000803F004B
:100130004E414E494E495459494E46CDCCCC3D0ACC
:10014000D7233C17B7D13877CC2B329595E6241FAF
:10015000B14F0A000020410000C84200401C462068
:10016000BCBE4CCA1B0E5AAEC59D7400407A10F33B
:100170005A00A0724E18090010A5D4E80000E876D5
:1001800048170000E40B54020000CA9A3B0000002C
:10019000E1F505000080969800000040420F000045
:1001A00000A08601000000102700000000E8030006
:1001B0000000006400000000000A000000000001D0
:1001C00000000000002C76D888DC674F0823DFC1D0
:1001D000DFAE59E1B1B796E5E3E453C63AE651998B
:1001E0007696E8E6C28426EB898C9B62ED407C6FB4
:1001F000FCEFBC9C9F40F2BAA56FA5F490055A2A6B
:10020000F75C936B6CF9676DC11BFCE0E40D47FE76
:10021000F520E6B500D0ED902E030094357705006B
:1002200080841E080000204E0A000000C80C3333F2
:1002300033330F986E12831141EF8D2114893BE601
:100240005516CFFEE6DB18D1844B381BF77C1D908A
:100250001DA4BBE424203284725E228100C9F124F3
:10026000ECA1E53D27434F4D4D554E49434154497F
:100270004F4E0044525952554E004552524F525320
:1002800000494E464F004543484F0053544F50508D
:1002900045442E20005072696E7465722073746F2D
:1002A000707065642064756520746F206572726F6C
:1002B00072732E2046697820746865206572726FAB
:1002C0007220616E6420757365204D393939207450
:1002D0006F20726573746172742E202854656D707E
:1002E00065726174757265206973207265736574D7
:1002F0002E205365742069742061667465722072C3
:10030000657374617274696E67290A004E6F2043C9
:100310006865636B73756D2077697468206C696EAE
:1003200065206E756D6265722C204C617374204C73
:10033000696E653A2000636865636B73756D206D47
:1003400069736D617463682C204C617374204C690F
:100350006E653A20004C696E65204E756D6265725F
:10036000206973206E6F74204C617374204C696E29
:1003700065204E756D6265722B312C204C61737453
:10038000204C696E653A20004D3131300053657262
:1003900069616C20737461747573206D69736D612C
:1003A0007463680A002121204B494C4C206361751D
:1003B00073656420627920746F6F206D75636820A7
:1003C000696E6163746976652074696D65202D209E
:1003D00063757272656E7420636F6D6D616E643AE1
:1003E0002000627573793A207061757365642066C8
:1003F0006F7220696E7075740A00627573793A20A5
:1004000070617573656420666F7220757365720A1A
:1004100000627573793A2070726F63657373696EE9
:10042000670A006563686F3A004572726F723A003E
:100430000A4D6561737572656420706F696E7473BF
:100440003A0A00357835206D6573682E205A206F82
:1004500066667365743A20002F2F616374696F6E4E
:100460003A006E6F74696669636174696F6E20002B
:10047000656E6400486F74656E6420746F6F2063EE
:100480006F6C640A00706175736564005061757308
:100490006500726573756D6564004469736D697399
:1004A0007300526573756D696E6700576169746991
:1004B0006E6720666F72206865617475702E0A0021
:1004C0004C656176696E6720473236003F53706530
:1004D00063696669656420582C5920636F6F726484
:1004E000696E617465206F7574206F6620626F7528
:1004F0006E64732E0A003F2852296570656174206E
:1005000076616C7565206E6F7420706C61757369AF
:10051000626C653B206D7573742062652061742088
:100520006C6561737420312E0A003F285229657072
:10053000656174206D7573742062652073706563E6
:100540006966696564207768656E206E6F742075D2
:1005500073696E6720616E204C43442E0A003F533E
:100560007065636966696564206E6F7A7A6C652070
:1005700074656D7065726174757265206E6F74203C
:10058000706C61757369626C652E0A003F5370650B
:100590006369666965642066696C616D656E742067
:1005A00073697A65206E6F7420706C61757369620F
:1005B0006C652E0A003F5370656369666965642047
:1005C0007072696D65206C656E677468206E6F74FB
:1005D00020706C61757369626C652E0A003F507201
:1005E000696D65206C656E677468206D7573742025
:1005F0006265207370656369666965642077686504
:100600006E206E6F74207573696E6720616E204C6A
:1006100043442E0A003F5370656369666965642030
:100620006E6F7A7A6C652073697A65206E6F7420BC
:10063000706C61757369626C652E0A003F52657457
:1006400072616374696F6E204D756C7469706C694A
:100650006572206D757374206265207370656369BF
:10066000666965642E0A003F537065636966696553
:10067000642052657472616374696F6E204D756C8D
:100680007469706C696572206E6F7420706C61752E
:100690007369626C652E0A003F5370656369666911
:1006A0006564206C6179657220686569676874208B
:1006B0006E6F7420706C61757369626C652E0A00D0
:1006C00043292E0A003F537065636966696564209B
:1006D0006265642074656D70657261747572652001
:1006E0006E6F7420706C61757369626C652028345C
:1006F000302D00473236207374617274696E672E34
:100700002E2E0A004F46460A004661646520486561
:10071000696768742000426564204C6576656C6981
:100720006E6720004661696C656420746F20656E99
:1007300061626C6520426564204C6576656C696E0B
:10074000670A004D65736820426564204C657665D4
:100750006C20646174613A0A00496E76616C696468
:10076000206D6573682E0A00206E6F7420656E74AC
:10077000657265642E0A00206F6620004D424C2091
:1007800047323920706F696E742000290A004A20B0
:100790006F7574206F662072616E67652028302D3A
:1007A00000290A0049206F7574206F662072616EFF
:1007B00067652028302D004732384C30004D657376
:1007C000682070726F62696E6720646F6E652E0AB2
:1007D000005374617274206D6573682070726F626B
:1007E000696E672077697468202247323920533157
:1007F000222066697273742E0A0047323953320020
:100800004732384C300A473239533200686173201E
:100810006E6F20646174612E0A004D65736820421A
:100820006564204C6576656C696E67200053206FA7
:100830007574206F662072616E67652028302D35D3
:10084000292E0A00416363757261637920446563F0
:1008500072656173696E67210044656372656173D7
:10086000696E6720416363757261637920446574C2
:1008700065637465642E0A00473238004732385A7F
:100880000041636375726163793A2000206F6620CE
:100890000044696420004733342061626F727465DC
:1008A000642E0A0041636375726163792041636855
:1008B000696576656400546172676574206163637D
:1008C00075726163792061636869657665642E0A73
:1008D000000A444946464552454E4345205A312D6B
:1008E0005A323D0050726F62696E67204661696CD2
:1008F00065640050726F62696E67206661696C653D
:10090000640A000A47333420497465726174696F60
:100910006E3A20003F2841296D706C6966696361F9
:1009200074696F6E206F7574206F6620626F756ECC
:1009300064732028302E352D322E30292E0A003FA8
:1009400028542961726765742061636375726163FD
:1009500079206F7574206F6620626F756E647320E6
:1009600028302E30312D312E30292E0A003F2849D3
:10097000297465726174696F6E206F7574206F667B
:1009800020626F756E64732028312D3330292E0A52
:100990000046696E6973686564210A003A207A3AF4
:1009A0002000206F662000476F696E6720746F3AE1
:1009B00020580043570A00206469723A0020616E93
:1009C000676C653A00537461727420726164697572
:1009D000733A00506F736974696F6E696E67207443
:1009E00068652070726F62652E2E2E0A003F4C657E
:1009F0006773206F66206D6F76656D656E74206914
:100A00006D706C61757369626C652028302D3135AD
:100A1000292E0A003F2028582C5929206F75742050
:100A20006F6620626F756E64732E0A0050726F627B
:100A300065206F7574206F6620626F756E64730039
:100A40003F53616D706C652073697A65206E6F74B9
:100A500020706C61757369626C652028342D3530A7
:100A6000292E0A004D3438205A2D50726F626520AD
:100A70005265706561746162696C6974792054654E
:100A800073740A003F2856296572626F7365206C83
:100A90006576656C20696D706C61757369626C65F3
:100AA0002028302D34292E0A005374616E6461723F
:100AB0006420446576696174696F6E3A2000205243
:100AC000616E67653A2000204D61783A2000204D24
:100AD000696E3A2000205369676D613A20004D65C8
:100AE000616E3A200020496E76616C6964206578F9
:100AF000747275646572200047322F47332062613B
:100B00006420706172616D65746572730A00536C64
:100B10006565702E2E2E005A2050726F626520502F
:100B2000617374204265640A005A2050726F6265D6
:100B300020506173742042656400205A3A200020DE
:100B4000593A200042656420583A20004D65736888
:100B500020706F696E74206F7574206F66207261EB
:100B60006E67650A004D302053746F70004D312060
:100B700053746F70004E6F204D6F76652E0025699F
:100B8000730025696D202569730025696820256932
:100B90006D20256973002569642025696820256911
:100BA0006D202569730025697920256964202569F0
:100BB000682025696D20256973005072696E742064
:100BC00074696D653A20006F6B006F66660086027F
:100BD00081027A027302650244454255473A004D4C
:100BE00031313320530042656420436F6F6C696E6E
:100BF000672E2E2E004265642048656174696E6719
:100C00002E2E2E00417274696C6C657279205369C6
:100C1000646577696E646572205831204F46462EB0
:100C2000006E6F74696669636174696F6E20002F6E
:100C30002F00205200416363656C65726174696FB7
:100C40006E3A2050005741524E494E4721204C6F7A
:100C500077205A204A65726B206D6179206C65613E
:100C60006420746F20756E77616E746564207061A6
:100C7000757365732E0A004D3230362058004F468A
:100C800046004F4E0020204D61783A200020002081
:100C9000204D696E3A2000536F667420656E647350
:100CA000746F70733A200046523A0020466C6F779A
:100CB0003A20004D424C2041646A757374205A00FA
:100CC00020643A0020693A0020703A00496E76614B
:100CD0006C69642065787472756465720A002064BA
:100CE0003A0020693A0020703A0064697300656E2A
:100CF0000043290A0061626C656420286D696E20DA
:100D000074656D702000436F6C6420657874727533
:100D10006465732061726520004D65736820706F93
:100D2000696E74206F7574206F662072616E6765DE
:100D30000A004D34323120696E636F7272656374DC
:100D400020706172616D657465722075736167658D
:100D50000A004F666673657473204170706C696534
:100D60006400546F6F206661722066726F6D20722E
:100D700065666572656E636520706F696E740A00E2
:100D8000454550524F4D204F4B0A002E0A00202857
:100D9000302D313029002076616C7565206F7574B7
:100DA000206F662072616E676500416476616E63D4
:100DB00065204B3D003F285929206F7574206F66D0
:100DC00020626F756E64732E0A003F285829206FC9
:100DD0007574206F6620626F756E64732E0A003F13
:100DE0002853292050726F62652D706F7369746982
:100DF0006F6E20696E64657820696E76616C6964D7
:100E00002E0A003F28532920697320726571756985
:100E10007265642E0A004D3432322053006F6B002D
:100E2000446966663A2020200046726F6D537470E4
:100E30003A00537465707065723A00556E4C657671
:100E4000656C3A004C6576656C65643A0052617772
:100E50003A20202020000A4C6F676963616C3A00D9
:100E6000436F756E7420453A004361703A007D000F
:100E70002C7A3A002C793A007D2C6D61783A7B7897
:100E80003A002C7A3A002C793A007D7D2C776F72EB
:100E90006B3A7B6D696E3A7B783A002C7A3A002C7B
:100EA000793A007D2C6D61783A7B783A002C7A3A59
:100EB000002C793A00617265613A7B66756C6C3A18
:100EC0007B6D696E3A7B783A004D45415450414301
:100ED0004B00434F4F4C45525F54454D5045524196
:100EE00054555245004348414D4245525F54454D8B
:100EF0005045524154555245004241425953544580
:100F00005050494E470041524353004D4F54494FB2
:100F10004E5F4D4F44455300544845524D414C5F40
:100F200050524F54454354494F4E004C4F4E475F2B
:100F300046494C454E414D45004155544F52455050
:100F40004F52545F53445F535441545553005344DC
:100F50005F5752495445005245504541540053444F
:100F6000434152440050524F4D50545F53555050DE
:100F70004F525400454D455247454E43595F5041ED
:100F80005253455200434153455F4C494748545FD3
:100F90004252494748544E45535300544F47474CDB
:100FA000455F4C494748545300534F4654574152AC
:100FB000455F504F574552004255494C445F50459C
:100FC0005243454E54004C4556454C494E475F44AC
:100FD000415441005A5F50524F42450052554E4FC6
:100FE0005554004155544F4C4556454C00505249BC
:100FF0004E545F4A4F420050524F475245535300A0
:101000004155544F5245504F52545F54454D500036
:101010004155544F5245504F52545F504F53005614
:101020004F4C554D455452494300454550524F4D44
:101030000042494E4152595F46494C455F54524126
:101040004E534645520053455249414C5F584F4E0E
:101050005F584F4646004649524D574152455F4EF4
:10106000414D453A4D61726C696E20322E302E38FA
:101070002E31202D20444947412D5465636820417D
:10108000535758312076312E3020284D6179203148
:101090003620323032312031323A33363A30392943
:1010A00020534F555243455F434F44455F55524C83
:1010B0003A6769746875622E636F6D2F4D61726C4B
:1010C000696E4669726D776172652F4D61726C69E8
:1010D0006E2050524F544F434F4C5F564552534928
:1010E0004F4E3A312E30204D414348494E455F54D2
:1010F0005950453A417274696C6C65727920536934
:10110000646577696E646572205831204558545281
:10111000554445525F434F554E543A312055554939
:10112000443A63656465326132662D343161322D33
:10113000343734382D396231322D633535633632E8
:101140006633363766660A00290A0020746F20006D
:101150003F5A206F7574206F662072616E6765203C
:101160002800290A0020746F20003F59206F7574F1
:10117000206F662072616E676520282D00290A00A5
:1011800020746F20003F58206F7574206F662072A6
:10119000616E676520282D0050726F6265204F6672
:1011A0006673657420580023646566696E65204423
:1011B000454641554C545F0000626564004B642015
:1011C000004B6920004B7020005049442041757449
:1011D0006F74756E652066696E6973686564212039
:1011E00050757420746865206C617374204B702C8A
:1011F000204B6920616E64204B6420636F6E7374B2
:10120000616E74732066726F6D2062656C6F7720FB
:10121000696E746F20436F6E666967757261746979
:101220006F6E2E680A00504944204175746F7475C2
:101230006E65206661696C6564212074696D656FF7
:1012400075740A00504944204175746F74756E6559
:10125000206661696C6564212054656D70657261FA
:101260007475726520746F6F20686967680A002062
:101270004B643A2000204B693A2000204B703A2002
:101280000020436C617373696320504944200A0055
:10129000204E6F206F76657273686F6F740A00203E
:1012A00054753A2000204B753A2000206D61783A41
:1012B0002000206D696E3A200020643A20002062F0
:1012C0006961733A2000504944204175746F747508
:1012D0006E652073746172740A0050494420417530
:1012E000746F74756E65206661696C656421205445
:1012F000656D706572617475726520746F6F2068BA
:101300006967680A00504944204175746F74756EAE
:101310006500504944204175746F74756E65206690
:1013200061696C656421204261642068656174654F
:10133000722069640A00486F6D696E6720466169B2
:101340006C6564006F70656E0054524947474552A2
:101350004544003A20007A5F6D696E00795F6D69DF
:101360006E00785F6D696E005265706F7274696EA1
:101370006720656E6473746F702073746174757325
:101380000A0020746F6F206C6F6E6720657874722E
:101390007573696F6E2070726576656E7465640A28
:1013A0000020636F6C6420657874727573696F6E6A
:1013B0002070726576656E7465640A00486F6D65AD
:1013C000202573257325732046697273740000000D
:1013D000000000000000000000005761726E696E9E
:1013E000673A20486F6D696E672042756D702044C2
:1013F000697669736F72203C20310A000202040092
:10140000809843008098430000C8430000A040003B
:1014100000A04000000040008098430080984300F6
:1014200000C843000000000000000000000000535E
:10143000657474696E67732053746F726564003BE2
:1014400020003A0A0020204D36303320002055007D
:101450004C0046696C616D656E74206C6F61642F21
:10146000756E6C6F6164206C656E677468733A00AA
:1014700020204D393030204B004C696E6561722060
:10148000416476616E63653A0020204D3835312025
:1014900058005A2D50726F6265204F6666736574EE
:1014A0000020440020490020204D333034205000DB
:1014B00020440020490020204D333031205000507E
:1014C00049442073657474696E67733A002020473D
:1014D0003239205334205A00204A00202047323924
:1014E00020533320490020204D3432302053004D0A
:1014F00065736820426564204C6576656C696E672B
:101500003A0020204D323036205800486F6D65205B
:101510006F66667365743A002058002053002020DF
:101520004D323035204200416476616E6365643A25
:1015300020423C6D696E5F7365676D656E745F74A4
:10154000696D655F75733E20533C6D696E5F6665BE
:101550006564726174653E20543C6D696E5F74729F
:101560006176656C5F66656564726174653E20587E
:101570003C6D61785F785F6A65726B3E20593C6DA7
:1015800061785F795F6A65726B3E205A3C6D617865
:101590005F7A5F6A65726B3E20453C6D61785F657E
:1015A0005F6A65726B3E0020540020520020204D7F
:1015B000323034205000416363656C657261746938
:1015C0006F6E2028756E6974732F7332293A20501C
:1015D0003C7072696E745F616363656C3E20523C5F
:1015E000726574726163745F616363656C3E2054FD
:1015F0003C74726176656C5F616363656C3E00206C
:10160000204D3230312058004D6178696D756D2064
:10161000416363656C65726174696F6E2028756ED5
:101620006974732F7332293A0020204D32303320F1
:1016300058004D6178696D756D20666565647261ED
:101640007465732028756E6974732F73293A00537B
:10165000746570732070657220756E69743A00202D
:10166000440020204D323030205300204469736103
:10167000626C65640A0046696C616D656E74207306
:10168000657474696E67733A0020286D6D290020B7
:1016900020473231202020203B20556E6974732072
:1016A000696E206D6D00454550524F4D2056657254
:1016B00073696F6E204572726F7200454550524FCC
:1016C0004D20496E646578204572726F7200454501
:1016D00050524F4D20435243204572726F720000AA
:1016E000004843000048430000A04100002042F4AD
:1016F0003DA042F43DA04296E3C7430080DE43D0C4
:10170000070000D00700006400000010270000243C
:10171000F4D43050C38E20C2A24017828B701112B5
:101720007A910D816CD90AA861E108C758660761F2
:101730005143061E4B5D05C145A7041A411104091A
:101740003D9803713931034036DB0265339102D491
:10175000305402802E1D02632CEE01752AC501B0A3
:1017600028A001102781018F2564012B244B01E063
:10177000223401AC211F018D200D01801FFC00844B
:101780001EED00971DDF00B81CD200E61BC600202E
:101790001BBC00641AB200B219A8000A19A0006AA2
:1017A000189900D117910040178B00B516840031AD
:1017B000167E00B31579003A157300C7146F0058F0
:1017C000146A00EE1366008813630025135E00C7D9
:1017D000125B006C12570015125400C111510070B9
:1017E000114F0021114B00D61049008D10470046C3
:1017F00010440002104200C00F4000800F3E004223
:101800000F3C00060F3B00CB0E3800930E37005CF8
:101810000E3500270E3400F30D3200C10D3100905B
:101820000D3000600D2E00320D2D00050D2C00D95D
:101830000C2B00AE0C2900850C29005C0C27003510
:101840000C27000E0C2600E80B2400C40B2400A07B
:101850000B23007D0B23005A0B2100390B210018AC
:101860000B2000F80A1F00D90A1E00BB0A1E009DAB
:101870000A1D00800A1D00630A1C00470A1B002C79
:101880000A1B00110A1A00F7091A00DD091900C421
:10189000091900AB091900920917007B09180063A8
:1018A0000917004C09160036091600200916000A0F
:1018B000091500F5081500E0081400CC081400B85C
:1018C000081400A4081400900813007D0812006B8F
:1018D00008130058081200460812003408110023AB
:1018E0000811001208110001081100F0071000E0B3
:1018F000071000D0071000C0071000B0070F00A1AC
:1019000007100091070E0083070F0074070F006592
:10191000070E0057070E0049070E003B070D002E6B
:10192000070E0020070D0013070D0006070D00F934
:10193000060C00ED060D00E0060C00D4060C00C8F5
:10194000060C00BC060C00B0060C00A4060B0099A7
:10195000060C008D060B0082060B0077060B006C50
:10196000060B0061060A0057060B004C060A0042EF
:10197000060A0038060A002E060A0024060A001A83
:10198000060A001006090007060A00FD050900F412
:10199000050900EB050900E2050900D9050900D099
:1019A000050900C7050900BE050900B5050800AD19
:1019B000050800A50509009C050800940508008C91
:1019C000050800840508007C050800740508006C03
:1019D000050700650508005D050700560508004E6F
:1019E00005070047050700400508003805070031D6
:1019F0000507002A050700230507001C0506001639
:101A00000507000F0507000805060002050700FB93
:101A1000040600F5040700EE040600E8040600E2F0
:101A2000040700DB040600D5040600CF040600C945
:101A3000040600C3040600BD040600B7040600B196
:101A4000040500AC040600A6040600A00405009BE3
:101A500004060095040500900406008A040500852C
:101A6000040500800406007A040500750405007072
:101A70000405006B04050066040500610405005CB4
:101A800004050057040500520405004D04050048F4
:101A9000040500430405003E0404003A0405003533
:101AA000040500300404002C04050027040400236E
:101AB0000405001E0404001A0404001604050011A5
:101AC0000404000D040400090405000404040000DB
:101AD000040400FC030400F8030400F4030400F011
:101AE000030400EC030400E8030400E4030400E042
:101AF000030400DC030400D8030400D4030400D072
:101B0000030400CC030400C8030300C5030300243E
:101B1000F404D9201BC40C5C0E9804C4095F026550
:101B2000077101F405F900FB04B30048048700C104
:101B30000369005803550003034500BE023A0084C0
:101B400002310053022A002902250004022000E489
:101B5000011C00C8011900AF01170098011400848E
:101B6000011300710110006101100051010E0043CA
:101B7000010D0036010B002B010B0020010B00159D
:101B80000109000C01090003010800FB000800F333
:101B9000000800EB000700E4000600DE000600D8A5
:101BA000000600D2000600CC000500C7000500C2F8
:101BB000000500BD000400B9000400B5000400B138
:101BC000000400AD000400A9000400A5000300A269
:101BD0000003009F0004009B000300980003009591
:101BE00000020093000300900003008D0002008BB0
:101BF00000030088000200860002008400030081C8
:101C00000002007F0002007D0002007B00020079DC
:101C100000020077000100760002007400020072EA
:101C2000000100710002006F0002006D0001006CF5
:101C30000002006A000100690002006700010066FE
:101C40000001006500010064000200620001006103
:101C5000000100600001005F0002005D0001005C07
:101C60000001005B0001005A00010059000100580A
:101C7000000100570001005600010055000100540A
:101C80000001005300000053000100520001005108
:101C9000000100500001004F0001004E0000004E06
:101CA0000001004D0001004C0001004B0000004B02
:101CB0000001004A000100490001004800000048FE
:101CC00000010047000100460000004600010045F9
:101CD00000000045000100440001004300000043F3
:101CE00000010042000000420001004100000041EC
:101CF000000100400001003F0000003F0001003EE5
:101D00000000003E0001003D0000003D0001003CDD
:101D10000000003C0000003C0001003B0000003BD4
:101D20000001003A0000003A0001003900000039CB
:101D300000010038000000380000003800010037C2
:101D400000000037000100360000003600000036B9
:101D500000010035000000350000003500010034AE
:101D600000000034000000340001003300000033A4
:101D70000000003300010032000000320000003299
:101D8000000100310000003100000031000100308E
:101D900000000030000000300001002F0000002F84
:101DA0000000002F0000002F0001002E0000002E78
:101DB0000000002E0001002D0000002D0000002D6D
:101DC0000000002D0001002C0000002C0000002C61
:101DD0000000002C0001002B0000002B0000002B55
:101DE0000000002B0001002A0000002A0000002A49
:101DF0000000002A0001002900000029000000293D
:101E0000000000290000002900010028000000282F
:101E10000000002800000028000000280001002722
:101E20000000002700000027000000270000002716
:101E30000001002600000026000000260000002609
:101E400000000026000100250000002500000025FC
:101E500000000025000000250000002500010024EE
:101E600000000024000000240000002400000024E2
:101E700000010023000000230000002300000023D5
:101E800000000023000000230000002300010022C6
:101E900000000022000000220000002200000022BA
:101EA00000000022000100210000002100000021AC
:101EB000000000210000002100000021000000219E
:101EC0000001002000000020000000200000002091
:101ED0000000002000000020000000200000002082
:101EE0000001001F0000001F0000001F0000001F75
:101EF0000000001F0000001F0000001F0001001E66
:101F00000000001E0000001E0000001E000000C2B5
:101F10003100001C260000F4190000D80F0000EB6F
:101F2000080000C00400007502000040010000200D
:101F3000436F756E7420583A0000626564002C206F
:101F400073797374656D2073746F7070656421208C
:101F50004865617465725F49443A20004865617460
:101F6000696E67204661696C6564004865617469E3
:101F70006E67206661696C6564004D3131322053B3
:101F8000687574646F776E004572723A204D4158DF
:101F900054454D50004D415854454D502074726980
:101FA000676765726564004572723A204D494E5408
:101FB000454D50004D494E54454D5020747269674F
:101FC000676572656400544845524D414C20525536
:101FD0004E4157415900546865726D616C205275CD
:101FE0006E6177617900202F002042403A00204046
:101FF0003A0020573A0020573A002053004D313024
:1020000036205000496E76616C6964206578747280
:10201000756465720A0070012C0190012701B001FE
:102020002201C0011D01F00118011002130130024C
:102030000E016002090190020401C002FF000003CA
:10204000FA004003F5008003F000D003EB00200409
:10205000E6007004E100E004DC004005D700C005A4
:10206000D2004006CD00D006C8008007C30030086B
:10207000BE00F008B900C009B400B00AAF00B00B50
:10208000AA00D00CA500000EA000500F9B00C010AD
:1020900096005012910000148C00C0158700B017F4
:1020A0008200B0197D00D01B7800001E7300402014
:1020B0006E0090226900F024640040275F009029A0
:1020C0005A00E02B5500102E500020304B001032EB
:1020D0004600E033410090353C001037370070383F
:1020E0003200A0392D00B03A2800A03B2300603C0C
:1020F0001E00103D1900903D1400103E0F00703E70
:102100000A00C03E0500003F0000403FFBFF803F4B
:10211000F6FFC03FF1FF2020506C616E6E65724289
:10212000756666657242797465733A20002046725E
:102130006565204D656D6F72793A2000436F6D7053
:10214000696C65643A204D61792031362032303235
:10215000310A00204C6173742055706461746564A9
:102160003A20323032312D30352D3135207C20412E
:102170007574686F723A2028444947412D5465634D
:10218000682C2041535758312076312E30290A00CF
:10219000322E302E382E310A004D61726C696E007D
:1021A00020536F6674776172652052657365740A97
:1021B00000205761746368646F67205265736574AB
:1021C0000A002042726F776E206F7574205265731B
:1021D00065740A002045787465726E616C205265E2
:1021E0007365740A00506F77657255700A007374D6
:1021F0006172740A00205A3A0020593A0020583A75
:1022000000656E6473746F7073206869743A20009F
:1022100000002100240027002A002D003000330098
:1022200001010000040107010A010000220025004D
:1022300028002B002E0031003400020100000501AF
:1022400008010B0105050505070508080808020235
:1022500002020A0A08080404040401010101010140
:1022600001010303030303030303040707070C0C23
:102270000C0C0C0C0C0C02020202060606060606EA
:1022800006060B0B0B0B0B0B0B0B0102102020088F
:1022900008102040102040800201020108040201C1
:1022A0000102040810204080804020100804020130
:1022B0008004020180402010080402010804020189
:1022C0000102040810204080010204081020408010
:1022D00000000A0B02090C0D0E08070304010000A0
:1022E00000000000000000000000000000000000EE
:1022F00000000000000000000000000012111000AB
:1023000000000000000000000000000000000000CD
:10231000000000000000FFFFFF50726F62696E67EF
:10232000204661696C65640A0050726F62696E676D
:10233000204661696C656400205A3A200020593AB1
:10234000200042656420583A200053656E64204D99
:1023500031303820746F20726573756D650A0049DD
:102360006E736572742066696C616D656E74206150
:102370006E642073656E64204D3130380A005265FA
:102380006865617420446F6E6500526568656174AC
:10239000696E672E2E2E005265686561740048656F
:1023A000617465722054696D656F75740053656E54
:1023B00064204D31303820746F2068656174206E60
:1023C0006F7A7A6C650A004E6F7A7A6C652050617C
:1023D000726B65640070726F6D70745F0073686F0C
:1023E0007700627574746F6E00626567696E005085
:1023F000757267654D6F7265005061757365640035
:10240000436F6E74696E7565004C6F616420466938
:102410006C616D656E74205400496E736572742032
:1024200066696C616D656E7420616E642073656EA3
:1024300064204D3130380A0020746F6F206C6F6E4D
:102440006720657874727573696F6E207072657637
:10245000656E7465640A0020636F6C64206578742F
:10246000727573696F6E2070726576656E746564DF
:102470000A00220A00556E6B6E6F776E20636F6DD7
:102480006D616E643A202200204500205A002059D8
:1024900000204D393220580020453A00205A3A0099
:1024A00020593A00583A004572726F72207772696B
:1024B00074696E6720746F20454550524F4D210A54
:1024C000006F6B0A00526573656E643A2000706F8E
:1024D0007765726F6666005072696E746572206807
:1024E000616C7465642E206B696C6C2829206361B3
:1024F0006C6C6564210A000063B011241FBECFEF2D
:10250000D1E2DEBFCDBF00E00CBF12E0A0E0B2E040
:10251000E8E7F7E801E00BBF02C007900D92AE3C80
:10252000B107D9F722E1AEECB2E001C01D92A63DA1
:10253000B207E1F712E1CDE7D2E100E006C0219752
:102540000109802FFE010E94ACC0CC37D10780E08A
:102550000807A9F70E944BB10C94BAC30C94000071
:10256000AF92BF92CF92DF92EF92FF920F931F93A1
:10257000CF93DF93C0E1D0E101EB1AE080E2A82E17
:1025800080E1B82EC12CD12C7601C3946991799148
:10259000899199910E9408BA288939894A895B8969
:1025A0000E9469BA0E940AC2F801619371938193F3
:1025B00091938F01C616D706E806F90610F46B0151
:1025C0007C01AC16BD0611F76FEF7FEFCB01A701C1
:1025D00096010E942EC02093C10A3093C20A4093F4
:1025E000C30A5093C40ADF91CF911F910F91FF90BE
:1025F000EF90DF90CF90BF90AF900895CF92DF9291
:10260000EF92FF9280918703882309F457C0C0900E
:102610008303D0908403E0908503F090860320E04C
:1026200030E0A901C701B6010E9404BA882309F469
:1026300045C020E030E040E05FE3C701B6010E9402
:1026400069BA9B01AC010E9469BA2BED3FE049E4F5
:1026500050E40E9469BA9B01AC0160E070E080E840
:102660009FE30E949DC16B017C01C0926A03D092DE
:102670006B03E0926C03F0926D036091190270910C
:102680001A02072E000C880B990B0E940ABA2AE046
:1026900037ED43E25CE30E9469BAA70196010E940C
:1026A00069BA609358027093590280935A029093CA
:1026B0005B02FF90EF90DF90CF900895C12CD12C5A
:1026C00080E8E82E8FE3F82ED0CF2F923F924F92E2
:1026D0005F926F927F928F929F92AF92BF92CF92B2
:1026E000DF92EF92FF920F931F93CF93DF93CDB7BB
:1026F000DEB764970FB6F894DEBF0FBECDBF7A8BFE
:10270000698BDC018D909D90AD90BC9013971496D1
:102710002D913D914D915C9117972D833E834F8371
:10272000588720E030E040E251E4C501B4010E9446
:10273000C0C02DE633EF45E65CE30E9469BA0E9413
:1027400005C264300CF427C163E0E62E660FFF0873
:10275000F701EE0FFF1FEE0FFF1FE154FE4E40800A
:102760005180628073801701BFEF2B1A3B0A20E073
:1027700030E040E251E46D817E818F8198850E9436
:10278000C0C02DE633EF45E65CE30E9469BA0E94C3
:1027900005C264300CF403C163E0062F660F110B11
:1027A000F801EE0FFF1FEE0FFF1FE154FE4E2081D8
:1027B00031814281538129833A834B835C83A80111
:1027C0004F5F5F4F5C8B4B8BA5E0AE9DC001AF9D13
:1027D000900D11249A878987FC01E00FF11FEE0FFD
:1027E000FF1FEE0FFF1FE856FC4FC080D180E28034
:1027F000F380F101EE0FFF1FEE0FFF1FE154FE4EBD
:10280000A301920160817181828193810E94C0C085
:102810006B877C878D879E87A3019201C501B401D8
:102820000E94C0C02B013C0125E0229DF001239DA8
:10283000F00D1124F88BEF87E00FF11FEE0FFF1F53
:10284000EE0FFF1FE856FC4FA701960160817181D2
:10285000828193810E94C0C02B853C854D855E8519
:102860000E949DC1A30192010E9469BAA70196012D
:102870000E94C1C06B017C01E985FA854B895C89A6
:10288000E40FF51FEE0FFF1FEE0FFF1FE856FC4F82
:1028900080809180A280B380EF85F889E40FF51FD6
:1028A000EE0FFF1FEE0FFF1FE856FC4FA50194012E
:1028B00060817181828193810E94C0C02B853C859B
:1028C0004D855E850E949DC1A30192010E9469BA57
:1028D000A50194010E94C1C0A70196010E94C0C039
:1028E0004B015C01EB89FC89EE0FFF1FEE0FFF1F10
:1028F000E154FE4E29813A814B815C816081718176
:10290000828193810E94C0C09B01AC01C501B401CA
:102910000E949DC14B015C0129813A814B815C8100
:102920006D817E818F8198850E94C0C09B01AC0122
:10293000C501B4010E9469BAA70196010E94C1C0F5
:10294000A989BA892D913D914D915C910E9469BAF6
:102950002091FC033091FD034091FE035091FF0351
:102960000E94C1C064960FB6F894DEBF0FBECDBF03
:10297000DF91CF911F910F91FF90EF90DF90CF905B
:10298000BF90AF909F908F907F906F905F904F908F
:102990003F902F90089567FFD8CE60E0D6CE67FFB6
:1029A000FCCE60E0FACE8F929F92AF92BF92CF9210
:1029B000DF92EF92FF92CF93DF93EC018090611052
:1029C00090906210A0906310B090641020E030E00E
:1029D000A901C501B4010E9404BA882309F454C0B6
:1029E000C880D980EA80FB80A7019601C501B401A7
:1029F0000E9404BA18160CF04CC020915810309167
:102A0000591040915A1050915B10C701B6010E94B5
:102A100004BA882331F1C0925810D0925910E09234
:102A20005A10F0925B1020915C1030915D10409133
:102A30005E1050915F10688179818A819B810E942C
:102A400069BA9B01AC0160E070E080E89FE30E94FE
:102A5000C0C060930D0270930E0280930F0290939A
:102A6000100260910D0270910E0280910F02909100
:102A70001002DF91CF91FF90EF90DF90CF90BF9049
:102A8000AF909F908F90089560E070E080E89FE3A2
:102A9000F0CF60E070E0CB01ECCF0F931F93CF93AA
:102AA000DF9300D01F92CDB7DEB7209160102223B4
:102AB000D1F08C01089677DF69837A838B839C83BE
:102AC000BE016F5F7F4FC80100DE9B01AC01F801C2
:102AD00060857185828593850E94C0C0F8016087FA
:102AE0007187828793870F900F900F900F90DF91DF
:102AF000CF911F910F910895CF93DF9324E0829F90
:102B0000C0011124EC01CB59DF4EFC01E159FB4F10
:102B1000835A9C4FDC012D913D914D915C916081D8
:102B20007181828193810E94C1C0688379838A8385
:102B30009B83DF91CF91089580FF04C0909169033A
:102B400090FD8E7F81FF05C090916903969590FD61
:102B50008D7F82FF06C0909169039695969590FDB2
:102B60008B7F08958091590390915A03A0915B0344
:102B7000B0915C038093540290935502A093560247
:102B8000B09357028091570390915803909353024A
:102B90008093520208958091540290915502A09121
:102BA0005602B09157028093590390935A03A09311
:102BB0005B03B0935C038091520290915302909317
:102BC00058038093570384E690E0909353028093D8
:102BD0005202089590E080E00895282F9091190303
:102BE000833021F495FD0FC094FD0FC0892F90E034
:102BF000B0E0A0E004C0B695A795979587952A9573
:102C0000D2F78170089581E0089580E00895FC0175
:102C100065917591859194910895CF92DF92EF928D
:102C2000FF92CF93DF93EC01CC80DD80EE80FF80BC
:102C300027E137EB41ED58EBC701B6010E94E8C22E
:102C400087FD23C023E030E848E953E4C701B6011B
:102C50000E9404BA1816CCF0C880D980EA80FB80A4
:102C600027E137EB41ED58EBC701B6010E94E8C2FE
:102C700087FD0BC0C1E023E030E848E953E4C70119
:102C8000B6010E9404BA18160CF4C0E08C2FDF9134
:102C9000CF91FF90EF90DF90CF9008952FEB280F0A
:102CA0002A3108F047C0E22FF0E08091390390917B
:102CB0003A03A0913B03B0913C0304C0B695A7959D
:102CC000979587952A95D2F780FD02C08170089567
:102CD000E65EFC4FE081EE2341F180910E10909171
:102CE0000F10E80FF92FF11D808190ED980F9A30A9
:102CF00030F08E3251F4818180538A3098F4F09311
:102D00001603E093150381E008958D3211F08B32A4
:102D100049F4818190ED980F9A3088F38E3211F446
:102D20008281EACFF0E0E0E0EACF10921603109241
:102D30001503E9CF80E00895B1DF882341F081E0F9
:102D40002091150330911603232B09F480E0089598
:102D5000CF93DF93EC01C43081E0D80714F0C4E0D6
:102D6000D1E0D0933F04C0933E0460913A04709147
:102D70003B0480913C0490913D040E9405C2CB012C
:102D8000BE01DF91CF910C943F8B0F931F93CF9394
:102D9000DF9304E210E1CAEDDAE0F801219131910C
:102DA000419151918F0160E070E080E89FE30E94C3
:102DB0009DC16993799389939993FAE0CA3EDF079D
:102DC00061F70E948C85DF91CF911F910F91C8CB45
:102DD000CF92DF92EF92FF920F931F93C12CD12CD1
:102DE00076018C012FE730E14BE750E167E770E1B6
:102DF00083E790E10E94D6861F910F91FF90EF909C
:102E0000DF90CF9008950F931F93809149038130F5
:102E100019F50E94338B00914103109142032091D8
:102E2000430330914403601B710B820B930B28EE1C
:102E300033E040E050E00E942EC060913D0370916D
:102E40003E0380913F0390914003620F731F841FE4
:102E5000951F1F910F91089560914503709146034E
:102E60008091470390914803D6CF809149038130E8
:102E700079F482E0809349030E94338B6093450389
:102E800070934603809347039093480381E008952D
:102E900080E0089563E00C94708880911503909110
:102EA0001603009731F04AE050E070E060E00C94C7
:102EB0006FB860E070E0CB010895809115039091A8
:102EC0001603009731F04AE050E070E060E00C94A7
:102ED00043B760E070E0CB010895EFDF97FD0AC0D3
:102EE000ECDF6F3F71058105910509F02CF4E5DFFA
:102EF000862F089580E008958FEF0895CF93C62F11
:102F00001BDF882311F0CF91E8CF8C2FCF9108954C
:102F10008091150390911603892B39F0DEDF91E043
:102F2000811101C090E0892F089591E0FCCFCF93EB
:102F3000DF93C82FD62F00DF882319F0DF91CF91C0
:102F4000E7CF8C2FABDE811101C08D2FDF91CF91A8
:102F50000895B3DFCB010895CF93DF93EB01ECDE4F
:102F6000882319F0DF91CF91F4CFCE01DF91CF917B
:102F700008950F931F93CF9380911503909116039B
:102F80000097E9F0FC018F01C1912C2F2F7D81F07A
:102F9000C53411F0C536B9F7F801108270E060E071
:102FA0000E94EDB5F801C083CF911F910F91089554
:102FB00070E060E0CF911F910F910C94EDB560E04F
:102FC00070E0CB01F1CFCF92DF92EF92FF926A01D6
:102FD0007B01B2DE882329F0FF90EF90DF90CF9045
:102FE000C8CFC701B601FF90EF90DF90CF90089552
:102FF0008F929F92AF92BF92CF92DF92EF92FF9209
:103000000F931F93CF9380E9E82E8AE0F82E03E711
:1030100010E195E6C92E90E1D92EC0E088E58C0F2D
:103020008BDE882309F474C0A4DF4B015C018C2F74
:10303000D4DD882309F462C0F80120813181428106
:103040005381C501B4010E94C1C0F701608371833F
:1030500082839383CF5FF4E0EF0EF11C0C5F1F4F70
:1030600084E0C80ED11CC330C9F685E465DE882330
:1030700009F459C07EDF6B017C0183E0AEDD88235B
:1030800071F020917F10309180104091811050910B
:103090008210C701B6010E94C1C06B017C01C092C1
:1030A0009C0AD0929D0AE0929E0AF0929F0A40E00C
:1030B00050E0BA0186E487DF20E030E0A9010E94F9
:1030C000E8C218167CF455DF20E030E040E752E417
:1030D0000E949DC1609354027093550280935602E2
:1030E00090935702CF911F910F91FF90EF90DF9037
:1030F000CF90BF90AF909F908F900895F601208160
:10310000318142815381C501B4010E94C0C09DCF6D
:10311000F80180819181A281B381F701808391833D
:10312000A283B38397CF80917F1090918010A0915C
:103130008110B091821080939C0A90939D0AA09375
:103140009E0AB0939F0AB3CF8F929F92AF92BF9285
:10315000CF92DF92EF92FF92CF93DF93CDB7DEB79E
:1031600060970FB6F894DEBF0FBECDBF80E090E051
:10317000A8E1B3E48D839E83AF83B8878D879E8754
:10318000AF87B88BE0918011F091811180809180A0
:10319000A280B38020E030E0A901C501B4010E9403
:1031A000C1C06B017C0120E030E040E251E40E94AC
:1031B00004BA87FF06C0C12CD12C90E2E92E91E41D
:1031C000F92EC982DA82EB82FC8220E030E848E9FD
:1031D00053E4C501B4010E94C1C06B017C0120E031
:1031E00030E843E953E40E94E8C218163CF4C12CCD
:1031F00080E8D82E83E9E82E83E4F82EC986DA86A3
:10320000EB86FC8680E1FE013196A8E8B3E00190F0
:103210000D928A95E1F760960FB6F894DEBF0FBE67
:10322000CDBFDF91CF91FF90EF90DF90CF90BF9017
:10323000AF909F908F9008954091040421E0422721
:103240000C94D285CF93DF9380916E03811119C0C6
:10325000C0911B02D0911C02219720E030E040E099
:103260005FE360913A0470913B0480913C0490913B
:103270003D040E94C1C00E9405C221E06C177D0779
:103280000CF020E0822FDF91CF9108950F931F93D0
:10329000CF93DF9300D01F92CDB7DEB7209160109F
:1032A0002223D1F08C0108967EDB69837A838B839D
:1032B0009C83BE016F5F7F4FC80107DA9B01AC01A1
:1032C000F80160857185828593850E94C1C0F801EF
:1032D00060877187828793870F900F900F900F9070
:1032E000DF91CF911F910F9108954F925F926F924E
:1032F0007F928F929F92AF92BF92CF92DF92EF9286
:10330000FF920F931F93CF93DF93CDB7DEB76897EC
:103310000FB6F894DEBF0FBECDBF8C015B015A83A0
:103320004983FC01EF5BFF4F608171818281938152
:103330000E9408BA6B017C01D5012D913D914D9100
:103340005C910E9469BA0E9487C12B013C01E9810E
:10335000FA812081318142815381C701B6010E94E7
:1033600069BA0E9487C14B015C01C301B2010E948E
:103370000AC2698B7A8B8B8B9C8B683771058105B0
:10338000910540F428E730E040E050E0298B3A8B8B
:103390004B8B5C8BC501B4010E940AC26D877E878E
:1033A0008F87988B683771058105910540F488E710
:1033B00090E0A0E0B0E08D879E87AF87B88BF801E2
:1033C000E35BFF4F208131814281538129833A831E
:1033D0004B835C83CA01B9010E940ABA2B013C01EC
:1033E00069897A898B899C890E9408BA69877A875A
:1033F0008B879C8720E030E0A901C301B2010E94C5
:1034000004BA882309F43BC1A7019601C701B6019C
:103410000E9469BA4B015C0129853A854B855C8520
:10342000CA01B9010E9469BA9B01AC01C501B4018E
:103430000E94C0C04B015C01A3019201C301B20113
:103440000E94C1C09B01AC01C501B4010E949DC195
:103450000E9487C10E940AC26D837E838F839887F2
:1034600069817A818B819C81909580957095619519
:103470007F4F8F4F9F4F0E940ABA4B015C016D85B1
:103480007E858F8598890E9408BA69837A838B83A9
:103490009C8320E030E0A901C501B4010E9404BA78
:1034A000882309F4F0C029813A814B815C81CA01EB
:1034B000B9010E9469BA6D8B7E8B8F8B988FA701A3
:1034C0009601C701B6010E9469BA9B01AC016D89E2
:1034D0007E898F89988D0E94C0C06B017C01A501F7
:1034E0009401C501B4010E94C1C09B01AC01C70198
:1034F000B6010E949DC10E9436C2D80195968D905A
:103500009D90AD90BC909897750164012D813E818E
:103510004F815885C21AD30AE40AF50A0E940AC2EA
:10352000C61AD70AE80AF90AF7FE6EC020E030E0B2
:10353000A901C301B2010E9404BA882309F4A7C0FB
:10354000C501B4010E9408BA6B017C01A30192017C
:10355000C301B2010E94C1C09B01AC01C701B60109
:103560000E9469BA6B017C0129853A854B855C858F
:10357000CA01B9010E9469BA9B01AC01C701B60139
:103580000E94C0C06B017C0129813A814B815C8122
:10359000CA01B9010E9469BA9B01AC01C701B60119
:1035A0000E94C1C06B017C0120E030E040E850E4A3
:1035B000C301B2010E9469BA9B01AC01C701B60107
:1035C0000E949DC10E9487C16B017C0120E030E018
:1035D000A9010E94E8C218161CF0C12CD12C76015A
:1035E000C701B6010E940AC26D837E838F839887CC
:1035F00086169706A806B90620F48D829E82AF82B1
:10360000B886C12CD12C76018D819E81AF81B88581
:10361000F80181A792A7A3A7B4A7C80ED91EEA1ED6
:10362000FB1EC5A6D6A6E7A6F0AAEB5BFF4F29892D
:103630003A894B895C892083318342835383349652
:103640008D859E85AF85B88980839183A283B3835E
:1036500068960FB6F894DEBF0FBECDBFDF91CF9155
:103660001F910F91FF90EF90DF90CF90BF90AF90A0
:103670009F908F907F906F905F904F90089560E043
:1036800070E0CB01E5CE60E070E0CB0134CF60E0CC
:1036900070E0CB0197CF8091851190918611891BA5
:1036A0008F7019F490E080E0089590918211992331
:1036B00051F0833030F48FEF890F19F0809382112D
:1036C000F1CF109282118091861122E5829FC00174
:1036D00011248451954FFC01208120FDE3CF2091DE
:1036E00086112F5F2F7020938311309186112091C6
:1036F0008411321304C02091831120938411089502
:1037000090916F0081E091FD02C080E0089590915A
:103710006F009D7F90936F000895EFE6F0E0808149
:10372000826080830895CF92DF92EF92FF92CF93D1
:10373000DF93C82FE5DF94E0C99FE0011124FE016B
:10374000ED5EFB4FC080D180E280F3808111E5DF28
:10375000C652D54FC701B6010E940ABA28813981E5
:103760004A815B810E9469BADF91CF91FF90EF900F
:10377000DF90CF900895CF93DF9380E0D4DFCBE448
:10378000D3E0688379838A839B8381E0CCDF6C8379
:103790007D838E839F8382E0C6DF688779878A87EF
:1037A0009B87DF91CF910895CF92DF92EF92FF92A6
:1037B000CF93DF93C82FA4DF94E0C99FE0011124C9
:1037C000FE01E95FFB4FC080D180E280F380811170
:1037D000A4DFC652D54FC701B6010E940ABA28819C
:1037E00039814A815B810E9469BADF91CF91FF9054
:1037F000EF90DF90CF900895CF93DF93CDB7DEB7F2
:103800002C970FB6F894DEBF0FBECDBF0E9403A762
:1038100077DF9CE0E3E1F4E0DE01119601900D9288
:103820009A95E1F7811179DFCE0101960E946B9D97
:103830002C960FB6F894DEBF0FBECDBFDF91CF91AF
:1038400008952F923F924F925F926F927F928F9244
:103850009F92AF92BF92CF92DF92EF92FF920F931F
:103860001F93CF93DF9300D0CDB7DEB78090731056
:1038700090907410A0907510B090761040907710D2
:10388000509078106090791070907A10C0907B10F2
:10389000D0907C10E0907D10F0907E100E94B012CD
:1038A0000E94FE1203E214E18FE192E09B838A837F
:1038B00087E1282E84E1382E198289811DD9C8011B
:1038C000A6D9EA81FB816193719381939193FB83E4
:1038D000EA83C1019CD9EA81FB8160877187828775
:1038E0009387F981FF5FF9830C5F1F4F84E0280EF7
:1038F000311CF33011F780E094E00E943D8645DAF8
:10390000A5019401609173107091741080917510ED
:10391000909176100E9404BA81111CC0A3019201FB
:1039200060917710709178108091791090917A1051
:103930000E9404BA81110EC020917B1030917C103E
:1039400040917D1050917E10C701B6010E9404BACB
:103950008823B1F00F900F900F90DF91CF911F91BE
:103960000F91FF90EF90DF90CF90BF90AF909F901E
:103970008F907F906F905F904F903F902F903CCFB3
:103980000F900F900F90DF91CF911F910F91FF90AB
:10399000EF90DF90CF90BF90AF909F908F907F90EF
:1039A0006F905F904F903F902F9008958F929F92CD
:1039B000AF92BF92CF92DF92EF92FF92CF93DF93BD
:1039C00020911D02222309F49EC0EC01809169031D
:1039D000C82ED12CF12CE12C80FF2CC080901F022E
:1039E00090902002A0902102B0902202288139817B
:1039F0004A815B81C501B4010E94E8C2181624F413
:103A000088829982AA82BB8280902B0290902C029D
:103A1000A0902D02B0902E02288139814A815B81CD
:103A2000C501B4010E9404BA87FF04C0888299824C
:103A3000AA82BB82D701C601B695A79597958795AF
:103A400080FF2CC08090230290902402A090250239
:103A5000B09026022C813D814E815F81C501B40169
:103A60000E94E8C2181624F48C829D82AE82BF8226
:103A700080902F0290903002A0903102B0903202DC
:103A80002C813D814E815F81C501B4010E9404BA41
:103A900087FF04C08C829D82AE82BF8282E0F69452
:103AA000E794D794C7948A95D1F7C0FE2CC0C090F4
:103AB0002702D0902802E0902902F0902A0228855F
:103AC00039854A855B85C701B6010E94E8C2181690
:103AD00024F4C886D986EA86FB86C0903302D0904B
:103AE0003402E0903502F0903602288539854A8507
:103AF0005B85C701B6010E9404BA87FF04C0C8866F
:103B0000D986EA86FB86DF91CF91FF90EF90DF9018
:103B1000CF90BF90AF909F908F9008951F93CF93B9
:103B2000DF93CDB7DEB760970FB6F894DEBF0FBE58
:103B3000CDBF182F20DE1D861E861F86188A809115
:103B40004B0390914C03A0914D03B0914E03898398
:103B50009A83AB83BC8380914F0390915003A091D3
:103B60005103B09152038D839E83AF83B8878091B8
:103B7000530390915403A0915503B0915603898744
:103B80009A87AB87BC8783E0CEDD6D877E878F8782
:103B9000988BCE0101960E944D151E3F99F480E14D
:103BA000FE013196A3E7B0E101900D928A95E1F70D
:103BB00060960FB6F894DEBF0FBECDBFDF91CF91F8
:103BC0001F91089584E0189FF0011124DF01AD5882
:103BD000BF4E81E090E08C0F9D1FE80FF91F4081E0
:103BE0005181628173814D935D936D937C931397A3
:103BF000DFCF0C948C8580916C04811105C080917D
:103C0000A20A882309F463C080914A03659959C0C8
:103C1000816080934A039091030180914A0391FD52
:103C200052C0826080934A0380914A034B994DC0F1
:103C3000846080934A038091060480FF10C08091C5
:103C40006D0480FF0CC080914A0380FF08C0809102
:103C5000A00A81608093A00A80E00E948B9D8091E1
:103C60000604869580FF11C080916D04869580FFC3
:103C70000CC080914A0381FF08C08091A00A826035
:103C80008093A00A81E00E948B9D80910604869516
:103C9000869580FF1CC080916D048695869580FF77
:103CA00016C08091A20A882391F080914A0382FF76
:103CB0000EC08091A00A84608093A00A82E00C94D8
:103CC0008B9D8E7FA6CF8D7FADCF8B7FB2CF08959A
:103CD0008091A00A882319F01092A00A089560E04C
:103CE00086E393E10E940D8F1092490310924103E5
:103CF0001092420310924303109244031092450322
:103D000010924603109247031092480310923D030D
:103D100010923E0310923F03109240030895809149
:103D200049038130E1F08230C1F46DD860933D03E6
:103D300070933E0380933F039093400381E0809310
:103D400049030E94338B6093410370934203809335
:103D500043039093440381E00895C6DFEFCF80E0F2
:103D60000895809149038150823070F41092490384
:103D70000E94338B609345037093460380934703FF
:103D80009093480381E0089580E008958F929F9278
:103D9000AF92BF92CF92DF92EF92FF920F931F9359
:103DA000CF93DF9310923503109234032FE32093C7
:103DB0003803109237031092360310923903109291
:103DC0003A0310923B0310923C039C01F90190814D
:103DD0002F5F3F4F9032D1F39E34C9F4818190ED33
:103DE000980F9A3020F08D3211F08B3281F4329698
:103DF0009F012F5F3F4F808180538A3008F46BC052
:103E00009F012F5F3F4F8081803209F466C0F0939D
:103E10000F10E0930E108F010F5F1F4FC0816AE2F9
:103E200070E0C8010E948FC3009731F0FC01319708
:103E300080818032E1F31182CD3421F0C43511F05C
:103E4000C734E1F5F80180810F5F1F4F8032D1F355
:103E500080538A3098F5C093380330E020E06AE060
:103E6000AF014F5F5F4F629FC001639F900D1124B0
:103E70009C01205331098081280F311D87FD3A951F
:103E8000FA01808180538A3058F3309337032093AE
:103E90003603DF0131968C918032D9F3CD3449F568
:103EA0002E31310539F0D8F42731310519F02C3194
:103EB0003105F9F4B0933503A0933403DF91CF912A
:103EC0001F910F91FF90EF90DF90CF90BF90AF9038
:103ED0009F908F900895F9018BCFF90191CF2537ED
:103EE000310538F02737310528F3203A83E03807C9
:103EF00009F3D0910E1040E050E0BA0110E000E06C
:103F0000C12CD12C7601C394FD0131968C9188236C
:103F100009F47FC08132E1F4CD34D1F4203231058F
:103F2000B9F44093390350933A0360933B03709381
:103F30003C03F0933503E093340363E270E0CF0178
:103F40000E948FC3009709F4B9CFFC011082B6CF4D
:103F500081548A3108F058C0DF019D91903291F070
:103F6000A0EDA90FAA30E8F09E3271F49181905330
:103F70009A30B8F00115110519F48F01015011099B
:103F800090E013C0FD01E8CF9D3211F09B3291F714
:103F90009181A0EDA90FAA3020F09E3259F79281AD
:103FA000E6CF9E2F9D1B309759F3A82FB0E0460116
:103FB000570104C0880C991CAA1CBB1C8A95D2F717
:103FC000482959296A297B29A65EBC4F9C93808188
:103FD0008154DF018A3108F497CFDF018191882372
:103FE00009F492CF90ED980F9A30B8F393ED980FB3
:103FF000923098F38B3289F3CD010196EC91E03247
:1040000009F082CFDC01F8CF0115110501F78D0110
:10401000DECF10933503009334034093390350935C
:104020003A0360933B0370933C0348CF4F925F92F7
:104030006F927F928F929F92AF92BF92CF92DF92B8
:10404000EF92FF92CF93DF9300D000D01F921F9288
:10405000CDB7DEB75C01DB01CD90DD90ED90FC903B
:10406000E0918011F0918111FE83ED83848195812F
:10407000A681B78189839A83AB83BC839C01AD0100
:10408000C701B6010E94C0C02B013C01F501808030
:104090009180A280B380AD81BE818D919D910D9064
:1040A000BC91A02D8D839E83AF83B88727E137EB2A
:1040B00041ED58EBC301B2010E94E8C287FDD3C0B5
:1040C00023E030E848E953E4C301B2010E9404BA96
:1040D00018160CF4C8C02D813E814F815885C5014A
:1040E000B4010E94C0C02B013C0127E137EB41ED38
:1040F00058EB0E94E8C287FDB6C023E030E848E9EB
:1041000053E4C301B2010E9404BA18160CF4ABC008
:1041100020E030E0A9016D817E818F8198850E9429
:10412000C1C02B013C0120E030E040E251E40E949C
:1041300004BA87FF06C0412C512C30E2632E31E4D3
:10414000732E27E137EB41ED58E3C301B2010E9422
:10415000C0C09B01AC01C501B4010E94E8C287FD4B
:1041600082C020E030E848E953E46D817E818F8190
:1041700098850E94C1C02B013C0120E030E843E952
:1041800053E40E94E8C218163CF4412C20E8522E59
:1041900023E9622E23E4722E27E137EB41ED58E349
:1041A000C301B2010E94C1C09B01AC01C501B401B1
:1041B0000E9404BA18160CF456C020E030E0A901A1
:1041C00069817A818B819C810E94C1C04B015C0115
:1041D00020E030E040E251E40E9404BA87FF06C0CC
:1041E000812C912C90E2A92E91E4B92E27E137EB96
:1041F00041ED58E3C501B4010E94C0C09B01AC0170
:10420000C701B6010E94E8C287FD2DC020E030E85A
:1042100048E953E469817A818B819C810E94C1C005
:104220004B015C0120E030E843E953E40E94E8C21E
:1042300018163CF4812C80E8982E83E9A82E83E49C
:10424000B82E27E137EB41ED58E3C501B4010E94D8
:10425000C1C09B01AC01B1E0B983C701B6010E94A6
:1042600004BA18160CF41982898128960FB6F894AE
:10427000DEBF0FBECDBFDF91CF91FF90EF90DF90FB
:10428000CF90BF90AF909F908F907F906F905F90F6
:104290004F900895CF93DF93C0915B04D0915C045D
:1042A000209729F160915704709158048091590426
:1042B00090915A040E9405C26E5F7F4F24976C173D
:1042C0007D07ACF470932504609324040E94338B23
:1042D000605A75418F4F9F4F609326047093270457
:1042E0008093280490932904DF91CF910895109230
:1042F0002604109227041092280410922904F4CF67
:10430000CF93DF93E6E3F4E0C085D18564817581C6
:10431000868197810E9405C2CB01BE01DF91CF91BA
:104320000C943F8B843021E0920714F084E091E0FC
:1043300090933F0480933E04E3CFCF93DF93EC014F
:10434000688170E085E00E94B089698170E084E056
:104350000E94B0896A8170E086E00E94B0898881FD
:104360009981482F490F5527551F8A81840F952F12
:10437000911D21E0833091050CF420E0209323046B
:1043800003976CF051E1C73AD50749F088819981CC
:10439000AA818093A7119093A811A093A911DF91EE
:1043A000CF9108958F929F92AF92BF92CF92DF925A
:1043B000EF92FF92CF93DF9300D0CDB7DEB72FEF10
:1043C0008417950731F16A01052E000CEE08FF08ED
:1043D0004C01092E000CAA08BB08681779072CF0BD
:1043E000CB01461757070CF4CA019C01990F440BE7
:1043F000550B281939094A095B09AFEFB0E00E9453
:104400006CC0A7019601281939094A095B090E9465
:1044100050C080914E04821751F020934E048FEFCC
:1044200089831A8220952B83CE01019686DF0F9017
:104430000F900F90DF91CF91FF90EF90DF90CF9092
:10444000BF90AF909F908F9008958F929F92AF9260
:10445000BF92CF92DF92EF92FF92CF93DF9300D083
:10446000CDB7DEB72FEF8417950731F16A01052E1E
:10447000000CEE08FF084C01092E000CAA08BB082E
:10448000681779072CF0CB01461757070CF4CA01BF
:104490009C01990F440B550B281939094A095B09EE
:1044A000AFEFB0E00E946CC0A7019601281939094E
:1044B0004A095B090E9450C080914E04821749F05E
:1044C00020934E0429831A828FEF8B83CE010196AD
:1044D00034DF0F900F900F90DF91CF91FF90EF900E
:1044E000DF90CF90BF90AF909F908F9008951092E3
:1044F000FC031092FD031092FE031092FF03E8E903
:10450000F3E084E6DF011D928A95E9F70895EF92C2
:10451000FF920F931F93CF93DF9308E913E0C5E059
:104520007801D5E0F70161917191819191917F01BD
:1045300020E030E0A9010E9404BA81110EC0D150E0
:1045400089F7C1500C5E1F4FC111EACFDF91CF91A7
:104550001F910F91FF90EF90089581E0F7CFCF92D8
:10456000DF92EF92FF926B017C0183E3C816D104C6
:10457000E104F10470F082E3C81AD108E108F108FF
:1045800062E370E080E090E00E94998A0E9431919D
:10459000ECCFC701B6010E94998AFF90EF90DF909F
:1045A000CF900C94319180916C04811104C0809162
:1045B000A20A882329F062E070E080E090E0CFCF8B
:1045C0000895129A08955F9A8091A10A8E7F809330
:1045D000A10A8A9A8091A10A8D7F8093A10A809175
:1045E00008018095817080930601479A8091A10A05
:1045F0008B7F8093A10AE5CF81E008959091C1005F
:1046000095FD0CC09091C00095FF08C08093C60036
:104610008091C00080648093C00008952091D302EF
:104620002F5F2F700FB607FC27C09091D402921312
:1046300028C09091C00095FF1EC09091D402409177
:10464000D302941306C09091C1009F7D9093C10046
:1046500012C0E92FF0E0ED52FD4F32819F5F9F7055
:104660003093C6009093D4023091C00030643093F0
:10467000C000491741F3D9CF9091D402921301C0E1
:10468000FBCFE091D302F0E0ED52FD4F8283209307
:10469000D3028091C10080628093C1000895CF93BE
:1046A000DF93EC018991882311F0A8DFFBCFDF9124
:1046B000CF910895CF93DF93EC018991882311F076
:1046C0009DDFFBCF8DE09ADF8AE0DF91CF9196CF1F
:1046D000CF92DF92EF92FF920F931F93CF93DF93CE
:1046E000CDB7DEB7A0970FB6F894DEBF0FBECDBF33
:1046F000442309F443C0611571058105910571F1E9
:1047000000E0C42ED12CF12CE12CA70196010E94CF
:104710002EC011E0100FE1E0F0E0EC0FFD1FE00F04
:10472000F11D07FDFA956083B901CA01012F6115DA
:1047300071058105910549F7115000F1E1E0F0E0C4
:10474000EC0FFD1FE10FF11D17FDFA95908187E336
:104750009A3008F480E3890F51DFEECF80E3A09612
:104760000FB6F894DEBF0FBECDBFDF91CF911F9182
:104770000F91FF90EF90DF90CF9040CFA0960FB6B3
:10478000F894DEBF0FBECDBFDF91CF911F910F9187
:10479000FF90EF90DF90CF900895CF92DF92EF924D
:1047A000FF92CF936B017C01C42F4A3061F4F7FE76
:1047B0000AC0F094E094D094C094C11CD11CE11CB8
:1047C000F11C8DE21BDF4C2FC701B601CF91FF908A
:1047D000EF90DF90CF907CCFCF93DF93EC01FE0181
:1047E00084912196882311F009DFF9CFDF91CF91D1
:1047F0000895CF93C82FCB01EFDF83E593E1ECDF82
:1048000084E493E1CC2311F089E493E1E5DF8AE0CD
:10481000CF91F4CECF9388E693E1DEDF8CB1C1E097
:1048200085FB882780F962E673E18C27E2DF8091BF
:104830000301869581706CE573E18C27DADF89B11D
:1048400083FB882780F966E573E18C27CF91D1CF70
:104850000F931F93CF938C01C62F89E69EE0BCDF98
:10486000C801BADF8AE3CADE80E38C0FC7DE8AE0C4
:10487000CF911F910F91C2CEAF92BF92CF92DF9294
:10488000EF920F931F93CF93DF935B01EA016901CE
:10489000882309F45AC08EED9AE09EDFF50160810D
:1048A00071818281938146E00E944F8CE1100AC0A1
:1048B00085ED9AE091DF688179818A819B8146E06C
:1048C0000E944F8C8EEC9AE087DFF6016081718147
:1048D0008281938143E00E944F8C87EC9AE07CDFD9
:1048E000F801608171818281938143E00E944F8C45
:1048F0008EEB9AE071DFF601208131814281538194
:10490000F80160817181828193810E94C0C043E07F
:104910000E944F8CEE20D9F08AE070DE89EA9AE09E
:104920005BDF688179818A819B8146E00E944F8CA0
:104930008AE064DE8AE0DF91CF911F910F91EF90C2
:10494000DF90CF90BF90AF9059CEE110E7CFDF91CD
:10495000CF911F910F91EF90DF90CF90BF90AF90CC
:1049600008954CDE88E697E037CF0F931F93CF93DF
:104970008C01C62F88E594E02FDFC8012DDFCC2302
:1049800029F08AE0CF911F910F9138CECF911F91DE
:104990000F91089560E085ED93E2E7DF80E794E012
:1049A0001BDF8AE02BCEEF92FF920F931F93CF93E2
:1049B0007C018B01C42F60E085ED93E2D6DFC70157
:1049C0000BDF80E21BDEC80107DFCC2311F08C2F48
:1049D00015DE8AE0CF911F910F91FF90EF900ECEE0
:1049E000DF92EF92FF920F931F93CF93DF93D82E16
:1049F0007B018A01E901CEDFD092AD0A40E0B70128
:104A000089EE93E2D0DF0115110529F040E0B801ED
:104A100082EE93E2C8DF209729F040E0BE0182EEEB
:104A200093E2C1DF60E085ED93E29FDF8DED93E2DD
:104A3000D3DE8AE0DF91CF911F910F91FF90EF902D
:104A4000DF90DCCDCF93DF93EC0160E082E694E071
:104A50008CDFCE01C1DE8AE0DF91CF91CFCDAF9266
:104A6000BF92CF92DF92EF92FF920F931F93CF935B
:104A7000DF9383E494E0B0DE6091FC037091FD036A
:104A80008091FE039091FF0345E00E944F8C80E3EC
:104A900094E0A2DEC0E0D9E0D15019F080E2AEDDB2
:104AA000FBCF8C2F0E944785CF5FC530A1F78AE0EE
:104AB000A5DD08E913E0C0E080E2A0DD8C2F0E94B4
:104AC00047855801D5E080E299DDF501C080D180AD
:104AD000E280F380A7019601C701B6010E9470C36E
:104AE000811129C020E030E0A901C701B6010E9470
:104AF000E8C287FD02C08BE281DD45E0C701B60157
:104B00000E944F8CD15084E1A80EB11CD111DBCF93
:104B10008AE074DDCF5F0C5F1F4FC53069F68AE015
:104B2000DF91CF911F910F91FF90EF90DF90CF9089
:104B3000BF90AF9063CDF12C80E260DDF3948DE304
:104B4000F8E0FF12FACFDECFCF93C62F45DE8C2FD1
:104B5000CF910C944785CF92DF92EF92FF926A013A
:104B60007B013ADE44E0C701B601FF90EF90DF9091
:104B7000CF900C944F8C4F925F926F927F928F9256
:104B80009F92AF92BF92CF92DF92EF92FF92CF931C
:104B9000DF93CDB7DEB7E0970FB6F894DEBF0FBE58
:104BA000CDBF86E590E118DE60E086E490E150DE5E
:104BB00060E081E390E14CDE61E08AE290E148DE72
:104BC00061E08FE190E144DE60E080E190E140DE71
:104BD00061E080E090E13CDE60E087EF9FE038DE5E
:104BE00061E08DEE9FE034DE60E083EE9FE030DE3A
:104BF00060E08CED9FE02CDE61E084ED9FE028DE3C
:104C000061E086EC9FE024DE60E088EB9FE020DE40
:104C100060E089EA9FE01CDE60E08BE99FE018DE3F
:104C200060E085E89FE014DE61E084E79FE010DE4D
:104C300061E085E69FE00CDE60E08EE59FE008DE47
:104C400060E087E59FE004DE60E08EE49FE000DE48
:104C500060E089E39FE0FCDD60E08BE29FE0F8DD4F
:104C600061E088E19FE0F4DD60E08BE09FE0F0DD53
:104C700061E086E09FE0ECDD61E089EF9EE0E8DD49
:104C800060E085EE9EE0E4DD60E082ED9EE0E0DD48
:104C900060E083ED91E10E94EA15682F617089EC74
:104CA0009EE0D6DD19821A821B821C821D821E8222
:104CB0001F82188619861A861B861C8680E090E85B
:104CC000A8E9B3E48D879E87AF87B88B898B9A8BD1
:104CD000AB8BBC8B80E090E0A8ECB3E48D8B9E8B1B
:104CE000AF8BB88FCE0101960E94D61CCE010D96D7
:104CF0000E94D61CE5E6F0E140805180628073801E
:104D000084809580A680B780C084D184E284F384B7
:104D100029813A814B815C81C301B2010E94C1C0EB
:104D2000698F7A8F8B8F9C8F2D813E814F81588523
:104D3000C501B4010E94C1C06D8F7E8F8F8F98A373
:104D400029853A854B855C85C701B6010E94C1C0A3
:104D500069A37AA38BA39CA32D853E854F85588993
:104D6000C301B2010E94C1C06DA37EA38FA398A707
:104D700029893A894B895C89C501B4010E94C1C067
:104D800069A77AA78BA79CA72D893E894F89588D43
:104D9000C701B6010E94C1C06DA77EA78FA798ABBF
:104DA00020E030E0A901C301B2010E94C1C0AB0103
:104DB000BC0185EB9EE0CFDE20E030E0A901C5011B
:104DC000B4010E94C1C0AB01BC0181EB9EE0C3DE17
:104DD00020E030E0A901C701B6010E94C1C0AB01CB
:104DE000BC018DEA9EE0B7DE20E030E848E953E4FC
:104DF000C301B2010E94C1C0AB01BC0183EA9EE0C5
:104E0000AADE20E030E848E953E4C501B4010E947D
:104E1000C1C0AB01BC018FE99EE09DDE20E030E027
:104E200048EC53E4C701B6010E94C1C0AB01BC010C
:104E30008BE99EE090DE498D5A8D6B8D7C8D8AE8E2
:104E40009EE089DE4D8D5E8D6F8D78A186E89EE0B7
:104E500082DE49A15AA16BA17CA182E89EE07BDEA3
:104E60004DA15EA16FA178A588E79EE074DE49A5FB
:104E70005AA56BA57CA584E79EE06DDE4DA55EA5D9
:104E80006FA578A980E79EE066DE8EE69EE0A4DC52
:104E900081EC92E004DC8AE0B1DBE0960FB6F89496
:104EA000DEBF0FBECDBFDF91CF91FF90EF90DF90BF
:104EB000CF90BF90AF909F908F907F906F905F90BA
:104EC0004F900895CF92DF92EF92FF926A017B019B
:104ED00083DC4AE0C701B601FF90EF90DF90CF90EE
:104EE0005CCC2F923F924F925F926F927F928F9203
:104EF0009F92AF92BF92CF92DF92EF92FF920F9369
:104F00001F93CF93DF93CDB7DEB7C956D1090FB644
:104F1000F894DEBF0FBECDBF70E060E085E40E9474
:104F2000AC178F838F3F09F474C08823E9F082E1C6
:104F300093E152DCC759DF4F0FB6F894DEBF0FBEC6
:104F4000CDBFDF91CF911F910F91FF90EF90DF9038
:104F5000CF90BF90AF909F908F907F906F905F9019
:104F60004F903F902F90089524EB30E039872887A9
:104F700083E50E949C16882321F00E94A917998737
:104F8000888765E070E083E40E94AC17782E60E0CB
:104F900085E50E94971768968FAF689785E093E143
:104FA00051DD0E94338B6A8B7B8B8C8B9D8B5F8159
:104FB0000CE310E05F3F11F004E110E08A899B8967
:104FC000AC89BD898C53964FAF4FBF4F80932A0455
:104FD00090932B04A0932C04B0932D048F818F3FCA
:104FE00009F4AAC1E82E880FFF08F701A3E0EE0F2D
:104FF000FF1FAA95E1F7E65BFD4F868197810F972A
:10500000A885B9858A179B070CF054C38AED92E1F5
:1050100090CF46E450E059874887AACF65961FAEE7
:105020006597D5C110913A0430903B0420903C0420
:1050300000913D0476C2B6D9B0C26796EEADFFAD21
:105040006797808306C34BEE842E912CA12CB12C44
:10505000A9C384E190E0A0E0B0E08A8F9B8FAC8F81
:10506000BD8F34E1832E912CA12CB12CABC38A8E41
:105070009B8EAC8EBD8EA6C32AE939E949E15FE378
:1050800080E090E0A0E0BEE306C481E892E146C47F
:105090006796EEADFFAD679780836CC4D301C20104
:1050A00025962CAD3DAD4EAD5FAD2597821B930B84
:1050B000A40BB50BB7FD5BC065968FAD65970E94DD
:1050C000ED8C8AE09BDAD301C2018053984FAF4F39
:1050D000BF4F25968CAF9DAFAEAFBFAF259726963D
:1050E0009FAD2697911173C02A962CAD3DAD4EAD64
:1050F0005FAD2A97612F732D822D902F0E94E8C2F9
:1051000018160CF04EC020E030E040E050E4612F73
:10511000732D822D902F0E94C1C02A966CAF7DAF57
:105120008EAF9FAF2A9721962CAD3DAD4EAD5FADB2
:105130002197240D351D461D571D2E962CAF3DAFD2
:105140004EAF5FAF2E97A8966CAD7DAD8EAD9FAD87
:10515000A8970E940ABA212F332D422D502F0E946A
:1051600004BA881F8827881F26968FAF26978A89BA
:105170009B89AC89BD89C816D906EA06FB0610F4DE
:10518000D701C601481A590A6A0A7B0A31E8431650
:105190003FE4530632E16306710480F186E292E156
:1051A0007BC2D301C2012E962CAD3DAD4EAD5FAD9D
:1051B0002E97821B930BA40BB50B4CE55FE16BE6BE
:1051C0007FE1B7FDD4CF8F810E94868FD0CFA49688
:1051D0006CAD7DAD8EAD9FADA4970E940ABA9B01C8
:1051E000AC01612F732D822D902F0E9404BA87FF8E
:1051F000BECF46EC5FE166ED7FE1E5CFAA964EAD0E
:105200005FADAA978AA19BA1481759070CF068C106
:1052100003970CF465C189EC91E1DEDA9F8109EB1B
:1052200011E19F3F11F008EB11E187EA91E1D4DA37
:10523000C801D2DA4A855B856C857D8585EC91E174
:105240008ADC8AE0DBD987EA91E1C6DAC801C4DAF0
:105250004AA55BA56CA57DA581EC91E17CDC8AE08B
:10526000CDD987EA91E1B8DAC801B6DA4EA55FA5D3
:1052700068A979A98DEB91E16EDC8AE0BFD96896C7
:10528000AFAD6897AA23A9F12CEA35EC47E25EE3BB
:105290006AA57BA58CA59DA50E9469BA6B017C01BE
:1052A0002CEA35EC47E25EE36EA57FA588A999A9B3
:1052B0000E949DC1BF812A853B854C855D85BF3F8E
:1052C00011F520935E0430935F0440936004509383
:1052D0006104C0926204D0926304E0926404F0928C
:1052E00065046093660470936704809368049093E8
:1052F00069048AAD9BADACAD89839A83AB83CE0143
:1053000001961BD817CE209341043093420440935A
:10531000430450934404C0924504D0924604E09262
:105320004704F09248046093490470934A048093C0
:105330004B0490934C04DDCF488559854D38510579
:105340000CF064CE86EC92E147DA0E94EA8E8FE799
:1053500080935D0420915704309158044091590482
:1053600050915A0464962CAF3DAF4EAF5FAF649737
:1053700080934E040E94F3996AAF7BAF8CAF980183
:10538000A8EEB3E00E947CC021966CAF7DAF8EAFDB
:105390009FAF21972A893B894C895D89260F371F4A
:1053A000481F591F2E962CAF3DAF4EAF5FAF2E97C3
:1053B00081E0809347023F813E5F60963FAF6097F8
:1053C000323008F42BCE4F8165964FAF6597CA886F
:1053D000DB88EC88FD882596CCAEDDAEEEAEFFAE68
:1053E00025971EA61FA618AA19AA1AA61BA61CA6B0
:1053F0001DA61A861B861C861D868FE790E0A0E0FE
:10540000B0E08A8F9B8FAC8FBD8F1E8690E49E8B01
:10541000ACE1ACA3B6E4BDA31EA21FA218A619A6B8
:10542000FFE78F2E912CA12CB12C26961FAE26972C
:105430002A961CAE1DAE1EAE1FAE2A971EAA1FAA2C
:1054400018AE19AEE1E0EDAB1BA21AA210E0312CB0
:10545000212C00E028853985032E000C440B550BC8
:105460006C962CAF3DAF4EAF5FAF6C973F8147E17D
:105470003402C0011124DC01A05CBB4F6796BFAFB2
:10548000AEAF6797888599854E969C01990F440B1E
:10549000550BA0962CAF3DAF4EAF5FAFA097888560
:1054A00099854E979C01990F440B550BA4962CAFF0
:1054B0003DAF4EAF5FAFA4978885998506979C0155
:1054C000990F440B550BA8962CAF3DAF4EAF5FAF75
:1054D000A897472D770C550BAA965FAF4EAFAA97AA
:1054E00080914702882309F4D8C00E94338B2B0196
:1054F0003C01509130042F965FAF2F97552309F44C
:10550000B9C00E948490109230048F818F3F09F0BF
:1055100089CD10915704309058042090590400917F
:105520005A042EA13FA148A559A5612F732D822DA4
:10553000902F0E94E8C2181624F41EA33FA228A6AA
:1055400009A72E853E894CA15DA1612F732D822D67
:10555000902F0E9404BA87FF04C01E873E8A2CA2A7
:105560000DA364966CAD7DAD8EAD9FAD64970E942A
:1055700005C26E8F7F8F88A399A3612F732D822D13
:10558000902F0E9405C2AF81488559858E8D9F8DD1
:10559000AF3F09F050CD0E94252280912A049091BE
:1055A0002B04A0912C04B0912D04A3019201281B7F
:1055B000390B4A0B5B0BDA01C901B7FD10C00E9421
:1055C000F690D301C2018C53964FAF4FBF4F8093DB
:1055D0002A0490932B04A0932C04B0932D046C9672
:1055E0006CAD7DAD8EAD9FAD6C970E940ABA6E8F8B
:1055F0007AAB8BAB9CAB3DA9332309F47BC09B01F9
:10560000AC01612F732D822D902F0E94E8C21816D5
:105610008CF5B301A2014C195D096E097F09DB010C
:10562000CA0188589341A109B109B7FD23C08A8DE9
:105630009B8DAC8DBD8D88199909AA09BB09B595BB
:10564000A79597958795EF81EF3F09F0F6CC80936A
:105650005D044EAB5FAB68AF79AFFE8DFEA32AA9A8
:105660002FA33BA938A74CA949A74A8A5B8A6C8A11
:105670007D8A1DAAA0966CAD7DAD8EAD9FADA09725
:105680000E940ABA212F332D422D502F0E9404BAB6
:1056900087FF04CD84E492E19FD8109247020E94D4
:1056A000EA8E2AAD3BAD4CAD2C833D834E83CE01BB
:1056B000049627CE86EC92E18FD80E94EA8E87E18D
:1056C0008E9DF0018F9DF00D1124EA5CFB4F8FE75A
:1056D000828780913A0490913B04A0913C04B09160
:1056E0003D0464968CAF9DAFAEAFBFAF6497109290
:1056F0004E0440CE2E8D3AA94BA95CA9612F732D83
:10570000822D902F0E9404BA87FFB4CFD301C2012B
:105710002A893B894C895D89821B930BA40BB50BAD
:10572000AC01BD01485853416109710977FDA2CF11
:105730004AA15BA1452B09F40BC1CEA8DFA8E8ACB8
:10574000F9ACC80ED91EEA1EFB1E2EA93FA948AD12
:1057500059AD281B390B4A0B5B0BC501B4010E94E4
:105760001FC0A70196010E9450C08A8C9B8CAC8CF4
:10577000BD8C820E931EA41EB51E54E185169104A5
:10578000A104B1040CF465CC8CEE88169104A1043C
:10579000B1040CF058CC90E889169104A104B1042E
:1057A0000CF465CC8A8E9B8EAC8EBD8E8EEF90E015
:1057B000A0E0B0E09C01AD01281939094A095B0954
:1057C00049015A014A8D5B8D6C8D7D8D8EEB92E186
:1057D00079DBB501A40189EB92E174DB4E855E892A
:1057E0006CA17DA182EB92E1B6D94EA15FA168A523
:1057F00079A58BEA92E1AFD9AAA1BBA113970CF4CA
:10580000A7C0C501B4010E940ABA20E030E040E818
:1058100050E40E9469BA6A877B878C879D872E85B2
:105820003E894CA15DA16EA17FA188A599A50E948A
:10583000C0C02BED3FE049E450E40E9469BA20E08B
:1058400030E040E05FE30E9469BA9B01AC016A85E9
:105850007B858C859D850E949DC16E8B7F8B888FFB
:10586000998FC701B6010E940ABA2FE632E143E8D8
:105870005AE30E9469BA6B017C01BF81BE3F19F0F7
:10588000BF3F09F0F9CB2DEC3CEC4CE45EE38BEA36
:105890009AEAAAEABEE38E879F87A88BB98B6E89A6
:1058A0007F89888D998D0E9469BA6A877B878C87EA
:1058B0009D879B01AC010E94C1C0A70196010E9477
:1058C0009DC16AA77BA78CA79DA72A853B854C8590
:1058D0005D85C701B6010E9469BA2E853F8548895A
:1058E00059890E9469BA6EA77FA788AB99AB4E8988
:1058F0005F89688D798D85EA92E12DD9B701A6017E
:105900008FE992E128D98AE00E94FE2260969FAD3D
:105910006097923008F0B9CB80E992E10E94EC23C5
:105920004A855B856C857D858BE792E114D94AA514
:105930005BA56CA57DA585E792E10DD94EA55FA578
:1059400068A979A98FE692E106D98AE00E94FE2231
:105950008A8D9B8DAC8DBD8D880D991DAA1DBB1D9B
:10596000B595A79597958795EF81EF3F09F090CB77
:1059700080935D042AA13BA12F5F3F4F3BA32AA345
:105980003E8D3E874AA94E8B5BA95CA38CA98DA353
:10599000730162012F969FAD2F979DAB6BCECF9376
:1059A000DF93EB010E94EC23CE01DF91CF910C94A9
:1059B00040853F924F925F926F927F928F929F921B
:1059C000AF92BF92CF92DF92EF92FF920F931F930D
:1059D000CF93DF9380913B0387FD35C080913C03DB
:1059E000837089F5C0918011D091811148815981CE
:1059F0006A817B8188E991E1AED84C815D816E81BD
:105A00007F818EE894E2A7D840917C1150917D115E
:105A100060917E1170917F118BE894E29CD88AE0AE
:105A2000DF91CF911F910F91FF90EF90DF90CF907A
:105A3000BF90AF909F908F907F906F905F904F90AE
:105A40003F900C94FE2260907411709075118090BC
:105A5000761190907711A0907811B0907911009103
:105A60007A1110917B11C0907C11D0907D11E09043
:105A70007E11F0907F1188E50E949C16C82F882324
:105A800009F494C00E94B917362E472E582ED92FEC
:105A900020E030E848E953EC0E94E8C287FD0DC0E1
:105AA00020E030E848E953E4632D742D852D9D2FC7
:105AB0000E9404BA18160CF07BC061E371E085E81F
:105AC00091E16DDF61E371E080E891E168DF8DE7EE
:105AD00091E10E94EC23C0E089E50E949C16882396
