:100000000C9487140C94B8140C94B8140C94B81471
:100010000C94B8140C94B8140C94B8140C94B81430
:100020000C94B8140C94B8140C94B8140C94B81420
:100030000C94B8140C94B8140C94B8140C94B81410
:100040000C94B8140C940C930C94B8140C94B8142D
:100050000C94B8140C94B8140C9448810C94C953A3
:100060000C94B8140C9445330C9410330C94B814BD
:100070000C94B8140C94B8140C94B8140C94B814D0
:100080000C94DE2C0C94B8140C94B8140C94B81482
:100090000C94B8140C94B8140C94B8140C94B814B0
:1000A0000C94B8140C94B8140C94B02C0C94B81490
:1000B0000C94B8140C94B8140C94B8140C94B81490
:1000C0000C94B8140C94B8140C94B8140C94B81480
:1000D0000C94B8140C94B8140C94B8140C94B81470
:1000E0000C94B8147B338D339F33B033B833EB3378
:1000F000BC33EB33C033C433EB33C833CC33D033EE
:10010000D933EB33E4336E517151605164516A510C
:10011000A851755179517F51835187518D5191511A
:100120009551A8519B519F51A351E352E852ED5272
:10013000F75201537A530B5313531B5325532F5329
:100140003953485352537A535C53665370538C78E7
:10015000937846794B799A7A9F7AAF7A084AD73B57
:100160003BCE016E84BCBFFDC12F3D6C74319ABD86
:1001700056833DDA3D00C77F11BED9E4BB4C3E91AA
:100180006BAAAABE000000803F05A84CCDB2D44E99
:10019000B93836A9020C50B9918688083CA6AAAA9B
:1001A0002ABE000000803F07634236B79BD8A71ADB
:1001B00039685618AEBAAB558C1D3CB7CC5763BDE9
:1001C0006DEDFD753EF6177231BF000000803F08EF
:1001D000000000BE922449123EABAAAA2ABECDCC92
:1001E000CC4C3E00000080BEABAAAAAA3E00000094
:1001F00000BF000000803F0000000000084178D3ED
:10020000BB4387D1133D190E3CC3BD4282AD2B3E8B
:1002100068EC8276BED98FE1A93E4C80EFFFBE012B
:10022000C4FF7F3F0000000000000C94A3510C9419
:100230008D330C940B530C949F330C947F510C947E
:100240009B510C94E3520C94AF7A0C9493780C94D9
:100250009F7A0C9452530C94EB330C94B0330C945F
:100260006E510C949F510C94F7520C94C0330C9423
:100270008C780C9464510C944B790C94CC330C9482
:10028000E4330C9466530C94A8510C9413530C94BF
:1002900087510C94BC330C9479510C946A510C9492
:1002A0009AE50C9425530C941B530C94C4330C9472
:1002B000ED520C9470530C94D9330C94D0330C94AD
:1002C00001530C948D510C9448530C9460510C9430
:1002D0005C530C9475510C947A530C949A7A0C9448
:1002E000B8330C94E8520C9491510C9446790C94C8
:1002F00095510C9439530C9483510C9471510C9476
:10030000C8330C942F530C947B334E414E494E49C5
:100310005459494E46CDCCCC3D0AD7233C17B7D1D2
:100320003877CC2B329595E6241FB14F0A00002078
:10033000410000C84200401C4620BCBE4CCA1B0EF7
:100340005AAEC59D74434F4D4D554E494341544996
:100350004F4E0044525952554E004552524F52533F
:10036000004543484F0047322F47332062616420E5
:10037000706172616D65746572730A00536C6565B6
:10038000702E2E2E005A2050726F626520506173BD
:1003900074204265640A005A2050726F62652050D2
:1003A0006173742042656400205A3A200020593A53
:1003B000200042656420583A20004D657368207023
:1003C0006F696E74206F7574206F662072616E673E
:1003D000650A004D302053746F70004D3120537406
:1003E0006F7000436F6E74696E7565004E6F204DBF
:1003F0006F76652E00256979202569642025696856
:100400002025696D20256973005072696E7420740F
:10041000696D653A2000496E76616C6964205069A7
:100420006E204D6F64650A0044454255473A004DC1
:1004300031313320530042656420436F6F6C696E25
:10044000672E2E2E004265642048656174696E67D0
:100450002E2E2E00417274696C6C6572792053697E
:10046000646577696E646572205831204F46462E68
:10047000002F2F2000416363656C65726174696FA2
:100480006E3A2050005741524E494E4721204C6F42
:1004900077205A204A65726B206D6179206C656106
:1004A0006420746F20756E77616E7465642070616E
:1004B000757365732E0A0020204D61783A20002064
:1004C000204D696E3A2000536F667420656E647328
:1004D000746F70733A200046523A0020466C6F7772
:1004E0003A200050726F7465637465642050696EC1
:1004F0000A0020536572766F200050726F6265208B
:100500004F6666736574205A0020643A0020693A89
:100510000020703A006469730043290A0061626C2C
:10052000656420286D696E2074656D702000436FCE
:100530006C642065787472756465732061726520DF
:10054000004D34323120696E636F727265637420BE
:10055000706172616D657465722075736167650A9B
:10056000004F666673657473204170706C696564D2
:1005700000546F6F206661722066726F6D20726525
:10058000666572656E636520706F696E740A0045FA
:100590004550524F4D204F4B0A002028302D31300E
:1005A00029002076616C7565206F7574206F662058
:1005B00072616E676500416476616E6365204B3DD4
:1005C0000061033D065A03530345034D3231004D8C
:1005D000323320257300204100204300726F746184
:1005E00074696F6E206D61747269783A0A005A5F9F
:1005F0006D6F76655F636F6D700A00206D61783A8C
:1006000000206D696E3A0041786973200041636390
:10061000656C65726174696F6E206C696D69746573
:10062000642E0A00534C4F5700554E4B4E4F574EB9
:100630002053544154450047434F44455F494E467B
:100640004F004C43445F50415553455F524553550D
:100650004D450046494C414D454E545F52554E4F15
:1006600055545F434F4E54494E55450046494C4101
:100670004D454E545F52554E4F5554004D38373608
:1006800020526573706F6E64696E672050524F4DD3
:1006900050545F004D3234004572726F7220777291
:1006A0006974696E6720746F20454550524F4D2123
:1006B0000A004E6F20436865636B73756D20776920
:1006C0007468206C696E65206E756D6265722C2091
:1006D0004C617374204C696E653A200063686563F1
:1006E0006B73756D206D69736D617463682C204C3C
:1006F000617374204C696E653A20004C696E652008
:100700004E756D626572206973206E6F74204C6146
:100710007374204C696E65204E756D6265722B3165
:100720002C204C617374204C696E653A20004D3169
:100730003130002121204B494C4C20636175736599
:100740006420627920746F6F206D75636820696E14
:100750006163746976652074696D65202D20637509
:100760007272656E7420636F6D6D616E643A200005
:10077000627573793A2070617573656420666F7273
:1007800020696E7075740A00627573793A20706121
:100790007573656420666F7220757365720A0062F6
:1007A0007573793A2070726F63657373696E670A47
:1007B00000706F7765726F6666005072696E74655F
:1007C000722068616C7465642E206B696C6C2829DA
:1007D0002063616C6C6564210A00363726033C3D5A
:1007E000380E2E303E1224221E1A1C180A07430807
:1007F00009070844000120746F6F206C6F6E67203A
:10080000657874727573696F6E2070726576656E47
:100810007465640A0020636F6C6420657874727577
:1008200073696F6E2070726576656E7465640A0018
:1008300057616974696E6720666F722068656174BC
:1008400075702E0A004C656176696E6720473236F6
:10085000003F53706563696669656420582C5920B0
:10086000636F6F7264696E617465206F7574206F59
:100870006620626F756E64732E0A003F28522965E8
:10088000706561742076616C7565206E6F74207080
:100890006C61757369626C653B206D757374206261
:1008A00065206174206C6561737420312E0A003FED
:1008B0002852296570656174206D757374206265B6
:1008C00020737065636966696564207768656E206A
:1008D0006E6F74207573696E6720616E204C43449F
:1008E0002E0A003F537065636966696564206E6F08
:1008F0007A7A6C652074656D706572617475726565
:10090000206E6F7420706C61757369626C652E0A5D
:10091000003F5370656369666965642066696C6150
:100920006D656E742073697A65206E6F7420706CCB
:1009300061757369626C652E0A003F537065636967
:1009400066696564207072696D65206C656E677498
:1009500068206E6F7420706C61757369626C652EAF
:100960000A003F5072696D65206C656E677468207F
:100970006D7573742062652073706563696669655F
:1009800064207768656E206E6F74207573696E677A
:1009900020616E204C43442E0A003F53706563690A
:1009A00066696564206E6F7A7A6C652073697A6512
:1009B000206E6F7420706C61757369626C652E0AAD
:1009C000003F52657472616374696F6E204D756C7F
:1009D0007469706C696572206D757374206265202E
:1009E0007370656369666965642E0A003F537065BC
:1009F0006369666965642052657472616374696FC6
:100A00006E204D756C7469706C696572206E6F74C0
:100A100020706C61757369626C652E0A003F5370BB
:100A200065636966696564206C61796572206865D3
:100A300069676874206E6F7420706C617573696289
:100A40006C652E0A0043292E0A003F5370656369C6
:100A500066696564206265642074656D70657261A5
:100A600074757265206E6F7420706C617573696245
:100A70006C65202834302D00473236207374617243
:100A800074696E672E2E2E0A0070012C01900127CA
:100A900001B0012201C0011D01F001180110021373
:100AA0000130020E016002090190020401C002FF40
:100AB000000003FA004003F5008003F000D003EBD0
:100AC000002004E6007004E100E004DC004005D7EB
:100AD00000C005D2004006CD00D006C8008007C384
:100AE000003008BE00F008B900C009B400B00AAF79
:100AF00000B00BAA00D00CA500000EA000500F9B68
:100B000000C01096005012910000148C00C0158790
:100B100000B0178200B0197D00D01B7800001E7352
:100B20000040206E0090226900F024640040275F9E
:100B30000090295A00E02B5500102E500020304B19
:100B40000010324600E033410090353C001037374A
:100B50000070383200A0392D00B03A2800A03B23A5
:100B600000603C1E00103D1900903D1400103E0F27
:100B700000703E0A00C03E0500003F0000403FFB01
:100B8000FF803FF6FFC03FF1FF0000210024002757
:100B9000002A002D0030003300010100000401078D
:100BA000010A0100002200250028002B002E003140
:100BB00000340002010000050108010B01000020C3
:100BC000002300260029002C002F00320000010025
:100BD00000030106010901050505050705080808C8
:100BE00008020202020A0A080804040404010101BE
:100BF00001010101010303030303030303040707C6
:100C0000070C0C0C0C0C0C0C0C0202020206060663
:100C100006060606060B0B0B0B0B0B0B0B0102104B
:100C20002020080810204010204080020102010806
:100C300004020101020408102040808040201008B6
:100C4000040201800402018040201008040201080F
:100C5000040201010204081020408001020408106F
:100C600020408000000A0B02090C0D0E0807030447
:100C70000100000000000000000000000000000073
:100C80000000000000000000000000000000001252
:100C90001110000000000000000000000000000033
:100CA0000000000000000000002020506C616E6E0B
:100CB000657242756666657242797465733A2000A2
:100CC0002046726565204D656D6F72793A2000434C
:100CD0006F6D70696C65643A204E6F7620313420F8
:100CE000323032300A00204C6173742055706461D8
:100CF0007465643A20323032302D30382D3237204E
:100D00007C20417574686F723A2028444947412D10
:100D1000546563682C2041535758312076312E306A
:100D2000290A00322E302E362E310A004D61726CA7
:100D3000696E0020536F6674776172652052657327
:100D400065740A00205761746368646F6720526598
:100D50007365740A002042726F776E206F7574207D
:100D600052657365740A002045787465726E616C13
:100D70002052657365740A00506F77657255700A6A
:100D800000656E6473746F7073206869743A200034
:100D9000486F6D652025732573257320466972732E
:100DA00074005761726E696E673A20486F6D696EA4
:100DB000672042756D702044697669736F72203CBC
:100DC00020310A00000048420000484200008040F4
:100DD0000202040000A0400000A04000000040FF0C
:100DE000FFFF3F5A206F7574206F662072616E6737
:100DF000652028003F59206F7574206F662072614E
:100E00006E676520282D003F58206F7574206F662F
:100E10002072616E676520282D0050726F62652018
:100E20004F66667365742058006F6B00526573657A
:100E30006E643A200023646566696E652044454609
:100E400041554C545F004B6420004B6920004B70AF
:100E50002000504944204175746F74756E6520669A
:100E6000696E6973686564212050757420746865C3
:100E7000206C617374204B702C204B6920616E6470
:100E8000204B6420636F6E7374616E74732066729E
:100E90006F6D2062656C6F7720696E746F20436F91
:100EA0006E66696775726174696F6E2E680A0050AC
:100EB0004944204175746F74756E65206661696C74
:100EC0006564212074696D656F75740A000A20439A
:100ED0006C617373696320504944200A00204B649D
:100EE0003A2000204B693A2000204B703A20000A3B
:100EF000204E6F206F76657273686F6F740A0020E2
:100F000054753A2000204B753A2000206D61783AE4
:100F10002000206D696E3A200020643A2000206293
:100F20006961733A2000504944204175746F7475AB
:100F30006E652073746172740A00504944204175D3
:100F4000746F74756E65206661696C6564212054E8
:100F5000656D706572617475726520746F6F20685D
:100F60006967680A00504944204175746F74756E52
:100F70006500504944204175746F74756E65206634
:100F800061696C65642120426164206578747275C2
:100F9000646572206E756D6265720A0050726F62D0
:100FA000696E67204661696C65640A0050726F6201
:100FB000696E67204661696C656400473238004499
:100FC0006F6E652E0A003F496E76616C696420730E
:100FD000746F7261676520736C6F742E0A3F55736E
:100FE00065203020746F20003F5034206973206FDB
:100FF0006E6C7920617661696C61626C65207768DE
:10100000656E20616E204C434420697320707265C8
:1010100073656E742E0A003F5032206973206F6E24
:101020006C7920617661696C61626C6520776865B6
:101030006E20616E204C434420697320707265738A
:10104000656E742E0A0050726F62696E672061725D
:101050006F756E642028004D65736820696E766137
:101060006C6964617465642E2050726F62696E678A
:10107000206D6573682E0A004D657368207A65726D
:101080006F65642E0A0044656661756C7420737424
:101090006F7261676520736C6F7420302073656CAC
:1010A00065637465642E0A004C6F6164696E672025
:1010B000746573745F7061747465726E2076616CB0
:1010C0007565732E0A0A00496E76616C6964207436
:1010D0006573745F7061747465726E2076616C758F
:1010E000652E20282D3120746F2032290A0A004CE9
:1010F0006F636174696F6E7320696E76616C696489
:10110000617465642E0A0A00456E74697265204D2B
:1011100065736820696E76616C6964617465642EBC
:101120000A0A00496E76616C69642065787472758C
:101130006465720A00202D20496E76616C69642016
:101140006578747275646572206E756D6265722063
:10115000210A00544845524D414C2052554E4157AA
:10116000415900546865726D616C2052756E6177EB
:101170006179004572723A204D415854454D5000F6
:101180004D415854454D50207472696767657265CA
:1011900064004572723A204D494E54454D50004D01
:1011A000494E54454D502074726967676572656495
:1011B00000202F002042403A0020403A0020573AB9
:1011C000004D3130362050005374616E646172649A
:1011D00020446576696174696F6E3A2000486F74C7
:1011E000656E6420746F6F20636F6C640A00205218
:1011F000616E67653A2000205369676D613A20008F
:101200004D65616E3A2000204D39322058004C6FF8
:1012100061642046696C616D656E74205400496E8E
:10122000736572742066696C616D656E7420616EA1
:10123000642073656E64204D3130380A0072657326
:10124000756D656400526573756D696E67005265F2
:101250006865617420446F6E6500526568656174ED
:10126000696E672E2E2E00526568656174004865B0
:10127000617465722054696D656F75740053656E95
:1012800064204D31303820746F2068656174206EA1
:101290006F7A7A6C650A004E6F7A7A6C65205061BD
:1012A000726B656400706175736564004469736D89
:1012B0006973730050617573650020496E76616CC7
:1012C0006964206578747275646572200000809886
:1012D00043008098430000C8430000000000000065
:1012E000000000000053657474696E6773205374C6
:1012F0006F7265640053657474696E67732053740C
:101300006F72656420280024F4D43050C38E20C24C
:10131000A24017828B7011127A910D816CD90AA8A4
:1013200061E108C7586607615143061E4B5D05C160
:1013300045A7041A411104093D980371393103404E
:1013400036DB0265339102D4305402802E1D0263D5
:101350002CEE01752AC501B028A001102781018F4C
:101360002564012B244B01E0223401AC211F018DA7
:10137000200D01801FFC00841EED00971DDF00B8CA
:101380001CD200E61BC600201BBC00641AB200B2CF
:1013900019A8000A19A0006A189900D117910040F5
:1013A000178B00B516840031167E00B31579003A0C
:1013B000157300C7146F0058146A00EE1366008896
:1013C00013630025135E00C7125B006C12570015F3
:1013D000125400C111510070114F0021114B00D661
:1013E0001049008D1047004610440002104200C012
:1013F0000F4000800F3E00420F3C00060F3B00CB29
:101400000E3800930E37005C0E3500270E3400F3C3
:101410000D3200C10D3100900D3000600D2E0032F4
:101420000D2D00050D2C00D90C2B00AE0C290085CC
:101430000C29005C0C2700350C27000E0C2600E858
:101440000B2400C40B2400A00B23007D0B23005AA7
:101450000B2100390B2100180B2000F80A1F00D9BE
:101460000A1E00BB0A1E009D0A1D00800A1D0063A3
:101470000A1C00470A1B002C0A1B00110A1A00F75D
:10148000091A00DD091900C4091900AB09190092F5
:101490000917007B091800630917004C091600366C
:1014A000091600200916000A091500F5081500E0C4
:1014B000081400CC081400B8081400A40814009004
:1014C0000813007D0812006B08130058081200462C
:1014D000081200340811002308110012081100013D
:1014E000081100F0071000E0071000D0071000C03E
:1014F000071000B0070F00A107100091070E00832E
:10150000070F0074070F0065070E0057070E00490C
:10151000070E003B070D002E070E0020070D0013DD
:10152000070D0006070D00F9060C00ED060D00E0A2
:10153000060C00D4060C00C8060C00BC060C00B05B
:10154000060C00A4060B0099060C008D060B008209
:10155000060B0077060B006C060B0061060A0057AD
:10156000060B004C060A0042060A0038060A002E46
:10157000060A0024060A001A060A001006090007D7
:10158000060A00FD050900F4050900EB050900E263
:10159000050900D9050900D0050900C7050900BEE5
:1015A000050900B5050800AD050800A50509009C62
:1015B000050800940508008C050800840508007CD7
:1015C000050800740508006C050700650508005D46
:1015D000050700560508004E0507004705070040AF
:1015E00005080038050700310507002A0507002314
:1015F0000507001C050600160507000F0507000873
:1016000005060002050700FB040600F5040700EECE
:10161000040600E8040600E2040700DB040600D527
:10162000040600CF040600C9040600C3040600BD7A
:10163000040600B7040600B1040500AC040600A6C9
:10164000040600A00405009B040600950405009014
:101650000406008A04050085040500800406007A5B
:1016600004050075040500700405006B04050066A0
:10167000040500610405005C0405005704050052E0
:101680000405004D04050048040500430405003E20
:101690000404003A04050035040500300404002C5D
:1016A00004050027040400230405001E0404001A96
:1016B00004040016040500110404000D04040009CC
:1016C0000405000404040000040400FC030400F802
:1016D000030400F4030400F0030400EC030400E836
:1016E000030400E4030400E0030400DC030400D866
:1016F000030400D4030400D0030400CC030400C896
:10170000030300C503030024F404D9201BC40C5CAC
:101710000E9804C4095F0265077101F405F900FB26
:1017200004B30048048700C103690058035500034F
:10173000034500BE023A008402310053022A002908
:1017400002250004022000E4011C00C8011900AFBA
:101750000117009801140084011300710110006149
:1017600001100051010E0043010D0036010B002B4A
:10177000010B0020010B00150109000C01090003F9
:10178000010800FB000800F3000800EB000700E47C
:10179000000600DE000600D8000600D2000600CCDD
:1017A000000500C7000500C2000500BD000400B927
:1017B000000400B5000400B1000400AD000400A95D
:1017C000000400A5000300A20003009F0004009B8A
:1017D00000030098000300950002009300030090AE
:1017E0000003008D0002008B0003008800020086C9
:1017F00000020084000300810002007F0002007DDF
:101800000002007B000200790002007700010076F0
:101810000002007400020072000100710002006FFB
:101820000002006D0001006C0002006A0001006906
:10183000000200670001006600010065000100640D
:101840000002006200010061000100600001005F11
:101850000002005D0001005C0001005B0001005A15
:101860000001005900010058000100570001005616
:101870000001005500010054000100530000005316
:101880000001005200010051000100500001004F12
:101890000001004E0000004E0001004D0001004C10
:1018A0000001004B0000004B0001004A000100490C
:1018B0000001004800000048000100470001004608
:1018C0000000004600010045000000450001004402
:1018D00000010043000000430001004200000042FC
:1018E0000001004100000041000100400001003FF4
:1018F0000000003F0001003E0000003E0001003DEE
:101900000000003D0001003C0000003C0000003CE5
:101910000001003B0000003B0001003A0000003ADB
:1019200000010039000000390001003800000038D3
:1019300000000038000100370000003700010036C9
:1019400000000036000000360001003500000035C0
:1019500000000035000100340000003400000034B5
:1019600000010033000000330000003300010032AA
:1019700000000032000000320001003100000031A0
:101980000000003100010030000000300000003095
:101990000001002F0000002F0000002F0000002F8A
:1019A0000001002E0000002E0000002E0001002D7E
:1019B0000000002D0000002D0000002D0001002C73
:1019C0000000002C0000002C0000002C0001002B67
:1019D0000000002B0000002B0000002B0001002A5B
:1019E0000000002A0000002A0000002A000100294F
:1019F0000000002900000029000000290000002943
:101A00000001002800000028000000280000002835
:101A10000000002800010027000000270000002728
:101A2000000000270000002700010026000000261B
:101A3000000000260000002600000026000100250E
:101A40000000002500000025000000250000002502
:101A500000000025000100240000002400000024F4
:101A600000000024000000240001002300000023E7
:101A700000000023000000230000002300000023DA
:101A800000000023000100220000002200000022CC
:101A900000000022000000220000002200010021BE
:101AA00000000021000000210000002100000021B2
:101AB00000000021000000210001002000000020A3
:101AC0000000002000000020000000200000002096
:101AD00000000020000000200001001F0000001F87
:101AE0000000001F0000001F0000001F0000001F7A
:101AF0000000001F0001001E0000001E0000001E6C
:101B00000000001E000000C23100001C260000F48E
:101B1000190000D80F0000EB080000C00400007599
:101B200002000040010000646F6E650A00496E7398
:101B3000756666696369656E7420646174610A0024
:101B40004578747261706F6C6174696E67206D6541
:101B500073682E2E2E0053544F505045442E2000B3
:101B60005072696E7465722073746F707065642052
:101B700064756520746F206572726F72732E2046D3
:101B8000697820746865206572726F7220616E6476
:101B900020757365204D39393920746F2072657353
:101BA000746172742E202854656D7065726174754D
:101BB00072652069732072657365742E2053657495
:101BC0002069742061667465722072657374617235
:101BD00074696E67290A0021212053544F502063F5
:101BE000616C6C65642062656361757365206F6606
:101BF00020424C546F756368206572726F72202D9D
:101C000020726573746172742077697468204D392D
:101C100039390A002F2F616374696F6E3A006E6F55
:101C200074696669636174696F6E200062656769D3
:101C30006E00627574746F6E00656E640070726F12
:101C40006D70745F0073686F770050757267654DD3
:101C50006F726500506175736564000000803FAB72
:101C6000AA0A42ABAA88420000CC42ABAA0743565C
:101C700055294300004B43ABAA6C43AB2A87430072
:101C80000098436563686F3A004572726F723A005C
:101C9000204A0020204D3432312049002020473294
:101CA00039204939390A006163746976650A002070
:101CB00053797374656D2076312E303120002020E9
:101CC000207C0A004E414E0020202E2020200020A3
:101CD0007C004C43443A0A004353563A0A002066BB
:101CE0006F7220003A0A0A000A42656420546F703D
:101CF0006F677261706879205265706F7274000945
:101D000000000A010008000A01000A090000000A98
:101D10000008000E1D091D041DFF1C5D0A00626500
:101D20006420706C616E65206E6F726D616C203D19
:101D3000205B00436F756C64206E6F7420636F6D61
:101D4000706C657465204C5346210054696C74694D
:101D50006E67206D65736820706F696E7420003F38
:101D60004572726F722070726F62696E6720706F59
:101D7000696E742E2041626F7274696E67206F7095
:101D800065726174696F6E2E0A0054696C74696EB5
:101D900067206D6573682028332F33290A00546942
:101DA0006C74696E67206D6573682028322F332943
:101DB0000A00436F727265637465645F5A3D005434
:101DC000696C74696E67206D6573682028312F33E4
:101DD000290A002052004D6573682073617665649E
:101DE00020696E20736C6F7420003F556E61626CC9
:101DF0006520746F2073617665206D65736820645B
:101E00006174612E0A0020736C6F743D00206D6553
:101E1000736865735F656E643D004532454E443DB1
:101E200000206D65736820736C6F74732061766138
:101E3000696C61626C652E0A003F496E76616C695F
:101E40006420736C6F742E0A004D657368206C6F8C
:101E5000616465642066726F6D20736C6F7420001E
:101E60003F556E61626C6520746F206C6F616420F9
:101E70006D65736820646174612E0A004861726444
:101E8000636F6465642044656661756C7420536596
:101E90007474696E6773204C6F616465640A0055E1
:101EA0006E696669656420426564204C6576656C80
:101EB000696E67003B200020204D36303320002023
:101EC000550046696C616D656E74206C6F61642F9E
:101ED000756E6C6F6164206C656E677468733A0030
:101EE00020204D393030204B004C696E65617220E6
:101EF000416476616E63653A0020204D38353120AB
:101F000058005A2D50726F6265204F666673657473
:101F10000020204D33303420500020204D3330310C
:101F20002050005049442073657474696E67733A99
:101F300000206D65736865732E0A0A00454550528E
:101F40004F4D2063616E20686F6C642000416374A4
:101F5000697665204D65736820536C6F743A200074
:101F600020204D34323020530020204D3230362096
:101F70005800486F6D65206F66667365743A00207F
:101F8000204D323035204200416476616E636564D5
:101F90003A20423C6D696E5F7365676D656E745F74
:101FA00074696D655F75733E20533C6D696E5F6645
:101FB000656564726174653E20543C6D696E5F7442
:101FC000726176656C5F66656564726174653E20FA
:101FD000583C6D61785F785F6A65726B3E20593C52
:101FE0006D61785F795F6A65726B3E205A3C6D6106
:101FF000785F7A5F6A65726B3E20453C6D61785F01
:10200000655F6A65726B3E0020204D32303420508F
:1020100000416363656C65726174696F6E20287539
:102020006E6974732F7332293A20503C7072696E56
:10203000745F616363656C3E20523C7265747261CB
:1020400063745F616363656C3E20543C74726176B7
:10205000656C5F616363656C3E0020204D323031FA
:102060002058004D6178696D756D20416363656C22
:1020700065726174696F6E2028756E6974732F7351
:1020800032293A0020450020590020204D323033BB
:102090002058004D6178696D756D206665656472C4
:1020A000617465732028756E6974732F73293A0003
:1020B00053746570732070657220756E69743A0090
:1020C00020440020204D32303020530020446973DA
:1020D00061626C65640A0046696C616D656E7420AE
:1020E00073657474696E67733A0020286D6D2900FA
:1020F0002020473231202020203B20556E69747308
:1021000020696E206D6D00000048430000484300C8
:1021100000A04100002042F43DA042F43DA04296C0
:10212000E3C7430080DE43D0070000D0070000640F
:10213000000000102700002062797465733B206363
:10214000726320004E6F20454550524F4D2E0A00BD
:10215000454550524F4D206461746173697A652022
:102160006572726F722E0A00454550524F4D2056CF
:10217000657273696F6E204572726F7200454550CB
:10218000524F4D20496E646578204572726F72001F
:10219000454550524F4D20435243204572726F7255
:1021A000003F4D65736820746F6F20626967206619
:1021B0006F7220454550524F4D2E0A0055424C201B
:1021C00072657365740A00206C6F616465642066D3
:1021D000726F6D2073746F726167652E0A004D65B2
:1021E000736820003F43616E277420656E61626CE6
:1021F00065200020696E697469616C697A65642E76
:102200000A0A002073746F726564207365747469C0
:102210006E67732072657472696576656420280044
:10222000202863616C63756C6174656429210A0000
:1022300020213D2000454550524F4D204352432020
:102240006D69736D61746368202D202873746F72DB
:1022500065642920002053697A653A2000496E643C
:1022600065783A2000204D61726C696E3D563831B8
:10227000290A00454550524F4D2076657273696FAB
:102280006E206D69736D61746368202845455052F6
:102290004F4D3D004D65616E204D6573682048656A
:1022A000696768743A200023206F662073616D703F
:1022B0006C65733A20000A50726F62696E67206D18
:1022C00065736820706F696E742000496E76616C6A
:1022D0006964206D617020747970652E0A0A003F70
:1022E0002846296164652068656967687420666F9F
:1022F0007220426564204C6576656C20436F727273
:10230000656374696F6E206E6F7420706C61757395
:1023100069626C652E0A0A003F43616E2774206172
:102320006374697661746520616E642064656163BD
:1023300074697661746520617420746865207361C6
:102340006D652074696D652E0A0A00426F746820FD
:102350005820262059206C6F636174696F6E73205A
:102360006D75737420626520737065636966696555
:10237000642E0A0A003F496E76616C6964206772B8
:1023800069642073697A6520284A2920737065631F
:1023900069666965642028322D39292E0A0A003FB2
:1023A000285029686173652076616C756520696EB7
:1023B00076616C69642028302D36292E0A0A003F88
:1023C0002856296572626F7365206C6576656C208E
:1023D000696D706C61757369626C652028302D348D
:1023E000292E0A0A003F28522965706574697469AC
:1023F0006F6E20636F756E7420696E76616C6964B0
:102400002028312B292E0A0A00486F6D696E67203B
:102410004661696C6564006F70656E00545249478F
:102420004745524544007A5F6D696E00795F6D697A
:102430006E00785F6D696E005265706F7274696EC0
:102440006720656E6473746F702073746174757344
:102450000A003F454550524F4D2073746F726167BB
:1024600065206E6F7420617661696C61626C652EA7
:102470000A004F46460A0046616465204865696760
:1024800068742000426564204C6576656C696E67EF
:1024900020004661696C656420746F20656E61621E
:1024A0006C6520426564204C6576656C696E670AD0
:1024B00000496E76616C6964206D6573682E0A0050
:1024C00076616C69640A53746F7261676520736C1E
:1024D0006F743A20004D65736820697320003F498E
:1024E0006E76616C69642073746F726167652073C6
:1024F0006C6F742E0A0046696E6973686564210A00
:10250000003A207A3A2000206F662000476F696EFB
:102510006720746F3A20580043570A00206469729C
:102520003A0020616E676C653A00537461727420E2
:102530007261646975733A00506F736974696F6E84
:10254000696E67207468652070726F62652E2E2E2A
:102550000A003F4C656773206F66206D6F76656D6E
:10256000656E7420696D706C61757369626C65204D
:1025700028302D3135292E0A003F2028582C592982
:10258000206F7574206F6620626F756E64732E0AFB
:102590000050726F6265206F7574206F6620626FE5
:1025A000756E6473003F53616D706C652073697A5A
:1025B00065206E6F7420706C61757369626C652044
:1025C00028342D3530292E0A004D3438205A2D500C
:1025D000726F6265205265706561746162696C69D1
:1025E000747920546573740A003F28562965726215
:1025F0006F7365206C6576656C20696D706C6175B4
:102600007369626C652028302D34292E0A0020431E
:102610006F756E7420583A00453100626564002C75
:102620002073797374656D2073746F7070656421A5
:10263000204865617465725F49443A2000486561CD
:1026400074696E67204661696C65640048656174F1
:10265000696E67206661696C6564004D31313220B6
:1026600053687574646F776E0000220A00556E6BB4
:102670006E6F776E20636F6D6D616E643A2022001D
:1026800020453A00205A3A0020593A004361703AF6
:10269000007D007D7D2C776F726B3A7B6D696E3AA1
:1026A0007B783A007D2C6D61783A7B783A002C7A01
:1026B0003A002C793A00617265613A7B66756C6C00
:1026C0003A7B6D696E3A7B783A004348414D42450A
:1026D000525F54454D504552415455524500424178
:1026E00042595354455050494E47004152435300BC
:1026F0004D4F54494F4E5F4D4F444553005448454C
:10270000524D414C5F50524F54454354494F4E0037
:102710004C4F4E475F46494C454E414D4500415553
:10272000544F5245504F52545F53445F5354415499
:102730005553005344434152440050524F4D50545E
:102740005F535550504F525400454D455247454EEA
:1027500043595F50415253455200434153455F4CEA
:10276000494748545F4252494748544E45535300E5
:10277000544F47474C455F4C494748545300534FCB
:102780004654574152455F504F57455200425549B4
:102790004C445F50455243454E54004C4556454CC1
:1027A000494E475F44415441005A5F50524F4245A1
:1027B000004155544F4C4556454C005052494E54DB
:1027C0005F4A4F420050524F4752455353004155C4
:1027D000544F5245504F52545F54454D5000564F40
:1027E0004C554D455452494300454550524F4D00BC
:1027F00042494E4152595F46494C455F5452414E01
:10280000534645520053455249414C5F584F4E5F25
:10281000584F4646004649524D574152455F4E413A
:102820004D453A4D61726C696E20322E302E362E37
:1028300031444947412D546563682041535758310D
:102840002076312E3020284E6F76203134203230E1
:1028500032302031363A31323A31342920534F5513
:102860005243455F434F44455F55524C3A68747438
:1028700070733A2F2F6769746875622E636F6D2FBE
:102880004D61726C696E4669726D776172652F4D2C
:1028900061726C696E2050524F544F434F4C5F56DB
:1028A000455253494F4E3A312E30204D414348490D
:1028B0004E455F545950453A417274696C6C65726B
:1028C00079205369646577696E6465722058312098
:1028D00045585452554445525F434F554E543A3132
:1028E00020555549443A63656465326132662D343A
:1028F0003161322D343734382D396231322D633520
:10290000356336326633363766660A009AE5112437
:102910001FBECFEFD1E2DEBFCDBF00E00CBF12E0A3
:10292000A0E0B2E0ECE6F8EE01E00BBF02C00790D9
:102930000D92AE3CB107D9F724E1AEECB2E001C094
:102940001D92A838B207E1F714E1C7E8D4E100E02E
:1029500006C021970109802FFE010E949BEFC63817
:10296000D10780E00807A9F70E9489E10C9434F4AC
:102970000C9400002F923F924F925F926F927F9241
:102980008F929F92AF92BF92CF92DF92EF92FF927F
:102990000F931F93CF93DF93CDB7DEB7E1970FB6B9
:1029A000F894DEBF0FBECDBF88AB2091DA022EA710
:1029B00081E08093DA0280919D108D3409F411C377
:1029C000843511F40C94D224873411F00C94E4244F
:1029D00080919B1090919C108B31910509F41BC143
:1029E000B4F48430910534F482309105DCF597FF1E
:1029F0002DC0F3C28531910511F40C94E6248A317F
:102A0000910509F404C1049709F0E7C2C6C08A32EF
:102A1000910509F430C254F48D31910509F42BC1AC
:102A20000CF419C14E9709F42AC1D7C28B35910510
:102A300009F49EC18C35910509F49FC18A35910531
:102A400009F0CBC21092D9020C94E6248091FC09C3
:102A5000813011F00C94E6240E9455840E94145990
:102A60000C94E6242091FC09213011F00C94E6240A
:102A700011E0029709F010E00E94558419821A8231
:102A80001B821C821D821E821F82188682E50E9484
:102A90001D71882309F44BC00E949D706B017C015D
:102AA00020E030E0A9010E9411EB882309F455C011
:102AB0008091B9139091BA13A091BB13B091BC133C
:102AC0008AA39BA3ACA3BDA38091BD139091BE1319
:102AD000A091BF13B091C0138AA79BA7ACA7BDA7B5
:102AE0008090121090901310A0901410B0901510B8
:102AF0004090161050901710609018107090191098
:102B0000A50194016AA17BA18CA19DA10E9411EB5A
:102B100081110C94FC24A30192016AA57BA58CA5CC
:102B20009DA50E9411EB8823C1F00C94FC2489E43C
:102B30000E941D71882331F00E949D7069837A8301
:102B40008B839C838AE40E941D71882331F00E944C
:102B50009D706D837E838F83988720E030E0A9018C
:102B600069817A818B819C810E9411EB81110C9487
:102B7000B02520E030E0A9016D817E818F819885AC
:102B80000E9411EB81110C94B0250E94EBAB86E6FC
:102B900093E00E9472A90C94E62480E50E941D71C6
:102BA000882329F00E9463896B017C0103C0C12C3A
:102BB000D12C760183E50E941D71882361F00E946B
:102BC0009D7020E030E04AE754E40E9477EB0E94D9
:102BD00017F16B017C010E94D6908CE793E00E9474
:102BE0009E9E0E94BD53C60ED71EE81EF91E0E946F
:102BF000BD53DC01CB018C199D09AE09BF09B7FD9E
:102C000002C00C94E62480E00E94DB2EF0CF0E94EC
:102C1000B2470C94E62487E00E94C25881110C94BC
:102C2000E6248CE0E3E6F2E0DE01119601900D92DD
:102C30008A95E1F780E50E941D71882321F00E94AA
:102C40008970862F01C080E0BE016F5F7F4F0E94B8
:102C5000C2D00C94E62480917A108770873011F0EE
:102C60000C94C32560E08FE40E949D4781110C9471
:102C7000E6240C94C3250E943F750C94E624209111
:102C80000213309103134091041350910513609186
:102C9000B9137091BA138091BB139091BC130E9429
:102CA000A4EFAB01BC0188E50E94D46169837A83FB
:102CB0008B839C8320910613309107134091081356
:102CC000509109136091BD137091BE138091BF1391
:102CD0009091C0130E94A4EFAB01BC0189E50E9452
:102CE000D4616D837E838F839887BE016B5F7F4F36
:102CF000CE0101960E94C671882311F40C94E6243B
:102D000080E00E9483A70E9442CC61E085E40E949B
:102D10009D4701E021E041E0682FCE0101960E942D
:102D20007B726B017C019B01AC010E94F1F281116D
:102D300019C049815A816B817C8182EB93E00E94AA
:102D4000BAAB4D815E816F8178858DEA93E00E94F8
:102D5000BAABB701A60188EA93E00E94BAAB8AE059
:102D60000E944C2D0E9429CC0E9487CE0C94E62410
:102D70008FE08093D9020C94E6249FE6292E92E0FE
:102D8000392E2EE6E22E20E1F22E29EB33E13BA391
:102D90002AA33DEAC32E33E1D32E00E010E0D10197
:102DA0008D911D010E941D71882309F44BC00E9462
:102DB0009D702B013C01133049F0F60120813181D7
:102DC000428153810E94A3EF2B013C01AAA1BBA128
:102DD0002D913D914D915C91C301B2010E94A3EFF1
:102DE0004B015C012DEB37E346E855EB0E9404F202
:102DF00087FD0AC02DEB37E346E855E3C501B40172
:102E00000E9411EB1816F4F4133051F44092C513DC
:102E10005092C6136092C7137092C81301E012C09B
:102E2000A5019401F70160817181828193810E94E3
:102E3000A4EFD7016D937D938D939C931397812F6E
:102E40000E944A571F5FB4E0EB0EF11CEAA1FBA100
:102E50003496FBA3EAA3F4E0CF0ED11C143009F0A2
:102E60009ECF002321F085EC93E10E94E7900E9421
:102E700087CE0C94E6248091FC09813011F00C94EB
:102E8000E62489E40E941D71082F882321F00E9406
:102E90009970E82E01C0E12C8AE40E941D71182F60
:102EA000882321F00E949970F82E01C0F12C002394
:102EB00019F029E02E1528F0112349F039E03F15CB
:102EC00030F48AEB93E00E9472A90C94E62480E12E
:102ED000E9EBF3E1A2E1B0E101900D928A95E1F70F
:102EE000002359F08E2D0E94DD74609312107093B0
:102EF00013108093141090931510112359F08F2DF7
:102F00000E94DD7460931610709317108093181050
:102F10009093191060E080E50E949D478823C1F1DD
:102F20000023D1F020910213309103134091041338
:102F3000509105136091121070911310809114102C
:102F4000909115100E94A3EF6093121070931310CC
:102F500080931410909315101123D1F02091061333
:102F60003091071340910813509109136091161086
:102F70007091171080911810909119100E94A3EF72
:102F80006093161070931710809318109093191077
:102F900040E050E0BA0186E40E94D4616B017C01FC
:102FA00020E030E0A9010E9404F218164CF420E061
:102FB00030E040E752E4C701B6010E949EF003C032
:102FC00060E070E0CB0169837A838B839C83CE01C0
:102FD00001960E945FCD0C94E6240E94B8DF0C9409
:102FE000E62400919B1010919C100B39110509F4F7
:102FF000E9C30CF0A1C00936110509F4DDC20CF0DB
:1030000054C00C34110509F48CC25CF50231110571
:1030100009F427C474F417FF02C00C94CF240230C3
:1030200011050CF459C10131110509F49FC10C942B
:10303000CF240A32110509F457C234F40F311105B7
:1030400009F4A8C10C94CF240033110509F465C21A
:103050000B34110511F00C94CF240E9474D00C9401
:10306000E6240335110509F4F4C37CF40135110598
:1030700009F4D0C30CF0E5C30D34110511F00C9424
:10308000CF240E94ADD00C94E6240535110509F437
:103090001FC40CF4E6C30C35110509F43EC4083610
:1030A000110509F442C20C94CF240237110509F42A
:1030B000D5C4F4F40D36110509F457C244F40B36A7
:1030C000110509F4B4C20CF48BC20C94E6240F363B
:1030D000110509F4CCC20CF4B7C20037110511F484
:1030E0000C94E6240137110509F40CC30C94CF2489
:1030F0000737110509F402C57CF40537110509F4F9
:10310000B4C40CF0C1C40337110511F00C94CF24E2
:103110000E94E0DF0C94E6240937110509F4F9C494
:103120000CF4EFC40C38110509F416C30639110567
:1031300009F4F6C40C94CF24003981E0180711F487
:103140000C94B9220CF059C00C3D110509F4FFC6CE
:103150001CF50B3C110509F4AEC574F4083C1105CF
:1031600009F41BC5093C110509F482C50E3B110584
:1031700011F00C94CF2411C30D3C110509F4F1C5D5
:103180000CF4BBC50E3C110509F4FEC5033D110549
:1031900009F417C60C94CF240232A1E01A0711F4E7
:1031A0000C9407217CF4023E110509F44DC7083147
:1031B000E1E01E0709F494C70D3D110511F00C94D0
:1031C000CF24ECC60E32F1E01F0711F40C947222EA
:1031D0003CF40D32114011F40C947F210C94CF2457
:1031E0000F3281E0180711F40C94B622003311401D
:1031F00011F40C94FF210C94CF24063FA1E01A0790
:1032000011F40C94BE23A4F5043AE1E01E0711F476
:103210000C94C62284F4023921E0120711F40C94B4
:10322000C12214F40C94BC220A39114011F40C94FC
:10323000E6240C94CF240C3A91E0190711F40C9475
:103240005F233CF4053A114011F40C94C9220C940C
:10325000CF24043FE1E01E0711F40C94BB23053F8B
:10326000114011F00C94CF240E948BB60C94E624EC
:103270000B3522E0120711F40C94E22384F4083F8A
:1032800081E0180711F40C94CA2314F40C94C123A0
:103290000835124011F40C94DB230C94CF240C3627
:1032A000B3E01B0711F40C94E6244CF403351340EF
:1032B00011F00C94CF240E9440680C94E62404384A
:1032C00023E0120711F40C945B24073E134011F421
:1032D0000C94C3240C94CF2480E50E941D71882394
:1032E00029F00E9463896B017C0103C0C12CD12CA1
:1032F000760183E50E941D71882361F00E949D7014
:1033000020E030E04AE754E40E9477EB0E9417F196
:103310006B017C010E94D6908091991090919A1037
:10332000892B41F00E94EFAB8091991090919A10F7
:103330000E94B52E80919B1090919C10892B19F0C2
:103340006BED73E002C063ED73E040E082E00E9449
:10335000479E83EE93E00E94779E0E942F9E40E05E
:10336000C701B6010E94D2320C94E62480919E10CF
:1033700084FF02C00C949F278091A01087FF02C099
:103380000C949F278091A110837011F00C949F27BB
:103390000C94BC270E9425D07B018C0120E831E5EC
:1033A00041E050E00E9418EFC9016DE671E00E9413
:1033B00087EF4B015C01C801B70120E13EE040E02E
:1033C00050E00E9418EFCA01B90128E130E040E066
:1033D00050E00E9418EF762E672EC62ED72E8CE373
:1033E000282E312C412C512CC801B701A20191018A
:1033F0000E9418EFF62EE72ECA01B901A201910131
:103400000E9418EFCB018E010F5F1F4F81149104B2
:1034100099F0EF92FF927F936F936F927F92BF929A
:10342000AF929F928F9285EF93E09F938F931F931C
:103430000F930E94E2EA13C0A114B104B1F0EF921D
:10344000FF927F936F936F927F92BF92AF9289EFBB
:1034500093E09F938F931F930F930E94E2EA0FB61E
:10346000F894DEBF0FBECDBF30C0CD2879F0EF920B
:10347000FF927F936F936F927F928DEF93E09F9374
:103480008F931F930F930E94E2EAE9CF892B69F093
:10349000EF92FF927F936F9381E094E09F938F93DD
:1034A0001F930F930E94E2EADACFEF92FF9285E03A
:1034B00094E09F938F931F930F930E94E2EA0F90E3
:1034C0000F900F900F900F900F90C8010E94D19E07
:1034D0000E94EFABB80189E094E00E94D8AB8AE08B
:1034E0000E944C2D0C94E6246DE070E080E50E9473
:1034F0002A718C0197FF02C00C94E624E82E60E04C
:1035000089E40E949D4781110C94CA27802F0E9454
:10351000DD2A8111B6C50C94CA270E948BD30C9466
:10352000E6240E9498D00C94E62480914B0983FFF6
:1035300002C00C94E6240E94068587FF02C00C940A
:10354000E62483E50E941D71882359F00E949D7036
:103550000E9410F1CB010E94D77B61E080E00E94C5
:1035600080810E946B8F0C94E62480914B0983FF2D
:1035700002C00C94E6240E940685082F87FF02C033
:103580000C94E62483E50E941D71F82E81110C94A1
:10359000012882E50E941D7181110C94012810E020
:1035A0000E946B8F112311F40C94E6246F2D802F51
:1035B0000E94017E0C94E6240E940685182F87FD48
:1035C0000AC089E29EE00E9472A9812F0E94FD7BC1
:1035D0008AE00E944C2D8EA58093DA020C94B329C8
:1035E00060E080E50E947FD381110C94E62481E4A1
:1035F0000E94D470882321F060911504062F02C028
:103600000FEF10E083E50E941D71882349F00E94AE
:1036100089708B016F3F710519F010F00FEF10E00A
:103620000093150480E00E94E77B0C94E62460E0A0
:1036300080E50E947FD381110C94E624109215043A
:103640000E94E77B0C94E6248EE40E941D7188237F
:1036500011F40C94E6240E9489706093A410709376
:10366000A5108093A6109093A7100C94E62483E5F0
:103670000E94D470882331F060E083E50E947FD3FC
:1036800080934B090E94EFAB88E294E00E9472A9FC
:1036900080914B09882369F101ECE02E05E0F02EC2
:1036A00000E010E020E080914B0990E0A0E0B0E065
:1036B000002E04C0B695A795979587950A94D2F7E2
:1036C00080FF0EC0DD24D394D20E222319F08CE2A9
:1036D0000E944C2DF701859194910E9472A92D2D85
:1036E0000F5F1F4F92E0E90EF11C05301105D9F66E
:1036F00004C086EB97E00E9472A98AE00E944C2DDC
:103700000C94E62483E50E941D71882381F00E94B9
:103710004E9C282F30E02D33310524F48093000295
:103720000C94E6248CE3809300020C94E6240E941F
:10373000EFABC0900002D12CE12CF12C8FE294E091
:103740000E9472A94AE0C701B6010E949F2D8AE03B
:103750000E944C2D0C94E62480914B0983FF02C0FB
:103760000C94E62483E50E941D71882311F40C94C7
:10377000E6240E949D700E9410F16C3871050CF4D3
:103780008B011093CC100093CB100E94858261E0D6
:1037900080E00E9480810C94E62480914B0983FF95
:1037A00002C00C94E62483E50E941D71182F81113C
:1037B0000C940F2882E50E941D7181110C940F2832
:1037C0000C94E62483E50E941D71882311F40C9467
:1037D000E6240E944E9C182F90E0CD970CF01CE33D
:1037E0001093D2020E94BD536B017C01212F30E067
:1037F000A8EEB3E00E946CEFC60ED71EE81EF91EBD
:10380000C092CE02D092CF02E092D002F092D102CA
:103810000C94E6240E94BD820E94ADD00E94969234
:103820001092150480E00E94E77B68EE73E080E070
:1038300090E00E94D6A884E594E00E949E9E0C949D
:10384000E6248091D9028F7D80618093D9020C9407
:10385000E6248091D9028F7E80628093D9020C94F5
:10386000E62483E50E941D718823F1F00E94BD5378
:103870006093BF107093C0108093C1109093C210DA
:103880000E949D7020E030E04AE754E40E9477EB0C
:103890000E9417F160930102709302028093030269
:1038A000909304020C94E62480919E1084FF02C041
:1038B0000C9444288091A01087FF02C00C944428E7
:1038C0008091A110837011F00C9444280C947628F8
:1038D00083E50E94D470882311F40C94E6240E949E
:1038E000BD536093BF107093C0108093C11090932C
:1038F000C2100E949D7020E030E04AE754E40E942C
:1039000077EB0E9417F16093D3027093D4028093F7
:10391000D5029093D6020C94E6240E94068587FF78
:1039200002C00C94E62490919E1094FD04C09091E6
:10393000A01097FF0AC0BFE6CB2EB2E0DB2E1CE43E
:10394000E12E19E0F12E10E00AC09091A1109370C1
:1039500091F7682F81E00E9428890C94E624D60113
:103960008D916D010E941D71882309F46DC0133083
:1039700009F063C00E949D704B015C0120E030E0C3
:1039800040EA51E40E9411EB87FF4EC0A50194016B
:1039900060916C0970916D0980916E0990916F0929
:1039A0000E949EF02B013C019B01AC01609111042F
:1039B0007091120480911304909114040E9477EB8B
:1039C0006093110470931204809313049093140471
:1039D000A301920160917C0970917D0980917E091B
:1039E00090917F090E9477EB60937C0970937D0929
:1039F00080937E0990937F096091FD037091FE038F
:103A00008091FF03909100040E9416EBA3019201A4
:103A10000E9477EB0E9417F16093FD037093FE0301
:103A20008093FF039093000480926C0990926D093B
:103A3000A0926E09B0926F0907C00E949D70F701B5
:103A4000648B758B868B978B1F5FF4E0EF0EF11CF8
:103A5000143009F084CF0E94F18FB8C70E9453DF61
:103A60008DE594E10E9455DEB1C780919910909147
:103A70009A10009709F4AAC7DC012C91222309F4BB
:103A8000A5C70E94D19EA2C70091991010919A10CB
:103A900094E0F12C40E0915021F1F8018081282F31
:103AA0002B7F213421F421812133D9F407C08035C3
:103AB000C1F4818180538A3048F013C0813421F0F1
:103AC000853421F441E002C0FF24F39498012E5F75
:103AD0003F4F89012F5F3F4FF80180818032C9F34A
:103AE000DACF41110E94EFABFF2021F081E794E093
:103AF0000E9472A9C8010E94B52E68C70E941CCFFF
:103B000065C781E08093F8098093F7090E9471CF1F
:103B10005DC71092F8091092F7090E9471CF56C73D
:103B200082E40E94D470882351F08091D702909152
:103B3000D802892B31F00E944E9C182F03C010E050
:103B400001C01FEF85E50E94D470882351F0809159
:103B5000D7029091D802892B31F00E944E9C082FF9
:103B600003C000E001C00FEF82E50E94D4708823FB
:103B700049F08091D7029091D802892B29F00E94B8
:103B80004E9C03C080E001C08FEF89830A831B83B2
:103B9000CE0101960E94C59C19C70E940685182F68
:103BA00087FD14C70091181384E40E941D718823B7
:103BB00011F40C9479280E949D706B017C0120E027
:103BC00030E0A9010E9411EB882309F44BC024E0E6
:103BD0001202F0011124EC5EFC4EC082D182E2821E
:103BE000F38220E030E0A901C701B6010E9404F28F
:103BF0001816D4F420E030E040E05FE3C701B601DE
:103C00000E9477EB9B01AC010E9477EB2BED3FE02C
:103C100049E450E40E9477EB60930502709306023A
:103C2000809307029093080220E030E0A9016091A0
:103C300014137091151380911613909117130E940D
:103C400011EB81110CC080E090E0A0EEBFE3809307
:103C5000141390931513A0931613B093171301E048
:103C60000C94792880E0809318130E94C654AEC645
:103C70000E94068587FDAAC6AFE6EA2EA2E0FA2ECC
:103C80000CE419E0D7018D917D010E94D470882346
:103C900059F00E949D700E9417F1F80160837183B2
:103CA000828393830E94AA8F0C5F1F4FF9E00C352B
:103CB0001F0741F78BC60E94068587FD87C6EFE682
:103CC000EE2EE2E0FE2E0CE419E0FCE5CF2EF9E04A
:103CD000DF2ED7018D917D010E94D470882339F0A9
:103CE0000E949D70F80164A375A386A397A30C5F3F
:103CF0001F4FC016D10669F769C680919F1087FFD4
:103D000002C00C947F288091A0108E7011F00C944A
:103D10007F284091800950918109609182097091BA
:103D2000830985E794E00E94BAAB409184095091E1
:103D30008509609186097091870983ED9DE10E9454
:103D4000BAAB409188095091890960918A097091B4
:103D50008B098BE192E10E94BAAB8AE00E944C2D64
:103D600035C680919E10827111F00C94C528809107
:103D7000A0108C7811F00C94C5288091A11083704C
:103D800011F00C94C52822C67DEFE72E79E0F72EBE
:103D900010E088E5810F0E94D470882359F00E94BA
:103DA0009D70D7016D937D938D939C931397812F75
:103DB0000E944A571F5FB4E0EB0EF11C133049F725
:103DC00056C84090AD135090AE136090AF137090F2
:103DD000B013209135023091360240913702509154
:103DE0003802C301B2010E94A4EF6AA37BA38CA393
:103DF0009DA38090B1139090B213A090B313B09094
:103E0000B4132091390230913A0240913B02509113
:103E10003C02C501B4010E94A4EF6EA37FA388A752
:103E200099A7C090B513D090B613E090B713F09057
:103E3000B81320913D0230913E0240913F025091D3
:103E40004002C701B6010E94A4EF6AA77BA78CA716
:103E50009DA720914102309142024091430250912E
:103E60004402C301B2010E94A4EF2B013C01209146
:103E70004502309146024091470250914802C501E7
:103E8000B4010E94A4EF4B015C01209149023091E2
:103E90004A0240914B0250914C02C701B6010E9468
:103EA000A4EF6B017C010E94EFAB87EC94E00E94D1
:103EB00072A983E50E94D470882321F00E948D4767
:103EC00080935D0280915D02882319F080E593E084
:103ED00002C081E198E20E9472A98FEB94E00E94F7
:103EE00072A94AA15BA16CA17DA180E690E20E942B
:103EF000BAAB4EA15FA168A579A587E890E20E94C0
:103F0000BAAB4AA55BA56CA57DA586E095E00E94AD
:103F1000BAAB8DEC9CE10E9472A987EB94E00E9401
:103F200072A9B301A20180E690E20E94BAABB5018A
:103F3000A40187E890E20E94BAABB701A60186E02F
:103F400095E00E94BAAB8AE00E944C2D3FC583E504
:103F50000E941D71882331F00E94997090931E0277
:103F600080931D0280919E1090919F10A091A010AF
:103F7000B091A110892B8A2B8B2B09F027C560915A
:103F80001D0270911E0287ED94E00E94CBAB85E28A
:103F90000E944C2D8AE00E944C2D18C50E94068577
:103FA000F82E87FD13C583E50E941D710F2D0F2C80
:103FB000000C110B882369F10E949970F801EE0F33
:103FC000FF1FED5DFD4F91838083000F111F000FD8
:103FD000111FF801E75FFD4F7F01BC01990F880BAE
:103FE000990B0E9418EB2AE037ED43E25CE30E9454
:103FF00077EBF801E558FF4E2081318142815381F2
:104000000E9477EBD7016D937D938D939C931397CB
:10401000DDC40E94EFAB85E40E944C2D80E38F0D40
:104020000E944C2D000F111FF801ED5DFD4F6081C6
:1040300071818BED94E00E94CBAB85E20E944C2D08
:104040008AE00E944C2DC2C480E50E94D47088236F
:1040500009F4BCC460E070E080E50E942A71F82E8B
:104060006FEF7FEF83E50E942A718C010196039721
:1040700008F0ACC4F7FCAAC48F2D0E94DD2A882367
:1040800039F00E94EBAB83EE94E00E9472A99EC4CB
:104090000E94D69060E08F2D0E947E520F3FBFEFAE
:1040A0001B0731F00130110571F000E010E00DC088
:1040B0008F2D0E94265231E020E0892B09F030E05C
:1040C000032F122F02C001E010E08F2D0E94265214
:1040D0008017910709F47AC480E00E94DB2EF5CFA7
:1040E00080E50E94D470882309F470C40E949970FE
:1040F0008C01892B09F07FC083E50E94D47088234E
:1041000089F00E9499708F3FEFEF9E0729F481E3B9
:1041100094E10E94022B5AC4BC0181E394E10E9405
:10412000C22B54C40E94EFAB60E070E082EF94E0D9
:104130000E94CBAB8091331428E532E06901C81AA4
:10414000D10887FDD394CC0CDD1CCC0CDD1C0D2CD0
:10415000000CEE08FF088091321428E830E0490195
:10416000881A910887FD9394880C991C880C991CD7
:10417000092C000CAA08BB08809131148F3FC1F0B4
:1041800090E0FC01EE0FFF1F8E0F9F1FFC01E85116
:10419000FC4E2181328183E0220F331F8A95E1F7A3
:1041A00094E0369527959A95E1F72E5F3F4F02C030
:1041B00020E030E02F5F3F4FC901330FAA0BBB0B4C
:1041C0009C01AD01281939094A095B09A4EBB0E04B
:1041D0000E9459EFA7019601281939094A095B097C
:1041E0000E943AEFB9018AE396E20E94CBAB8AE0E3
:1041F0000E944C2DEBC30E94EBABB80183EF94E01F
:104200000E94CBAB84EC93E00E9472A9DFC38AE5E5
:104210000E941D71811106C083E50E941D718823D3
:1042200009F44FC00E949D7020E030E040E050EC67
:104230000E9411EB87FF02C00C9443290E949D70DD
:1042400020E030E040E050E40E9404F2181614F43C
:104250000C943C290E949D706B017C0184E00E94BB
:10426000AF58811122C020916809309169094091AD
:104270006A0950916B09C701B6010E9477EB0E9451
:1042800010F12091DB023091DC02260F371F3093B2
:10429000DC022093DB022091BB103091BC10620F36
:1042A000731F7093BC106093BB1080E50E94D470A4
:1042B000882311F40C944A290E948D4781110C9493
:1042C0004A298091A01087FF02C00C947129809127
:1042D000A110837011F00C9471290E94EFAB4091F2
:1042E0000A1350910B1360910C1370910D138AEF08
:1042F00094E00E94BAAB8AE00E944C2D67C360E054
:1043000085E40E947FD3811173C080E50E94D47040
:10431000882351F00E949D706093DA137093DB1331
:104320008093DC139093DD1389E40E94D47088237A
:1043300081F00E949D702CEA35EC47E25EE30E941A
:1043400077EB6093DE137093DF138093E013909309
:10435000E11384E40E94D470882381F00E949D7050
:104360002CEA35EC47E25EE30E949EF06093E21394
:104370007093E3138093E4139093E5130E94EFABE3
:104380004091DA135091DB136091DC137091DD13CF
:1043900081E195E00E94BAAB2CEA35EC47E25EE39E
:1043A0006091DE137091DF138091E0139091E1131F
:1043B0000E949EF0AB01BC018DE095E00E94BAAB7B
:1043C0002CEA35EC47E25EE36091E2137091E3136F
:1043D0008091E4139091E5130E9477EBAB01BC014F
:1043E00089E095E00E94BAAB8AE00E944C2DEEC2B3
:1043F0000E94EBAB83E291E10E9472A9E7C280E5E3
:104400000E94D470882351F00E949D706093CE105A
:104410007093CF108093D0109093D11089E40E94B4
:10442000D470882381F00E949D702CEA35EC47E21D
:104430005EE30E9477EB6093D2107093D310809369
:10444000D4109093D51084E40E94D470882381F016
:104450000E949D702CEA35EC47E25EE30E949EF0DC
:104460006093D6107093D7108093D8109093D91082
:104470000E94EFAB4091CE105091CF106091D010C0
:104480007091D11081E195E00E94BAAB2CEA35EC35
:1044900047E25EE36091D2107091D3108091D41006
:1044A0009091D5100E949EF0AB01BC018DE095E08B
:1044B0000E94BAAB2CEA35EC47E25EE36091D6107D
:1044C0007091D7108091D8109091D9100E9477EBFD
:1044D000AB01BC0189E095E00E94BAAB8AE00E9482
:1044E0004C2D74C283E50E94D470182F882371F07C
:1044F0000E949D700E9410F170930E0260930D0255
:1045000021E0672B09F020E02093260480E50E943B
:10451000D470882359F020910D0230910E02232B84
:1045200011F00E948D478093260450C211114EC293
:104530000E94EFAB8EE295E00E9472A98091260462
:10454000882319F089E194E202C085E195E00E9498
:1045500072A960910D0270910E028DE195E00E94AA
:10456000CBAB89E195E00E9472A930C20E94EB6159
:104570002DC20E94D6902AC20E94BC710E9487CE92
:1045800025C20E94B3710E9487CE20C20E9477D7B5
:104590001DC26FEF7FEF89E40E942A71B82E6FEF82
:1045A0007FEF8AE40E942A71182F83E40E94D4705E
:1045B000E82E8EE40E94D470C82E8AE50E94D47042
:1045C000F82E811105C081E50E94D470D82E01C05B
:1045D000D12CEE2081F020E030E040E069EB73E187
:1045E00081E00E941CC429833A834B835C836D83E2
:1045F0007E83032F02C0012F2B2D8E2D90E0B7FC60
:1046000005C01095111F1127111F01C010E0810F67
:10461000911D019731F4F1100BC0D11009C0C110E8
:1046200007C00E94EBAB81E495E00E9472A9CEC165
:104630002A3010F40A3038F00E94EBAB8AEB93E09A
:104640000E9472A9C3C1E22E220FFF08002E000CA7
:10465000110BC1101DC00E949D70DD2099F02AE051
:104660002E9DF0012F9DF00D1124E00FF11FEE0F94
:10467000FF1FEE0FFF1FEA59FE4E2081318142815C
:10468000538103C020E030E0A9010E94A4EF04C0E0
:1046900060E070E080EC9FE72AE02E9DF0012F9D06
:1046A000F00D1124E00FF11FEE0FFF1FEE0FFF1FA3
:1046B000EA59FE4E608371838283938387C187E0CA
:1046C0000E94C258811182C109ED12E129EB33E148
:1046D0003BA32AA3CE0101961C014FEDC42E4DE051
:1046E000D42E7C01C8010E9479D3AAA1BBA18D90D0
:1046F0009D90AD90BD90BBA3AAA3A50194010E947B
:10470000A3EF2B013C01F7016083718382839383C4
:1047100020E030E040EA51EC0E9404F287FD0AC03C
:1047200020E030E040EA51E4C301B2010E9411EB05
:1047300018162CF4F601849118160CF4D9C5D7017B
:104740008D909D90AD90BD907D0120E030E040EADD
:1047500051ECC501B4010E9404F287FDD4C520E0EC
:1047600030E040EA51E4C501B4010E9411EB181693
:104770000CF0D0C5C8C50E942B8A28C10E9426B45F
:1047800025C161E083E50E949D4791E089270E9451
:1047900099B61CC181E0809365110E948CB910927A
:1047A0006511882309F412C10E94EFAB8FE895E0F0
:1047B0000E9472A90BC10E94068587FD07C10E9455
:1047C0002F8504C10E940685082F87FDFFC085E55F
:1047D0000E94D4708823B1F1E02E002E000CFF0857
:1047E0000E949D704B015C0120E030E0A9010E9415
:1047F00004F287FF04C0B7FAB094B7F8B094C701C9
:1048000023E0880F991F2A95E1F79C0126503D4E21
:104810007901D9018D929D92AD92BC92139720E0BF
:1048200030E048E453E4C501B4010E9404F21816D4
:104830004CF480E090E0A8E4B3E4F7018083918336
:10484000A283B3838CE40E94D470882309F4BEC091
:10485000002E000C110B0E949D706B017C0120E06A
:1048600030E0A9010E9404F287FF04C0F7FAF09437
:10487000F7F8F09420E030E048E453E4C701B601D3
:104880000E9404F2980193E0220F331F9A95E1F7FA
:10489000F901E650FD4E18162CF0C482D582E6824E
:1048A000F78294C080E090E0A8E4B3E48483958329
:1048B000A683B7838BC0A0902704B0902804C09033
:1048C0002904D0902A048BE40E941D71882339F1B9
:1048D0000E949D707B018C0120E030E0A9010E94C4
:1048E00004F287FD0AC020E030E040E251E4B70165
:1048F000C8010E9411EB1816A4F48FE30E944C2DFE
:104900008BE40E944C2D82EA95E00E9472A98AE90C
:1049100095E00E9472A986EC95E20E9472A9750149
:1049200086019701A801B501C6010E9411EB8823F9
:1049300061F00E94D690C701D8018093270490931C
:104940002804A0932904B0932A0480919E1090918A
:104950009F10A091A010B091A110892B8A2B8B2BB6
:10496000A9F50E94EFAB4091270450912804609173
:10497000290470912A0486EB95E00E94BAAB8AE084
:104980000E944C2D23C081E08093FC0960E083E508
:104990000E949D4781111AC00E94E96717C00E94BA
:1049A000B8DF14C010919B100E94BD536093BF10DC
:1049B0007093C0108093C1109093C210112331F0F6
:1049C000812F0E94C27B02C00E94B8DFF8A9F111BA
:1049D0000FC0E0910B10F0E0E359FB4E808188237B
:1049E00039F089E29EE00E9472A98AE00E944C2D73
:1049F0002EA52093DA02B7C420E030E0A901C70158
:104A0000B6010E9411EB881F8827881F181709F428
:104A1000A2C080E090E0A0E8BFEB8EA39FA3A8A770
:104A2000B9A72AA13BA14CA15DA1C501B4010E9477
:104A3000A3EF20E030E040E05FE30E9477EB6AA361
:104A40007BA38CA39DA32AA53BA54CA55DA5C30173
:104A5000B2010E94A3EF20E030E040E05FE30E945B
:104A600077EB2B013C012AA13BA14CA15DA1CA011E
:104A7000B9010E9477EB4B015C01A3019201C301D4
:104A8000B2010E9477EB9B01AC01C501B4010E9409
:104A9000A4EF0E94A2F24B015C019B01AC01C70193
:104AA000B6010E94A3EF6AA77BA78CA79DA7A501CB
:104AB0009401C701B6010E94A4EF9B01AC016AA555
:104AC0007BA58CA59DA50E9477EB6B017C0120E066
:104AD00030E0A9010E9404F287FD07C0C701B601BA
:104AE0000E94A2F26B017C0103C0C12CD12C760183
:104AF000C301B2019058A50194010E949EF02EA11D
:104B00003FA148A559A50E9477EBA70196010E94F5
:104B100077EB2AA13BA14CA15DA10E94A4EF698380
:104B20007A838B839C83A50194016AA17BA18CA1CC
:104B30009DA10E949EF02EA13FA148A559A50E94CB
:104B400077EBA70196010E9477EBA30192010E94E7
:104B5000A4EF0C94A91580E090E0A0E8BFE35DCF3E
:104B6000412FBE016F5F7F4F82E190E10E94FB6A9F
:104B70000E94BD536093BF107093C0108093C1100A
:104B80009093C21023CF0E94D690909113139FA7A9
:104B900080E00E9483A70E94BD536093BF10709372
:104BA000C0108093C1109093C2100E9442CC81E04B
:104BB0008093F8090E9471CF8AE50E94D470E82E94
:104BC0008823A1F081E00E94AF58182F82E00E9454
:104BD000AF5801E0811101C000E0111113C088E558
:104BE0000E94D470F82E81110DC002C000E0F7CFF2
:104BF0000111A2C189E50E94D470182FF02E8013F4
:104C00009CC104C0002309F495C1F02EE01294C1A8
:104C100011E0FF24F39491E09AA782E50E941D71B0
:104C2000882319F00E949D7004C060E070E080EA63
:104C300090E46E8F7F8F88A399A320E030E0A901D4
:104C40000E9411EB882361F0F11006C0111104C01D
:104C5000AAA5AA2309F460C1CE014E960E948544FC
:104C6000FF2009F4D3C0112309F4CDC01092B91369
:104C70001092BA131092BB131092BC131092BD1372
:104C80001092BE131092BF131092C0130E9485CED3
:104C9000EFEDFDE0B491B9AB8DEC92E10E9479D3D8
:104CA0006B017C0181ED92E10E9479D34B015C01A3
:104CB0009B01AC01C701B6010E9404F218162CF446
:104CC000A7019601C501B40104C0A5019401C70163
:104CD000B6010E949EF02B013C01E8ECFDE08591BD
:104CE0009591A591B4918AA39BA3ACA3BDA3E4EC39
:104CF000FDE085919591A591B4918EA39FA3A8A75E
:104D0000B9A79C01AD016AA17BA18CA19DA10E94C4
:104D100004F2181634F42EA03FA008A599A59AA372
:104D200005C02AA03BA00CA1ADA1AAA3A30192019A
:104D3000C301B2010E9477EB20E030E040E85FE37E
:104D40000E94A4EF0E94A2F29101402F5AA10E945A
:104D500077EB6A8F7B8F8C8F9D8FE0EEFDE0049167
:104D600020E030E040EC5FE3C501B4010E9477EB46
:104D70004B015C01602F000F770B880B990B0E9491
:104D800018EB9B01AC01C501B4010E9477EB69836C
:104D90007A838B839C8320E030E040EC5FE3C701A3
:104DA000B6010E9477EB6B017C01B9A96B2FBB0F99
:104DB000770B880B990B0E9418EB9B01AC01C70184
:104DC000B6010E9477EB6E8B7F8B888F998FAE0137
:104DD000465E5F4FBE016F5F7F4FCE0146960E94D9
:104DE0001ECD0E9480CF1092B9131092BA13109268
:104DF000BB131092BC131092BD131092BE131092ED
:104E0000BF131092C01380E00E946A57112319F05B
:104E100081E00E946A57EAA5EE2309F47DC080E094
:104E20000E94A69F83E00E94C258811175C00E9413
:104E300085CEC090C113D090C213E090C313F09000
:104E4000C413209102133091031340910413509125
:104E5000051360E070E088E193E40E94A3EF6093A3
:104E600012107093131080931410909315102091CA
:104E7000061330910713409108135091091360E015
:104E800070E088E193E40E94A3EF609316107093A2
:104E90001710809318109093191020910A133091D5
:104EA0000B1340910C1350910D13C701B6010E94D2
:104EB000A3EF60931A1070931B1080931C109093B3
:104EC0001D1082E190E10E945EA78823D9F01E8A1E
:104ED0001F8A188E198E88E0E2E1F0E1DE0111965A
:104EE00001900D928A95E1F7AE014A5E5F4FBE01D7
:104EF0006B5F7F4FCE0101960E941ECD82E00E9423
:104F00006A570AC087E993E00E949E9E0E94EFAB19
:104F100085E893E00E9472A90E9485CE8091F709EE
:104F20008093F8098FA50E9483A70E9429CC0E9434
:104F300087CE4CCD01E05ECE102FEAA66ECE88E57E
:104F40000E94D47081115F9889E50E94D47081110C
:104F50008A988AE50E94D470882331F080910801F4
:104F6000817080930601479885E40E94D47088235D
:104F700009F42CCD12982ACD8CEE93E00E949E9ECF
:104F80005F988A9880910801817080930601479804
:104F900012981CCD8DE40E941D718823A9F00E94F7
:104FA0004E9C813039F020F0823049F462E003C039
:104FB00060E001C061E0802F0E947E5205C086E162
:104FC00094E00E9472A902CD83E50E941D7188239E
:104FD00009F4FCCC0E944E9CF82E39E0E31203C089
:104FE00080931504F3CC61E0802F0E947E526F2DD8
:104FF000802F0E944F526F2D70E0802F0E94BA5276
:10500000E5CC0E949D700E9410F1CB010E94D77BDD
:1050100061E081E00E94808111E00C94D01A0E942E
:105020009D700E9410F16C3871055CF57093CC1086
:105030006093CB100E94858260E081E00E948081B5
:105040006091CB107091CC10072E000C880B990B3F
:105050000E9418EB2091C7103091C8104091C910E0
:105060005091CA100E9404F218161CF485E494E0D2
:1050700002C086E394E00E949E9E812F0E946F7C76
:10508000A5CC6CE870E0D2CF0E94D69088E50E9453
:10509000D470882331F05F9A8091FA098E7F8093D3
:1050A000FA0989E50E94D470882331F08A9A8091A8
:1050B000FA098D7F8093FA098AE50E94D4708823CB
:1050C00061F0809108018095817080930601479A74
:1050D0008091FA098B7F8093FA0985E40E94D4704D
:1050E000882309F473CC0E94932A70CC0E94969274
:1050F0006DCC602F83E50E949D470C94331E83E5A1
:105100000E941D71882391F00E949D706093800918
:105110007093810980938209909383096093880931
:105120007093890980938A0990938B0980E50E9486
:105130001D71882351F00E949D70609380097093C7
:105140008109809382099093830982E50E941D71F1
:10515000882351F00E949D706093840970938509A3
:10516000809386099093870984E50E941D718823A6
:1051700009F42CCC0E949D70609388097093890972
:1051800080938A0990938B0921CC82E40E94D47089
:10519000882351F00E94638960935C0970935D09D4
:1051A00080935E0990935F0983E50E94D470882301
:1051B00051F00E949D7060938C0970938D098093CB
:1051C0008E0990938F0984E50E94D470882351F052
:1051D0000E949D7060939009709391098093920949
:1051E0009093930988E50E94D470882351F00E941F
:1051F0009D70609305047093060480930704909358
:10520000080489E50E94D470882351F00E949D70A3
:105210006093090470930A0480930B0490930C0428
:105220008AE50E94D4708823B1F00E949D7060933B
:105230000D0470930E0480930F04909310042DECD2
:105240003CEC4CEC5DE30E9411EB181624F085E871
:1052500094E00E9472A985E40E94D470882309F426
:10526000B5CB0E949D7060931104709312048093DB
:10527000130490931404AACBC12CD12CE12C10E47C
:10528000F12E0C942E21C12CD12CE12CB0ECFB2E54
:105290000C942E21A701960160910A1370910B13B3
:1052A00080910C1390910D130E94A4EF60930A1348
:1052B00070930B1380930C1390930D130E94EFAB1C
:1052C00040910A1350910B1360910C1370910D13C0
:1052D0008AEF94E00E94BAAB8AE00E944C2D0C94B5
:1052E000612182E50E94D47081110C946D216ECBF6
:1052F000B7FAB094B7F8B094D7018D929D92AD9261
:10530000BC9213971CCA0E94EBAB81E795E00E9408
:1053100072A95CCB0C5F1F4FBFEFCB1ADB0AE5EE27
:10532000F2E1E017F10709F0DDC93DEFE32E39E0C6
:10533000F32E10E0F10181919191A191B1911F01A2
:10534000F70181939193A193B1937F01812F0E94E3
:105350004A571F5F133071F70E9487CE81E695E0B0
:105360000E949E9E33CBE1960FB6F894DEBF0FBE2F
:10537000CDBFDF91CF911F910F91FF90EF90DF9004
:10538000CF90BF90AF909F908F907F906F905F90E5
:105390004F903F902F900895CF92DF92EF92FF921F
:1053A0000F931F93CF93DF936C018B017A01EC0174
:1053B000C250DD4F888187FF04C0FB01118210823B
:1053C00024C02CE02C9DC0012D9D900D112428811E
:1053D000AC01420F511D27FD5A952091301430E049
:1053E0004217530794F42881AC01420F511D27FD49
:1053F0005A959A01FA01EE0FFF1F2E0F3F1FF90178
:10540000E851FC4E208127FD19C088818F5F888379
:105410002CE02C9DC0012D9D900D11242881AC0104
:10542000420F511D27FD5A952091301430E042174C
:105430005307BCF428812C3044F113C02881820F1B
:10544000911D27FD9A95FC01EE0FFF1F8E0F9F1FE8
:10545000FC01E851FC4E808160E08F770E944F5242
:10546000D4CFF80180819181049680349C4918F44E
:1054700080E49CE904C0F801808191810496F701E1
:10548000918380838FEF888345C0F80140815181EB
:105490002881BC01620F711D27FD7A959B01FB01DC
:1054A000EE0FFF1F2E0F3F1FF901E851FC4E218127
:1054B0003281240F351FF701318320832881AC010D
:1054C000420F511D27FD5A959A01FA01EE0FFF1F59
:1054D0002E0F3F1FF901E851FC4E208127FF1AC013
:1054E0002881820F911D27FD9A95FC01EE0FFF1F69
:1054F0008E0F9F1FFC01E851FC4E808161E08F7789
:10550000DF91CF911F910F91FF90EF90DF90CF909F
:105510000C944F52DF91CF911F910F91FF90EF901C
:10552000DF90CF900895129A08955F9A8091FA09BA
:105530008E7F8093FA098A9A8091FA098D7F8093F1
:10554000FA09809108018095817080930601479A3D
:105550008091FA098B7F8093FA090C94932AC42FC7
:105560000E94BD820E94EBAB8AEB97E00E9472A979
:1055700061E081EB97E00E94179E89EE93E030E6B0
:10558000019729F0232F2A950000E9F7F9CFF89425
:1055900089EE93E038EE019729F0232F2A95000039
:1055A000E9F7F9CF0E94BD82CC2319F00E94952A19
:1055B00002C00E94932AA895FECFFF920F931F93DB
:1055C000CF93DF931F92CDB7DEB7F82E0AED17E029
:1055D00041E050E0B801CE0101960E9484EA898141
:1055E0008F1102C081E007C00F5F1F4F87E0063FA9
:1055F000180771F780E00F90DF91CF911F910F9105
:10560000FF900895DC01EC91F0E0CF01880F991F25
:10561000E80FF91FE851FC4E80818F778083089551
:105620008F929F92AF92BF92CF92DF92EF92FF92B2
:105630000F93CF93DF931F92CDB7DEB75C016B0161
:105640007A014901F501808191810E94F2EE8983FE
:10565000002311F0F6018083BE016F5F7F4FC4010C
:105660000E943BDFF50180819181019691838083C7
:10567000FFEFCF1ADF0A81E0E81AF10819F780E09E
:105680000F90DF91CF910F91FF90EF90DF90CF902F
:10569000BF90AF909F908F9008957F928F929F922E
:1056A000AF92BF92CF92DF92EF92FF920F931F9330
:1056B000CF93DF931F92CDB7DEB77C0159018B01E9
:1056C0006B01C40ED51E0C151D0559F1F701808024
:1056D0009180F80171908F017982C4010E94F2EEED
:1056E000781691F0672DC4010E94FAEEC4010E9461
:1056F000F2EE9981891741F00E94EFAB88E996E0BC
:105700000E9472A981E00EC0BE016F5F7F4FC5018C
:105710000E943BDFF7018081918101969183808314
:10572000D2CF80E00F90DF91CF911F910F91FF902A
:10573000EF90DF90CF90BF90AF909F908F907F9031
:105740000895009781F41092900082E08093910078
:105750001092950010929400C19A8091710082601D
:10576000809371000895019761F41092A00082E087
:105770008093A1001092A5001092A40089BB809391
:10578000720008957F928F929F92AF92BF92CF92B4
:10579000DF92EF92FF920F931F93CF93DF93FC0161
:1057A0009081983108F0CEC06B017F01892F90E085
:1057B000FC01EE0FFF1F8E0F9F1FFC01E851FC4EF6
:1057C000808161E08F770E947E52F7011182128200
:1057D00080816CE00E947BEFFCE08F9FB001112480
:1057E00040E050E09B01240F351FF901EE0FFF1F31
:1057F0002E0F3F1FF901E851FC4E908197FD08C024
:105800004F5F5F4F4C30510569F790E00E94A12B2C
:10581000F7017080C72DD0E08E01000F111FF80135
:10582000EC0FFD1FE851FC4E80818068808377FC7F
:1058300089C0F0E2CF16F2E0DF060CF041C0F701BC
:10584000828128E532E0281B310987FD3395220F3C
:10585000331F220F331F032E000C440B550B818185
:1058600068E870E04B01881A910887FD9394880CD2
:10587000991C880C991C092C000CAA08BB08D7FCA1
:105880000BC0B601653B710514F064EB70E0072EA8
:10589000000C880B990B03C060E070E0CB01281965
:1058A00039094A095B090E9408EF24EB30E040E027
:1058B00050E00E943AEF820E931EA41EB51E01C056
:1058C0004601F7E1F71558F1F701218188E890E0EA
:1058D000821B910927FD9395880F991F880F991FA7
:1058E0008816990684F0F701228188E592E0821BF0
:1058F000910927FD9395880F991F880F991F881686
:1059000099060CF4C40102972FB7F894C00FD11F69
:10591000C851DC4E880F991F9A8389832FBF62E399
:1059200070E080E090E0DF91CF911F910F91FF90A8
:10593000EF90DF90CF90BF90AF909F908F907F902F
:105940000C94D6A8DF91CF911F910F91FF90EF900B
:10595000DF90CF90BF90AF909F908F907F900895F1
:105960001F920F920FB60F9211240BB60F922F9326
:105970003F934F935F936F937F938F939F93AF93D7
:10598000BF93EF93FF9348EA50E064EA70E081E050
:1059900090E00E94CC29FF91EF91BF91AF919F9130
:1059A0008F917F916F915F914F913F912F910F90C8
:1059B0000BBE0F900FBE0F901F9018951F920F9265
:1059C0000FB60F9211240BB60F922F933F934F9364
:1059D0005F936F937F938F939F93AF93BF93EF9357
:1059E000FF9348E950E064E970E080E090E00E94B5
:1059F000CC29FF91EF91BF91AF919F918F917F91B2
:105A00006F915F914F913F912F910F900BBE0F902F
:105A10000FBE0F901F9018958091F4098823D9F13B
:105A20000FB607FC0BC09091EC028091ED02981329
:105A300010C08091C00086FF0CC008959091EC02C8
:105A40008091ED029813FACF8091C00086FFF6CFC7
:105A500008958091C00085FF1DC08091ED022091C6
:105A6000EC02821791F0E82FF0E0E451FD4F9281B3
:105A70008F5F8F709093C6008093ED029091C0006D
:105A800090649093C000281305C08091C1008F7D61
:105A90008093C100C8CF089591E09093F40990914C
:105AA000C10095FD04C09091C00095FD40C02091BB
:105AB000EC022F5F2F700FB607FC26C09091ED020D
:105AC000291327C09091C00095FF1DC09091ED0251
:105AD0004091EC02941791F0E92FF0E0E451FD4F72
