:100000000C9412200C9443200C9443200C94432015
:100010000C9443200C9443200C9443200C944320D4
:100020000C9443200C9443200C9443200C944320C4
:100030000C9443200C9443200C9443200C944320B4
:100040000C9443200D9470370C9443200C9443205F
:100050000C9443200C9443200D9467060D94912634
:100060000C9443200C94F5530C94C0530C944320EF
:100070000C9443200C9443200C9443200C94432074
:100080000C94164C0C9443200C9443200C94432065
:100090000C9443200C9443200C9443200C94432054
:1000A0000C9443200C9443200C94E84B0C94432074
:1000B0000C9443200C9443200C9443200C94432034
:1000C0000C9443200C9443200C9443200C94432024
:1000D0000C9443200C9443200C9443200C94432014
:1000E0000C944320914598454B465447A648AF4849
:1000F000BF482B543D544F54605468549B546C5427
:100100009B54705474549B5478547C548054895438
:100110009B549454808900883988BC8939883988EF
:1001200039883988398839883988398839883988C7
:1001300039883988398839883988398839883988B7
:1001400039883988398839883988398839883988A7
:10015000B689398839883988398839883988398819
:1001600039888F8939883988398839883988398830
:100170003988398839883988D38936885501990171
:100180001B02E5010502190233029B01AD01E902E0
:100190009101B701A5017D0219026D0209038502D3
:1001A000AF02ED027B01D1016901E7021703690289
:1001B00041028301C302AF015701EB02E70285014F
:1001C00089027902B302FB01D5011F03BD02F501CB
:1001D0008101DD01C301E90127020303084AD73B7E
:1001E0003BCE016E84BCBFFDC12F3D6C74319ABD06
:1001F00056833DDA3D00C77F11BED9E4BB4C3E912A
:100200006BAAAABE000000803F05A84CCDB2D44E18
:10021000B93836A9020C50B9918688083CA6AAAA1A
:100220002ABE000000803F07634236B79BD8A71A5A
:1002300039685618AEBAAB558C1D3CB7CC5763BD68
:100240006DEDFD753EF6177231BF000000803F086E
:10025000000000BE922449123EABAAAA2ABECDCC11
:10026000CC4C3E00000080BEABAAAAAA3E00000013
:1002700000BF000000803F0000000000084178D36C
:10028000BB4387D1133D190E3CC3BD4282AD2B3E0B
:1002900068EC8276BED98FE1A93E4C80EFFFBE01AB
:1002A000C4FF7F3F0000000000000D94AA0F0D94D2
:1002B00010260C94CBF20C9480890C9459650C9404
:1002C000BBEA0C94C9D30C9490700D94ED290D9455
:1002D000622B0D94C9250D94522B0D94662B0C9412
:1002E000AC8A0D94131B0C94466F0C94FC730D9404
:1002F0003A1B0C9400880D94B5250C9468540C940A
:100300004FCE0D949A2B0D94ED250D9424260C942C
:10031000366B0D944C2B0D947F270C94B6D20C9415
:100320002D6F0D94C30F0C944F540C9465F20D94E3
:1003300025250D94AD0F0D94B50F0D9427180C9431
:100340007C540D94361B0C94D6CA0D94CD0F0D948D
:100350006E2B0C9427870D941B180D94BB0F0D94D6
:1003600001260D9498460D945A2B0C94A6480D9492
:10037000C90F0D9415180D942B2A0C94FBD00C94D6
:1003800009C90C942CC90D949D2B0D943A320D94EF
:100390002D180D94FD170D94161F0C947A6F0C9464
:1003A00054740D94BF250C9464C90D94912B0D9435
:1003B00057630C949E770C9498450D94A62B0C943F
:1003C000DE6E0C9439880D942D2B0D94A00F0C9497
:1003D000B6890D94B32B0D949B200C948F890C94AB
:1003E000D2FC0C946B700C9406720D94972B0C94A9
:1003F00093D30C94B0D20D948E2B0C94E58D0C9469
:100400006C680C9480540C9429D80D94A60F0C940D
:10041000FAFE0C944B460C94B96F0C948A700C94B1
:10042000536E0C9477700D94F7170D94192A0C9451
:1004300053650D94E40F0D949C0F0C9477770D94F5
:100440007F2E0C94CFFE0C9400D20C9491450D9409
:10045000A02B0C9496F60C9478540D94F21E0D94E7
:1004600089270C944A8A0D94B10F0C9436880C9409
:10047000B7EA0C942B540D94381B0C94CAD00D94ED
:1004800043190D94E3250C9483770C946C540C94CD
:10049000AF480D945F200C943D540C9454470C9439
:1004A000A6EA0C94BF480D947D270C94D9F60D94C0
:1004B0004F250D9404240C94F96E0D9403180D949B
:1004C000E8170D9493270C9448CA0D9421180C94A6
:1004D00055650D94DB250C94A2EA0D94D70F0C946E
:1004E000F8FE0D940F180C9499870C94CF730C940C
:1004F000EBD40D9438260D945E2B0D94D10F0C94F3
:1005000096870C9457650C94A06F0D94DF0F0C9494
:10051000D26F0D942E260C94238A0C94D8CA0C9476
:10052000C8CA0D94882C0C946BCC0C9474540D9404
:1005300090220C94666E0C949B540D940D2A0D948D
:100540006A270D94F71E0C94DACA0D941F2A0C9496
:10055000A86E0D94722B0C941D670C94CFCA0D9449
:10056000AB250D94132A0D94B52B0D94562B0D9499
:10057000072A0D94E3290C94C3CF0D94942B0D946A
:100580008E270C94C36E0D94F7250C9494540C9400
:1005900051650C945F6F0D9484270C948D6E0D94AF
:1005A000ED1E0D94E8290C949CF20C948D6F0C9424
:1005B00096700D94CF170C9424870D94762B0C9481
:1005C000DE730D94341B0C9495870C940B740D946E
:1005D00042260D94BF0F0D941A260D94B0250C944D
:1005E000BC890C948F770C9470540C9462D70C9443
:1005F0007F6E0D9409180D9406320D94BB2B0D944B
:100600006A2B0C9414740D94A32B0D94331E0C942C
:1006100025CB0D94DB0F0D94A51C0C94D3890C9461
:100620001ECB0C94ED730C94146F0C9451EA0D9442
:10063000D3250C9460540C9489540C9485D50D9456
:10064000B82B0D94321B4E414E494E495459494ED8
:1006500046CDCCCC3D0AD7233C17B7D13877CC2B2D
:10066000329595E6241FB14F0A000020410000C8D2
:100670004200401C4620BCBE4CCA1B0E5AAEC59D53
:100680007400407A10F35A00A0724E18090010A5A9
:10069000D4E80000E87648170000E40B540200009C
:1006A000CA9A3B000000E1F5050000809698000022
:1006B0000040420F000000A086010000001027004B
:1006C000000000E803000000006400000000000AD1
:1006D00000000000000100000000002C76D888DC3B
:1006E000674F0823DFC1DFAE59E1B1B796E5E3E418
:1006F00053C63AE651997696E8E6C28426EB898C91
:100700009B62ED407C6FFCEFBC9C9F40F2BAA56FF2
:10071000A5F490055A2AF75C936B6CF9676DC11BC1
:10072000FCE0E40D47FEF520E6B500D0ED902E0389
:1007300000943577050080841E080000204E0A00D2
:100740000000C80C333333330F986E12831141EF1E
:100750008D2114893BE65516CFFEE6DB18D1844B7C
:10076000381BF77C1D901DA4BBE424203284725EEC
:10077000228100C9F124ECA1E53D27434F4D4D55A1
:100780004E49434154494F4E0044525952554E0030
:100790004552524F5253004543484F0047322F476E
:1007A000332062616420706172616D65746572737B
:1007B0000A00536C6565702E2E2E005A2050726F01
:1007C00062652050617374204265640A005A2050AB
:1007D000726F626520506173742042656400205A14
:1007E0003A200020593A200042656420583A2000FF
:1007F0004D65736820706F696E74206F7574206F1B
:10080000662072616E67650A004D302053746F7008
:10081000004D312053746F7000436C69636B20741A
:100820006F20526573756D652E2E2E004E6F204D14
:100830006F76652E00256979202569642025696811
:100840002025696D20256973005072696E742074CB
:10085000696D653A2000496E76616C696420506963
:100860006E204D6F64650A004520255300444542C3
:1008700055473A004D3131332053004265642043DF
:100880006F6F6C696E672E2E2E004265642048657E
:100890006174696E672E2E2E00417274696C6C65EE
:1008A0007279205369646577696E64657220583186
:1008B000204F46462E002F2F20004D313435205337
:1008C0003C696E6465783E206F7574206F66207297
:1008D000616E67652028302D31290A004163636508
:1008E0006C65726174696F6E3A2050005741524EC8
:1008F000494E4721204C6F77205A204A65726B2061
:100900006D6179206C65616420746F20756E77610C
:100910006E746564207061757365732E0A004652AB
:100920003A0020466C6F773A200050726F7465630E
:100930007465642050696E0A0020536572766F20DA
:100940000020643A0020693A0020703A006469731C
:100950000043290A0061626C656420286D696E207D
:1009600074656D702000436F6C64206578747275D7
:100970006465732061726520004D34323120696EE8
:10098000636F727265637420706172616D65746506
:10099000722075736167650A004F666673657473CC
:1009A000204170706C696564004572723A20546F22
:1009B0006F206661722100546F6F2066617220663D
:1009C000726F6D207265666572656E636520706F0B
:1009D000696E740A00454550524F4D204F4B0A0036
:1009E0002028302D313029002076616C7565206F0C
:1009F0007574206F662072616E6765004164766170
:100A00006E6365204B3D0097078D0C900789077B2F
:100A100007204A0020204D34323120490020204751
:100A20003239204939390A006163746976650A00F0
:100A30002053797374656D2076312E30312000207B
:100A400020207C0A004E414E0020202E2020200035
:100A5000207C004C43443A0A004353563A0A002093
:100A6000666F7220003A0A0A000A42656420546FD9
:100A7000706F677261706879205265706F72740070
:100A800050726F62696E67204661696C65640A0026
:100A900050726F62696E67204661696C65640044DC
:100AA0006F6E652E0A003F496E76616C6964207333
:100AB000746F7261676520736C6F742E0A3F557393
:100AC00065203020746F2000473239205032206674
:100AD000696E69736865642E0A005859206F7574D1
:100AE00073696465207072696E7461626C652072EE
:100AF00061646975732E0A003F4572726F722069D6
:100B00006E20427573696E65737320436172642051
:100B10006D6561737572656D656E742E0A004D6149
:100B20006E75616C6C792070726F62696E6720758A
:100B30006E726561636861626C6520706F696E7466
:100B4000732E0A0050726F62696E672061726F7552
:100B50006E642028004D65736820696E76616C694B
:100B600064617465642E2050726F62696E67206DD7
:100B70006573682E0A004D657368207A65726F652B
:100B8000642E0A0044656661756C742073746F721C
:100B900061676520736C6F7420302073656C6563CA
:100BA0007465642E0A004C6F6164696E6720746519
:100BB00073745F7061747465726E2076616C7565B4
:100BC000732E0A0A00496E76616C6964207465733D
:100BD000745F7061747465726E2076616C75652ED9
:100BE00020282D3120746F2032290A0A004C6F63AF
:100BF0006174696F6E7320696E76616C696461748B
:100C000065642E0A0A00456E74697265204D65732D
:100C10006820696E76616C6964617465642E0A0A85
:100C2000004D3231004D323320257300726F7461F4
:100C300074696F6E206D61747269783A0A005A5F48
:100C40006D6F76655F636F6D700A00206D61783A35
:100C500000206D696E3A004178697320004163633A
:100C6000656C65726174696F6E206C696D6974651D
:100C7000642E0A00534C4F5700554E4B4E4F574E63
:100C80002053544154450047434F44455F494E4625
:100C90004F004C43445F50415553455F52455355B7
:100CA0004D450046494C414D454E545F52554E4FBF
:100CB00055545F434F4E54494E55450046494C41AB
:100CC0004D454E545F52554E4F5554004D383736B2
:100CD00020526573706F6E64696E672050524F4D7D
:100CE00050545F004D3234004572726F722077723B
:100CF0006974696E6720746F20454550524F4D21CD
:100D00000A004E6F20436865636B73756D207769C9
:100D10007468206C696E65206E756D6265722C203A
:100D20004C617374204C696E653A2000636865639A
:100D30006B73756D206D69736D617463682C204CE5
:100D4000617374204C696E653A20004C696E6520B1
:100D50004E756D626572206973206E6F74204C61F0
:100D60007374204C696E65204E756D6265722B310F
:100D70002C204C617374204C696E653A20004D3113
:100D80003130002121204B494C4C20636175736543
:100D900064206279204B494C4C20627574746F6EEC
:100DA0002F70696E0A002121204B494C4C20636151
:100DB0007573656420627920746F6F206D75636848
:100DC00020696E6163746976652074696D65202D94
:100DD0002063757272656E7420636F6D6D616E64F1
:100DE0003A2000627573793A2070617573656420EA
:100DF000666F7220696E7075740A00627573793A55
:100E00002070617573656420666F722075736572FA
:100E10000A00627573793A2070726F636573736943
:100E20006E670A00506C6561736520526573657466
:100E3000005052494E5445522048414C54454400BC
:100E400025533A20255300706F7765726F666600F0
:100E50004B494C4C45442E20005072696E746572AB
:100E60002068616C7465642E206B696C6C28292085
:100E700063616C6C6564210A006563686F3A0045C4
:100E800072726F723A00363726033C3D380E2E30B0
:100E90003E1224221E131A1C180A074308090708C9
:100EA00044000153544F505045442E200050726965
:100EB0006E7465722073746F7070656420647565FC
:100EC00020746F206572726F72732E2046697820CD
:100ED000746865206572726F7220616E642075732C
:100EE00065204D39393920746F20726573746172D1
:100EF000742E202854656D7065726174757265205A
:100F000069732072657365742E205365742069744B
:100F10002061667465722072657374617274696EA3
:100F200067290A0021212053544F502063616C6CC3
:100F300065642062656361757365206F6620424C4D
:100F4000546F756368206572726F72202D20726510
:100F500073746172742077697468204D3939390A65
:100F6000002F2F616374696F6E3A00626567696E66
:100F700000627574746F6E00656E640070726F6DE0
:100F800070745F0073686F770050757267654D6F9E
:100F90007265004732362048656174696E67204E7D
:100FA0006F7A7A6C65004732362048656174696EE5
:100FB00067204265640057616974696E6720666FD7
:100FC00072206865617475702E0A004669786564E0
:100FD000204C656E677468205072696D6500446FBF
:100FE0006E65205072696D696E67004D616E756146
:100FF0006C207072696D696E672E2E2E0047323636
:101000002043616E63656C6564004C656176696E52
:101010006720473236003F537065636966696564CF
:1010200020582C5920636F6F7264696E617465205B
:101030006F7574206F6620626F756E64732E0A0080
:101040003F28522965706561742076616C75652052
:101050006E6F7420706C61757369626C653B206D96
:10106000757374206265206174206C6561737420EF
:10107000312E0A003F537065636966696564206EAE
:101080006F7A7A6C652074656D70657261747572C3
:1010900065206E6F7420706C61757369626C652E6B
:1010A0000A003F5370656369666965642066696C10
:1010B000616D656E742073697A65206E6F7420703F
:1010C0006C61757369626C652E0A003F53706563CD
:1010D0006966696564207072696D65206C656E670C
:1010E0007468206E6F7420706C61757369626C65D2
:1010F0002E0A003F537065636966696564206E6FF0
:101100007A7A6C652073697A65206E6F7420706CD2
:1011100061757369626C652E0A003F526574726175
:101120006374696F6E204D756C7469706C6965725B
:10113000206D7573742062652073706563696669DC
:1011400065642E0A003F53706563696669656420B3
:1011500052657472616374696F6E204D756C746949
:10116000706C696572206E6F7420706C6175736944
:10117000626C652E0A003F53706563696669656439
:10118000206C6179657220686569676874206E6F8C
:101190007420706C61757369626C652E0A00432956
:1011A0002E0A003F53706563696669656420626555
:1011B000642074656D7065726174757265206E6F00
:1011C0007420706C61757369626C65202834302DF1
:1011D00000473236207374617274696E672E2E2E4A
:1011E0000A004C6F6164206D6D00556E6C6F616418
:1011F000206D6D0046696C2E204469612E004520EB
:10120000696E206D6DC2B3002008204661637400D2
:101210002008204D6178002008204D696E004F663F
:1012200066004F6E004175746F74656D70005654A2
:10123000726176204D696E00566D696E00566D6163
:1012400078204500566D6178205A00566D617820EF
:101250005900566D6178205800416D617820450035
:10126000416D6178205A00416D6178205900416DCF
:101270006178205800412D54726176656C00412DD3
:101280005265747261637400416363656C0041640C
:1012900076616E6365642053657474696E6773006C
:1012A000436F6E74696E756500554E4C4F41442016
:1012B00046494C414D454E540046494C414D454EE2
:1012C00054204348414E47450053746F77005357AD
:1012D0002D4D6F6465004465706C6F790053656CCB
:1012E000662D54657374004C6F616420536574748B
:1012F000696E677300526573746F7265204465662A
:1013000061756C74730053746F72652053657474E7
:10131000696E6773005072656865617420242043AC
:101320006F6E6600424C546F756368004D37303203
:1013300020542564004D363030204230205425643E
:10134000004D373032203B2564004D37303120547A
:101350002564005075726765206D6F726500524597
:1013600053554D45204F5054494F4E533A0050521B
:10137000494E54205041555345440020204E6F7A29
:101380007A6C653A20007D007D7D2C776F726B3A18
:101390007B6D696E3A7B783A007D2C6D61783A7B83
:1013A000783A002C7A3A002C793A00617265613AF9
:1013B0007B66756C6C3A7B6D696E3A7B783A00435C
:1013C00048414D4245525F54454D50455241545558
:1013D000524500424142595354455050494E4700EE
:1013E00041524353004D4F54494F4E5F4D4F44457A
:1013F0005300544845524D414C5F50524F54454361
:1014000054494F4E004C4F4E475F46494C454E4164
:101410004D45004155544F5245504F52545F53442F
:101420005F53544154555300534443415244005078
:10143000524F4D50545F535550504F525400454DEC
:10144000455247454E43595F504152534552004320
:101450004153455F4C494748545F425249474854BD
:101460004E45535300544F47474C455F4C494748FE
:10147000545300534F4654574152455F504F5745C0
:1014800052004255494C445F50455243454E54002A
:101490004C4556454C494E475F44415441005A5FC4
:1014A00050524F4245004155544F4C4556454C0013
:1014B0005052494E545F4A4F420050524F47524596
:1014C0005353004155544F5245504F52545F544569
:1014D0004D5000564F4C554D4554524943004249DA
:1014E0004E4152595F46494C455F5452414E534616
:1014F00045520053455249414C5F584F4E5F584F3B
:101500004646004649524D574152455F4E414D4572
:101510003A4D61726C696E20322E302E362E314477
:101520004947412D5465636820415357583120760F
:10153000312E3020284E6F76203134203230323038
:101540002031373A30343A33342920534F555243FF
:10155000455F434F44455F55524C3A68747470730D
:101560003A2F2F6769746875622E636F6D2F4D6116
:10157000726C696E4669726D776172652F4D61722A
:101580006C696E2050524F544F434F4C5F5645523A
:1015900053494F4E3A312E30204D414348494E4534
:1015A0005F545950453A417274696C6C6572792088
:1015B0005369646577696E646572205831204558B7
:1015C0005452554445525F434F554E543A3120557D
:1015D0005549443A63656465326132662D34316140
:1015E000322D343734382D396231322D633535633D
:1015F00036326633363766660A0050726F6265208F
:101600004F6666736574205A003F5A206F757420C8
:101610006F662072616E67652028003F59206F75E4
:1016200074206F662072616E676520282D003F5818
:10163000206F7574206F662072616E676520282D9B
:101640000050726F6265204F6666736574205800A3
:101650006F6B00526573656E643A200023646566A3
:10166000696E652044454641554C545F004B6420EB
:10167000004B6920004B7020005049442041757494
:101680006F74756E652066696E6973686564212084
:1016900050757420746865206C617374204B702CD5
:1016A000204B6920616E64204B6420636F6E7374FD
:1016B000616E74732066726F6D2062656C6F772047
:1016C000696E746F20436F6E6669677572617469C5
:1016D0006F6E2E680A00504944204175746F74750E
:1016E0006E65206661696C6564212074696D656F43
:1016F00075740A000A20436C617373696320504952
:1017000044200A00204B643A2000204B693A200014
:10171000204B703A20000A204E6F206F766572735E
:10172000686F6F740A002054753A2000204B753A98
:101730002000206D61783A2000206D696E3A20000B
:1017400020643A200020626961733A2000504944C5
:10175000204175746F74756E652073746172740ABC
:1017600000504944204175746F74756E6520666140
:10177000696C6564212054656D7065726174757261
:101780006520746F6F20686967680A0050494420BB
:101790004175746F74756E650050494420417574CD
:1017A0006F74756E65206661696C656421204261A5
:1017B00064206578747275646572206E756D6265FB
:1017C000720A004572723A207574663820666F6E30
:1017D00074206E6F7420696E697469616C697A65D2
:1017E000642E00000C0F00FE07022603BC017FFEE2
:1017F00008FE08FE05080806000040F0C888889822
:101800007810050808060000C0F88888888888F8DD
:101810000505050600012030F830200508080600FF
:10182000002070F820202020E00509090600FF2094
:1018300070A8A8B888887020050606060001E08C0C
:10184000EA8C8A0A0509090600FFF8A888888888B2
:1018500088A8F8050A0A0600FE205050505088A8B3
:10186000A8887003030306000340A040FFFFFFFFAA
:10187000FFFFFFFFFFFFFFFFFFFFFFFFFFFFFFFF78
:10188000FFFF0000000605FF010707060200808039
:101890008080800080030303060105A0A0A0050648
:1018A0000606000050F85050F8500509090600FFE0
:1018B0002070A8A07028A87020050707060000C89F
:1018C000C8102040989805070706000040A0A040D7
:1018D000A8906801030306020580808003090906B9
:1018E00001FF20404080808040402003090906011C
:1018F000FF80404020202040408005070706000070
:1019000020A8702070A8200505050600012020F8F9
:1019100020200203030601FFC040800501010600EC
:1019200003F8020202060100C0C005070706000016
:1019300008101020404080050707060000708898B6
:10194000A8C8887003070706010040C04040404017
:10195000E0050707060000708808102040F805071A
:1019600007060000F8081030088870050707060011
:101970000010305090F81010050707060000F8809E
:10198000F008088870050707060000304080F088DE
:101990008870050707060000F808101020202005B1
:1019A000070706000070888870888870050707069A
:1019B000000070888878081060020505060100C0E4
:1019C000C000C0C00206060601FFC0C000C04080C3
:1019D00003050506010120408040200503030600A1
:1019E00002F800F80305050601018040204080054B
:1019F0000707060000708810202000200507070652
:101A000000007088B8A8B88070050707060000704D
:101A10008888F8888888050707060000F04848701D
:101A20004848F005070706000070888080808870AD
:101A3000050707060000F04848484848F005070732
:101A4000060000F88080F08080F805070706000097
:101A5000F88080F08080800507070600007088808D
:101A600080988870050707060000888888F88888AD
:101A700088030707060100E04040404040E00507BA
:101A800007060000381010101090600507070600C8
:101A9000008890A0C0A090880507070600008080FD
:101AA00080808080F805070706000088D8A888880D
:101AB00088880507070600008888C8A898888805D0
:101AC0000707060000708888888888700507070661
:101AD0000000F08888F0808080050707060000700D
:101AE000888888A89068050707060000F08888F0B5
:101AF000A09088050707060000708880700888702D
:101B0000050707060000F8202020202020050707F1
:101B10000600008888888888887005070706000006
:101B20008888888850502005070706000088888824
:101B300088A8A8500507070600008888502050880C
:101B40008805070706000088885020202020050708
:101B500007060000F80810204080F8030909060174
:101B6000FFE080808080808080E00507070600001D
:101B7000804040201010080309090601FFE02020E2
:101B80002020202020E005030306000520508805C2
:101B900001010600FEF8030303060105804020054D
:101BA000050506000070087888780507070600001C
:101BB0008080F0888888F005050506000070808028
:101BC0008870050707060000080878888888780567
:101BD00005050600007088F0807005070706000004
:101BE000304840E04040400507070600FE70888806
:101BF000887808700507070600008080F0888888CC
:101C0000880307070601004000C0404040E0040987
:101C1000090601FE10003010101010906005070733
:101C200006000080808890E0908803070706010086
:101C3000C04040404040E0050505060000D0A8A88F
:101C4000A8A8050505060000B0C888888805050510
:101C500006000070888888700507070600FEF08877
:101C60008888F080800507070600FE7888888878D5
:101C70000808050505060000B0C880808005050538
:101C800006000078807008F0050707060000202095
:101C9000F820202018050505060000888888986827
:101CA0000505050600008888885020050505060002
:101CB000008888A8A8500505050600008850205017
:101CC000880507070600FE888888502040800505A3
:101CD00005060000F8102040F80309090601FF205E
:101CE00040404080404040200109090602FF8080BA
:101CF000808080808080800309090601FF80404049
:101D000040204040408005030306000248A890FFA1
:101D10004D65616E204D657368204865696768741C
:101D20003A200023206F662073616D706C65733AF2
:101D300020000A4D657368206F6E6C7920706172A7
:101D40007469616C6C7920706F70756C6174656416
:101D50002E0A0A0050726F62696E6720506F696EBA
:101D600074000A50726F62696E67206D6573682037
:101D7000706F696E74200020616E642074616B6501
:101D80002061206D6561737572656D656E742E0AD4
:101D9000006D6D20746869636B2E0A00427573696B
:101DA0006E6573732043617264206973200052650D
:101DB0006D6F76652026204D6561737572652042D2
:101DC00065640052656D6F7665207368696D0050BB
:101DD0006C616365207368696D20756E646572203F
:101DE0006E6F7A7A6C65004D65736820506F696E0E
:101DF00074204D656173757265642061743A2000CA
:101E00000A4D657368206F6E6C7920706172746919
:101E1000616C6C7920706F70756C617465642E0AEA
:101E200000506C616365205368696D2026204D6504
:101E30006173757265004D6F76696E6720746F20EF
:101E40006E657874004D6573682045646974696EC9
:101E5000672053746F7070656400446F6E65204531
:101E6000646974696E67204D6573680A00446F6E1B
:101E7000652045646974696E67204D657368004626
:101E8000696E652054756E696E67204D65736800D4
:101E900028582C5929206F757473696465207072F5
:101EA000696E7461626C65207261646975732E0A73
:101EB000004F6666736574206F7574206F662062CC
:101EC0006F756E64732E20283020746F2031306D52
:101ED0006D290A0A00496E76616C6964206D617033
:101EE00020747970652E0A0A003F284629616465CE
:101EF0002068656967687420666F72204265642097
:101F00004C6576656C20436F7272656374696F6EA1
:101F1000206E6F7420706C61757369626C652E0A37
:101F20000A003F43616E27742061637469766174AF
:101F30006520616E642064656163746976617465AF
:101F4000206174207468652073616D652074696D0B
:101F5000652E0A0A00426F746820582026205920F6
:101F60006C6F636174696F6E73206D75737420623A
:101F700065207370656369666965642E0A0A003FAF
:101F8000496E76616C696420677269642073697A4E
:101F90006520284A29207370656369666965642035
:101FA00028322D39292E0A0A003F285029686173EA
:101FB000652076616C756520696E76616C69642058
:101FC00028302D36292E0A0A003F285629657262CC
:101FD0006F7365206C6576656C20696D706C6175DA
:101FE0007369626C652028302D34292E0A0A003F5F
:101FF000285229657065746974696F6E20636F7506
:102000006E7420696E76616C69642028312B292EEC
:102010000A0A00446F696E6720473239006F7065A5
:102020006E00545249474745524544007A5F7072EA
:102030006F6265007A5F6D696E00795F6D696E0031
:10204000785F6D696E005265706F7274696E67209B
:10205000656E6473746F70207374617475730A00B5
:10206000486F6D652025732573257320466972734B
:10207000740000809843008098430000C84300002B
:102080000000000000000000000053657474696ED9
:1020900067732053746F726564002062797465738E
:1020A0003B20637263200053657474696E6773200C
:1020B00053746F7265642028004E6F20454550525E
:1020C0004F4D2E0A00454550524F4D2064617461BA
:1020D00073697A65206572726F722E0A003F4D65D2
:1020E000736820746F6F2062696720666F72204585
:1020F0004550524F4D2E0A0055424C207265736573
:10210000740A00206C6F616465642066726F6D20D4
:1021100073746F726167652E0A004D6573682000E5
:102120003F43616E277420656E61626C65200020FC
:10213000696E697469616C697A65642E0A0A0020A7
:1021400073746F7265642073657474696E6773204D
:102150007265747269657665642028002028636161
:102160006C63756C6174656429210A0020213D202F
:1021700000454550524F4D20435243206D69736DC9
:1021800061746368202D202873746F726564292040
:10219000002053697A653A2000496E6465783A20D8
:1021A00000204D61726C696E3D563831290A004538
:1021B0004550524F4D2076657273696F6E206D6980
:1021C000736D617463682028454550524F4D3D0042
:1021D0000900000A010008000A01000A09000000C5
:1021E0000A000800DF21DA21D521D0210000803F3C
:1021F000ABAA0A42ABAA88420000CC42ABAA074372
:102200005655294300004B43ABAA6C43AB2A874386
:102210000000984325532025692F2569005D0A0099
:1022200062656420706C616E65206E6F726D616CAA
:10223000203D205B00436F756C64206E6F742063DB
:102240006F6D706C657465204C5346210054696C49
:1022500074696E67206D65736820706F696E742095
:10226000003F4572726F722070726F62696E6720F4
:10227000706F696E742E2041626F7274696E672090
:102280006F7065726174696F6E2E0A00255320337A
:102290002F330054696C74696E67206D6573682014
:1022A00028332F33290A00255320322F3300546955
:1022B0006C74696E67206D6573682028322F33292E
:1022C0000A00436F727265637465645F5A3D00541F
:1022D000696C74696E6720506F696E7400255320B5
:1022E000312F330054696C74696E67206D657368B3
:1022F0002028312F33290A00646F6E650A00496E69
:1023000073756666696369656E7420646174610AD9
:10231000004578747261706F6C6174696E67206DCE
:102320006573682E2E2E0054656D7065726174752C
:102330007265005072656865617420240050726F88
:102340006265205A204F6666736574004164766149
:102350006E6365204B0046616E20537065656400B6
:102360004D61696E0044697361626C6520537465E8
:102370007070657273004D3834004D3438205072DF
:102380006F6265205465737400473238204F0A4DE0
:10239000343820503130004175746F20486F6D65BE
:1023A0000050726568656174202420456E64005099
:1023B00072656865617420242042656400436F6F14
:1023C0006C646F776E00466C6F77005A2056616CB4
:1023D0007565004732380A4D313930205325690A76
:1023E0004D313039205325690A47323920503100A8
:1023F0004265642054656D7000486F74656E64209A
:1024000054656D700041425300504C4100496E6666
:102410006F2053637265656E004732392050362055
:1024200043202D0048656967687420416D6F756EA3
:10243000740041646A757374204D65736820486543
:10244000696768740046696E652054756E6520433F
:102450006C6F736573740047323920503420540018
:102460004732380A47323620432050204825692019
:102470004225690056616C69646174652043757317
:10248000746F6D204D657368004732380A473236E5
:10249000204320502049310056616C6964617465A5
:1024A000204D65736820282429004732380A4732B6
:1024B000362043205020493000473239204A2569D0
:1024C000004C6576656C204D6573680053696465E2
:1024D00020506F696E74730047726964204D657394
:1024E00068204C6576656C696E6700332D506F69A6
:1024F0006E74204C6576656C696E670047323920D2
:102500004A3000473239205033205220432E25696B
:10251000004D616E75616C2046696C6C2D696E00B2
:1025200046696C6C2D696E20416D6F756E74004D3F
:1025300065736820696E76616C6964617465642E88
:102540000A00496E76616C696461746520436C6F42
:102550007365737400473239204900496E76616CA7
:10256000696461746520416C6C00436F6E74696EC0
:10257000756520426564204D6573680047323920D7
:10258000503120430046696C6C2D696E204D657397
:1025900068004275696C6420437573746F6D204DDB
:1025A000657368004732380A4D3139302049310AA5
:1025B0004D3130392049310A4732392050310A4DE6
:1025C0003130342053300A4D313430205330004202
:1025D00075696C64204D6573682028242900473292
:1025E000380A4D3139302049300A4D3130392049CF
:1025F000300A4732392050310A4D313034205330BF
:102600000A4D3134302053300047323920256325BC
:10261000690A4D31313720000924052420746F6F79
:10262000206C6F6E6720657874727573696F6E20A9
:1026300070726576656E7465640A0020636F6C6401
:1026400020657874727573696F6E20707265766537
:102650006E7465640A00220A00556E6B6E6F776EA9
:1026600020636F6D6D616E643A20220020453A0050
:10267000205A3A0020593A005072696E7420506115
:1026800075736564003F00496E697469616C697AAD
:102690006520454550524F4D006E6F746966696301
:1026A0006174696F6E2000417274696C6C65727937
:1026B000205369646577696E6465722058312052D1
:1026C000656164792E005072696E74696E672E2E92
:1026D0002E0063616E63656C005072696E742041F8
:1026E000626F72746564004469736D697373005539
:1026F000492041626F727465640070617573650092
:10270000526573756D65005549205061757365009C
:1027100050617573696E672E2E2E00726573756D2C
:102720006500454550524F4D2056657273696F6E76
:10273000204572726F7200454550524F4D20496ED0
:10274000646578204572726F7200454550524F4D56
:1027500020435243204572726F720049676E6F7258
:102760006500486F6D696E67204661696C6564003D
:102770004D6F74696F6E00466164652048656967D6
:102780006874004F75747075742055424C20496E02
:10279000666F0047323920570055424C20546F6F06
:1027A0006C73004F7574707574204D657368204D9F
:1027B0006170004D6573682053746F7261676500C6
:1027C0004D657368204564697400537465702D42CB
:1027D000792D537465702055424C004163746976BD
:1027E0006174652055424C004732392041004465F0
:1027F00061637469766174652055424C00473239D3
:1028000020440020202020202020001FE020102035
:10281000102010102010202010201030300840040C
:102820008003001FE03FF03FF03FF01FE01FE03F5C
:10283000F03FF03FF00FC0078003003FFFF038008B
:102840007030FC3020FC102078102030102C00D08C
:102850002E31D02F7BD02F7BD02E31D02C00D0200A
:10286000301020781020FC1030FC303800703FFF12
:10287000F03FFFF0380070318630238710278790B3
:102880002F87D02F03D020301020781020781020F0
:1028900030102F03D02F87D02787902387103186C1
:1028A000303800703FFFF01FFFF81FFFF8041040A2
:1028B0000208200208200410400820801041001067
:1028C00041000820800410400000001FFFF81FFF97
:1028D000F8496E76616C6964206578747275646518
:1028E000720A00544845524D414C2052554E4157B2
:1028F000415900546865726D616C2052756E617744
:102900006179004572723A204D415854454D50004E
:102910004D415854454D5020747269676765726522
:1029200064004572723A204D494E54454D50004D59
:10293000494E54454D5020747269676765726564ED
:1029400000202F002042403A0020403A0020573A11
:10295000005374616E6461726420446576696174C9
:10296000696F6E3A2000486F74656E6420746F6FF3
:1029700020636F6C640A002052616E67653A200024
:10298000205369676D613A20004D65616E3A200001
:10299000204D393220580020204D61783A20002007
:1029A000204D696E3A2000536F667420656E647323
:1029B000746F70733A2000706175736564004D36F2
:1029C00030303A20546F6F20436F6C64005265685A
:1029D00065617420446F6E65005265686561746955
:1029E0006E672E2E2E005265686561740048656121
:1029F0007465722054696D656F75740053656E64FB
:102A0000204D31303820746F2068656174206E6FFE
:102A10007A7A6C650A004E6F7A7A6C652050617222
:102A20006B6564004C6F61642046696C616D656E16
:102A300074205400496E736572742066696C616D10
:102A4000656E7420616E642073656E64204D313054
:102A5000380A00726573756D656400526573756D33
:102A6000696E670020496E76616C696420657874D0
:102A70007275646572200000002100240027002A7E
:102A8000002D003000330001010000040107010A9D
:102A90000100002200250028002B002E0031003408
:102AA0000002010000050108010B010000200023C5
:102AB00000260029002C002F003200000100000336
:102AC00001060109010505050507050808080802B2
:102AD0000202020A0A0808040404040101010101B7
:102AE0000101010303030303030303040707070CA6
:102AF0000C0C0C0C0C0C0C0202020206060606065C
:102B00000606060B0B0B0B0B0B0B0B010210202008
:102B10000808102040102040800201020108040231
:102B200001010204081020408080402010080402A7
:102B30000180040201804020100804020108040200
:102B40000101020408102040800102040810204006
:102B50008000000A0B02090C0D0E08070304010097
:102B60000000000000000000000000000000000065
:102B70000000000000000000000000000012111022
:102B80000000000000000000000000000000000045
:102B9000000000000000004D6F76652025736D6D0C
:102BA000004D6F766520302E316D6D004D6F76656E
:102BB00020316D6D004D6F76652031306D6D004DAB
:102BC0006F7665204178697300486F74656E642084
:102BD000746F6F20636F6C64004578747275646500
:102BE00072004D6F7665205A004D6F766520590052
:102BF0004D6F766520580056652D4A65726B0056FC
:102C00005A2D4A65726B0056592D4A65726B0056F3
:102C1000582D4A65726B0050726F62652059204FC3
:102C200066667365740050726F62652058204F6647
:102C30006673657400452073746570732F6D6D0045
:102C40005A2053746570732F6D6D0059205374654D
:102C500070732F6D6D00582053746570732F6D6DF8
:102C60000043616E63656C00496E6974004D3432D7
:102C7000380050726F6265204F666673657473002A
:102C8000416363656C65726174696F6E0056656C53
:102C90006F636974790053657420486F6D65204FC8
:102CA0006666736574730047323920503420523998
:102CB00039392054004732380A4732392050310020
:102CC0004D657368202569204C6F61646564004D13
:102CD000657368202569205361766564004C6F61D7
:102CE0006420426564204D657368004D656D6F72A8
:102CF0007920536C6F74004E6F2053746F7261674C
:102D000065004732392050342058257320592573E7
:102D10002052256900202D2D2D2D2D00486F6D6925
:102D20006E672058595A00473238004F6666205067
:102D300072696E746572204261636B757000473210
:102D40003920532D31004F757470757420666F7281
:102D50002043535600473239205431004F75747068
:102D6000757420666F7220486F7374004732392083
:102D700054300045646974204D657368004D616E80
:102D800075616C6C79204275696C64204D6573685F
:102D90000047323920493939390A4732392050320F
:102DA000204220543000372E205361766520426542
:102DB00064204D65736800362E2046696E65205488
:102DC000756E6520416C6C00352E2056616C69640F
:102DD000617465204D65736800342E2046696E6508
:102DE0002054756E6520416C6C00332E2056616C4A
:102DF0006964617465204D65736800322E20536DDF
:102E00006172742046696C6C2D696E0047323920FE
:102E1000503320543000312E204275696C642043B9
:102E20006F6C64204D6573680070012C0190012760
:102E300001B0012201C0011D01F0011801100213AF
:102E40000130020E016002090190020401C002FF7C
:102E5000000003FA004003F5008003F000D003EB0C
:102E6000002004E6007004E100E004DC004005D727
:102E700000C005D2004006CD00D006C8008007C3C0
:102E8000003008BE00F008B900C009B400B00AAFB5
:102E900000B00BAA00D00CA500000EA000500F9BA4
:102EA00000C01096005012910000148C00C01587CD
:102EB00000B0178200B0197D00D01B7800001E738F
:102EC0000040206E0090226900F024640040275FDB
:102ED0000090295A00E02B5500102E500020304B56
:102EE0000010324600E033410090353C0010373787
:102EF0000070383200A0392D00B03A2800A03B23E2
:102F000000603C1E00103D1900903D1400103E0F63
:102F100000703E0A00C03E0500003F0000403FFB3D
:102F2000FF803FF6FFC03FF1FF2020506C616E6EC6
:102F3000657242756666657242797465733A2000FF
:102F40002046726565204D656D6F72793A200043A9
:102F50006F6D70696C65643A204E6F762031342055
:102F6000323032300A00204C617374205570646135
:102F70007465643A20323032302D30382D323720AB
:102F80007C20417574686F723A2028444947412D6E
:102F9000546563682C2041535758312076312E30C8
:102FA000290A00322E302E362E310A004D61726C05
:102FB000696E0020536F6674776172652052657385
:102FC00065740A00205761746368646F67205265F6
:102FD0007365740A002042726F776E206F757420DB
:102FE00052657365740A002045787465726E616C71
:102FF0002052657365740A00506F77657255700AC8
:1030000000456E6473746F70730025532025632030
:1030100025632025632025630020503A00656E64F7
:1030200073746F7073206869743A2000436F6E6622
:10303000696775726174696F6E004368616E676578
:103040002046696C616D656E7400507265686561DB
:103050007420437573746F6D004261636B004D366D
:10306000303020423000526573756D6520507269B2
:103070006E740054756E650053746F7020507269E1
:103080006E74005061757365205072696E740050E3
:1030900061726B696E672E2E2E0000005761697495
:1030A00020666F720066696C616D656E742063687E
:1030B000616E676500746F2073746172740057618C
:1030C000697420666F720066696C616D656E74204C
:1030D000756E6C6F616400004E6F7A7A6C65206863
:1030E000656174696E6700506C6561736520776116
:1030F00069742E2E2E0000507265737320627574F1
:10310000746F6E00746F2068656174206E6F7A7AD8
:103110006C650000496E736572742066696C616D40
:10312000656E7400616E64207072657373206275E1
:1031300074746F6E00746F20636F6E74696E756562
:10314000005761697420666F720066696C616D6515
:103150006E74206C6F61640000507265737320425E
:103160007574746F6E00746F20726573756D652071
:103170007072696E7400005761697420666F722006
:103180007072696E7400746F20726573756D652E50
:103190002E2E00005761697420666F720066696C9C
:1031A000616D656E742070757267650000456E63B1
:1031B0006C6F737572650024F4D43050C38E20C2D6
:1031C000A24017828B7011127A910D816CD90AA8D6
:1031D00061E108C7586607615143061E4B5D05C192
:1031E00045A7041A411104093D9803713931034080
:1031F00036DB0265339102D4305402802E1D026307
:103200002CEE01752AC501B028A001102781018F7D
:103210002564012B244B01E0223401AC211F018DD8
:10322000200D01801FFC00841EED00971DDF00B8FB
:103230001CD200E61BC600201BBC00641AB200B200
:1032400019A8000A19A0006A189900D11791004026
:10325000178B00B516840031167E00B31579003A3D
:10326000157300C7146F0058146A00EE13660088C7
:1032700013630025135E00C7125B006C1257001524
:10328000125400C111510070114F0021114B00D692
:103290001049008D1047004610440002104200C043
:1032A0000F4000800F3E00420F3C00060F3B00CB5A
:1032B0000E3800930E37005C0E3500270E3400F3F5
:1032C0000D3200C10D3100900D3000600D2E003226
:1032D0000D2D00050D2C00D90C2B00AE0C290085FE
:1032E0000C29005C0C2700350C27000E0C2600E88A
:1032F0000B2400C40B2400A00B23007D0B23005AD9
:103300000B2100390B2100180B2000F80A1F00D9EF
:103310000A1E00BB0A1E009D0A1D00800A1D0063D4
:103320000A1C00470A1B002C0A1B00110A1A00F78E
:10333000091A00DD091900C4091900AB0919009226
:103340000917007B091800630917004C091600369D
:10335000091600200916000A091500F5081500E0F5
:10336000081400CC081400B8081400A40814009035
:103370000813007D0812006B08130058081200465D
:10338000081200340811002308110012081100016E
:10339000081100F0071000E0071000D0071000C06F
:1033A000071000B0070F00A107100091070E00835F
:1033B000070F0074070F0065070E0057070E00493E
:1033C000070E003B070D002E070E0020070D00130F
:1033D000070D0006070D00F9060C00ED060D00E0D4
:1033E000060C00D4060C00C8060C00BC060C00B08D
:1033F000060C00A4060B0099060C008D060B00823B
:10340000060B0077060B006C060B0061060A0057DE
:10341000060B004C060A0042060A0038060A002E77
:10342000060A0024060A001A060A00100609000708
:10343000060A00FD050900F4050900EB050900E294
:10344000050900D9050900D0050900C7050900BE16
:10345000050900B5050800AD050800A50509009C93
:10346000050800940508008C050800840508007C08
:10347000050800740508006C050700650508005D77
:10348000050700560508004E0507004705070040E0
:1034900005080038050700310507002A0507002345
:1034A0000507001C050600160507000F05070008A4
:1034B00005060002050700FB040600F5040700EE00
:1034C000040600E8040600E2040700DB040600D559
:1034D000040600CF040600C9040600C3040600BDAC
:1034E000040600B7040600B1040500AC040600A6FB
:1034F000040600A00405009B040600950405009046
:103500000406008A04050085040500800406007A8C
:1035100004050075040500700405006B04050066D1
:10352000040500610405005C040500570405005211
:103530000405004D04050048040500430405003E51
:103540000404003A04050035040500300404002C8E
:1035500004050027040400230405001E0404001AC7
:1035600004040016040500110404000D04040009FD
:103570000405000404040000040400FC030400F833
:10358000030400F4030400F0030400EC030400E867
:10359000030400E4030400E0030400DC030400D897
:1035A000030400D4030400D0030400CC030400C8C7
:1035B000030300C503030024F404D9201BC40C5CDE
:1035C0000E9804C4095F0265077101F405F900FB58
:1035D00004B30048048700C1036900580355000381
:1035E000034500BE023A008402310053022A00293A
:1035F00002250004022000E4011C00C8011900AFEC
:10360000011700980114008401130071011000617A
:1036100001100051010E0043010D0036010B002B7B
:10362000010B0020010B00150109000C010900032A
:10363000010800FB000800F3000800EB000700E4AD
:10364000000600DE000600D8000600D2000600CC0E
:10365000000500C7000500C2000500BD000400B958
:10366000000400B5000400B1000400AD000400A98E
:10367000000400A5000300A20003009F0004009BBB
:1036800000030098000300950002009300030090DF
:103690000003008D0002008B0003008800020086FA
:1036A00000020084000300810002007F0002007D10
:1036B0000002007B00020079000200770001007622
:1036C0000002007400020072000100710002006F2D
:1036D0000002006D0001006C0002006A0001006938
:1036E000000200670001006600010065000100643F
:1036F0000002006200010061000100600001005F43
:103700000002005D0001005C0001005B0001005A46
:103710000001005900010058000100570001005647
:103720000001005500010054000100530000005347
:103730000001005200010051000100500001004F43
:103740000001004E0000004E0001004D0001004C41
:103750000001004B0000004B0001004A000100493D
:103760000001004800000048000100470001004639
:103770000000004600010045000000450001004433
:10378000000100430000004300010042000000422D
:103790000001004100000041000100400001003F25
:1037A0000000003F0001003E0000003E0001003D1F
:1037B0000000003D0001003C0000003C0000003C17
:1037C0000001003B0000003B0001003A0000003A0D
:1037D0000001003900000039000100380000003805
:1037E00000000038000100370000003700010036FB
:1037F00000000036000000360001003500000035F2
:1038000000000035000100340000003400000034E6
:1038100000010033000000330000003300010032DB
:1038200000000032000000320001003100000031D1
:1038300000000031000100300000003000000030C6
:103840000001002F0000002F0000002F0000002FBB
:103850000001002E0000002E0000002E0001002DAF
:103860000000002D0000002D0000002D0001002CA4
:103870000000002C0000002C0000002C0001002B98
:103880000000002B0000002B0000002B0001002A8C
:103890000000002A0000002A0000002A0001002980
:1038A0000000002900000029000000290000002974
:1038B0000001002800000028000000280000002867
:1038C000000000280001002700000027000000275A
:1038D000000000270000002700010026000000264D
:1038E0000000002600000026000000260001002540
:1038F0000000002500000025000000250000002534
:103900000000002500010024000000240000002425
:103910000000002400000024000100230000002318
:10392000000000230000002300000023000000230B
:1039300000000023000100220000002200000022FD
:1039400000000022000000220000002200010021EF
:1039500000000021000000210000002100000021E3
:1039600000000021000000210001002000000020D4
:1039700000000020000000200000002000000020C7
:1039800000000020000000200001001F0000001FB8
:103990000000001F0000001F0000001F0000001FAB
:1039A0000000001F0001001E0000001E0000001E9D
:1039B0000000001E000000C23100001C260000F4C0
:1039C000190000D80F0000EB080000C004000075CB
:1039D000020000400100002052004D657368207312
:1039E0006176656420696E20736C6F7420003F55AA
:1039F0006E61626C6520746F2073617665206D6501
:103A0000736820646174612E0A0020736C6F743DCA
:103A100000206D65736865735F656E643D004532B7
:103A2000454E443D00206D65736820736C6F747360
:103A300020617661696C61626C652E0A003F496E97
:103A400076616C696420736C6F742E0A004D657327
:103A500068206C6F616465642066726F6D20736CA2
:103A60006F7420003F556E61626C6520746F206C2E
:103A70006F6164206D65736820646174612E0A0053
:103A800048617264636F6465642044656661756C47
:103A9000742053657474696E6773204C6F6164653C
:103AA000640A00556E696669656420426564204C4D
:103AB0006576656C696E67003B200020204D3630CE
:103AC00033200020550046696C616D656E74206C72
:103AD0006F61642F756E6C6F6164206C656E6774C6
:103AE00068733A0020204D393030204B004C696E0D
:103AF00065617220416476616E63653A0020204DF5
:103B00003835312058005A2D50726F6265204F664B
:103B1000667365740020204D33303420500020201F
:103B20004D3330312050005049442073657474691E
:103B30006E67733A0020460020480020204D313443
:103B4000352053004D6174657269616C2068656150
:103B500074757020706172616D65746572733A007E
:103B6000206D65736865732E0A0A00454550524FF3
:103B70004D2063616E20686F6C642000416374693E
:103B80007665204D65736820536C6F743A20002071
:103B9000204D34323020530020204D323036205812
:103BA00000486F6D65206F66667365743A0020206B
:103BB0004D323035204200416476616E6365643A6F
:103BC00020423C6D696E5F7365676D656E745F74EE
:103BD000696D655F75733E20533C6D696E5F666508
:103BE0006564726174653E20543C6D696E5F7472E9
:103BF0006176656C5F66656564726174653E2058C8
:103C00003C6D61785F785F6A65726B3E20593C6DF0
:103C100061785F795F6A65726B3E205A3C6D6178AE
:103C20005F7A5F6A65726B3E20453C6D61785F65C7
:103C30005F6A65726B3E0020204D323034205000A8
:103C4000416363656C65726174696F6E2028756E7F
:103C50006974732F7332293A20503C7072696E7404
:103C60005F616363656C3E20523C72657472616390
:103C7000745F616363656C3E20543C747261766569
:103C80006C5F616363656C3E0020204D32303120F3
:103C900058004D6178696D756D20416363656C6591
:103CA000726174696F6E2028756E6974732F733238
:103CB000293A0020204D3230332058004D61786978
:103CC0006D756D2066656564726174657320287515
:103CD0006E6974732F73293A005374657073207082
:103CE000657220756E69743A0020204D32303020A4
:103CF00053002044697361626C65640A0046696C14
:103D0000616D656E742073657474696E67733A00D3
:103D100020204D3134392043203B20556E69747387
:103D200020696E2043656C736975730A0020286DE5
:103D30006D29002020473231202020203B20556E65
:103D400069747320696E206D6D00000048430000A7
:103D500048430000A04100002042F43DA042F43D51
:103D6000A04296E3C7430080DE43D0070000D0079F
:103D7000000064000000102700000000484200001E
:103D80004842000080400202040000A0400000A061
:103D90004000000040FFFFFF5761726E696E673A96
:103DA00020486F6D696E672042756D70204469769A
:103DB00069736F72203C20310A003F454550524FD5
:103DC0004D2073746F72616765206E6F7420617629
:103DD00061696C61626C652E0A004F46460A0046B6
:103DE00061646520486569676874200042656420E5
:103DF0004C6576656C696E6720004661696C656428
:103E000020746F20656E61626C6520426564204C91
:103E10006576656C696E670A00496E76616C6964E7
:103E2000206D6573682E0A0076616C69640A5374AC
:103E30006F7261676520736C6F743A20004D657313
:103E40006820697320003F496E76616C6964207355
:103E5000746F7261676520736C6F742E0A0044651D
:103E600076696174696F6E0025533A2025730046A8
:103E7000696E6973686564210A003A207A3A200005
:103E8000206F662000476F696E6720746F3A205874
:103E90000043570A00206469723A0020616E676C23
:103EA000653A005374617274207261646975733A83
:103EB000004D343820506F696E740025533A202528
:103EC000642F256400506F736974696F6E696E6743
:103ED000207468652070726F62652E2E2E0A003F76
:103EE0004C656773206F66206D6F76656D656E74C7
:103EF00020696D706C61757369626C652028302D66
:103F00003135292E0A003F2028582C5929206F7559
:103F100074206F6620626F756E64732E0A00507293
:103F20006F6265206F7574206F6620626F756E64B6
:103F300073003F53616D706C652073697A65206E04
:103F40006F7420706C61757369626C652028342D04
:103F50003530292E0A004D3438205A2D50726F62A8
:103F600065205265706561746162696C697479205D
:103F7000546573740A003F2856296572626F736531
:103F8000206C6576656C20696D706C617573696213
:103F90006C652028302D34292E0A0020436F756E61
:103FA0007420583A004D31303620500045310062BF
:103FB0006564002C2073797374656D2073746F7061
:103FC00070656421204865617465725F49443A20D8
:103FD0000048656174696E67204661696C656400BC
:103FE00048656174696E67206661696C6564004D3F
:103FF0003131322053687574646F776E00202D2044
:10400000496E76616C696420657874727564657256
:10401000206E756D62657220210A00004361703A5E
:104020000000D70111241FBECFEFD1E2DEBFCDBF0C
:1040300000E00CBF13E0A0E0B2E0EEE2FBEE02E035
:104040000BBF02C007900D92A231B107D9F727E14B
:10405000A2E1B3E001C01D92A236B207E1F710E27F
:10406000C2E1D0E200E006C021970109802FFE01E5
:104070000F94E170C131D10780E00807A9F70F94D0
:104080007B5D0D9495750C9400002F923F924F929A
:104090005F926F927F928F929F92AF92BF92CF92D8
:1040A000DF92EF92FF920F931F93CF93DF93CDB7E1
:1040B000DEB7E1970FB6F894DEBF0FBECDBF88AB79
:1040C00020911E032EA721E020931E038091B504AA
:1040D0008D3409F411C3843511F40C94EC2F87341A
:1040E00011F00C94FE2F8091B3049091B4048B31A5
:1040F000910509F420C1B4F48430910534F4823080
:104100009105DCF597FF2DC0F3C28531910511F4BF
:104110000C9400308A31910509F409C1049709F023
:10412000E7C2C6C08A32910509F430C254F48D3119
:10413000910509F42BC10CF419C14E9709F42AC159
:10414000D7C28B35910509F49EC18C35910509F4D0
:104150009FC18A35910509F0CBC210921D030C94C2
:1041600000308091310C813011F00C9400300F94AC
:10417000710A0E94F8A40C9400302091310C213077
:1041800011F00C94003011E0029709F010E00F9448
:10419000710A19821A821B821C821D821E821F8252
:1041A000188682E50E94E537882309F44BC00E94F7
:1041B00063376B017C0120E030E0A9010F94E669D0
:1041C000882309F455C080912D0590912E05A0916A
:1041D0002F05B09130058AA39BA3ACA3BDA380910A
:1041E000310590913205A0913305B09134058AA72D
:1041F0009BA7ACA7BDA780900C0590900D05A09043
:104200000E05B0900F05409010055090110560907C
:10421000120570901305A50194016AA17BA18CA1E0
:104220009DA10F94E66981110C942E30A301920197
:104230006AA57BA58CA59DA50F94E6698823C1F08E
:104240000C942E3089E40E94E537882331F00E94D7
:10425000633769837A838B839C838AE40E94E53782
:10426000882331F00E9463376D837E838F83988724
:1042700020E030E0A90169817A818B819C810F94D3
:10428000E66981110C94E23020E030E0A9016D81F3
:104290007E818F8198850F94E66981110C94E230BC
:1042A0000E94F94C8CE997E00E94D74C0C940030A6
:1042B00080E50E94E537882329F00F94E2096B011D
:1042C0007C0103C0C12CD12C760183E50E94E53727
:1042D000882361F00E94633720E030E04AE754E42D
:1042E0000F944C6A0F945D726B017C010F949E4792
:1042F0008091330B811105C060E082EB97E00E9452
:1043000023F20F948526C60ED71EE81EF91E0F94C1
:104310008526DC01CB018C199D09AE09BF09B7FDCB
:1043200002C00C94003080E00E94574FF0CF0E94F2
:10433000055B0C94003087E00E943CA081110C9436
:1043400000308CE0E6E8F2E0DE01119601900D927B
:104350008A95E1F760E070E080E50F94A008BE0167
:104360006F5F7F4F0E94D4EE0C9400308091E51473
:104370008770873011F00C94F53060E08FE40E9474
:10438000145881110C9400300C94F5300E94444272
:104390000C9400302091B6143091B7144091B814A9
:1043A0005091B91460912D0570912E0580912F05C3
:1043B000909130050F94EA70AB01BC0188E50E9432
:1043C000A77769837A838B839C832091BA14309179
:1043D000BB144091BC145091BD1460913105709193
:1043E000320580913305909134050F94EA70AB014A
:1043F000BC0189E50E94A7776D837E838F839887B0
:10440000BE016B5F7F4FCE0101960E948E388823DC
:1044100011F40C94003080E00E94BF3D0E944CA13A
:1044200061E085E40E94145801E021E041E0682F3A
:10443000CE0101960E94603B6B017C019B01AC01A7
:104440000F943774811119C049815A816B817C8125
:1044500088EE97E00E941A4F4D815E816F817885CA
:1044600083EE97E00E941A4FB701A6018EED97E008
:104470000E941A4F8AE00E94844C0E9433A10E943D
:10448000DFA30C9400308FE080931D030C94003068
:1044900092E9292E92E0392E29EDE22E24E1F22E26
:1044A0002DE235E03BA32AA331E2C32E35E0D32E23
:1044B00000E010E0D1018D911D010E94E5378823B5
:1044C00009F44BC00E9463372B013C01133049F0C3
:1044D000F60120813181428153810F94E9702B01D3
:1044E0003C01AAA1BBA12D913D914D915C91C301CD
:1044F000B2010F94E9704B015C012DEB37E346E804
:1045000055EB0F944A7387FD0AC02DEB37E346E85D
:1045100055E3C501B4010F94E6691816F4F413309D
:1045200051F44092390550923A0560923B057092E1
:104530003C0501E012C0A5019401F7016081718181
:10454000828193810F94EA70D7016D937D938D934F
:104550009C931397812F0F945D4C1F5FB4E0EB0E7B
:10456000F11CEAA1FBA13496FBA3EAA3F4E0CF0E71
:10457000D11C143009F09ECF002321F089E395E08F
:104580000F94844A0E94DFA30C9400308091310C78
:10459000813011F00C94003089E40E94E537082F37
:1045A000882321F00E945F37E82E01C0E12C8AE4C5
:1045B0000E94E537182F882321F00E945F37F82EDC
:1045C00001C0F12C002319F029E02E1528F0112349
:1045D00049F039E03F1530F480EF97E00E94D74C66
:1045E0000C94003080E1EDE2F5E0ACE0B5E0019044
:1045F0000D928A95E1F7002359F08E2D0E945A39C9
:1046000060930C0570930D0580930E0590930F0534
:10461000112359F08F2D0E945A3960931005709321
:104620001105809312059093130560E080E50E94C8
:1046300014588823C1F10023D1F02091B614309191
:10464000B7144091B8145091B91460910C05709151
:104650000D0580910E0590910F050F94E970609300
:104660000C0570930D0580930E0590930F05112393
:10467000D1F02091BA143091BB144091BC145091E8
:10468000BD146091100570911105809112059091F3
:1046900013050F94E97060931005709311058093D2
:1046A00012059093130540E050E0BA0186E40E94A1
:1046B000A7776B017C0120E030E0A9010F944A73D9
:1046C00018164CF420E030E040E752E4C701B60190
:1046D0000F94E47103C060E070E0CB0169837A83DA
:1046E0008B839C83CE0101960E94B8AD0C94003060
:1046F0000E9401EA0C9400308091B3049091B404BC
:104700008B39910509F448C40CF0B7C0893691057E
:1047100009F424C30CF052C08C34910509F4C9C2C9
:104720004CF58231910509F483C46CF497FF02C003
:104730000C94E92F823091050CF483C1419709F460
:10474000CEC10C94E92F8A32910509F495C22CF45C
:104750004F9709F4E6C10C94E92F8033910509F4D1
:10476000A4C28B34910511F00C94E92F0E94A5EBA3
:104770000C9400308335910509F453C47CF48135E1
:10478000910509F431C40CF044C48D34910511F045
:104790000C94E92F0E94DEEB0C94003085359105D6
:1047A00009F47CC40CF444C48C35910509F499C413
:1047B0008836910509F481C20C94E92F823791055E
:1047C00009F42DC5F4F48D36910509F49DC244F425
:1047D0008B36910509F40BC30CF4D0C20C94003055
:1047E0008F36910509F420C30CF40BC38037910573
:1047F00011F40C9400308137910509F460C30C94D6
:10480000E92F8837910509F45DC5DCF485379105FA
:1048100009F40CC54CF48337910511F00C94E92F81
:104820000E947B850C9400308637910509F410C5F1
:104830008737910511F00C94E92F0E948CA40C94F9
:1048400000308C38910509F464C36CF48937910504
:1048500011F00C94E92F10922D0C10922C0C0E9448
:10486000E9A40C9400308139910509F432C58639E8
:10487000910509F4A2C50C94E92F8033A1E09A07B1
:1048800011F40C94272D0CF05EC08C3D910509F4B9
:10489000E6C634F58B3C910509F45DC674F4883C9A
:1048A000910509F4C7C5893C910509F42EC68E3BD4
:1048B000910511F00C94E92F4DC38D3C910509F43D
:1048C0009DC60CF467C68E3C910509F4AAC6833DCB
:1048D000910511F00C94E92F0F94B8080C94003056
:1048E0008232E1E09E0711F40C948F2C7CF4823E1E
:1048F000910509F431C7883121E0920709F478C79E
:104900008D3D910511F00C94E92FD0C68D3231E028
:10491000930711F40C94A72C3CF48C32914011F4C1
:104920000C94922C0C94E92F8E32E1E09E0711F446
:104930000C949A2D8F32914011F00C94E92F0E9423
:10494000BE770C940030853F21E0920711F40C945F
:10495000DA2EDCF58A39A1E09A0711F40C940030C4
:10496000ACF48139E1E09E0711F40C94DE2D82391C
:10497000F1E09F0711F40C94E32D8039914011F080
:104980000C94E92F0F949E470C940030853A31E047
:10499000930711F40C94E82D4CF4843A914011F0F3
:1049A0000C94E92F0F94CE4C0C9400308C3AE1E03B
:1049B0009E0711F40C947E2E843F914011F00C94CC
:1049C000E92F0E941FAE0C9400308B3522E0920735
:1049D00011F40C94FA2EC4F4873FA1E09A0711F465
:1049E0000C94E02E14F40C94DD2E883FE1E09E0739
:1049F00011F40C94E92E8835924011F00C94E92FB3
:104A00000F94220B0C9400308C3623E0920711F4A3
:104A10000C9400304CF48335934011F00C94E92F42
:104A20000E941D7E0C9400308438B3E09B0711F483
:104A30000C94732F873E934011F40C94DB2F0C944D
:104A4000E92F80E50E94E537882329F00F94E209D9
:104A50006B017C0103C0C12CD12C760183E50E943F
:104A6000E537882361F00E94633720E030E04AE7B1
:104A700054E40F944C6A0F945D726B017C010F94A7
:104A80009E478091B1049091B204009721F061E0BB
:104A90000E94EEF205C060E089E198E00E9423F2F6
:104AA0008091B3049091B404892B19F061E178E00E
:104AB00002C069E078E040E082E00E948A5A80EA21
:104AC00092E10E94BA5A0E94725A40E0C701B601B0
:104AD0000E94825380E00E94B1F20C9400308091D9
:104AE000B60484FF02C00C94D6328091B80487FFCC
:104AF00002C00C94D6328091B904837011F00C94EA
:104B0000D63260E08CE298E00E9423F25F988A98A7
:104B100080910801817080930601479812980C9447
:104B200000300E9456EB7B018C0120E831E541E02A
:104B300050E00F943C70C9016DE671E00F94B970BC
:104B40004B015C01C801B70120E13EE040E050E0CC
:104B50000F943C70CA01B90128E130E040E050E018
:104B60000F943C70762E672EC62ED72E8CE3282EFF
:104B7000312C412C512CC801B701A20191010F9495
:104B80003C70F62EE72ECA01B901A20191010F94E3
:104B90003C70CB018E010F5F1F4F8114910499F07F
:104BA000EF92FF927F936F936F927F92BF92AF923B
:104BB0009F928F9285E398E09F938F931F930F931B
:104BC0000F947E6913C0A114B104B1F0EF92FF926B
:104BD0007F936F936F927F92BF92AF9289E398E039
:104BE0009F938F931F930F930F947E690FB6F89442
:104BF000DEBF0FBECDBF30C0CD2879F0EF92FF925F
:104C00007F936F936F927F928DE398E09F938F9342
:104C10001F930F930F947E69E9CF892B69F0EF9270
:104C2000FF927F936F9381E498E09F938F931F93FC
:104C30000F930F947E69DACFEF92FF9285E498E0AC
:104C40009F938F931F930F930F947E690F900F90F4
:104C50000F900F900F900F9060E0C8010E94EEF24D
:104C60000E94FD4CB80189E498E00E94E64C8AE07D
:104C70000E94844C0C9400306DE070E080E50E944E
:104C8000F2378C0197FF02C00C940030E82E60E0F0
:104C900089E40E94145881110C94F332802F0F94F0
:104CA0006F5B811176C50C94F3320F94664E0C94B1
:104CB00000300E94C9EB0C9400308091DB0A83FF26
:104CC00002C00C9400300F94770887FF02C00C9448
:104CD000003089E40E94E537882311F40C942A33CC
:104CE0000E94F05790E01816190614F481E090E045
:104CF00026E0289FF001299FF00D1124EE53FB4E72
:104D0000808191810C9434338091DB0A83FF02C04F
:104D10000C9400300F947708F82E87FF02C00C9493
:104D2000003089E40E94E537082F882311F40C94A1
:104D30003D330E94F05790E01816190614F481E0F4
:104D400090E026E0289FF001299FF00D1124EE53FA
:104D5000FB4E8081918110E00C944D330F947708C5
:104D6000182F87FF02C00C94123080E596E10E9454
:104D7000D74C812F0F94EF000C940F3060E080E54A
:104D80000F94834C81110C94003081E40E949C3775
:104D9000882329F060916505062F10E002C00FEF0F
:104DA00010E089E40E94E537882399F00E94F057CB
:104DB00090E01816190614F481E090E026E0289F90
:104DC000F001299FF00D1124EE53FB4E0481158153
:104DD00008C083E50E94E537882319F00E944F3709
:104DE0008B01B80180E00F9454580C94003060E0BF
:104DF00080E50F94834C60E070E00F9454580C945D
:104E000000308EE40E94E537882311F40C940030C2
:104E10000E944F376093BC047093BD048093BE041E
:104E20009093BF040C94003083E50E949C37882344
:104E300031F060E083E50F94834C8093DB0A0E949D
:104E4000FD4C8DE698E00E94D74C8091DB0A8823C8
:104E500069F1B7E0EB2EBAE0FB2E00E010E020E0B5
:104E60008091DB0A90E0A0E0B0E0002E04C0B6958F
:104E7000A795979587950A94D2F780FF0EC0DD24F9
:104E8000D394D20E222319F08CE20E94844CF701B5
:104E9000859194910E94D74C2D2D0F5F1F4F32E0CA
:104EA000E30EF11C05301105D9F604C08CE49EE038
:104EB0000E94D74C8AE00E94844C0C94003083E519
:104EC0000E94E537882381F00E94F057282F30E0B8
:104ED0002D33310524F4809300020C9400308CE3D0
:104EE000809300020C9400300E94FD4CC0900002A0
:104EF000D12CE12CF12C84E798E00E94D74C4AE0B9
:104F0000C701B6010E94F04D8AE00E94844C0C94C7
:104F100000308091DB0A83FF02C00C94003089E4EA
:104F20000E94E537882311F40C9497330E94F057C0
:104F300090E01816190614F481E090E026E0289F0E
:104F4000F001299FF00D1124EE53FB4E82819381D5
:104F50000C94A2338091DB0A83FF02C00C940030D2
:104F600089E40E94E537882311F40C94A9330E9448
:104F7000F05790E01816190614F481E090E026E04E
:104F8000289FF001299FF00D1124EE53FB4E8281E2
:104F9000938110E00C94BA3383E50E94E5378823AF
:104FA00011F40C9400300E94F057182F90E0CD9728
:104FB0000CF01CE3109316030F9485266B017C0103
:104FC000212F30E0A8EEB3E00F949070C60ED71EEC
:104FD000E81EF91EC0921203D0921303E09214034C
:104FE000F09215030C9400300F949F060E94DEEBA4
:104FF0000F94AF470F94B30868EE73E080E090E041
:105000000E94123F60E089E998E00E9423F20C942C
:10501000003080911D038F7D806180931D030C946F
:10502000003080911D038F7E806280931D03E8C74E
:1050300083E50E94E5378823E9F00F948526609385
:10504000BB0B7093BC0B8093BD0B9093BE0B0E9467
:10505000633720E030E04AE754E40F944C6A0F9441
:105060005D72609301027093020280930302909339
:105070000402C6C78091B60484FF02C00C94E333D7
:105080008091B80487FF02C00C94E3338091B90487
:10509000837011F00C94E3330C941C3483E50E946C
:1050A0009C37882309F4ACC70F9485266093BB0B0B
:1050B0007093BC0B8093BD0B9093BE0B0E94633723
:1050C00020E030E04AE754E40F944C6A0F945D729C
:1050D00060931703709318038093190390931A0336
:1050E0008FC70F94770887FD8BC79091B60494FD06
:1050F00004C09091B80497FF0AC0F2E9CF2EF2E005
:10510000DF2EACEDEA2EAAE0FA2E10E009C0909155
:10511000B904937091F7682F81E00F94A70970C7C5
:10512000D6018D916D010E94E537882309F46DC089
:10513000133009F063C00E9463374B015C0120E02B
:1051400030E040EA51E40F94E66987FF4EC0A501C4
:1051500094016091FC0A7091FD0A8091FE0A909181
:10516000FF0A0F94E4712B013C019B01AC0160919B
:105170005D0570915E0580915F05909160050F94CB
:105180004C6A60935D0570935E0580935F05909314
:105190006005A301920160910C0B70910D0B809141
:1051A0000E0B90910F0B0F944C6A60930C0B709345
:1051B0000D0B80930E0B90930F0B6091490570912E
:1051C0004A0580914B0590914C050F94EB69A30122
:1051D00092010F944C6A0F945D726093490570932D
:1051E0004A0580934B0590934C058092FC0A90925F
:1051F000FD0AA092FE0AB092FF0A07C00E94633720
:10520000F701648B758B868B978B1F5FF4E0EF0E35
:10521000F11C143009F084CF0F947A47F1C60E9434
:105220009CE98BED95E10F947F58EAC68091B1041B
:105230009091B204009741F0DC012C91222321F0DF
:1052400060E00E94EEF2DCC680E00E94B1F2D8C6B7
:105250000091B1041091B20494E0F12C40E091501F
:1052600021F1F8018081282F2B7F213421F4218125
:105270002133D9F407C08035C1F4818180538A304D
:1052800048F013C0813421F0853421F441E002C09C
:10529000FF24F39498012E5F3F4F89012F5F3F4F0A
:1052A000F80180818032C9F3DACF41110E94FD4CB0
:1052B000FF2021F086EB98E00E94D74CC8010E94A5
:1052C000314F9EC620932D0C20932C0C0E94E9A4F4
:1052D00097C660E070E083E50E94F237823038F0D4
:1052E0000E94F94C8AEB98E00E94D74C89C68C0149
:1052F000112788E40E94E5378823E1F00E945F3798
:105300008A3A910544F00E945F378530914034F429
:105310000E945F3705C08AEA90E002C084E091E015
:1053200026E0209FF001219FF00D1124EE53FB4E4B
:105330009183808382E40E94E5378823D9F00E941C
:105340005F37059744F00E945F378D38910534F43C
:105350000E945F3705C085E090E002C08CE890E0D5
:1053600026E0209FF001219FF00D1124EE53FB4E0B
:105370009383828386E40E94E537882309F440C63C
:105380000E945F3797FD09C00E945F378F3F9105EC
:1053900009F034F40E945F3705C080E090E002C05D
:1053A0008FEF90E026E0209FF001219FF00D112467
:1053B000EE53FB4E9583848323C682E40E949C3780
:1053C000882351F080911B0390911C03892B31F0AD
:1053D0000E94F057182F03C010E001C01FEF85E5B1
:1053E0000E949C37882351F080911B0390911C03ED
:1053F000892B31F00E94F057082F03C000E001C054
:105400000FEF82E50E949C37882349F080911B03AF
:1054100090911C03892B29F00E94F05703C080E073
:1054200001C08FEF89830A831B83CE0101960E94FE
:105430000859E6C50F947708182F87FDE1C500913C
:10544000D81484E40E94E537882311F40C941F34A7
:105450000E9463376B017C0120E030E0A9010F94CA
:10546000E669882309F44BC024E01202F0011124FC
:10547000EC52FB4EC082D182E282F38220E030E027
:10548000A901C701B6010F944A731816D4F420E09D
:1054900030E040E05FE3C701B6010F944C6A9B0126
:1054A000AC010F944C6A2BED3FE049E450E40F94BB
:1054B0004C6A6093050270930602809307029093F2
:1054C000080220E030E0A9016091D4147091D51455
:1054D0008091D6149091D7140F94E66981110CC075
:1054E00080E090E0A0EEBFE38093D4149093D514B5
:1054F000A093D614B093D71401E00C941F3480E02D
:105500008093D8140F9498467BC50F94770887FD35
:1055100077C572E9E72E72E0F72E0CED1AE0ECEE9B
:10552000CE2EEAE0DE2ED7018D917D010E949C37C0
:10553000882359F00E9463370F945D72F8016083ED
:105540007183828393830F9433470C5F1F4FC01680
:10555000D10649F755C50F94770887FD51C562E913
:10556000E62E62E0F62E0CED1AE0D7018D917D015A
:105570000E949C37882339F00E946337F80164A3A6
:1055800075A386A397A30C5F1F4FFAE00C3E1F077D
:1055900061F736C58091B70487FF02C00C942534AB
:1055A0008091B8048E7011F00C9425344091100B4A
:1055B0005091110B6091120B7091130B8CED98E0D0
:1055C0000E941A4F4091140B5091150B6091160BCD
:1055D0007091170B87ED99E30E941A4F4091180BB9
:1055E0005091190B60911A0B70911B0B8DE594E291
:1055F0000E941A4F8AE00E94844C02C58091B60432
:10560000827111F00C946B348091B8048C7811F095
:105610000C946B348091B904837011F00C946B344A
:10562000EFC452E3E52E5CE0F52E10E088E5810F33
:105630000E949C37882359F00E946337D7016D93ED
:105640007D938D939C931397812F0F945D4C1F5FD7
:10565000B4E0EB0EF11C133049F70C94C22283E541
:105660000E94E537882331F00E945F3790930F0244
:1056700080930E028091B6049091B704A091B80473
:10568000B091B904892B8A2B8B2B09F0B9C4609196
:105690000E0270910F028EE199E00E94964E85E213
:1056A0000E94844C8AE00E94844CAAC40F9477081C
:1056B000F82E87FDA5C483E50E94E5370F2D0F2C3A
:1056C000000C110B882369F10E945F37F801EE0F7F
:1056D000FF1FEB59FD4F91838083000F111F000FB7
:1056E000111FF801E65CFD4F7F01BC01990F880B8B
:1056F000990B0F94ED692AE037ED43E25CE30F94D8
:105700004C6AF801EA51FB4E20813181428153817C
:105710000F944C6AD7016D937D938D939C9313974F
:105720006FC40E94FD4C85E40E94844C80E38F0D81
:105730000E94844C000F111FF801EB59FD4F60814E
:10574000718182E299E00E94964E85E20E94844C2B
:105750008AE00E94844C54C480E50E949C378823D0
:1057600009F44EC460E070E080E50E94F237F82E44
:105770006FEF7FEF83E50E94F2378C01019603976C
:1057800008F03EC4F7FC3CC48F2D0F946F5B882358
:1057900039F00E94F94C8AE299E00E94D74C30C45B
:1057A0000F949E4760E08F2D0F943F150F3FBFEF82
:1057B0001B0731F00130110571F000E010E00DC061
:1057C0008F2D0F94E71431E020E0892B09F030E0B1
:1057D000032F122F02C001E010E08F2D0F94E71469
:1057E0008017910709F40CC480E00E94574FF5CF51
:1057F00080E50E949C37882309F402C40E945F3729
:105800008C01892B09F07FC083E50E949C37882397
:1058100089F00E945F378F3FEFEF9E0729F48FEAF0
:1058200095E10E948E4AECC3BC018FEA95E10E948B
:10583000FA4AE6C30E94FD4C60E070E089E399E01B
:105840000E94964E8091B11528E532E06901C81A90
:10585000D10887FDD394CC0CDD1CCC0CDD1C0D2CA9
:10586000000CEE08FF088091B01528E830E04901EF
:10587000881A910887FD9394880C991C880C991CB0
:10588000092C000CAA08BB088091AF158F3FC1F00E
:1058900090E0FC01EE0FFF1F8E0F9F1FFC01EA59E5
:1058A000FA4E2181328113E0220F331F1A95E1F75E
:1058B00004E0369527950A95E1F72E5F3F4F02C029
:1058C00020E030E02F5F3F4FC901330FAA0BBB0B25
:1058D0009C01AD01281939094A095B09A4EBB0E024
:1058E0000F947D70A7019601281939094A095B09AF
:1058F0000F945E70B9018EEC9FE30E94964E8AE091
:105900000E94844C7DC30E94F94CB8018AE399E05F
:105910000E94964E8AEF97E00E94D74C71C30E9476
:10592000D8806EC364E071E083E50F94A0088C0119
:1059300068EE73E080E50F94A0088938F3E19F07D3
:1059400010F088E893E1B8010E94ECF159C360E0DF
:1059500085E40F94834C811173C080E50E949C37CD
:10596000882351F00E94633760935815709359153E
:1059700080935A1590935B1589E40E949C37882385
:1059800081F00E9463372CEA35EC47E25EE30F9426
:105990004C6A60935C1570935D1580935E159093CF
:1059A0005F1584E40E949C37882381F00E9463374E
:1059B0002CEA35EC47E25EE30F94E47160936015E6
:1059C0007093611580936215909363150E94FD4C4E
:1059D000409158155091591560915A1570915B1569
:1059E00089E499E00E941A4F2CEA35EC47E25EE325
:1059F00060915C1570915D1580915E1590915F15B9
:105A00000F94E471AB01BC0185E499E00E941A4F48
:105A10002CEA35EC47E25EE3609160157091611508
:105A200080916215909163150F944C6AAB01BC0193
:105A300081E499E00E941A4F8AE00E94844CE0C2FF
:105A40000E94F94C81ED98E20E94D74CD9C280E5C2
:105A50000E949C37882351F00E9463376093CA0BE1
:105A60007093CB0B8093CC0B9093CD0B89E40E9469
:105A70009C37882381F00E9463372CEA35EC47E29B
:105A80005EE30F944C6A6093CE0B7093CF0B8093C0
:105A9000D00B9093D10B84E40E949C37882381F033
:105AA0000E9463372CEA35EC47E25EE30F94E47121
:105AB0006093D20B7093D30B8093D40B9093D50B40
:105AC0000E94FD4C4091CA0B5091CB0B6091CC0BC6
:105AD0007091CD0B89E499E00E941A4F2CEA35ECC5
