:100000000C945B130C948C130C948C130C948C1325
:100010000C948C130C948C130C948C130C948C13E4
:100020000C948C130C948C130C948C130C948C13D4
:100030000C948C130C948C130C948C130C948C13C4
:100040000C948C130C9425850C948C130C948C13A9
:100050000C948C130C948C130C9461920C9457494F
:100060000C948C130C9484310C947A310C948C1372
:100070000C948C130C948C130C948C130C948C1384
:100080000C94D42B0C948C130C948C130C948C1314
:100090000C948C130C948C130C948C130C948C1364
:1000A0000C948C130C948C130C94A62B0C948C1322
:1000B0000C948C130C948C130C948C130C948C1344
:1000C0000C948C130C948C130C948C130C948C1334
:1000D0000C948C130C948C130C948C130C948C1324
:1000E0000C948C13BA31CC31DE31EF31F7312A3236
:1000F000FB312A32FF3103322A3207320B320F3200
:1001000018322A322332A046A346924696469C468F
:10011000DA46A746AB46B146B546B946BF46C346E2
:10012000C746DA46CD46D146D546714876487B4823
:1001300085488F4808499948A148A948B348BD480F
:10014000C748D648E0480849EA48F448FE48FB68F2
:100150000269B569BA69096B0E6B1E6B084AD73B19
:100160003BCE016E84BCBFFDC12F3D6C74319ABD86
:1001700056833DDA3D00C77F11BED9E4BB4C3E91AA
:100180006BAAAABE000000803F05A84CCDB2D44E99
:10019000B93836A9020C50B9918688083CA6AAAA9B
:1001A0002ABE000000803F07634236B79BD8A71ADB
:1001B00039685618AEBAAB558C1D3CB7CC5763BDE9
:1001C0006DEDFD753EF6177231BF000000803F08EF
:1001D000000000BE922449123EABAAAA2ABECDCC92
:1001E000CC4C3E00000080BEABAAAAAA3E00000094
:1001F00000BF000000803F0000000000084178D3ED
:10020000BB4387D1133D190E3CC3BD4282AD2B3E8B
:1002100068EC8276BED98FE1A93E4C80EFFFBE012B
:10022000C4FF7F3F0000000000000C94B5690C94EF
:1002300096460C94BA310C94A9480C94A0460C94A0
:1002400007320C94096B0C948F480C94F4480C946E
:10025000BF460C94FE480C94A1480C941E6B0C9461
:10026000C7460C94A3460C94B3480C94B1460C9426
:10027000AB460C94EA480C94B9460C94B5460C94E1
:10028000FB680C9499480C94EF310C9423320C9435
:1002900085480C9476480C94D1460C9402690C94D1
:1002A000CC310C940B320C947B480C9408490C9480
:1002B000BA690C94C3460C9471480C94F7310C94B1
:1002C000DE310C947CD90C94A7460C9418320C9413
:1002D000CD460C94D5460C94C7480C940E6B0C94E8
:1002E000BD480C9492460C942A320C94DA460C9435
:1002F000E0480C949C460C9403320C94FB310C9413
:100300000F320C94FF310C94D6484E414E494E4961
:100310005459494E46CDCCCC3D0AD7233C17B7D1D2
:100320003877CC2B329595E6241FB14F0A00002078
:10033000410000C84200401C4620BCBE4CCA1B0EF7
:100340005AAEC59D74434F4D4D554E494341544996
:100350004F4E0044525952554E004552524F52533F
:10036000004543484F00536C6565702E2E2E005A91
:100370002050726F62652050617374204265640A78
:10038000005A2050726F626520506173742042657C
:100390006400205A3A200020593A20004265642027
:1003A000583A20004D65736820706F696E74206F35
:1003B0007574206F662072616E67650A004D30208B
:1003C00053746F70004D312053746F7000436F6E23
:1003D00074696E7565004E6F204D6F76652E002531
:1003E000697920256964202569682025696D2025A3
:1003F0006973005072696E742074696D653A2000EB
:10040000496E76616C69642050696E204D6F646539
:100410000A0044454255473A004D313133205300DC
:10042000417274696C6C657279205369646577698F
:100430006E646572205831204F46462E0043484175
:100440004D4245525F54454D5045524154555245D9
:1004500000424142595354455050494E4700415281
:100460004353004D4F54494F4E5F4D4F4445530049
:10047000544845524D414C5F50524F5445435449A6
:100480004F4E004C4F4E475F46494C454E414D45FF
:10049000004155544F5245504F52545F53445F539F
:1004A0005441545553005344434152440050524F19
:1004B0004D50545F535550504F525400454D455286
:1004C00047454E43595F50415253455200434153B3
:1004D000455F4C494748545F4252494748544E454E
:1004E000535300544F47474C455F4C49474854537A
:1004F00000534F4654574152455F504F57455200A5
:100500004255494C445F50455243454E54004C457A
:1005100056454C494E475F44415441005A5F505242
:100520004F4245004155544F4C4556454C005052A2
:10053000494E545F4A4F420050524F475245535321
:10054000004155544F5245504F52545F54454D5001
:1005500000564F4C554D4554524943004545505265
:100560004F4D0042494E4152595F46494C455F54F8
:1005700052414E534645520053455249414C5F58F3
:100580004F4E5F584F4646004649524D57415245DF
:100590005F4E414D453A4D61726C696E20322E308E
:1005A0002E362E31444947412D546563682041530E
:1005B0005758312076312E3020284175672033304E
:1005C00020323032302031383A34373A3133292032
:1005D000534F555243455F434F44455F55524C3A44
:1005E00068747470733A2F2F6769746875622E632C
:1005F0006F6D2F4D61726C696E4669726D776172B5
:10060000652F4D61726C696E2050524F544F434FAD
:100610004C5F56455253494F4E3A312E30204D4192
:100620004348494E455F545950453A417274696C8C
:100630006C657279205369646577696E64657220B0
:1006400058312045585452554445525F434F554EFA
:10065000543A3120555549443A63656465326132F4
:10066000662D343161322D343734382D39623132D0
:100670002D6335356336326633363766660A002FAA
:100680002F2000416363656C65726174696F6E3A17
:100690002050003F4A206F7574206F662072616E93
:1006A00067652028302E303120746F20302E33299A
:1006B0000A0020204D61783A200020204D696E3AD2
:1006C0002000536F667420656E6473746F70733AA4
:1006D000200046523A0020466C6F773A2000507254
:1006E0006F7465637465642050696E0A00205365F9
:1006F00072766F200050726F6265204F6666736578
:1007000074205A0020643A0020693A0020703A00B0
:10071000496E76616C69642065787472756465727F
:100720000A006469730043290A0061626C656420F1
:10073000286D696E2074656D702000436F6C6420B5
:1007400065787472756465732061726520004D343C
:10075000323120696E636F727265637420706172EA
:10076000616D657465722075736167650A004F6617
:100770006673657473204170706C69656400546FB2
:100780006F206661722066726F6D20726566657299
:10079000656E636520706F696E740A00454550523E
:1007A0004F4D204F4B0A003F5A206F7574206F66E3
:1007B0002072616E67652028003F59206F75742094
:1007C0006F662072616E676520282D003F58206F8C
:1007D0007574206F662072616E676520282D005049
:1007E000726F6265204F666673657420580020281A
:1007F000302D313029002076616C7565206F75745D
:10080000206F662072616E676500416476616E6379
:1008100065204B3D00610391085A03530345034D86
:100820003231004D32332025730020410020430037
:10083000726F746174696F6E206D61747269783A59
:100840000A005A5F6D6F76655F636F6D700A0020F6
:100850006D61783A00206D696E3A004178697320C5
:1008600000416363656C65726174696F6E206C69C9
:100870006D697465642E0A00534C4F5700554E4BFA
:100880004E4F574E2053544154450047434F444523
:100890005F494E464F004C43445F50415553455FBE
:1008A000524553554D450046494C414D454E545FC8
:1008B00052554E4F55545F434F4E54494E55450087
:1008C00046494C414D454E545F52554E4F5554008C
:1008D0004D38373620526573706F6E64696E6720CD
:1008E00050524F4D50545F004D3234004572726F7C
:1008F000722077726974696E6720746F2045455065
:10090000524F4D210A004E6F20436865636B73752B
:100910006D2077697468206C696E65206E756D62F4
:1009200065722C204C617374204C696E653A20000E
:10093000636865636B73756D206D69736D61746356
:10094000682C204C617374204C696E653A20004C11
:10095000696E65204E756D626572206973206E6FD9
:1009600074204C617374204C696E65204E756D6205
:1009700065722B312C204C617374204C696E653A82
:1009800020004D313130002121204B494C4C206357
:10099000617573656420627920746F6F206D756373
:1009A0006820696E6163746976652074696D65207D
:1009B0002D2063757272656E7420636F6D6D616E4C
:1009C000643A2000627573793A20706175736564CA
:1009D00020666F7220696E7075740A006275737993
:1009E0003A2070617573656420666F722075736557
:1009F000720A00627573793A2070726F636573735F
:100A0000696E670A00706F7765726F666600507274
:100A1000696E7465722068616C7465642E206B6900
:100A20006C6C28292063616C6C6564210A00363780
:100A300026033C3D380E2E303E1224221E1A1C186E
:100A40000A07430809070844000120746F6F206CEF
:100A50006F6E6720657874727573696F6E2070723F
:100A60006576656E7465640A0020636F6C6420654A
:100A70007874727573696F6E2070726576656E74C6
:100A800065640A00DB0FC93F45BCDA3F8FB3024003
:100A9000FCF0274056946140FE4B9B4084A5D84013
:100AA000E0231841346A5641E859974164DBD54147
:100AB0006E271742B4B75542CE1A9742C8AED542F8
:100AC000B5885A43D40684BFA65FA7BF7443E0BF6E
:100AD00010B11AC01C2C58C0E8F697C0B849D6C04F
:100AE0004E4E17C124D355C1802497C1A0B5D5C19E
:100AF000121A17C244AE55C2781797C26CACD5C251
:100B000067885AC32020506C616E6E6572427566AC
:100B100066657242797465733A2000204672656595
:100B2000204D656D6F72793A2000436F6D70696C6E
:100B300065643A2041756720333020323032300A04
:100B400000204C61737420557064617465643A20B0
:100B5000323032302D30382D3237207C20417574C0
:100B6000686F723A2028444947412D546563682CC8
:100B70002041535758312076312E30290A00322E29
:100B8000302E362E310A004D61726C696E00205392
:100B90006F6674776172652052657365740A002010
:100BA0005761746368646F672052657365740A00E7
:100BB0002042726F776E206F757420526573657472
:100BC0000A002045787465726E616C205265736509
:100BD000740A00506F77657255700A00656E647311
:100BE000746F7073206869743A200070012C019052
:100BF000012701B0012201C0011D01F001180110FF
:100C000002130130020E016002090190020401C0CA
:100C100002FF000003FA004003F5008003F000D05B
:100C200003EB002004E6007004E100E004DC004077
:100C300005D700C005D2004006CD00D006C8008010
:100C400007C3003008BE00F008B900C009B400B006
:100C50000AAF00B00BAA00D00CA500000EA00050F7
:100C60000F9B00C01096005012910000148C00C021
:100C7000158700B0178200B0197D00D01B780000E6
:100C80001E730040206E0090226900F02464004032
:100C9000275F0090295A00E02B5500102E500020AD
:100CA000304B0010324600E033410090353C0010DC
:100CB00037370070383200A0392D00B03A2800A034
:100CC0003B2300603C1E00103D1900903D140010B5
:100CD0003E0F00703E0A00C03E0500003F0000408D
:100CE0003FFBFF803FF6FFC03FF1FF0000210024E3
:100CF0000027002A002D003000330001010000040D
:100D00000107010A0100002200250028002B002E07
:100D1000003100340002010000050108010B010050
:100D20000020002300260029002C002F00320000A4
:100D30000100000301060109010505050507050875
:100D4000080808020202020A0A080804040404014E
:100D50000101010101010103030303030303030470
:100D60000707070C0C0C0C0C0C0C0C020202020600
:100D7000060606060606060B0B0B0B0B0B0B0B01F0
:100D8000021020200808102040102040800201029C
:100D90000108040201010204081020408080402064
:100DA000100804020180040201804020100804029F
:100DB000010804020101020408102040800102041D
:100DC000081020408000000A0B02090C0D0E0807D5
:100DD000030401000000000000000000000000000B
:100DE0000000000000000000000000000000000003
:100DF00000121110000000000000000000000000C0
:100E00000000000000000000000000486F6D652039
:100E100025732573257320466972737400576172B8
:100E20006E696E673A20486F6D696E672042756D16
:100E3000702044697669736F72203C20310A00008B
:100E400000484200004842000080400202040000C6
:100E5000A0400000A04000000040FFFFFF3F4545CC
:100E600050524F4D2073746F72616765206E6F74BE
:100E700020617661696C61626C652E0A006E6F7428
:100E8000696669636174696F6E2000626567696E87
:100E900000627574746F6E00656E640070726F6DC1
:100EA00070745F0073686F770050757267654D6F7F
:100EB000726500506175736564004F46460A0046CE
:100EC0006164652048656967687420004265642034
:100ED0004C6576656C696E6720004661696C656477
:100EE00020746F20656E61626C6520426564204CE1
:100EF0006576656C696E670A00496E76616C696437
:100F0000206D6573682E0A0076616C69640A5374FB
:100F10006F7261676520736C6F743A20004D657362
:100F20006820697320003F496E76616C69642073A4
:100F3000746F7261676520736C6F742E0A00466966
:100F40006E6973686564210A003A207A3A200020AD
:100F50006F662000476F696E6720746F3A205800F3
:100F600043570A00206469723A0020616E676C651D
:100F70003A005374617274207261646975733A0047
:100F8000506F736974696F6E696E6720746865204D
:100F900070726F62652E2E2E0A003F4C65677320BB
:100FA0006F66206D6F76656D656E7420696D706C0F
:100FB00061757369626C652028302D3135292E0AE0
:100FC000003F2028582C5929206F7574206F662007
:100FD000626F756E64732E0A0050726F6265206FC7
:100FE0007574206F6620626F756E6473003F536185
:100FF0006D706C652073697A65206E6F7420706CFB
:1010000061757369626C652028342D3530292E0A8C
:10101000004D3438205A2D50726F62652052657031
:101020006561746162696C69747920546573740ACE
:10103000003F2856296572626F7365206C6576657E
:101040006C20696D706C61757369626C6520283005
:101050002D34292E0A0050726F62696E6720466136
:10106000696C65640A0050726F62696E6720466140
:10107000696C65640047323800446F6E652E0A0063
:101080003F496E76616C69642073746F7261676545
:1010900020736C6F742E0A3F557365203020746F77
:1010A00020003F5034206973206F6E6C7920617688
:1010B00061696C61626C65207768656E20616E2085
:1010C0004C43442069732070726573656E742E0AF8
:1010D000003F5032206973206F6E6C792061766119
:1010E000696C61626C65207768656E20616E204C6A
:1010F00043442069732070726573656E742E0A0014
:1011000050726F62696E672061726F756E6420281D
:10111000004D65736820696E76616C696461746501
:10112000642E2050726F62696E67206D6573682E41
:101130000A004D657368207A65726F65642E0A0037
:1011400044656661756C742073746F7261676520A5
:10115000736C6F7420302073656C65637465642EE6
:101160000A004C6F6164696E6720746573745F7008
:1011700061747465726E2076616C7565732E0A0AEF
:1011800000496E76616C696420746573745F706188
:10119000747465726E2076616C75652E20282D3111
:1011A00020746F2032290A0A004C6F636174696FE2
:1011B0006E7320696E76616C6964617465642E0A71
:1011C0000A00456E74697265204D65736820696E0A
:1011D00076616C6964617465642E0A0A0000009689
:1011E00043000096430000C84300000000000000D8
:1011F000000000000053657474696E6773205374B7
:101200006F7265640053657474696E6773205374FC
:101210006F7265642028005374616E64617264208B
:10122000446576696174696F6E3A2000486F746531
:101230006E6420746F6F20636F6C640A00205261CB
:101240006E67653A2000205369676D613A20004D52
:1012500065616E3A2000204D39322058004C6F6194
:10126000642046696C616D656E74205400496E732C
:101270006572742066696C616D656E7420616E6460
:101280002073656E64204D3130380A0072657375C5
:101290006D656400526573756D696E6700526568AF
:1012A00065617420446F6E6500526568656174699C
:1012B0006E672E2E2E005265686561740048656168
:1012C0007465722054696D656F75740053656E6442
:1012D000204D31303820746F2068656174206E6F46
:1012E0007A7A6C650A004E6F7A7A6C65205061726A
:1012F0006B656400706175736564004469736D6942
:1013000073730050617573650020496E76616C6976
:101310006420657874727564657220006F6B00528A
:101320006573656E643A200042656420436F6F6C9C
:10133000696E672E2E2E00426564204865617469CF
:101340006E672E2E2E0023646566696E6520444507
:101350004641554C545F004B6420004B6920004BC4
:10136000702000504944204175746F74756E65207B
:1013700066696E69736865642120507574207468AD
:1013800065206C617374204B702C204B6920616E5A
:1013900064204B6420636F6E7374616E7473206697
:1013A000726F6D2062656C6F7720696E746F204379
:1013B0006F6E66696775726174696F6E2E680A0078
:1013C000504944204175746F74756E65206661697B
:1013D0006C6564212074696D656F75740A000A205C
:1013E000436C617373696320504944200A00204BA9
:1013F000643A2000204B693A2000204B703A2000CC
:101400000A204E6F206F76657273686F6F740A00E2
:101410002054753A2000204B753A2000206D6178E9
:101420003A2000206D696E3A200020643A200020A6
:10143000626961733A2000504944204175746F74A9
:10144000756E652073746172740A005049442041BE
:1014500075746F74756E65206661696C65642120B2
:1014600054656D706572617475726520746F6F205C
:10147000686967680A00504944204175746F747543
:101480006E6500504944204175746F74756E652017
:101490006661696C656421204261642065787472BC
:1014A00075646572206E756D6265720A0024F4D4ED
:1014B0003050C38E20C2A24017828B7011127A91D5
:1014C0000D816CD90AA861E108C7586607615143CC
:1014D000061E4B5D05C145A7041A411104093D983C
:1014E00003713931034036DB0265339102D4305445
:1014F00002802E1D02632CEE01752AC501B028A0C2
:1015000001102781018F2564012B244B01E0223437
:1015100001AC211F018D200D01801FFC00841EEDF8
:1015200000971DDF00B81CD200E61BC600201BBCC4
:1015300000641AB200B219A8000A19A0006A18992A
:1015400000D117910040178B00B516840031167E2C
:1015500000B31579003A157300C7146F0058146A68
:1015600000EE1366008813630025135E00C7125B4C
:10157000006C12570015125400C111510070114F28
:101580000021114B00D61049008D10470046104431
:101590000002104200C00F4000800F3E00420F3C8E
:1015A00000060F3B00CB0E3800930E37005C0E3563
:1015B00000270E3400F30D3200C10D3100900D30C4
:1015C00000600D2E00320D2D00050D2C00D90C2BC6
:1015D00000AE0C2900850C29005C0C2700350C2777
:1015E000000E0C2600E80B2400C40B2400A00B23E3
:1015F000007D0B23005A0B2100390B2100180B2012
:1016000000F80A1F00D90A1E00BB0A1E009D0A1D11
:1016100000800A1D00630A1C00470A1B002C0A1BDD
:1016200000110A1A00F7091A00DD091900C4091986
:1016300000AB091900920917007B0918006309170C
:10164000004C09160036091600200916000A091573
:1016500000F5081500E0081400CC081400B80814C0
:1016600000A4081400900813007D0812006B0813F2
:10167000005808120046081200340811002308110F
:10168000001208110001081100F0071000E0071017
:1016900000D0071000C0071000B0070F00A107100E
:1016A0000091070E0083070F0074070F0065070EF7
:1016B0000057070E0049070E003B070D002E070ECE
:1016C0000020070D0013070D0006070D00F9060C9A
:1016D00000ED060D00E0060C00D4060C00C8060C58
:1016E00000BC060C00B0060C00A4060B0099060C0A
:1016F000008D060B0082060B0077060B006C060BB4
:101700000061060A0057060B004C060A0042060A52
:101710000038060A002E060A0024060A001A060AE5
:10172000001006090007060A00FD050900F4050976
:1017300000EB050900E2050900D9050900D00509FB
:1017400000C7050900BE050900B5050800AD05087C
:1017500000A50509009C050800940508008C0508F3
:1017600000840508007C050800740508006C050766
:1017700000650508005D050700560508004E0507D1
:101780000047050700400508003805070031050738
:10179000002A050700230507001C0506001605079B
:1017A000000F0507000805060002050700FB0406F8
:1017B00000F5040700EE040600E8040600E2040752
:1017C00000DB040600D5040600CF040600C90406A9
:1017D00000C3040600BD040600B7040600B10405FA
:1017E00000AC040600A6040600A00405009B040645
:1017F0000095040500900406008A04050085040590
:1018000000800406007A04050075040500700405D4
:10181000006B04050066040500610405005C040516
:101820000057040500520405004D04050048040556
:1018300000430405003E0404003A04050035040595
:1018400000300404002C04050027040400230405D0
:10185000001E0404001A0404001604050011040408
:10186000000D04040009040500040404000004043D
:1018700000FC030400F8030400F4030400F0030474
:1018800000EC030400E8030400E4030400E00304A4
:1018900000DC030400D8030400D4030400D00304D4
:1018A00000CC030400C8030300C503030024F404B0
:1018B000D9201BC40C5C0E9804C4095F0265077133
:1018C00001F405F900FB04B30048048700C1036973
:1018D000005803550003034500BE023A008402315C
:1018E0000053022A002902250004022000E4011C02
:1018F00000C8011900AF01170098011400840113FA
:1019000000710110006101100051010E0043010D32
:101910000036010B002B010B0020010B0015010903
:10192000000C01090003010800FB000800F3000897
:1019300000EB000700E4000600DE000600D8000609
:1019400000D2000600CC000500C7000500C200055B
:1019500000BD000400B9000400B5000400B100049B
:1019600000AD000400A9000400A5000300A20003CC
:10197000009F0004009B00030098000300950002F4
:101980000093000300900003008D0002008B000311
:10199000008800020086000200840003008100022B
:1019A000007F0002007D0002007B0002007900023F
:1019B000007700010076000200740002007200014E
:1019C00000710002006F0002006D0001006C000257
:1019D000006A000100690002006700010066000162
:1019E0000065000100640002006200010061000166
:1019F00000600001005F0002005D0001005C00016A
:101A0000005B0001005A000100590001005800016C
:101A1000005700010056000100550001005400016C
:101A2000005300000053000100520001005100016A
:101A300000500001004F0001004E0000004E000168
:101A4000004D0001004C0001004B0000004B000164
:101A5000004A000100490001004800000048000160
:101A6000004700010046000000460001004500005C
:101A70000045000100440001004300000043000154
:101A8000004200000042000100410000004100014E
:101A900000400001003F0000003F0001003E000048
:101AA000003E0001003D0000003D0001003C000040
:101AB000003C0000003C0001003B0000003B000136
:101AC000003A0000003A000100390000003900012E
:101AD0000038000000380000003800010037000026
:101AE000003700010036000000360000003600011B
:101AF0000035000000350000003500010034000012
:101B00000034000000340001003300000033000006
:101B100000330001003200000032000000320001FA
:101B200000310000003100000031000100300000F1
:101B30000030000000300001002F0000002F0000E6
:101B4000002F0000002F0001002E0000002E0000DA
:101B5000002E0001002D0000002D0000002D0000CF
:101B6000002D0001002C0000002C0000002C0000C3
:101B7000002C0001002B0000002B0000002B0000B7
:101B8000002B0001002A0000002A0000002A0000AB
:101B9000002A00010029000000290000002900009F
:101BA0000029000000290001002800000028000092
:101BB0000028000000280000002800010027000085
:101BC0000027000000270000002700000027000178
:101BD000002600000026000000260000002600006D
:101BE000002600010025000000250000002500005F
:101BF0000025000000250000002500010024000051
:101C00000024000000240000002400000024000143
:101C10000023000000230000002300000023000038
:101C20000023000000230000002300010022000028
:101C3000002200000022000000220000002200001C
:101C4000002200010021000000210000002100000E
:101C500000210000002100000021000000210001FF
:101C600000200000002000000020000000200000F4
:101C700000200000002000000020000000200001E3
:101C8000001F0000001F0000001F0000001F0000D8
:101C9000001F0000001F0000001F0001001E0000C8
:101CA000001E0000001E0000001E000000C23100E7
:101CB000001C260000F4190000D80F0000EB0800FB
:101CC00000C00400007502000040010000202D202B
:101CD000496E76616C6964206578747275646572AA
:101CE000206E756D62657220210A00544845524D80
:101CF000414C2052554E4157415900546865726D10
:101D0000616C2052756E61776179004572723A207C
:101D10004D415854454D50004D415854454D50206B
:101D2000747269676765726564004572723A204D26
:101D3000494E54454D50004D494E54454D50207428
:101D4000726967676572656400202F002042403A1F
:101D50000020403A0020573A006563686F3A00451A
:101D600072726F723A0020204D34323120490020C7
:101D700020473239204939390A0061637469766530
:101D80000A002053797374656D2076312E3031202E
:101D9000002020207C0A004E414E0020202E2020D2
:101DA0002000207C004C43443A0A004353563A0A30
:101DB0000020666F7220003A0A0A000A4265642019
:101DC000546F706F677261706879205265706F72BE
:101DD00074000900000A010008000A01000A090055
:101DE00000000A000800E11DDC1DD71DD21D5D0AA0
:101DF0000062656420706C616E65206E6F726D614B
:101E00006C203D205B00436F756C64206E6F742006
:101E1000636F6D706C657465204C53462100546986
:101E20006C74696E67206D65736820706F696E747D
:101E300020003F4572726F722070726F62696E6728
:101E400020706F696E742E2041626F7274696E67C4
:101E5000206F7065726174696F6E2E0A0054696C30
:101E600074696E67206D6573682028332F33290AE3
:101E70000054696C74696E67206D65736820283240
:101E80002F33290A00436F727265637465645F5A69
:101E90003D0054696C74696E67206D657368202815
:101EA000312F33290A002062797465733B206372F5
:101EB0006320004E6F20454550524F4D2E0A00457D
:101EC0004550524F4D206461746173697A65206595
:101ED00072726F722E0A00454550524F4D20566562
:101EE0007273696F6E204572726F72004545505271
:101EF0004F4D20496E646578204572726F720045BF
:101F00004550524F4D20435243204572726F72002C
:101F10003F4D65736820746F6F2062696720666F3C
:101F20007220454550524F4D2E0A0055424C2072AA
:101F3000657365740A00206C6F6164656420667265
:101F40006F6D2073746F726167652E0A004D657343
:101F50006820003F43616E277420656E61626C6586
:101F6000200020696E697469616C697A65642E0A63
:101F70000A002073746F7265642073657474696EEF
:101F80006773207265747269657665642028002025
:101F90002863616C63756C6174656429210A002093
:101FA000213D2000454550524F4D20435243206D66
:101FB00069736D61746368202D202873746F726576
:101FC000642920002053697A653A2000496E6465CF
:101FD000783A2000204D61726C696E3D5638312987
:101FE0000A00454550524F4D2076657273696F6EF9
:101FF000206D69736D617463682028454550524FA8
:102000004D3D004D65616E204D65736820486569E2
:102010006768743A200023206F662073616D706CCE
:1020200065733A20000A50726F62696E67206D65B1
:10203000736820706F696E742000496E76616C69F8
:1020400064206D617020747970652E0A0A003F2843
:1020500046296164652068656967687420666F72E7
:1020600020426564204C6576656C20436F72726512
:102070006374696F6E206E6F7420706C6175736924
:10208000626C652E0A0A003F43616E27742061630B
:1020900074697661746520616E642064656163743F
:1020A0006976617465206174207468652073616D60
:1020B000652074696D652E0A0A00426F74682058A5
:1020C00020262059206C6F636174696F6E73206DD8
:1020D00075737420626520737065636966696564F1
:1020E0002E0A0A003F496E76616C69642067726946
:1020F000642073697A6520284A29207370656369B2
:10210000666965642028322D39292E0A0A003F2885
:102110005029686173652076616C756520696E76FB
:10212000616C69642028302D36292E0A0A003F2868
:1021300056296572626F7365206C6576656C2069DF
:102140006D706C61757369626C652028302D34295F
:102150002E0A0A003F285229657065746974696FF8
:102160006E20636F756E7420696E76616C69642091
:1021700028312B292E0A0A00204A002052004D65E2
:10218000736820736176656420696E20736C6F7468
:1021900020003F556E61626C6520746F207361761C
:1021A00065206D65736820646174612E0A00207378
:1021B0006C6F743D00206D65736865735F656E6458
:1021C0003D004532454E443D00206D6573682073E7
:1021D0006C6F747320617661696C61626C652E0A44
:1021E000003F496E76616C696420736C6F742E0ACF
:1021F000004D657368206C6F616465642066726F62
:102200006D20736C6F7420003F556E61626C6520A9
:10221000746F206C6F6164206D65736820646174F5
:10222000612E0A0048617264636F646564204465CE
:102230006661756C742053657474696E6773204CA5
:102240006F616465640A00556E6966696564204261
:102250006564204C6576656C696E67003B200020E4
:10226000204D363033200020550046696C616D6585
:102270006E74206C6F61642F756E6C6F6164206C7E
:10228000656E677468733A0020204D393030204BFA
:10229000004C696E65617220416476616E63653AD7
:1022A0000020204D3835312058005A2D50726F6271
:1022B00065204F66667365740020204D33303420EE
:1022C000500020204D3330312050005049442073BD
:1022D000657474696E67733A00206D657368657321
:1022E0002E0A0A00454550524F4D2063616E20680A
:1022F0006F6C642000416374697665204D65736876
:1023000020536C6F743A200020204D34323020531B
:102310000020204D323036205800486F6D65206F08
:1023200066667365743A0020204D323035204200D5
:10233000416476616E6365643A20423C6D696E5F0C
:102340007365676D656E745F74696D655F75733E07
:1023500020533C6D696E5F66656564726174653EAD
:1023600020543C6D696E5F74726176656C5F666562
:102370006564726174653E204A3C6A756E635F6491
:1023800065763E0020204D3230342050004163639A
:10239000656C65726174696F6E2028756E697473FF
:1023A0002F7332293A20503C7072696E745F6163FA
:1023B00063656C3E20523C726574726163745F6148
:1023C0006363656C3E20543C74726176656C5F613A
:1023D0006363656C3E0020204D3230312058004D43
:1023E0006178696D756D20416363656C65726174B8
:1023F000696F6E2028756E6974732F7332293A00E5
:1024000020450020590020204D3230332058004D07
:102410006178696D756D2066656564726174657358
:102420002028756E6974732F73293A005374657090
:10243000732070657220756E69743A002044002024
:10244000204D3230302053002044697361626C6546
:10245000640A0046696C616D656E742073657474FE
:10246000696E67733A0020286D6D2900202047327D
:1024700031202020203B20556E69747320696E2026
:102480006D6D0000004843000048430000A041007B
:10249000002042F43DA042F43DA04296E3C7430031
:1024A00080DE43D0070000D0070000640000001069
:1024B000270000486F6D696E67204661696C65642E
:1024C000006F70656E0054524947474552454400BD
:1024D0007A5F6D696E00795F6D696E00785F6D6916
:1024E0006E005265706F7274696E6720656E6473FA
:1024F000746F70207374617475730A0020436F7574
:102500006E7420583A00453100626564002C2073D7
:10251000797374656D2073746F70706564212048E1
:1025200065617465725F49443A2000486561746969
:102530006E67204661696C65640048656174696E08
:1025400067206661696C6564004D313132205368E3
:102550007574646F776E0000646F6E650A00496E73
:1025600073756666696369656E7420646174610A77
:10257000004578747261706F6C6174696E67206D6C
:102580006573682E2E2E0053544F505045442E2014
:10259000005072696E7465722073746F7070656438
:1025A0002064756520746F206572726F72732E20BF
:1025B00046697820746865206572726F7220616E5A
:1025C0006420757365204D39393920746F20726528
:1025D00073746172742E202854656D706572617415
:1025E0007572652069732072657365742E2053655A
:1025F00074206974206166746572207265737461F9
:102600007274696E67290A0021212053544F5020AB
:1026100063616C6C65642062656361757365206FCE
:102620006620424C546F756368206572726F722029
:102630002D20726573746172742077697468204DFF
:102640003939390A002F2F616374696F6E3A0000BF
:1026500000803FC7710842C7718642AAAAC842C714
:10266000710543398E2643AAAA47431CC76843C74E
:10267000F18443008095434361703A0047322F470D
:10268000332062616420706172616D65746572737C
:102690000A00220A00556E6B6E6F776E20636F6DB5
:1026A0006D616E643A20220020453A00205A3A00BB
:1026B00020593A007CD911241FBECFEFD1E2DEBFF2
:1026C000CDBF00E00CBF12E0A0E0B2E0E2E5F0ED2B
:1026D00001E00BBF02C007900D92A63DB107D9F7EC
:1026E0002FE0A6EDB2E001C01D92A839B207E1F7D4
:1026F00013E1CBE5D3E100E006C021970109802F6B
:10270000FE010E947CE3CA35D10780E00807A9F7E3
:102710000E9472D50C9427E80C9400002F923F92EF
:102720004F925F926F927F928F929F92AF92BF92E1
:10273000CF92DF92EF92FF920F931F93CF93DF938D
:10274000CDB7DEB7E1970FB6F894DEBF0FBECDBFB1
:1027500088AB2091E2022EA781E08093E202809173
:10276000DE0B8D3409F4C5C2843511F40C94D823E2
:10277000873411F00C94FD232091DC0B3091DD0B9C
:102780002B31310509F488C09CF42430310534F430
:1027900022303105CCF537FF2BC0A7C224303105DC
:1027A00009F440C02531310511F40C94FF239DC27A
:1027B0002A32310509F4A0C15CF42D31310509F448
:1027C0009BC00CF489C02E31310509F499C08DC22B
:1027D0002B35310509F40DC12C35310509F40EC135
:1027E0002A35310509F081C21092E1020C94FF23D1
:1027F00080919D09813011F00C94FF230E94D375C4
:102800000E94A84E0C94FF2380919D09813011F005
:102810000C94FF232230310509F080E00E9431CF73
:102820000C94FF2380E50E94A261882329F00E9476
:10283000E17A6B017C0103C0C12CD12C760183E5C8
:102840000E94A261882361F00E94226120E030E0B2
:102850004AE754E40E9458DF0E940AE56B017C01BC
:102860000E94847386E693E00E94D7590E944B49E8
:10287000C60ED71EE81EF91E0E944B49DC01CB0193
:102880008C199D09AE09BF09B7FD02C00C94FF2346
:1028900080E00E94452DF0CF87E00E94564E8111C6
:1028A0000C94FF238CE0EFE5F2E0DE01119601903D
:1028B0000D928A95E1F780E50E94A261882321F0BC
:1028C0000E940E61862F01C080E0BE016F5F7F4FC6
:1028D0000E94A4BE0C94FF238091860B87708730E2
:1028E00011F00C94152460E08FE40E949E57811132
:1028F0000C94FF230C9415240E94AE650C94FF23C6
:1029000020912E0E30912F0E4091300E5091310EAD
:102910006091D50E7091D60E8091D70E9091D80E01
:102920000E9497E3AB01BC0188E50E94707B69833C
:102930007A838B839C832091320E3091330E4091A9
:10294000340E5091350E6091D90E7091DA0E80914F
:10295000DB0E9091DC0E0E9497E3AB01BC0189E590
:102960000E94707B6D837E838F839887BE016B5F2F
:102970007F4FCE0101960E944A62882311F40C9485
:10298000FF2380E00E9404960E948BBA61E085E4F8
:102990000E949E5701E021E041E0682FCE010196A0
:1029A0000E9424636B017C019B01AC010E94E4E660
:1029B000811119C049815A816B817C818CE993E036
:1029C0000E94399A4D815E816F81788587E993E015
:1029D0000E94399AB701A60182E993E00E94399AD0
:1029E0008AE00E94022C0E9472BA0E9469BC0C9478
:1029F000FF238FE08093E1020C94FF239BE6292EB6
:102A000092E0392E2AE7E22E2BE0F22E25ED3EE071
:102A10003BA32AA339ECC32E3EE0D32E00E010E006
:102A2000D1018D911D010E94A261882309F44BC040
:102A30000E9422612B013C01133049F0F6012081F4
:102A40003181428153810E9496E32B013C01AAA16E
:102A5000BBA12D913D914D915C91C301B2010E94AA
:102A600096E34B015C012DEB37E346E855EB0E9402
:102A7000F7E587FD0AC02DEB37E346E855E3C501CE
:102A8000B4010E94F2DE1816F4F4133051F44092AF
:102A9000E10E5092E20E6092E30E7092E40E01E0BD
:102AA00012C0A5019401F701608171818281938137
:102AB0000E9497E3D7016D937D938D939C93139719
:102AC000812F0E94D84C1F5FB4E0EB0EF11CEAA1ED
:102AD000FBA13496FBA3EAA3F4E0CF0ED11C143083
:102AE00009F09ECF002321F081EE9EE00E949573B5
:102AF0000E9469BC0C94FF2380919D09813011F0E4
:102B00000C94FF2389E40E94A261082F882321F0FE
:102B10000E941E61E82E01C0E12C8AE40E94A2619D
:102B2000182F882321F00E941E61F82E01C0F12C7D
:102B3000002319F029E02E1528F0112349F039E07F
:102B40003F1530F484EA93E00E94F3970C94FF233E
:102B500080E1E5EDFEE0A7E8BBE001900D928A95EB
:102B6000E1F7002359F08E2D0E944C656093870B8E
:102B70007093880B8093890B90938A0B112359F0E3
:102B80008F2D0E944C6560938B0B70938C0B809300
:102B90008D0B90938E0B60E080E50E949E578823FA
:102BA000C1F10023D1F020912E0E30912F0E4091D3
:102BB000300E5091310E6091870B7091880B80918F
:102BC000890B90918A0B0E9496E36093870B709318
:102BD000880B8093890B90938A0B1123D1F020915D
:102BE000320E3091330E4091340E5091350E60917B
:102BF0008B0B70918C0B80918D0B90918E0B0E94A2
:102C000096E360938B0B70938C0B80938D0B90935A
:102C10008E0B40E050E0BA0186E40E94707B6B01AD
:102C20007C0120E030E0A9010E94F7E518165CF471
:102C300020E030E040E752E4C701B6010E9491E491
:102C40006B017C0103C0C12CD12C760180901B024A
:102C500090901C02A0901D02B0901E0220E030E077
:102C6000A901C701B6010E94F2DE882341F0C0929B
:102C70001B02D0921C02E0921D02F0921E020091F3
:102C8000190210911A0284E690E090931A02809340
:102C90001902C0900902D0900A02E0900B02F09055
:102CA0000C0280E090E0A0E8BFE3809309029093DB
:102CB0000A02A0930B02B0930C020E94A84E8092CD
:102CC0001B0290921C02A0921D02B0921E02109351
:102CD0001A0200931902C0920902D0920A02E092ED
:102CE0000B02F0920C020C94FF230E9464D50C940A
:102CF000FF230091DC0B1091DD0B0B39110509F45A
:102D000050C40CF021C10936110509F45EC30CF062
:102D100054C00C34110509F40DC35CF502311105E2
:102D200009F48BC474F417FF02C00C94D52302304D
:102D300011050CF4DAC10131110509F420C20C941B
:102D4000D5230A32110509F4D8C234F40F31110524
:102D500009F429C20C94D5230033110509F4E6C205
:102D60000B34110511F00C94D5230E9456BE0C941F
:102D7000FF230335110509F458C47CF4013511050E
:102D800009F437C40CF049C40D34110511F00C944A
:102D9000D5230E948FBE0C94FF230535110509F43D
:102DA00083C40CF44AC40C35110509F4A2C40836D6
:102DB000110509F4C3C20C94D5230237110509F497
:102DC00026C5F4F40D36110509F4D8C244F40B36C7
:102DD000110509F432C30CF40CC30C94FF230F3615
:102DE000110509F448C30CF433C30037110511F47D
:102DF0000C94FF230137110509F488C30C94D523E3
:102E00000737110509F455C50CF08EC005371105BB
:102E100009F405C50CF013C50337110511F00C9426
:102E2000D52388E895E00E94F39760E088E795E075
:102E30000E944FD460E083E695E00E944FD461E0A9
:102E40008CE595E00E944FD461E081E595E00E9419
:102E50004FD461E081E495E00E944FD460E088E3C4
:102E600095E00E944FD461E08EE295E00E944FD43D
:102E700061E084E295E00E944FD460E089EC98E044
:102E80000E944FD461E08CE195E00E944FD461E054
:102E90008EE095E00E944FD460E080E095E00E94D3
:102EA0004FD460E081EF94E00E944FD460E083EE65
:102EB00094E00E944FD460E08DEC94E00E944FD4E7
:102EC00061E08CEB94E00E944FD461E08DEA94E0E5
:102ED0000E944FD460E086EA94E00E944FD460E004
:102EE00081E994E00E944FD460E083E894E00E947E
:102EF0004FD461E080E794E00E944FD460E083E625
:102F000094E00E944FD461E08EE594E00E944FD49B
:102F100061E081E594E00E944FD460E08DE394E0AD
:102F20000E944FD40C94FF230937110509F4CCC437
:102F30000CF4C2C40C38110509F412C3063911058A
:102F400009F4C9C40C94D523003981E0180711F4A1
:102F50000C948D210CF05CC00C3D110509F4D3C616
:102F600034F50B3C110509F481C58CF4083C1105BE
:102F700009F4EEC4093C110509F455C50E3B1105D1
:102F800011F00C94D5230E9485810C94FF230D3CF5
:102F9000110509F4C1C50CF48BC50E3C110509F4EB
:102FA000CEC5033D110509F4E8C50C94D5230232C2
:102FB000A1E01A0711F40C94E31F7CF4023E110502
:102FC00009F41EC70831E1E01E0709F465C70D3D8D
:102FD000110511F00C94D523BDC60E32F1E01F0788
:102FE00011F40C9446213CF40D32114011F40C9470
:102FF00053200C94D5230F3281E0180711F40C9460
:103000008A210033114011F40C94D3200C94D52361
:10301000063FA1E01A0711F40C949222A4F5043A99
:10302000E1E01E0711F40C949A2184F4023921E0A6
:10303000120711F40C94952114F40C9490210A3980
:10304000114011F40C94FF230C94D5230C3A91E019
:10305000190711F40C9433223CF4053A114011F491
:103060000C949D210C94D523043FE1E01E0711F43C
:103070000C948F22053F114011F00C94D5230E942F
:10308000CCB60C94FF230B3522E0120711F40C94FC
:10309000B62284F4083F81E0180711F40C949E22B4
:1030A00014F40C9495220835124011F40C94AF22BC
:1030B0000C94D5230C36B3E01B0711F40C94FF23BA
:1030C0003CF40335134011F40C942F230C94D523B6
:1030D000043823E0120711F40C946023073E1340D8
:1030E00011F40C94C9230C94D52380E50E94A261AD
:1030F000882329F00E94E17A6B017C0103C0C12C76
:10310000D12C760183E50E94A261882361F00E94A0
:10311000226120E030E04AE754E40E9458DF0E9438
:103120000AE56B017C010E9484738091DA0B909117
:10313000DB0B892B41F00E946E9A8091DA0B909103
:10314000DB0B0E941F2D8091DC0B9091DD0B892BF6
:1031500019F065EC73E002C06DEB73E040E082E0D3
:103160000E9497598DEC93E00E9480590E94685903
:1031700040E0C701B6010E943C310C94FF238091CE
:10318000D60B84FF02C00C94F3258091D80B87FFE7
:1031900002C00C94F3258091D90B837011F00C942C
:1031A000F3250C9410260E9407BE7B018C0120E8B9
:1031B00031E541E050E00E94F9E2C9016DE671E0BD
:1031C0000E9468E34B015C01C801B70120E13EE0C9
:1031D00040E050E00E94F9E2CA01B90128E130E084
:1031E00040E050E00E94F9E2762E672EC62ED72EE0
:1031F0008CE3282E312C412C512CC801B701A2019F
:1032000091010E94F9E2F62EE72ECA01B901A2014E
:1032100091010E94F9E2CB018E010F5F1F4F8114D3
:10322000910499F0EF92FF927F936F936F927F9248
:10323000BF92AF929F928F928FED93E09F938F9367
:103240001F930F930E94C3DE13C0A114B104B1F009
:10325000EF92FF927F936F936F927F92BF92AF92A4
:1032600083EE93E09F938F931F930F930E94C3DE8F
:103270000FB6F894DEBF0FBECDBF30C0CD2879F0B9
:10328000EF92FF927F936F936F927F9287EE93E01E
:103290009F938F931F930F930E94C3DEE9CF892BD7
:1032A00069F0EF92FF927F936F938BEE93E09F9381
:1032B0008F931F930F930E94C3DEDACFEF92FF929A
:1032C0008FEE93E09F938F931F930F930E94C3DE23
:1032D0000F900F900F900F900F900F90C8010E94C9
:1032E000CC5D0E946E9AB80183EF93E00E94579ADA
:1032F0008AE00E94022C0C94FF236DE070E080E5D0
:103300000E94AF618C0197FF02C00C94FF23E82E4E
:1033100060E089E40E949E5781110C941E26802F44
:103320000E94D329811189C50C941E260E94E75959
:103330000C94FF230E947ABE0C94FF2380913909DC
:1033400083FF02C00C94FF230E94847687FF02C093
:103350000C94FF2383E50E94A261882359F00E9408
:1033600022610E9403E5CB010E94988E61E080E01B
:103370000E9499920E94B1710C94FF2380913909A7
:1033800083FF02C00C94FF230E948476082F87FFDE
:1033900002C00C94FF2383E50E94A261F82E8111E4
:1033A0000C94552682E50E94A26181110C94552649
:1033B00010E00E94B171112311F40C94FF236F2DC2
:1033C000802F0E941A8F0C94FF230E948476182F5E
:1033D00087FD0AC08CE193E10E94F397812F0E9440
:1033E000A88E8AE00E94022C8EA58093E2020C94A3
:1033F000A92860E080E50E94825781110C94FF2388
:1034000081E40E945961882321F060910304062F12
:1034100002C00FEF10E083E50E94A261882349F00B
:103420000E940E618B016F3F710519F010F00FEFD4
:1034300010E0009303040C94FF2360E080E50E94F9
:10344000825781110C94FF23109203040C94FF23E4
:103450008EE40E94A261882311F40C94FF230E9441
:103460000E616093E10B7093E20B8093E30B9093FA
:10347000E40B0C94FF2383E50E945961882331F00B
:1034800060E083E50E948257809339090E946E9A1A
:1034900082E194E00E94F39780913909882369F1D1
:1034A00005E1E02E08E0F02E00E010E020E0809141
:1034B000390990E0A0E0B0E0002E04C0B695A795D1
:1034C000979587950A94D2F780FF0EC0DD24D39498
:1034D000D20E222319F08CE20E94022CF701859172
:1034E00094910E94F3972D2D0F5F1F4F92E0E90EEC
:1034F000F11C05301105D9F604C08AE09AE00E945B
:10350000F3978AE00E94022C0C94FF2383E50E942B
:10351000A261882381F00E946E57282F30E02D335E
:10352000310524F4809300020C94FF238CE38093F4
:1035300000020C94FF230E946E9AC0900002D12CCE
:10354000E12CF12C89E194E00E94F3974AE0C70155
:10355000B6010E94092C8AE00E94022C0C94FF23E1
:103560008091390983FF02C00C94FF2383E50E94F8
:10357000A261882311F40C94FF230E9422610E940F
:1035800003E56C3871050CF48B011093540C009317
:10359000530C0E949E9361E080E00E9499920C94EB
:1035A000FF2383E50E94A261882311F40C94FF237A
:1035B0000E946E57182F90E0CD970CF01CE31093EB
:1035C000DA020E944B496B017C01212F30E0A8EE0A
:1035D000B3E00E944DE3C60ED71EE81EF91EC0924E
:1035E000D602D092D702E092D802F092D9020C947F
:1035F000FF230E94D6930E948FBE0E9444751092B2
:10360000030468EE73E080E090E00E94579780E248
:1036100094E00E94D7590C94FF238091E1028F7DA2
:1036200080618093E1020C94FF238091E1028F7E00
:1036300080628093E1020C94FF2383E50E94A261E3
:103640008823F1F00E944B496093630C7093640CE3
:103650008093650C9093660C0E94226120E030E01C
:103660004AE754E40E9458DF0E940AE56093010291
:103670007093020280930302909304020C94FF2340
:103680008091D60B84FF02C00C9463268091D80BE6
:1036900087FF02C00C9463268091D90B837011F0D0
:1036A0000C9463260C94952683E50E945961882327
:1036B00011F40C94FF230E944B496093630C7093A8
:1036C000640C8093650C9093660C0E94226120E04C
:1036D00030E04AE754E40E9458DF0E940AE5609314
:1036E000DB027093DC028093DD029093DE020C9487
:1036F000FF230E94847687FF02C00C94FF239091E1
:10370000D60B94FD04C09091D80B97FF0AC0BBE67E
:10371000CB2EB2E0DB2E1AE3E12E19E0F12E10E001
:103720000AC09091D90B937091F7682F81E00E94A5
:10373000A67A0C94FF23D6018D916D010E94A2619F
:10374000882309F459C0133009F04FC00E94226148
:103750004B015C0120E030E040EA51E40E94F2DEDF
:1037600087FF3AC0A501940160915A0970915B09E5
:1037700080915C0990915D090E9491E42B013C01CC
:103780009B01AC0160916A0970916B0980916C0991
:1037900090916D090E9458DF60936A0970936B09DC
:1037A00080936C0990936D096091F7037091F80311
:1037B0008091F9039091FA030E94F7DEA301920130
:1037C0000E9458DF0E940AE56093F7037093F803A4
:1037D0008093F9039093FA0380925A0990925B09BF
:1037E000A0925C09B0925D0907C00E942261F701B6
:1037F000648B758B868B978B1F5FF4E0EF0EF11C4B
:10380000143009F098CF0E9467720C94FF230E9435
:10381000FFD489E79FE00E945FC60C94FF2380914C
:10382000DA0B9091DB0B009711F40C94FF23DC0171
:103830002C91222309F4E3C70E94CC5DE0C70091DC
:10384000DA0B1091DB0B94E0F12C40E0915021F168
:10385000F8018081282F2B7F213421F4218121330D
:10386000D9F407C08035C1F4818180538A3048F093
:1038700013C0813421F0853421F441E002C0FF24DB
:10388000F39498012E5F3F4F89012F5F3F4FF8015E
:1038900080818032C9F3DACF41110E946E9AFF20F5
:1038A00021F08FE796E00E94F397C8010E941F2D38
:1038B000A6C70E94FEBCA3C781E0809399098093AC
:1038C00098090E9453BD9BC71092990910929809BC
:1038D0000E9453BD94C782E40E945961882351F02D
:1038E0008091DF029091E002892B31F00E946E57A7
:1038F000182F03C010E001C01FEF85E50E94596139
:10390000882351F08091DF029091E002892B31F001
:103910000E946E57082F03C000E001C00FEF82E540
:103920000E945961882349F08091DF029091E00262
:10393000892B29F00E946E5703C080E001C08FEFF1
:1039400089830A831B83CE0101960E94165857C7AC
:103950000E948476182F87FD52C70091440E84E49C
:103960000E94A261882311F40C9498260E9422617F
:103970006B017C0120E030E0A9010E94F2DE882387
:1039800009F44BC024E01202F0011124E05CF14F75
:10399000C082D182E282F38220E030E0A901C70137
:1039A000B6010E94F7E51816D4F420E030E040E0BC
:1039B0005FE3C701B6010E9458DF9B01AC010E9482
:1039C00058DF2BED3FE049E450E40E9458DF60935C
:1039D000050270930602809307029093080220E08C
:1039E00030E0A9016091400E7091410E8091420E2D
:1039F0009091430E0E94F2DE81110CC080E090E0B5
:103A0000A0EEBFE38093400E9093410EA093420E30
:103A1000B093430E01E00C94982680E08093440E0E
:103A20000E94544AECC60E94847687FDE8C6ABE645
:103A3000EA2EA2E0FA2E0AE319E0D7018D917D016A
:103A40000E945961882359F00E9422610E940AE570
:103A5000F80160837183828393830E94F0710C5F0D
:103A60001F4FF9E00A341F0741F7C9C60E94847648
:103A700087FDC5C6EBE6EE2EE2E0FE2E0AE319E076
:103A8000FAE4CF2EF9E0DF2ED7018D917D010E945F
:103A90005961882339F00E942261F80164A375A35B
:103AA00086A397A30C5F1F4FC016D10669F7A7C660
:103AB0008091D70B87FF02C00C949E268091D80B73
:103AC0008E7011F00C949E2640916E0950916F09F2
:103AD000609170097091710983E896E00E94399AAB
:103AE0004091720950917309609174097091750940
:103AF0008BE791E20E94399A4091760950917709BB
:103B000060917809709179098AE692E10E94399A68
:103B10008AE00E94022C73C68091D60B81FF02C0FE
:103B20000C94E4268091D70B81FF02C00C94E4260C
:103B30008091D80B8C7011F00C94E42660C67EE95D
:103B4000E72E79E0F72E10E088E5810F0E94596199
:103B5000882359F00E942261D7016D937D938D9344
:103B60009C931397812F0E94D84C1F5FB4E0EB0EFB
:103B7000F11C133049F70C9478154090C90E509001
:103B8000CA0E6090CB0E7090CC0E20912D02309119
:103B90002E0240912F0250913002C301B2010E94C7
:103BA00097E36AA37BA38CA39DA38090CD0E9090F6
:103BB000CE0EA090CF0EB090D00E20913102309159
:103BC00032024091330250913402C501B4010E9487
:103BD00097E36EA37FA388A799A7C090D10ED0903A
:103BE000D20EE090D30EF090D40E20913502309199
:103BF00036024091370250913802C701B6010E9447
:103C000097E36AA77BA78CA79DA7209139023091E3
:103C10003A0240913B0250913C02C301B2010E9422
:103C200097E32B013C0120913D0230913E024091EF
:103C30003F0250914002C501B4010E9497E34B013D
:103C40005C01209141023091420240914302509127
:103C50004402C701B6010E9497E36B017C010E94F8
:103C60006E9A82EC96E00E94F39783E50E94596178
:103C7000882321F00E948E5780935502809155022F
:103C8000882319F080E593E002C084E895E00E9463
:103C9000F3978AEB96E00E94F3974AA15BA16CA18F
:103CA0007DA18CED93E20E94399A4EA15FA168A597
:103CB00079A583E094E20E94399A4AA55BA56CA598
:103CC0007DA581E097E00E94399A80EA9DE10E94FB
:103CD000F39782EB96E00E94F397B301A2018CED7B
:103CE00093E20E94399AB501A40183E094E20E9414
:103CF000399AB701A60181E097E00E94399A8AE0DB
:103D00000E94022C7CC583E50E94A261882331F0C9
:103D10000E941E6190931A02809319028091D60B23
:103D20009091D70BA091D80BB091D90B892B8A2BEE
:103D30008B2B09F064C56091190270911A0282ED13
:103D400096E00E944A9A85E20E94022C8AE00E9434
:103D5000022C55C50E948476F82E87FD50C583E558
:103D60000E94A2610F2D0F2C000C110B882369F10A
:103D70000E941E61F801EE0FFF1FE15EFD4F91836F
:103D80008083000F111F000F111FF801E75FFD4F27
:103D90007F01BC01990F880B990B0E94F9DE2AE084
:103DA00037ED43E25CE30E9458DFF801E956F44F37
:103DB00020813181428153810E9458DFD7016D9368
:103DC0007D938D939C9313971AC50E946E9A85E4F8
:103DD0000E94022C80E38F0D0E94022C000F111F05
:103DE000F801E15EFD4F6081718186ED96E00E94F1
:103DF0004A9A85E20E94022C8AE00E94022CFFC4AB
:103E000080E50E945961882309F4F9C460E070E0FC
:103E100080E50E94AF61F82E6FEF7FEF83E50E948F
:103E2000AF618C010196039708F0E9C4F7FCE7C481
:103E30008F2D0E94D329882339F00E946A9A8EED33
:103E400096E00E94F397DBC40E94847360E08F2D9C
:103E50000E940C480F3FBFEF1B0731F001301105E6
:103E600071F000E010E00DC08F2D0E94B44731E0EA
:103E700020E0892B09F030E0032F122F02C001E06F
:103E800010E08F2D0E94B4478017910709F4B7C442
:103E900080E00E94452DF5CF80E50E94596188237E
:103EA00009F4ADC40E941E618C01892B09F07FC00A
:103EB00083E50E945961882389F00E941E618F3F2B
:103EC000EFEF9E0729F48DE49FE00E94F82997C444
:103ED000BC018DE49FE00E94B82A91C40E946E9AB2
:103EE00060E070E08DEE96E00E944A9A80914F0F5C
:103EF00028E532E06901C81AD10887FDD394CC0CBB
:103F0000DD1CCC0CDD1C0D2C000CEE08FF08809194
:103F10004E0F28E830E04901881A910887FD9394F4
:103F2000880C991C880C991C092C000CAA08BB0849
:103F300080914D0F8F3FC1F090E0FC01EE0FFF1F0D
:103F40008E0F9F1FFC01EC5FF04F2181328183E0D7
:103F5000220F331F8A95E1F794E0369527959A95BD
:103F6000E1F72E5F3F4F02C020E030E02F5F3F4F70
:103F7000C901330FAA0BBB0B9C01AD0128193909EC
:103F80004A095B09A4EBB0E00E943AE3A70196015D
:103F9000281939094A095B090E941BE3B90188E223
:103FA00095E20E944A9A8AE00E94022C28C40E944C
:103FB0006A9AB8018EEE96E00E944A9A8EEA93E0E1
:103FC0000E94F3971CC48AE50E94A261811106C079
:103FD00083E50E94A261882309F44AC00E942261FD
:103FE00020E030E040E050EC0E94F2DE87FD75C733
:103FF0000E94226120E030E040E050E40E94F7E5BA
:1040000018160CF464C70E9422616B017C0184E0E5
:104010000E94434E811122C02091560930915709C8
:104020004091580950915909C701B6010E9458DFC3
:104030000E9403E52091E3023091E402260F371F2E
:104040003093E4022093E3022091490C30914A0C12
:10405000620F731F70934A0C6093490C80E50E94B5
:104060005961882309F43FC70E948E5781113BC7CD
:104070008091D80B87FD5DC78091D90B837009F0C3
:1040800058C70E946E9A4091360E5091370E60913B
:10409000380E7091390E85EF96E00E94399A8AE0C9
:1040A0000E94022CACC360E085E40E94825781111B
:1040B00073C080E50E945961882351F00E942261FB
:1040C0006093F60E7093F70E8093F80E9093F90EAE
:1040D00089E40E945961882381F00E9422612CEAC0
:1040E00035EC47E25EE30E9458DF6093FA0E70936E
:1040F000FB0E8093FC0E9093FD0E84E40E945961A8
:10410000882381F00E9422612CEA35EC47E25EE3CD
:104110000E9491E46093FE0E7093FF0E8093000F57
:104120009093010F0E946E9A4091F60E5091F70EF7
:104130006091F80E7091F90E8CE097E00E94399A28
:104140002CEA35EC47E25EE36091FA0E7091FB0ECB
:104150008091FC0E9091FD0E0E9491E4AB01BC0198
:1041600088E097E00E94399A2CEA35EC47E25EE35A
:104170006091FE0E7091FF0E8091000F9091010FE3
:104180000E9458DFAB01BC0184E097E00E94399A9D
:104190008AE00E94022C33C30E946A9A80E197E071
:1041A0000E94F3972CC380E50E945961882351F047
:1041B0000E9422616093560C7093570C8093580CA8
:1041C0009093590C89E40E945961882381F00E94E0
:1041D00022612CEA35EC47E25EE30E9458DF6093EF
:1041E0005A0C70935B0C80935C0C90935D0C84E490
:1041F0000E945961882381F00E9422612CEA35ECEB
:1042000047E25EE30E9491E460935E0C70935F0C62
:104210008093600C9093610C0E946E9A4091560CB2
:104220005091570C6091580C7091590C8CE097E0AC
:104230000E94399A2CEA35EC47E25EE360915A0C11
:1042400070915B0C80915C0C90915D0C0E9491E4EC
:10425000AB01BC0188E097E00E94399A2CEA35EC6A
:1042600047E25EE360915E0C70915F0C8091600CA0
:104270009091610C0E9458DFAB01BC0184E097E093
:104280000E94399A8AE00E94022CB9C283E50E94FA
:104290005961182F882371F00E9422610E9403E562
:1042A00070930E0260930D0221E0672B09F020E06D
:1042B0002093140480E50E945961882359F02091CD
:1042C0000D0230910E02232B11F00E948E57809325
:1042D000140495C2111193C20E946E9A8BE397E069
:1042E0000E94F39780911404882319F083EC94E2E0
:1042F00002C082E297E00E94F39760910D027091F4
:104300000E028AE297E00E944A9A86E297E00E94B3
:10431000F39775C20E94877B72C20E9484736FC23A
:104320000E9440620E9469BC6AC20E9437620E9479
:1043300069BC65C20E94D95D62C26FEF7FEF89E4FC
:104340000E94AF61B82E6FEF7FEF8AE40E94AF61E9
:10435000182F83E40E945961E82E8EE40E9459616F
:10436000C82E8AE50E945961F82E811105C081E5A9
:104370000E945961D82E01C0D12CEE2081F020E09E
:1043800030E040E065ED7EE081E00E9427AD2983CA
:104390003A834B835C836D837E83032F02C0012F9E
:1043A0002B2D8E2D90E0B7FC05C01095111F112705
:1043B000111F01C010E0810F911D019731F4F11020
:1043C0000BC0D11009C0C11007C00E946A9A8EE4C8
:1043D00097E00E94F39713C22A3010F40A3038F0A5
:1043E0000E946A9A84EA93E00E94F39708C2E22E40
:1043F000220FFF08002E000C110BC1101DC00E94DF
:104400002261DD2099F02AE02E9DF0012F9DF00D14
:104410001124E00FF11FEE0FFF1FEE0FFF1FEE56EE
:10442000F34F208131814281538103C020E030E08D
:10443000A9010E9497E304C060E070E080EC9FE770
:104440002AE02E9DF0012F9DF00D1124E00FF11FA9
:10445000EE0FFF1FEE0FFF1FEE56F34F60837183C9
:1044600082839383CCC187E00E94564E8111C7C1DD
:1044700009EE11E125ED3EE03BA32AA3CE01019612
:104480001C014AE5C42E4EE0D42E7C01C8010E94D6
:104490006857AAA1BBA18D909D90AD90BD90BBA384
:1044A000AAA3A50194010E9496E32B013C01F70108
:1044B000608371838283938320E030E040EA51EC93
:1044C0000E94F7E587FD0AC020E030E040EA51E4B1
:1044D000C301B2010E94F2DE18162CF4F601849199
:1044E00018160CF42CC5D7018D909D90AD90BD9001
:1044F0007D0120E030E040EA51ECC501B4010E94AA
:10450000F7E587FD4FC520E030E040EA51E4C50102
:10451000B4010E94F2DE18160CF01CC543C50E94BF
:10452000396C6DC10E9487B46AC161E083E50E9465
:104530009E5791E089270E94DAB661C181E080939D
:10454000910C0E9487A21092910C882309F457C104
:104550000E946E9A8CE997E00E94F39750C10E94E6
:10456000847687FD4CC10E94AD7649C10E94847655
:10457000082F87FD44C185E50E9459618823B1F168
:10458000E02E002E000CFF080E9422614B015C010E
:1045900020E030E0A9010E94F7E587FF04C0B7FAE8
:1045A000B094B7F8B094C70123E0880F991F2A95FB
:1045B000E1F79C012A5D314F7901D9018D929D92DD
:1045C000AD92BC92139720E030E048E453E4C5017B
:1045D000B4010E94F7E518164CF480E090E0A8E4DE
:1045E000B3E4F70180839183A283B3838CE40E94B8
:1045F0005961882309F403C1002E000C110B0E949D
:1046000022616B017C0120E030E0A9010E94F7E506
:1046100087FF04C0F7FAF094F7F8F09420E030E058
:1046200048E453E4C701B6010E94F7E5980193E01E
:10463000220F331F9A95E1F7F901EA5DF14F181641
:104640002CF0C482D582E682F782D9C080E090E067
:10465000A8E4B3E484839583A683B783D0C0809114
:10466000D80B87FDA6C48091D90B837009F0A1C433
:1046700040912E0E50912F0E6091300E7091310EA0
:104680008FED97E00E94399A4091320E5091330E8F
:104690006091340E7091350E83E094E20E94399A55
:1046A0004091360E5091370E6091380E7091390E50
:1046B00081E097E00E94399A8AE00E94022C9FC014
:1046C000A0901504B0901604C0901704D090180460
:1046D0008BE40E94A261882339F10E9422617B0150
:1046E0008C0120E030E0A9010E94F7E587FD0AC0B7
:1046F00020E030E040E251E4B701C8010E94F2DE60
:104700001816A4F48FE30E94022C8BE40E94022C62
:1047100086EF97E00E94F3978EEE97E00E94F39762
:104720008EE090E10E94F397750186019701A80140
:10473000B501C6010E94F2DE882361F00E948473F5
:10474000C701D8018093150490931604A093170411
:10475000B09318048091D60B9091D70BA091D80BF1
:10476000B091D90B892B8A2B8B2B09F048C00E9462
:104770006E9A40911504509116046091170470913F
:1047800018048AE098E00E94399A8AE00E94022C7C
:1047900036C081E080939D0960E083E50E949E57CA
:1047A00081112DC00E9457832AC00E9464D527C062
:1047B0000091DC0B1091DD0B0E944B496093630C60
:1047C0007093640C8093650C9093660C0023B9F091
:1047D0000E946E9A84E50E94022CB8017727072E6A
:1047E000000C880B990B0E94762C80E20E94022C10
:1047F00080E197E00E94F39702C00E9464D5F8A977
:10480000F1110FC0E0912C0BF0E0E757F04F8081E1
:10481000882339F08CE193E10E94F3978AE00E94AB
:10482000022C2EA52093E20294C40E94847330913E
:104830003F0E3FA780E00E9404960E944B49609380
:10484000630C7093640C8093650C9093660C0E94CB
:104850008BBA81E0809399090E9453BD8AE50E943A
:104860005961E82E8823A1F081E00E94434E182F61
:1048700082E00E94434E01E0811101C000E011116D
:1048800009C088E50E945961F82E811103C0A3C1B7
:1048900000E0F7CF002309F494C1E012A0C111E0B9
:1048A000FF24F39431E03AA782E50E94A2618823B5
:1048B00019F00E94226104C060E070E080EA90E498
:1048C0006E8F7F8F88A399A320E030E0A9010E941A
:1048D000F2DE882361F0F11006C0111104C08AA530
:1048E000882309F460C1CE014E960E945247FF20F2
:1048F00009F4D3C0112309F4CDC01092D50E109243
:10490000D60E1092D70E1092D80E1092D90E109289
:10491000DA0E1092DB0E1092DC0E0E9467BCEAE504
:10492000FEE0949199AB8DED91E10E9468576B0187
:104930007C0181EE91E10E9468574B015C019B0173
:10494000AC01C701B6010E94F7E518162CF4A701C7
:104950009601C501B40104C0A5019401C701B601C7
:104960000E9491E42B013C01E3E4FEE085919591E6
:10497000A591B4918AA39BA3ACA3BDA3EFE3FEE0F2
:1049800085919591A591B4918EA39FA3A8A7B9A74E
:104990009C01AD016AA17BA18CA19DA10E94F7E5BC
:1049A000181634F42EA03FA008A599A59AA305C017
:1049B0002AA03BA00CA1ADA1AAA3A3019201C3010F
:1049C000B2010E9458DF20E030E040E85FE30E943F
:1049D00097E30E9495E69101402F5AA10E9458DF6B
:1049E0006A8F7B8F8C8F9D8FEBE5FEE0049120E03A
:1049F00030E040EC5FE3C501B4010E9458DF4B0199
:104A00005C01602F000F770B880B990B0E94F9DE79
:104A10009B01AC01C501B4010E9458DF69837A8310
:104A20008B839C8320E030E040EC5FE3C701B6015C
:104A30000E9458DF6B017C01B9A96B2FBB0F770B6C
:104A4000880B990B0E94F9DE9B01AC01C701B601EE
:104A50000E9458DF6E8B7F8B888F998FAE01465EE8
:104A60005F4FBE016F5F7F4FCE0146960E9467BBCE
:104A70000E9462BD1092D50E1092D60E1092D70EE3
:104A80001092D80E1092D90E1092DA0E1092DB0E00
:104A90001092DC0E80E00E94F84C112319F081E0A6
:104AA0000E94F84CEAA5EE2309F47DC080E00E9444
:104AB000CAC783E00E94564E811175C00E9467BC30
:104AC000C090DD0ED090DE0EE090DF0EF090E00E94
:104AD00020912E0E30912F0E4091300E5091310EBC
:104AE00060E070E086E193E40E9496E36093870BB8
:104AF0007093880B8093890B90938A0B2091320ED0
:104B00003091330E4091340E5091350E60E070E0DC
:104B100086E193E40E9496E360938B0B70938C0B79
:104B200080938D0B90938E0B2091360E3091370E23
:104B30004091380E5091390EC701B6010E9496E39C
:104B400060938F0B7093900B8093910B9093920BCB
:104B500087E89BE00E94A5958823D9F01E8A1F8ACA
:104B6000188E198E88E0E7E8FBE0DE0111960190CF
:104B70000D928A95E1F7AE014A5E5F4FBE016B5F11
:104B80007F4FCE0101960E9467BB82E00E94F84CE5
:104B90000AC081E893E00E94D7590E946E9A8FE67E
:104BA00093E00E94F3970E9467BC809198098093DC
:104BB00099098FA50E9404960E9472BA0E9469BC4E
:104BC0001ECE01E089E50E945961182F801709F473
:104BD00064CEF02E06C00023A9F3102F02C0102FC0
:104BE000F02EEAA661CE88E50E94596181115F9896
:104BF00089E50E94596181118A988AE50E9459616C
:104C0000882331F0809108018170809306014798D4
:104C100085E40E945961882309F4F1CD1298EFCD03
:104C200086ED93E00E94D7595F988A988091080199
:104C300081708093060147981298E1CD8DE40E941F
:104C4000A2618823A9F00E946E57813039F020F0CC
:104C5000823049F462E003C060E001C061E0802F6F
:104C60000E940C4805C080E094E00E94F397C7CDF5
:104C700083E50E94A261882309F4C1CD0E946E578A
:104C8000F82E39E0E31203C080930304B8CD61E04D
:104C9000802F0E940C486F2D802F0E94DD476F2DC2
:104CA00070E0802F0E944848AACD0E9422610E9495
:104CB00003E5CB010E94988E61E081E00E94999209
:104CC00011E00C94D9190E94847388E50E945961FF
:104CD000882331F05F9A80919B098E7F80939B0996
:104CE00089E50E945961882331F08A9A80919B0955
:104CF0008D7F80939B098AE50E945961882361F02A
:104D0000809108018095817080930601479A809177
:104D10009B098B7F80939B0985E40E9459618823BE
:104D200009F46DCD0E9489296ACD0E94447567CD32
:104D3000602F83E50E949E570C940E1D83E50E9410
:104D4000A261882391F00E94226160936E097093A2
:104D50006F0980937009909371096093760970933D
:104D60007709809378099093790980E50E94A26180
:104D7000882351F00E94226160936E0970936F093D
:104D8000809370099093710982E50E94A261882343
:104D900051F00E94226160937209709373098093AD
:104DA00074099093750984E50E94A261882309F42F
:104DB00026CD0E94226160937609709377098093D3
:104DC0007809909379091BCD82E40E945961882368
:104DD00051F00E94E17A60934A0970934B098093E5
:104DE0004C0990934D0983E50E945961882351F045
:104DF0000E94226160937A0970937B0980937C09F9
:104E000090937D0984E50E945961882351F00E94A6
:104E1000226160937E0970937F098093800990934B
:104E200081098AE40E945961882309F4E8CC0E9430
:104E300022616B017C012AE037ED43E25CE30E94D2
:104E4000F7E587FD3DC02AE939E949E95EE3C70195
:104E5000B6010E94F2DE18169CF1C092E703D092D0
:104E6000E803E092E903F092EA0360913A09709155
:104E70003B0980913C0990913D090E94F7DE4B016E
:104E80005C0123EF34E045E35FE3C701B6010E9414
:104E900058DF2AE136EF45E95EE30E9491E49B0189
:104EA000AC01C501B4010E9458DF0E9495E66093F1
:104EB000FF037093000480930104909302049FCC3D
:104EC0000E946A9A83E996E00E94F39798CCC12CDD
:104ED000D12CE12C10E4F12E9AC8C12CD12CE12C5C
:104EE000B0ECFB2E94C8A70196016091360E70912C
:104EF000370E8091380E9091390E0E9497E360939F
:104F0000360E7093370E8093380E9093390E0E94B0
:104F10006E9A4091360E5091370E6091380E709116
:104F2000390E85EF96E00E94399A8AE00E94022CA1
:104F30009FC882E50E9459618111A3C860CCB7FA6D
:104F4000B094B7F8B094D7018D929D92AD92BC9277
:104F50001397C9CA0C5F1F4FBFEFCB1ADB0AE1E101
:104F6000053F1E0709F092CA3EE9E32E39E0F32E11
:104F700010E0F10181919191A191B1911F01F7018F
:104F800081939193A193B1937F01812F0E94D84C7B
:104F90001F5F133071F70E9469BC8EE697E00E9494
:104FA000D7592DCC0E946A9A8EE797E00E94F3971A
:104FB00026CCF0912E0EFAA380902F0E7090300E1A
:104FC0006090310E5090320E4090330E3090340E7F
:104FD0002090350EC090360ED090370EE090380EEF
:104FE000F090390E88E50E94A261882361F10E9449
:104FF00022615B018C0120E030E046E953EC0E9425
:10500000F7E587FD0AC020E030E046E953E4B5014A
:10501000C8010E94F2DE181694F46CE271E08CEC88
:1050200097E00E944A9A6CE271E08DE990E10E945B
:105030004A9A8BE79BE00E94F39710E005C0AAA272
:105040008B2C702E612E11E089E50E94A2618823CD
:1050500081F10E942261962EA72EB82E092F20E002
:1050600030E046E953EC0E94F7E587FD0CC020E0F4
:1050700030E046E953E4692D7A2D8B2D902F0E9464
:10508000F2DE181694F46CE271E089EB97E00E946E
:105090004A9A6CE271E08DE990E10E944A9A8BE7AE
:1050A0009BE00E94F39710E004C0592C4A2C3B2C43
:1050B000202E8AE50E94A261882339F10E94226194
:1050C0006B017C0120E030E040EA51EC0E94F7E502
:1050D00087FD0AC020E030E040EA51E4C701B60194
:1050E0000E94F2DE18168CF46CEE7FEF87EA97E0F0
:1050F0000E944A9A64E170E08DE990E10E944A9A28
:105100008BE79BE00E94F3977ACB112309F477CBCE
:105110008AA1982DA72DB62D80932E0E90932F0E39
:10512000A093300EB093310E852D942DA32DB22D6A
:105130008093320E9093330EA093340EB093350EBD
:10514000C092360ED092370EE092380EF092390EA1
:1051500056CBE1960FB6F894DEBF0FBECDBFDF9100
:10516000CF911F910F91FF90EF90DF90CF90BF9064
:10517000AF909F908F907F906F905F904F903F90F7
:105180002F900895CF92DF92EF92FF920F931F938B
:10519000CF93DF936C018B017A01EC01CC50DD4F92
:1051A000888187FF04C0FB011182108224C02CE09B
:1051B0002C9DC0012D9D900D11242881AC01420F22
:1051C000511D27FD5A9520914C0F30E0421753078F
:1051D00094F42881AC01420F511D27FD5A959A0184
:1051E000FA01EE0FFF1F2E0F3F1FF901EC5FF04F8A
:1051F000208127FD19C088818F5F88832CE02C9D3A
:10520000C0012D9D900D11242881AC01420F511D2C
:1052100027FD5A9520914C0F30E042175307BCF4FC
:1052200028812C3044F113C02881820F911D27FD65
:105230009A95FC01EE0FFF1F8E0F9F1FFC01EC5F84
:10524000F04F808160E08F770E94DD47D4CFF80176
:1052500080819181049680349C4918F480E49CE913
:1052600004C0F801808191810496F70191838083C5
:105270008FEF888345C0F801408151812881BC01AE
:10528000620F711D27FD7A959B01FB01EE0FFF1F39
:105290002E0F3F1FF901EC5FF04F21813281240F67
:1052A000351FF701318320832881AC01420F511D46
:1052B00027FD5A959A01FA01EE0FFF1F2E0F3F1F8F
:1052C000F901EC5FF04F208127FF1AC02881820F7F
:1052D000911D27FD9A95FC01EE0FFF1F8E0F9F1F5A
:1052E000FC01EC5FF04F808161E08F77DF91CF911F
:1052F0001F910F91FF90EF90DF90CF900C94DD47BE
:10530000DF91CF911F910F91FF90EF90DF90CF90A1
:105310000895129A08955F9A80919B098E7F8093D9
:105320009B098A9A80919B098D7F80939B0980912C
:1053300008018095817080930601479A80919B09AE
:105340008B7F80939B090C948929C42F0E94D6934C
:105350000E946A9A8EE09AE00E94F39761E085E0ED
:105360009AE00E94EAC689EE93E030E6019729F0C0
:10537000232F2A950000E9F7F9CFF89489EE93E0FE
:1053800038EE019729F0232F2A950000E9F7F9CF8D
:105390000E94D693CC2319F00E948B2902C00E9450
:1053A0008929A895FECFFF920F931F93CF93DF9388
:1053B0001F92CDB7DEB7F82E0EE21AE041E050E0C2
:1053C000B801CE0101960E9465DE89818F1102C06D
:1053D00081E007C00F5F1F4F8AE00A34180771F79A
:1053E00080E00F90DF91CF911F910F91FF90089572
:1053F000DC01EC91F0E0CF01880F991FE80FF91F55
:10540000EC5FF04F80818F77808308958F929F9219
:10541000AF92BF92CF92DF92EF92FF920F93CF9312
:10542000DF931F92CDB7DEB75C016B017A014901B2
:10543000F501808191810E94D3E28983002311F0DC
:10544000F6018083BE016F5F7F4FC4010E94E7D4E5
:10545000F50180819181019691838083FFEFCF1ABE
:10546000DF0A81E0E81AF10819F780E00F90DF9178
:10547000CF910F91FF90EF90DF90CF90BF90AF90C2
:105480009F908F9008957F928F929F92AF92BF923C
:10549000CF92DF92EF92FF920F931F93CF93DF9300
:1054A0001F92CDB7DEB77C0159018B016B01C40E91
:1054B000D51E0C151D0559F1F70180809180F8016A
:1054C00071908F017982C4010E94D3E2781691F025
:1054D000672DC4010E94DBE2C4010E94D3E29981DE
:1054E000891741F00E946E9A8CEE98E00E94F39723
:1054F00081E00EC0BE016F5F7F4FC5010E94E7D4FF
:10550000F70180819181019691838083D2CF80E0E1
:105510000F90DF91CF911F910F91FF90EF90DF904F
:10552000CF90BF90AF909F908F907F9008950097FD
:1055300081F41092900082E0809391001092950087
:1055400010929400C19A80917100826080937100E2
:105550000895019761F41092A00082E08093A10069
:105560001092A5001092A40089BB80937200089548
:105570007F928F929F92AF92BF92CF92DF92EF92E3
:10558000FF920F931F93CF93DF93FC01908198318B
:1055900008F0CEC06B017F01892F90E0FC01EE0F77
:1055A000FF1F8E0F9F1FFC01EC5FF04F808161E0B9
:1055B0008F770E940C48F7011182128280816CE083
:1055C0000E945CE3FCE08F9FB001112440E050E0BA
:1055D0009B01240F351FF901EE0FFF1F2E0F3F1FF8
:1055E000F901EC5FF04F908197FD08C04F5F5F4F6E
:1055F0004C30510569F790E00E94972AF7017080BE
:10560000C72DD0E08E01000F111FF801EC0FFD1F18
:10561000EC5FF04F80818068808377FC89C0F0E286
:10562000CF16F2E0DF060CF041C0F701828128E5D9
:1056300032E0281B310987FD3395220F331F220FDB
:10564000331F032E000C440B550B818168E870E07A
:105650004B01881A910887FD9394880C991C880C3B
:10566000991C092C000CAA08BB08D7FC0BC0B6017A
:10567000653B710514F064EB70E0072E000C880B9D
:10568000990B03C060E070E0CB01281939094A0981
:105690005B090E94E9E224EB30E040E050E00E9428
:1056A0001BE3820E931EA41EB51E01C04601F7E146
:1056B000F71558F1F701218188E890E0821B9109E4
:1056C00027FD9395880F991F880F991F88169906B3
:1056D00084F0F701228188E592E0821B910927FD81
:1056E0009395880F991F880F991F881699060CF4B7
:1056F000C40102972FB7F894C00FD11FCC5FD04FD1
:10570000880F991F9A8389832FBF62E370E080E03E
:1057100090E0DF91CF911F910F91FF90EF90DF907C
:10572000CF90BF90AF909F908F907F900C945797A1
:10573000DF91CF911F910F91FF90EF90DF90CF906D
:10574000BF90AF909F908F907F9008951F920F927F
:105750000FB60F9211240BB60F922F933F934F93D6
:105760005F936F937F938F939F93AF93BF93EF93C9
:10577000FF9348EA50E064EA70E081E090E00E9424
:10578000C228FF91EF91BF91AF919F918F917F912F
:105790006F915F914F913F912F910F900BBE0F90A2
:1057A0000FBE0F901F9018951F920F920FB60F9279
:1057B00011240BB60F922F933F934F935F936F93E8
:1057C0007F938F939F93AF93BF93EF93FF9348E99A
:1057D00050E064E970E080E090E00E94C228FF9110
:1057E000EF91BF91AF919F918F917F916F915F9159
:1057F0004F913F912F910F900BBE0F900FBE0F90C6
:105800001F9018959091C00095FFFCCF8093C60023
:1058100008958F929F92AF92BF92EF92FF920F9353
:105820001F93CF93DF93CDB7DEB7A0970FB6F89451
:10583000DEBF0FBECDBF611571058105910591F1E8
:1058400000E0842E912CA12CB12C102FEE24E39497
:10585000F12CEC0EFD1EE00EF11C07FDFA94A501E3
:1058600094010E94F9E2F7016083B901CA010F5F58
:10587000611571058105910541F71F3F31F1E1E0A7
:10588000F0E0EC0FFD1FE10FF11D17FDFA9580818F
:105890008A3010F097E301C090E3890F0E94022C38
:1058A0001150EBCF80E3A0960FB6F894DEBF0FBE89
:1058B000CDBFDF91CF911F910F91FF90EF90BF90DF
:1058C000AF909F908F900C94022CA0960FB6F894F6
:1058D000DEBF0FBECDBFDF91CF911F910F91FF9023
:1058E000EF90BF90AF909F908F900895CF92DF92EE
:1058F000EF92FF926B017C0197FF0BC08DE20E943B
:10590000022CF094E094D094C094C11CD11CE11CF2
:10591000F11C4AE0C701B601FF90EF90DF90CF90F5
:105920000C94092CAB01672B11F40C94022CBC01D4
:10593000990F880B990B4A30510511F40C94762C71
:105940000C94092C8F929F92AF92BF92CF92DF92CC
:10595000EF92FF92CF936B017C01B42E20E030E0F8
:10596000A9010E94F2DE87FF07C08DE20E94022C8F
:10597000F7FAF094F7F8F094C0E060E070E080E0AF
:105980009FE3CB1541F02DEC3CEC4CEC5DE30E9429
:1059900058DFCF5FF6CF9B01AC01C701B6010E9473
:1059A00097E36B017C010E940AE54B015C014AE030
:1059B0000E94092CCC2389F1C501B4010E94F7DEB5
:1059C0009B01AC01C701B6010E9496E36B017C010B
:1059D0008EE20E94022C20E030E040E251E4C70158
:1059E000B6010E9458DF4B015C010E9403E56B0188
:1059F000770FEE08FF08C701B6010E94762CC70199
:105A0000B6010E94F9DE9B01AC01C501B4010E9400
:105A100096E36B017C01C150F1F6CF91FF90EF90BE
:105A2000DF90CF90BF90AF909F908F9008950C948F
:105A3000A22C8DE00E94022C8AE00C94022CCF93C1
:105A4000DF93EC018991882319F00E94022CFACF90
:105A5000DF91CF910C94192DE6EFF2E080818183E4
:105A600008958091F6029091F702981759F0E92F66
:105A7000F0E0EA50FD4F82819F5F9F779093F7029D
:105A800090E008958FEF9FEF08952F923F924F92ED
:105A90005F926F927F928F929F92AF92BF92CF92BE
:105AA000DF92EF92FF920F931F93CF93DF93CDB7C7
:105AB000DEB728970FB6F894DEBF0FBECDBF182F04
:105AC00080912D0B843008F03BC180E6F82E01E078
:105AD00080912D0B843008F033C18091F6029091B3
