:100000000C94B4210C94E5210C94E5210C94E52189
:100010000C94E5210C94E5210C94E5210C94E52148
:100020000C94E5210C94E5210C94E5210C94E52138
:100030000C94E5210C94E5210C94E5210C94E52128
:100040000C94E5210C943FD60C94E5210C94E52109
:100050000C94E5210C94E5210D9443130D948F111C
:100060000C94E5210C94B9420C9484420C94E52143
:100070000C94E5210C94E5210C94E5210C94E521E8
:100080000C94493B0C94E5210C94E5210C94E5215A
:100090000C94E5210C94E5210C94E5210C94E521C8
:1000A0000C94E5210C94E5210C941B3B0C94E52168
:1000B0000C94E5210C94E5210C94E5210C94E521A8
:1000C0000C94E5210C94E5210C94E5210C94E52198
:1000D0000C94E5210C94E5210C94E5210C94E52188
:1000E0000C94E521EF420143134324432C435F4327
:1000F00030435F43344338435F433C4340434443CE
:100100004D435F435843EA976A96A3962698A39671
:10011000A396A396A396A396A396A396A396A39617
:10012000A396A396A396A396A396A396A396A39607
:10013000A396A396A396A396A396A396A396A396F7
:10014000A3962098A396A396A396A396A396A39668
:10015000A396A396F997A396A396A396A396A39680
:10016000A396A396A396A396A3963D98A096D5D2C0
:10017000D8D2C7D2CBD2CFD20FD3DCD2E0D2E6D204
:10018000EAD2EED2F4D2F8D2FCD20FD302D306D305
:100190000AD34CD351D356D360D36AD3E3D374D3A9
:1001A0007CD384D38ED398D3A2D3B1D3BBD3E3D3A0
:1001B000C5D3CFD3D9D3EAEFF1EFA4F0ADF1FFF27D
:1001C00008F318F3EB015F025D02C3010F03F902AC
:1001D00063027D01530261015B011703084AD73BAB
:1001E0003BCE016E84BCBFFDC12F3D6C74319ABD06
:1001F00056833DDA3D00C77F11BED9E4BB4C3E912A
:100200006BAAAABE000000803F05A84CCDB2D44E18
:10021000B93836A9020C50B9918688083CA6AAAA1A
:100220002ABE000000803F07634236B79BD8A71A5A
:1002300039685618AEBAAB558C1D3CB7CC5763BD68
:100240006DEDFD753EF6177231BF000000803F086E
:10025000000000BE922449123EABAAAA2ABECDCC11
:10026000CC4C3E00000080BEABAAAAAA3E00000013
:1002700000BF000000803F0000000000084178D36C
:10028000BB4387D1133D190E3CC3BD4282AD2B3E0B
:1002900068EC8276BED98FE1A93E4C80EFFFBE01AB
:1002A000C4FF7F3F0000000000000C9432610D94F9
:1002B00077570C94A4F00D94EC640C94A76D0C94F7
:1002C00030430D94FF640C949C8A0C942EFF0C9484
:1002D000F3950C944CFF0C94F2C10C9487610D942F
:1002E00071600C94D0840C9434FF0C9498D30C94CB
:1002F000D9D30C94F1EF0C94EF420D94F2640C946A
:10030000DCD20C94CFD30C941BC20C94BC850C94FF
:10031000E0D20C9419FF0C9417720C94C1FE0C944B
:100320007CD30C94F0950C9428890C948B9A0D94A2
:10033000CB5F0D9469020C944FFE0C9414850C94C1
:100340003CFE0C94746A0C945E610D947D600C9478
:100350003D850C948E6A0D9473050D9496570D94FB
:100360009B450C94D8610C940AD30C9491900C94F6
:10037000A38B0D94D6030C94D6FD0C94708C0C9426
:1003800058FF0D9459600D9404650C94E4630C942B
:1003900094FE0D941B590D946C620D94CA5D0C94DF
:1003A0005C920C94619A0C9428FF0D94BF5F0D949D
:1003B0008F5C0C94DB840C9406D30D94848A0C948B
:1003C0000A850C94EED20C940F640C9403960D9451
:1003D0005D600C944CD30D9401650C945C8E0C9470
:1003E000EAD20C9438430C9444870C94D5D20C94E4
:1003F000F8D20C94EA630C946C610C94CFD20C94F8
:10040000EFFD0C9440FF0D94D9450C94A2610C941F
:10041000A2FD0C9460D30C942C430C94BBD30C948D
:100420005F430C941AF40C9450840D940C3F0D947B
:1004300069600D9463020C94B2FE0C94ADF10C94BF
:100440000C860D945C110C94C2850D946D570C9420
:1004500001430D9479600C94C5D30D946D600C9498
:1004600024430C94C7D20C944E550C948C6A0D9472
:100470008B5D0C943D980C946F8F0C94A68D0C940E
:10048000946A0D9481600D946D460C940FD30C9476
:10049000A5FB0C94FFF20C94E3D30C94E6D20D94DC
:1004A00075600C943C430D94E9640D947C050C94A8
:1004B0006A960C9445610C9462FE0D94DD640D9473
:1004C000DA640C947BFE0D94E6640C946AD30C946D
:1004D000CBD20C94D0FE0D94DF580C94586C0D9434
:1004E00072570C9439940D94FB3E0D94A63E0C94D7
:1004F000DE650C9434430D94E0800C9446FF0D941B
:1005000064050C94F4D20C94EA970C945EFF0C945E
:10051000568E0C942D840C94F6630C9451D30D9448
:10052000F73E0C94D9840C945DF40C94A18C0C943B
:10053000D7550C944B550C94E1630C94A3FE0C948A
:1005400013860D9453600C94C9900C9471620C94B2
:10055000926A0C9484D30D94B3560C94C5440C94B5
:100560008ED30C94AD910C9474D30C9456D30D94FB
:100570003E600D946B020C94BD610D9467020D9466
:10058000BA5F0C94BDFD0D9444020C9408F30D94D5
:1005900032110C9451670D94C95F0C9440430C9434
:1005A000906A0C9413430D94103F0C94FCD20C945D
:1005B000F9970C9419850C94E9840C9409640C94B3
:1005C000B1D30C94A0960D9474000D9447600D94D3
:1005D000C45F0C9475550C94D7840C9458430C94B8
:1005E00015640C94F6950C9408FE0C94D8D20C94D7
:1005F000E1840D94E3640C940F850C94E7630C94F0
:100600004A550C9420980C94B6850C9444430D9450
:1006100065020C9452FF0C9421FE0C94C8850D9435
:10062000E0640C94D9FE0C94A3960C94EAEF0D941C
:10063000EF640C94A2D30C944D430C941E850C943F
:10064000398F0D94EA5F0D9499120C9418F30D9460
:100650001B5B0C9426980D9465600C9402D30C944B
:10066000806A0C943AFF0D9461600C9400954E41A1
:100670004E494E495459494E46CDCCCC3D0AD7231C
:100680003C17B7D13877CC2B329595E6241FB14F64
:100690000A000020410000C84200401C4620BCBEA9
:1006A0004CCA1B0E5AAEC59D7400407A10F35A0016
:1006B000A0724E18090010A5D4E80000E87648178B
:1006C0000000E40B54020000CA9A3B000000E1F570
:1006D00005000080969800000040420F000000A036
:1006E0008601000000102700000000E80300000061
:1006F000006400000000000A00000000000100008B
:100700000000002C76D888DC674F0823DFC1DFAEFD
:1007100059E1B1B796E5E3E453C63AE651997696C6
:10072000E8E6C28426EB898C9B62ED407C6FFCEF8F
:10073000BC9C9F40F2BAA56FA5F490055A2AF75CBD
:10074000936B6CF9676DC11BFCE0E40D47FEF5206F
:10075000E6B500D0ED902E03009435770500808437
:100760001E080000204E0A000000C80C333333334B
:100770000F986E12831141EF8D2114893BE65516B7
:10078000CFFEE6DB18D1844B381BF77C1D901DA4EF
:10079000BBE424203284725E228100C9F124ECA1E2
:1007A000E53D27434F4D4D554E49434154494F4E2A
:1007B0000044525952554E004552524F5253004533
:1007C00043484F0047322F473320626164207061F5
:1007D00072616D65746572730A00536C6565702E85
:1007E0002E2E005A2050726F626520506173742063
:1007F0004265640A005A2050726F6265205061732E
:10080000742042656400205A3A200020593A2000A2
:1008100042656420583A20004D65736820706F6906
:100820006E74206F7574206F662072616E67650A42
:10083000004D302053746F70004D312053746F7031
:1008400000436C69636B20746F20526573756D652E
:100850002E2E2E004E6F204D6F76652E00456E6455
:100860002066696C65206C6973740A00426567696B
:100870006E2066696C65206C6973740A004E6F2087
:100880006D656469610A00526573756D696E6720F4
:10089000534400286E6F2066696C652900437572A9
:1008A00072656E742066696C653A200044656C65FB
:1008B00074696F6E206661696C65642C2046696C92
:1008C000653A200046696C652064656C65746564F2
:1008D0003A00256979202569642025696820256901
:1008E0006D20256973005072696E742074696D659E
:1008F0003A2000452025530044454255473A004DD3
:1009000031313320530042656420436F6F6C696E50
:10091000672E2E2E004265642048656174696E67FB
:100920002E2E2E00417274696C6C657279205369A9
:10093000646577696E646572205831204F46462E93
:10094000002F2F20004D31343520533C696E6465F3
:10095000783E206F7574206F662072616E67652027
:1009600028302D31290A00416363656C657261741A
:10097000696F6E3A20500046523A0020466C6F77FD
:100980003A200020536572766F200020643A0020E0
:10099000693A0020703A006469730043290A0061D3
:1009A000626C656420286D696E2074656D7020002E
:1009B000436F6C642065787472756465732061722E
:1009C0006520004D34323120696E636F7272656349
:1009D0007420706172616D657465722075736167F2
:1009E000650A004F666673657473204170706C69A8
:1009F0006564004572723A20546F6F2066617221FF
:100A000000546F6F206661722066726F6D20726590
:100A1000666572656E636520706F696E740A004565
:100A20004550524F4D204F4B0A002028302D313079
:100A300029002076616C7565206F7574206F6620C3
:100A400072616E676500416476616E6365204B3D3F
:100A500000BF07CB0AB807B107A30750726F7465D0
:100A6000637465642050696E0A00726F7461746902
:100A70006F6E206D61747269783A0A005A5F6D6F0B
:100A800076655F636F6D700A00206D61783A0020B3
:100A90006D696E3A00417869732000416363656C4B
:100AA00065726174696F6E206C696D697465642E1E
:100AB0000A00534C4F5700554E4B4E4F574E205344
:100AC000544154450047434F44455F494E464F000B
:100AD0004C43445F50415553455F524553554D4536
:100AE0000046494C414D454E545F52554E4F55546A
:100AF0005F434F4E54494E55450046494C414D4584
:100B00004E545F52554E4F5554004D383736205293
:100B10006573706F6E64696E672050524F4D50540C
:100B20005F004572726F722077726974696E672018
:100B3000746F20454550524F4D210A004E6F20439F
:100B40006865636B73756D2077697468206C696E76
:100B500065206E756D6265722C204C617374204C3B
:100B6000696E653A2000636865636B73756D206D0F
:100B700069736D617463682C204C617374204C69D7
:100B80006E653A20004C696E65204E756D62657227
:100B9000206973206E6F74204C617374204C696EF1
:100BA00065204E756D6265722B312C204C6173741B
:100BB000204C696E653A20004D313130005344209D
:100BC00072656164206572726F720A002121204B88
:100BD000494C4C20636175736564206279204B49F0
:100BE0004C4C20627574746F6E2F70696E0A002110
:100BF00021204B494C4C20636175736564206279F8
:100C000020746F6F206D75636820696E616374690D
:100C100076652074696D65202D2063757272656E2E
:100C20007420636F6D6D616E643A20006275737934
:100C30003A2070617573656420666F7220696E700A
:100C400075740A00627573793A2070617573656412
:100C500020666F7220757365720A00627573793A47
:100C60002070726F63657373696E670A004D656407
:100C7000696120496E736572746564000900000A39
:100C8000010008000A01000A090000000A0008002B
:100C90008B0C860C810C7C0C25532025692F256933
:100CA000004D6573682045646974696E67205374EC
:100CB0006F7070656400446F6E6520456469746987
:100CC0006E67204D6573680A00446F6E6520456449
:100CD0006974696E67204D6573680046696E6520AA
:100CE00054756E696E67204D6573680028582C59DD
:100CF00029206F757473696465207072696E746100
:100D0000626C65207261646975732E0A004F6666B5
:100D1000736574206F7574206F6620626F756E64E2
:100D2000732E20283020746F2031306D6D290A0A0F
:100D300000496E76616C6964206D61702074797011
:100D4000652E0A0A003F28462961646520686569A6
:100D500067687420666F7220426564204C65766512
:100D60006C20436F7272656374696F6E206E6F746E
:100D700020706C61757369626C652E0A0A003F43CE
:100D8000616E277420616374697661746520616E99
:100D900064206465616374697661746520617420A0
:100DA0007468652073616D652074696D652E0A0A2B
:100DB00000426F7468205820262059206C6F6361B0
:100DC00074696F6E73206D75737420626520737023
:100DD000656369666965642E0A0A003F496E76613B
:100DE0006C696420677269642073697A6520284A97
:100DF00029207370656369666965642028322D391E
:100E0000292E0A0A003F28502968617365207661FF
:100E10006C756520696E76616C69642028302D36AA
:100E2000292E0A0A003F2856296572626F736520D1
:100E30006C6576656C20696D706C61757369626C48
:100E4000652028302D34292E0A0A003F28522965B2
:100E50007065746974696F6E20636F756E74206954
:100E60006E76616C69642028312B292E0A0A0044B1
:100E70006F696E6720473239005D0A006265642041
:100E8000706C616E65206E6F726D616C203D205BD1
:100E900000436F756C64206E6F7420636F6D706CAF
:100EA000657465204C5346210054696C74696E6703
:100EB000206D65736820706F696E7420003F457205
:100EC000726F722070726F62696E6720706F696EE8
:100ED000742E2041626F7274696E67206F70657244
:100EE0006174696F6E2E0A00255320332F3300542E
:100EF000696C74696E67206D6573682028332F33C1
:100F0000290A00255320322F330054696C74696E0E
:100F100067206D6573682028322F33290A00436FDC
:100F2000727265637465645F5A3D0054696C7469DC
:100F30006E6720506F696E7400255320312F330087
:100F400054696C74696E67206D6573682028312F51
:100F500033290A00526573656E643A200050726945
:100F60006E7420446F6E6500446F6E652070726908
:100F70006E74696E672066696C650A004D373700CC
:100F80004D33310023646566696E652044454641F2
:100F9000554C545F004B6420004B6920004B70207F
:100FA00000504944204175746F74756E6520666900
:100FB0006E697368656421205075742074686520BB
:100FC0006C617374204B702C204B6920616E64201F
:100FD0004B6420636F6E7374616E74732066726FFE
:100FE0006D2062656C6F7720696E746F20436F6E41
:100FF00066696775726174696F6E2E680A00504980
:1010000044204175746F74756E65206661696C6506
:1010100064212074696D656F75740A000A20436C41
:10102000617373696320504944200A00204B643A7D
:101030002000204B693A2000204B703A20000A2003
:101040004E6F206F76657273686F6F740A0020545C
:10105000753A2000204B753A2000206D61783A20C7
:1010600000206D696E3A200020643A2000206269F9
:1010700061733A2000504944204175746F74756E55
:10108000652073746172740A00504944204175747C
:101090006F74756E65206661696C656421205465A6
:1010A0006D706572617475726520746F6F20686908
:1010B00067680A00504944204175746F74756E6505
:1010C00000504944204175746F74756E65206661E7
:1010D000696C65642120426164206578747275646E
:1010E0006572206E756D6265720A004572723A20F3
:1010F0007574663820666F6E74206E6F7420696E2A
:10110000697469616C697A65642E00000C0F00FED9
:1011100007022503BB017FFE08FE08FE050808063E
:10112000000040F0C888889878100508080600007C
:10113000C0F88888888888F80505050600012030F1
:10114000F830200508080600002070F82020202034
:10115000E00509090600FF2070A8A8B8888870205B
:10116000070505070001D86C366CD805090906008B
:10117000FFF8A88888888888A8F8050A0A0600FE6B
:10118000205050505088A8A888700303030600031D
:1011900040A040FFFFFFFFFFFFFFFFFFFFFFFFFF3C
:1011A000FFFFFFFFFFFFFFFFFF0000000605FF013D
:1011B000070706020080808080800080030303060A
:1011C0000105A0A0A005060606000050F85050F842
:1011D000500509090600FF2070A8A07028A87020FB
:1011E000050707060000C8C81020409898050707A3
:1011F00006000040A0A040A8906801030306020575
:101200008080800309090601FF20404080808040E3
:1012100040200309090601FF804040202020404073
:101220008005070706000020A8702070A82005058B
:10123000050600012020F820200203030601FFC05C
:101240004080050101060003F8020202060100C009
:10125000C005070706000008101020404080050761
:1012600007060000708898A8C88870030707060161
:101270000040C040404040E005070706000070887D
:1012800008102040F8050707060000F8081030088D
:10129000887005070706000010305090F810100500
:1012A0000707060000F880F00808887005070706A1
:1012B0000000304080F0888870050707060000F8BD
:1012C000081010202020050707060000708888708D
:1012D0008888700507070600007088887808106005
:1012E000020505060100C0C000C0C00206060601D6
:1012F000FFC0C000C04080030505060101204080FA
:101300004020050303060002F800F8030505060166
:1013100001804020408005070706000070881020EB
:101320002000200507070600007088B8A8B8807064
:10133000050707060000708888F888888805070771
:10134000060000F04848704848F00507070600000E
:1013500070888080808870050707060000F0484884
:10136000484848F0050707060000F88080F08080B4
:10137000F8050707060000F88080F08080800507E8
:1013800007060000708880809888700507070600AF
:1013900000888888F8888888030707060100E040ED
:1013A00040404040E00507070600003810101010CC
:1013B00090600507070600008890A0C0A0908805EF
:1013C0000707060000808080808080F805070706F8
:1013D000000088D8A8888888880507070600008844
:1013E00088C8A8988888050707060000708888883C
:1013F000888870050707060000F08888F0808080E4
:1014000005070706000070888888A8906805070708
:10141000060000F08888F0A0908805070706000005
:1014200070888070088870050707060000F8202083
:1014300020202020050707060000888888888888E3
:101440007005070706000088888888505020050727
:101450000706000088888888A8A8500507070600A6
:101460000088885020508888050707060000888873
:101470005020202020050707060000F80810204013
:1014800080F80309090601FFE08080808080808069
:10149000E0050707060000804040201010080309FF
:1014A000090601FFE020202020202020E005030382
:1014B0000600052050880501010600FEF80303031D
:1014C00006010580402005050506000070087888A3
:1014D000780507070600008080F0888888F00505F9
:1014E0000506000070808088700507070600000868
:1014F0000878888888780505050600007088F080DF
:1015000070050707060000304840E04040400507EE
:10151000070600FE708888887808700507070600AF
:10152000008080F088888888030707060100400053
:10153000C0404040E00409090601FE1000301010D0
:101540001010906005070706000080808890E090EA
:1015500088030707060100C04040404040E0050501
:1015600005060000D0A8A8A8A8050505060000B03B
:10157000C888888805050506000070888888700579
:1015800007070600FEF0888888F0808005070706B8
:1015900000FE78888888780808050505060000B0F0
:1015A000C880808005050506000078807008F00579
:1015B00007070600002020F8202020180505050652
:1015C00000008888889868050505060000888888D6
:1015D00050200505050600008888A8A850050505C7
:1015E00006000088502050880507070600FE8888FE
:1015F0008850204080050505060000F8102040F8BE
:101600000309090601FF204040408040404020017E
:1016100009090602FF808080808080808080030925
:10162000090601FF80404040204040408005030300
:1016300006000248A890FF416476616E63656420ED
:1016400053657474696E677300554E4C4F41442066
:1016500046494C414D454E540046494C414D454E3E
:1016600054204348414E47450053746F770044650A
:10167000706C6F790053656C662D546573740053FC
:10168000572D4D6F646500526573746F7265204409
:10169000656661756C7473004C6F6164205365748A
:1016A00074696E67730053746F7265205365747448
:1016B000696E677300507265686561742024204309
:1016C0006F6E6600424C546F756368004D37303260
:1016D00020542564004D363030204230205425649B
:1016E000004D373032203B2564004D3730312054D7
:1016F0002564004D373032004D373031004D3630E3
:1017000030204230005075726765206D6F72650041
:10171000524553554D45204F5054494F4E533A0072
:101720005052494E54205041555345440020204EBC
:101730006F7A7A6C653A20004C6F6164206D6D00A1
:10174000556E6C6F6164206D6D0046696C2E20448F
:1017500069612E004520696E206D6DC2B3002008BE
:101760002046616374002008204D61780020082025
:101770004D696E004F6666004F6E004175746F7460
:10178000656D70005654726176204D696E00566D1D
:10179000696E00566D6178204500566D6178205A5B
:1017A00000566D6178205900566D617820580041CF
:1017B0006D6178204500416D6178205A00416D616E
:1017C00078205900416D6178205800412D54726194
:1017D00076656C00412D52657472616374004163DB
:1017E00063656C0070617573656400726573756D17
:1017F000656400526573756D696E67004732362007
:1018000048656174696E67204E6F7A7A6C6500472F
:1018100032362048656174696E67204265640057FE
:10182000616974696E6720666F722068656174759E
:10183000702E0A004669786564204C656E6774688E
:10184000205072696D6500446F6E65205072696D3D
:10185000696E67004D616E75616C207072696D69AB
:101860006E672E2E2E004732362043616E63656C04
:101870006564004C656176696E6720473236003FCB
:1018800053706563696669656420582C5920636FDD
:101890006F7264696E617465206F7574206F662065
:1018A000626F756E64732E0A003F28522965706559
:1018B00061742076616C7565206E6F7420706C6148
:1018C000757369626C653B206D7573742062652069
:1018D0006174206C6561737420312E0A003F53706F
:1018E00065636966696564206E6F7A7A6C652074D9
:1018F000656D7065726174757265206E6F742070AD
:101900006C61757369626C652E0A003F5370656384
:1019100069666965642066696C616D656E742073C3
:10192000697A65206E6F7420706C61757369626C82
:10193000652E0A003F5370656369666965642070AF
:1019400072696D65206C656E677468206E6F7420B7
:10195000706C61757369626C652E0A003F53706527
:10196000636966696564206E6F7A7A6C6520736955
:101970007A65206E6F7420706C61757369626C6536
:101980002E0A003F52657472616374696F6E204D58
:10199000756C7469706C696572206D757374206202
:1019A00065207370656369666965642E0A003F533C
:1019B00070656369666965642052657472616374F9
:1019C000696F6E204D756C7469706C696572206EFC
:1019D0006F7420706C61757369626C652E0A003FCC
:1019E000537065636966696564206C61796572200E
:1019F000686569676874206E6F7420706C617573B8
:101A000069626C652E0A0043292E0A003F537065F7
:101A1000636966696564206265642074656D7065DC
:101A2000726174757265206E6F7420706C6175736D
:101A300069626C65202834302D004732362073747B
:101A4000617274696E672E2E2E0A004D3834005470
:101A5000656D70657261747572650050726F626554
:101A6000205A204F666673657400416476616E6328
:101A700065204B0046616E205370656564004D61C2
:101A8000696E00486F74656E6420746F6F20636FB9
:101A90006C640050726F63656564004469736162D1
:101AA0006C65205374657070657273004D34382016
:101AB00050726F6265205465737400473238204F4E
:101AC0000A4D343820503130004175746F20486F12
:101AD0006D650050726568656174202420456E64F0
:101AE000005072656865617420242042656400437B
:101AF0006F6F6C646F776E00466C6F77005A20567C
:101B0000616C756500496E666F2053637265656E22
:101B1000004732380A4D313930205325690A4D319A
:101B20003039205325690A47323920503100426547
:101B3000642054656D7000486F74656E6420546550
:101B40006D70004732392050362043202D00486503
:101B50006967687420416D6F756E740041646A75C1
:101B60007374204D65736820486569676874004622
:101B7000696E652054756E6520436C6F7365737470
:101B8000004732392050342054004732380A473257
:101B9000362043205020482569204225690056619F
:101BA0006C696461746520437573746F6D204D6555
:101BB0007368004732380A473236204320502049A4
:101BC000310056616C6964617465204D65736820ED
:101BD000282429004732380A473236204320502033
:101BE000493000473239204A2569004C6576656CDA
:101BF000204D657368005369646520506F696E7489
:101C0000730047726964204D657368204C65766582
:101C10006C696E6700332D506F696E74204C657669
:101C2000656C696E6700473239204A3000473239A7
:101C3000205033205220432E2569004D616E75617E
:101C40006C2046696C6C2D696E0046696C6C2D6960
:101C50006E20416D6F756E74004D65736820696EFE
:101C600076616C6964617465642E0A00496E766100
:101C70006C696461746520436C6F736573740047AD
:101C80003239204900496E76616C6964617465205F
:101C9000416C6C00436F6E74696E756520426564BB
:101CA000204D65736800473239205031204300468B
:101CB000696C6C2D696E204D657368004275696CA6
:101CC0006420437573746F6D204D657368004732EF
:101CD000380A4D3139302049310A4D3130392049E7
:101CE000310A4732392050310A4D313034205330D7
:101CF0000A4D313430205330004275696C64204DF8
:101D000065736820282429004732380A4D3139305C
:101D10002049300A4D3130392049300A47323920C4
:101D200050310A4D3130342053300A4D3134302097
:101D300053300047323920256325690A4D31313748
:101D40002000456E636C6F7375726500486F6D6936
:101D50006E67204661696C6564006F70656E005443
:101D60005249474745524544007A5F70726F626539
:101D7000007A5F6D696E00795F6D696E00785F6DE6
:101D8000696E005265706F7274696E6720656E646B
:101D900073746F70207374617475730A00486F6D8B
:101DA000652025732573257320466972737400209E
:101DB000746F6F206C6F6E672065787472757369CD
:101DC0006F6E2070726576656E7465640A002063BC
:101DD0006F6C6420657874727573696F6E207072B1
:101DE0006576656E7465640A00627574746F6E0062
:101DF00050757267654D6F726500436F6E74696EE2
:101E00007565004C6F61642046696C616D656E7428
:101E1000205400496E736572742066696C616D654B
:101E20006E7420616E642073656E64204D313038AD
:101E30000A00220A00556E6B6E6F776E20636F6D1D
:101E40006D616E643A202200205A3A0020593A000F
:101E50002053697A653A200043616E6E6F74206F7B
:101E600070656E207375626469722000534420634C
:101E7000617264206F6B0A006F70656E526F6F74D1
:101E8000206661696C65640A00766F6C756D652EFD
:101E9000696E6974206661696C65640A004E6F2022
:101EA000534420636172640A004D3233202573006D
:101EB0006F70656E206661696C65642C2046696C84
:101EC000653A200046696C652073656C65637465CE
:101ED000640A0046696C65206F70656E65643A201F
:101EE00000454E4420535542524F5554494E450AE1
:101EF000002220706F73002220706172656E743A48
:101F00002200535542524F5554494E452043414CAF
:101F10004C207461726765743A2200537562636184
:101F20006C6C204F766572666C6F770045786365E0
:101F300065646564206D617820535542524F555455
:101F4000494E452064657074683A310A00577269D9
:101F500074696E6720746F2066696C653A2000535F
:101F600044207072696E74696E67206279746520AE
:101F7000004E6F74205344207072696E74696E67EE
:101F80000A00646F696E67004E6F7720004142530C
:101F900000504C41005072696E742066726F6D2063
:101FA0004D65646961004D6F76652025736D6D0028
:101FB0004D6F766520302E316D6D004D6F7665204A
:101FC000316D6D004D6F76652031306D6D004D6F58
:101FD000766520417869730045787472756465721E
:101FE000004D6F7665205A004D6F76652059004D83
:101FF0006F76652058004368616E67652046696C9E
:10200000616D656E7400556E6C6F61642046696C1D
:10201000616D656E74004C6F61642046696C616D22
:10202000656E7400507265686561742043757374E1
:102030006F6D0050726568656174202400426163B1
:102040006B0000000A0B02090C0D0E0807030401C7
:102050000000000000000000000000000000000080
:10206000000000000000000000000000000012114D
:102070001000000000000000000000000000000050
:102080000000000000000000911F8D1F205200552D
:102090006E696669656420426564204C6576656C8E
:1020A000696E67003B200020204D36303320002031
:1020B000550046696C616D656E74206C6F61642FAC
:1020C000756E6C6F6164206C656E677468733A003E
:1020D00020204D393030204B004C696E65617220F4
:1020E000416476616E63653A0020204D38353120B9
:1020F00058005A2D50726F6265204F666673657482
:102100000020204D33303420500020204D3330311A
:102110002050005049442073657474696E67733AA7
:102120000020460020480020204D31343520530047
:102130004D6174657269616C2068656174757020A9
:10214000706172616D65746572733A00206D6573BC
:102150006865732E0A0A00454550524F4D20636151
:102160006E20686F6C642000416374697665204D51
:1021700065736820536C6F743A200020204D343210
:102180003020530020204D323036205800486F6DEB
:1021900065206F66667365743A0020204D323035D5
:1021A000204200416476616E6365643A20423C6D72
:1021B000696E5F7365676D656E745F74696D655F89
:1021C00075733E20533C6D696E5F66656564726130
:1021D00074653E20543C6D696E5F74726176656C07
:1021E0005F66656564726174653E20583C6D617818
:1021F0005F785F6A65726B3E20593C6D61785F79EC
:102200005F6A65726B3E205A3C6D61785F7A5F6AE7
:1022100065726B3E20453C6D61785F655F6A6572F3
:102220006B3E0020204D3230342050004163636506
:102230006C65726174696F6E2028756E6974732F96
:102240007332293A20503C7072696E745F61636327
:10225000656C3E20523C726574726163745F6163A9
:1022600063656C3E20543C74726176656C5F61639B
:1022700063656C3E0020204D3230312058004D61A6
:1022800078696D756D20416363656C657261746911
:102290006F6E2028756E6974732F7332293A00208F
:1022A000204D3230332058004D6178696D756D20B6
:1022B0006665656472617465732028756E697473F0
:1022C0002F73293A005374657073207065722075FE
:1022D0006E69743A0020204D323030205300204483
:1022E000697361626C65640A0046696C616D656E54
:1022F000742073657474696E67733A0020204D31E1
:1023000034392043203B20556E69747320696E2058
:1023100043656C736975730A0020286D6D29002070
:1023200020473231202020203B20556E69747320D5
:10233000696E206D6D0024F4D43050C38E20C2A28B
:102340004017828B7011127A910D816CD90AA861A5
:10235000E108C7586607615143061E4B5D05C1453C
:10236000A7041A411104093D98037139310340361D
:10237000DB0265339102D4305402802E1D02632C9F
:10238000EE01752AC501B028A001102781018F2513
:1023900064012B244B01E0223401AC211F018D206C
:1023A0000D01801FFC00841EED00971DDF00B81C8E
:1023B000D200E61BC600201BBC00641AB200B21992
:1023C000A8000A19A0006A189900D11791004017B7
:1023D0008B00B516840031167E00B31579003A15CE
:1023E0007300C7146F0058146A00EE136600881358
:1023F000630025135E00C7125B006C1257001512B4
:102400005400C111510070114F0021114B00D61022
:1024100049008D1047004610440002104200C00FD2
:102420004000800F3E00420F3C00060F3B00CB0EE9
:102430003800930E37005C0E3500270E3400F30D84
:102440003200C10D3100900D3000600D2E00320DB4
:102450002D00050D2C00D90C2B00AE0C2900850C8D
:1024600029005C0C2700350C27000E0C2600E80B19
:102470002400C40B2400A00B23007D0B23005A0B67
:102480002100390B2100180B2000F80A1F00D90A7F
:102490001E00BB0A1E009D0A1D00800A1D00630A63
:1024A0001C00470A1B002C0A1B00110A1A00F7091E
:1024B0001A00DD091900C4091900AB0919009209B5
:1024C00017007B091800630917004C09160036092C
:1024D0001600200916000A091500F5081500E00885
:1024E0001400CC081400B8081400A40814009008C4
:1024F00013007D0812006B081300580812004608EC
:1025000012003408110023081100120811000108FC
:102510001100F0071000E0071000D0071000C007FE
:102520001000B0070F00A107100091070E008307ED
:102530000F0074070F0065070E0057070E004907CC
:102540000E003B070D002E070E0020070D0013079D
:102550000D0006070D00F9060C00ED060D00E00663
:102560000C00D4060C00C8060C00BC060C00B0061B
:102570000C00A4060B0099060C008D060B008206C9
:102580000B0077060B006C060B0061060A0057066D
:102590000B004C060A0042060A0038060A002E0606
:1025A0000A0024060A001A060A0010060900070697
:1025B0000A00FD050900F4050900EB050900E20524
:1025C0000900D9050900D0050900C7050900BE05A5
:1025D0000900B5050800AD050800A50509009C0522
:1025E0000800940508008C050800840508007C0597
:1025F0000800740508006C050700650508005D0506
:102600000700560508004E0507004705070040056E
:10261000080038050700310507002A0507002305D3
:1026200007001C050600160507000F050700080532
:10263000060002050700FB040600F5040700EE048F
:102640000600E8040600E2040700DB040600D504E7
:102650000600CF040600C9040600C3040600BD043A
:102660000600B7040600B1040500AC040600A60489
:102670000600A00405009B040600950405009004D4
:1026800006008A04050085040500800406007A041B
:10269000050075040500700405006B040500660460
:1026A0000500610405005C040500570405005204A0
:1026B00005004D04050048040500430405003E04E0
:1026C00004003A04050035040500300404002C041D
:1026D000050027040400230405001E0404001A0456
:1026E000040016040500110404000D04040009048C
:1026F00005000404040000040400FC030400F803C3
:102700000400F4030400F0030400EC030400E803F5
:102710000400E4030400E0030400DC030400D80325
:102720000400D4030400D0030400CC030400C80355
:102730000300C503030024F404D9201BC40C5C0E61
:102740009804C4095F0265077101F405F900FB04F0
:10275000B30048048700C103690058035500030310
:102760004500BE023A008402310053022A002902C9
:10277000250004022000E4011C00C8011900AF017B
:102780001700980114008401130071011000610109
:10279000100051010E0043010D0036010B002B010A
:1027A0000B0020010B00150109000C0109000301B9
:1027B0000800FB000800F3000800EB000700E4003D
:1027C0000600DE000600D8000600D2000600CC009D
:1027D0000500C7000500C2000500BD000400B900E7
:1027E0000400B5000400B1000400AD000400A9001D
:1027F0000400A5000300A20003009F0004009B004A
:10280000030098000300950002009300030090006D
:1028100003008D0002008B00030088000200860088
:10282000020084000300810002007F0002007D009E
:1028300002007B00020079000200770001007600B0
:1028400002007400020072000100710002006F00BB
:1028500002006D0001006C0002006A0001006900C6
:1028600002006700010066000100650001006400CD
:1028700002006200010061000100600001005F00D1
:1028800002005D0001005C0001005B0001005A00D5
:1028900001005900010058000100570001005600D6
:1028A00001005500010054000100530000005300D6
:1028B00001005200010051000100500001004F00D2
:1028C00001004E0000004E0001004D0001004C00D0
:1028D00001004B0000004B0001004A0001004900CC
:1028E00001004800000048000100470001004600C8
:1028F00000004600010045000000450001004400C2
:1029000001004300000043000100420000004200BB
:1029100001004100000041000100400001003F00B3
:1029200000003F0001003E0000003E0001003D00AD
:1029300000003D0001003C0000003C0000003C00A5
:1029400001003B0000003B0001003A0000003A009B
:102950000100390000003900010038000000380093
:102960000000380001003700000037000100360089
:102970000000360000003600010035000000350080
:102980000000350001003400000034000000340075
:10299000010033000000330000003300010032006A
:1029A0000000320000003200010031000000310060
:1029B0000000310001003000000030000000300055
:1029C00001002F0000002F0000002F0000002F004A
:1029D00001002E0000002E0000002E0001002D003E
:1029E00000002D0000002D0000002D0001002C0033
:1029F00000002C0000002C0000002C0001002B0027
:102A000000002B0000002B0000002B0001002A001A
:102A100000002A0000002A0000002A00010029000E
:102A20000000290000002900000029000000290002
:102A300001002800000028000000280000002800F5
:102A400000002800010027000000270000002700E8
:102A500000002700000027000100260000002600DB
:102A600000002600000026000000260001002500CE
:102A700000002500000025000000250000002500C2
:102A800000002500010024000000240000002400B4
:102A900000002400000024000100230000002300A7
:102AA000000023000000230000002300000023009A
:102AB000000023000100220000002200000022008C
:102AC000000022000000220000002200010021007E
:102AD0000000210000002100000021000000210072
:102AE0000000210000002100010020000000200063
:102AF0000000200000002000000020000000200056
:102B0000000020000000200001001F0000001F0046
:102B100000001F0000001F0000001F0000001F0039
:102B200000001F0001001E0000001E0000001E002B
:102B300000001E000000C23100001C260000F41935
:102B40000000D80F0000EB080000C0040000750270
:102B5000000040010000446F6E652E0A003F496E80
:102B600076616C69642073746F7261676520736C41
:102B70006F742E0A3F557365203020746F20004714
:102B800032392050322066696E69736865642E0A96
:102B9000005859206F757473696465207072696E8E
:102BA0007461626C65207261646975732E0A003FFE
:102BB0004572726F7220696E20427573696E65731B
:102BC000732043617264206D6561737572656D6514
:102BD0006E742E0A004D616E75616C6C7920707296
:102BE0006F62696E6720756E726561636861626CA1
:102BF0006520706F696E74732E0A0050726F62697F
:102C00006E672061726F756E642028004D65736871
:102C100020696E76616C6964617465642E205072FF
:102C20006F62696E67206D6573682E0A004D65736B
:102C300068207A65726F65642E0A00446566617566
:102C40006C742073746F7261676520736C6F74208D
:102C5000302073656C65637465642E0A004C6F6187
:102C600064696E6720746573745F706174746572F3
:102C70006E2076616C7565732E0A0A00496E766166
:102C80006C696420746573745F7061747465726ECE
:102C90002076616C75652E20282D3120746F2032CE
:102CA000290A0A004C6F636174696F6E7320696E44
:102CB00076616C6964617465642E0A0A00456E74FD
:102CC000697265204D65736820696E76616C696410
:102CD000617465642E0A0A004D65616E204D65734E
:102CE00068204865696768743A200023206F662071
:102CF00073616D706C65733A20000A4D65736820CE
:102D00006F6E6C79207061727469616C6C7920707F
:102D10006F70756C617465642E0A0A0050726F6280
:102D2000696E6720506F696E74000A50726F626935
:102D30006E67206D65736820706F696E7420002067
:102D4000616E642074616B652061206D65617375CF
:102D500072656D656E742E0A006D6D20746869630E
:102D60006B2E0A00427573696E657373204361723E
:102D700064206973200052656D6F76652026204DB2
:102D8000656173757265204265640052656D6F768A
:102D900065207368696D00506C61636520736869B4
:102DA0006D20756E646572206E6F7A7A6C65004D69
:102DB00065736820506F696E74204D65617375721C
:102DC00065642061743A20000A4D657368206F6E57
:102DD0006C79207061727469616C6C7920706F70AD
:102DE000756C617465642E0A00506C6163652053D4
:102DF00068696D2026204D656173757265004D6FA1
:102E000076696E6720746F206E657874004D6F74FC
:102E1000696F6E0046616465204865696768740083
:102E20004F75747075742055424C20496E666F0062
:102E300047323920570055424C20546F6F6C730055
:102E40004F7574707574204D657368204D61700006
:102E50004D6573682053746F72616765004D6573CB
:102E600068204564697400537465702D42792D5350
:102E70007465702055424C004163746976617465D5
:102E80002055424C0047323920410044656163744B
:102E900069766174652055424C0047323920440000
:102EA0002568753A253032687500256875642025D7
:102EB000303268753A253032687500202020202095
:102EC0002020001FE02010201020101020102020B3
:102ED00010201030300840048003001FE03FF03F16
:102EE000F03FF01FE01FE03FF03FF03FF00FC00762
:102EF0008003003FFFF038007030FC3020FC1020D1
:102F000078102030102C00D02E31D02F7BD02F7B8A
:102F1000D02E31D02C00D020301020781020FC1082
:102F200030FC303800703FFFF03FFFF03800703168
:102F300086302387102787902F87D02F03D020300B
:102F4000102078102078102030102F03D02F87D039
:102F50002787902387103186303800703FFFF01F9D
:102F6000FFF81FFFF8041040020820020820041098
:102F700040082080104100104100082080041040CB
:102F80000000001FFFF81FFFF856652D4A65726BA1
:102F900000565A2D4A65726B0056592D4A65726B60
:102FA0000056582D4A65726B0050726F6265205949
:102FB000204F66667365740050726F6265205820FA
:102FC0004F666673657400452073746570732F6D6A
:102FD0006D005A2053746570732F6D6D0059205326
:102FE000746570732F6D6D00582053746570732F66
:102FF0006D6D00496E6974004D3432380050726F47
:103000006265204F66667365747300416363656C27
:1030100065726174696F6E0056656C6F636974796F
:103020000053657420486F6D65204F666673657444
:10303000730000000000000000000000000000001D
:10304000484200004842000080400202040000A004
:10305000400000A04000000040008098430080989D
:10306000430000C843FFFFFF5761726E696E673A05
:1030700020486F6D696E672042756D7020446976D7
:1030800069736F72203C20310A0053657474696E55
:1030900067732053746F7265640053657474696E4E
:1030A00067732053746F72656420280070012C01CF
:1030B00090012701B0012201C0011D01F00118019A
:1030C0001002130130020E01600209019002040196
:1030D000C002FF000003FA004003F5008003F00087
:1030E000D003EB002004E6007004E100E004DC0003
:1030F0004005D700C005D2004006CD00D006C8006C
:103100008007C3003008BE00F008B900C009B40051
:10311000B00AAF00B00BAA00D00CA500000EA000B2
:10312000500F9B00C01096005012910000148C00AC
:10313000C0158700B0178200B0197D00D01B780041
:10314000001E730040206E0090226900F02464008D
:1031500040275F0090295A00E02B5500102E5000A8
:1031600020304B0010324600E033410090353C00E7
:103170001037370070383200A0392D00B03A2800DF
:10318000A03B2300603C1E00103D1900903D140040
:10319000103E0F00703E0A00C03E0500003F0000D8
:1031A000403FFBFF803FF6FFC03FF1FF2020506C07
:1031B000616E6E657242756666657242797465739A
:1031C0003A20002046726565204D656D6F72793A30
:1031D0002000436F6D70696C65643A20466562201B
:1031E000203420323032310A00204C617374205573
:1031F0007064617465643A20323032312D30312D83
:103200003135207C20417574686F723A202844491A
:1032100047412D546563682C20415357583120761F
:10322000312E30290A00322E302E372E320A004D30
:1032300061726C696E0020536F66747761726520ED
:1032400052657365740A00205761746368646F6720
:103250002052657365740A002042726F776E206F8A
:1032600075742052657365740A0020457874657220
:103270006E616C2052657365740A00506F776572D9
:1032800055700A006175746F25632E6700473238E8
:103290005859004D31303031006572726F722077AD
:1032A000726974696E6720746F2066696C650A00C4
:1032B000446F6E6520736176696E672066696C6520
:1032C0002E0A004D323900456E6473746F707300BE
:1032D00025532025632025632025632025630020B6
:1032E000503A00656E6473746F7073206869743A45
:1032F000200020436F756E7420583A004D313036EF
:10330000205000453100626564002C20737973748D
:10331000656D2073746F70706564212048656174F9
:1033200065725F49443A200048656174696E6720A0
:103330004661696C65640048656174696E67206602
:1033400061696C6564004D31313220536875746475
:103350006F776E00202D20496E76616C6964206560
:1033600078747275646572206E756D626572202165
:103370000A00544845524D414C2052554E41574148
:103380005900546865726D616C2052756E61776189
:1033900079004572723A204D415854454D50004DC8
:1033A000415854454D502074726967676572656471
:1033B000004572723A204D494E54454D50004D49DA
:1033C0004E54454D5020747269676765726564009C
:1033D000202F002042403A0020403A0000506C6507
:1033E000617365205265736574005052494E5445AF
:1033F000522048414C5445440025533A202553005F
:10340000706F7765726F6666004B494C4C45442E71
:1034100020005072696E7465722068616C74656416
:103420002E206B696C6C28292063616C6C656421AB
:103430000A006563686F3A004572726F723A002045
:103440004A0020204D3432312049002020473239B3
:1034500020493939390A006163746976650A0020A8
:1034600053797374656D2076312E30312000202021
:10347000207C0A004E414E0020202E2020200020DB
:103480007C004C43443A0A004353563A0A002066F3
:103490006F7220003A0A0A000A42656420546F7075
:1034A0006F677261706879205265706F7274005036
:1034B000726F62696E67204661696C65640A0050CC
:1034C000726F62696E67204661696C656400496E5F
:1034D00076616C69642065787472756465720A003F
:1034E00020573A007C3C3E5E2B3D3F2F5B5D3B2CE2
:1034F0002A225C00446966663A2020200046726FEA
:103500006D5374703A00537465707065723A00556B
:103510006E4C6576656C3A004C6576656C65643A10
:10352000005261773A20202020000A4C6F676963BF
:10353000616C3A00436F756E7420453A00436170C8
:103540003A007D007D7D2C776F726B3A7B6D696EE2
:103550003A7B783A007D2C6D61783A7B783A002C82
:103560007A3A002C793A00617265613A7B66756C33
:103570006C3A7B6D696E3A7B783A004348414D4224
:1035800045525F54454D50455241545552450042B5
:103590004142595354455050494E470041524353BC
:1035A000004D4F54494F4E5F4D4F444553005448D2
:1035B00045524D414C5F50524F54454354494F4E34
:1035C000004C4F4E475F46494C454E414D450041EA
:1035D00055544F5245504F52545F53445F535441DA
:1035E000545553005344434152440050524F4D50A0
:1035F000545F535550504F525400454D4552474526
:103600004E43595F50415253455200434153455F29
:103610004C494748545F4252494748544E455353DA
:1036200000544F47474C455F4C494748545300535B
:103630004F4654574152455F504F574552004255EF
:10364000494C445F50455243454E54004C45564505
:103650004C494E475F44415441005A5F50524F42DB
:1036600045004155544F4C4556454C005052494E2B
:10367000545F4A4F420050524F4752455353004106
:1036800055544F5245504F52545F54454D5000567B
:103690004F4C554D45545249430042494E415259B1
:1036A0005F46494C455F5452414E53464552005384
:1036B000455249414C5F584F4E5F584F4646004671
:1036C00049524D574152455F4E414D453A4D617209
:1036D0006C696E20322E302E372E32202D20444938
:1036E00047412D5465636820415357583120763146
:1036F0002E3020284665622020342032303231209E
:1037000031343A33313A31352920534F55524345FC
:103710005F434F44455F55524C3A68747470733A36
:103720002F2F6769746875622E636F6D2F4D6172FC
:103730006C696E4669726D776172652F4D61726C4E
:10374000696E2050524F544F434F4C5F5645525371
:10375000494F4E3A312E30204D414348494E455F46
:10376000545950453A417274696C6C6572792053B2
:1037700069646577696E64657220583120455854D4
:1037800052554445525F434F554E543A312055559A
:1037900049443A63656465326132662D3431613281
:1037A0002D343734382D396231322D633535633657
:1037B000326633363766660A0050726F6265204F94
:1037C0006666736574205A003F5A206F7574206FC7
:1037D000662072616E67652028003F59206F7574FE
:1037E000206F662072616E676520282D003F58208B
:1037F0006F7574206F662072616E676520282D00DA
:1038000050726F6265204F6666736574205800655C
:103810006E7175657565696E672022006F6B00506B
:1038200072696E7420506175736564003F00496E63
:10383000697469616C697A6520454550524F4D0045
:103840006E6F74696669636174696F6E200041729E
:1038500074696C6C657279205369646577696E640C
:1038600065722058312052656164792E005072696A
:103870006E74696E672E2E2E0063616E63656C0038
:103880005072696E742041626F727465640044699D
:10389000736D6973730055492041626F727465647A
:1038A000004D323520500A4D323400526573756D2B
:1038B00065005549205061757365005061757369E5
:1038C0006E672E2E2E00726573756D65004545502E
:1038D000524F4D2056657273696F6E204572726F3C
:1038E0007200454550524F4D20496E646578204521
:1038F00072726F7200454550524F4D204352432023
:103900004572726F720049676E6F726500646F6E08
:10391000650A00496E73756666696369656E742031
:10392000646174610A004578747261706F6C6174CF
:10393000696E67206D6573682E2E2E0053544F50AC
:103940005045442E20005072696E74657220737465
:103950006F707065642064756520746F2065727285
:103960006F72732E204669782074686520657272C4
:103970006F7220616E6420757365204D393939206E
:10398000746F20726573746172742E202854656D93
:1039900070657261747572652069732072657365F4
:1039A000742E2053657420697420616674657220DA
:1039B00072657374617274696E67290A002121202F
:1039C00053544F502063616C6C6564206265636181
:1039D000757365206F6620424C546F75636820656F
:1039E00072726F72202D2072657374617274207709
:1039F000697468204D3939390A002F2F6163746961
:103A00006F6E3A00626567696E00656E6400707281
:103A10006F6D70745F0073686F7700486F74656EC8
:103A20006420746F6F20636F6C640A0053656E646A
:103A3000204D31303820746F20726573756D650AC2
:103A40000052656865617420446F6E650052656858
:103A5000656174696E672E2E2E005265686561740B
:103A6000004865617465722054696D656F757400F6
:103A700053656E64204D31303820746F2068656165
:103A800074206E6F7A7A6C650A004E6F7A7A6C6574
:103A9000205061726B6564000000803FABAA0A424F
:103AA000ABAA88420000CC42ABAA07435655294333
:103AB00000004B43ABAA6C43AB2A874300009843FA
:103AC0004732392050342052393939205400473296
:103AD000380A473239205031004D65736820256916
:103AE000204C6F61646564004D6573682025692012
:103AF0005361766564004C6F616420426564204DBB
:103B0000657368004D656D6F727920536C6F74003A
:103B10004E6F2053746F72616765004732392050D1
:103B20003420582573205925732052256900202DF3
:103B30002D2D2D2D00486F6D696E672058595A0044
:103B4000473238004F6666205072696E7465722085
:103B50004261636B75700047323920532D31004F3D
:103B6000757470757420666F722043535600473227
:103B700039205431004F757470757420666F72204F
:103B8000486F7374004732392054300045646974BB
:103B9000204D657368004D616E75616C6C792042D3
:103BA00075696C64204D6573680047323920493966
:103BB00039390A47323920503220422054300037F8
:103BC0002E205361766520426564204D6573680040
:103BD000362E2046696E652054756E6520416C6CEA
:103BE00000352E2056616C6964617465204D6573E3
:103BF0006800342E2046696E652054756E6520413C
:103C00006C6C00332E2056616C6964617465204DC4
:103C100065736800322E20536D6172742046696CA2
:103C20006C2D696E004732392050332054300031FA
:103C30002E204275696C6420436F6C64204D65735F
:103C40006800436F6E66696775726174696F6E00B4
:103C500043616E63656C004D32310052656C656185
:103C60007365204D65646961004D323200526573A1
:103C7000756D65205072696E74004174746163687B
:103C8000204D656469610054756E650053746F70F2
:103C9000205072696E7400506175736520507269AE
:103CA0006E74005374617274205072696E740043B4
:103CB000616E6E6F7420656E7465722073756264D8
:103CC00069723A2000022E2E0001526566726573F9
:103CD00068005061726B696E672E2E2E00000057CF
:103CE00061697420666F720066696C616D656E74DF
:103CF000206368616E676500746F2073746172740D
:103D0000005761697420666F720066696C616D6549
:103D10006E7420756E6C6F616400004E6F7A7A6C01
:103D2000652068656174696E6700506C65617365D4
:103D300020776169742E2E2E0000507265737320F7
:103D4000627574746F6E00746F2068656174206EA4
:103D50006F7A7A6C650000496E73657274206669CB
:103D60006C616D656E7400616E6420707265737352
:103D700020627574746F6E00746F20636F6E746967
:103D80006E7565005761697420666F720066696CB4
:103D9000616D656E74206C6F6164000050726573B4
:103DA0007320427574746F6E00746F207265737542
:103DB0006D65207072696E740000576169742066C9
:103DC0006F72207072696E7400746F207265737503
:103DD0006D652E2E2E00005761697420666F72008B
:103DE00066696C616D656E74207075726765000040
:103DF0002062797465733B2063726320004E6F20EC
:103E0000454550524F4D2E0A00454550524F4D20CA
:103E10006461746173697A65206572726F722E0ACB
:103E2000003F4D65736820746F6F2062696720667C
:103E30006F7220454550524F4D2E0A0055424C207E
:103E400072657365740A00206C6F61646564206636
:103E5000726F6D2073746F726167652E0A004D6515
:103E6000736820003F43616E277420656E61626C49
:103E700065200020696E697469616C697A65642ED9
:103E80000A0A002073746F72656420736574746924
:103E90006E677320726574726965766564202800A8
:103EA000202863616C63756C6174656429210A0064
:103EB00020213D2000454550524F4D204352432084
:103EC0006D69736D61746368202D202873746F723F
:103ED0006564292000496E6465783A2000444947AA
:103EE00049504F5453204C6F616465640A00444943
:103EF0004749504F5453204C6F6164696E670A0004
:103F0000204D61726C696E3D563832290A00454574
:103F100050524F4D2076657273696F6E206D6973D4
:103F20006D617463682028454550524F4D3D004DEA
:103F300065736820736176656420696E20736C6FA9
:103F40007420003F556E61626C6520746F20736150
:103F50007665206D65736820646174612E0A0020A7
:103F6000736C6F743D00206D65736865735F656E7B
:103F7000643D004532454E443D00206D6573682028
:103F8000736C6F747320617661696C61626C652E0D
:103F90000A003F496E76616C696420736C6F742E01
:103FA0000A004D657368206C6F61646564206672F9
:103FB0006F6D20736C6F7420003F556E61626C658D
:103FC00020746F206C6F6164206D6573682064617C
:103FD00074612E0A0048617264636F6465642044F2
:103FE000656661756C742053657474696E677320BF
:103FF0004C6F616465640A00000048430000484358
:104000000000A04100002042F43DA042F43DA04247
:1040100096E3C7430080DE43D0070000D0070000CE
:1040200064000000102700005374616E64617264C4
:1040300020446576696174696F6E3A200020526190
:104040006E67653A2000205369676D613A20004D24
:1040500065616E3A20005741524E494E4721204C2F
:104060006F77205A204A65726B206D6179206C65EC
:10407000616420746F20756E77616E746564207062
:1040800061757365732E0A00204D39322058002067
:10409000204D61783A200020204D696E3A2000536F
:1040A0006F667420656E6473746F70733A200020BD
:1040B000496E76616C6964206578747275646572A6
:1040C000200000002200250028002B002E003100D7
:1040D000340002010000050108010B01000021006D
:1040E000240027002A002D003000330001010000C9
:1040F000040107010A010505050507050808080868
:10410000020202020A0A080804040404010101016F
:10411000010101010303030303030303040707076A
:104120000C0C0C0C0C0C0C0C02020202060606060F
:10413000060606060B0B0B0B0B0B0B0B01021020DC
:1041400020080810204010204080020102010804CD
:104150000201010204081020408080402010080461
:1041600002018004020180402010080402010804BA
:1041700002010102040810204080010204081020FE
:1041800040803F454550524F4D2073746F726167B8
:1041900065206E6F7420617661696C61626C652E5A
:1041A0000A004F46460A0046616465204865696713
:1041B00068742000426564204C6576656C696E67A2
:1041C00020004661696C656420746F20656E6162D1
:1041D0006C6520426564204C6576656C696E670A83
:1041E00000496E76616C6964206D6573682E0A0003
:1041F00076616C69640A53746F7261676520736CD1
:104200006F743A20004D65736820697320003F4940
:104210006E76616C69642073746F72616765207378
:104220006C6F742E0A00446576696174696F6E0064
:1042300025533A2025730046696E697368656421C9
:104240000A003A207A3A2000206F662000476F6902
:104250006E6720746F3A20580043570A0020646943
:10426000723A0020616E676C653A00537461727433
:10427000207261646975733A004D343820506F695B
:104280006E740025533A2025642F256400506F7307
:104290006974696F6E696E67207468652070726FEB
:1042A00062652E2E2E0A003F4C656773206F6620D4
:1042B0006D6F76656D656E7420696D706C61757378
:1042C00069626C652028302D3135292E0A003F2087
:1042D00028582C5929206F7574206F6620626F75DD
:1042E0006E64732E0A0050726F6265206F757420C1
:1042F0006F6620626F756E6473003F53616D706C02
:10430000652073697A65206E6F7420706C617573B7
:1043100069626C652028342D3530292E0A004D3411
:1043200038205A2D50726F62652052657065617435
:104330006162696C69747920546573740A003F285E
:1043400056296572626F7365206C6576656C2069AD
:104350006D706C61757369626C652028302D34292D
:104360002E0A0000DD017B0211241FBECFEFD1E237
:10437000DEBFCDBF00E00CBF13E0A0E0B2E0EEEB8B
:10438000FAE303E00BBF02C007900D92AC31B10716
:10439000D9F72BE1ACE1B3E001C01D92AC3FB2070D
:1043A000E1F711E2C3EBD1E200E006C02197010979
:1043B000802FFE010F945D98C23BD10780E0080773
:1043C000A9F70F948A830D944D9D0C9400002F92B1
:1043D0003F924F925F926F927F928F929F92AF9295
:1043E000BF92CF92DF92EF92FF920F931F93CF93E2
:1043F000DF93CDB7DEB7E7970FB6F894DEBF0FBEF9
:10440000CDBF8EAB20913C052CAB21E020933C0529
:104410008091EF138D3409F411C3843511F40C9499
:10442000DB33873411F00C94ED338091ED139091D0
:10443000EE138B31910509F420C1B4F48430910559
:1044400034F482309105DCF597FF2DC0F3C285313D
:10445000910511F40C94EF338A31910509F409C1E7
:10446000049709F0E7C2C6C08A32910509F430C248
:1044700054F48D31910509F42BC10CF419C14E97F8
:1044800009F42AC1D7C28B35910509F49EC18C3538
:10449000910509F49FC18A35910509F0CBC21092AC
:1044A0002C030C94EF3380914B13813011F00C945A
:1044B000EF330F9401710E94F7A50C94EF33209114
:1044C0004B13213011F00C94EF3311E0029709F0F7
:1044D00010E00F94017119821A821B821C821D82C6
:1044E0001E821F82188682E50E94A5E7882309F4B0
:1044F0004BC00E941EE76B017C0120E030E0A90167
:104500000F946291882309F455C080914C059091D5
:104510004D05A0914E05B0914F0588A799A7AAA770
:10452000BBA78091500590915105A0915205B09183
:10453000530588AB99ABAAABBBAB80902905909093
:104540002A05A0902B05B0902C0540902D05509089
:104550002E0560902F0570903005A501940168A587
:1045600079A58AA59BA50F94629181110C94F833CB
:10457000A301920168A979A98AA99BA90F946291C4
:104580008823C1F00C94F83389E40E94A5E78823BE
:1045900031F00E941EE769837A838B839C838AE4CF
:1045A0000E94A5E7882331F00E941EE76D837E8379
:1045B0008F83988720E030E0A90169817A818B811F
:1045C0009C810F94629181110C94AC3420E030E016
:1045D000A9016D817E818F8198850F9462918111EF
:1045E0000C94AC340F94132584EC97E00F9489223B
:1045F0000C94EF3380E50E94A5E7882329F00F94FF
:10460000EE6F6B017C0103C0C12CD12C760183E5D8
:104610000E94A5E7882361F00E941EE720E030E0B9
:104620004AE754E40F94C8910F94D9996B017C0127
:104630000F941A0C8091FF13811105C060E08AED80
:1046400097E00F9459450E9426D4C60ED71EE81E47
:10465000F91E0E9426D4DC01CB018C199D09AE09FC
:10466000BF09B7FD02C00C94EF3380E00E94463DC5
:10467000F0CF0E94E1790C94EF3387E00E941CA0F8
:1046800081110C94EF338CE0EAE8F2E0DE01119640
:1046900001900D928A95E1F760E070E080E50F945B
:1046A000476EBE016F5F7F4F0F940A420C94EF3349
:1046B0008091D80C8770873011F00C94BF3460E083
:1046C0008FE40E94097881110C94EF330C94BF346D
:1046D0000E949DEC0C94EF332091250C3091260C18
:1046E0004091270C5091280C60914C0570914D051C
:1046F00080914E0590914F050F946698AB01BC01D7
:1047000088E50E946C5969837A838B839C8320910E
:10471000290C30912A0C40912B0C50912C0C60915B
:1047200050057091510580915205909153050F9459
:104730006698AB01BC0189E50E946C596D837E834C
:104740008F839887BE016B5F7F4FCE0101960F94D8
:104750009D1D882311F40C94EF3380E00F9490207A
:104760000E942CA161E085E40E94097801E021E02B
:1047700041E0682FCE0101960F9417256B017C0153
:104780009B01AC010F94B39B811119C049815A81DF
:104790006B817C8180E198E00F94E2244D815E8101
:1047A0006F8178858BE098E00F94E224B701A60131
:1047B00086E098E00F94E2248AE00E94B73B0E94D2
:1047C00013A10E94BFA30C94EF338FE080932C03BE
:1047D0000C94EF3392EA292E92E0392E2CECE22E43
:1047E0002CE0F22E2CE435E039A728A730E4C32EC4
:1047F00035E0D32E00E010E0D1018D911D010E9423
:10480000A5E7882309F44BC00E941EE72B013C0159
:10481000133049F0F60120813181428153810F9498
:1048200065982B013C01A8A5B9A52D913D914D910D
:104830005C91C301B2010F9465984B015C012DEBB3
:1048400037E346E855EB0F94C69A87FD0AC02DEB77
:1048500037E346E855E3C501B4010F946291181699
:10486000F4F4133051F44092580550925905609277
:104870005A0570925B0501E012C0A5019401F70191
:1048800060817181828193810F946698D7016D93C5
:104890007D938D939C931397812F0E94E99F1F5FB7
:1048A000B4E0EB0EF11CE8A5F9A53496F9A7E8A74A
:1048B000F4E0CF0ED11C143009F09ECF002321F07C
:1048C00088E595E00F943A0F0E94BFA30C94EF3354
:1048D00080914B13813011F00C94EF3389E40E94E6
:1048E000A5E7082F882321F00E941AE7E82E01C0CF
:1048F000E12C8AE40E94A5E7182F882321F00E946A
:104900001AE7F82E01C0F12C002319F029E02E152A
:1049100028F0112349F039E03F1530F488E198E0A0
:104920000F9489220C94EF3380E1ECE4F5E0A9E2E6
:10493000B5E001900D928A95E1F7002359F08E2D94
:104940000F946C1E6093290570932A0580932B05A4
:1049500090932C05112359F08F2D0F946C1E6093AA
:104960002D0570932E0580932F059093300560E000
:1049700080E50E9409788823C1F10023D1F02091BD
:10498000250C3091260C4091270C5091280C6091F9
:10499000290570912A0580912B0590912C050F9483
:1049A00065986093290570932A0580932B05909351
:1049B0002C051123D1F02091290C30912A0C409123
:1049C0002B0C50912C0C60912D0570912E0580912F
:1049D0002F05909130050F94659860932D05709385
:1049E0002E0580932F059093300540E050E0BA01EA
:1049F00086E40E946C596B017C0120E030E0A90143
:104A00000F94C69A18164CF420E030E040E752E4C8
:104A1000C701B6010F94609903C060E070E0CB015C
:104A200069837A838B839C83CE0101960E94B9AE01
:104A30000C94EF330E9424C00C94EF338091ED135B
:104A40009091EE138937910509F4B6C70CF002C1B5
:104A50008D34910509F4F8C40CF065C08A319105D4
:104A600009F417C374F58431910509F47CC27CF410
:104A70008131910509F463C22CF4029708F414C241
:104A80000C94D833429709F479C60C94D833873103
:104A9000910509F4ADC24CF48531910509F494C235
:104AA000469709F495C20C94D8338831910509F4DE
:104AB000B4C2499711F00C94D8330F94ED730C9451
:104AC000EF338F31910509F40CC47CF48C319105DE
:104AD00009F454C30CF4EBC28D31910509F456C3AB
:104AE0004E9709F45AC30C94D8338033910509F4D6
:104AF000A3C464F48032910509F4B0C3819711F026
:104B00000C94D8330E94815F0C94EF338B34910561
:104B100009F496C48C34910511F00C94D8330E949A
:104B2000E2A50C94EF338C36910511F40C94EF331D
:104B30000CF050C08535910509F424C64CF582353A
:104B4000910509F40BC6D4F48135910511F00C944C
:104B5000D8330F947B130F94143F0F942B0C0E94A7
:104B6000693968EE73E080E090E00F94E32160E043
:104B700084E299E00F9459450C94EF338335910505
:104B800009F4F4C58435910509F4F8C50C94D833BB
:104B90008936910509F4ADC454F48C35910509F4B6
:104BA00016C68836910509F453C40C94D8338A3656
:104BB000910509F4B2C48B36910511F00C94D833E9
:104BC00060E080E50F94527A60E070E00F94BE1CC4
:104BD0000C94EF338237910509F499C6D4F48F36DB
:104BE000910509F4E6C454F48D36910509F457C4CF
:104BF0008E36910509F4CAC40C94D83380379105D8
:104C000011F40C94EF338137910509F417C50C9416
:104C1000D8338637910509F492C654F48337910549
:104C200009F478C68537910509F477C60C94D83312
:104C30008737910509F4BDC68837910511F00C94AA
:104C4000D83381E08093F50C8093F40C0E94C9A4C2
:104C50000C94EF338039A1E09A0711F40C940231DF
:104C60000CF084C08D3C910511F40C947B2EB4F5AE
:104C70008B39910509F44AC5C4F48C38910509F4BF
:104C800002C54CF48D37910511F00C94D8330F9474
:104C9000ED730C94EF338139910509F494C686398C
:104CA000910509F404C70C94D833893C910509F4A3
:104CB000A6C754F48E3B910509F406C5883C9105BE
:104CC00009F432C70C94D8338B3C910509F4BDC765
:104CD0008C3C910509F4DBC70C94D8338232E1E0B7
:104CE0009E0711F40C94B02F04F58C3D910511F43E
:104CF0000C949C2E74F48E3C910511F40C947E2E31
:104D0000833D910511F00C94D8330F945A6E0C9496
:104D1000EF338D3D910511F40C94C32E88319140F1
:104D200011F40C94192F0C94D8338E3231E0930780
:104D300011F40C94BB306CF48C32B1E09B0711F48D
:104D40000C94B32F8D32914011F40C94C82F0C9415
:104D5000D8338F32F1E09F0711F40C94FF30803389
:104D6000914011F40C9448300C94D833883F31E0D2
:104D7000930711F40C9407320CF04AC0853AB1E065
:104D80009B0711F40C940F31C4F48239F1E09F07B2
:104D900011F40C940A3114F40C9405318A3931E081
:104DA000930711F40C94EF33843A914011F00C9472
:104DB000D8330F949D7A0C94EF33853FB1E09B0775
:104DC00011F40C9401327CF48C3AF1E09F0711F459
:104DD0000C94A531843F914011F00C94D8330F947A
:104DE000E1050C94EF33863F31E0930711F40C9406
:104DF0000432873F914011F00C94D83361E083E591
:104E00000E94097891E089270E9480DF0C94EF339B
:104E10008335B3E09B0711F40C945F331CF58B359D
:104E2000F2E09F0711F40C9424327CF48C3032E0D1
:104E3000930711F40C9417328835924011F00C94BA
:104E4000D8330F94E0720C94EF338D3BB2E09B07A4
:104E500011F40C949D328E3B924011F40C94A032CC
:104E60000C94D833803AF3E09F0709F42CC26CF419
:104E70008C3633E0930711F40C94EF33843893406D
:104E800011F40C9462330C94D833873EB3E09B0743
:104E900011F40C94CA33893E934011F00C94D8332A
:104EA0000E9451600C94EF3380E50E94A5E78823AF
:104EB00029F00F94EE6F6B017C0103C0C12CD12C43
:104EC000760183E50E94A5E7882361F00E941EE732
:104ED00020E030E04AE754E40F94C8910F94D99948
:104EE0006B017C010F941A0C80915E0490915F0419
:104EF000009721F061E00F94104605C060E081E466
:104F000098E00F9459458091ED139091EE13892B01
:104F100019F069E378E002C061E378E020E030E076
:104F20004AEF5DE182E00F949F4D40E0C701B6017A
:104F30000E94464280E00F9440460C94EF338091EB
:104F4000F01384FF02C00C94A1368091F21387FF06
:104F500002C00C94A1368091F313837011F00C946D
:104F6000A1360C94BE368091AD1A83FF25C08CE625
:104F700098E00F9489228091AD1A83FF17C088E7CB
:104F800098E10F941E2A8BE1E8E7F8E1DE01119623
:104F900001900D928A95E1F760E070E0CE010196F4
:104FA0000E945AC9CE0101960F94232A8DE598E0FC
:104FB0000F9489220C94EF330F946E278DE798E0BD
:104FC0000F9489220C94EF330E94D6C40C94EF33D3
:104FD0008091AD1A82FF02C00C94EF330E9417C477
:104FE0008091AD1A877F80628093AD1A0C94EF3365
:104FF000E0915E04F0915F048081882329F0803283
:1050000009F410823196F8CF60E080915E049091AF
:105010005F040E9401CB0C94EF3380914B0B8823EB
:10502000F9F080E090E0A8E4B2E488A399A3AAA3F1
:10503000BBA31C8E1D8E1E8E1F8E19821A821B8290
:105040001C8200E010E020E0AE01405E5F4FBE0138
:10505000645E7F4FCE0101960E941E780C94EF3360
:105060000E944539882321F00E9428C40E94BEA5D1
:1050700061E086EC98E30F942D4D4EE858E367E825
:1050800078E085E00E9427C180E00F9440460C94B0
:10509000EF338091AD1A83FD02C00C94EF3383E5AA
:1050A0000E94A5E781110C94CD360C94EF3383E474
:1050B0000E9457E78823C1F18DE998E00F94892277
:1050C00080912218882339F1BE016F5F7F4F8FE1F5
:1050D00098E10F94E5288E010F5F1F4FD8018D9145
:1050E0008D01882319F00E94B73BF8CFCE010196BD
:1050F0000E9489CA8091FF0B882389F080E20E9478
:10510000B73B0FEF1BE0F80181918F01882339F045
:105110000E94B73BF8CF83E998E00F9489228AE098
:105120000E94B73B0C94EF3383E50E94A5E78823E8
:1051300009F10E94E577182F90E0CD970CF01CE361
:10514000109320030E9426D46B017C01212F30E0B4
:10515000A8EEB3E00F940C98C60ED71EE81EF91EF9
:10516000C0921C03D0921D03E0921E03F0921F0315
:105170000C94EF330E94E7C30C94EF3380915E04EC
:1051800090915F040E94B7CA0C94EF338091AD1ADE
:105190008E7F8093AD1A0C94EF338091AD1A83FD0E
:1051A00002C00C94EF330E940AC08091AD1A83FDB7
:1051B00002C00C94EF3340915E0450915F04BE0135
:1051C000645E7F4F80E00F9444798C01009711F466
:1051D0000C94EF336C8D7D8D19821C8222E0AC0122
:1051E000CE0101960F94532E811102C0F12C14C0F0
:1051F000CE0101960F94B2788823C1F361E0CE010D
:1052000001960F94C928009789F325EEDC012C93B1
:105210001C820E941EC6F82ECE0101960F94232AEE
:10522000B801FF2089F084EC98E00F9400258AE013
:105230000E94B73B1092A91A1092AA1A1092AB1AA8
:105240001092AC1A0C94EF338CEA98E00F9400257E
:105250008BE193E40F9489220C94EF338091AD1A83
:1052600082FD0F941A0C8091AD1A83FD02C00C943C
:10527000EF3360E080E50E940978182F682F809155
:105280005E0490915F040E9401CB83E50E94A5E734
:10529000882381F00E940AE7AB01BC014093A91A60
:1052A0005093AA1A6093AB1A7093AC1A8FE198E1ED
:1052B0000E9444C80E9428C411110C94EF330E942C
:1052C000BEA50C94EF3320915E0430915F04909161
:1052D000AD1A92609093AD1AC9010E94B7CA0C949E
:1052E000EF330E946FA57B018C0120E831E541E09E
:1052F00050E00F94B897C9016DE671E00F943598AE
:105300004B015C01C801B70120E13EE040E050E004
:105310000F94B897CA01B90128E130E040E050E0AD
:105320000F94B897762E672EC62ED72E8CE3282E94
:10533000312C412C512CC801B701A20191010F94CD
:10534000B897F62EE72ECA01B901A20191010F9478
:10535000B897CB018E010F5F1F4F8114910499F014
:10536000EF92FF927F936F936F927F92BF92AF9273
:105370009F928F9282ED98E09F938F931F930F934C
:105380000F94FA9013C0A114B104B1F0EF92FF9200
:105390007F936F936F927F92BF92AF9286ED98E06A
:1053A0009F938F931F930F930F94FA900FB6F894D7
:1053B000DEBF0FBECDBF30C0CD2879F0EF92FF9297
:1053C0007F936F936F927F928AED98E09F938F9374
:1053D0001F930F930F94FA90E9CF892B69F0EF9206
:1053E000FF927F936F938EED98E09F938F931F931F
:1053F0000F930F94FA90DACFEF92FF9282EE98E03B
:105400009F938F931F930F930F94FA900F900F9089
:105410000F900F900F900F9060E0C8010F9410460E
:105420000F946E27B80186EE98E00F9400258AE06D
:105430000E94B73B0C94EF330F94357C0C94EF3300
:105440000E94BEA50C94EF330F94143F0C94EF33DD
:105450008091FA0A83FF02C00C94EF330F941E6E02
:1054600087FF02C00C94EF3389E40E94A5E78823EC
:1054700011F40C94DE360E94E57790E018161906B8
:1054800014F481E090E026E0289FF001299FF00DC0
:105490001124EF5CF34F808191810C94E836809168
:1054A000FA0A83FF02C00C94EF330F941E6EF82E9D
:1054B00087FF02C00C94EF3389E40E94A5E7082F10
:1054C000882311F40C94F1360E94E57790E01816C9
:1054D000190614F481E090E026E0289FF001299F4E
:1054E000F00D1124EF5CF34F8081918110E00C945A
:1054F00001370F941E6E182F87FD0AC08CE198E3C8
:105500000F948922812F0F94D1128AE00E94B73B19
:10551000BCA9B0933C050C94373860E080E50F944B
:10552000527A81110C94EF3381E40E9457E788236B
:1055300029F060918405062F10E002C00FEF10E003
:1055400089E40E94A5E7882399F00E94E57790E01E
:105550001816190614F481E090E026E0289FF00167
:10556000299FF00D1124EF5CF34F0481158108C0D1
:1055700083E50E94A5E7882319F00E940AE78B01C2
:10558000B80180E00F94BE1C0C94EF338EE40E94AF
:10559000A5E7882311F40C94EF330E940AE7609387
:1055A0005A0470935B0480935C0490935D040C94A4
:1055B000EF3383E50E9457E7882331F060E083E50D
:1055C0000F94527A8093FA0A0F946E2788EF98E02E
:1055D0000F9489228091FA0A882369F101E5E02E6F
:1055E0000AE0F02E00E010E020E08091FA0A90E05E
:1055F000A0E0B0E0002E04C0B695A79597958795DA
:105600000A94D2F780FF0EC0DD24D394D20E222359
:1056100019F08CE20E94B73BF701859194910F94A9
:1056200089222D2D0F5F1F4FE2E0EE0EF11C053099
:105630001105D9F674CD85E094E36FCD83E50E9422
:10564000A5E7882381F00E94E577282F30E02D33ED
:10565000310524F4809300020C94EF338CE38093A3
:1056600000020C94EF330F946E274091000250E03B
:1056700060E070E08FEF98E00F94C4248AE00E940D
:10568000B73B0C94EF338091FA0A83FF02C00C946D
:10569000EF3389E40E94A5E7882311F40C944B377B
:1056A0000E94E57790E01816190614F481E090E066
:1056B00026E0289FF001299FF00D1124EF5CF34FA5
:1056C000828193810C9456378091FA0A83FF02C03D
:1056D0000C94EF3389E40E94A5E7882311F40C941D
:1056E0005D370E94E57790E01816190614F481E002
:1056F00090E026E0289FF001299FF00D1124EF5C37
:10570000F34F8281938110E00C946E3783E50E9401
:10571000A5E7882311F40C94EF330E94E577182F46
:1057200090E0CD970CF01CE3109325030E9426D443
:105730006B017C01212F30E0A8EEB3E00F940C98B0
:10574000C60ED71EE81EF91EC0922103D092220376
:10575000E0922303F09224030C94EF3380912C0306
:105760008F7D806180932C030C94EF3380912C0308
:105770008F7E806280932C030C94EF330F94496FDB
:105780000C94EF3383E50E9457E7882311F40C94BF
:10579000EF330E9426D46093B8137093B9138093AB
:1057A000BA139093BB130E941EE720E030E04AE753
:1057B00054E40F94C8910F94D99960932603709381
:1057C000270380932803909329030C94EF330F94BD
:1057D0001E6E87FF02C00C94EF339091F01394FD7E
:1057E00004C09091F21397FF0AC0B2EACB2EB2E048
:1057F000DB2E1BEFE12E1AE0F12E10E009C0909194
:10580000F313937091F7682F81E00F94B36FE7C79C
:10581000D6018D916D010E94A5E7882309F46DC022
:10582000133009F063C00E941EE74B015C0120E0C9
:1058300030E040EA51E40F94629187FF4EC0A50129
:10584000940160911B0B70911C0B80911D0B90912A
:105850001E0B0F9460992B013C019B01AC016091E0
:105860007C0570917D0580917E0590917F050F9458
:10587000C89160937C0570937D0580937E0590931D
:105880007F05A301920160912B0B70912C0B8091ED
:105890002D0B90912E0B0F94C89160932B0B70934E
:1058A0002C0B80932D0B90932E0B609168057091BB
:1058B000690580916A0590916B050F946791A3012A
:1058C00092010F94C8910F94D999609368057093D1
:1058D000690580936A0590936B0580921B0B9092EB
:1058E0001C0BA0921D0BB0921E0B07C00E941EE75E
:1058F000F701648B758B868B978B1F5FF4E0EF0E3F
:10590000F11C143009F084CF0F94350B68C70F9445
:10591000553C65C70F94AC3A62C780915E04909184
:105920005F04009741F0DC012C91222321F060E01C
:105930000F94104654C780E00F94404650C7009122
:105940005E0410915F0494E0F12C40E0915021F14D
:10595000F8018081282F2B7F213421F421812133EC
:10596000D9F407C08035C1F4818180538A3048F072
:1059700013C0813421F0853421F441E002C0FF24BA
:10598000F39498012E5F3F4F89012F5F3F4FF8013D
:1059900080818032C9F3DACF41110F946E27FF2046
:1059A00021F081E499E00F948922C8010E94203DF2
:1059B00016C70E946CA413C71092F50C1092F40C39
:1059C0000E94C9A40CC760E070E083E50E94B2E7C2
:1059D000823038F00F94132585E499E00F948922E2
:1059E000FEC68C01112788E40E94A5E78823E1F018
:1059F0000E941AE78A3A910544F00E941AE785301E
:105A0000914034F40E941AE705C08AEA90E002C08F
:105A100084E091E026E0209FF001219FF00D112409
:105A2000EF5CF34F9183808382E40E94A5E7882393
:105A3000D9F00E941AE7059744F00E941AE78D38C2
:105A4000910534F40E941AE705C085E090E002C099
:105A50008CE890E026E0209FF001219FF00D1124BA
:105A6000EF5CF34F9383828386E40E94A5E788234B
:105A700009F4B5C60E941AE797FD09C00E941AE70B
:105A80008F3F910509F034F40E941AE705C080E0C9
:105A900090E002C08FEF90E026E0209FF001219F70
:105AA000F00D1124EF5CF34F9583848398C682E454
:105AB0000E9457E7882351F080912A0390912B038D
:105AC000892B31F00E94E577182F03C010E001C048
:105AD0001FEF85E50E9457E7882351F080912A0344
