:100000000C9401130C9432130C9432130C9432138D
:100010000C9432130C9432130C9432130C9432134C
:100020000C9432130C9432130C9432130C9432133C
:100030000C9432130C9432130C9432130C9432132C
:100040000C9432130C94DCA60C9432130C943213DF
:100050000C9432130C9432130C94128F0C94518C18
:100060000C9432130C9497730C9461730C943213A8
:100070000C9432130C9432130C9432130C943213EC
:100080000C9432130C9432130C9432130C943213DC
:100090000C9432130C9432130C9432130C943213CC
:1000A0000C9432130C9432130C9432130C943213BC
:1000B0000C9432130C9432130C9432130C943213AC
:1000C0000C9432130C9432130C9432130C9432139C
:1000D0000C9432130C9432130C9432130C9432138C
:1000E0000C943213084AD73B3BCE016E84BCBFFD53
:1000F000C12F3D6C74319ABD56833DDA3D00C77FF8
:1001000011BED9E4BB4C3E916BAAAABE0000008090
:100110003F05A84CCDB2D44EB93836A9020C50B91F
:10012000918688083CA6AAAA2ABE000000803F004B
:100130004E414E494E495459494E46CDCCCC3D0ACC
:10014000D7233C17B7D13877CC2B329595E6241FAF
:10015000B14F0A000020410000C84200401C462068
:10016000BCBE4CCA1B0E5AAEC59D7400407A10F33B
:100170005A00A0724E18090010A5D4E80000E876D5
:1001800048170000E40B54020000CA9A3B0000002C
:10019000E1F505000080969800000040420F000045
:1001A00000A08601000000102700000000E8030006
:1001B0000000006400000000000A000000000001D0
:1001C00000000000002C76D888DC674F0823DFC1D0
:1001D000DFAE59E1B1B796E5E3E453C63AE651998B
:1001E0007696E8E6C28426EB898C9B62ED407C6FB4
:1001F000FCEFBC9C9F40F2BAA56FA5F490055A2A6B
:10020000F75C936B6CF9676DC11BFCE0E40D47FE76
:10021000F520E6B500D0ED902E030094357705006B
:1002200080841E080000204E0A000000C80C3333F2
:1002300033330F986E12831141EF8D2114893BE601
:100240005516CFFEE6DB18D1844B381BF77C1D908A
:100250001DA4BBE424203284725E228100C9F124F3
:10026000ECA1E53D27434F4D4D554E49434154497F
:100270004F4E0044525952554E004552524F525320
:1002800000494E464F004543484F0053544F50508D
:1002900045442E20005072696E7465722073746F2D
:1002A000707065642064756520746F206572726F6C
:1002B00072732E2046697820746865206572726FAB
:1002C0007220616E6420757365204D393939207450
:1002D0006F20726573746172742E202854656D707E
:1002E00065726174757265206973207265736574D7
:1002F0002E205365742069742061667465722072C3
:10030000657374617274696E67290A004E6F2043C9
:100310006865636B73756D2077697468206C696EAE
:1003200065206E756D6265722C204C617374204C73
:10033000696E653A2000636865636B73756D206D47
:1003400069736D617463682C204C617374204C690F
:100350006E653A20004C696E65204E756D6265725F
:10036000206973206E6F74204C617374204C696E29
:1003700065204E756D6265722B312C204C61737453
:10038000204C696E653A20004D3131300053657262
:1003900069616C20737461747573206D69736D612C
:1003A0007463680A002121204B494C4C206361751D
:1003B00073656420627920746F6F206D75636820A7
:1003C000696E6163746976652074696D65202D209E
:1003D00063757272656E7420636F6D6D616E643AE1
:1003E0002000627573793A207061757365642066C8
:1003F0006F7220696E7075740A00627573793A20A5
:1004000070617573656420666F7220757365720A1A
:1004100000627573793A2070726F63657373696EE9
:10042000670A006563686F3A004572726F723A003E
:100430000A4D6561737572656420706F696E7473BF
:100440003A0A00357835206D6573682E205A206F82
:1004500066667365743A20002F2F616374696F6E4E
:100460003A006E6F74696669636174696F6E20002B
:10047000656E6400486F74656E6420746F6F2063EE
:100480006F6C640A00706175736564005061757308
:100490006500726573756D6564004469736D697399
:1004A0007300526573756D696E6700576169746991
:1004B0006E6720666F72206865617475702E0A0021
:1004C0004C656176696E6720473236003F53706530
:1004D00063696669656420582C5920636F6F726484
:1004E000696E617465206F7574206F6620626F7528
:1004F0006E64732E0A003F2852296570656174206E
:1005000076616C7565206E6F7420706C61757369AF
:10051000626C653B206D7573742062652061742088
:100520006C6561737420312E0A003F285229657072
:10053000656174206D7573742062652073706563E6
:100540006966696564207768656E206E6F742075D2
:1005500073696E6720616E204C43442E0A003F533E
:100560007065636966696564206E6F7A7A6C652070
:1005700074656D7065726174757265206E6F74203C
:10058000706C61757369626C652E0A003F5370650B
:100590006369666965642066696C616D656E742067
:1005A00073697A65206E6F7420706C61757369620F
:1005B0006C652E0A003F5370656369666965642047
:1005C0007072696D65206C656E677468206E6F74FB
:1005D00020706C61757369626C652E0A003F507201
:1005E000696D65206C656E677468206D7573742025
:1005F0006265207370656369666965642077686504
:100600006E206E6F74207573696E6720616E204C6A
:1006100043442E0A003F5370656369666965642030
:100620006E6F7A7A6C652073697A65206E6F7420BC
:10063000706C61757369626C652E0A003F52657457
:1006400072616374696F6E204D756C7469706C694A
:100650006572206D757374206265207370656369BF
:10066000666965642E0A003F537065636966696553
:10067000642052657472616374696F6E204D756C8D
:100680007469706C696572206E6F7420706C61752E
:100690007369626C652E0A003F5370656369666911
:1006A0006564206C6179657220686569676874208B
:1006B0006E6F7420706C61757369626C652E0A00D0
:1006C00043292E0A003F537065636966696564209B
:1006D0006265642074656D70657261747572652001
:1006E0006E6F7420706C61757369626C652028345C
:1006F000302D00473236207374617274696E672E34
:100700002E2E0A004F46460A004661646520486561
:10071000696768742000426564204C6576656C6981
:100720006E6720004661696C656420746F20656E99
:1007300061626C6520426564204C6576656C696E0B
:10074000670A004D65736820426564204C657665D4
:100750006C20646174613A0A00496E76616C696468
:10076000206D6573682E0A00206E6F7420656E74AC
:10077000657265642E0A00206F6620004D424C2091
:1007800047323920706F696E742000290A004A20B0
:100790006F7574206F662072616E67652028302D3A
:1007A00000290A0049206F7574206F662072616EFF
:1007B00067652028302D004732384C30004D657376
:1007C000682070726F62696E6720646F6E652E0AB2
:1007D000005374617274206D6573682070726F626B
:1007E000696E672077697468202247323920533157
:1007F000222066697273742E0A0047323953320020
:100800004732384C300A473239533200686173201E
:100810006E6F20646174612E0A004D65736820421A
:100820006564204C6576656C696E67200053206FA7
:100830007574206F662072616E67652028302D35D3
:10084000292E0A00416363757261637920446563F0
:1008500072656173696E67210044656372656173D7
:10086000696E6720416363757261637920446574C2
:1008700065637465642E0A00473238004732385A7F
:100880000041636375726163793A2000206F6620CE
:100890000044696420004733342061626F727465DC
:1008A000642E0A0041636375726163792041636855
:1008B000696576656400546172676574206163637D
:1008C00075726163792061636869657665642E0A73
:1008D000000A5A322D5A313D0050726F62696E67BC
:1008E000204661696C65640050726F62696E6720B2
:1008F0006661696C65640A000A473334204974658F
:10090000726174696F6E3A20003F2841296D706CE6
:10091000696669636174696F6E206F7574206F66B4
:1009200020626F756E64732028302E352D322E3084
:10093000292E0A003F28542961726765742061637B
:10094000637572616379206F7574206F6620626FC2
:10095000756E64732028302E30312D312E30292EC3
:100960000A003F2849297465726174696F6E206FAF
:100970007574206F6620626F756E64732028312D48
:100980003330292E0A0046696E6973686564210A4E
:10099000003A207A3A2000206F662000476F696E87
:1009A0006720746F3A20580043570A002064697228
:1009B0003A0020616E676C653A005374617274206E
:1009C0007261646975733A00506F736974696F6E10
:1009D000696E67207468652070726F62652E2E2EB6
:1009E0000A003F4C656773206F66206D6F76656DFA
:1009F000656E7420696D706C61757369626C6520D9
:100A000028302D3135292E0A003F2028582C59290D
:100A1000206F7574206F6620626F756E64732E0A86
:100A20000050726F6265206F7574206F6620626F70
:100A3000756E6473003F53616D706C652073697AE5
:100A400065206E6F7420706C61757369626C6520CF
:100A500028342D3530292E0A004D3438205A2D5097
:100A6000726F6265205265706561746162696C695C
:100A7000747920546573740A003F285629657262A0
:100A80006F7365206C6576656C20696D706C61753F
:100A90007369626C652028302D34292E0A00537446
:100AA000616E6461726420446576696174696F6E19
:100AB0003A20002052616E67653A2000204D61782F
:100AC0003A2000204D696E3A2000205369676D611D
:100AD0003A20004D65616E3A200020496E76616CC7
:100AE0006964206578747275646572200047322FDE
:100AF00047332062616420706172616D6574657254
:100B0000730A00536C6565702E2E2E005A205072A9
:100B10006F62652050617374204265640A005A2038
:100B200050726F62652050617374204265640020CA
:100B30005A3A200020593A200042656420583A2051
:100B4000004D65736820706F696E74206F75742036
:100B50006F662072616E67650A004D302053746FB6
:100B600070004D312053746F70004E6F204D6F76C2
:100B7000652E002569730025696D202569730025A0
:100B800069682025696D2025697300256964202521
:100B900069682025696D20256973002569792025FC
:100BA0006964202569682025696D20256973006EB8
:100BB0006F74696669636174696F6E200050726951
:100BC0006E742074696D653A20006F6B006F666605
:100BD00000860281027A027302650244454255474B
:100BE0003A004D313133205300417274696C6C65A9
:100BF0007279205369646577696E64657220583133
:100C0000204F46462E002F2F00205200416363657F
:100C10006C65726174696F6E3A2050005741524E94
:100C2000494E4721204C6F77205A204A65726B202D
:100C30006D6179206C65616420746F20756E7761D9
:100C40006E746564207061757365732E0A004D3291
:100C500030362058004F4646004F4E0020204D6150
:100C6000783A2000200020204D696E3A2000536F12
:100C7000667420656E6473746F70733A2000465218
:100C80003A0020466C6F773A20004D424C20416478
:100C90006A757374205A0020643A0020693A002073
:100CA000703A00496E76616C69642065787472757B
:100CB0006465720A0020643A0020693A0020703AA4
:100CC0000064697300656E0043290A0061626C6507
:100CD0006420286D696E2074656D702000436F6C10
:100CE0006420657874727564657320617265200094
:100CF0004D65736820706F696E74206F7574206F16
:100D0000662072616E67650A004D34323120696E6B
:100D1000636F727265637420706172616D65746572
:100D2000722075736167650A004F66667365747338
:100D3000204170706C69656400546F6F2066617249
:100D40002066726F6D207265666572656E636520E0
:100D5000706F696E740A00454550524F4D204F4BDD
:100D60000A002E0A002028302D313029002076611B
:100D70006C7565206F7574206F662072616E676593
:100D800000416476616E6365204B3D003F28592920
:100D9000206F7574206F6620626F756E64732E0A03
:100DA000003F285829206F7574206F6620626F7588
:100DB0006E64732E0A003F2853292050726F6265BB
:100DC0002D706F736974696F6E20696E6465782029
:100DD000696E76616C69642E0A003F285329206988
:100DE000732072657175697265642E0A004D343224
:100DF000322053006F6B00446966663A2020200061
:100E000046726F6D5374703A0053746570706572FA
:100E10003A00556E4C6576656C3A004C6576656CAB
:100E200065643A005261773A20202020000A4C6F16
:100E3000676963616C3A00436F756E7420453A00D0
:100E40004361703A007D002C7A3A002C793A007D9B
:100E50002C6D61783A7B783A002C7A3A002C793AFA
:100E6000007D7D2C776F726B3A7B6D696E3A7B7873
:100E70003A002C7A3A002C793A007D2C6D61783A50
:100E80007B783A002C7A3A002C793A0061726561DD
:100E90003A7B66756C6C3A7B6D696E3A7B783A008A
:100EA0004D4541545041434B00434F4F4C45525FD9
:100EB00054454D5045524154555245004348414DCB
:100EC0004245525F54454D5045524154555245009C
:100ED000424142595354455050494E4700415243B4
:100EE00053004D4F54494F4E5F4D4F4445530054AE
:100EF0004845524D414C5F50524F54454354494F21
:100F00004E004C4F4E475F46494C454E414D4500C3
:100F10004155544F5245504F52545F53445F5354C0
:100F2000415455530053445F57524954450052456C
:100F300050454154005344434152440050524F4D98
:100F400050545F535550504F525400484F53545FC4
:100F5000414354494F4E5F434F4D4D414E44530022
:100F6000454D455247454E43595F504152534552B6
:100F700000434153455F4C494748545F42524947FB
:100F800048544E45535300544F47474C455F4C49D6
:100F90004748545300534F4654574152455F504FB2
:100FA000574552004255494C445F50455243454EC7
:100FB00054004C4556454C494E475F44415441000E
:100FC0005A5F50524F42450052554E4F55540041C2
:100FD00055544F4C4556454C005052494E545F4A6B
:100FE0004F420050524F4752455353004155544FC2
:100FF0005245504F52545F54454D50004155544F47
:101000005245504F52545F504F5300564F4C554D20
:10101000455452494300454550524F4D0042494EB8
:101020004152595F46494C455F5452414E534645E3
:10103000520053455249414C5F584F4E5F584F46FE
:1010400046004649524D574152455F4E414D453A43
:101050004D61726C696E20322E302E392E31202D6A
:1010600020444947412D5465636820415357583106
:101070002076312E3020284A756C202035203230E1
:1010800032312031313A33333A34312920534F55FC
:101090005243455F434F44455F55524C3A6769742C
:1010A0006875622E636F6D2F4D61726C696E466953
:1010B000726D776172652F4D61726C696E2050524E
:1010C0004F544F434F4C5F56455253494F4E3A3160
:1010D0002E30204D414348494E455F545950453AC2
:1010E000417274696C6C65727920536964657769C3
:1010F0006E6465722058312045585452554445520B
:101100005F434F554E543A3120555549443A636533
:101110006465326132662D343161322D34373438B2
:101120002D396231322D63353563363266333637C9
:1011300066660A00290A0020746F20003F5A206F5B
:101140007574206F662072616E6765202800290A19
:101150000020746F20003F59206F7574206F662047
:1011600072616E676520282D00290A0020746F20A7
:10117000003F58206F7574206F662072616E67653E
:1011800020282D0050726F6265204F66667365746B
:1011900020580042656420436F6F6C696E672E2E85
:1011A0002E004265642048656174696E672E2E2E9C
:1011B0000023646566696E652044454641554C547C
:1011C0005F0000626564004B6420004B6920004BA7
:1011D000702000504944204175746F74756E65200D
:1011E00066696E697368656421205075742074683F
:1011F00065206C617374204B702C204B6920616EEC
:1012000064204B6420636F6E7374616E7473206628
:10121000726F6D2062656C6F7720696E746F20430A
:101220006F6E66696775726174696F6E2E680A0009
:10123000504944204175746F74756E65206661690C
:101240006C6564212074696D656F75740A0050497E
:1012500044204175746F74756E65206661696C65B4
:1012600064212054656D70657261747572652074B7
:101270006F6F20686967680A00204B643A2000207D
:101280004B693A2000204B703A200020436C617378
:1012900073696320504944200A00204E6F206F7606
:1012A000657273686F6F740A002054753A200020CD
:1012B0004B753A2000206D61783A2000206D696EF0
:1012C0003A200020643A200020626961733A2000CD
:1012D000504944204175746F74756E652073746154
:1012E00072740A00504944204175746F74756E65BC
:1012F000206661696C6564212054656D706572615A
:101300007475726520746F6F20686967680A005091
:101310004944204175746F74756E650050494420CE
:101320004175746F74756E65206661696C656421C2
:1013300020426164206865617465722069640A00F6
:10134000486F6D696E67204661696C6564006F70F7
:10135000656E00545249474745524544003A2000C3
:101360007A5F6D696E00795F6D696E00785F6D6997
:101370006E005265706F7274696E6720656E64737B
:10138000746F70207374617475730A0020746F6FCA
:10139000206C6F6E6720657874727573696F6E204C
:1013A00070726576656E7465640A0020636F6C64A4
:1013B00020657874727573696F6E207072657665DA
:1013C0006E7465640A00486F6D652025732573256A
:1013D0007320466972737400000000000000000072
:1013E000000000005761726E696E673A20486F6DA9
:1013F000696E672042756D702044697669736F72FB
:10140000203C20310A0002020400809843008098AA
:10141000430000C8430000A0400000A040000000BE
:101420004000809843008098430000C843000000BB
:1014300000000000000000000053657474696E67CE
:10144000732053746F72656400290A0020627974F6
:1014500065733B20637263200053657474696E6723
:10146000732053746F72656420280048617264634E
:101470006F6465642044656661756C74205365749F
:1014800074696E6773204C6F616465640A003B2069
:10149000003A0A0020204D36303320002055004C01
:1014A0000046696C616D656E74206C6F61642F75A8
:1014B0006E6C6F6164206C656E677468733A0020AF
:1014C000204D393030204B004C696E6561722041EF
:1014D0006476616E63653A0020204D3835312058BE
:1014E000005A2D50726F6265204F666673657400F6
:1014F00020440020490020204D333034205000206B
:10150000440020490020204D333031205000504904
:10151000442073657474696E67733A002020473203
:1015200039205334205A00204A00202047323920E5
:10153000533320490020204D3432302053004D6574
:10154000736820426564204C6576656C696E673A05
:101550000020204D323036205800486F6D65206FD6
:1015600066667365743A0020580020530020204DB1
:10157000323035204200416476616E6365643A2002
:10158000423C6D696E5F7365676D656E745F74690B
:101590006D655F75733E20533C6D696E5F66656572
:1015A00064726174653E20543C6D696E5F74726153
:1015B00076656C5F66656564726174653E20583C53
:1015C0006D61785F785F6A65726B3E20593C6D6132
:1015D000785F795F6A65726B3E205A3C6D61785F17
:1015E0007A5F6A65726B3E20453C6D61785F655F2E
:1015F0006A65726B3E0020540020520020204D325C
:101600003034205000416363656C65726174696FAA
:101610006E2028756E6974732F7332293A20503CFE
:101620007072696E745F616363656C3E20523C72D8
:101630006574726163745F616363656C3E20543CE2
:1016400074726176656C5F616363656C3E00202037
:101650004D3230312058004D6178696D756D2041F3
:101660006363656C65726174696F6E2028756E695D
:1016700074732F7332293A0020204D3230332058B2
:10168000004D6178696D756D206665656472617481
:1016900065732028756E6974732F73293A0053742B
:1016A0006570732070657220756E69743A0020440D
:1016B0000020204D32303020530020446973616295
:1016C0006C65640A0046696C616D656E74207365B3
:1016D0007474696E67733A0020286D6D29002020AC
:1016E000473231202020203B20556E6974732069D9
:1016F0006E206D6D00454550524F4D206461746100
:1017000073697A65206572726F722E0A00454550C2
:10171000524F4D2056657273696F6E204572726F1D
:101720007200454550524F4D20496E646578204502
:1017300072726F7200454550524F4D204352432004
:101740004572726F7200290A002062797465733BDA
:101750002063726320002073746F72656420736568
:101760007474696E677320726574726965766564F6
:10177000202800202863616C63756C61746564299E
:10178000210A0020213D2000454550524F4D204365
:101790005243206D69736D61746368202D20287336
:1017A000746F7265642920002053697A653A2000BD
:1017B000496E6465783A20000000484300004843C1
:1017C0000000A04100002042F43DA042F43DA042B0
:1017D00096E3C7430080DE43D0070000D007000037
:1017E0006400000010270000204D61726C696E3D9E
:1017F000563833290A00454550524F4D20766572C0
:1018000073696F6E206D69736D617463682028451C
:101810004550524F4D3D0024F4D43050C38E20C269
:10182000A24017828B7011127A910D816CD90AA88F
:1018300061E108C7586607615143061E4B5D05C14B
:1018400045A7041A411104093D9803713931034039
:1018500036DB0265339102D4305402802E1D0263C0
:101860002CEE01752AC501B028A001102781018F37
:101870002564012B244B01E0223401AC211F018D92
:10188000200D01801FFC00841EED00971DDF00B8B5
:101890001CD200E61BC600201BBC00641AB200B2BA
:1018A00019A8000A19A0006A189900D117910040E0
:1018B000178B00B516840031167E00B31579003AF7
:1018C000157300C7146F0058146A00EE1366008881
:1018D00013630025135E00C7125B006C12570015DE
:1018E000125400C111510070114F0021114B00D64C
:1018F0001049008D1047004610440002104200C0FD
:101900000F4000800F3E00420F3C00060F3B00CB13
:101910000E3800930E37005C0E3500270E3400F3AE
:101920000D3200C10D3100900D3000600D2E0032DF
:101930000D2D00050D2C00D90C2B00AE0C290085B7
:101940000C29005C0C2700350C27000E0C2600E843
:101950000B2400C40B2400A00B23007D0B23005A92
:101960000B2100390B2100180B2000F80A1F00D9A9
:101970000A1E00BB0A1E009D0A1D00800A1D00638E
:101980000A1C00470A1B002C0A1B00110A1A00F748
:10199000091A00DD091900C4091900AB09190092E0
:1019A0000917007B091800630917004C0916003657
:1019B000091600200916000A091500F5081500E0AF
:1019C000081400CC081400B8081400A408140090EF
:1019D0000813007D0812006B081300580812004617
:1019E0000812003408110023081100120811000128
:1019F000081100F0071000E0071000D0071000C029
:101A0000071000B0070F00A107100091070E008318
:101A1000070F0074070F0065070E0057070E0049F7
:101A2000070E003B070D002E070E0020070D0013C8
:101A3000070D0006070D00F9060C00ED060D00E08D
:101A4000060C00D4060C00C8060C00BC060C00B046
:101A5000060C00A4060B0099060C008D060B0082F4
:101A6000060B0077060B006C060B0061060A005798
:101A7000060B004C060A0042060A0038060A002E31
:101A8000060A0024060A001A060A001006090007C2
:101A9000060A00FD050900F4050900EB050900E24E
:101AA000050900D9050900D0050900C7050900BED0
:101AB000050900B5050800AD050800A50509009C4D
:101AC000050800940508008C050800840508007CC2
:101AD000050800740508006C050700650508005D31
:101AE000050700560508004E05070047050700409A
:101AF00005080038050700310507002A05070023FF
:101B00000507001C050600160507000F050700085D
:101B100005060002050700FB040600F5040700EEB9
:101B2000040600E8040600E2040700DB040600D512
:101B3000040600CF040600C9040600C3040600BD65
:101B4000040600B7040600B1040500AC040600A6B4
:101B5000040600A00405009B0406009504050090FF
:101B60000406008A04050085040500800406007A46
:101B700004050075040500700405006B040500668B
:101B8000040500610405005C0405005704050052CB
:101B90000405004D04050048040500430405003E0B
:101BA0000404003A04050035040500300404002C48
:101BB00004050027040400230405001E0404001A81
:101BC00004040016040500110404000D04040009B7
:101BD0000405000404040000040400FC030400F8ED
:101BE000030400F4030400F0030400EC030400E821
:101BF000030400E4030400E0030400DC030400D851
:101C0000030400D4030400D0030400CC030400C880
:101C1000030300C503030024F404D9201BC40C5C97
:101C20000E9804C4095F0265077101F405F900FB11
:101C300004B30048048700C103690058035500033A
:101C4000034500BE023A008402310053022A0029F3
:101C500002250004022000E4011C00C8011900AFA5
:101C60000117009801140084011300710110006134
:101C700001100051010E0043010D0036010B002B35
:101C8000010B0020010B00150109000C01090003E4
:101C9000010800FB000800F3000800EB000700E467
:101CA000000600DE000600D8000600D2000600CCC8
:101CB000000500C7000500C2000500BD000400B912
:101CC000000400B5000400B1000400AD000400A948
:101CD000000400A5000300A20003009F0004009B75
:101CE0000003009800030095000200930003009099
:101CF0000003008D0002008B0003008800020086B4
:101D000000020084000300810002007F0002007DC9
:101D10000002007B000200790002007700010076DB
:101D20000002007400020072000100710002006FE6
:101D30000002006D0001006C0002006A00010069F1
:101D400000020067000100660001006500010064F8
:101D50000002006200010061000100600001005FFC
:101D60000002005D0001005C0001005B0001005A00
:101D70000001005900010058000100570001005601
:101D80000001005500010054000100530000005301
:101D90000001005200010051000100500001004FFD
:101DA0000001004E0000004E0001004D0001004CFB
:101DB0000001004B0000004B0001004A00010049F7
:101DC00000010048000000480001004700010046F3
:101DD00000000046000100450000004500010044ED
:101DE00000010043000000430001004200000042E7
:101DF0000001004100000041000100400001003FDF
:101E00000000003F0001003E0000003E0001003DD8
:101E10000000003D0001003C0000003C0000003CD0
:101E20000001003B0000003B0001003A0000003AC6
:101E300000010039000000390001003800000038BE
:101E400000000038000100370000003700010036B4
:101E500000000036000000360001003500000035AB
:101E600000000035000100340000003400000034A0
:101E70000001003300000033000000330001003295
:101E8000000000320000003200010031000000318B
:101E90000000003100010030000000300000003080
:101EA0000001002F0000002F0000002F0000002F75
:101EB0000001002E0000002E0000002E0001002D69
:101EC0000000002D0000002D0000002D0001002C5E
:101ED0000000002C0000002C0000002C0001002B52
:101EE0000000002B0000002B0000002B0001002A46
:101EF0000000002A0000002A0000002A000100293A
:101F0000000000290000002900000029000000292D
:101F10000001002800000028000000280000002820
:101F20000000002800010027000000270000002713
:101F30000000002700000027000100260000002606
:101F400000000026000000260000002600010025F9
:101F500000000025000000250000002500000025ED
:101F600000000025000100240000002400000024DF
:101F700000000024000000240001002300000023D2
:101F800000000023000000230000002300000023C5
:101F900000000023000100220000002200000022B7
:101FA00000000022000000220000002200010021A9
:101FB000000000210000002100000021000000219D
:101FC000000000210000002100010020000000208E
:101FD0000000002000000020000000200000002081
:101FE00000000020000000200001001F0000001F72
:101FF0000000001F0000001F0000001F0000001F65
:102000000000001F0001001E0000001E0000001E56
:102010000000001E000000C23100001C260000F479
:10202000190000D80F0000EB080000C00400007584
:102030000200004001000020436F756E7420583A82
:102040000000626564002C2073797374656D2073E1
:10205000746F7070656421204865617465725F49B2
:10206000443A200048656174696E67204661696C76
:1020700065640048656174696E67206661696C65B6
:1020800064004D3131322053687574646F776E008F
:102090004572723A204D415854454D50004D4158BB
:1020A00054454D50207472696767657265640045D8
:1020B00072723A204D494E54454D50004D494E5490
:1020C000454D5020747269676765726564005448B5
:1020D00045524D414C2052554E415741590054688C
:1020E00065726D616C2052756E6177617900202F89
:1020F000002042403A0020403A0020573A00205742
:102100003A002053004D313036205000496E766140
:102110006C69642065787472756465720A00700178
:102120002C0190012701B0012201C0011D01F00125
:1021300018011002130130020E0160020901900221
:102140000401C002FF000003FA004003F500800311
:10215000F000D003EB002004E6007004E100E0048E
:10216000DC004005D700C005D2004006CD00D006F7
:10217000C8008007C3003008BE00F008B900C009DD
:10218000B400B00AAF00B00BAA00D00CA500000E3E
:10219000A000500F9B00C010960050129100001438
:1021A0008C00C0158700B0178200B0197D00D01BCD
:1021B0007800001E730040206E0090226900F02419
:1021C000640040275F0090295A00E02B5500102E34
:1021D000500020304B0010324600E0334100903573
:1021E0003C001037370070383200A0392D00B03A6B
:1021F0002800A03B2300603C1E00103D1900903DCC
:102200001400103E0F00703E0A00C03E0500003F63
:102210000000403FFBFF803FF6FFC03FF1FF202062
:10222000506C616E6E657242756666657242797455
:1022300065733A20002046726565204D656D6F72AA
:10224000793A2000436F6D70696C65643A204A7575
:102250006C20203520323032310A00204C617374FA
:1022600020557064617465643A20323032312D300B
:10227000362D3237207C20417574686F723A2028E1
:10228000444947412D546563682C204153575831C8
:102290002076312E30290A00322E302E392E310A86
:1022A000004D61726C696E0020536F6674776172C5
:1022B000652052657365740A002057617463686411
:1022C0006F672052657365740A002042726F776EE3
:1022D000206F75742052657365740A002045787408
:1022E00065726E616C2052657365740A00506F7779
:1022F000657255700A0073746172740A00205A3A4C
:102300000020593A0020583A00656E6473746F706B
:1023100073206869743A200000002100240027001F
:102320002A002D00300033000101000004010701E4
:102330000A0100002200250028002B002E00310099
:10234000340002010000050108010B010505050527
:10235000070508080808020202020A0A080804041D
:10236000040401010101010101010303030303034B
:102370000303040707070C0C0C0C0C0C0C0C0202DA
:10238000020206060606060606060B0B0B0B0B0BD7
:102390000B0B010210202008081020401020408064
:1023A0000201020108040201010204081020408019
:1023B00080402010080402018004020180402010A7
:1023C00008040201080402010102040810204080F0
:1023D000010204081020408000000A0B02090C0DC5
:1023E0000E080703040100000000000000000000C8
:1023F00000000000000000000000000000000000DD
:102400000000000012111000000000000000000099
:102410000000000000000000000000000000FFFFBE
:10242000FF50726F62696E67204661696C65640A6D
:102430000050726F62696E67204661696C65640066
:10244000205A3A200020593A200042656420583A28
:10245000200053656E64204D31303820746F207237
:102460006573756D650A00496E73657274206669DF
:102470006C616D656E7420616E642073656E64209E
:102480004D3130380A0052656865617420446F6EC2
:102490006500526568656174696E672E2E2E005264
:1024A0006568656174004865617465722054696D82
:1024B000656F75740053656E64204D31303820743B
:1024C0006F2068656174206E6F7A7A6C650A004EC1
:1024D0006F7A7A6C65205061726B65640070726F00
:1024E0006D70745F0073686F7700627574746F6EDF
:1024F00000626567696E0050757267654D6F726541
:102500000050617573656400436F6E74696E756524
:10251000004C6F61642046696C616D656E74205477
:1025200000496E736572742066696C616D656E74C6
:1025300020616E642073656E64204D3130380A006E
:1025400020746F6F206C6F6E67206578747275737E
:10255000696F6E2070726576656E7465640A00201E
:10256000636F6C6420657874727573696F6E207028
:10257000726576656E7465640A00220A00556E6B9A
:102580006E6F776E20636F6D6D616E643A2022000E
:10259000204500205A00205900204D393220580093
:1025A0004572726F722077726974696E6720746FFA
:1025B00020454550524F4D210A006F6B0A0052656D
:1025C00073656E643A200020453A00205A3A002094
:1025D000593A00583A00706F7765726F666600501E
:1025E00072696E7465722068616C7465642E206B0C
:1025F000696C6C28292063616C6C6564210A000099
:10260000C4B011241FBECFEFD1E2DEBFCDBF00E0CA
:102610000CBF12E0A0E0B2E0E6EEF7E801E00BBF8D
:1026200002C007900D92A23FB107D9F722E1A2EFB5
:10263000B2E001C01D92AF3FB207E1F713E1C1E084
:10264000D3E100E006C021970109802FFE010E941E
:10265000E3C0C030D10780E00807A9F70E94ACB101
:102660000C94F1C30C940000AF92BF92CF92DF9212
:10267000EF92FF920F931F93CF93DF93C9E3D0E1C3
:102680000AED1AE089E4A82E80E1B82EC12CD12CE5
:102690007601C39469917991899199910E943FBA89
:1026A000288939894A895B890E94A0BA0E9441C25F
:1026B000F80161937193819391938F01C616D706A8
:1026C000E806F90610F46B017C01AC16BD0611F7A3
:1026D0006FEF7FEFCB01A70196010E9465C02093A9
:1026E000EA0A3093EB0A4093EC0A5093ED0ADF912B
:1026F000CF911F910F91FF90EF90DF90CF90BF90FF
:10270000AF900895CF92DF92EF92FF928091B00345
:10271000882309F457C0C090AC03D090AD03E0907B
:10272000AE03F090AF0320E030E0A901C701B6018D
:102730000E943BBA882309F445C020E030E040E025
:102740005FE3C701B6010E94A0BA9B01AC010E94E1
:10275000A0BA2BED3FE049E450E40E94A0BA9B01EF
:10276000AC0160E070E080E89FE30E94D4C16B019F
:102770007C01C0929303D0929403E0929503F0926F
:1027800096036091190270911A02072E000C880BB3
:10279000990B0E9441BA2AE037ED43E25CE30E94C4
:1027A000A0BAA70196010E94A0BA60935802709344
:1027B000590280935A0290935B02FF90EF90DF9052
:1027C000CF900895C12CD12C80E8E82E8FE3F82E0D
:1027D000D0CF2F923F924F925F926F927F928F92C3
:1027E0009F92AF92BF92CF92DF92EF92FF920F93A0
:1027F0001F93CF93DF93CDB7DEB764970FB6F894EE
:10280000DEBF0FBECDBF7A8B698BDC018D909D90B2
:10281000AD90BC90139714962D913D914D915C9184
:1028200017972D833E834F83588720E030E040E2A6
:1028300051E4C501B4010E94F7C02DE633EF45E62F
:102840005CE30E94A0BA0E943CC264300CF427C131
:1028500063E0E62E660FFF08F701EE0FFF1FEE0F95
:10286000FF1FE851FE4E4080518062807380170147
:10287000BFEF2B1A3B0A20E030E040E251E46D81CB
:102880007E818F8198850E94F7C02DE633EF45E663
:102890005CE30E94A0BA0E943CC264300CF403C105
:1028A00063E0062F660F110BF801EE0FFF1FEE0F0E
:1028B000FF1FE851FE4E20813181428153812983DF
:1028C0003A834B835C83A8014F5F5F4F5C8B4B8BDC
:1028D000A5E0AE9DC001AF9D900D11249A87898718
:1028E000FC01E00FF11FEE0FFF1FEE0FFF1FEF5374
:1028F000FC4FC080D180E280F380F101EE0FFF1F1A
:10290000EE0FFF1FE851FE4EA3019201608171811D
:10291000828193810E94F7C06B877C878D879E8719
:10292000A3019201C501B4010E94F7C02B013C0133
:1029300025E0229DF001239DF00D1124F88BEF87F7
:10294000E00FF11FEE0FFF1FEE0FFF1FEF53FC4FC5
:10295000A701960160817181828193810E94F7C0F5
:102960002B853C854D855E850E94D4C1A3019201D3
:102970000E94A0BAA70196010E94F8C06B017C01D9
:10298000E985FA854B895C89E40FF51FEE0FFF1F7F
:10299000EE0FFF1FEF53FC4F80809180A280B38029
:1029A000EF85F889E40FF51FEE0FFF1FEE0FFF1FF5
:1029B000EF53FC4FA5019401608171818281938165
:1029C0000E94F7C02B853C854D855E850E94D4C151
:1029D000A30192010E94A0BAA50194010E94F8C02F
:1029E000A70196010E94F7C04B015C01EB89FC89AD
:1029F000EE0FFF1FEE0FFF1FE851FE4E29813A81B7
:102A00004B815C8160817181828193810E94F7C0DA
:102A10009B01AC01C501B4010E94D4C14B015C0112
:102A200029813A814B815C816D817E818F8198857E
:102A30000E94F7C09B01AC01C501B4010E94A0BA7D
:102A4000A70196010E94F8C0A989BA892D913D91EC
:102A50004D915C910E94A0BA2091250430912604EA
:102A600040912704509128040E94F8C064960FB644
:102A7000F894DEBF0FBECDBFDF91CF911F910F91B4
:102A8000FF90EF90DF90CF90BF90AF909F908F908E
:102A90007F906F905F904F903F902F90089567FFC9
:102AA000D8CE60E0D6CE67FFFCCE60E0FACE8F9243
:102AB0009F92AF92BF92CF92DF92EF92FF92CF930D
:102AC000DF93EC0180908A1090908B10A0908C1076
:102AD000B0908D1020E030E0A901C501B4010E9442
:102AE0003BBA882309F454C0C880D980EA80FB80AF
:102AF000A7019601C501B4010E943BBA18160CF05B
:102B00004CC02091811030918210409183105091DF
:102B10008410C701B6010E943BBA882331F1C092EC
:102B20008110D0928210E0928310F0928410209154
:102B300085103091861040918710509188106881DF
:102B400079818A819B810E94A0BA9B01AC0160E0DF
:102B500070E080E89FE30E94F7C0609315027093D5
:102B600016028093170290931802609115027091DB
:102B700016028091170290911802DF91CF91FF9079
:102B8000EF90DF90CF90BF90AF909F908F9008957F
:102B900060E070E080E89FE3F0CF60E070E0CB01A0
:102BA000ECCF0F931F93CF93DF9300D01F92CDB73D
:102BB000DEB7209189102223D1F08C01089677DFAF
:102BC00069837A838B839C83BE016F5F7F4FC801CB
:102BD00000DE9B01AC01F8016085718582859385DB
:102BE0000E94F7C0F80160877187828793870F90F2
:102BF0000F900F900F90DF91CF911F910F9108953B
:102C00000F931F93E62FDC01FC910F2F10E030E0B3
:102C100020E0062E04C036952795179507950A944F
:102C2000D2F700FF1CC00091860310E030E020E0E6
:102C300004C036952795179507956A95D2F700FF3A
:102C40000EC041E050E060E070E004C0440F551F4A
:102C5000661F771FEA95D2F740954F234C931F913B
:102C60000F910895CF93DF9324E0829FC001112438
:102C7000EC01C757DE4EFC01E856FB4F89579C4FCD
:102C8000DC012D913D914D915C916081718182813A
:102C900093810E94F8C0688379838A839B83DF9144
:102CA000CF910895CF93DF931F92CDB7DEB789837D
:102CB00060E0CE010196A4DF61E0CE010196A0DFC5
:102CC00062E0CE0101969CDF89810F90DF91CF9168
:102CD00008958091820390918303A0918403B09121
:102CE00085038093540290935502A0935602B093AB
:102CF00057028091800390918103909353028093B7
:102D0000520208958091540290915502A09156026A
:102D1000B09157028093820390938303A09384031E
:102D2000B093850380915202909153029093810356
:102D30008093800384E690E0909353028093520244
:102D4000089590E080E00895282F90914203833009
:102D500021F495FD0FC094FD0FC0892F90E0B0E0E5
:102D6000A0E004C0B695A795979587952A95D2F7C8
:102D70008170089581E0089580E00895FC016591D7
:102D80007591859194910895CF92DF92EF92FF9281
:102D9000CF93DF93EC01CC80DD80EE80FF8027E1D4
:102DA00037EB41ED58EBC701B6010E941FC387FD09
:102DB00023C023E030E848E953E4C701B6010E948C
:102DC0003BBA1816CCF0C880D980EA80FB8027E196
:102DD00037EB41ED58EBC701B6010E941FC387FDD9
:102DE0000BC0C1E023E030E848E953E4C701B60175
:102DF0000E943BBA18160CF4C0E08C2FDF91CF91E3
:102E0000FF90EF90DF90CF9008952FEB280F2A319D
:102E100008F047C0E22FF0E08091620390916303D5
:102E2000A0916403B091650304C0B695A7959795EA
:102E300087952A95D2F780FD02C081700895ED5BD9
:102E4000FC4FE081EE2341F18091371090913810D2
:102E5000E80FF92FF11D808190ED980F9A3030F036
:102E60008E3251F4818180538A3098F4F0933F037D
:102E7000E0933E0381E008958D3211F08B3249F4E6
:102E8000818190ED980F9A3088F38E3211F482810F
:102E9000EACFF0E0E0E0EACF10923F0310923E0369
:102EA000E9CF80E00895B1DF882341F081E02091EF
:102EB0003E0330913F03232B09F480E00895CF9324
:102EC000DF93EC01C43081E0D80714F0C4E0D1E016
:102ED000D0936804C09367046091630470916404A4
:102EE00080916504909166040E943CC2CB01BE01B2
:102EF000DF91CF910C949C8B0F931F93CF93DF9313
:102F00000DE410E1C3E0DBE0F80121913191419142
:102F100051918F0160E070E080E89FE30E94D4C18E
:102F20006993799389939993FBE0C331DF0761F744
:102F30000E944586DF91CF911F910F9195CB20E0A4
:102F400030E0A901BC0189E791E10C946D870F93F2
:102F50001F9380917203813019F50E94908B00912C
:102F60006A0310916B0320916C0330916D03601B19
:102F7000710B820B930B28EE33E040E050E00E948F
:102F800065C06091660370916703809168039091BA
:102F90006903620F731F841F951F1F910F9108957E
:102FA00060916E0370916F03809170039091710333
:102FB000D6CF80917203813079F482E080937203DE
:102FC0000E94908B60936E0370936F0380937003E5
:102FD0009093710381E0089580E0089563E00C947C
:102FE000DD8880913E0390913F03009731F04AE0E5
:102FF00050E070E060E00C94A6B860E070E0CB01B7
:10300000089580913E0390913F03009731F04AE08C
:1030100050E070E060E00C947AB760E070E0CB01C3
:103020000895EFDF97FD0AC0ECDF6F3F7105810562
:10303000910509F02CF4E5DF862F089580E00895CE
:103040008FEF0895CF93C62F2EDF882311F0CF91F5
:10305000E8CF8C2FCF91089580913E0390913F034C
:10306000892B39F0DEDF91E0811101C090E0892FDA
:10307000089591E0FCCFCF93DF93C82FD62F13DFB5
:10308000882319F0DF91CF91E7CF8C2FBEDE81111D
:1030900001C08D2FDF91CF910895B3DFCB0108954B
:1030A000CF93DF93EB01FFDE882319F0DF91CF91FF
:1030B000F4CFCE01DF91CF9108950F931F93CF935B
:1030C00080913E0390913F030097E9F0FC018F014E
:1030D000C1912C2F2F7D81F0C53411F0C536B9F781
:1030E000F801108270E060E00E9424B6F801C0830D
:1030F000CF911F910F91089570E060E0CF911F91E3
:103100000F910C9424B660E070E0CB01F1CFCF9228
:10311000DF92EF92FF926A017B01C5DE882329F0DE
:10312000FF90EF90DF90CF90C8CFC701B601FF901E
:10313000EF90DF90CF9008958F929F92AF92BF92C1
:10314000CF92DF92EF92FF920F931F93CF9389EB71
:10315000E82E8AE0F82E09E711E199E8C92E91E1FD
:10316000D92EC0E088E58C0F9EDE882309F474C058
:10317000A4DF4B015C018C2FE7DD882309F462C0DA
:10318000F8012081318142815381C501B4010E943F
:10319000F8C0F7016083718382839383CF5FF4E08B
:1031A000EF0EF11C0C5F1F4F84E0C80ED11CC33022
:1031B000C9F685E478DE882309F459C07EDF6B0107
:1031C0007C0183E0C1DD882371F02091851130916D
:1031D00086114091871150918811C701B6010E9454
:1031E000F8C06B017C01C092C50AD092C60AE09279
:1031F000C70AF092C80A40E050E0BA0186E487DFCF
:1032000020E030E0A9010E941FC318167CF455DFAE
:1032100020E030E040E752E40E94D4C160935402C1
:10322000709355028093560290935702CF911F914D
:103230000F91FF90EF90DF90CF90BF90AF909F9055
:103240008F900895F6012081318142815381C5011B
:10325000B4010E94F7C09DCFF80180819181A281C5
:10326000B381F70180839183A283B38397CF809149
:10327000851190918611A0918711B091881180934A
:10328000C50A9093C60AA093C70AB093C80AB3CFE1
:103290008F929F92AF92BF92CF92DF92EF92FF9266
:1032A000CF93DF93CDB7DEB760970FB6F894DEBF4C
:1032B0000FBECDBF80E090E0A8E1B3E48D839E8394
:1032C000AF83B8878D879E87AF87B88BE091A911B0
:1032D000F091AA1180809180A280B38020E030E03C
:1032E000A901C501B4010E94F8C06B017C0120E076
:1032F00030E040E251E40E943BBA87FF06C0C12C97
:10330000D12C90E2E92E91E4F92EC982DA82EB8287
:10331000FC8220E030E848E953E4C501B4010E9492
:10332000F8C06B017C0120E030E843E953E40E94DF
:103330001FC318163CF4C12C80E8D82E83E9E82E70
:1033400083E4F82EC986DA86EB86FC8680E1FE01EE
:103350003196A1EBB3E001900D928A95E1F760966A
:103360000FB6F894DEBF0FBECDBFDF91CF91FF90B7
:10337000EF90DF90CF90BF90AF909F908F90089587
:1033800040912D0421E042270C946986CF93DF936E
:1033900080919703811119C0C0911B02D0911C022A
:1033A000219720E030E040E05FE36091630470919A
:1033B000640480916504909166040E94F8C00E94A4
:1033C0003CC221E06C177D070CF020E0822FDF91DA
:1033D000CF9108950F931F93CF93DF9300D01F9247
:1033E000CDB7DEB7209189102223D1F08C01089649
:1033F0005EDB69837A838B839C83BE016F5F7F4F23
:10340000C801E7D99B01AC01F8016085718582850F
:1034100093850E94F8C0F80160877187828793873F
:103420000F900F900F900F90DF91CF911F910F9100
:1034300008954F925F926F927F928F929F92AF9278
:10344000BF92CF92DF92EF92FF920F931F93CF9391
:10345000DF93CDB7DEB768970FB6F894DEBF0FBE27
:10346000CDBF8C015B015A834983FC01EF5BFF4FA9
:1034700060817181828193810E943FBA6B017C01DE
:10348000D5012D913D914D915C910E94A0BA0E9471
:10349000BEC12B013C01E981FA8120813181428149
:1034A0005381C701B6010E94A0BA0E94BEC14B0160
:1034B0005C01C301B2010E9441C2698B7A8B8B8B84
:1034C0009C8B683771058105910540F428E730E051
:1034D00040E050E0298B3A8B4B8B5C8BC501B401EB
:1034E0000E9441C26D877E878F87988B68377105F0
:1034F0008105910540F488E790E0A0E0B0E08D8779
:103500009E87AF87B88BF801E35BFF4F2081318145
:103510004281538129833A834B835C83CA01B90179
:103520000E9441BA2B013C0169897A898B899C8967
:103530000E943FBA69877A878B879C8720E030E0BA
:10354000A901C301B2010E943BBA882309F43BC11F
:10355000A7019601C701B6010E94A0BA4B015C0108
:1035600029853A854B855C85CA01B9010E94A0BABC
:103570009B01AC01C501B4010E94F7C04B015C0185
:10358000A3019201C301B2010E94F8C09B01AC01EA
:10359000C501B4010E94D4C10E94BEC10E9441C2B3
:1035A0006D837E838F83988769817A818B819C81EB
:1035B00090958095709561957F4F8F4F9F4F0E949A
:1035C00041BA4B015C016D857E858F8598890E948B
:1035D0003FBA69837A838B839C8320E030E0A90122
:1035E000C501B4010E943BBA882309F4F0C02981C7
:1035F0003A814B815C81CA01B9010E94A0BA6D8BEE
:103600007E8B8F8B988FA7019601C701B6010E9410
:10361000A0BA9B01AC016D897E898F89988D0E942B
:10362000F7C06B017C01A5019401C501B4010E94A2
:10363000F8C09B01AC01C701B6010E94D4C10E9431
:103640006DC2D80195968D909D90AD90BC90989745
:10365000750164012D813E814F815885C21AD30ABC
:10366000E40AF50A0E9441C2C61AD70AE80AF90A12
:10367000F7FE6EC020E030E0A901C301B2010E9454
:103680003BBA882309F4A7C0C501B4010E943FBA20
:103690006B017C01A3019201C301B2010E94F8C039
:1036A0009B01AC01C701B6010E94A0BA6B017C016D
:1036B00029853A854B855C85CA01B9010E94A0BA6B
:1036C0009B01AC01C701B6010E94F7C06B017C01F0
:1036D00029813A814B815C81CA01B9010E94A0BA5B
:1036E0009B01AC01C701B6010E94F8C06B017C01CF
:1036F00020E030E040E850E4C301B2010E94A0BAEB
:103700009B01AC01C701B6010E94D4C10E94BEC199
:103710006B017C0120E030E0A9010E941FC3181654
:103720001CF0C12CD12C7601C701B6010E9441C208
:103730006D837E838F83988786169706A806B906C1
:1037400020F48D829E82AF82B886C12CD12C760166
:103750008D819E81AF81B885F80181A792A7A3A72B
:10376000B4A7C80ED91EEA1EFB1EC5A6D6A6E7A69C
:10377000F0AAEB5BFF4F29893A894B895C8920834A
:1037800031834283538334968D859E85AF85B88976
:1037900080839183A283B38368960FB6F894DEBFCB
:1037A0000FBECDBFDF91CF911F910F91FF90EF9092
:1037B000DF90CF90BF90AF909F908F907F906F9051
:1037C0005F904F90089560E070E0CB01E5CE60E03F
:1037D00070E0CB0134CF60E070E0CB0197CF8091F7
:1037E000AE119091AF11891B8F7019F490E080E0B9
:1037F00008959091AB11992351F0833030F48FEFFD
:10380000890F19F08093AB11F1CF1092AB11809119
:10381000AF1122E5829FC00111248B5E944FFC0101
:10382000208120FDE3CF2091AF112F5F2F702093D7
:10383000AC113091AF112091AD11321304C0209121
:10384000AC112093AD11089590916F0081E091FD2E
:1038500002C080E0089590916F009D7F90936F006B
:103860000895EFE6F0E08081826080830895CF9232
:10387000DF92EF92FF92CF93DF93C82FE5DF94E0C2
:10388000C99FE0011124FE01E45CFB4FC080D180A0
:10389000E280F3808111E5DFCD5FD44FC701B6012F
:1038A0000E9441BA288139814A815B810E94A0BA75
:1038B000DF91CF91FF90EF90DF90CF900895CF935D
:1038C000DF9380E0D4DFC4E7D3E0688379838A8321
:1038D0009B8381E0CCDF6C837D838E839F8382E03A
:1038E000C6DF688779878A879B87DF91CF910895A4
:1038F000CF92DF92EF92FF92CF93DF93C82FA4DF96
:1039000094E0C99FE0011124FE01E05DFB4FC080FF
:10391000D180E280F3808111A4DFCD5FD44FC70155
:10392000B6010E9441BA288139814A815B810E9497
:10393000A0BADF91CF91FF90EF90DF90CF900895E4
:10394000CF93DF93CDB7DEB72C970FB6F894DEBFD9
:103950000FBECDBF0E9434A777DF9CE0ECE3F4E01C
:10396000DE01119601900D929A95E1F7811179DFB0
:10397000CE0101960E94C99D2C960FB6F894DEBF29
:103980000FBECDBFDF91CF9108952F923F924F92FE
:103990005F926F927F928F929F92AF92BF92CF92DF
:1039A000DF92EF92FF920F931F93CF93DF9300D09C
:1039B000CDB7DEB78090791190907A11A0907B11ED
:1039C000B0907C1140907D1150907E1160907F11DD
:1039D00070908011C0908111D0908211E09083117D
:1039E000F09084110E9434130E9482130DE214E1BE
:1039F0008FE192E09B838A8381E2282E84E1382E36
:103A0000198289812FD9C801B9D9EA81FB816193D3
:103A1000719381939193FB83EA83C101AFD9EA81CA
:103A2000FB816087718782879387F981FF5FF983C4
:103A30000C5F1F4F84E0280E311CF33011F789E230
:103A400094E00E94D48658DAA5019401609179111E
:103A500070917A1180917B1190917C110E943BBAF8
:103A600081111CC0A301920160917D1170917E11A2
:103A700080917F11909180110E943BBA81110EC0FC
:103A800020918111309182114091831150918411C4
:103A9000C701B6010E943BBA8823B1F00F900F9086
:103AA0000F90DF91CF911F910F91FF90EF90DF90DA
:103AB000CF90BF90AF909F908F907F906F905F90CE
:103AC0004F903F902F903CCF0F900F900F90DF9131
:103AD000CF911F910F91FF90EF90DF90CF90BF900B
:103AE000AF909F908F907F906F905F904F903F909E
:103AF0002F9008958F929F92AF92BF92CF92DF92B4
:103B0000EF92FF92CF93DF9320911D02222309F4BD
:103B10009EC0EC0180918603C82ED12CF12CE12CA3
:103B200080FF2CC080901F0290902002A090210264
:103B3000B0902202288139814A815B81C501B4019C
:103B40000E941FC3181624F488829982AA82BB821D
:103B500080902B0290902C02A0902D02B0902E020B
:103B6000288139814A815B81C501B4010E943BBA39
:103B700087FF04C088829982AA82BB82D701C601CE
:103B8000B695A7959795879580FF2CC080902302C6
:103B900090902402A0902502B09026022C813D81B5
:103BA0004E815F81C501B4010E941FC3181624F421
:103BB0008C829D82AE82BF8280902F0290903002D4
:103BC000A0903102B09032022C813D814E815F8104
:103BD000C501B4010E943BBA87FF04C08C829D825C
:103BE000AE82BF8282E0F694E794D794C7948A9518
:103BF000D1F7C0FE2CC0C0902702D0902802E090E0
:103C00002902F0902A02288539854A855B85C701FB
:103C1000B6010E941FC3181624F4C886D986EA8606
:103C2000FB86C0903302D0903402E0903502F090D1
:103C30003602288539854A855B85C701B6010E9411
:103C40003BBA87FF04C0C886D986EA86FB86DF9127
:103C5000CF91FF90EF90DF90CF90BF90AF909F906B
:103C60008F9008951F93CF93DF93CDB7DEB7609702
:103C70000FB6F894DEBF0FBECDBF182F20DE1D8615
:103C80001E861F86188A8091740390917503A091F7
:103C90007603B091770389839A83AB83BC83809149
:103CA000780390917903A0917A03B0917B038D837F
:103CB0009E83AF83B88780917C0390917D03A09110
:103CC0007E03B0917F0389879A87AB87BC8783E0A7
:103CD000CEDD6D877E878F87988BCE0101960E94FF
:103CE000D1151E3F99F480E1FE013196A9E7B1E1BB
:103CF00001900D928A95E1F760960FB6F894DEBFB9
:103D00000FBECDBFDF91CF911F91089584E0189F22
:103D1000F0011124DF01A758BE4E81E090E08C0F26
:103D20009D1FE80FF91F40815181628173814D937E
:103D30005D936D937C931397DFCF0C9445868091B0
:103D40009504811105C08091CB0A882309F463C0D2
:103D500080917303659959C081608093730390913A
:103D600003018091730391FD52C0826080937303BD
:103D7000809173034B994DC084608093730380914D
:103D80002F0480FF10C08091960480FF0CC08091AA
:103D9000730380FF08C08091CA0A81608093CA0AB9
:103DA00080E00E94E99D80912F04869580FF11C0DC
:103DB00080919604869580FF0CC08091730381FFEB
:103DC00008C08091CA0A82608093CA0A81E00E947A
:103DD000E99D80912F048695869580FF1CC0809177
:103DE00096048695869580FF16C08091CB0A88231D
:103DF00091F08091730382FF0EC08091CA0A8460A3
:103E00008093CA0A82E00C94E99D8E7FA6CF8D7FB5
:103E1000ADCF8B7FB2CF08958091CA0A882319F065
:103E20001092CA0A089560E080E493E10E94828FB4
:103E30001092720310926A0310926B0310926C033B
:103E400010926D0310926E0310926F031092700324
:103E50001092710310926603109267031092680328
:103E6000109269030895809172038130E1F08230ED
:103E7000C1F46DD860936603709367038093680301
:103E80009093690381E0809372030E94908B60930A
:103E90006A0370936B0380936C0390936D0381E0CE
:103EA0000895C6DFEFCF80E00895809172038150BE
:103EB000823070F4109272030E94908B60936E03B4
:103EC00070936F03809370039093710381E0089562
:103ED00080E008958F929F92AF92BF92CF92DF922F
:103EE000EF92FF920F931F93CF93DF9310925E0395
:103EF00010925D032FE320936103109260031092F0
:103F00005F03109262031092630310926403109295
:103F100065039C01F90190812F5F3F4F9032D1F3EF
:103F20009E34C9F4818190ED980F9A3020F08D3243
:103F300011F08B3281F432969F012F5F3F4F8081C9
:103F400080538A3008F46BC09F012F5F3F4F808100
:103F5000803209F466C0F0933810E09337108F0177
:103F60000F5F1F4FC0816AE270E0C8010E94C6C3A4
:103F7000009731F0FC01319780818032E1F31182AA
:103F8000CD3421F0C43511F0C734E1F5F80180815A
:103F90000F5F1F4F8032D1F380538A3098F5C09362
:103FA000610330E020E06AE0AF014F5F5F4F629F46
:103FB000C001639F900D11249C0120533109808121
:103FC000280F311D87FD3A95FA01808180538A3090
:103FD00058F33093600320935F03DF0131968C9197
:103FE0008032D9F3CD3449F52E31310539F0D8F48A
:103FF0002731310519F02C313105F9F4B0935E0306
:10400000A0935D03DF91CF911F910F91FF90EF90EF
:10401000DF90CF90BF90AF909F908F900895F9015F
:104020008BCFF90191CF2537310538F0273731058E
:1040300028F3203A83E0380709F3D091371040E0A5
:1040400050E0BA0110E000E0C12CD12C7601C394FD
:10405000FD0131968C91882309F47FC08132E1F40F
:10406000CD34D1F420323105B9F44093620350933A
:1040700063036093640370936503F0935E03E093BE
:104080005D0363E270E0CF010E94C6C3009709F4AC
:10409000B9CFFC011082B6CF81548A3108F058C0E4
:1040A000DF019D91903291F0A0EDA90FAA30E8F0C8
:1040B0009E3271F4918190539A30B8F00115110538
:1040C00019F48F010150110990E013C0FD01E8CFF0
:1040D0009D3211F09B3291F79181A0EDA90FAA308A
:1040E00020F09E3259F79281E6CF9E2F9D1B30978C
:1040F00059F3A82FB0E04601570104C0880C991C61
:10410000AA1CBB1C8A95D2F7482959296A297B2900
:10411000AD5BBC4F9C9380818154DF018A3108F4F0
:1041200097CFDF018191882309F492CF90ED980F0A
:104130009A30B8F393ED980F923098F38B3289F35D
:10414000CD010196EC91E03209F082CFDC01F8CF8D
:104150000115110501F78D01DECF10935E03009369
:104160005D03409362035093630360936403709311
:10417000650348CF4F925F926F927F928F929F928A
:10418000AF92BF92CF92DF92EF92FF92CF93DF93E5
:1041900000D000D01F921F92CDB7DEB75C01DB01CB
:1041A000CD90DD90ED90FC90E091A911F091AA11D5
:1041B000FE83ED8384819581A681B78189839A836B
:1041C000AB83BC839C01AD01C701B6010E94F7C05F
:1041D0002B013C01F50180809180A280B380AD81EC
:1041E000BE818D919D910D90BC91A02D8D839E835C
:1041F000AF83B88727E137EB41ED58EBC301B2013C
:104200000E941FC387FDD3C023E030E848E953E490
:10421000C301B2010E943BBA18160CF4C8C02D812C
:104220003E814F815885C501B4010E94F7C02B0122
:104230003C0127E137EB41ED58EB0E941FC387FD9E
:10424000B6C023E030E848E953E4C301B2010E945C
:104250003BBA18160CF4ABC020E030E0A9016D8128
:104260007E818F8198850E94F8C02B013C0120E05F
:1042700030E040E251E40E943BBA87FF06C0412C87
:10428000512C30E2632E31E4732E27E137EB41ED00
:1042900058E3C301B2010E94F7C09B01AC01C50104
:1042A000B4010E941FC387FD82C020E030E848E9C6
:1042B00053E46D817E818F8198850E94F8C02B0127
:1042C0003C0120E030E843E953E40E941FC3181684
:1042D0003CF4412C20E8522E23E9622E23E4722E76
:1042E00027E137EB41ED58E3C301B2010E94F8C06A
:1042F0009B01AC01C501B4010E943BBA18160CF435
:1043000056C020E030E0A90169817A818B819C81CF
:104310000E94F8C04B015C0120E030E040E251E433
:104320000E943BBA87FF06C0812C912C90E2A92EF7
:1043300091E4B92E27E137EB41ED58E3C501B40113
:104340000E94F7C09B01AC01C701B6010E941FC3C8
:1043500087FD2DC020E030E848E953E469817A8187
:104360008B819C810E94F8C04B015C0120E030E809
:1043700043E953E40E941FC318163CF4812C80E8E3
:10438000982E83E9A82E83E4B82E27E137EB41ED80
:1043900058E3C501B4010E94F8C09B01AC01B1E033
:1043A000B983C701B6010E943BBA18160CF41982F2
:1043B000898128960FB6F894DEBF0FBECDBFDF917E
:1043C000CF91FF90EF90DF90CF90BF90AF909F90F4
:1043D0008F907F906F905F904F900895CF93DF9371
:1043E000C0918404D0918504209729F160918004C4
:1043F0007091810480918204909183040E943CC258
:104400006E5F7F4F24976C177D07ACF470934E045A
:1044100060934D040E94908B605A75418F4F9F4F5F
:1044200060934F047093500480935104909352040E
:10443000DF91CF91089510924F0410925004109282
:10444000510410925204F4CFCF93DF93EFE5F4E0E0
:10445000C085D18564817581868197810E943CC227
:10446000CB01BE01DF91CF910C949C8B843021E075
:10447000920714F084E091E09093680480936704BD
:10448000E3CFCF93DF93EC01688170E085E00E9479
:104490000D8A698170E084E00E940D8A6A8170E073
:1044A00086E00E940D8A88819981482F490F5527FF
:1044B000551F8A81840F952F911D21E0833091052E
:1044C0000CF420E020934C0403976CF051E1C03DC4
:1044D000D50749F088819981AA818093D011909362
:1044E000D111A093D211DF91CF9108958F929F9215
:1044F000AF92BF92CF92DF92EF92FF92CF93DF9372
:1045000000D0CDB7DEB72FEF8417950731F16A01E0
:10451000052E000CEE08FF084C01092E000CAA081D
:10452000BB08681779072CF0CB01461757070CF426
:10453000CA019C01990F440B550B281939094A09E6
:104540005B09AFEFB0E00E94A3C0A7019601281954
:1045500039094A095B090E9487C080917704821754
:1045600051F0209377048FEF89831A8220952B8353
:10457000CE01019686DF0F900F900F90DF91CF91C3
:10458000FF90EF90DF90CF90BF90AF909F908F9073
:1045900008958F929F92AF92BF92CF92DF92EF9247
:1045A000FF92CF93DF9300D0CDB7DEB72FEF841704
:1045B000950731F16A01052E000CEE08FF084C0149
:1045C000092E000CAA08BB08681779072CF0CB014C
:1045D000461757070CF4CA019C01990F440B550B61
:1045E000281939094A095B09AFEFB0E00E94A3C05E
:1045F000A7019601281939094A095B090E9487C059
:1046000080917704821749F02093770429831A82D6
:104610008FEF8B83CE01019634DF0F900F900F90B8
:10462000DF91CF91FF90EF90DF90CF90BF90AF9050
:104630009F908F9008951092250410922604109256
:10464000270410922804E1ECF3E084E6DF011D92D8
:104650008A95E9F70895EF92FF920F931F93CF93F6
:10466000DF9301EC13E0C5E07801D5E0F70161913B
:104670007191819191917F0120E030E0A9010E9428
:104680003BBA81110EC0D15089F7C1500C5E1F4F4B
:10469000C111EACFDF91CF911F910F91FF90EF9061
:1046A000089581E0F7CFCF92DF92EF92FF926B01F6
:1046B0007C0183E3C816D104E104F10470F082E3C5
:1046C000C81AD108E108F10862E370E080E090E0E8
:1046D0000E94F68A0E94A691ECCFC701B6010E9403
:1046E000F68AFF90EF90DF90CF900C94A691809186
:1046F0009504811104C08091CB0A882329F062E0DF
:1047000070E080E090E0CFCF0895129A089541E0E4
:1047100050E060E070E004C0440F551F661F771F33
:104720008A95D2F740958091C90A48234093C90AD7
:1047300008955F9A80E0EBDF8A9A81E0E8DF80915C
:1047400008018095817080930601479A82E0DFDF3F
:10475000DCCF81E008959091C10095FD0CC090914F
:10476000C00095FF08C08093C6008091C00080649F
:104770008093C00008952091F7022F5F2F700FB62D
:1047800007FC27C09091F802921328C09091C000B6
:1047900095FF1EC09091F8024091F702941306C055
:1047A0009091C1009F7D9093C10012C0E92FF0E06D
:1047B000E950FD4F32819F5F9F703093C600909308
:1047C000F8023091C00030643093C000491741F3C3
:1047D000D9CF9091F802921301C0FBCFE091F7027C
:1047E000F0E0E950FD4F82832093F7028091C100F1
:1047F00080628093C1000895CF93DF93EC0189918B
:10480000882311F0A8DFFBCFDF91CF910895CF93DC
:10481000DF93EC018991882311F09DDFFBCF8DE0C0
:104820009ADF8AE0DF91CF9196CFCF92DF92EF921D
:10483000FF920F931F93CF93DF93CDB7DEB7A0976F
:104840000FB6F894DEBF0FBECDBF442309F443C0BA
:10485000611571058105910571F100E0C42ED12C1F
:10486000F12CE12CA70196010E9465C011E0100F08
:10487000E1E0F0E0EC0FFD1FE00FF11D07FDFA9500
:104880006083B901CA01012F611571058105910588
:1048900049F7115000F1E1E0F0E0EC0FFD1FE10FEE
:1048A000F11D17FDFA95908187E39A3008F480E3B3
:1048B000890F51DFEECF80E3A0960FB6F894DEBFEC
:1048C0000FBECDBFDF91CF911F910F91FF90EF9061
:1048D000DF90CF9040CFA0960FB6F894DEBF0FBE0A
:1048E000CDBFDF91CF911F910F91FF90EF90DF909F
:1048F000CF900895CF92DF92EF92FF92CF936B010A
:104900007C01C42F4A3061F4F7FE0AC0F094E094B1
:10491000D094C094C11CD11CE11CF11C8DE21BDFA2
:104920004C2FC701B601CF91FF90EF90DF90CF9051
:104930007CCFCF93DF93EC01FE01849121968823F5
:1049400011F009DFF9CFDF91CF910895CF93C82FF0
:10495000CB01EFDF8DE593E1ECDF8EE493E1CC2337
:1049600011F083E593E1E5DF8AE0CF91F4CECF93B8
:1049700082E793E1DEDF8CB1C1E085FB882780F917
:104980006CE673E18C27E2DF8091030186958170EC
:1049900066E673E18C27DADF89B183FB882780F92B
:1049A00060E673E18C27CF91D1CF0F931F93CF9304
:1049B0008C01C62F80E49EE0BCDFC801BADF8AE329
:1049C000CADE80E38C0FC7DE8AE0CF911F910F9182
:1049D000C2CEAF92BF92CF92DF92EF920F931F930E
:1049E000CF93DF935B01EA016901882309F45AC080
:1049F00083ED9AE09EDFF501608171818281938170
:104A000046E00E94AC8CE1100AC08AEC9AE091DF8B
:104A1000688179818A819B8146E00E94AC8C83EC1D
:104A20009AE087DFF601608171818281938143E0A2
:104A30000E94AC8C8CEB9AE07CDFF8016081718184
:104A40008281938143E00E94AC8C83EB9AE071DF1A
:104A5000F6012081318142815381F80160817181A9
:104A6000828193810E94F7C043E00E94AC8CEE20CB
:104A7000D9F08AE070DE8EE99AE05BDF68817981A7
:104A80008A819B8146E00E94AC8C8AE064DE8AE0E9
:104A9000DF91CF911F910F91EF90DF90CF90BF905A
:104AA000AF9059CEE110E7CFDF91CF911F910F91D9
:104AB000EF90DF90CF90BF90AF9008954CDE88E6E6
:104AC00097E037CF0F931F93CF938C01C62F88E5C4
:104AD00094E02FDFC8012DDFCC2329F08AE0CF91AD
:104AE0001F910F9138CECF911F910F91089560E0E3
:104AF0008DED94E2E7DF80E794E01BDF8AE02BCEC8
:104B0000EF92FF920F931F93CF937C018B01C42FE1
:104B100060E08DED94E2D6DFC7010BDF80E21BDEA3
:104B2000C80107DFCC2311F08C2F15DE8AE0CF916E
:104B30001F910F91FF90EF900ECEDF92EF92FF92B8
:104B40000F931F93CF93DF93D82E7B018A01E90146
:104B5000CEDFD092D60A40E0B70181EF94E2D0DFF9
:104B60000115110529F040E0B8018AEE94E2C8DF92
:104B7000209729F040E0BE018AEE94E2C1DF60E0B8
:104B80008DED94E29FDF85EE94E2D3DE8AE0DF9143
:104B9000CF911F910F91FF90EF90DF90DCCDCF93DD
:104BA000DF93EC0160E082E694E08CDFCE01C1DEB1
:104BB0008AE0DF91CF91CFCDCF93DF9390913510E5
:104BC00093FD3DC0C82F83E50E945317D82F88233B
:104BD00079F10E944D188C389105A4F590938504C5
:104BE00080938404FBDB6091840470918504072E1C
:104BF000000C880B990B0E9441BA209180043091DF
:104C0000810440918204509183040E941FC31816AE
:104C1000E4F083E991E1C3DF61E06C278C2F0E940F
:104C2000498FCC2361F08D2FDF91CF910C94609A46
:104C3000CC2329F082E50E9453178111CACFDF915E
:104C4000CF9108958CE890E0C9CF82EA91E1E3CF5B
:104C5000AF92BF92CF92DF92EF92FF920F931F938A
:104C6000CF93DF9383E494E064DE60912504709138
:104C70002604809127049091280445E00E94AC8C82
:104C800080E394E056DEC0E0D9E0D15019F080E234
:104C900062DDFBCF8C2F0E940086CF5FC530A1F76D
:104CA0008AE059DD01EC13E0C0E080E254DD8C2F96
:104CB0000E9400865801D5E080E24DDDF501C080FC
:104CC000D180E280F380A7019601C701B6010E945E
:104CD000A7C3811129C020E030E0A901C701B601B6
:104CE0000E941FC387FD02C08BE235DD45E0C7018E
:104CF000B6010E94AC8CD15084E1A80EB11CD11138
:104D0000DBCF8AE028DDCF5F0C5F1F4FC53069F62F
:104D10008AE0DF91CF911F910F91FF90EF90DF908C
:104D2000CF90BF90AF9017CDF12C80E214DDF394BB
:104D30008DE3F8E0FF12FACFDECFCF93DF93EB01E4
:104D4000F8DDCE01DF91CF910C945287CF93C62F1F
:104D5000F0DD8C2FCF910C940086CF92DF92EF92F2
:104D6000FF926A017B01E5DD44E0C701B601FF90D7
:104D7000EF90DF90CF900C94AC8C4F925F926F923B
:104D80007F928F929F92AF92BF92CF92DF92EF92DB
:104D9000FF92CF93DF93CDB7DEB7E0970FB6F894CD
:104DA000DEBF0FBECDBF82E490E1C3DD60E082E3F1
:104DB00090E1FBDD60E08DE190E1F7DD61E086E10F
:104DC00090E1F3DD61E08BE090E1EFDD61E08CEFFD
:104DD0009FE0EBDD61E08CEE9FE0E7DD60E083EEDD
:104DE0009FE0E3DD61E089ED9FE0DFDD60E08FECD7
:104DF0009FE0DBDD60E088EC9FE0D7DD61E080ECE8
:104E00009FE0D3DD61E082EB9FE0CFDD60E084EAEC
:104E10009FE0CBDD60E085E99FE0C7DD60E087E8EB
:104E20009FE0C3DD60E081E79FE0BFDD61E080E6F9
:104E30009FE0BBDD61E08BE49FE0B7DD61E08CE3E8
:104E40009FE0B3DD60E085E39FE0AFDD60E08EE2F0
:104E50009FE0ABDD60E085E29FE0A7DD60E080E100
:104E60009FE0A3DD60E082E09FE09FDD61E08FEEE8
:104E70009EE09BDD60E082EE9EE097DD61E08DEDDF
:104E80009EE093DD61E080ED9EE08FDD60E08CEBE5
:104E90009EE08BDD60E089EA9EE087DD60E08CEFDC
:104EA00091E10E94A116682F617080EA9EE07DDD8D
:104EB00019821A821B821C821D821E821F82188602
:104EC00019861A861B861C8680E090E8A8E9B3E460
:104ED0008D879E87AF87B88B898B9A8BAB8BBC8B6A
:104EE00080E090E0A8ECB3E48D8B9E8BAF8BB88F05
:104EF000CE0101960E947A1DCE010D960E947A1D68
:104F0000E9E8F1E14080518062807380848095807F
:104F1000A680B780C084D184E284F38429813A8159
:104F20004B815C81C301B2010E94F8C0698F7A8F06
:104F30008B8F9C8F2D813E814F815885C501B40197
:104F40000E94F8C06D8F7E8F8F8F98A329853A8538
:104F50004B855C85C701B6010E94F8C069A37AA39E
:104F60008BA39CA32D853E854F855889C301B20133
:104F70000E94F8C06DA37EA38FA398A729893A89C0
:104F80004B895C89C501B4010E94F8C069A77AA762
:104F90008BA79CA72D893E894F89588DC701B601E3
:104FA0000E94F8C06DA77EA78FA798AB20E030E0E5
:104FB000A901C301B2010E94F8C0AB01BC018CE899
:104FC0009EE0CBDE20E030E0A901C501B4010E94E3
:104FD000F8C0AB01BC0188E89EE0BFDE20E030E015
:104FE000A901C701B6010E94F8C0AB01BC0184E869
:104FF0009EE0B3DE20E030E848E953E4C301B201AB
:105000000E94F8C0AB01BC018AE79EE0A6DE20E06A
:1050100030E848E953E4C501B4010E94F8C0AB018F
:10502000BC0186E79EE099DE20E030E048EC53E4E6
:10503000C701B6010E94F8C0AB01BC0182E79EE047
:105040008CDE498D5A8D6B8D7C8D81E69EE085DEF0
:105050004D8D5E8D6F8D78A18DE59EE07EDE49A140
:105060005AA16BA17CA189E59EE077DE4DA15EA1EE
:105070006FA178A58FE49EE070DE49A55AA56BA5C7
:105080007CA58BE49EE069DE4DA55EA56FA578A9A1
:1050900087E49EE062DE85E49EE04BDC85EE92E0F4
:1050A000ABDB8AE058DBE0960FB6F894DEBF0FBEAC
:1050B000CDBFDF91CF91FF90EF90DF90CF90BF9069
:1050C000AF909F908F907F906F905F904F900895DA
:1050D000CF92DF92EF92FF926A017B012ADC4AE0D5
:1050E000C701B601FF90EF90DF90CF9003CC2F92D5
:1050F0003F924F925F926F927F928F929F92AF9268
:10510000BF92CF92DF92EF92FF920F931F93CF93B4
:10511000DF93CDB7DEB7C956D1090FB6F894DEBF1D
:105120000FBECDBF70E060E085E40E9450188F8311
:105130008F3F09F474C08823E9F08CE193E1F9DB37
:10514000C759DF4F0FB6F894DEBF0FBECDBFDF915A
:10515000CF911F910F91FF90EF90DF90CF90BF9074
:10516000AF909F908F907F906F905F904F903F9007
:105170002F90089524EB30E03987288783E50E943B
:105180005317882321F00E944D189987888765E07E
:1051900070E083E40E945018782E60E085E50E945C
:1051A0003B1868968FAF68978FE093E1F8DC0E9418
:1051B000908B6A8B7B8B8C8B9D8B5F810CE310E0DB
:1051C0005F3F11F004E110E08A899B89AC89BD89B9
:1051D0008C53964FAF4FBF4F80935304909354041A
:1051E000A0935504B09356048F818F3F09F4ABC14F
:1051F000E82E880FFF08F701A3E0EE0FFF1FAA9526
:10520000E1F7E65BFD4F868197810F97A885B98509
:105210008A179B070CF055C384EE92E190CF46E4C9
:1052200050E059874887AACF65961FAE6597D6C1CB
:10523000109163043090640420906504009166042A
:1052400077C254D9B1C26796EEADFFAD6797808340
:1052500007C34BEE842E912CA12CB12CAAC384E160
:1052600090E0A0E0B0E08A8F9B8FAC8FBD8F34E1DF
:10527000832E912CA12CB12CACC38A8E9B8EAC8E2C
:10528000BD8EA7C32AE939E949E15FE380E090E0F8
:10529000A0E0BEE307C48BE892E147C46796EEAD99
:1052A000FFAD679780836DC4D301C20125962CADF5
:1052B0003DAD4EAD5FAD2597821B930BA40BB50B97
:1052C000B7FD5BC065968FAD65970E944A8D8AE0F9
:1052D00042DAD301C2018053984FAF4FBF4F25969A
:1052E0008CAF9DAFAEAFBFAF259726969FAD2697EB
:1052F000911173C02A962CAD3DAD4EAD5FAD2A978E
:10530000612F732D822D902F0E941FC318160CF051
:105310004EC020E030E040E050E4612F732D822D3C
:10532000902F0E94F8C02A966CAF7DAF8EAF9FAFD2
:105330002A9721962CAD3DAD4EAD5FAD2197240D42
:10534000351D461D571D2E962CAF3DAF4EAF5FAF9E
:105350002E97A8966CAD7DAD8EAD9FADA8970E949F
:1053600041BA212F332D422D502F0E943BBA881F66
:105370008827881F26968FAF26978A899B89AC89B4
:10538000BD89C816D906EA06FB0610F4D701C60186
:10539000481A590A6A0A7B0A31E843163FE4530661
:1053A00032E16306710480F180E392E17CC2D301B3
:1053B000C2012E962CAD3DAD4EAD5FAD2E97821B3A
:1053C000930BA40BB50B44E650E263E770E2B7FD24
:1053D000D4CF8F810E94FB8FD0CFA4966CAD7DADD2
:1053E0008EAD9FADA4970E9441BA9B01AC01612F85
:1053F000732D822D902F0E943BBA87FFBECF4EECBB
:1054000050E26EED70E2E5CFAA964EAD5FADAA9781
:105410008AA19BA1481759070CF069C103970CF4A6
:1054200066C183ED91E185DA9F8103EC11E19F3F35
:1054300011F002EC11E181EB91E17BDAC80179DA3C
:105440004A855B856C857D858FEC91E186DC8AE001
:1054500082D981EB91E16DDAC8016BDA4AA55BA5CF
:105460006CA57DA58BEC91E178DC8AE074D981EBA9
:1054700091E15FDAC8015DDA4EA55FA568A979A957
:1054800087EC91E16ADC8AE066D96896AFAD6897EF
:10549000AA23A9F12CEA35EC47E25EE36AA57BA5D5
:1054A0008CA59DA50E94A0BA6B017C012CEA35EC6D
:1054B00047E25EE36EA57FA588A999A90E94D4C1A1
:1054C000BF812A853B854C855D85BF3F19F52093BB
:1054D0008704309388044093890450938A04C092CF
:1054E0008B04D0928C04E0928D04F0928E04609331
:1054F0008F047093900480939104909392048AADEA
:105500009BADACAD89839A83AB83CE0101960E949B
:10551000412216CE20936A0430936B0440936C04AE
:1055200050936D04C0926E04D0926F04E0927004A8
:10553000F092710460937204709373048093740406
:1055400090937504DCCF488559854D3851050CF092
:1055500063CE80ED92E1EDD90E945F8F8FE780935B
:1055600086042091800430918104409182045091FE
:10557000830464962CAF3DAF4EAF5FAF64978093CA
:1055800077040E94519A6AAF7BAF8CAF9801A8EE66
:10559000B3E00E94B3C021966CAF7DAF8EAF9FAFDA
:1055A00021972A893B894C895D89260F371F481F1F
:1055B000591F2E962CAF3DAF4EAF5FAF2E9781E0B7
:1055C000809347023F813E5F60963FAF60973230E5
:1055D00008F42ACE4F8165964FAF6597CA88DB885D
:1055E000EC88FD882596CCAEDDAEEEAEFFAE2597FD
:1055F0001EA61FA618AA19AA1AA61BA61CA61DA697
:105600001A861B861C861D868FE790E0A0E0B0E01E
:105610008A8F9B8FAC8FBD8F1E8690E49E8BACE1F2
:10562000ACA3B6E4BDA31EA21FA218A619A6FFE74D
:105630008F2E912CA12CB12C26961FAE26972A9640
:105640001CAE1DAE1EAE1FAE2A971EAA1FAA18AE14
:1056500019AEE1E0EDAB1BA21AA210E0312C212C17
:1056600000E028853985032E000C440B550B6C9601
:105670002CAF3DAF4EAF5FAF6C973F8147E1340237
:10568000C0011124DC01A759BB4F6796BFAFAEAF75
:105690006797888599854E969C01990F440B550B09
:1056A000A0962CAF3DAF4EAF5FAFA0978885998590
:1056B0004E979C01990F440B550BA4962CAF3DAF10
:1056C0004EAF5FAFA4978885998506979C01990F87
:1056D000440B550BA8962CAF3DAF4EAF5FAFA897CC
:1056E000472D770C550BAA965FAF4EAFAA978091C6
:1056F0004702882309F4D8C00E94908B2B013C01FB
:10570000509159042F965FAF2F97552309F4B9C0D4
:105710000E94F990109259048F818F3F09F088CD33
:1057200010918004309081042090820400918304C1
:105730002EA13FA148A559A5612F732D822D902F31
:105740000E941FC3181624F41EA33FA228A609A76F
:105750002E853E894CA15DA1612F732D822D902F46
:105760000E943BBA87FF04C01E873E8A2CA20DA36D
:1057700064966CAD7DAD8EAD9FAD64970E943CC2CA
:105780006E8F7F8F88A399A3612F732D822D902F09
:105790000E943CC2AF81488559858E8D9F8DAF3F59
:1057A00009F04FCD0E94C922809153049091540476
:1057B000A0915504B0915604A3019201281B390B06
:1057C0004A0B5B0BDA01C901B7FD10C00E946B9157
:1057D000D301C2018C53964FAF4FBF4F80935304F8
:1057E00090935404A0935504B09356046C966CADFA
:1057F0007DAD8EAD9FAD6C970E9441BA6E8F7AAB36
:105800008BAB9CAB3DA9332309F47BC09B01AC015E
:10581000612F732D822D902F0E941FC318168CF5B7
:10582000B301A2014C195D096E097F09DB01CA01B0
:1058300088589341A109B109B7FD23C08A8D9B8D7A
:10584000AC8DBD8D88199909AA09BB09B595A79595
:1058500097958795EF81EF3F09F0F5CC809386040B
:105860004EAB5FAB68AF79AFFE8DFEA32AA92FA325
:105870003BA938A74CA949A74A8A5B8A6C8A7D8ACA
:105880001DAAA0966CAD7DAD8EAD9FADA0970E9478
:1058900041BA212F332D422D502F0E943BBA87FF52
:1058A00003CD8EE492E145D8109247020E945F8FAB
:1058B0002AAD3BAD4CAD2C833D834E83CE01049687
:1058C00026CE80ED92E135D80E945F8F87E18E9DD4
:1058D000F0018F9DF00D1124E15AFB4F8FE7828775
:1058E0008091630490916404A0916504B091660472
:1058F00064968CAF9DAFAEAFBFAF64971092770444
:1059000040CE2E8D3AA94BA95CA9612F732D822D13
:10591000902F0E943BBA87FFB4CFD301C2012A89DE
:105920003B894C895D89821B930BA40BB50BAC01A1
:10593000BD01485853416109710977FDA2CF4AA1C1
:105940005BA1452B09F40BC1CEA8DFA8E8ACF9ACEC
:10595000C80ED91EEA1EFB1E2EA93FA948AD59AD9F
:10596000281B390B4A0B5B0BC501B4010E9456C0C2
:10597000A70196010E9487C08A8C9B8CAC8CBD8C41
:10598000820E931EA41EB51E54E185169104A10437
:10599000B1040CF464CC8CEE88169104A104B1041B
:1059A0000CF057CC90E889169104A104B1040CF4D2
:1059B00064CC8A8E9B8EAC8EBD8E8EEF90E0A0E084
:1059C000B0E09C01AD01281939094A095B09490178
:1059D0005A014A8D5B8D6C8D7D8D88EC92E178DB70
:1059E000B501A40183EC92E173DB4E855E896CA165
:1059F0007DA18CEB92E1B1D94EA15FA168A579A5FB
:105A000085EB92E1AAD9AAA1BBA113970CF4A7C078
:105A1000C501B4010E9441BA20E030E040E850E402
:105A20000E94A0BA6A877B878C879D872E853E89D6
:105A30004CA15DA16EA17FA188A599A50E94F7C088
:105A40002BED3FE049E450E40E94A0BA20E030E0B2
:105A500040E05FE30E94A0BA9B01AC016A857B85B0
:105A60008C859D850E94D4C16E8B7F8B888F998F8A
:105A7000C701B6010E9441BA2FE632E143E85AE37A
:105A80000E94A0BA6B017C01BF81BE3F19F0BF3FED
:105A900009F0F8CB2DEC3CEC4CE45EE38BEA9AEA9F
:105AA000AAEABEE38E879F87A88BB98B6E897F8910
:105AB000888D998D0E94A0BA6A877B878C879D8785
:105AC0009B01AC010E94F8C0A70196010E94D4C1BD
:105AD0006AA77BA78CA79DA72A853B854C855D85FA
