:100000000C945B130C948C130C948C130C948C1325
:100010000C948C130C948C130C948C130C948C13E4
:100020000C948C130C948C130C948C130C948C13D4
:100030000C948C130C948C130C948C130C948C13C4
:100040000C948C130C94BF780C948C130C948C131C
:100050000C948C130C948C130C94F44A0C944D5403
:100060000C948C130C943E310C9434310C948C13FE
:100070000C948C130C948C130C948C130C948C1384
:100080000C948E2B0C948C130C948C130C948C135A
:100090000C948C130C948C130C948C130C948C1364
:1000A0000C948C130C948C130C94602B0C948C1368
:1000B0000C948C130C948C130C948C130C948C1344
:1000C0000C948C130C948C130C948C130C948C1334
:1000D0000C948C130C948C130C948C130C948C1324
:1000E0000C948C13743186319831A931B131E431DB
:1000F000B531E431B931BD31E431C131C531C93136
:10010000D231E431DD319651995188518C5192515F
:10011000D0519D51A151A751AB51AF51B551B951DA
:10012000BD51D051C351C751CB5167536C5371531B
:100130007B538553FE538F5397539F53A953B35308
:10014000BD53CC53D653FE53E053EA53F453459872
:100150004C98FF980499539A589A689A084AD73B42
:100160003BCE016E84BCBFFDC12F3D6C74319ABD86
:1001700056833DDA3D00C77F11BED9E4BB4C3E91AA
:100180006BAAAABE000000803F05A84CCDB2D44E99
:10019000B93836A9020C50B9918688083CA6AAAA9B
:1001A0002ABE000000803F07634236B79BD8A71ADB
:1001B00039685618AEBAAB558C1D3CB7CC5763BDE9
:1001C0006DEDFD753EF6177231BF000000803F08EF
:1001D000000000BE922449123EABAAAA2ABECDCC92
:1001E000CC4C3E00000080BEABAAAAAA3E00000094
:1001F00000BF000000803F0000000000084178D3ED
:10020000BB4387D1133D190E3CC3BD4282AD2B3E8B
:1002100068EC8276BED98FE1A93E4C80EFFFBE012B
:10022000C4FF7F3F0000000000000C94DD310C94FF
:1002300096510C94CB510C94C5310C94A1510C9453
:10024000C1310C9474310C946C530C949F530C94E6
:1002500085530C94E0530C944C980C94C7510C9417
:100260008C510C9497530C9499510C94D0510C943C
:10027000B3530C94539A0C94BD530C94A9310C9421
:10028000BD310C94CC530C94AB510C9445980C9408
:1002900098310C9404990C94AF510C9471530C94B4
:1002A000A9530C94E4310C94D6530C94FE530C9443
:1002B0008F530C94589A0C947B530C94B1310C943A
:1002C000C3510C94A7510C94EA530C94689A0C9463
:1002D000C9310C9486310C944DD70C94B9510C94BF
:1002E000B5510C94B9310C9488510C94FF980C942E
:1002F00092510C94B5310C949D510C94BD510C94B9
:1003000067530C94F4530C94D2314E414E494E49EC
:100310005459494E46CDCCCC3D0AD7233C17B7D1D2
:100320003877CC2B329595E6241FB14F0A00002078
:10033000410000C84200401C4620BCBE4CCA1B0EF7
:100340005AAEC59D74434F4D4D554E494341544996
:100350004F4E0044525952554E004552524F52533F
:10036000004543484F00536C6565702E2E2E005A91
:100370002050726F62652050617374204265640A78
:10038000005A2050726F626520506173742042657C
:100390006400205A3A200020593A20004265642027
:1003A000583A20004D65736820706F696E74206F35
:1003B0007574206F662072616E67650A004D30208B
:1003C00053746F70004D312053746F7000436F6E23
:1003D00074696E7565004E6F204D6F76652E002531
:1003E000697920256964202569682025696D2025A3
:1003F0006973005072696E742074696D653A2000EB
:10040000496E76616C69642050696E204D6F646539
:100410000A0044454255473A004D313133205300DC
:10042000417274696C6C657279205369646577698F
:100430006E646572205831204F46462E0043484175
:100440004D4245525F54454D5045524154555245D9
:1004500000424142595354455050494E4700415281
:100460004353004D4F54494F4E5F4D4F4445530049
:10047000544845524D414C5F50524F5445435449A6
:100480004F4E004C4F4E475F46494C454E414D45FF
:10049000004155544F5245504F52545F53445F539F
:1004A0005441545553005344434152440050524F19
:1004B0004D50545F535550504F525400454D455286
:1004C00047454E43595F50415253455200434153B3
:1004D000455F4C494748545F4252494748544E454E
:1004E000535300544F47474C455F4C49474854537A
:1004F00000534F4654574152455F504F57455200A5
:100500004255494C445F50455243454E54004C457A
:1005100056454C494E475F44415441005A5F505242
:100520004F4245004155544F4C4556454C005052A2
:10053000494E545F4A4F420050524F475245535321
:10054000004155544F5245504F52545F54454D5001
:1005500000564F4C554D4554524943004545505265
:100560004F4D0042494E4152595F46494C455F54F8
:1005700052414E534645520053455249414C5F58F3
:100580004F4E5F584F4646004649524D57415245DF
:100590005F4E414D453A4D61726C696E20322E308E
:1005A0002E362E31444947412D546563682041530E
:1005B0005758312076312E3020284175672033304E
:1005C00020323032302031383A35323A323929202F
:1005D000534F555243455F434F44455F55524C3A44
:1005E00068747470733A2F2F6769746875622E632C
:1005F0006F6D2F4D61726C696E4669726D776172B5
:10060000652F4D61726C696E2050524F544F434FAD
:100610004C5F56455253494F4E3A312E30204D4192
:100620004348494E455F545950453A417274696C8C
:100630006C657279205369646577696E64657220B0
:1006400058312045585452554445525F434F554EFA
:10065000543A3120555549443A63656465326132F4
:10066000662D343161322D343734382D39623132D0
:100670002D6335356336326633363766660A002FAA
:100680002F2000416363656C65726174696F6E3A17
:100690002050003F4A206F7574206F662072616E93
:1006A00067652028302E303120746F20302E33299A
:1006B0000A0020204D61783A200020204D696E3AD2
:1006C0002000536F667420656E6473746F70733AA4
:1006D000200046523A0020466C6F773A2000507254
:1006E0006F7465637465642050696E0A00205365F9
:1006F00072766F200050726F6265204F6666736578
:1007000074205A0020643A0020693A0020703A00B0
:10071000496E76616C69642065787472756465727F
:100720000A006469730043290A0061626C656420F1
:10073000286D696E2074656D702000436F6C6420B5
:1007400065787472756465732061726520004D343C
:10075000323120696E636F727265637420706172EA
:10076000616D657465722075736167650A004F6617
:100770006673657473204170706C69656400546FB2
:100780006F206661722066726F6D20726566657299
:10079000656E636520706F696E740A00454550523E
:1007A0004F4D204F4B0A003F5A206F7574206F66E3
:1007B0002072616E67652028003F59206F75742094
:1007C0006F662072616E676520282D003F58206F8C
:1007D0007574206F662072616E676520282D005049
:1007E000726F6265204F666673657420580020281A
:1007F000302D313029002076616C7565206F75745D
:10080000206F662072616E676500416476616E6379
:1008100065204B3D00610391085A03530345034D86
:100820003231004D32332025730020410020430037
:10083000726F746174696F6E206D61747269783A59
:100840000A005A5F6D6F76655F636F6D700A0020F6
:100850006D61783A00206D696E3A004178697320C5
:1008600000416363656C65726174696F6E206C69C9
:100870006D697465642E0A00534C4F5700554E4BFA
:100880004E4F574E2053544154450047434F444523
:100890005F494E464F004C43445F50415553455FBE
:1008A000524553554D450046494C414D454E545FC8
:1008B00052554E4F55545F434F4E54494E55450087
:1008C00046494C414D454E545F52554E4F5554008C
:1008D0004D38373620526573706F6E64696E6720CD
:1008E00050524F4D50545F004D3234004572726F7C
:1008F000722077726974696E6720746F2045455065
:10090000524F4D210A004E6F20436865636B73752B
:100910006D2077697468206C696E65206E756D62F4
:1009200065722C204C617374204C696E653A20000E
:10093000636865636B73756D206D69736D61746356
:10094000682C204C617374204C696E653A20004C11
:10095000696E65204E756D626572206973206E6FD9
:1009600074204C617374204C696E65204E756D6205
:1009700065722B312C204C617374204C696E653A82
:1009800020004D313130002121204B494C4C206357
:10099000617573656420627920746F6F206D756373
:1009A0006820696E6163746976652074696D65207D
:1009B0002D2063757272656E7420636F6D6D616E4C
:1009C000643A2000627573793A20706175736564CA
:1009D00020666F7220696E7075740A006275737993
:1009E0003A2070617573656420666F722075736557
:1009F000720A00627573793A2070726F636573735F
:100A0000696E670A00706F7765726F666600507274
:100A1000696E7465722068616C7465642E206B6900
:100A20006C6C28292063616C6C6564210A00363780
:100A300026033C3D380E2E303E1224221E1A1C186E
:100A40000A07430809070844000120746F6F206CEF
:100A50006F6E6720657874727573696F6E2070723F
:100A60006576656E7465640A0020636F6C6420654A
:100A70007874727573696F6E2070726576656E74C6
:100A800065640A00DB0FC93F45BCDA3F8FB3024003
:100A9000FCF0274056946140FE4B9B4084A5D84013
:100AA000E0231841346A5641E859974164DBD54147
:100AB0006E271742B4B75542CE1A9742C8AED542F8
:100AC000B5885A43D40684BFA65FA7BF7443E0BF6E
:100AD00010B11AC01C2C58C0E8F697C0B849D6C04F
:100AE0004E4E17C124D355C1802497C1A0B5D5C19E
:100AF000121A17C244AE55C2781797C26CACD5C251
:100B000067885AC348656174696E67204661696C7D
:100B100065640048656174696E67206661696C652B
:100B200064004D3131322053687574646F776E0004
:100B3000202D20496E76616C696420657874727529
:100B4000646572206E756D62657220210A005448DA
:100B500045524D414C2052554E4157415900546821
:100B600065726D616C2052756E61776179004572B6
:100B7000723A204D415854454D50004D415854450E
:100B80004D502074726967676572656400457272C2
:100B90003A204D494E54454D50004D494E54454D17
:100BA000502074726967676572656400202F0020A9
:100BB00042403A0020403A0020573A002020506C32
:100BC000616E6E65724275666665724279746573B0
:100BD0003A20002046726565204D656D6F72793A46
:100BE0002000436F6D70696C65643A204175672021
:100BF000333020323032300A00204C61737420557B
:100C00007064617465643A20323032302D30382D92
:100C10003237207C20417574686F723A202844492D
:100C200047412D546563682C204153575831207635
:100C3000312E30290A00322E302E362E310A004D48
:100C400061726C696E0020536F6674776172652003
:100C500052657365740A00205761746368646F6736
:100C60002052657365740A002042726F776E206FA0
:100C700075742052657365740A0020457874657236
:100C80006E616C2052657365740A00506F776572EF
:100C900055700A00656E6473746F707320686974B0
:100CA0003A200070012C0190012701B0012201C0FF
:100CB000011D01F00118011002130130020E016044
:100CC00002090190020401C002FF000003FA004083
:100CD00003F5008003F000D003EB002004E6007071
:100CE00004E100E004DC004005D700C005D200406C
:100CF00006CD00D006C8008007C3003008BE00F053
:100D000008B900C009B400B00AAF00B00BAA00D007
:100D10000CA500000EA000500F9B00C010960050C4
:100D200012910000148C00C0158700B0178200B02B
:100D3000197D00D01B7800001E730040206E0090CB
:100D4000226900F024640040275F0090295A00E0E7
:100D50002B5500102E500020304B0010324600E082
:100D600033410090353C001037370070383200A016
:100D7000392D00B03A2800A03B2300603C1E001033
:100D80003D1900903D1400103E0F00703E0A00C057
:100D90003E0500003F0000403FFBFF803FF6FFC0E4
:100DA0003FF1FF00002100240027002A002D003021
:100DB00000330001010000040107010A01000022C4
:100DC00000250028002B002E003100340002010015
:100DD00000050108010B0100002000230026002966
:100DE000002C002F00320000010000030106010961
:100DF0000105050505070508080808020202020AA0
:100E00000A080804040404010101010101010103AD
:100E100003030303030303040707070C0C0C0C0C68
:100E20000C0C0C0202020206060606060606060B5B
:100E30000B0B0B0B0B0B0B010210202008081020D2
:100E40004010204080020102010804020101020456
:100E50000810204080804020100804020180040215
:100E6000018040201008040201080402010102046C
:100E70000810204080010204081020408000000A71
:100E80000B02090C0D0E080703040100000000000E
:100E90000000000000000000000000000000000052
:100EA000000000000000000000121110000000000F
:100EB0000000000000000000000000000000000032
:100EC00000000023646566696E652044454641550F
:100ED0004C545F004B6420004B6920004B70200095
:100EE000504944204175746F74756E652066696E53
:100EF0006973686564212050757420746865206C7E
:100F0000617374204B702C204B6920616E64204B00
:100F10006420636F6E7374616E74732066726F6D9C
:100F20002062656C6F7720696E746F20436F6E6608
:100F3000696775726174696F6E2E680A0050494462
:100F4000204175746F74756E65206661696C6564A7
:100F5000212074696D656F75740A000A20436C6105
:100F60007373696320504944200A00204B643A207F
:100F700000204B693A2000204B703A20000A204E96
:100F80006F206F76657273686F6F740A00205475F6
:100F90003A2000204B753A2000206D61783A2000FD
:100FA000206D696E3A200020643A20002062696159
:100FB000733A2000504944204175746F74756E6512
:100FC0002073746172740A00504944204175746F33
:100FD00074756E65206661696C6564212054656D69
:100FE000706572617475726520746F6F20686967CF
:100FF000680A00504944204175746F74756E65002D
:10100000504944204175746F74756E65206661693E
:101010006C65642120426164206578747275646532
:1010200072206E756D6265720A00486F6D696E6739
:10103000204661696C6564006F70656E00545249AA
:10104000474745524544007A5F6D696E00795F6D90
:10105000696E00785F6D696E005265706F727469B9
:101060006E6720656E6473746F702073746174753D
:10107000730A003F454550524F4D2073746F7261A3
:101080006765206E6F7420617661696C61626C6562
:101090002E0A0053544F505045442E200050726980
:1010A0006E7465722073746F70706564206475650A
:1010B00020746F206572726F72732E2046697820DB
:1010C000746865206572726F7220616E642075733A
:1010D00065204D39393920746F20726573746172DF
:1010E000742E202854656D70657261747572652068
:1010F00069732072657365742E205365742069745A
:101100002061667465722072657374617274696EB1
:1011100067290A0021212053544F502063616C6CD1
:1011200065642062656361757365206F6620424C5B
:10113000546F756368206572726F72202D2072651E
:1011400073746172742077697468204D3939390A73
:10115000002F2F616374696F6E3A006E6F74696659
:1011600069636174696F6E2000626567696E006211
:101170007574746F6E00656E640070726F6D70745C
:101180005F0073686F770050757267654D6F7265A9
:1011900000506175736564004F46460A00466164FD
:1011A00065204865696768742000426564204C6565
:1011B00076656C696E6720004661696C65642074B1
:1011C0006F20656E61626C6520426564204C6576B7
:1011D000656C696E670A00496E76616C6964206DA2
:1011E0006573682E0A0076616C69640A53746F72C5
:1011F00061676520736C6F743A20004D65736820D9
:10120000697320003F496E76616C69642073746F66
:101210007261676520736C6F742E0A0046696E698F
:1012200073686564210A003A207A3A2000206F66CC
:101230002000476F696E6720746F3A20580043574B
:101240000A00206469723A0020616E676C653A009A
:101250005374617274207261646975733A00506FDF
:10126000736974696F6E696E672074686520707247
:101270006F62652E2E2E0A003F4C656773206F66E5
:10128000206D6F76656D656E7420696D706C61752B
:101290007369626C652028302D3135292E0A003F94
:1012A0002028582C5929206F7574206F6620626F92
:1012B000756E64732E0A0050726F6265206F7574CC
:1012C000206F6620626F756E6473003F53616D70AE
:1012D0006C652073697A65206E6F7420706C61751F
:1012E0007369626C652028342D3530292E0A004D33
:1012F0003438205A2D50726F6265205265706561D6
:10130000746162696C69747920546573740A003F72
:101310002856296572626F7365206C6576656C204E
:10132000696D706C61757369626C652028302D344D
:10133000292E0A00486F6D652025732573257320BB
:101340004669727374005761726E696E673A20481D
:101350006F6D696E672042756D70204469766973A0
:101360006F72203C20310A000000484200004842D1
:10137000000080400202040000A0400000A04000E5
:10138000000040FFFFFF24F4D43050C38E20C2A2DF
:101390004017828B7011127A910D816CD90AA86165
:1013A000E108C7586607615143061E4B5D05C145FC
:1013B000A7041A411104093D9803713931034036DD
:1013C000DB0265339102D4305402802E1D02632C5F
:1013D000EE01752AC501B028A001102781018F25D3
:1013E00064012B244B01E0223401AC211F018D202C
:1013F0000D01801FFC00841EED00971DDF00B81C4E
:10140000D200E61BC600201BBC00641AB200B21951
:10141000A8000A19A0006A189900D1179100401776
:101420008B00B516840031167E00B31579003A158D
:101430007300C7146F0058146A00EE136600881317
:10144000630025135E00C7125B006C125700151273
:101450005400C111510070114F0021114B00D610E2
:1014600049008D1047004610440002104200C00F92
:101470004000800F3E00420F3C00060F3B00CB0EA9
:101480003800930E37005C0E3500270E3400F30D44
:101490003200C10D3100900D3000600D2E00320D74
:1014A0002D00050D2C00D90C2B00AE0C2900850C4D
:1014B00029005C0C2700350C27000E0C2600E80BD9
:1014C0002400C40B2400A00B23007D0B23005A0B27
:1014D0002100390B2100180B2000F80A1F00D90A3F
:1014E0001E00BB0A1E009D0A1D00800A1D00630A23
:1014F0001C00470A1B002C0A1B00110A1A00F709DE
:101500001A00DD091900C4091900AB091900920974
:1015100017007B091800630917004C0916003609EB
:101520001600200916000A091500F5081500E00844
:101530001400CC081400B8081400A4081400900883
:1015400013007D0812006B081300580812004608AB
:1015500012003408110023081100120811000108BC
:101560001100F0071000E0071000D0071000C007BE
:101570001000B0070F00A107100091070E008307AD
:101580000F0074070F0065070E0057070E0049078C
:101590000E003B070D002E070E0020070D0013075D
:1015A0000D0006070D00F9060C00ED060D00E00623
:1015B0000C00D4060C00C8060C00BC060C00B006DB
:1015C0000C00A4060B0099060C008D060B00820689
:1015D0000B0077060B006C060B0061060A0057062D
:1015E0000B004C060A0042060A0038060A002E06C6
:1015F0000A0024060A001A060A0010060900070657
:101600000A00FD050900F4050900EB050900E205E3
:101610000900D9050900D0050900C7050900BE0564
:101620000900B5050800AD050800A50509009C05E1
:101630000800940508008C050800840508007C0556
:101640000800740508006C050700650508005D05C5
:101650000700560508004E0507004705070040052E
:10166000080038050700310507002A050700230593
:1016700007001C050600160507000F0507000805F2
:10168000060002050700FB040600F5040700EE044F
:101690000600E8040600E2040700DB040600D504A7
:1016A0000600CF040600C9040600C3040600BD04FA
:1016B0000600B7040600B1040500AC040600A60449
:1016C0000600A00405009B04060095040500900494
:1016D00006008A04050085040500800406007A04DB
:1016E000050075040500700405006B040500660420
:1016F0000500610405005C04050057040500520460
:1017000005004D04050048040500430405003E049F
:1017100004003A04050035040500300404002C04DC
:10172000050027040400230405001E0404001A0415
:10173000040016040500110404000D04040009044B
:1017400005000404040000040400FC030400F80382
:101750000400F4030400F0030400EC030400E803B5
:101760000400E4030400E0030400DC030400D803E5
:101770000400D4030400D0030400CC030400C80315
:101780000300C503030024F404D9201BC40C5C0E21
:101790009804C4095F0265077101F405F900FB04B0
:1017A000B30048048700C1036900580355000303D0
:1017B0004500BE023A008402310053022A00290289
:1017C000250004022000E4011C00C8011900AF013B
:1017D00017009801140084011300710110006101C9
:1017E000100051010E0043010D0036010B002B01CA
:1017F0000B0020010B00150109000C010900030179
:101800000800FB000800F3000800EB000700E400FC
:101810000600DE000600D8000600D2000600CC005C
:101820000500C7000500C2000500BD000400B900A6
:101830000400B5000400B1000400AD000400A900DC
:101840000400A5000300A20003009F0004009B0009
:10185000030098000300950002009300030090002D
:1018600003008D0002008B00030088000200860048
:10187000020084000300810002007F0002007D005E
:1018800002007B0002007900020077000100760070
:1018900002007400020072000100710002006F007B
:1018A00002006D0001006C0002006A000100690086
:1018B000020067000100660001006500010064008D
:1018C00002006200010061000100600001005F0091
:1018D00002005D0001005C0001005B0001005A0095
:1018E0000100590001005800010057000100560096
:1018F0000100550001005400010053000000530096
:1019000001005200010051000100500001004F0091
:1019100001004E0000004E0001004D0001004C008F
:1019200001004B0000004B0001004A00010049008B
:101930000100480000004800010047000100460087
:101940000000460001004500000045000100440081
:10195000010043000000430001004200000042007B
:1019600001004100000041000100400001003F0073
:1019700000003F0001003E0000003E0001003D006D
:1019800000003D0001003C0000003C0000003C0065
:1019900001003B0000003B0001003A0000003A005B
:1019A0000100390000003900010038000000380053
:1019B0000000380001003700000037000100360049
:1019C0000000360000003600010035000000350040
:1019D0000000350001003400000034000000340035
:1019E000010033000000330000003300010032002A
:1019F0000000320000003200010031000000310020
:101A00000000310001003000000030000000300014
:101A100001002F0000002F0000002F0000002F0009
:101A200001002E0000002E0000002E0001002D00FD
:101A300000002D0000002D0000002D0001002C00F2
:101A400000002C0000002C0000002C0001002B00E6
:101A500000002B0000002B0000002B0001002A00DA
:101A600000002A0000002A0000002A0001002900CE
:101A700000002900000029000000290000002900C2
:101A800001002800000028000000280000002800B5
:101A900000002800010027000000270000002700A8
:101AA000000027000000270001002600000026009B
:101AB000000026000000260000002600010025008E
:101AC0000000250000002500000025000000250082
:101AD0000000250001002400000024000000240074
:101AE0000000240000002400010023000000230067
:101AF000000023000000230000002300000023005A
:101B0000000023000100220000002200000022004B
:101B1000000022000000220000002200010021003D
:101B20000000210000002100000021000000210031
:101B30000000210000002100010020000000200022
:101B40000000200000002000000020000000200015
:101B5000000020000000200001001F0000001F0006
:101B600000001F0000001F0000001F0000001F00F9
:101B700000001F0001001E0000001E0000001E00EB
:101B800000001E000000C23100001C260000F419F5
:101B90000000D80F0000EB080000C0040000750230
:101BA00000004001000020436F756E7420583A0019
:101BB000453100626564002C2073797374656D2073
:101BC00073746F7070656421204865617465725F1D
:101BD00049443A2000005D0A0062656420706C612F
:101BE0006E65206E6F726D616C203D205B00436FEF
:101BF000756C64206E6F7420636F6D706C657465B6
:101C0000204C5346210054696C74696E67206D65E1
:101C1000736820706F696E7420003F4572726F7236
:101C20002070726F62696E6720706F696E742E200B
:101C300041626F7274696E67206F7065726174695A
:101C40006F6E2E0A0054696C74696E67206D65733F
:101C5000682028332F33290A0054696C74696E6731
:101C6000206D6573682028322F33290A00436F7274
:101C70007265637465645F5A3D0054696C74696E83
:101C800067206D6573682028312F33290A00646F3F
:101C90006E650A00496E73756666696369656E7480
:101CA00020646174610A004578747261706F6C61C0
:101CB00074696E67206D6573682E2E2E000000809B
:101CC0003FC7710842C7718642AAAAC842C77105B8
:101CD00043398E2643AAAA47431CC76843C7F184E9
:101CE000430080954350726F62696E672046616958
:101CF0006C65640A0050726F62696E6720466169A4
:101D00006C65640047323800446F6E652E0A003FF0
:101D1000496E76616C69642073746F7261676520C7
:101D2000736C6F742E0A3F557365203020746F20DA
:101D3000003F5034206973206F6E6C7920617661AA
:101D4000696C61626C65207768656E20616E204CFD
:101D500043442069732070726573656E742E0A00A7
:101D60003F5032206973206F6E6C79206176616913
:101D70006C61626C65207768656E20616E204C43F3
:101D8000442069732070726573656E742E0A00506A
:101D9000726F62696E672061726F756E64202800D1
:101DA0004D65736820696E76616C69646174656401
:101DB0002E2050726F62696E67206D6573682E0AFF
:101DC000004D657368207A65726F65642E0A004461
:101DD000656661756C742073746F726167652073DA
:101DE0006C6F7420302073656C65637465642E0AB3
:101DF000004C6F6164696E6720746573745F706115
:101E0000747465726E2076616C7565732E0A0A00B3
:101E1000496E76616C696420746573745F70617477
:101E20007465726E2076616C75652E20282D3120C8
:101E3000746F2032290A0A004C6F636174696F6EF7
:101E40007320696E76616C6964617465642E0A0A38
:101E500000456E74697265204D65736820696E7601
:101E6000616C6964617465642E0A0A00000096431F
:101E7000000096430000C84300000000000000007E
:101E80000000000053657474696E67732053746FAB
:101E90007265640053657474696E67732053746F60
:101EA0007265642028005374616E6461726420441A
:101EB0006576696174696F6E3A2000486F74656E6B
:101EC0006420746F6F20636F6C640A002052616E2F
:101ED00067653A2000205369676D613A20004D65BF
:101EE000616E3A2000204D39322058004C6F6164F9
:101EF0002046696C616D656E74205400496E73658F
:101F000072742066696C616D656E7420616E642008
:101F100073656E64204D3130380A00726573756DDB
:101F2000656400526573756D696E6700526568651A
:101F3000617420446F6E6500526568656174696EF6
:101F4000672E2E2E005265686561740048656174C5
:101F500065722054696D656F75740053656E6420F9
:101F60004D31303820746F2068656174206E6F7A4F
:101F70007A6C650A004E6F7A7A6C65205061726BDC
:101F8000656400706175736564004469736D69739D
:101F9000730050617573650020496E76616C6964E9
:101FA00020657874727564657220006563686F3AA5
:101FB000004572726F723A0020204D343231204950
:101FC000002020473239204939390A006163746999
:101FD00076650A002053797374656D2076312E3052
:101FE0003120002020207C0A004E414E0020202E6F
:101FF00020202000207C004C43443A0A00435356E2
:102000003A0A0020666F7220003A0A0A000A426506
:102010006420546F706F67726170687920526570C8
:102020006F7274000900000A010008000A01000A2A
:10203000090000000A00080033202E202920242057
:102040004D65616E204D65736820486569676874E9
:102050003A200023206F662073616D706C65733ABF
:1020600020000A50726F62696E67206D6573682088
:10207000706F696E742000496E76616C6964206DC2
:10208000617020747970652E0A0A003F2846296124
:1020900064652068656967687420666F72204265B0
:1020A00064204C6576656C20436F72726563746959
:1020B0006F6E206E6F7420706C61757369626C65F1
:1020C0002E0A0A003F43616E2774206163746976AB
:1020D00061746520616E6420646561637469766112
:1020E0007465206174207468652073616D65207467
:1020F000696D652E0A0A00426F74682058202620F8
:1021000059206C6F636174696F6E73206D757374A1
:10211000206265207370656369666965642E0A0ACA
:10212000003F496E76616C69642067726964207350
:10213000697A6520284A2920737065636966696534
:10214000642028322D39292E0A0A003F2850296898
:102150006173652076616C756520696E76616C6966
:10216000642028302D36292E0A0A003F285629657A
:1021700072626F7365206C6576656C20696D706C3A
:1021800061757369626C652028302D34292E0A0A26
:10219000003F285229657065746974696F6E206309
:1021A0006F756E7420696E76616C69642028312BBE
:1021B000292E0A0A004361703A0047322F47332024
:1021C00062616420706172616D65746572730A008A
:1021D0006F6B00526573656E643A2000426564203F
:1021E000436F6F6C696E672E2E2E00426564204827
:1021F000656174696E672E2E2E0020627974657396
:102200003B2063726320004E6F20454550524F4D76
:102210002E0A00454550524F4D2064617461736928
:102220007A65206572726F722E0A00454550524FD2
:102230004D2056657273696F6E204572726F720021
:10224000454550524F4D20496E6465782045727265
:102250006F7200454550524F4D2043524320457206
:10226000726F72003F4D65736820746F6F206269F2
:102270006720666F7220454550524F4D2E0A00551B
:10228000424C2072657365740A00206C6F6164654E
:10229000642066726F6D2073746F726167652E0AB9
:1022A000004D65736820003F43616E277420656EA2
:1022B00061626C65200020696E697469616C697A7D
:1022C00065642E0A0A002073746F7265642073655A
:1022D0007474696E6773207265747269657665647B
:1022E000202800202863616C63756C617465642923
:1022F000210A0020213D2000454550524F4D2043EA
:102300005243206D69736D61746368202D202873BA
:10231000746F7265642920002053697A653A200041
:10232000496E6465783A2000204D61726C696E3D9B
:10233000563831290A00454550524F4D2076657276
:1023400073696F6E206D69736D61746368202845D1
:102350004550524F4D3D00204A002052004D6573BC
:102360006820736176656420696E20736C6F7420D9
:10237000003F556E61626C6520746F2073617665F5
:10238000206D65736820646174612E0A0020736C8F
:102390006F743D00206D65736865735F656E643DA5
:1023A000004532454E443D00206D65736820736CD6
:1023B0006F747320617661696C61626C652E0A00CE
:1023C0003F496E76616C696420736C6F742E0A00ED
:1023D0004D657368206C6F616465642066726F6D13
:1023E00020736C6F7420003F556E61626C652074C1
:1023F0006F206C6F6164206D657368206461746127
:102400002E0A0048617264636F64656420446566E7
:1024100061756C742053657474696E6773204C6FBA
:10242000616465640A00556E696669656420426589
:1024300064204C6576656C696E67003B2000202047
:102440004D363033200020550046696C616D656E55
:1024500074206C6F61642F756E6C6F6164206C65A5
:102460006E677468733A0020204D393030204B007D
:102470004C696E65617220416476616E63653A00F5
:1024800020204D3835312058005A2D50726F62652A
:10249000204F66667365740020204D333034205021
:1024A0000020204D333031205000504944207365C6
:1024B0007474696E67733A00206D65736865732E76
:1024C0000A0A00454550524F4D2063616E20686FE7
:1024D0006C642000416374697665204D65736820E3
:1024E000536C6F743A200020204D3432302053005A
:1024F00020204D323036205800486F6D65206F66C1
:10250000667365743A0020204D3230352042004118
:102510006476616E6365643A20423C6D696E5F73F8
:1025200065676D656E745F74696D655F75733E2078
:10253000533C6D696E5F66656564726174653E20CB
:10254000543C6D696E5F74726176656C5F6665653B
:1025500064726174653E204A3C6A756E635F6465AF
:10256000763E0020204D32303420500041636365B8
:102570006C65726174696F6E2028756E6974732F53
:102580007332293A20503C7072696E745F616363E4
:10259000656C3E20523C726574726163745F616366
:1025A00063656C3E20543C74726176656C5F616358
:1025B00063656C3E0020204D3230312058004D6163
:1025C00078696D756D20416363656C6572617469CE
:1025D0006F6E2028756E6974732F7332293A00204C
:1025E000450020590020204D3230332058004D61E5
:1025F00078696D756D2066656564726174657320B8
:1026000028756E6974732F73293A0053746570735B
:102610002070657220756E69743A00204400202095
:102620004D3230302053002044697361626C656420
:102630000A0046696C616D656E7420736574746917
:102640006E67733A0020286D6D29002020473231D3
:10265000202020203B20556E69747320696E206D08
:102660006D0000004843000048430000A041000006
:102670002042F43DA042F43DA04296E3C7430080CF
:10268000DE43D0070000D0070000640000001027E0
:102690000000220A00556E6B6E6F776E20636F6DBF
:1026A0006D616E643A20220020453A00205A3A00BB
:1026B00020593A004DD711241FBECFEFD1E2DEBF23
:1026C000CDBF00E00CBF12E0A0E0B2E0E6EEFBEC14
:1026D00001E00BBF02C007900D92A63DB107D9F7EC
:1026E0002FE0A6EDB2E001C01D92A339B207E1F7D9
:1026F00013E1CBE5D3E100E006C021970109802F6B
:10270000FE010E9446E1CA35D10780E00807A9F71B
:102710000E944AD30C94F1E50C9400002F923F9252
:102720004F925F926F927F928F929F92AF92BF92E1
:10273000CF92DF92EF92FF920F931F93CF93DF938D
:10274000CDB7DEB7E1970FB6F894DEBF0FBECDBFB1
:1027500088AB2091E0022EA781E08093E002809177
:10276000070D8D3409F4C5C2843511F40C949323FC
:10277000873411F00C94B8232091050D3091060D8B
:102780002B31310509F488C09CF42430310534F430
:1027900022303105CCF537FF2BC0A7C224303105DC
:1027A00009F440C02531310511F40C94BA239DC2BF
:1027B0002A32310509F4A0C15CF42D31310509F448
:1027C0009BC00CF489C02E31310509F499C08DC22B
:1027D0002B35310509F40DC12C35310509F40EC135
:1027E0002A35310509F081C21092DF020C94BA2318
:1027F00080910E0A813011F00C94BA230E941DA51D
:102800000E94246F0C94BA2380910E0A813011F03B
:102810000C94BA232230310509F080E00E947DC17A
:102820000C94BA2380E50E94EC90882329F00E9442
:102830002BAA6B017C0103C0C12CD12C760183E54E
:102840000E94EC90882361F00E946C9020E030E0C0
:102850004AE754E40E9422DD0E94D4E26B017C012D
:102860000E94CEA286E693E00E943D630E944154FE
:10287000C60ED71EE81EF91E0E944154DC01CB0192
:102880008C199D09AE09BF09B7FD02C00C94BA238B
:1028900080E00E94FF2CF0CF87E00E94D26E811171
:1028A0000C94BA238CE0EFE5F2E0DE011196019082
:1028B0000D928A95E1F780E50E94EC90882321F043
:1028C0000E945890862F01C080E0BE016F5F7F4F4D
:1028D0000E94A2590C94BA238091170C87708730FC
:1028E00011F00C94D02360E08FE40E943E628111CD
:1028F0000C94BA230C94D0230E94F8940C94BA231D
:102900002091AD0E3091AE0E4091AF0E5091B00EB1
:102910006091D30E7091D40E8091D50E9091D60E09
:102920000E9461E1AB01BC0188E50E94DEBD6983C4
:102930007A838B839C832091B10E3091B20E4091AB
:10294000B30E5091B40E6091D70E7091D80E809155
:10295000D90E9091DA0E0E9461E1AB01BC0189E5CC
:102960000E94DEBD6D837E838F839887BE016B5F7F
:102970007F4FCE0101960E949491882311F40C940C
:10298000BA2380E00E9469AB0E94895561E085E42A
:102990000E943E6201E021E041E0682FCE010196F5
:1029A0000E946E926B017C019B01AC010E94AEE41F
:1029B000811119C049815A816B817C818CE993E036
:1029C0000E949EAF4D815E816F81788587E993E09B
:1029D0000E949EAFB701A60182E993E00E949EAFDC
:1029E0008AE00E94BC2B0E9470550E9467570C948D
:1029F000BA238FE08093DF020C94BA239BE6292E42
:102A000092E0392E2BE0E22E2CE0F22E23ED3EE078
:102A10003BA32AA337ECC32E3EE0D32E00E010E008
:102A2000D1018D911D010E94EC90882309F44BC0C7
:102A30000E946C902B013C01133049F0F60120817B
:102A40003181428153810E9460E12B013C01AAA1A6
:102A5000BBA12D913D914D915C91C301B2010E94AA
:102A600060E14B015C012DEB37E346E855EB0E943A
:102A7000C1E387FD0AC02DEB37E346E855E3C50106
:102A8000B4010E94BCDC1816F4F4133051F44092E7
:102A9000DF0E5092E00E6092E10E7092E20E01E0C5
:102AA00012C0A5019401F701608171818281938137
:102AB0000E9461E1D7016D937D938D939C93139751
:102AC000812F0E94546D1F5FB4E0EB0EF11CEAA150
:102AD000FBA13496FBA3EAA3F4E0CF0ED11C143083
:102AE00009F09ECF002321F08FED9EE00E94DFA22F
:102AF0000E9467570C94BA2380910E0A813011F01E
:102B00000C94BA2389E40E94EC90082F882321F0CA
:102B10000E946890E82E01C0E12C8AE40E94EC90AB
:102B2000182F882321F00E946890F82E01C0F12C04
:102B3000002319F029E02E1528F0112349F039E07F
:102B40003F1530F484EA93E00E9458AD0C94BA2308
:102B500080E1E3EDFEE0A8E1BCE001900D928A95F2
:102B6000E1F7002359F08E2D0E9496946093180C83
:102B70007093190C80931A0C90931B0C112359F02D
:102B80008F2D0E94969460931C0C70931D0C809363
:102B90001E0C90931F0C60E080E50E943E6288232B
:102BA000C1F10023D1F02091AD0E3091AE0E4091D5
:102BB000AF0E5091B00E6091180C7091190C80916D
:102BC0001A0C90911B0C0E9460E16093180C70939A
:102BD000190C80931A0C90931B0C1123D1F02091A7
:102BE000B10E3091B20E4091B30E5091B40E60917F
:102BF0001C0C70911D0C80911E0C90911F0C0E945A
:102C000060E160931C0C70931D0C80931E0C9093DC
:102C10001F0C40E050E0BA0186E40E94DEBD6B016B
:102C20007C0120E030E0A9010E94C1E318165CF4A9
:102C300020E030E040E752E4C701B6010E945BE2C9
:102C40006B017C0103C0C12CD12C76018090210244
:102C500090902202A0902302B090240220E030E065
:102C6000A901C701B6010E94BCDC882341F0C092D3
:102C70002102D0922202E0922302F09224020091DB
:102C80001F021091200284E690E09093200280932E
:102C90001F02C0900902D0900A02E0900B02F0904F
:102CA0000C0280E090E0A0E8BFE3809309029093DB
:102CB0000A02A0930B02B0930C020E94246F809230
:102CC000210290922202A0922302B0922402109339
:102CD000200200931F02C0920902D0920A02E092E1
:102CE0000B02F0920C020C94BA230E943CD30C9479
:102CF000BA230091050D1091060D0B39110509F449
:102D0000DBC30CF0A4C00836110509F4A2C20CF014
:102D10005AC00B34110509F490C20CF502311105AB
:102D200009F402C474F417FF02C00C94902302301B
:102D300011050CF45DC10131110509F4A3C10C9416
:102D400090230A32110509F45BC20033110509F41E
:102D500070C20F31110511F00C949023A7C10235F8
:102D6000110509F4D1C3FCF40D34110509F46DC249
:102D70000CF467C20135110511F00C9490230E94E8
:102D80007A4B0E948D590E948EA41092010468EE25
:102D900073E080E090E00E94BCAC80E294E00E948E
:102DA0003D630C94BA230435110509F4BDC30CF43A
:102DB000B3C30535110509F4EEC30C35110509F44B
:102DC0000FC40C9490230137110509F42AC3F4F4BD
:102DD0000C36110511F40C94BA233CF40A36110593
:102DE00009F492C20CF47CC2B3C20E36110509F488
:102DF000BAC20CF44EC20F36110509F4C7C200372F
:102E0000110511F40C94BA230C9490230637110584
:102E100009F40DC564F40337110509F477C40CF403
:102E20006DC40537110509F4F3C40C9490230837D9
:102E3000110509F439C50CF434C50937110509F435
:102E40003BC50C38110509F416C30C9490230039C6
:102E500081E0180711F40C9448210CF05CC00C3D83
:102E6000110509F40BC734F50B3C110509F4B9C57C
:102E70008CF4083C110509F426C5093C110509F438
:102E80008DC50E3B110511F00C9490230E94F5BDE9
:102E90000C94BA230D3C110509F4F9C50CF4C3C513
:102EA0000E3C110509F406C6033D110509F420C6C0
:102EB0000C9490230232A1E01A0711F40C949E1F87
:102EC0007CF4023E110509F456C70831E1E01E0703
:102ED00009F49DC70D3D110511F00C949023F5C622
:102EE0000E32F1E01F0711F40C9401213CF40D3275
:102EF000114011F40C940E200C9490230F3281E0B9
:102F0000180711F40C9445210033114011F40C946E
:102F10008E200C949023063FA1E01A0711F40C9424
:102F20004D22A4F5043AE1E01E0711F40C9455215A
:102F300084F4023921E0120711F40C94502114F4A6
:102F40000C944B210A39114011F40C94BA230C94BF
:102F500090230C3A91E0190711F40C94EE213CF403
:102F6000053A114011F40C9458210C949023043F1D
:102F7000E1E01E0711F40C944A22053F114011F0C4
:102F80000C9490230E9464CF0C94BA230B3522E05A
:102F9000120711F40C94712284F4083F81E01807A1
:102FA00011F40C94592214F40C9450220835124058
:102FB00011F40C946A220C9490230C36B3E01B0796
:102FC00011F40C94BA233CF40335134011F40C941F
:102FD000EA220C949023043823E0120711F40C9495
:102FE0001B23073E134011F40C9484230C9490236C
:102FF00080E50E94EC90882329F00E942BAA6B01A7
:103000007C0103C0C12CD12C760183E50E94EC9099
:10301000882361F00E946C9020E030E04AE754E49D
:103020000E9422DD0E94D4E26B017C010E94CEA2AC
:103030008091030D9091040D892B41F00E94D3AF34
:103040008091030D9091040D0E94D92C8091050D63
:103050009091060D892B19F065EC73E002C06DEBC1
:1030600073E040E082E00E94E6628DEC93E00E9413
:1030700016630E94CE6240E0C701B6010E94F6309E
:103080000C94BA238091FF0C84FF02C00C94AD25F0
:103090008091010D87FF02C00C94AD258091020D37
:1030A000837011F00C94AD250C94CA250E9405592B
:1030B0007B018C0120E831E541E050E00E94C3E053
:1030C000C9016DE671E00E9432E14B015C01C8016B
:1030D000B70120E13EE040E050E00E94C3E0CA01B9
:1030E000B90128E130E040E050E00E94C3E0762ED4
:1030F000672EC62ED72E8CE3282E312C412C512C36
:10310000C801B701A20191010E94C3E0F62EE72E8B
:10311000CA01B901A20191010E94C3E0CB018E0155
:103120000F5F1F4F8114910499F0EF92FF927F93EC
:103130006F936F927F92BF92AF929F928F928FED1B
:1031400093E09F938F931F930F930E948DDC13C086
:10315000A114B104B1F0EF92FF927F936F936F923D
:103160007F92BF92AF9283EE93E09F938F931F93D2
:103170000F930E948DDC0FB6F894DEBF0FBECDBF5B
:1031800030C0CD2879F0EF92FF927F936F936F92CA
:103190007F9287EE93E09F938F931F930F930E94EC
:1031A0008DDCE9CF892B69F0EF92FF927F936F93CB
:1031B0008BEE93E09F938F931F930F930E948DDC70
:1031C000DACFEF92FF928FEE93E09F938F931F934E
:1031D0000F930E948DDC0F900F900F900F900F9027
:1031E0000F90C8010E9455670E94D3AFB80183EFCA
:1031F00093E00E94BCAF8AE00E94BC2B0C94BA23DF
:103200006DE070E080E50E94F9908C0197FF02C0AC
:103210000C94BA23E82E60E089E40E943E6281119A
:103220000C94D825802F0E948D298111C1C50C9442
:10323000D8250E944D630C94BA230E9454590C94D3
:10324000BA230E9478590C94BA230E948D590C9489
:10325000BA238091370983FF02C00C94BA230E94DD
:10326000CEA587FF02C00C94BA2383E50E94EC90A0
:10327000882359F00E946C900E94CDE2CB010E94FD
:10328000975461E080E00E942C4B0E94FBA00C94BC
:10329000BA238091370983FF02C00C94BA230E949D
:1032A000CEA5082F87FF02C00C94BA2383E50E94A5
:1032B000EC90F82E81110C940F2682E50E94EC9080
:1032C00081110C940F2610E00E94FBA0112311F431
:1032D0000C94BA236F2D802F0E94D1470C94BA23EF
:1032E0000E94CEA5182F87FD0AC080ED91E20E94B2
:1032F00058AD812F0E945F478AE00E94BC2B8EA5AB
:103300008093E0020C94632860E080E50E942262D2
:1033100081110C94BA2381E40E94A390882321F0A8
:1033200060910104062F02C00FEF10E083E50E94B8
:10333000EC90882349F00E9458908B016F3F7105F3
:1033400019F010F00FEF10E0009301040C94BA2371
:1033500060E080E50E94226281110C94BA231092F1
:1033600001040C94BA238EE40E94EC90882311F49B
:103370000C94BA230E94589060930A0D70930B0D21
:1033800080930C0D90930D0D0C94BA2383E50E944D
:10339000A390882331F060E083E50E94226280934D
:1033A00037090E94D3AF82E194E00E9458AD80912A
:1033B0003709882369F105E1E02E08E0F02E00E0EE
:1033C00010E020E08091370990E0A0E0B0E0002E0E
:1033D00004C0B695A795979587950A94D2F780FF74
:1033E0000EC0DD24D394D20E222319F08CE20E9469
:1033F000BC2BF701859194910E9458AD2D2D0F5F44
:103400001F4F92E0E90EF11C05301105D9F604C0FA
:103410008AE09AE00E9458AD8AE00E94BC2B0C948E
:10342000BA2383E50E94EC90882381F00E940E620B
:10343000282F30E02D33310524F4809300020C94C2
:10344000BA238CE3809300020C94BA230E94D3AF7A
:10345000C0900002D12CE12CF12C89E194E00E9473
:1034600058AD4AE0C701B6010E94C32B8AE00E9412
:10347000BC2B0C94BA238091370983FF02C00C94B3
:10348000BA2383E50E94EC90882311F40C94BA23AC
:103490000E946C900E94CDE26C3871050CF48B0197
:1034A0001093A9090093A8090E94424B61E080E0B3
:1034B0000E942C4B0C94BA2383E50E94EC90882345
:1034C00011F40C94BA230E940E62182F90E0CD974D
:1034D0000CF01CE31093DA020E9441546B017C0152
:1034E000212F30E0A8EEB3E00E9417E1C60ED71EF0
:1034F000E81EF91EC092D602D092D702E092D802FE
:10350000F092D9020C94BA238091DF028F7D806102
:103510008093DF020C94BA238091DF028F7E806259
:103520008093DF020C94BA2383E50E94EC908823F9
:10353000F1F00E9441546093B7097093B8098093E9
:10354000B9099093BA090E946C9020E030E04AE7F4
:1035500054E40E9422DD0E94D4E260930102709341
:10356000020280930302909304020C94BA23809188
:10357000FF0C84FF02C00C941D268091010D87FF73
:1035800002C00C941D268091020D837011F00C94E2
:103590001D260C944F2683E50E94A390882311F4E6
:1035A0000C94BA230E9441546093B7097093B809F0
:1035B0008093B9099093BA090E946C9020E030E0A2
:1035C0004AE754E40E9422DD0E94D4E26093DB02C9
:1035D0007093DC028093DD029093DE020C94BA2398
:1035E0000E94CEA587FF02C00C94BA239091FF0CD5
:1035F00094FD04C09091010D97FF0AC0BBE6CB2E4D
:10360000B2E0DB2E18E3E12E19E0F12E10E00AC043
:103610009091020D937091F7682F81E00E94F0A9BC
:103620000C94BA23D6018D916D010E94EC908823F1
:1036300009F459C0133009F04FC00E946C904B013F
:103640005C0120E030E040EA51E40E94BCDC87FFEE
:103650003AC0A5019401609158097091590980916F
:103660005A0990915B090E945BE22B013C019B018E
:10367000AC01609168097091690980916A09909123
:103680006B090E9422DD6093680970936909809339
:103690006A0990936B096091F5037091F60380912C
:1036A000F7039091F8030E94C1DCA30192010E94EC
:1036B00022DD0E94D4E26093F5037093F6038093B9
:1036C000F7039093F8038092580990925909A092B9
:1036D0005A09B0925B0907C00E946C90F701648B95
:1036E000758B868B978B1F5FF4E0EF0EF11C143007
:1036F00009F098CF0E94B1A10C94BA230E94D7D2AE
:1037000087E79FE00E9457780C94BA2388E895E0F9
:103710000E9458AD60E088E795E00E949BC660E09B
:1037200083E695E00E949BC661E08CE595E00E94EF
:103730009BC661E081E595E00E949BC661E081E463
:1037400095E00E949BC660E088E395E00E949BC6DE
:1037500061E08EE295E00E949BC661E084E295E024
:103760000E949BC660E089EC98E00E949BC661E0E5
:103770008CE195E00E949BC661E08EE095E00E949E
:103780009BC660E080E095E00E949BC660E081EF10
:1037900094E00E949BC660E083EE94E00E949BC68A
:1037A00060E08DEC94E00E949BC661E08CEB94E0BD
:1037B0000E949BC661E08DEA94E00E949BC660E097
:1037C00086EA94E00E949BC660E081E994E00E9452
:1037D0009BC660E083E894E00E949BC661E080E7BE
:1037E00094E00E949BC660E083E694E00E949BC642
:1037F00061E08EE594E00E949BC661E081E594E083
:103800000E949BC660E08DE394E00E949BC6B2C715
:103810008091030D9091040D009709F4ABC7DC0172
:103820002C91222309F4A6C70E945567A3C70091D3
:10383000030D1091040D94E0F12C40E0915021F122
:10384000F8018081282F2B7F213421F4218121331D
:10385000D9F407C08035C1F4818180538A3048F0A3
:1038600013C0813421F0853421F441E002C0FF24EB
:10387000F39498012E5F3F4F89012F5F3F4FF8016E
:1038800080818032C9F3DACF41110E94D3AFFF208B
:1038900021F08FE796E00E9458ADC8010E94D92C14
:1038A00069C70E94FC5766C781E080930A0A80932B
:1038B000090A0E9451585EC710920A0A1092090A1A
:1038C0000E94515857C70E94CEA5182F87FD52C796
:1038D0000091C30E84E40E94EC90882311F40C94B0
:1038E00052260E946C906B017C0120E030E0A9011F
:1038F0000E94BCDC882309F44BC024E01202F001D2
:103900001124E154F14FC082D182E282F38220E09F
:1039100030E0A901C701B6010E94C1E31816D4F432
:1039200020E030E040E05FE3C701B6010E9422DD05
:103930009B01AC010E9422DD2BED3FE049E450E405
:103940000E9422DD609305027093060280930702B5
:103950009093080220E030E0A9016091BF0E7091C1
:10396000C00E8091C10E9091C20E0E94BCDC8111EC
:103970000CC080E090E0A0EEBFE38093BF0E909378
:10398000C00EA093C10EB093C20E01E00C9452265B
:1039900080E08093C30E0E94D06AECC60E94CEA540
:1039A00087FDE8C6ABE6EA2EA2E0FA2E08E319E0AE
:1039B000D7018D917D010E94A390882359F00E9428
:1039C0006C900E94D4E2F8016083718382839383B8
:1039D0000E943AA10C5F1F4FF9E008341F0741F71E
:1039E000C9C60E94CEA587FDC5C6EBE6EE2EE2E075
:1039F000FE2E08E319E0F8E4CF2EF9E0DF2ED70120
:103A00008D917D010E94A390882339F00E946C90D3
:103A1000F80164A375A386A397A30C5F1F4FC0167C
:103A2000D10669F7A7C68091000D87FF02C00C94EC
:103A300058268091010D8E7011F00C9458264091FB
:103A40006C0950916D0960916E0970916F0983E85E
:103A500096E00E949EAF409170095091710960916B
:103A60007209709173098AE593E20E949EAF4091BA
:103A7000740950917509609176097091770989EF01
:103A80009EE10E949EAF8AE00E94BC2B73C680918B
:103A9000FF0C81FF02C00C949E268091000D81FFD7
:103AA00002C00C949E268091010D8C7011F00C9434
:103AB0009E2660C67FE0E72E7AE0F72E10E088E5CC
:103AC000810F0E94A390882359F00E946C90D70127
:103AD0006D937D938D939C931397812F0E94546DCA
:103AE0001F5FB4E0EB0EF11C133049F70C9478150E
:103AF0004090C70E5090C80E6090C90E7090CA0ECC
:103B00002091430230914402409145025091460277
:103B1000C301B2010E9461E16AA37BA38CA39DA3B0
:103B20008090CB0E9090CC0EA090CD0EB090CE0E8B
:103B300020914702309148024091490250914A0237
:103B4000C501B4010E9461E16EA37FA388A799A774
:103B5000C090CF0ED090D00EE090D10EF090D20E4B
:103B600020914B0230914C0240914D0250914E02F7
:103B7000C701B6010E9461E16AA77BA78CA79DA738
:103B800020914F02309150024091510250915202C7
:103B9000C301B2010E9461E12B013C01209153025B
:103BA000309154024091550250915602C501B40122
:103BB0000E9461E14B015C01209157023091580253
:103BC0004091590250915A02C701B6010E9461E129
:103BD0006B017C010E94D3AF82EC96E00E9458AD4D
:103BE00083E50E94A390882321F00E942E62809397
:103BF0001E0280911E02882319F080E593E002C026
:103C000084E895E00E9458AD8AEB96E00E9458AD9A
:103C10004AA15BA16CA17DA18BEB95E20E949EAFB6
:103C20004EA15FA168A579A582EE95E20E949EAFA4
:103C30004AA55BA56CA57DA581E097E00E949EAF9B
:103C400082EF9FE10E9458AD82EB96E00E9458AD52
:103C5000B301A2018BEB95E20E949EAFB501A401D6
:103C600082EE95E20E949EAFB701A60181E097E047
:103C70000E949EAF8AE00E94BC2B7CC583E50E9417
:103C8000EC90882331F00E946890909320028093FA
:103C90001F028091FF0C9091000DA091010DB09139
:103CA000020D892B8A2B8B2B09F064C560911F02B2
:103CB0007091200282ED96E00E94AFAF85E20E94F3
:103CC000BC2B8AE00E94BC2B55C50E94CEA5F82EC5
:103CD00087FD50C583E50E94EC900F2D0F2C000C42
:103CE000110B882369F10E946890F801EE0FFF1F05
:103CF000EB5DFD4F91838083000F111F000F111F9B
:103D0000F801E75FFD4F7F01BC01990F880B990B0C
:103D10000E94C3DC2AE037ED43E25CE30E9422DD2F
:103D2000F801E85DF34F20813181428153810E9487
:103D300022DDD7016D937D938D939C9313971AC5C4
:103D40000E94D3AF85E40E94BC2B80E38F0D0E94BC
:103D5000BC2B000F111FF801EB5DFD4F60817181DD
:103D600086ED96E00E94AFAF85E20E94BC2B8AE010
:103D70000E94BC2BFFC480E50E94A390882309F415
:103D8000F9C460E070E080E50E94F990F82E6FEFD2
:103D90007FEF83E50E94F9908C010196039708F06C
:103DA000E9C4F7FCE7C48F2D0E948D29882339F0E0
:103DB0000E94CFAF8EED96E00E9458ADDBC40E940A
:103DC000CEA260E08F2D0E9402530F3FBFEF1B0772
:103DD00031F00130110571F000E010E00DC08F2DC1
:103DE0000E94AA5231E020E0892B09F030E0032F35
:103DF000122F02C001E010E08F2D0E94AA528017FE
:103E0000910709F4B7C480E00E94FF2CF5CF80E54C
:103E10000E94A390882309F4ADC40E9468908C018D
:103E2000892B09F07FC083E50E94A390882389F045
:103E30000E9468908F3FEFEF9E0729F48BE49FE08C
:103E40000E94B22997C4BC018BE49FE00E94722AB1
:103E500091C40E94D3AF60E070E08DEE96E00E94C6
:103E6000AFAF80914D0F28E532E06901C81AD10843
:103E700087FDD394CC0CDD1CCC0CDD1C0D2C000C70
:103E8000EE08FF0880914C0F28E830E04901881ABD
:103E9000910887FD9394880C991C880C991C092C17
:103EA000000CAA08BB0880914B0F8F3FC1F090E037
:103EB000FC01EE0FFF1F8E0F9F1FFC01EE5FF04F06
:103EC0002181328183E0220F331F8A95E1F794E04C
:103ED000369527959A95E1F72E5F3F4F02C020E077
:103EE00030E02F5F3F4FC901330FAA0BBB0B9C0182
:103EF000AD01281939094A095B09A4EBB0E00E9419
:103F000004E1A7019601281939094A095B090E94B1
:103F1000E5E0B90182ED9BE10E94AFAF8AE00E942B
:103F2000BC2B28C40E94CFAFB8018EEE96E00E9451
:103F3000AFAF8EEA93E00E9458AD1CC48AE50E94A0
:103F4000EC90811106C083E50E94EC90882309F46F
:103F50004AC00E946C9020E030E040E050EC0E94AB
:103F6000BCDC87FD74C70E946C9020E030E040E02C
:103F700050E40E94C1E318160CF463C70E946C90D1
:103F80006B017C0184E00E94BF6E811122C02091F0
:103F90005409309155094091560950915709C7016C
:103FA000B6010E9422DD0E94CDE22091E102309113
:103FB000E202260F371F3093E2022093E1022091A4
:103FC0009E0930919F09620F731F70939F09609340
:103FD0009E0980E50E94A390882309F43EC70E94B1
:103FE0002E6281113AC78091010D87FD5CC78091D7
:103FF000020D837009F057C70E94D3AF4091B50EF0
:104000005091B60E6091B70E7091B80E85EF96E0A4
:104010000E949EAF8AE00E94BC2BACC360E085E4A6
:104020000E942262811173C080E50E94A3908823C0
:1040300051F00E946C906093F40E7093F50E809393
:10404000F60E9093F70E89E40E94A390882381F0E6
:104050000E946C902CEA35EC47E25EE30E9422DD80
:104060006093F80E7093F90E8093FA0E9093FB0E06
:1040700084E40E94A390882381F00E946C902CEA33
:1040800035EC47E25EE30E945BE26093FC0E7093C6
:10409000FD0E8093FE0E9093FF0E0E94D3AF4091D1
:1040A000F40E5091F50E6091F60E7091F70E8CE0C3
:1040B00097E00E949EAF2CEA35EC47E25EE3609108
:1040C000F80E7091F90E8091FA0E9091FB0E0E94FD
:1040D0005BE2AB01BC0188E097E00E949EAF2CEA56
:1040E00035EC47E25EE36091FC0E7091FD0E80912D
:1040F000FE0E9091FF0E0E9422DDAB01BC0184E018
:1041000097E00E949EAF8AE00E94BC2B33C30E94BE
:10411000CFAF80E197E00E9458AD2CC380E50E94AC
:10412000A390882351F00E946C906093AB09709328
:10413000AC098093AD099093AE0989E40E94A390E5
:10414000882381F00E946C902CEA35EC47E25EE314
:104150000E9422DD6093AF097093B0098093B1098A
:104160009093B20984E40E94A390882381F00E9476
:104170006C902CEA35EC47E25EE30E945BE26093D0
:10418000B3097093B4098093B5099093B6090E945E
:10419000D3AF4091AB095091AC096091AD097091DA
:1041A000AE098CE097E00E949EAF2CEA35EC47E226
:1041B0005EE36091AF097091B0098091B10990916F
:1041C000B2090E945BE2AB01BC0188E097E00E946B
:1041D0009EAF2CEA35EC47E25EE36091B309709143
:1041E000B4098091B5099091B6090E9422DDAB0116
:1041F000BC0184E097E00E949EAF8AE00E94BC2B45
:10420000B9C283E50E94A390182F882371F00E9401
:104210006C900E94CDE270930E0260930D0221E03B
:10422000672B09F020E02093120480E50E94A39000
:10423000882359F020910D0230910E02232B11F0AA
:104240000E942E628093120495C2111193C20E94A3
:10425000D3AF8BE397E00E9458AD8091120488237E
:1042600019F08AE390E102C082E297E00E9458AD23
:1042700060910D0270910E028AE297E00E94AFAF4A
:1042800086E297E00E9458AD75C20E94595C72C2E6
:104290000E94CEA26FC20E948A910E9467576AC292
:1042A0000E9481910E94675765C20E94856862C220
:1042B0006FEF7FEF89E40E94F990B82E6FEF7FEFE8
:1042C0008AE40E94F990182F83E40E94A390E82EBC
:1042D0008EE40E94A390C82E8AE50E94A390F82E37
:1042E000811105C081E50E94A390D82E01C0D12C78
:1042F000EE2081F020E030E040E063ED7EE081E000
:104300000E949AB629833A834B835C836D837E83B4
:10431000032F02C0012F2B2D8E2D90E0B7FC05C07E
:104320001095111F1127111F01C010E0810F911D61
:10433000019731F4F1100BC0D11009C0C11007C0B2
:104340000E94CFAF8EE497E00E9458AD13C22A308E
:1043500010F40A3038F00E94CFAF84EA93E00E9454
:1043600058AD08C2E22E220FFF08002E000C110BE0
:10437000C1101DC00E946C90DD2099F02AE02E9D96
:10438000F0012F9DF00D1124E00FF11FEE0FFF1F24
:10439000EE0FFF1FEF5EF24F20813181428153818A
:1043A00003C020E030E0A9010E9461E104C060E0A8
:1043B00070E080EC9FE72AE02E9DF0012F9DF00D2C
:1043C0001124E00FF11FEE0FFF1FEE0FFF1FEF5E36
:1043D000F24F6083718382839383CCC187E00E9414
:1043E000D26E8111C7C108E71EE123ED3EE03BA379
:1043F0002AA3CE0101961C0143E8C42E43E1D42E2A
:104400007C01C8010E940862AAA1BBA18D909D9069
:10441000AD90BD90BBA3AAA3A50194010E9460E149
:104420002B013C01F701608371838283938320E039
:1044300030E040EA51EC0E94C1E387FD0AC020E071
:1044400030E040EA51E4C301B2010E94BCDC18161E
:104450002CF4F601849118160CF42BC5D7018D901D
:104460009D90AD90BD907D0120E030E040EA51ECA0
:10447000C501B4010E94C1E387FD26C520E030E0FC
:1044800040EA51E4C501B4010E94BCDC18160CF0EE
:1044900022C51AC50E94839B6DC10E941FCD6AC1AF
:1044A00061E083E50E943E6291E089270E9472CF1D
:1044B00061C181E08093100D0E94B5C61092100D6D
:1044C000882309F457C10E94D3AF8CE997E00E947A
:1044D00058AD50C10E94CEA587FD4CC10E94F7A5E2
:1044E00049C10E94CEA5082F87FD44C185E50E94E1
:1044F000A3908823B1F1E02E002E000CFF080E944B
:104500006C904B015C0120E030E0A9010E94C1E306
:1045100087FF04C0B7FAB094B7F8B094C70123E09E
:10452000880F991F2A95E1F79C012B55314F79018E
:10453000D9018D929D92AD92BC92139720E030E00C
:1045400048E453E4C501B4010E94C1E318164CF4D9
:1045500080E090E0A8E4B3E4F70180839183A28334
:10456000B3838CE40E94A390882309F403C1002E36
:10457000000C110B0E946C906B017C0120E030E07C
:10458000A9010E94C1E387FF04C0F7FAF094F7F88D
:10459000F09420E030E048E453E4C701B6010E9403
:1045A000C1E3980193E0220F331F9A95E1F7F901D7
:1045B000EB55F14F18162CF0C482D582E682F782B3
:1045C000D9C080E090E0A8E4B3E484839583A68317
:1045D000B783D0C08091010D87FDA5C48091020DE5
:1045E000837009F0A0C44091AD0E5091AE0E609161
:1045F000AF0E7091B00E8FED97E00E949EAF40918C
:10460000B10E5091B20E6091B30E7091B40E82EE65
:1046100095E20E949EAF4091B50E5091B60E60910A
:10462000B70E7091B80E81E097E00E949EAF8AE0CD
:104630000E94BC2B9FC0A0901304B0901404C090A3
:104640001504D09016048BE40E94EC90882339F175
:104650000E946C907B018C0120E030E0A9010E9457
:10466000C1E387FD0AC020E030E040E251E4B70139
:10467000C8010E94BCDC1816A4F48FE30E94BC2B76
:104680008BE40E94BC2B86EF97E00E9458AD8EEE23
:1046900097E00E9458AD8CEE92E10E9458AD7501F2
:1046A00086019701A801B501C6010E94BCDC8823E0
:1046B00061F00E94CEA2C701D801809313049093A9
:1046C0001404A0931504B09316048091FF0C9091EC
:1046D000000DA091010DB091020D892B8A2B8B2B1F
:1046E00009F048C00E94D3AF4091130450911404C4
:1046F00060911504709116048AE098E00E949EAFC4
:104700008AE00E94BC2B36C081E080930E0A60E0F4
:1047100083E50E943E6281112DC00E94AFBF2AC076
:104720000E943CD327C00091050D1091060D0E94F8
:1047300041546093B7097093B8098093B909909375
:10474000BA090023B9F00E94D3AF84E50E94BC2BC4
:10475000B8017727072E000C880B990B0E94302C8C
:1047600080E20E94BC2B80E197E00E9458AD02C01D
:104770000E943CD3F8A9F1110FC0E0919D0BF0E02D
:10478000E957F04F8081882339F080ED91E20E9453
:1047900058AD8AE00E94BC2B2EA52093E00293C462
:1047A0000E94CEA23091BE0E3FA780E00E9469AB6E
:1047B0000E9441546093B7097093B8098093B90976
:1047C0009093BA090E94895581E080930A0A0E9459
:1047D00051588AE50E94A390E82E8823A1F081E039
:1047E0000E94BF6E182F82E00E94BF6E01E081110F
:1047F00001C000E01111A5C188E50E94A390F82E28
:1048000081119FC102C000E0F7CF0111A3C189E56A
:104810000E94A390182F801398C1E01298C111E054
:10482000FF24F39431E03AA782E50E94EC908823BC
:1048300019F00E946C9004C060E070E080EA90E49F
:104840006E8F7F8F88A399A320E030E0A9010E949A
:10485000BCDC882361F0F11006C0111104C08AA5E8
:10486000882309F460C1CE014E960E944852FF2071
:1048700009F4D3C0112309F4CDC01092D30E1092C5
:10488000D40E1092D50E1092D60E1092D70E109212
:10489000D80E1092D90E1092DA0E0E946557E3E8F6
:1048A000F3E1949199AB8CE69EE10E9408626B0162
:1048B0007C0180E79EE10E9408624B015C019B0144
:1048C000AC01C701B6010E94C1E318162CF4A70180
:1048D0009601C501B40104C0A5019401C701B60148
:1048E0000E945BE22B013C01ECE6F3E1859195919E
:1048F000A591B4918AA39BA3ACA3BDA3E8E6F3E181
:1049000085919591A591B4918EA39FA3A8A7B9A7CE
:104910009C01AD016AA17BA18CA19DA10E94C1E374
:10492000181634F42EA03FA008A599A59AA305C097
:104930002AA03BA00CA1ADA1AAA3A3019201C3018F
:10494000B2010E9422DD20E030E040E85FE30E94F7
:1049500061E10E945FE49101402F5AA10E9422DD93
:104960006A8F7B8F8C8F9D8FE4E8F3E1049120E0C8
:1049700030E040EC5FE3C501B4010E9422DD4B0151
:104980005C01602F000F770B880B990B0E94C3DC32
:104990009B01AC01C501B4010E9422DD69837A83C9
:1049A0008B839C8320E030E040EC5FE3C701B601DD
:1049B0000E9422DD6B017C01B9A96B2FBB0F770B25
:1049C000880B990B0E94C3DC9B01AC01C701B601A7
:1049D0000E9422DD6E8B7F8B888F998FAE01465EA1
:1049E0005F4FBE016F5F7F4FCE0146960E946556B6
:1049F0000E9460581092D30E1092D40E1092D50ED1
:104A00001092D60E1092D70E1092D80E1092D90E88
:104A10001092DA0E80E00E94746D112319F081E08B
:104A20000E94746DEAA5EE2309F47DC080E00E9427
:104A30000A6883E00E94D26E811175C00E9465579A
:104A4000C090DB0ED090DC0EE090DD0EF090DE0E1C
:104A50002091AD0E3091AE0E4091AF0E5091B00E40
:104A600060E070E086E193E40E9460E16093180CDE
:104A70007093190C80931A0C90931B0C2091B10E1B
:104A80003091B20E4091B30E5091B40E60E070E0E0
:104A900086E193E40E9460E160931C0C70931D0C0E
:104AA00080931E0C90931F0C2091B50E3091B60E82
:104AB0004091B70E5091B80EC701B6010E9460E157
:104AC0006093200C7093210C8093220C9093230C04
:104AD00088E19CE00E940AAB8823D9F01E8A1F8AD5
:104AE000188E198E88E0E8E1FCE0DE011196019055
:104AF0000D928A95E1F7AE014A5E5F4FBE016B5F92
:104B00007F4FCE0101960E94655682E00E94746D2F
:104B10000AC081E893E00E943D630E94D3AF8FE614
:104B200093E00E9458AD0E9465578091090A8093D6
:104B30000A0A8FA50E9469AB0E9470550E946757B0
:104B400019CE01116ACE01E062CEF02E04C0102F02
:104B5000F02E01C0102FEAA667CE88E50E94A39030
:104B600081115F9889E50E94A39081118A988AE556
:104B70000E94A390882331F0809108018170809376
:104B80000601479885E40E94A390882309F4F2CD9A
:104B90001298F0CD86ED93E00E943D635F988A986D
:104BA0008091080181708093060147981298E2CDA8
:104BB0008DE40E94EC908823A9F00E940E6281305F
:104BC00039F020F0823049F462E003C060E001C0B7
:104BD00061E0802F0E94025305C080E094E00E94B3
:104BE00058ADC8CD83E50E94EC90882309F4C2CD6E
:104BF0000E940E62F82E39E0E31203C08093010494
:104C0000B9CD61E0802F0E9402536F2D802F0E944A
:104C1000D3526F2D70E0802F0E943E53ABCD0E9487
:104C20006C900E94CDE2CB010E94975461E081E03C
:104C30000E942C4B11E00C9464190E94CEA288E5CE
:104C40000E94A390882331F05F9A80910C0A8E7F96
:104C500080930C0A89E50E94A390882331F08A9AF8
:104C600080910C0A8D7F80930C0A8AE50E94A390A4
:104C7000882361F0809108018095817080930601FE
:104C8000479A80910C0A8B7F80930C0A85E40E94DE
:104C9000A390882309F46ECD0E9443296BCD0E9416
:104CA0008EA468CD602F83E50E943E620C94C91CDF
:104CB00083E50E94EC90882391F00E946C906093B1
:104CC0006C0970936D0980936E0990936F096093DE
:104CD000740970937509809376099093770980E53C
:104CE0000E94EC90882351F00E946C9060936C09B4
:104CF00070936D0980936E0990936F0982E50E940D
:104D0000EC90882351F00E946C906093700970932E
:104D10007109809372099093730984E50E94EC9065
:104D2000882309F427CD0E946C90609374097093D6
:104D3000750980937609909377091CCD82E40E94CF
:104D4000A390882351F00E942BAA60934809709386
:104D5000490980934A0990934B0983E50E94A390E7
:104D6000882351F00E946C906093780970937909C0
:104D700080937A0990937B0984E50E94A39088230D
:104D800051F00E946C9060937C0970937D09809330
:104D90007E0990937F098AE40E94A390882309F4F6
:104DA000E9CC0E946C906B017C012AE037ED43E274
:104DB0005CE30E94C1E387FD3DC02AE939E949E986
:104DC0005EE3C701B6010E94BCDC18169CF1C092DC
:104DD000E503D092E603E092E703F092E8036091E6
:104DE00038097091390980913A0990913B090E94E4
:104DF000C1DC4B015C0123EF34E045E35FE3C70115
:104E0000B6010E9422DD2AE136EF45E95EE30E9409
:104E10005BE29B01AC01C501B4010E9422DD0E944E
:104E20005FE46093FD037093FE038093FF03909310
:104E30000004A0CC0E94CFAF83E996E00E9458AD59
:104E400099CCC12CD12CE12C10E4F12E9BC8C12CA3
:104E5000D12CE12CB0ECFB2E95C8A70196016091F6
:104E6000B50E7091B60E8091B70E9091B80E0E945B
:104E700061E16093B50E7093B60E8093B70E909378
:104E8000B80E0E94D3AF4091B50E5091B60E60910E
:104E9000B70E7091B80E85EF96E00E949EAF8AE043
:104EA0000E94BC2BA0C882E50E94A3908111A4C8D7
:104EB00061CCB7FAB094B7F8B094D7018D929D92B7
:104EC000AD92BC921397CACA0E94CFAF8EE797E00B
:104ED0000E9458AD4FCC0C5F1F4FBFEFCB1ADB0ABF
:104EE000EEE104381E0709F08CCA3FE0E32E3AE0F9
:104EF000F32E10E0F10181919191A191B1911F01E7
:104F0000F70181939193A193B1937F01812F0E9427
:104F1000546D1F5F133071F70E9467578EE697E05C
:104F20000E943D6327CCF091AD0EFAA38090AE0EA7
:104F30007090AF0E6090B00E5090B10E4090B20ED7
:104F40003090B30E2090B40EC090B50ED090B60E37
:104F5000E090B70EF090B80E88E50E94EC908823A0
:104F600061F10E946C905B018C0120E030E046E929
:104F700053EC0E94C1E387FD0AC020E030E046E91F
:104F800053E4B501C8010E94BCDC181694F46CE22D
:104F900071E08CEC97E00E94AFAF6CE271E08CE2C4
:104FA0009DE10E94AFAF83E39CE00E9458AD10E00A
:104FB00005C0AAA28B2C702E612E11E089E50E94FB
:104FC000EC90882381F10E946C90962EA72EB82E2B
:104FD000092F20E030E046E953EC0E94C1E387FD51
:104FE0000CC020E030E046E953E4692D7A2D8B2D8A
:104FF000902F0E94BCDC181694F46CE271E089EBEF
:1050000097E00E94AFAF6CE271E08CE29DE10E94FC
:10501000AFAF83E39CE00E9458AD10E004C0592C70
:105020004A2C3B2C202E8AE50E94EC90882339F1F3
:105030000E946C906B017C0120E030E040EA51EC72
:105040000E94C1E387FD0AC020E030E040EA51E45D
:10505000C701B6010E94BCDC18168CF46CEE7FEF21
:1050600087EA97E00E94AFAF64E170E08CE29DE1D7
:105070000E94AFAF83E39CE00E9458AD7BCB11232D
:1050800009F478CB8AA1982DA72DB62D8093AD0E6B
:105090009093AE0EA093AF0EB093B00E852D942DCD
:1050A000A32DB22D8093B10E9093B20EA093B30EA8
:1050B000B093B40EC092B50ED092B60EE092B70E79
:1050C000F092B80E57CBE1960FB6F894DEBF0FBE44
:1050D000CDBFDF91CF911F910F91FF90EF90DF90A7
:1050E000CF90BF90AF909F908F907F906F905F9088
:1050F0004F903F902F900895CF92DF92EF92FF92C2
:105100000F931F93CF93DF936C018B017A01EC0116
:10511000CE50DD4F888187FF04C0FB0111821082D1
:1051200024C02CE02C9DC0012D9D900D11242881C0
:10513000AC01420F511D27FD5A9520914A0F30E0D6
:105140004217530794F42881AC01420F511D27FDEB
:105150005A959A01FA01EE0FFF1F2E0F3F1FF9011A
:10516000EE5FF04F208127FD19C088818F5F888313
:105170002CE02C9DC0012D9D900D11242881AC01A7
:10518000420F511D27FD5A9520914A0F30E04217DA
:105190005307BCF428812C3044F113C02881820FBE
:1051A000911D27FD9A95FC01EE0FFF1F8E0F9F1F8B
:1051B000FC01EE5FF04F808160E08F770E94D35258
:1051C000D4CFF80180819181049680349C4918F4F1
:1051D00080E49CE904C0F801808191810496F70184
:1051E000918380838FEF888345C0F801408151818E
:1051F0002881BC01620F711D27FD7A959B01FB017F
:10520000EE0FFF1F2E0F3F1FF901EE5FF04F2181C0
:105210003281240F351FF701318320832881AC01AF
:10522000420F511D27FD5A959A01FA01EE0FFF1FFB
:105230002E0F3F1FF901EE5FF04F208127FF1AC0AC
:105240002881820F911D27FD9A95FC01EE0FFF1F0B
:105250008E0F9F1FFC01EE5FF04F808161E08F7722
:10526000DF91CF911F910F91FF90EF90DF90CF9042
:105270000C94D352DF91CF911F910F91FF90EF903B
:10528000DF90CF900895129A08955F9A80910C0A4A
:105290008E7F80930C0A8A9A80910C0A8D7F80936E
:1052A0000C0A809108018095817080930601479ACD
:1052B00080910C0A8B7F80930C0A0C944329C42F95
:1052C0000E947A4B0E94CFAF8EE09AE00E9458ADC8
:1052D00061E085E09AE00E94B66289EE93E030E6F4
:1052E000019729F0232F2A950000E9F7F9CFF894C8
:1052F00089EE93E038EE019729F0232F2A950000DC
:10530000E9F7F9CF0E947A4BCC2319F00E94452986
:1053100002C00E944329A895FECFFF920F931F93CE
:10532000CF93DF931F92CDB7DEB7F82E0EE21AE0CF
:1053300041E050E0B801CE0101960E942FDC898146
:105340008F1102C081E007C00F5F1F4F8AE00A344F
:10535000180771F780E00F90DF91CF911F910F91A7
:10536000FF900895DC01EC91F0E0CF01880F991FC8
:10537000E80FF91FEE5FF04F80818F7780830895EB
:105380008F929F92AF92BF92CF92DF92EF92FF9255
:105390000F93CF93DF931F92CDB7DEB75C016B0104
:1053A0007A014901F501808191810E949DE0898304
:1053B000002311F0F6018083BE016F5F7F4FC401AF
:1053C0000E94BFD2F50180819181019691838083F3
:1053D000FFEFCF1ADF0A81E0E81AF10819F780E041
:1053E0000F90DF91CF910F91FF90EF90DF90CF90D2
:1053F000BF90AF909F908F9008957F928F929F92D1
:10540000AF92BF92CF92DF92EF92FF920F931F93D2
:10541000CF93DF931F92CDB7DEB77C0159018B018B
:105420006B01C40ED51E0C151D0559F1F7018080C6
:105430009180F80171908F017982C4010E949DE0F2
:10544000781691F0672DC4010E94A5E0C4010E9466
:105450009DE09981891741F00E94D3AF8CEE98E0CE
:105460000E9458AD81E00EC0BE016F5F7F4FC50145
:105470000E94BFD2F7018081918101969183808340
:10548000D2CF80E00F90DF91CF911F910F91FF90CD
:10549000EF90DF90CF90BF90AF909F908F907F90D4
:1054A0000895009781F41092900082E0809391001B
:1054B0001092950010929400C19A809171008260C0
:1054C000809371000895019761F41092A00082E02A
:1054D0008093A1001092A5001092A40089BB809334
:1054E000720008957F928F929F92AF92BF92CF9257
:1054F000DF92EF92FF920F931F93CF93DF93FC0104
:105500009081983108F0CEC06B017F01892F90E027
:10551000FC01EE0FFF1F8E0F9F1FFC01EE5FF04F8F
:10552000808161E08F770E940253F701118212821D
:1055300080816CE00E9426E1FCE08F9FB001112485
:1055400040E050E09B01240F351FF901EE0FFF1FD3
:105550002E0F3F1FF901EE5FF04F908197FD08C0BD
:105560004F5F5F4F4C30510569F790E00E94512A20
:10557000F7017080C72DD0E08E01000F111FF801D8
:10558000EC0FFD1FEE5FF04F80818068808377FC19
:1055900089C0F0E2CF16F2E0DF060CF041C0F7015F
:1055A000828128E532E0281B310987FD3395220FDF
:1055B000331F220F331F032E000C440B550B818128
:1055C00068E870E04B01881A910887FD9394880C75
:1055D000991C880C991C092C000CAA08BB08D7FC44
:1055E0000BC0B601653B710514F064EB70E0072E4B
:1055F000000C880B990B03C060E070E0CB01281908
:1056000039094A095B090E94B3E024EB30E040E02D
:1056100050E00E94E5E0820E931EA41EB51E01C05C
:105620004601F7E1F71558F1F701218188E890E08C
:10563000821B910927FD9395880F991F880F991F49
:105640008816990684F0F701228188E592E0821B92
:10565000910927FD9395880F991F880F991F881628
:1056600099060CF4C40102972FB7F894C00FD11F0C
:10567000CE5FD04F880F991F9A8389832FBF62E333
:1056800070E080E090E0DF91CF911F910F91FF904B
:10569000EF90DF90CF90BF90AF909F908F907F90D2
:1056A0000C94BCACDF91CF911F910F91FF90EF90C4
:1056B000DF90CF90BF90AF909F908F907F90089594
:1056C0001F920F920FB60F9211240BB60F922F93C9
:1056D0003F934F935F936F937F938F939F93AF937A
:1056E000BF93EF93FF9348EA50E064EA70E081E0F3
:1056F00090E00E947C28FF91EF91BF91AF919F9124
:105700008F917F916F915F914F913F912F910F906A
:105710000BBE0F900FBE0F901F9018951F920F9207
:105720000FB60F9211240BB60F922F933F934F9306
:105730005F936F937F938F939F93AF93BF93EF93F9
:10574000FF9348E950E064E970E080E090E00E9457
:105750007C28FF91EF91BF91AF919F918F917F91A5
:105760006F915F914F913F912F910F900BBE0F90D2
:105770000FBE0F901F9018959091C00095FFFCCF21
:105780008093C60008958F929F92AF92BF92EF923E
:10579000FF920F931F93CF93DF93CDB7DEB7A09700
:1057A0000FB6F894DEBF0FBECDBF61157105810540
:1057B000910591F100E0842E912CA12CB12C102F99
:1057C000EE24E394F12CEC0EFD1EE00EF11C07FD1F
:1057D000FA94A50194010E94C3E0F7016083B90126
:1057E000CA010F5F611571058105910541F71F3FE2
:1057F00031F1E1E0F0E0EC0FFD1FE10FF11D17FDCD
:10580000FA9580818A3010F097E301C090E3890F08
:105810000E94BC2B1150EBCF80E3A0960FB6F894FA
:10582000DEBF0FBECDBFDF91CF911F910F91FF90D3
:10583000EF90BF90AF909F908F900C94BC2BA09650
:105840000FB6F894DEBF0FBECDBFDF91CF911F9191
:105850000F91FF90EF90BF90AF909F908F90089521
:10586000CF92DF92EF92FF926B017C0197FF0BC00A
:105870008DE20E94BC2BF094E094D094C094C11CA3
:10588000D11CE11CF11C4AE0C701B601FF90EF906A
:10589000DF90CF900C94C32BAB01672B11F40C94C9
:1058A000BC2BBC01990F880B990B4A30510511F4A0
:1058B0000C94302C0C94C32B8F929F92AF92BF927A
:1058C000CF92DF92EF92FF92CF936B017C01B42EC7
:1058D00020E030E0A9010E94BCDC87FF07C08DE218
:1058E0000E94BC2BF7FAF094F7F8F094C0E060E067
:1058F00070E080E09FE3CB1541F02DEC3CEC4CECEC
:105900005DE30E9422DDCF5FF6CF9B01AC01C701B2
:10591000B6010E9461E16B017C010E94D4E24B015F
:105920005C014AE00E94C32BCC2389F1C501B4017C
:105930000E94C1DC9B01AC01C701B6010E9460E17D
:105940006B017C018EE20E94BC2B20E030E040E243
:1059500051E4C701B6010E9422DD4B015C010E94A7
:10596000CDE26B01770FEE08FF08C701B6010E9478
:10597000302CC701B6010E94C3DC9B01AC01C501FC
:10598000B4010E9460E16B017C01C150F1F6CF913E
:10599000FF90EF90DF90CF90BF90AF909F908F904F
:1059A00008950C945C2C8DE00E94BC2B8AE00C9432
:1059B000BC2BCF93DF93EC018991882319F00E94CF
:1059C000BC2BFACFDF91CF910C94D32CE4EFF2E013
:1059D0008081818308958091F4029091F502981757
:1059E00059F0E92FF0E0EC50FD4F82819F5F9F77E7
:1059F0009093F50290E008958FEF9FEF08952F9216
:105A00003F924F925F926F927F928F929F92AF924E
:105A1000BF92CF92DF92EF92FF920F931F93CF939B
:105A2000DF93CDB7DEB728970FB6F894DEBF0FBE71
:105A3000CDBF182F80919E0B843008F03BC180E6CB
:105A4000F82E01E080919E0B843008F033C18091E4
:105A5000F4029091F502891B8F7709F42BC10E9403
:105A6000EB2CAC0197FDEECF282F8A3019F08D304A
:105A700009F0E3C0109277038091080D9091090D11
:105A8000FC01E858FC4F1082892B49F01092090D57
:105A90001092080D28E733E03F832E8303C00E9455
:105AA000F94CD0CFEE81FF818191803219F4FF83D0
:105AB000EE83F8CF8E3409F072C04E815F814115BC
:105AC000510509F46CC062E879E0CA010E9473DCF8
:105AD0006C01892B49F06EE470E08E819F81049601
