:100000000C948E140C94BF140C94BF140C94BF1455
:100010000C94BF140C94BF140C94BF140C94BF1414
:100020000C94BF140C94BF140C94BF140C94BF1404
:100030000C94BF140C94BF140C94BF140C94BF14F4
:100040000C94BF140C94D3920C94BF140C94BF1452
:100050000C94BF140C94BF140C94D1800C94BF5416
:100060000C94BF140C9495320C948B320C94BF14E6
:100070000C94BF140C94BF140C94BF140C94BF14B4
:100080000C94E52C0C94BF140C94BF140C94BF1466
:100090000C94BF140C94BF140C94BF140C94BF1494
:1000A0000C94BF140C94BF140C94B72C0C94BF1474
:1000B0000C94BF140C94BF140C94BF140C94BF1474
:1000C0000C94BF140C94BF140C94BF140C94BF1464
:1000D0000C94BF140C94BF140C94BF140C94BF1454
:1000E0000C94BF14CB32DD32EF32003308333B3394
:1000F0000C333B33103314333B3318331C3320336E
:1001000029333B333433E13EE83E9B3FA03FEF4091
:10011000F44004416452675256525A5260529E5201
:100120006B526F52755279527D52835287528B5265
:100130009E52915295529952D953DE53E353ED5347
:10014000F75370540154095411541B5425542F541F
:100150003E544854705452545C546654084AD73B39
:100160003BCE016E84BCBFFDC12F3D6C74319ABD86
:1001700056833DDA3D00C77F11BED9E4BB4C3E91AA
:100180006BAAAABE000000803F05A84CCDB2D44E99
:10019000B93836A9020C50B9918688083CA6AAAA9B
:1001A0002ABE000000803F07634236B79BD8A71ADB
:1001B00039685618AEBAAB558C1D3CB7CC5763BDE9
:1001C0006DEDFD753EF6177231BF000000803F08EF
:1001D000000000BE922449123EABAAAA2ABECDCC92
:1001E000CC4C3E00000080BEABAAAAAA3E00000094
:1001F00000BF000000803F0000000000084178D3ED
:10020000BB4387D1133D190E3CC3BD4282AD2B3E8B
:1002100068EC8276BED98FE1A93E4C80EFFFBE012B
:10022000C4FF7F3F0000000000000C9404410C94C8
:1002300020330C949B3F0C94EF400C9479520C9417
:1002400011540C9452540C9460520C9418330C9426
:10025000CB320C9410330C9408330C9470540C94DF
:100260000C330C94A03F0C942F540C9499520C9482
:1002700000330C946B520C9434330C9475520C94E0
:100280005C540C9425540C941B540C943E540C94C4
:1002900056520C94DD320C948B520C943B330C94DC
:1002A00001540C9409540C947D520C9415E50C9453
:1002B000D9530C94E13E0C949E520C9466540C94C9
:1002C00029330C94F4400C946F520C945A520C94B1
:1002D00087520C94E83E0C94ED530C94F7530C9415
:1002E00091520C9467520C941C330C94E3530C946D
:1002F000DE530C9483520C9464520C9448540C9426
:10030000EF320C9495520C9414334E414E494E49A1
:100310005459494E46CDCCCC3D0AD7233C17B7D1D2
:100320003877CC2B329595E6241FB14F0A00002078
:10033000410000C84200401C4620BCBE4CCA1B0EF7
:100340005AAEC59D74434F4D4D554E494341544996
:100350004F4E0044525952554E004552524F52533F
:10036000004543484F0047322F47332062616420E5
:10037000706172616D65746572730A00536C6565B6
:10038000702E2E2E005A2050726F626520506173BD
:1003900074204265640A005A2050726F62652050D2
:1003A0006173742042656400205A3A200020593A53
:1003B000200042656420583A20004D657368207023
:1003C0006F696E74206F7574206F662072616E673E
:1003D000650A004D302053746F70004D3120537406
:1003E0006F7000436F6E74696E7565004E6F204DBF
:1003F0006F76652E00256979202569642025696856
:100400002025696D20256973005072696E7420740F
:10041000696D653A2000496E76616C6964205069A7
:100420006E204D6F64650A0044454255473A004DC1
:1004300031313320530042656420436F6F6C696E25
:10044000672E2E2E004265642048656174696E67D0
:100450002E2E2E00417274696C6C6572792053697E
:10046000646577696E646572205831204F46462E68
:10047000002F2F2000416363656C65726174696FA2
:100480006E3A2050005741524E494E4721204C6F42
:1004900077205A204A65726B206D6179206C656106
:1004A0006420746F20756E77616E7465642070616E
:1004B000757365732E0A0020204D61783A20002064
:1004C000204D696E3A2000536F667420656E647328
:1004D000746F70733A200046523A0020466C6F7772
:1004E0003A200050726F7465637465642050696EC1
:1004F0000A0020536572766F200050726F6265208B
:100500004F6666736574205A0020643A0020693A89
:100510000020703A006469730043290A0061626C2C
:10052000656420286D696E2074656D702000436FCE
:100530006C642065787472756465732061726520DF
:10054000004D34323120696E636F727265637420BE
:10055000706172616D657465722075736167650A9B
:10056000004F666673657473204170706C696564D2
:1005700000546F6F206661722066726F6D20726525
:10058000666572656E636520706F696E740A0045FA
:100590004550524F4D204F4B0A002028302D31300E
:1005A00029002076616C7565206F7574206F662058
:1005B00072616E676500416476616E6365204B3DD4
:1005C0000061033D065A03530345034D3231004D8C
:1005D000323320257300204100204300726F746184
:1005E00074696F6E206D61747269783A0A005A5F9F
:1005F0006D6F76655F636F6D700A00206D61783A8C
:1006000000206D696E3A0041786973200041636390
:10061000656C65726174696F6E206C696D69746573
:10062000642E0A00534C4F5700554E4B4E4F574EB9
:100630002053544154450047434F44455F494E467B
:100640004F004C43445F50415553455F524553550D
:100650004D450046494C414D454E545F52554E4F15
:1006600055545F434F4E54494E55450046494C4101
:100670004D454E545F52554E4F5554004D38373608
:1006800020526573706F6E64696E672050524F4DD3
:1006900050545F004D3234004572726F7220777291
:1006A0006974696E6720746F20454550524F4D2123
:1006B0000A004E6F20436865636B73756D20776920
:1006C0007468206C696E65206E756D6265722C2091
:1006D0004C617374204C696E653A200063686563F1
:1006E0006B73756D206D69736D617463682C204C3C
:1006F000617374204C696E653A20004C696E652008
:100700004E756D626572206973206E6F74204C6146
:100710007374204C696E65204E756D6265722B3165
:100720002C204C617374204C696E653A20004D3169
:100730003130002121204B494C4C20636175736599
:100740006420627920746F6F206D75636820696E14
:100750006163746976652074696D65202D20637509
:100760007272656E7420636F6D6D616E643A200005
:10077000627573793A2070617573656420666F7273
:1007800020696E7075740A00627573793A20706121
:100790007573656420666F7220757365720A0062F6
:1007A0007573793A2070726F63657373696E670A47
:1007B00000706F7765726F6666005072696E74655F
:1007C000722068616C7465642E206B696C6C2829DA
:1007D0002063616C6C6564210A00363726033C3D5A
:1007E000380E2E303E1224221E131A1C180A0743FC
:1007F0000809070844000150726F62696E6720465D
:1008000061696C65640A0050726F62696E672046A8
:1008100061696C65640047323800446F6E652E0A6A
:10082000003F496E76616C69642073746F72616712
:100830006520736C6F742E0A3F55736520302074E9
:100840006F20003F5034206973206F6E6C792061F7
:100850007661696C61626C65207768656E20616E97
:10086000204C43442069732070726573656E742E4A
:100870000A003F5032206973206F6E6C79206176D8
:1008800061696C61626C65207768656E20616E20BD
:100890004C43442069732070726573656E742E0A30
:1008A0000050726F62696E672061726F756E6420AE
:1008B00028004D65736820696E76616C69646174A7
:1008C00065642E2050726F62696E67206D65736873
:1008D0002E0A004D657368207A65726F65642E0A72
:1008E0000044656661756C742073746F726167652E
:1008F00020736C6F7420302073656C65637465645D
:100900002E0A004C6F6164696E6720746573745FB2
:100910007061747465726E2076616C7565732E0AF1
:100920000A00496E76616C696420746573745F7047
:1009300061747465726E2076616C75652E20282D49
:100940003120746F2032290A0A004C6F6361746988
:100950006F6E7320696E76616C6964617465642E74
:100960000A0A00456E74697265204D6573682069D6
:100970006E76616C6964617465642E0A0A00207485
:100980006F6F206C6F6E6720657874727573696F16
:100990006E2070726576656E7465640A0020636F00
:1009A0006C6420657874727573696F6E20707265FF
:1009B00076656E7465640A0070012C019001270150
:1009C000B0012201C0011D01F00118011002130144
:1009D00030020E016002090190020401C002FF0012
:1009E0000003FA004003F5008003F000D003EB00A1
:1009F0002004E6007004E100E004DC004005D700BC
:100A0000C005D2004006CD00D006C8008007C30054
:100A10003008BE00F008B900C009B400B00AAF0049
:100A2000B00BAA00D00CA500000EA000500F9B0038
:100A3000C01096005012910000148C00C015870061
:100A4000B0178200B0197D00D01B7800001E730023
:100A500040206E0090226900F024640040275F006F
:100A600090295A00E02B5500102E500020304B00EA
:100A700010324600E033410090353C00103737001B
:100A800070383200A0392D00B03A2800A03B230076
:100A9000603C1E00103D1900903D1400103E0F00F8
:100AA000703E0A00C03E0500003F0000403FFBFFD3
:100AB000803FF6FFC03FF1FF000021002400270027
:100AC0002A002D003000330001010000040107015D
:100AD0000A0100002200250028002B002E00310012
:100AE000340002010000050108010B010000200094
:100AF0002300260029002C002F00320000010000F6
:100B00000301060109010505050507050808080890
:100B1000020202020A0A0808040404040101010195
:100B20000101010103030303030303030407070790
:100B30000C0C0C0C0C0C0C0C020202020606060635
:100B4000060606060B0B0B0B0B0B0B0B0102102002
:100B500020080810204010204080020102010804F3
:100B60000201010204081020408080402010080487
:100B700002018004020180402010080402010804E0
:100B80000201010204081020408001020408102024
:100B9000408000000A0B02090C0D0E080703040137
:100BA0000000000000000000000000000000000045
:100BB0000000000000000000000000000000121112
:100BC0001000000000000000000000000000000015
:100BD00000000000000000002020506C616E6E6577
:100BE0007242756666657242797465733A200020B8
:100BF00046726565204D656D6F72793A2000436FCE
:100C00006D70696C65643A20536570203231203212
:100C10003032300A00204C61737420557064617466
:100C200065643A20323032302D30382D3237207C16
:100C300020417574686F723A2028444947412D5409
:100C40006563682C2041535758312076312E302966
:100C50000A00322E302E362E310A004D61726C6938
:100C60006E0020536F6674776172652052657365FC
:100C7000740A00205761746368646F67205265735B
:100C800065740A002042726F776E206F757420526F
:100C9000657365740A002045787465726E616C2016
:100CA00052657365740A00506F77657255700A005B
:100CB00020503A00656E6473746F707320686974B5
:100CC0003A200057616974696E6720666F72206808
:100CD00065617475702E0A004C656176696E6720D7
:100CE000473236003F537065636966696564205812
:100CF0002C5920636F6F7264696E617465206F7523
:100D000074206F6620626F756E64732E0A003F2830
:100D1000522965706561742076616C7565206E6F0F
:100D20007420706C61757369626C653B206D7573BE
:100D300074206265206174206C6561737420312EAB
:100D40000A003F2852296570656174206D757374BF
:100D500020626520737065636966696564207768E1
:100D6000656E206E6F74207573696E6720616E20EA
:100D70004C43442E0A003F5370656369666965649D
:100D8000206E6F7A7A6C652074656D70657261741F
:100D9000757265206E6F7420706C61757369626C1A
:100DA000652E0A003F537065636966696564206655
:100DB000696C616D656E742073697A65206E6F74FD
:100DC00020706C61757369626C652E0A003F537008
:100DD00065636966696564207072696D65206C651C
:100DE0006E677468206E6F7420706C6175736962D1
:100DF0006C652E0A003F5072696D65206C656E67E8
:100E00007468206D75737420626520737065636902
:100E100066696564207768656E206E6F74207573EF
:100E2000696E6720616E204C43442E0A003F537068
:100E300065636966696564206E6F7A7A6C65207394
:100E4000697A65206E6F7420706C61757369626C6D
:100E5000652E0A003F52657472616374696F6E207B
:100E60004D756C7469706C696572206D7573742052
:100E70006265207370656369666965642E0A003F68
:100E80005370656369666965642052657472616355
:100E900074696F6E204D756C7469706C6965722031
:100EA0006E6F7420706C61757369626C652E0A00D8
:100EB0003F537065636966696564206C617965722A
:100EC00020686569676874206E6F7420706C617546
:100ED0007369626C652E0A0043292E0A003F537025
:100EE00065636966696564206265642074656D7018
:100EF00065726174757265206E6F7420706C6175B7
:100F00007369626C65202834302D004732362073B7
:100F100074617274696E672E2E2E0A00486F6D65BB
:100F200020257325732573204669727374005761F9
:100F3000726E696E673A20486F6D696E6720427500
:100F40006D702044697669736F72203C20310A000D
:100F500000004842000048420000804002020400B5
:100F600000A0400000A04000000040FFFFFF3F5AEB
:100F7000206F7574206F662072616E67652028008F
:100F80003F59206F7574206F662072616E6765200F
:100F9000282D003F58206F7574206F662072616E97
:100FA000676520282D0050726F6265204F6666735A
:100FB00065742058006F6B00526573656E643A204B
:100FC0000023646566696E652044454641554C546E
:100FD0005F004B6420004B6920004B70200050499B
:100FE00044204175746F74756E652066696E69730F
:100FF000686564212050757420746865206C617385
:1010000074204B702C204B6920616E64204B64204F
:10101000636F6E7374616E74732066726F6D20629D
:10102000656C6F7720696E746F20436F6E666967B9
:1010300075726174696F6E2E680A005049442041D0
:1010400075746F74756E65206661696C65642120C6
:1010500074696D656F75740A000A20436C6173735F
:10106000696320504944200A00204B643A20002044
:101070004B693A2000204B703A20000A204E6F2026
:101080006F76657273686F6F740A002054753A202A
:1010900000204B753A2000206D61783A2000206DC9
:1010A000696E3A200020643A200020626961733A38
:1010B0002000504944204175746F74756E6520732B
:1010C000746172740A00504944204175746F7475DC
:1010D0006E65206661696C6564212054656D70657C
:1010E00072617475726520746F6F20686967680A31
:1010F00000504944204175746F74756E6500504905
:1011000044204175746F74756E65206661696C6505
:101110006421204261642065787472756465722070
:101120006E756D6265720A00496E76616C69642045
:1011300065787472756465720A00202D20496E7698
:10114000616C6964206578747275646572206E756F
:101150006D62657220210A00544845524D414C2071
:1011600052554E4157415900546865726D616C206B
:1011700052756E61776179004572723A204D41581F
:1011800054454D50004D415854454D50207472699E
:10119000676765726564004572723A204D494E5426
:1011A000454D50004D494E54454D5020747269676D
:1011B000676572656400202F002042403A0020409D
:1011C0003A0020573A004D3130362050000000964A
:1011D00043000096430000C84300000000000000E8
:1011E000000000000053657474696E6773205374C7
:1011F0006F7265640053657474696E67732053740D
:101200006F7265642028005374616E64617264209B
:10121000446576696174696F6E3A2000486F746541
:101220006E6420746F6F20636F6C640A00205261DB
:101230006E67653A2000205369676D613A20004D62
:1012400065616E3A2000204D39322058004C6F61A4
:10125000642046696C616D656E74205400496E733C
:101260006572742066696C616D656E7420616E6470
:101270002073656E64204D3130380A0072657375D5
:101280006D656400526573756D696E6700526568BF
:1012900065617420446F6E650052656865617469AC
:1012A0006E672E2E2E005265686561740048656178
:1012B0007465722054696D656F75740053656E6452
:1012C000204D31303820746F2068656174206E6F56
:1012D0007A7A6C650A004E6F7A7A6C65205061727A
:1012E0006B656400706175736564004469736D6952
:1012F00073730050617573650020496E76616C6987
:1013000064206578747275646572200024F4D430AA
:1013100050C38E20C2A24017828B7011127A910D99
:10132000816CD90AA861E108C75866076151430674
:101330001E4B5D05C145A7041A411104093D9803E0
:10134000713931034036DB0265339102D4305402E7
:10135000802E1D02632CEE01752AC501B028A00164
:10136000102781018F2564012B244B01E0223401D9
:10137000AC211F018D200D01801FFC00841EED009B
:10138000971DDF00B81CD200E61BC600201BBC0066
:10139000641AB200B219A8000A19A0006A189900CC
:1013A000D117910040178B00B516840031167E00CE
:1013B000B31579003A157300C7146F0058146A000A
:1013C000EE1366008813630025135E00C7125B00EE
:1013D0006C12570015125400C111510070114F00CA
:1013E00021114B00D61049008D10470046104400D3
:1013F00002104200C00F4000800F3E00420F3C0030
:10140000060F3B00CB0E3800930E37005C0E350004
:10141000270E3400F30D3200C10D3100900D300065
:10142000600D2E00320D2D00050D2C00D90C2B0067
:10143000AE0C2900850C29005C0C2700350C270018
:101440000E0C2600E80B2400C40B2400A00B230084
:101450007D0B23005A0B2100390B2100180B2000B3
:10146000F80A1F00D90A1E00BB0A1E009D0A1D00B3
:10147000800A1D00630A1C00470A1B002C0A1B007F
:10148000110A1A00F7091A00DD091900C409190028
:10149000AB091900920917007B09180063091700AE
:1014A0004C09160036091600200916000A09150015
:1014B000F5081500E0081400CC081400B808140062
:1014C000A4081400900813007D0812006B08130094
:1014D00058081200460812003408110023081100B1
:1014E0001208110001081100F0071000E0071000B9
:1014F000D0071000C0071000B0070F00A1071000B0
:1015000091070E0083070F0074070F0065070E0098
:1015100057070E0049070E003B070D002E070E006F
:1015200020070D0013070D0006070D00F9060C003B
:10153000ED060D00E0060C00D4060C00C8060C00F9
:10154000BC060C00B0060C00A4060B0099060C00AB
:101550008D060B0082060B0077060B006C060B0055
:1015600061060A0057060B004C060A0042060A00F4
:1015700038060A002E060A0024060A001A060A0087
:101580001006090007060A00FD050900F405090018
:10159000EB050900E2050900D9050900D00509009D
:1015A000C7050900BE050900B5050800AD0508001E
:1015B000A50509009C050800940508008C05080095
:1015C000840508007C050800740508006C05070008
:1015D000650508005D050700560508004E05070073
:1015E00047050700400508003805070031050700DA
:1015F0002A050700230507001C050600160507003D
:101600000F0507000805060002050700FB04060099
:10161000F5040700EE040600E8040600E2040700F3
:10162000DB040600D5040600CF040600C90406004A
:10163000C3040600BD040600B7040600B10405009B
:10164000AC040600A6040600A00405009B040600E6
:1016500095040500900406008A0405008504050031
:10166000800406007A040500750405007004050076
:101670006B04050066040500610405005C040500B8
:1016800057040500520405004D04050048040500F8
:10169000430405003E0404003A0405003504050037
:1016A000300404002C040500270404002304050072
:1016B0001E0404001A0404001604050011040400AA
:1016C0000D040400090405000404040000040400DF
:1016D000FC030400F8030400F4030400F003040016
:1016E000EC030400E8030400E4030400E003040046
:1016F000DC030400D8030400D4030400D003040076
:10170000CC030400C8030300C503030024F404D978
:10171000201BC40C5C0E9804C4095F0265077101AC
:10172000F405F900FB04B30048048700C103690015
:101730005803550003034500BE023A0084023100FD
:1017400053022A002902250004022000E4011C00A3
:10175000C8011900AF01170098011400840113009B
:10176000710110006101100051010E0043010D00D4
:1017700036010B002B010B0020010B0015010900A5
:101780000C01090003010800FB000800F300080039
:10179000EB000700E4000600DE000600D8000600AB
:1017A000D2000600CC000500C7000500C2000500FD
:1017B000BD000400B9000400B5000400B10004003D
:1017C000AD000400A9000400A5000300A20003006E
:1017D0009F0004009B000300980003009500020096
:1017E00093000300900003008D0002008B000300B3
:1017F00088000200860002008400030081000200CD
:101800007F0002007D0002007B00020079000200E0
:1018100077000100760002007400020072000100EF
:10182000710002006F0002006D0001006C000200F8
:101830006A00010069000200670001006600010003
:101840006500010064000200620001006100010007
:10185000600001005F0002005D0001005C0001000B
:101860005B0001005A00010059000100580001000E
:10187000570001005600010055000100540001000E
:10188000530000005300010052000100510001000C
:10189000500001004F0001004E0000004E0001000A
:1018A0004D0001004C0001004B0000004B00010006
:1018B0004A00010049000100480000004800010002
:1018C00047000100460000004600010045000000FE
:1018D00045000100440001004300000043000100F6
:1018E00042000000420001004100000041000100F0
:1018F000400001003F0000003F0001003E000000EA
:101900003E0001003D0000003D0001003C000000E1
:101910003C0000003C0001003B0000003B000100D7
:101920003A0000003A0001003900000039000100CF
:1019300038000000380000003800010037000000C7
:1019400037000100360000003600000036000100BC
:1019500035000000350000003500010034000000B3
:1019600034000000340001003300000033000000A8
:10197000330001003200000032000000320001009C
:101980003100000031000000310001003000000093
:1019900030000000300001002F0000002F00000088
:1019A0002F0000002F0001002E0000002E0000007C
:1019B0002E0001002D0000002D0000002D00000071
:1019C0002D0001002C0000002C0000002C00000065
:1019D0002C0001002B0000002B0000002B00000059
:1019E0002B0001002A0000002A0000002A0000004D
:1019F0002A00010029000000290000002900000041
:101A00002900000029000100280000002800000033
:101A10002800000028000000280001002700000026
:101A20002700000027000000270000002700010019
:101A3000260000002600000026000000260000000E
:101A40002600010025000000250000002500000000
:101A500025000000250000002500010024000000F2
:101A600024000000240000002400000024000100E5
:101A700023000000230000002300000023000000DA
:101A800023000000230000002300010022000000CA
:101A900022000000220000002200000022000000BE
:101AA00022000100210000002100000021000000B0
:101AB00021000000210000002100000021000100A1
:101AC0002000000020000000200000002000000096
:101AD0002000000020000000200000002000010085
:101AE0001F0000001F0000001F0000001F0000007A
:101AF0001F0000001F0000001F0001001E0000006A
:101B00001E0000001E0000001E000000C231000088
:101B10001C260000F4190000D80F0000EB0800009C
:101B2000C00400007502000040010000646F6E6593
:101B30000A00496E73756666696369656E74206430
:101B40006174610A004578747261706F6C617469C8
:101B50006E67206D6573682E2E2E0053544F5050C3
:101B600045442E20005072696E7465722073746F44
:101B7000707065642064756520746F206572726F83
:101B800072732E2046697820746865206572726FC2
:101B90007220616E6420757365204D393939207467
:101BA0006F20726573746172742E202854656D7095
:101BB00065726174757265206973207265736574EE
:101BC0002E205365742069742061667465722072DA
:101BD000657374617274696E67290A00212120534C
:101BE000544F502063616C6C65642062656361755D
:101BF0007365206F6620424C546F75636820657270
:101C0000726F72202D20726573746172742077690F
:101C10007468204D3939390A002F2F616374696F58
:101C20006E3A006E6F74696669636174696F6E20E5
:101C300000626567696E00627574746F6E00656E30
:101C4000640070726F6D70745F0073686F7700501E
:101C5000757267654D6F72650050617573656400DC
:101C60000000803FC7710842C7718642AAAAC842D5
:101C7000C7710543398E2643AAAA47431CC7684348
:101C8000C7F18443008095430900000A0100080061
:101C90000A01000A090000000A000800971C921CB3
:101CA0008D1C881C5D0A0062656420706C616E6525
:101CB000206E6F726D616C203D205B00436F756C10
:101CC00064206E6F7420636F6D706C657465204C5A
:101CD0005346210054696C74696E67206D657368A2
:101CE00020706F696E7420003F4572726F722070B1
:101CF000726F62696E6720706F696E742E20416228
:101D00006F7274696E67206F7065726174696F6E4F
:101D10002E0A0054696C74696E67206D65736820C3
:101D200028332F33290A0054696C74696E67206D5B
:101D30006573682028322F33290A00436F72726559
:101D4000637465645F5A3D0054696C74696E672002
:101D50006D6573682028312F33290A002052004D09
:101D600065736820736176656420696E20736C6F9B
:101D70007420003F556E61626C6520746F20736142
:101D80007665206D65736820646174612E0A002099
:101D9000736C6F743D00206D65736865735F656E6D
:101DA000643D004532454E443D00206D657368201A
:101DB000736C6F747320617661696C61626C652EFF
:101DC0000A003F496E76616C696420736C6F742EF3
:101DD0000A004D657368206C6F61646564206672EB
:101DE0006F6D20736C6F7420003F556E61626C657F
:101DF00020746F206C6F6164206D6573682064616E
:101E000074612E0A0048617264636F6465642044E3
:101E1000656661756C742053657474696E677320B0
:101E20004C6F616465640A00556E6966696564207B
:101E3000426564204C6576656C696E67003B2000E6
:101E400020204D363033200020550046696C616DEE
:101E5000656E74206C6F61642F756E6C6F616420A9
:101E60006C656E677468733A0020204D39303020FD
:101E70004B004C696E65617220416476616E6365EA
:101E80003A0020204D3835312058005A2D50726FBD
:101E90006265204F66667365740020204D333034D0
:101EA00020500020204D3330312050005049442034
:101EB00073657474696E67733A00206D6573686545
:101EC000732E0A0A00454550524F4D2063616E2023
:101ED000686F6C642000416374697665204D65739A
:101EE0006820536C6F743A200020204D343230202B
:101EF000530020204D323036205800486F6D652049
:101F00006F66667365743A0020204D32303520428A
:101F100000416476616E6365643A20423C6D696E8F
:101F20005F7365676D656E745F74696D655F75730A
:101F30003E20533C6D696E5F6665656472617465D1
:101F40003E20543C6D696E5F74726176656C5F66AD
:101F5000656564726174653E20583C6D61785F7898
:101F60005F6A65726B3E20593C6D61785F795F6A8C
:101F700065726B3E205A3C6D61785F7A5F6A65726C
:101F80006B3E20453C6D61785F655F6A65726B3EB4
:101F90000020204D323034205000416363656C6571
:101FA000726174696F6E2028756E6974732F733255
:101FB000293A20503C7072696E745F616363656C8E
:101FC0003E20523C726574726163745F6163636545
:101FD0006C3E20543C74726176656C5F616363652E
:101FE0006C3E0020204D3230312058004D61786920
:101FF0006D756D20416363656C65726174696F6EA8
:102000002028756E6974732F7332293A00204500B9
:1020100020590020204D3230332058004D6178691E
:102020006D756D20666565647261746573202875D1
:102030006E6974732F73293A00537465707320703E
:10204000657220756E69743A0020440020204D327C
:1020500030302053002044697361626C65640A006B
:1020600046696C616D656E742073657474696E6722
:10207000733A0020286D6D2900202047323120203E
:1020800020203B20556E69747320696E206D6D00B1
:1020900000004843000048430000A04100002042E7
:1020A000F43DA042F43DA04296E3C7430080DE43E6
:1020B000D0070000D00700006400000010270000D7
:1020C0002062797465733B2063726320004E6F2039
:1020D000454550524F4D2E0A00454550524F4D2018
:1020E0006461746173697A65206572726F722E0A19
:1020F00000454550524F4D2056657273696F6E20F2
:102100004572726F7200454550524F4D20496E64C2
:102110006578204572726F7200454550524F4D20D0
:10212000435243204572726F72003F4D65736820C1
:10213000746F6F2062696720666F72204545505248
:102140004F4D2E0A0055424C2072657365740A008B
:10215000206C6F616465642066726F6D2073746FAC
:10216000726167652E0A004D65736820003F436108
:102170006E277420656E61626C65200020696E694F
:102180007469616C697A65642E0A0A002073746F41
:102190007265642073657474696E67732072657408
:1021A000726965766564202800202863616C637518
:1021B0006C6174656429210A0020213D2000454599
:1021C00050524F4D20435243206D69736D617463CB
:1021D00068202D202873746F7265642920002053B5
:1021E000697A653A2000496E6465783A2000204D8E
:1021F00061726C696E3D563831290A00454550526E
:102200004F4D2076657273696F6E206D69736D61D5
:102210007463682028454550524F4D3D004D65611F
:102220006E204D657368204865696768743A2000C0
:1022300023206F662073616D706C65733A20000A0D
:1022400050726F62696E67206D65736820706F6988
:102250006E742000496E76616C6964206D61702037
:10226000747970652E0A0A003F284629616465204A
:1022700068656967687420666F7220426564204CE7
:102280006576656C20436F7272656374696F6E204A
:102290006E6F7420706C61757369626C652E0A0ACA
:1022A000003F43616E2774206163746976617465D1
:1022B00020616E6420646561637469766174652071
:1022C0006174207468652073616D652074696D6543
:1022D0002E0A0A00426F7468205820262059206C6C
:1022E0006F636174696F6E73206D757374206265BE
:1022F000207370656369666965642E0A0A003F4948
:102300006E76616C696420677269642073697A65AE
:1023100020284A29207370656369666965642028EE
:10232000322D39292E0A0A003F2850296861736529
:102330002076616C756520696E76616C6964202811
:10234000302D36292E0A0A003F2856296572626F01
:102350007365206C6576656C20696D706C61757352
:1023600069626C652028302D34292E0A0A003F2826
:102370005229657065746974696F6E20636F756E3C
:102380007420696E76616C69642028312B292E0ACD
:102390000A003F454550524F4D2073746F7261677C
:1023A00065206E6F7420617661696C61626C652E68
:1023B0000A004F46460A0046616465204865696721
:1023C00068742000426564204C6576656C696E67B0
:1023D00020004661696C656420746F20656E6162DF
:1023E0006C6520426564204C6576656C696E670A91
:1023F00000496E76616C6964206D6573682E0A0011
:1024000076616C69640A53746F7261676520736CDE
:102410006F743A20004D65736820697320003F494E
:102420006E76616C69642073746F72616765207386
:102430006C6F742E0A0046696E6973686564210AC0
:10244000003A207A3A2000206F662000476F696EBC
:102450006720746F3A20580043570A00206469725D
:102460003A0020616E676C653A00537461727420A3
:102470007261646975733A00506F736974696F6E45
:10248000696E67207468652070726F62652E2E2EEB
:102490000A003F4C656773206F66206D6F76656D2F
:1024A000656E7420696D706C61757369626C65200E
:1024B00028302D3135292E0A003F2028582C592943
:1024C000206F7574206F6620626F756E64732E0ABC
:1024D0000050726F6265206F7574206F6620626FA6
:1024E000756E6473003F53616D706C652073697A1B
:1024F00065206E6F7420706C61757369626C652005
:1025000028342D3530292E0A004D3438205A2D50CC
:10251000726F6265205265706561746162696C6991
:10252000747920546573740A003F285629657262D5
:102530006F7365206C6576656C20696D706C617574
:102540007369626C652028302D34292E0A0065637A
:10255000686F3A004572726F723A00204A0020207C
:102560004D34323120490020204732392049393951
:102570000A006163746976650A0020537973746593
:102580006D2076312E303120002020207C0A004E34
:10259000414E0020202E20202000207C004C43446F
:1025A0003A0A004353563A0A0020666F7220003AF6
:1025B0000A0A000A42656420546F706F6772617086
:1025C0006879205265706F727400486F6D696E672C
:1025D000204661696C6564006F70656E00545249F5
:1025E000474745524544007A5F70726F6265007AD2
:1025F0005F6D696E00795F6D696E00785F6D696E01
:10260000005265706F7274696E6720656E647374D2
:102610006F70207374617475730A0020436F756E58
:102620007420583A00453100626564002C207379AB
:102630007374656D2073746F7070656421204865D4
:10264000617465725F49443A200048656174696E3F
:1026500067204661696C65640048656174696E67EE
:10266000206661696C6564004D31313220536875B4
:1026700074646F776E00004361703A007D007D7D69
:102680002C776F726B3A7B6D696E3A7B783A007D7E
:102690002C6D61783A7B783A002C7A3A002C793AA2
:1026A00000617265613A7B66756C6C3A7B6D696E30
:1026B0003A7B783A004348414D4245525F54454D7C
:1026C0005045524154555245004241425953544598
:1026D0005050494E470041524353004D4F54494FCB
:1026E0004E5F4D4F44455300544845524D414C5F59
:1026F00050524F54454354494F4E004C4F4E475F44
:1027000046494C454E414D45004155544F52455068
:102710004F52545F53445F535441545553005344F4
:10272000434152440050524F4D50545F5355505006
:102730004F525400454D455247454E43595F504115
:102740005253455200434153455F4C494748545FFB
:102750004252494748544E45535300544F47474C03
:10276000455F4C494748545300534F4654574152D4
:10277000455F504F574552004255494C445F5045C4
:102780005243454E54004C4556454C494E475F44D4
:10279000415441005A5F50524F4245004155544FF9
:1027A0004C4556454C005052494E545F4A4F4200EA
:1027B00050524F4752455353004155544F52455084
:1027C0004F52545F54454D5000564F4C554D455453
:1027D00052494300454550524F4D0042494E4152E7
:1027E000595F46494C455F5452414E53464552004D
:1027F00053455249414C5F584F4E5F584F46460033
:102800004649524D574152455F4E414D453A4D6103
:10281000726C696E20322E302E362E31444947417B
:102820002D546563682041535758312076312E303E
:10283000202853657020323120323032302031313F
:102840003A33353A31332920534F555243455F438C
:102850004F44455F55524C3A68747470733A2F2F49
:102860006769746875622E636F6D2F4D61726C6954
:102870006E4669726D776172652F4D61726C696E1B
:102880002050524F544F434F4C5F56455253494F7F
:102890004E3A312E30204D414348494E455F545900
:1028A00050453A417274696C6C6572792053696461
:1028B0006577696E646572205831204558545255C9
:1028C0004445525F434F554E543A31205555494483
:1028D0003A63656465326132662D343161322D347C
:1028E0003734382D396231322D63353563363266EF
:1028F00033363766660A00220A00556E6B6E6F77B4
:102900006E20636F6D6D616E643A20220020453A3F
:1029100000205A3A0020593A000015E511241FBE44
:10292000CFEFD1E2DEBFCDBF00E00CBF12E0A0E0F0
:10293000B2E0E0E6F7EE01E00BBF02C007900D92B7
:10294000AE3CB107D9F72FE0AEECB2E001C01D926A
:10295000AA3EB207E1F714E1CEE8D4E100E006C0F8
:1029600021970109802FFE010E9415EFCD38D10774
:1029700080E00807A9F70E94FCE00C94AEF30C94E9
:1029800000002F923F924F925F926F927F928F92B0
:102990009F92AF92BF92CF92DF92EF92FF920F93EE
:1029A0001F93CF93DF93CDB7DEB7E1970FB6F894BF
:1029B000DEBF0FBECDBF88AB2091DA022EA781E02B
:1029C0008093DA0280910D0C8D3409F411C38435A3
:1029D00011F40C94D924873411F00C94EB248091D9
:1029E0000B0C90910C0C8B31910509F41BC1B4F4C4
:1029F0008430910534F482309105DCF597FF2DC0C9
:102A0000F3C28531910511F40C94ED248A319105BE
:102A100009F404C1049709F0E7C2C6C08A329105DF
:102A200009F430C254F48D31910509F42BC10CF432
:102A300019C14E9709F42AC1D7C28B35910509F403
:102A40009EC18C35910509F49FC18A35910509F025
:102A5000CBC21092D9020C94ED248091930981305D
:102A600011F00C94ED240E94368D0E947C660C942B
:102A7000ED2420919309213011F00C94ED2411E004
:102A8000029709F010E00E94368D19821A821B828B
:102A90001C821D821E821F82188682E50E940536D6
:102AA000882309F44BC00E9485356B017C0120E02E
:102AB00030E0A9010E948BEA882309F455C0809177
:102AC000270F9091280FA091290FB0912A0F8AA368
:102AD0009BA3ACA3BDA380912B0F90912C0FA09131
:102AE0002D0FB0912E0F8AA79BA7ACA7BDA78090F2
:102AF000290B90902A0BA0902B0BB0902C0B4090A0
:102B00002D0B50902E0B60902F0B7090300BA50169
:102B100094016AA17BA18CA19DA10E948BEA8111E5
:102B20000C940325A30192016AA57BA58CA59DA504
:102B30000E948BEA8823C1F00C94032589E40E944B
:102B40000536882331F00E94853569837A838B832B
:102B50009C838AE40E940536882331F00E948535E3
:102B60006D837E838F83988720E030E0A90169819F
:102B70007A818B819C810E948BEA81110C94B7250C
:102B800020E030E0A9016D817E818F8198850E94CF
:102B90008BEA81110C94B7250E94A7CE86E693E0BC
:102BA0000E9430CC0C94ED2480E50E9405368823E9
:102BB00029F00E9444926B017C0103C0C12CD12CEE
:102BC000760183E50E940536882361F00E948535F1
:102BD00020E030E04AE754E40E94F1EA0E9491F0DC
:102BE0006B017C010E94E78A8CE793E00E94659E5E
:102BF0000E94B354C60ED71EE81EF91E0E94B3549D
:102C0000DC01CB018C199D09AE09BF09B7FD02C0DB
:102C10000C94ED2480E00E94562EF0CF0E94D457F1
:102C20000C94ED2487E00E942A6681110C94ED2417
:102C30008CE0E3E6F2E0DE01119601900D928A95B8
:102C4000E1F780E50E940536882321F00E94713566
:102C5000862F01C080E0BE016F5F7F4F0E943C6FF6
:102C60000C94ED248091EA0B8770873011F00C945E
:102C7000CA2560E08FE40E94BF5781110C94ED24B7
:102C80000C94CA250E94943B0C94ED2420916F0E65
:102C90003091700E4091710E5091720E6091270F1D
:102CA0007091280F8091290F90912A0F0E941EEF9A
:102CB000AB01BC0188E50E94F37169837A838B8341
:102CC0009C832091730E3091740E4091750E50913B
:102CD000760E60912B0F70912C0F80912D0F90919B
:102CE0002E0F0E941EEFAB01BC0189E50E94F3711B
:102CF0006D837E838F839887BE016B5F7F4FCE018C
:102D000001960E94AD36882311F40C94ED2480E0E6
:102D10000E9441CA0E94F1CF61E085E40E94BF5742
:102D200001E021E041E0682FCE0101960E946C395C
:102D30006B017C019B01AC010E946BF2811119C0F7
:102D400049815A816B817C8182EB93E00E9476CE2F
:102D50004D815E816F8178858DEA93E00E9476CE09
:102D6000B701A60188EA93E00E9476CE8AE00E942D
:102D7000132D0E94D8CF0E9436D20C94ED248FE000
:102D80008093D9020C94ED249FE6292E92E0392EEF
:102D90002EEDE22E2BE0F22E27E23FE03BA32AA30A
:102DA0003BE1C32E3FE0D32E00E010E0D1018D9136
:102DB0001D010E940536882309F44BC00E94853509
:102DC0002B013C01133049F0F60120813181428111
:102DD00053810E941DEF2B013C01AAA1BBA12D91A3
:102DE0003D914D915C91C301B2010E941DEF4B01D9
:102DF0005C012DEB37E346E855EB0E947EF187FD41
:102E00000AC02DEB37E346E855E3C501B4010E9443
:102E10008BEA1816F4F4133051F44092330F5092A9
:102E2000340F6092350F7092360F01E012C0A50189
:102E30009401F70160817181828193810E941EEF6C
:102E4000D7016D937D938D939C931397812F0E944F
:102E5000AC641F5FB4E0EB0EF11CEAA1FBA1349659
:102E6000FBA3EAA3F4E0CF0ED11C143009F09ECFEF
:102E7000002321F083E39FE00E94F88A0E9436D26B
:102E80000C94ED2480919309813011F00C94ED2481
:102E900089E40E940536082F882321F00E9481359D
:102EA000E82E01C0E12C8AE40E940536182F882301
:102EB00021F00E948135F82E01C0F12C002319F079
:102EC00029E02E1528F0112349F039E03F1530F4A0
:102ED0008AEB93E00E9430CC0C94ED2480E1E7E291
:102EE000FFE0A9E2BBE001900D928A95E1F7002393
:102EF00059F08E2D0E9466376093290B70932A0B30
:102F000080932B0B90932C0B112359F08F2D0E9443
:102F1000663760932D0B70932E0B80932F0B90933D
:102F2000300B60E080E50E94BF578823C1F1002389
:102F3000D1F020916F0E3091700E4091710E509132
:102F4000720E6091290B70912A0B80912B0B90913E
:102F50002C0B0E941DEF6093290B70932A0B80931A
:102F60002B0B90932C0B1123D1F02091730E3091E9
:102F7000740E4091750E5091760E60912D0B7091EC
:102F80002E0B80912F0B9091300B0E941DEF6093C0
:102F90002D0B70932E0B80932F0B9093300B40E0F2
:102FA00050E0BA0186E40E94F3716B017C0120E0DD
:102FB00030E0A9010E947EF118164CF420E030E0C8
:102FC00040E752E4C701B6010E9418F003C060E078
:102FD00070E0CB0169837A838B839C83CE01019659
:102FE0000E940ED10C94ED240E94EEE00C94ED248E
:102FF00000910B0C10910C0C0B39110509F4E9C36D
:103000000CF0A1C00936110509F4DDC20CF054C062
:103010000C34110509F48CC25CF50231110509F478
:1030200027C474F417FF02C00C94D6240230110593
:103030000CF459C10131110509F49FC10C94D62437
:103040000A32110509F457C234F40F31110509F49D
:10305000A8C10C94D6240033110509F465C20B34C1
:10306000110511F00C94D6240E9443D40C94ED2445
:103070000335110509F4F4C37CF40135110509F495
:10308000D0C30CF0E5C30D34110511F00C94D62417
:103090000E947CD40C94ED240535110509F41FC45D
:1030A0000CF4E6C30C35110509F43EC408361105CD
:1030B00009F442C20C94D6240237110509F4D5C490
:1030C000F4F40D36110509F457C244F40B3611051A
:1030D00009F4B4C20CF48BC20C94ED240F36110524
:1030E00009F4CCC20CF4B7C20037110511F40C94EA
:1030F000ED240137110509F40CC30C94D6240737CD
:10310000110509F402C57CF40537110509F4B4C4AE
:103110000CF0C1C40337110511F00C94D6240E94A1
:103120004ADE0C94ED240937110509F4F9C40CF4B6
:10313000EFC40C38110509F416C30639110509F45A
:10314000F6C40C94D624003981E0180711F40C94CD
:10315000C0220CF059C00C3D110509F4FFC61CF546
:103160000B3C110509F4AEC574F4083C110509F4D3
:103170001BC5093C110509F482C50E3B110511F070
:103180000C94D62411C30D3C110509F4F1C50CF4BF
:10319000BBC50E3C110509F4FEC5033D110509F43C
:1031A00017C60C94D6240232A1E01A0711F40C942D
:1031B0000E217CF4023E110509F44DC70831E1E00F
:1031C0001E0709F494C70D3D110511F00C94D62487
:1031D000ECC60E32F1E01F0711F40C9479223CF496
:1031E0000D32114011F40C9486210C94D6240F3228
:1031F00081E0180711F40C94BD220033114011F442
:103200000C9406220C94D624063FA1E01A0711F470
:103210000C94C523A4F5043AE1E01E0711F40C94C4
:10322000CD2284F4023921E0120711F40C94C82253
:1032300014F40C94C3220A39114011F40C94ED24B7
:103240000C94D6240C3A91E0190711F40C946623DF
:103250003CF4053A114011F40C94D0220C94D6247D
:10326000043FE1E01E0711F40C94C223053F114016
:1032700011F00C94D6240E9472AF0C94ED240B35FF
:1032800022E0120711F40C94E92384F4083F81E052
:10329000180711F40C94D12314F40C94C8230835A6
:1032A000124011F40C94E2230C94D6240C36B3E0B3
:1032B0001B0711F40C94ED244CF40335134011F06A
:1032C0000C94D6240E945F780C94ED24043823E0FB
:1032D000120711F40C946224073E134011F40C946D
:1032E000CA240C94D62480E50E940536882329F050
:1032F0000E9444926B017C0103C0C12CD12C760149
:1033000083E50E940536882361F00E94853520E020
:1033100030E04AE754E40E94F1EA0E9491F06B0128
:103320007C010E94E78A8091090C90910A0C892BFC
:1033300041F00E94ABCE8091090C90910A0C0E9442
:10334000302E80910B0C90910C0C892B19F06BEDA9
:1033500073E002C063ED73E040E082E00E940E9EE5
:1033600083EE93E00E943E9E0E94F69D40E0C701DE
:10337000B6010E944D320C94ED2480910E0C84FF16
:1033800002C00C94A6278091100C87FF02C00C94F9
:10339000A6278091110C837011F00C94A6270C9431
:1033A000C3270E94F4D37B018C0120E831E541E082
:1033B00050E00E9492EEC9016DE671E00E9401EFBB
:1033C0004B015C01C801B70120E13EE040E050E064
:1033D0000E9492EECA01B90128E130E040E050E0DD
:1033E0000E9492EE762E672EC62ED72E8CE3282EC4
:1033F000312C412C512CC801B701A20191010E942E
:1034000092EEF62EE72ECA01B901A20191010E94A7
:1034100092EECB018E010F5F1F4F8114910499F042
:10342000EF92FF927F936F936F927F92BF92AF92D2
:103430009F928F9285EF93E09F938F931F930F93AB
:103440000E945CEA13C0A114B104B1F0EF92FF92A4
:103450007F936F936F927F92BF92AF9289EF93E0C9
:103460009F938F931F930F930E945CEA0FB6F8947B
:10347000DEBF0FBECDBF30C0CD2879F0EF92FF92F6
:103480007F936F936F927F928DEF93E09F938F93D3
:103490001F930F930E945CEAE9CF892B69F0EF92AA
:1034A000FF927F936F9381E094E09F938F931F939C
:1034B0000F930E945CEADACFEF92FF9285E094E0EE
:1034C0009F938F931F930F930E945CEA0F900F902E
:1034D0000F900F900F900F90C8010E94989E0E942D
:1034E000ABCEB80189E094E00E9494CE8AE00E94BD
:1034F000132D0C94ED246DE070E080E50E941236EF
:103500008C0197FF02C00C94ED24E82E60E089E462
:103510000E94BF5781110C94D127802F0E94E42A6A
:103520008111B6C50C94D1270E9459C40C94ED2486
:103530000E9467D40C94ED2480913B0983FF02C064
:103540000C94ED240E94E78D87FF02C00C94ED24BB
:1035500083E50E940536882359F00E9485350E9434
:103560008AF0CB010E94607B61E080E00E940981CB
:103570000E947C890C94ED2480913B0983FF02C05A
:103580000C94ED240E94E78D082F87FF02C00C9455
:10359000ED2483E50E940536F82E81110C9408284D
:1035A00082E50E94053681110C94082810E00E94E3
:1035B0007C89112311F40C94ED246F2D802F0E942F
:1035C0008A7D0C94ED240E94E78D182F87FD0AC098
:1035D00085EB9FE00E9430CC812F0E94867B8AE0A1
:1035E0000E94132D8EA58093DA020C94BA2960E014
:1035F00080E50E944DC481110C94ED2481E40E9469
:10360000BC35882321F060910504062F02C00FEF1E
:1036100010E083E50E940536882349F00E94713549
:103620008B016F3F710519F010F00FEF10E0009360
:10363000050480E00E94707B0C94ED2460E080E53E
:103640000E944DC481110C94ED24109205040E9437
:10365000707B0C94ED248EE40E940536882311F4CF
:103660000C94ED240E9471356093140C7093150C2A
:103670008093160C9093170C0C94ED2483E50E9414
:10368000BC35882331F060E083E50E944DC480930F
:103690003B090E94ABCE88E294E00E9430CC80913E
:1036A0003B09882369F101ECE02E05E0F02E00E0F3
:1036B00010E020E080913B0990E0A0E0B0E0002E17
:1036C00004C0B695A795979587950A94D2F780FF81
:1036D0000EC0DD24D394D20E222319F08CE20E9476
:1036E000132DF701859194910E9430CC2D2D0F5F01
:1036F0001F4F92E0E90EF11C05301105D9F604C008
:1037000086EB97E00E9430CC8AE00E94132D0C9447
:10371000ED2483E50E940536882381F00E94159CE4
:10372000282F30E02D33310524F4809300020C94CF
:10373000ED248CE3809300020C94ED240E94ABCE28
:10374000C0900002D12CE12CF12C8FE294E00E9479
:1037500030CC4AE0C701B6010E941A2D8AE00E94CF
:10376000132D0C94ED2480913B0983FF02C00C942F
:10377000ED2483E50E940536882311F40C94ED2492
:103780000E9485350E948AF06C3871050CF48B011B
:1037900010933A0C0093390C0E940E8261E080E095
:1037A0000E9409810C94ED2480913B0983FF02C0A3
:1037B0000C94ED2483E50E940536182F81110C949A
:1037C000162882E50E94053681110C9416280C9467
:1037D000ED2483E50E940536882311F40C94ED2432
:1037E0000E94159C182F90E0CD970CF01CE31093CD
:1037F000D2020E94B3546B017C01212F30E0A8EE6D
:10380000B3E00E94E6EEC60ED71EE81EF91EC09277
:10381000CE02D092CF02E092D002F092D1020C946C
:10382000ED240E9446820E947CD40E94A78C1092B4
:10383000050480E00E94707B68EE73E080E090E019
:103840000E9494CB84E594E00E94659E0C94ED2444
:103850008091D9028F7D80618093D9020C94ED24F0
:103860008091D9028F7E80628093D9020C94ED24DE
:1038700083E50E9405368823F1F00E94B3546093DB
:103880002D0C70932E0C80932F0C9093300C0E9473
:10389000853520E030E04AE754E40E94F1EA0E94D6
:1038A00091F060930102709302028093030290935F
:1038B00004020C94ED2480910E0C84FF02C00C9441
:1038C0004B288091100C87FF02C00C944B288091EC
:1038D000110C837011F00C944B280C947D2883E517
:1038E0000E94BC35882311F40C94ED240E94B3543B
:1038F00060932D0C70932E0C80932F0C9093300CB2
:103900000E94853520E030E04AE754E40E94F1EA65
:103910000E9491F06093D3027093D4028093D502F9
:103920009093D6020C94ED240E94E78D87FF02C08D
:103930000C94ED2490910E0C94FD04C09091100C09
:1039400097FF0AC0BFE6CB2EB2E0DB2E1CE3E12ED0
:1039500019E0F12E10E00AC09091110C937091F7CC
:10396000682F81E00E9409920C94ED24D6018D917C
:103970006D010E940536882309F46DC0133009F0EB
:1039800063C00E9485354B015C0120E030E040EAD5
:1039900051E40E948BEA87FF4EC0A501940160911B
:1039A0005C0970915D0980915E0990915F090E94A8
:1039B00018F02B013C019B01AC0160910104709156
:1039C000020480910304909104040E94F1EA609340
:1039D0000104709302048093030490930404A301F0
:1039E000920160916C0970916D0980916E099091BE
:1039F0006F090E94F1EA60936C0970936D098093DE
:103A00006E0990936F096091ED037091EE038091C0
:103A1000EF039091F0030E9490EAA30192010E94AB
:103A2000F1EA0E9491F06093ED037093EE038093AE
:103A3000EF039093F00380925C0990925D09A0924D
:103A40005E09B0925F0907C00E948535F701648B5B
:103A5000758B868B978B1F5FF4E0EF0EF11C143093
:103A600009F084CF0E94028AB8C70E9489E08BECDB
:103A70009FE00E94D7D9B1C78091090C90910A0CA0
:103A8000009709F4AAC7DC012C91222309F4A5C7E9
:103A90000E94989EA2C70091090C10910A0C94E014
:103AA000F12C40E0915021F1F8018081282F2B7FEB
:103AB000213421F421812133D9F407C08035C1F4A8
:103AC000818180538A3048F013C0813421F08534DD
:103AD00021F441E002C0FF24F39498012E5F3F4F90
:103AE00089012F5F3F4FF80180818032C9F3DACF1F
:103AF00041110E94ABCEFF2021F081E794E00E94AB
:103B000030CCC8010E94302E68C70E94E3D265C73E
:103B100081E080938F0980938E090E9440D35DC716
:103B200010928F0910928E090E9440D356C782E4EA
:103B30000E94BC35882351F08091D7029091D80221
:103B4000892B31F00E94159C182F03C010E001C092
:103B50001FEF85E50E94BC35882351F08091D70284
:103B60009091D802892B31F00E94159C082F03C038
:103B700000E001C00FEF82E50E94BC35882349F0C8
:103B80008091D7029091D802892B29F00E94159C30
:103B900003C080E001C08FEF89830A831B83CE01BD
:103BA00001960E948C9C19C70E94E78D182F87FDF3
:103BB00014C70091850E84E40E940536882311F411
:103BC0000C9480280E9485356B017C0120E030E058
:103BD000A9010E948BEA882309F44BC024E0120259
:103BE000F0011124EF57F14FC082D182E282F382BB
:103BF00020E030E0A901C701B6010E947EF118164D
:103C0000D4F420E030E040E05FE3C701B6010E9459
:103C1000F1EA9B01AC010E94F1EA2BED3FE049E49F
:103C200050E40E94F1EA60930502709306028093CB
:103C300007029093080220E030E0A9016091810E14
:103C40007091820E8091830E9091840E0E948BEA77
:103C500081110CC080E090E0A0EEBFE38093810E64
:103C60009093820EA093830EB093840E01E00C9487
:103C7000802880E08093850E0E942862AEC60E9454
:103C8000E78D87FDAAC6AFE6EA2EA2E0FA2E0CE386
:103C900019E0D7018D917D010E94BC35882359F030
:103CA0000E9485350E9491F0F801608371838283C0
:103CB00093830E94BB890C5F1F4FF9E00C341F07F0
:103CC00041F78BC60E94E78D87FD87C6EFE6EE2E93
:103CD000E2E0FE2E0CE319E0FCE4CF2EF9E0DF2E4B
:103CE000D7018D917D010E94BC35882339F00E9457
:103CF0008535F80164A375A386A397A30C5F1F4FB6
:103D0000C016D10669F769C680910F0C87FF02C003
:103D10000C9486288091100C8E7011F00C948628DB
:103D20004091700950917109609172097091730905
:103D300085E794E00E9476CE409174095091750910
:103D400060917609709177098CE59DE10E9476CEAD
:103D5000409178095091790960917A0970917B09B5
:103D60008AE592E10E9476CE8AE00E94132D35C644
:103D700080910E0C827111F00C94CC288091100C63
:103D80008C7811F00C94CC288091110C837011F078
:103D90000C94CC2822C674E9E72E79E0F72E10E0C7
:103DA00088E5810F0E94BC35882359F00E94853533
:103DB000D7016D937D938D939C931397812F0E94D0
:103DC000AC641F5FB4E0EB0EF11C133049F756C82A
:103DD00040901B0F50901C0F60901D0F70901E0F95
:103DE00020913502309136024091370250913802CD
:103DF000C301B2010E941EEF6AA37BA38CA39DA303
:103E000080901F0F9090200FA090210FB090220F54
:103E10002091390230913A0240913B0250913C028C
:103E2000C501B4010E941EEF6EA37FA388A799A7C6
:103E3000C090230FD090240FE090250FF090260F14
:103E400020913D0230913E0240913F02509140024C
:103E5000C701B6010E941EEF6AA77BA78CA79DA78A
:103E6000209141023091420240914302509144021C
:103E7000C301B2010E941EEF2B013C0120914502BB
:103E8000309146024091470250914802C501B40169
:103E90000E941EEF4B015C012091490230914A02C1
:103EA00040914B0250914C02C701B6010E941EEF97
:103EB0006B017C010E94ABCE87EC94E00E9430CC79
:103EC00083E50E94BC35882321F00E94AF57809380
:103ED0005D0280915D02882319F080E593E002C0C5
:103EE0008CEF97E20E9430CC8FEB94E00E9430CCB4
:103EF0004AA15BA16CA17DA189EE9FE10E9476CED3
:103F00004EA15FA168A579A580E190E20E9476CEDE
:103F10004AA55BA56CA57DA586E095E00E9476CEBE
:103F200088E995E20E9430CC87EB94E00E9430CC87
:103F3000B301A20189EE9FE10E9476CEB501A401F2
:103F400080E190E20E9476CEB701A60186E095E07E
:103F50000E9476CE8AE00E94132D3FC583E50E9421
:103F60000536882331F00E94813590931E0280939C
:103F70001D0280910E0C90910F0CA091100CB0912D
:103F8000110C892B8A2B8B2B09F027C560911D0200
:103F900070911E0287ED94E00E9487CE85E20E9418
:103FA000132D8AE00E94132D18C50E94E78DF82E6C
:103FB00087FD13C583E50E9405360F2D0F2C000CDD
:103FC000110B882369F10E948135F801EE0FFF1F64
:103FD000ED5DFD4F91838083000F111F000F111FB6
:103FE000F801E75FFD4F7F01BC01990F880B990B2A
:103FF0000E9492EA2AE037ED43E25CE30E94F1EA94
:10400000F801E551F44F20813181428153810E94B2
:10401000F1EAD7016D937D938D939C931397DDC443
:104020000E94ABCE85E40E94132D80E38F0D0E9489
:10403000132D000F111FF801ED5DFD4F608171819F
:104040008BED94E00E9487CE85E20E94132D8AE0DA
:104050000E94132DC2C480E50E94BC35882309F458
:10406000BCC460E070E080E50E941236F82E6FEF6D
:104070007FEF83E50E9412368C010196039708F0CA
:10408000ACC4F7FCAAC48F2D0E94E42A882339F01F
:104090000E94A7CE83EE94E00E9430CC9EC40E9482
:1040A000E78A60E08F2D0E9474530F3FBFEF1B071C
:1040B00031F00130110571F000E010E00DC08F2DDE
:1040C0000E941C5331E020E0892B09F030E0032FDF
:1040D000122F02C001E010E08F2D0E941C538017A8
:1040E000910709F47AC480E00E94562EF5CF80E54E
:1040F0000E94BC35882309F470C40E9481358C016C
:10410000892B09F07FC083E50E94BC35882389F0A4
:104110000E9481358F3FEFEF9E0729F48FE99FE0E2
:104120000E94092B5AC4BC018FE99FE00E94C92B51
:1041300054C40E94ABCE60E070E082EF94E00E9435
:1041400087CE8091A10F28E532E06901C81AD10815
:1041500087FDD394CC0CDD1CCC0CDD1C0D2C000C8D
:10416000EE08FF088091A00F28E830E04901881A86
:10417000910887FD9394880C991C880C991C092C34
:10418000000CAA08BB0880919F0F8F3FC1F090E000
:10419000FC01EE0FFF1F8E0F9F1FFC01EA5AF04F2C
:1041A0002181328183E0220F331F8A95E1F794E069
:1041B000369527959A95E1F72E5F3F4F02C020E094
:1041C00030E02F5F3F4FC901330FAA0BBB0B9C019F
:1041D000AD01281939094A095B09A4EBB0E00E9436
:1041E000D3EEA7019601281939094A095B090E94F3
:1041F000B4EEB90187E496E20E9487CE8AE00E947D
:10420000132DEBC30E94A7CEB80183EF94E00E9468
:1042100087CE84EC93E00E9430CCDFC38AE50E9415
:104220000536811106C083E50E940536882309F40E
:104230004FC00E94853520E030E040E050EC0E9405
:104240008BEA87FF02C00C944A290E94853520E042
:1042500030E040E050E40E947EF1181614F40C9413
:1042600043290E9485356B017C0184E00E9417661A
:10427000811122C0209158093091590940915A0961
:1042800050915B09C701B6010E94F1EA0E948AF0D1
:104290002091DB023091DC02260F371F3093DC02C5
:1042A0002093DB022091290C30912A0C620F731F9E
:1042B00070932A0C6093290C80E50E94BC358823FA
:1042C00011F40C9451290E94AF5781110C9451297B
:1042D0008091100C87FF02C00C9478298091110CFA
:1042E000837011F00C9478290E94ABCE4091770E28
:1042F0005091780E6091790E70917A0E8AEF94E069
:104300000E9476CE8AE00E94132D67C360E085E4A8
:104310000E944DC4811173C080E50E94BC35882382
:1043200051F00E9485356093480F7093490F809338
:104330004A0F90934B0F89E40E94BC35882381F08B
:104340000E9485352CEA35EC47E25EE30E94F1EAF3
:1043500060934C0F70934D0F80934E0F90934F0FBF
:1043600084E40E94BC35882381F00E9485352CEAC4
:1043700035EC47E25EE30E9418F06093500F7093B3
:10438000510F8093520F9093530F0E94ABCE4091E8
:10439000480F5091490F60914A0F70914B0F81E186
:1043A00095E00E9476CE2CEA35EC47E25EE3609120
:1043B0004C0F70914D0F80914E0F90914F0F0E94B6
:1043C00018F0AB01BC018DE095E00E9476CE2CEA9E
:1043D00035EC47E25EE36091500F7091510F809190
:1043E000520F9091530F0E94F1EAAB01BC0189E09A
:1043F00095E00E9476CE8AE00E94132DEEC20E94C4
:10440000A7CE88E291E10E9430CCE7C280E50E940D
:10441000BC35882351F00E94853560933C0C709325
:104420003D0C80933E0C90933F0C89E40E94BC3578
:10443000882381F00E9485352CEA35EC47E25EE363
:104440000E94F1EA6093400C7093410C8093420CFF
:104450009093430C84E40E94BC35882381F00E9431
:1044600085352CEA35EC47E25EE30E9418F0609354
:10447000440C7093450C8093460C9093470C0E941B
:10448000ABCE40913C0C50913D0C60913E0C709134
:104490003F0C81E195E00E9476CE2CEA35EC47E2B4
:1044A0005EE36091400C7091410C8091420C9091C0
:1044B000430C0E9418F0AB01BC018DE095E00E9416
:1044C00076CE2CEA35EC47E25EE36091440C7091C5
:1044D000450C8091460C9091470C0E94F1EAAB018B
:1044E000BC0189E095E00E9476CE8AE00E94132DFF
:1044F00074C283E50E94BC35182F882371F00E9496
:1045000085350E948AF070930E0260930D0221E0BF
:10451000672B09F020E02093160480E50E94BC354B
:10452000882359F020910D0230910E02232B11F0B7
:104530000E94AF578093160450C211114EC20E94C0
:10454000ABCE8EE295E00E9430CC80911604882399
:1045500019F08AED95E202C085E195E00E9430CC29
:1045600060910D0270910E028DE195E00E9487CE60
:1045700089E195E00E9430CC30C20E940A722DC2BF
:104580000E94E78A2AC20E94A3360E9436D225C220
:104590000E949A360E9436D220C20E9445C81DC28F
:1045A0006FEF7FEF89E40E941236B82E6FEF7FEF36
:1045B0008AE40E941236182F83E40E94BC35E82E4C
:1045C0008EE40E94BC35C82E8AE50E94BC35F82EC8
:1045D000811105C081E50E94BC35D82E01C0D12CC7
:1045E000EE2081F020E030E040E067E27FE081E013
:1045F0000E9403BD29833A834B835C836D837E8352
:10460000032F02C0012F2B2D8E2D90E0B7FC05C08B
:104610001095111F1127111F01C010E0810F911D6E
:10462000019731F4F1100BC0D11009C0C11007C0BF
:104630000E94A7CE81E495E00E9430CCCEC12A3002
:1046400010F40A3038F00E94A7CE8AEB93E00E9463
:1046500030CCC3C1E22E220FFF08002E000C110B3C
:10466000C1101DC00E948535DD2099F02AE02E9DE5
:10467000F0012F9DF00D1124E00FF11FEE0FFF1F31
:10468000EE0FFF1FED52F34F2081318142815381A4
:1046900003C020E030E0A9010E941EEF04C060E0EA
:1046A00070E080EC9FE72AE02E9DF0012F9DF00D39
:1046B0001124E00FF11FEE0FFF1FEE0FFF1FED5251
:1046C000F34F608371838283938387C187E00E9465
:1046D0002A66811182C109ED11E127E23FE03BA387
:1046E0002AA3CE0101961C014BE6C42E4FE0D42E26
:1046F0007C01C8010E9447C4AAA1BBA18D909D90D6
:10470000AD90BD90BBA3AAA3A50194010E941DEF8B
:104710002B013C01F701608371838283938320E046
:1047200030E040EA51EC0E947EF187FD0AC020E0B3
:1047300030E040EA51E4C301B2010E948BEA18164E
:104740002CF4F601849118160CF4D9C5D7018D907C
:104750009D90AD90BD907D0120E030E040EA51ECAD
:10476000C501B4010E947EF187FDD4C520E030E090
:1047700040EA51E4C501B4010E948BEA18160CF01E
:10478000D0C5C8C50E94FE8328C10E940DAD25C1B9
:1047900061E083E50E94BF5791E089270E9480AFC6
:1047A0001CC181E08093D20C0E9473B21092D20C93
:1047B000882309F412C10E94ABCE8FE895E00E94D5
:1047C00030CC0BC10E94E78D87FD07C10E94108E7F
:1047D00004C10E94E78D082F87FDFFC085E50E9478
:1047E000BC358823B1F1E02E002E000CFF080E949A
:1047F00085354B015C0120E030E0A9010E947EF18B
:1048000087FF04C0B7FAB094B7F8B094C70123E0AB
:10481000880F991F2A95E1F79C012959314F790199
:10482000D9018D929D92AD92BC92139720E030E019
:1048300048E453E4C501B4010E947EF118164CF41B
:1048400080E090E0A8E4B3E4F70180839183A28341
:10485000B3838CE40E94BC35882309F4BEC0002ECB
:10486000000C110B0E9485356B017C0120E030E0CB
:10487000A9010E947EF187FF04C0F7FAF094F7F8CF
:10488000F09420E030E048E453E4C701B6010E9410
:104890007EF1980193E0220F331F9A95E1F7F90119
:1048A000E959F14F18162CF0C482D582E682F782BE
:1048B00094C080E090E0A8E4B3E484839583A68369
:1048C000B7838BC0A0901704B0901804C09019044F
:1048D000D0901A048BE40E940536882339F10E9497
:1048E00085357B018C0120E030E0A9010E947EF13A
:1048F00087FD0AC020E030E040E251E4B701C80182
:104900000E948BEA1816A4F48FE30E94132D8BE407
:104910000E94132D82EA95E00E9430CC8AE995E04E
:104920000E9430CC86E095E20E9430CC7501860171
:104930009701A801B501C6010E948BEA882361F0A6
:104940000E94E78AC701D801809317049093180446
:10495000A0931904B0931A0480910E0C90910F0C3F
:10496000A091100CB091110C892B8A2B8B2BA9F5DF
:104970000E94ABCE40911704509118046091190425
:1049800070911A0486EB95E00E9476CE8AE00E9430
:10499000132D23C081E08093930960E083E50E949A
:1049A000BF5781111AC00E94087817C00E94EEE01C
:1049B00014C010910B0C0E94B35460932D0C709393
:1049C0002E0C80932F0C9093300C112331F0812FFB
:1049D0000E944B7B02C00E94EEE0F8A9F1110FC0CB
:1049E000E091220BF0E0E552F04F8081882339F00E
:1049F00085EB9FE00E9430CC8AE00E94132D2EA50B
:104A00002093DA02B7C420E030E0A901C701B60163
:104A10000E948BEA881F8827881F181709F4A2C0F4
:104A200080E090E0A0E8BFEB8EA39FA3A8A7B9A762
:104A30002AA13BA14CA15DA1C501B4010E941DEFBB
:104A400020E030E040E05FE30E94F1EA6AA37BA34C
:104A50008CA39DA32AA53BA54CA55DA5C301B201CE
:104A60000E941DEF20E030E040E05FE30E94F1EAA9
:104A70002B013C012AA13BA14CA15DA1CA01B901B6
:104A80000E94F1EA4B015C01A3019201C301B20152
:104A90000E94F1EA9B01AC01C501B4010E941EEF26
:104AA0000E941CF24B015C019B01AC01C701B601E5
:104AB0000E941DEF6AA77BA78CA79DA7A501940163
:104AC000C701B6010E941EEF9B01AC016AA57BA540
:104AD0008CA59DA50E94F1EA6B017C0120E030E0ED
:104AE000A9010E947EF187FD07C0C701B6010E949F
:104AF0001CF26B017C0103C0C12CD12C7601C301D7
:104B0000B2019058A50194010E9418F02EA13FA176
:104B100048A559A50E94F1EAA70196010E94F1EA71
:104B20002AA13BA14CA15DA10E941EEF69837A835B
:104B30008B839C83A50194016AA17BA18CA19DA17B
:104B40000E9418F02EA13FA148A559A50E94F1EAA4
:104B5000A70196010E94F1EAA30192010E941EEFB3
:104B60000C94B01580E090E0A0E8BFE35DCF412F4A
:104B7000BE016F5F7F4F89E29BE00E9459DA0E947D
:104B8000B35460932D0C70932E0C80932F0C909344
:104B9000300C23CF0E94E78A9091800E9FA780E07F
:104BA0000E9441CA0E94B35460932D0C70932E0C46
:104BB00080932F0C9093300C0E94F1CF81E0809372
:104BC0008F090E9440D38AE50E94BC35E82E8823D5
:104BD000A1F081E00E941766182F82E00E941766FC
:104BE00001E0811101C000E0111113C088E50E94AD
:104BF000BC35F82E81110DC002C000E0F7CF0111C5
:104C0000A2C189E50E94BC35182FF02E80139CC1EB
:104C100004C0002309F495C1F02EE01294C111E004
:104C2000FF24F39491E09AA782E50E940536882339
:104C300019F00E94853504C060E070E080EA90E4DD
:104C40006E8F7F8F88A399A320E030E0A9010E9496
:104C50008BEA882361F0F11006C0111104C0AAA5E7
:104C6000AA2309F460C1CE014E960E94E751FF20AD
:104C700009F4D3C0112309F4CDC01092270F10926C
:104C8000280F1092290F10922A0F10922B0F1092BA
:104C90002C0F10922D0F10922E0F0E9434D2EBE6A3
:104CA000FFE0B491B9AB8DEC91E10E9447C46B0178
:104CB0007C0181ED91E10E9447C44B015C019B01A5
:104CC000AC01C701B6010E947EF118162CF4A701B1
:104CD0009601C501B40104C0A5019401C701B60144
:104CE0000E9418F02B013C01E4E5FFE085919591CD
:104CF000A591B4918AA39BA3ACA3BDA3E0E5FFE07B
:104D000085919591A591B4918EA39FA3A8A7B9A7CA
:104D10009C01AD016AA17BA18CA19DA10E947EF1A5
:104D2000181634F42EA03FA008A599A59AA305C093
:104D30002AA03BA00CA1ADA1AAA3A3019201C3018B
:104D4000B2010E94F1EA20E030E040E85FE30E9417
:104D50001EEF0E941CF29101402F5AA10E94F1EA1D
:104D60006A8F7B8F8C8F9D8FECE6FFE0049120E0B3
:104D700030E040EC5FE3C501B4010E94F1EA4B0171
:104D80005C01602F000F770B880B990B0E9492EA51
:104D90009B01AC01C501B4010E94F1EA69837A83E9
:104DA0008B839C8320E030E040EC5FE3C701B601D9
:104DB0000E94F1EA6B017C01B9A96B2FBB0F770B45
:104DC000880B990B0E9492EA9B01AC01C701B601C6
:104DD0000E94F1EA6E8B7F8B888F998FAE01465EC1
:104DE0005F4FBE016F5F7F4FCE0146960E94CDD0D0
:104DF0000E944FD31092270F1092280F1092290F64
:104E000010922A0F10922B0F10922C0F10922D0F30
:104E100010922E0F80E00E94CC64112319F081E0E3
:104E20000E94CC64EAA5EE2309F47DC080E00E94D4
:104E30006D9F83E00E942A66811175C00E9434D262
:104E4000C0902F0FD090300FE090310FF090320FC4
:104E500020916F0E3091700E4091710E5091720E34
:104E600060E070E086E193E40E941DEF6093290BFF
:104E700070932A0B80932B0B90932C0B2091730E25
:104E80003091740E4091750E5091760E60E070E096
:104E900086E193E40E941DEF60932D0B70932E0B1F
:104EA00080932F0B9093300B2091770E3091780EDA
:104EB0004091790E50917A0EC701B6010E941DEF04
:104EC0006093310B7093320B8093330B9093340BC0
:104ED00089E29BE00E9465398823D9F01E8A1F8AE7
:104EE000188E198E88E0E9E2FBE0DE011196019050
:104EF0000D928A95E1F7AE014A5E5F4FBE016B5F8E
:104F00007F4FCE0101960E94CDD082E00E94CC64FA
:104F10000AC087E993E00E94659E0E94ABCE85E8B7
:104F200093E00E9430CC0E9434D280918E0980930D
:104F30008F098FA50E9441CA0E94D8CF0E9436D205
:104F40004CCD01E05ECE102FEAA66ECE88E50E9421
:104F5000BC3581115F9889E50E94BC3581118A9822
:104F60008AE50E94BC35882331F080910801817068
:104F700080930601479885E40E94BC35882309F494
:104F80002CCD12982ACD8CEE93E00E94659E5F98FE
:104F90008A98809108018170809306014798129841
:104FA0001CCD8DE40E9405368823A9F00E94159C33
:104FB000813039F020F0823049F462E003C060E0D3
:104FC00001C061E0802F0E94745305C086E194E027
:104FD0000E9430CC02CD83E50E940536882309F477
:104FE000FCCC0E94159CF82E39E0E31203C080939C
:104FF0000504F3CC61E0802F0E9474536F2D802F45
:105000000E9445536F2D70E0802F0E94B053E5CC75
:105010000E9485350E948AF0CB010E94607B61E08E
:1050200081E00E94098111E00C94D71A0E94853515
:105030000E948AF06C3871055CF570933A0C6093AD
:10504000390C0E940E8260E081E00E94098160912B
:10505000390C70913A0C072E000C880B990B0E94AA
:1050600092EA2091350C3091360C4091370C5091DA
:10507000380C0E947EF118161CF485E494E002C0FE
:1050800086E394E00E94659E812F0E94F87BA5CC68
:105090006CE870E0D2CF0E94E78A88E50E94BC35B8
:1050A000882331F05F9A809191098E7F80939109D6
:1050B00089E50E94BC35882331F08A9A8091910954
:1050C0008D7F809391098AE50E94BC35882361F029
:1050D000809108018095817080930601479A8091A4
:1050E00091098B7F8093910985E40E94BC358823C8
:1050F00009F473CC0E949A2A70CC0E94A78C6DCCC4
:10510000602F83E50E94BF570C943A1E83E50E94EE
:105110000536882391F00E9485356093700970935D
:105120007109809372099093730960937809709361
:10513000790980937A0990937B0980E50E9405366E
:10514000882351F00E94853560937009709371092E
:10515000809372099093730982E50E940536882333
:1051600051F00E948535609374097093750980939E
:1051700076099093770984E50E940536882309F41F
:105180002CCC0E94853560937809709379098093BF
:105190007A0990937B0921CC82E40E94BC35882354
:1051A00051F00E94449260934C0970934D09809392
:1051B0004E0990934F0983E50E94BC35882351F036
:1051C0000E94853560937C0970937D0980937E09E8
:1051D00090937F0984E50E94BC35882351F00E949A
:1051E000853560938009709381098093820990933B
:1051F000830988E50E94BC35882351F00E948535DB
:105200006093F5037093F6038093F7039093F8038C
:1052100089E50E94BC35882351F00E948535609352
:10522000F9037093FA038093FB039093FC038AE5E0
:105230000E94BC358823B1F00E9485356093FD0340
:105240007093FE038093FF03909300042DEC3CECDD
:105250004CEC5DE30E948BEA181624F085E894E09C
:105260000E9430CC85E40E94BC35882309F4B5CB7C
:105270000E948535609301047093020480930304B7
:1052800090930404AACBC12CD12CE12C10E4F12E74
:105290000C943521C12CD12CE12CB0ECFB2E0C94BC
:1052A0003521A70196016091770E7091780E80915B
:1052B000790E90917A0E0E941EEF6093770E709394
:1052C000780E8093790E90937A0E0E94ABCE409127
:1052D000770E5091780E6091790E70917A0E8AEF68
:1052E00094E00E9476CE8AE00E94132D0C946821EF
:1052F00082E50E94BC3581110C9474216ECBB7FA03
:10530000B094B7F8B094D7018D929D92AD92BC92B3
:1053100013971CCA0E94A7CE81E795E00E9430CC6B
:105320005CCB0C5F1F4FBFEFCB1ADB0AE5EEF1E160
:10533000E017F10709F0DDC934E9E32E39E0F32E77
:1053400010E0F10181919191A191B1911F01F701BB
:1053500081939193A193B1937F01812F0E94AC64BB
:105360001F5F133071F70E9436D281E695E00E94EC
:10537000659E33CBE1960FB6F894DEBF0FBECDBF6E
:10538000DF91CF911F910F91FF90EF90DF90CF9021
:10539000BF90AF909F908F907F906F905F904F9055
:1053A0003F902F900895CF92DF92EF92FF920F934C
:1053B0001F93CF93DF936C018B017A01EC01C451F1
:1053C000DD4F888187FF04C0FB011182108224C059
:1053D0002CE02C9DC0012D9D900D11242881AC0145
:1053E000420F511D27FD5A9520919E0F30E0421724
:1053F000530794F42881AC01420F511D27FD5A95A3
:105400009A01FA01EE0FFF1F2E0F3F1FF901EA5A12
:10541000F04F208127FD19C088818F5F88832CE0A1
:105420002C9DC0012D9D900D11242881AC01420FAF
:10543000511D27FD5A9520919E0F30E042175307CA
:10544000BCF428812C3044F113C02881820F911DB7
:1054500027FD9A95FC01EE0FFF1F8E0F9F1FFC0189
:10546000EA5AF04F808160E08F770E944553D4CF95
:10547000F80180819181049680349C4918F480E47D
:105480009CE904C0F801808191810496F701918321
:1054900080838FEF888345C0F80140815181288146
:1054A000BC01620F711D27FD7A959B01FB01EE0F78
:1054B000FF1F2E0F3F1FF901EA5AF04F2181328161
:1054C000240F351FF701318320832881AC01420F5F
:1054D000511D27FD5A959A01FA01EE0FFF1F2E0F5D
:1054E0003F1FF901EA5AF04F208127FF1AC0288197
:1054F000820F911D27FD9A95FC01EE0FFF1F8E0F65
:105500009F1FFC01EA5AF04F808161E08F77DF91A5
:10551000CF911F910F91FF90EF90DF90CF900C945F
:105520004553DF91CF911F910F91FF90EF90DF9046
:10553000CF900895129A08955F9A809191098E7F75
:10554000809391098A9A809191098D7F8093910926
:10555000809108018095817080930601479A80911F
:1055600091098B7F809391090C949A2AC42F0E94F1
:1055700046820E94A7CE8AEB97E00E9430CC61E081
:1055800081EB97E00E94DE9D89EE93E030E6019783
:1055900029F0232F2A950000E9F7F9CFF89489EE36
:1055A00093E038EE019729F0232F2A950000E9F7C0
:1055B000F9CF0E944682CC2319F00E949C2A02C097
:1055C0000E949A2AA895FECFFF920F931F93CF9324
:1055D000DF931F92CDB7DEB7F82E0AED17E041E05A
:1055E00050E0B801CE0101960E94FEE989818F1139
:1055F00002C081E007C00F5F1F4F87E0073F180719
:1056000071F780E00F90DF91CF911F910F91FF9084
:105610000895DC01EC91F0E0CF01880F991FE80FAD
:10562000F91FEA5AF04F80818F77808308958F9217
:105630009F92AF92BF92CF92DF92EF92FF920F9321
:10564000CF93DF931F92CDB7DEB75C016B017A0178
:105650004901F501808191810E946CEE89830023CC
:1056600011F0F6018083BE016F5F7F4FC4010E947D
:1056700071E0F50180819181019691838083FFEF34
:10568000CF1ADF0A81E0E81AF10819F780E00F90DD
:10569000DF91CF910F91FF90EF90DF90CF90BF906F
:1056A000AF909F908F9008957F928F929F92AF922C
:1056B000BF92CF92DF92EF92FF920F931F93CF93FF
:1056C000DF931F92CDB7DEB77C0159018B016B01CF
:1056D000C40ED51E0C151D0559F1F701808091806F
:1056E000F80171908F017982C4010E946CEE7816E6
:1056F00091F0672DC4010E9474EEC4010E946CEE0B
:105700009981891741F00E94ABCE88E996E00E940A
:1057100030CC81E00EC0BE016F5F7F4FC5010E949B
:1057200071E0F70180819181019691838083D2CFCE
:1057300080E00F90DF91CF911F910F91FF90EF903C
:10574000DF90CF90BF90AF909F908F907F90089503
:10575000009781F41092900082E080939100109263
:10576000950010929400C19A80917100826080939C
:1057700071000895019761F41092A00082E0809377
:10578000A1001092A5001092A40089BB8093720022
:1057900008957F928F929F92AF92BF92CF92DF92A5
:1057A000EF92FF920F931F93CF93DF93FC019081B1
:1057B000983108F0CEC06B017F01892F90E0FC0189
:1057C000EE0FFF1F8E0F9F1FFC01EA5AF04F8081E2
:1057D00061E08F770E947453F701118212828081F9
:1057E0006CE00E94F5EEFCE08F9FB001112440E0D8
:1057F00050E09B01240F351FF901EE0FFF1F2E0F04
:105800003F1FF901EA5AF04F908197FD08C04F5FA2
:105810005F4F4C30510569F790E00E94A82BF701CB
:105820007080C72DD0E08E01000F111FF801EC0F22
:10583000FD1FEA5AF04F80818068808377FC89C021
:10584000F0E2CF16F2E0DF060CF041C0F7018281F2
:1058500028E532E0281B310987FD3395220F331FDD
:10586000220F331F032E000C440B550B818168E877
:1058700070E04B01881A910887FD9394880C991C5D
:10588000880C991C092C000CAA08BB08D7FC0BC07B
:10589000B601653B710514F064EB70E0072E000C57
:1058A000880B990B03C060E070E0CB01281939091F
:1058B0004A095B090E9482EE24EB30E040E050E0B0
:1058C0000E94B4EE820E931EA41EB51E01C04601B6
:1058D000F7E1F71558F1F701218188E890E0821B84
:1058E000910927FD9395880F991F880F991F881696
:1058F000990684F0F701228188E592E0821B9109E4
:1059000027FD9395880F991F880F991F8816990670
:105910000CF4C40102972FB7F894C00FD11FCA5AD4
:10592000D04F880F991F9A8389832FBF62E370E05D
:1059300080E090E0DF91CF911F910F91FF90EF9069
:10594000DF90CF90BF90AF909F908F907F900C94FE
:1059500094CBDF91CF911F910F91FF90EF90DF904B
:10596000CF90BF90AF909F908F907F9008951F929F
:105970000F920FB60F9211240BB60F922F933F93F5
:105980004F935F936F937F938F939F93AF93BF9347
:10599000EF93FF9348EA50E064EA70E081E090E022
:1059A0000E94D329FF91EF91BF91AF919F918F9169
:1059B0007F916F915F914F913F912F910F900BBE0F
:1059C0000F900FBE0F901F9018951F920F920FB659
:1059D0000F9211240BB60F922F933F934F935F9327
:1059E0006F937F938F939F93AF93BF93EF93FF93A7
:1059F00048E950E064E970E080E090E00E94D3293B
:105A0000FF91EF91BF91AF919F918F917F916F9196
:105A10005F914F913F912F910F900BBE0F900FBE52
:105A20000F901F9018959091C00095FFFCCF809328
:105A3000C60008958F929F92AF92BF92EF92FF920D
:105A40000F931F93CF93DF93CDB7DEB7A0970FB619
:105A5000F894DEBF0FBECDBF6115710581059105BC
:105A600091F100E0842E912CA12CB12C102FEE246A
:105A7000E394F12CEC0EFD1EE00EF11C07FDFA94F0
:105A8000A50194010E9492EEF7016083B901CA0159
:105A90000F5F611571058105910541F71F3F31F1D8
:105AA000E1E0F0E0EC0FFD1FE10FF11D17FDFA95AD
:105AB00080818A3010F097E301C090E3890F0E9443
:105AC000132D1150EBCF80E3A0960FB6F894DEBFF4
:105AD0000FBECDBFDF91CF911F910F91FF90EF903F
